:10000000EDC5000008C6000006C600000C943D22A5
:1000100002C6000000C60000FEC50000FCC50000CE
:10002000FAC500000C945721F6C500000C949E29D7
:10003000F2C50000F0C50000EEC50000ECC50000F0
:10004000EAC50000E8C50000E6C50000E4C5000000
:10005000E2C50000E0C50000DEC50000DCC5000010
:10006000DAC50000D8C50000BA13C01342147114D9
:10007000D813FC13F315FC15D7142C153D15B71325
:1000800007634236B79BD8A71A39685618AEBAAB81
:10009000558C1D3CB7CC5763BD6DEDFD753EF61715
:1000A0007231BF000000803F08000000BE9224496A
:1000B000123EABAAAA2ABECDCCCC4C3E000000809A
:1000C000BEABAAAAAA3E00000000BF000000803F0D
:1000D0000000000000084178D3BB4387D1133D19CD
:1000E0000E3CC3BD4282AD2B3E68EC8276BED98FFA
:1000F000E1A93E4C80EFFFBE01C4FF7F3F0000003E
:1001000000004A616E00466562004D6172004170F8
:1001100072004D6179004A756E004A756C00417538
:100120006700536570004F6374004E6F760044653E
:100130006300020106010A010E01120116011A01F3
:100140001E01220126012A012E012000500041003B
:100150003A003A00500041003A0020000000000040
:1001600000000000000000007C7E7E7C0000007C1F
:100170007E7E7C0000007C7E7E7C0000007C7E7E9B
:100180007C000000000000000000000000000000F3
:10019000000000000000000000000000000000005F
:1001A0000000000080C0C0E07078381C1E0E0E1CDD
:1001B0001C1C38383870707060E0E0C0C0C08080AF
:1001C00080000000000000000000000000000000AF
:1001D0000000000000000000000000000000307877
:1001E0007878787800FCFEFF0F07070707070707F6
:1001F000078787878787878787870707070707070F
:100200000FFFFEFC000000008080C0C0E060703086
:1002100038381C1C0E0E07070707070E0E0E0C1CA5
:100220001C0E070703010100000000000000000091
:1002300000000000000000000000000001010103B8
:1002400003030707070E0E0E1C1C1C38383870708D
:1002500070E0E0E0C0C0C080808000000000183C7A
:100260003C3C3C3C00FFFFFF000000000000C0F8E9
:10027000FFFFFFE7E7E7E7FFFFBF1F06000080C0C3
:10028000E0E7E7E70000030383C1C1E06060E0E06E
:10029000C000C0E0E0E00080C0E0E060C0E0E0E07E
:1002A0000080E0E0E0E00080E0E0E000000080C0EE
:1002B000C0E06060E0E0E0C000000080C0C0E0603E
:1002C00060E0E0E0C00000C0E0E0E06060E0E0E0AE
:1002D000C0000080C1E1E1636363630000000C1EA5
:1002E0001E1E1E1E00FFFFFF00000000F0FEFFFFAD
:1002F000FFF1F1F1F1797F3F1FC7E0F87C3E1F1F4E
:1003000019FFFFFF00007CFFFFE7C1C0E060208015
:10031000F0FEFF7F1F3FFFFBF1C00000FFFFFF7CEF
:100320003E0FFFFFFFF93E1F070100007EFFFFE7C2
:10033000C1C0E0787F3F1F07007EFFFFE7C1C0E03C
:10034000787F3F1F87F0FEFFFFCFC1E0787F3F1F20
:1003500007E0E0E3C7C7FF7E7E3C00000000060F19
:100360000F0F0F0F001F3F7F7870707070707070EC
:10037000707070707070707070707070707070707D
:10038000787C3C1C00000000000000000000000021
:10039000000000000000000000000000000000005D
:1003A000000000000000000000000000000000004D
:1003B000000000000000000000000000000000003D
:1003C000000000000000000000000000000000002D
:1003D000000000000000000000000000000000001D
:1003E00000000000000000001F3F3F1F0000001F32
:1003F0003F3F1F0000001F3F3F1F0000001F3F3F07
:100400001F00000000001F1F181818181818181CCB
:100410001C1818181818181C1C1818181818181C4C
:100420001C1818181818181C1C1818181818181840
:100430001F1F181818181818181C1C181818181826
:10044000181C1C1818181818181C1C18181818181C
:10045000181C1C1818181818181F1F00312E302EC1
:10046000320045786974204D656E75004C696E6583
:1004700020312044617461004C696E652032204453
:10048000617461004C696E652033204461746100C1
:100490004C696E6520342044617461004C696E655E
:1004A00020352044617461004C696E65203620441B
:1004B0006174610062046C047804840490049C04F8
:1004C000A804000043616C69627261746500536541
:1004D000742044657374696E6174696F6E0052654F
:1004E0007365742044657374696E6174696F6E001E
:1004F0006204C404CE0400004461746520616E642B
:100500002054696D65004D6561737572656D656E2A
:100510007420556E69747300536C65657020446572
:100520006C617900536F756E64004C434420436FD7
:100530006E747261737400526573746F72652044D7
:10054000656661756C747300457261736520416CFA
:100550006C2044617461006204F8040605180524E7
:10056000052A0537054805000054656D7065726100
:100570007475726500416C746974756465005261CC
:100580007465206F6620417363656E740054696DF5
:100590006520746F2044657374696E6174696F6E51
:1005A0000053746174696F6E205072657373757255
:1005B0006500536561204C6576656C2050726573EB
:1005C000737572650054696D65206F6620446179AA
:1005D000004461746520616E642054696D65005447
:1005E000656D7065726174757265205472656E64B4
:1005F000005072657373757265205472656E640085
:100600005765617468657220466F726563617374C3
:1006100000456D707479006204690575057E058D6D
:1006200005A105B205C505D105DF05F105000611D7
:100630000600005669657720536E617073686F74A9
:10064000204C6F670054616B6520536E6170736856
:100650006F740062043306450600004578706C6FC5
:1006600072652047726170680044726177696E67D5
:10067000205374796C6500437573746F6D20592D28
:1006800041786973204D696E00437573746F6D20F6
:10069000592D41786973204D6178004175746F2040
:1006A000592D41786973204D696E004175746F2032
:1006B000592D41786973204D61780062045B0669A9
:1006C00006770689060000536F6172696E670052F3
:1006D0006973696E67204661737400526973696E4D
:1006E0006700526973696E6720536C6F77005374AB
:1006F000656164790046616C6C696E6720536C6F4C
:10070000770046616C6C696E670046616C6C696E5F
:1007100067204661737400506C756D6D6574696E09
:100720006700C706CF06DB06E206EE06F5060207FF
:100730000A0717072B002D2D2D2D002B002D2D2DF9
:100740000044657374696E6174696F6E20002000E7
:100750002000200020002000300020002D0020007C
:10076000504D00414D0020002000200020002000BE
:100770002000200020002000200020002000200079
:10078000536E617073686F74200020004F666600BE
:100790004F6E00536F756E642000436F6E7472610C
:1007A00073742000560042617474657279200020D1
:1007B0002020202020746F20756E6C6F636B0020EA
:1007C000686F6C64205052455620616E64204E451F
:1007D0005854002000200020002000556E696D70E4
:1007E0006C656D656E746564002000200045727252
:1007F0002000436C6561722C204472790046616967
:100800007200556E6368616E676564005261696E5F
:100810000053746F726D7900566572792053746F4E
:10082000726D7900436C656172696E6700476F6F26
:1008300064205765617468657200417070722E2083
:1008400053746F726D00506F6F72205765617468DA
:10085000657200556E6368616E6765640042726917
:1008600065662053686F77657200556E61766169C1
:100870006C61626C6500466F726563617374200021
:100880005072657373757265200054656D70200039
:100890003A002D2D2D2D2D0054696D6520746F208B
:1008A0004465737420002F6D696E00446573636541
:1008B0006E64696E672000417363656E64696E677C
:1008C0002000536561204C657620507273200053E0
:1008D000746174696F6E2050727320003268003149
:1008E000306800326400604300206D6200206D00BB
:1008F00060460020696E0020667400200000000041
:10090000000000005F00000007000700147F147F54
:1009100014242A7F2A122313086462364956205071
:100920000006050300001C2241000041221C002A91
:100930001C7F1C2A08083E08080080703000080848
:10094000080808000060600020100804023E5149B9
:10095000453E00427F400072494949462141494D88
:10096000331814127F1027454545393C4A4949310F
:1009700041211109073649494936464949291E008E
:1009800000140000103070301000081C3E7F14145A
:10099000141414007F3E1C0802015909063E415DF3
:1009A000594E7C1211127C7F494949363E414141E2
:1009B000227F4141413E7F494949417F090909015F
:1009C0003E414151737F0808087F00417F4100206C
:1009D00040413F017F081422417F404040407F0258
:1009E0001C027F7F0408107F3E4141413E7F090980
:1009F00009063E4151215E7F091929462649494988
:100A00003201017F01013F4040403F1F2040201F35
:100A10003F4038403F6314081463030478040361C3
:100A200059494D43007F41414102040810200041D3
:100A300041417F040607060440404040400006054F
:100A4000030020545478407F2844443838444444B8
:100A500028384444287F385454541800087E09022A
:100A600018A4A49C787F0804047800447D400020EA
:100A700040403D007F1028440000417F40007C043E
:100A80007804787C080404783844444438FC1824FA
:100A9000241818242418FC7C0804040848545454CE
:100AA0002404043F44243C4040207C1C2040201C63
:100AB0003C4030403C44281028444C9090907C446A
:100AC00064544C4420504153542000414C544954E8
:100AD0005544450050524553535552450054454DD9
:100AE000500000407A10F35A00A0724E180900100E
:100AF000A5D4E80000E87648170000E40B54020093
:100B000000CA9A3B000000E1F505000080969800BD
:100B1000000040420F000000A086010000001027E6
:100B200000000000E8030000000064000000000076
:100B30000A00000000000100000000002C76D888A8
:100B4000DC674F0823DFC1DFAE59E1B1B796E5E3BB
:100B5000E453C63AE651997696E8E6C28426EB89D4
:100B60008C9B62ED407C6FFCEFBC9C9F40F2BAA571
:100B70006FA5F490055A2AF75C936B6CF9676DC109
:100B80001BFCE0E40D47FEF520E6B500D0ED902E0D
:100B90000300943577050080841E080000204E0A6B
:100BA000000000C80C333333330F986E12831141A9
:100BB000EF8D2114893BE65516CFFEE6DB18D18474
:100BC0004B381BF77C1D901DA4BBE424203284729B
:100BD0005E228100C9F124ECA1E53D2711241FBE4E
:100BE000CFEFD8E0DEBFCDBF12E0A0E0B1E0EEE095
:100BF000FEE602C005900D92AC36B107D9F717E0BA
:100C0000ACE6B2E001C01D92A130B107E1F70E944D
:100C1000DF1E0C940537F4C90F931F938091640075
:100C20008E7F8093640080917A00806880937A0040
:100C300086E480937C008FE99FE00197F1F700C084
:100C4000000080917A00806480937A0080917A001D
:100C500086FDFCCF2091780030E040E050E08091AC
:100C60007900782F60E0882777FD8095982F622B98
:100C7000732B842B952B2CEB3CE040E050E00E9442
:100C8000553320917A002F7720937A0020916400C9
:100C90002160209364002FEF33E040E050E00E9499
:100CA000C933B901CA011F910F91089580E896EEEA
:100CB000A5ECB7E480939F029093A002A093A102B9
:100CC000B093A2020895CF93DF933B9A43988FECA1
:100CD00097E00197F1F700C00000439A8FE19EE48E
:100CE0000197F1F700C0000080E896EEA5ECB7E4AC
:100CF00080939F029093A002A093A102B093A202BE
:100D00000E9420238EEE0E941D23C5E8D2E08AEACD
:100D100090E066E170E0AE010E942623882359F03E
:100D20008881998198838983229692E0CB39D9076B
:100D3000B9F781E001C080E0DF91CF910895A2E092
:100D4000B0E0E5EAF6E00C94F43384EF90E06EE274
:100D50000E94BB238FE097E20197F1F700C00000EB
:100D600086EF90E062E070E0AE014F5F5F4F0E945F
:100D70002623882339F0998180E02A8130E0282BCE
:100D8000392B02C020E030E0C9012296E2E00C9449
:100D90001034A3E0B0E0EFECF6E00C94F43384EF11
:100DA00090E064EF0E94BB238FE19BEC0197F1F789
:100DB00000C0000086EF90E063E070E0AE014F5F9E
:100DC0005F4F0E942623882319F1298130E040E0FB
:100DD00050E0A901332722278A8190E0A0E0B0E00B
:100DE000BA2FA92F982F8827282B392B4A2B5B2B1A
:100DF0008B8190E0A0E0B0E0282B392B4A2B5B2BB5
:100E000085E056954795379527958A95D1F703C084
:100E100020E030E0A901B901CA012396E2E00C9478
:100E20001034EF92FF920F931F93BC0180E090E08B
:100E300020918F023091900240E050E0621B730BD2
:100E4000840B950B20918D0230918E0240E050E092
:100E50000E9455337B018C01AFE015950795F794FF
:100E6000E794AA95D1F7609197027091980288272C
:100E700077FD8095982FFBE0660F771F881F991FDD
:100E8000FA95D1F72091990230919A02442737FDC3
:100E90004095542F2E0D3F1D401F511F0E94C933F6
:100EA0002E0D3F1D401F511F20939B0230939C022B
:100EB00040939D0250939E02285F3F4F4F4F5F4FDC
:100EC000E4E05595479537952795EA95D1F7C901FF
:100ED0001F910F91FF90EF900895A4E0B0E0E3E739
:100EE000F7E00C94E43369837A838B839C8360906E
:100EF0009B0270909C0280909D0290909E0280E6E2
:100F000090EFAFEFBFEF680E791E8A1E9B1EC401E3
:100F1000B301A40193010E9455331B012C01609180
:100F2000890270918A02882777FD8095982F0E9408
:100F300055337B018C014DE015950795F794E794A7
:100F40004A95D1F782E090E0A0E0B0E0E80EF91E0B
:100F50000A1F1B1FC201B1013CE09595879577954B
:100F600067953A95D1F720919102309192024427EA
:100F700037FD4095542F0E945533BC01992777FDCA
:100F80009095892FE60EF71E081F191FB2E01595E0
:100F90000795F794E794BA95D1F780E090E8A0E040
:100FA000B0E0E80EF91E0A1F1B1F20918B02309142
:100FB0008C0240E050E0C801B7010E9455335B014C
:100FC0006C01AFE0D694C794B794A794AA95D1F7D3
:100FD0002091930230919402442737FD4095542F7D
:100FE000C201B1010E9455337B018C01F7E11595D7
:100FF0000795F794E794FA95D1F76091870270917D
:101000008802882777FD8095982FA40193010E947C
:101010005533EBE09595879577956795EA95D1F7E8
:10102000E60EF71E081F191F809185029091860217
:10103000AA2797FDA095BA2F72E0880F991FAA1FC3
:10104000BB1F7A95D1F7E80EF91E0A1F1B1FEE0C85
:10105000FF1C001F111F89819A81AB81BC818E19F1
:101060009F09A00BB10BBC01CD012AE638E140E09D
:1010700050E00E94553397FD0BC0660F771F881F05
:10108000991FA60195010E94A73379018A010AC020
:10109000A60195010E94A73379018A01EE0CFF1C7D
:1010A000001F111F552717FD5A95412F302F2F2D47
:1010B000CA01B9010E9455332EED3BE040E050E0FB
:1010C0000E9455335B016C01C801B70123E433EE84
:1010D0004FEF5FEF0E9455339C01552737FD509528
:1010E000452F2153314F4F4F5F4F5601DD24B7FC41
:1010F000D094CD2C2A0D3B1D4C1D5D1DB4E05595A3
:10110000479537952795BA95D1F72E0D3F1D401F6E
:10111000511FB901CA012496E2E10C9400342091D8
:101120009F023091A0024091A1025091A2020E9420
:10113000663021EB3CED42E45EE30E94F031562F35
:10114000472F382F292F60E070E080E89FE3DA0115
:10115000F9012B2F3A2F4F2F5E2F0E94013020E0F4
:101160003AE24DE257E40C948D31EF92FF920F93E7
:101170001F937B018C01CA01B90120E03AE24DE2E4
:1011800057E40E9466309B01AC0160E070E080E8AB
:101190009FE30E94013026EF38E248EA50E40E94C3
:1011A000F031562F472F382F292FC801B701DA0108
:1011B000F9012B2F3A2F4F2F5E2F0E9466301F917F
:1011C0000F91FF90EF9008959C01862FF9010190F7
:1011D0000020E9F73197E21BF30BE20FF31F6A30AF
:1011E00010F490E3919390E0BF014AE050E00C943A
:1011F0006E34FF920F931F938C01F62EE42FF0E0D4
:10120000EE0FFF1FE05DFE4F25913491C801B9013B
:101210000E944D34C8016AE571E00E944234C80161
:101220006F2DD2DFC8011F910F91FF900895CF92CB
:10123000DF92EF92FF921F93DF93CF930F92CDB780
:10124000DEB76C01162FFC011082662341F06C3072
:1012500031F0862F6CE00E947433692F01C06CE07E
:10126000C6014983B1DFC60168E571E00E944234DE
:10127000C6014981642FA8DF1C3018F466E571E0CF
:1012800002C064E571E0C6010E944234C6010F90BD
:10129000CF91DF911F91FF90EF90DF90CF90089555
:1012A000CF92DF92EF92FF921F93DF93CF9300D004
:1012B000CDB7DEB76C01162FFC011082662341F01A
:1012C0006C3031F0862F6CE00E947433692F01C0BE
:1012D0006CE0C6012A83498377DFC60162E571E0CD
:1012E0000E944234C6014981642F6EDFC60160E569
:1012F00071E00E944234C6012A81622F65DF1C30F2
:1013000018F46EE471E002C06CE471E0C6010E9462
:101310004234C6010F900F90CF91DF911F91FF9043
:10132000EF90DF90CF900895EF92FF920F931F936D
:10133000CF93DF93EC019B018FB7F8941091AC022F
:101340000091AB02F090A4024091A302E090A602AB
:101350008FBFCB016CE370E00E948033181B1C33FD
:1013600010F00150145CC9016CE370E00E948033FE
:101370009B01CB0168E170E00E948033081B0831BB
:1013800010F0FA94085E8E2D837011F48DE101C087
:101390008CE180930201FF2041F4415009F44CE0BC
:1013A000E42FF0E0E050FF4FF080C90168E170E009
:1013B0000E9480339B010FC021503040FA948F2D42
:1013C00081508F3140F0415009F44CE0E42FF0E0BF
:1013D000E050FF4FF0802115310571F7CE016F2DE0
:1013E00008DFCE016AE471E00E9442347E01EC2FF6
:1013F000FF2DDF010D900020E9F7CD0101978E1B35
:101400009F0B8C0F9D1F602F412F11DFCE01CDB799
:10141000DEB7E6E00C940C341092A60281E08093D3
:10142000A3028093A4021092AB021092AC0210921D
:10143000A50208958091A7029091A802A091A90207
:10144000B091AA020196A11DB11D8093A7029093AD
:10145000A802A093A902B093AA028091A70290913A
:10146000A802A091A902B091AA0283709070A07006
:10147000B0700097A105B10509F051C08091A50297
:101480008F5F8093A5028091A5028C3309F047C03D
:101490001092A5028091AC028F5F8093AC02809184
:1014A000AC028C33E1F51092AC028091AB028F5FFD
:1014B0008093AB028091AB02883189F51092AB0228
:1014C0008091A4028F5F8093A4028091A602837012
:1014D00011F48DE101C08CE1809302012091A402FE
:1014E000E091A30230E0F0E0E050FF4F808190E017
:1014F00001962817390799F491E09093A4028091FE
:10150000A3028F5F8093A3028091A3028D3039F4F0
:101510009093A3028091A6028F5F8093A602089504
:10152000A7E1B0E0E6E9FAE00C94E833E091790253
:10153000F0E0EE0FFF1FE85FFD4F8080918020E01C
:1015400001C02F5F622E7724F301EE0FFF1FE80D1D
:10155000F91D859194910097A1F700E010E06E01CC
:101560000894C11CD11CD5C080917F02F801E80FFE
:10157000F11DEE0FFF1FE80DF91D85919491E82EE6
:10158000F92E809179028130A1F480917F02980137
:10159000280F311D2230310561F48091C2029091F3
:1015A000C3023FE78F3F930721F04EEDE42E44E066
:1015B000F42E809179028A30D1F58091B102823087
:1015C00029F0E1E0843019F4E0E001C0E2E080912C
:1015D0007F029801280F311D2330310589F4AE2F89
:1015E000B0E0AA0FBB1FA850B94F8D919C911197E5
:1015F0003FE78F3F930721F02BE9E22E26E0F22E02
:1016000080917F029801280F311D2430310579F433
:10161000F0E0EE0FFF1FE351F94F808191813FE72A
:101620008F3F930721F08BEAE82E86E0F82EA02E5C
:10163000B02EB39480E06B2D0E94862A40E09091FA
:101640007F0280917C029801290F311D90E02817BC
:10165000390711F46FE701C060E081E04F8B0E9411
:10166000C6294F894F5F403851F784E06B2D0E94A7
:10167000862AC601B70145E150E00E94543490919A
:101680007F0280917C029801290F311D90E061E07A
:101690002817390709F060E0C6010E946F2AAA20C6
:1016A00091F480917F02882379F18AE76B2D0E9463
:1016B000862A90917F0280917C0261E0981360E01D
:1016C0008DE091E01FC08A2D8630F1F480917F0279
:1016D00090E00196800F911F86159705A9F08AE783
:1016E0006B2D0E94862A90917F0280917C02980146
:1016F000290F311D90E061E02817390709F060E0FB
:101700008FE091E00E946F2A0F5F1F4F0730110595
:1017100049F080917F029801280F311D2615370569
:101720000CF422CF6796EEE00C94043481E00E9422
:10173000912980917C028F5F80937C0280917C0252
:10174000873019F58FB7F8949091B7029093A5025E
:101750009091BD029093AC029091C7029093AB021E
:101760009091C6029093A4029091B5029093A30227
:101770009091B4029093A6028FBF88E08093790283
:1017800010927B0281E08093750208959091B402DB
:10179000937011F49DE101C09CE12091B5022230CB
:1017A00099F09091B502943061F09091B502963025
:1017B00041F09091B502993021F09091B5029B30A3
:1017C00011F49EE101C09FE13091C70220917C029B
:1017D000233009F450C0243030F4213051F122304C
:1017E00008F043C00AC0253009F484C0253008F44D
:1017F00067C0263009F0B7C097C09091B502980F26
:101800009093B5028091B5028150813F20F0809184
:10181000B502845F0BC08091B50281508C3020F0FE
:101820008091B5028C5002C08091B5028093B502C0
:1018300008952091C602280F2093C6028091C60207
:101840008150813F20F08091C602890F0BC08091AA
:10185000C6028150891720F08091C602891B02C000
:101860008091C6028093C60208959091B402980FA9
:101870009093B40208959091C702980F9093C70275
:101880003C3048F08091C7028C50813F40F48091F9
:10189000C7028C500AC08091C702813F20F080911E
:1018A000C702845F0AC08091C7028C3020F080910B
:1018B000C7028C5002C08091C7028093C70208956E
:1018C0009091BD02980F9093BD028091BD02813F1F
:1018D00020F08091BD02845C0AC08091BD028C33EF
:1018E00020F08091BD028C5302C08091BD02809394
:1018F000BD0208959091B702980F9093B70280911E
:10190000B702813F20F08091B702845C0AC08091C9
:10191000B7028C3320F08091B7028C5302C08091C3
:10192000B7028093B7020895813021F48091C702F5
:10193000845F03C08091C7028C508093C70280915E
:10194000C702813F20F08091C702885E0AC0809163
:10195000C702883120F08091C702885102C080916F
:10196000C7028093C7020895E0917902E093B10223
:101970007093BA026093B9029093BC028093BB0249
:101980005093C1024093C0023093C5022093C40219
:101990001092B3021092B2028CE080937902089503
:1019A000EF92FF920F931F9381E00E949129809103
:1019B000B102883051F480917C02833009F042C139
:1019C0008091C0028093B6023DC1813009F07CC095
:1019D00080912D028823E1F46091C0027091C102D0
:1019E000882777FD8095982F0E94013120E030E014
:1019F00040E05FE30E94023025E83BEE41E550E421
:101A00000E948D310E94CE307093C1026093C0025B
:101A100080917C02813021F0823009F013C14BC0EB
:101A20006091D0027091D1028091D2029091D30244
:101A30000E9401317B018C016091C0027091C10252
:101A4000882777FD8095982F0E9401312FEB3EE08B
:101A50004CE95EE30E948D319B01AC01C801B701E6
:101A600084DB60939F027093A0028093A102909305
:101A7000A2026091D0027091D1028091D202909125
:101A8000D3020E9401314BDB25E83BEE41E550E4F7
:101A90000E948D316093D6027093D7028093D80252
:101AA0009093D9028091C0029091C1029093DB0281
:101AB0008093DA02C7C08091C0029091C1029093D6
:101AC000C3028093C202BEC08091B8028230D1F5B9
:101AD00080912D028823E1F46091C0027091C102CF
:101AE000882777FD8095982F0E94013120E030E013
:101AF00040E05FE30E94023025E83BEE41E550E420
:101B00000E948D310E94CE307093C1026093C0025A
:101B100080917C02833019F0843091F409C0809167
:101B2000C0029091C1029093FD068093FC0608C00C
:101B30008091C0029091C1029093F2068093F106C9
:101B400082E07EC0843009F043C080912D0288235A
:101B500059F08091C0029091C102880F991F909313
:101B6000C1028093C0021AC08091C0029091C1024C
:101B70009C01220F331FC901F3E0880F991FFA95CA
:101B8000E1F7820F931F029665E070E00E949433A4
:101B9000605C7F4F7093C1026093C00280917C02B1
:101BA000833019F0843091F409C08091C002909183
:101BB000C1029093F9068093F80608C08091C00294
:101BC0009091C1029093EE068093ED0684E038C0B8
:101BD0008630C1F580912D026091C0027091C102E2
:101BE000882379F0882777FD8095982F0E9401310E
:101BF00020EA34E747E852E40E948D310E94CE305B
:101C000002C0660F771F7093C1026093C00280917B
:101C10007C02833019F0843091F409C08091C002B5
:101C20009091C1029093FB068093FA0608C08091C0
:101C3000C0029091C1029093F0068093EF0686E077
:101C40008093B1028091B1028093790210927B025D
:101C500081E0809375021F910F91FF90EF9008959E
:101C6000282F30E04091C0025091C10287FD07C08B
:101C7000240F351F3093C1022093C00209C0CA014E
:101C800080509140820F931F9093C1028093C002B5
:101C90008091BB029091BC022091C0023091C102A0
:101CA0002817390724F49093C1028093C0028091D1
:101CB000B9029091BA022091C0023091C1028217FC
:101CC000930724F49093C1028093C0028091B102E3
:101CD000883089F480917C02853069F48091C0025B
:101CE0008093F70680E061E80E94C6296091F706BC
:101CF00080E00C94C6290895209179022093B102C6
:101D00009093B0028093AF027093AE026093AD02E5
:101D10005093BF024093BE0210927E028DE08093EA
:101D20007902089590917E0281E0891B80937E0262
:101D30000895CF93DF9380917902883009F072C0C3
:101D400080917C02843009F45FC0853040F4823099
:101D500089F18330E8F5813009F0C4C20AC08630C9
:101D600009F44AC0863008F43DC0873009F0BAC291
:101D700043C08BE08093790210927C028FB7F89475
:101D80009091A5029093B7029091AC029093BD02FE
:101D90009091AB029093C7029091A4029093C602D7
:101DA0009091A3029093B5029091A6029093B402F1
:101DB0008FBF98C281E191E062E171E04BE151E0B7
:101DC0009BDF90912D0281E0992349F180E027C0AB
:101DD0004091B60280E090E068E770E050E022E2D7
:101DE00031E07FC24091F70680E090E06FEF70E055
:101DF00050E020E030E075C284E291E062E371E0FF
:101E000045E351E079DF6EC281E191E069E371E081
:101E10004CE351E071DF9091610281E0891B809376
:101E20007E0260C220917902213009F097C0809132
:101E30007C02813021F0823009F054C250C06091A0
:101E4000D6027091D7028091D8029091D90220E0F9
:101E500030E040E05FE30E9402300E94CE30AB01F0
:101E6000BC0180912D028823A1F4BA01882777FD57
:101E70008095982F24E630E040E050E00E945533F2
:101E800028E431E040E050E00E94C933832F422F24
:101E9000582FE0912D0280912D02A0912D02F0E0AB
:101EA000EE0FFF1FE65BFD4FC82FD0E0CC0FDD1F0C
:101EB000CA5ADD4F68817981B0E0AA0FBB1FA25CCE
:101EC000BD4F2D913C912F5F3F4F808191814CDD23
:101ED00080E491E09093B3028093B20203C28091B8
:101EE000C2029091C3023FE78F3F930759F08FEFF3
:101EF0009FE79093C3028093C20210927B022093CB
:101F00007502F0C16091D6027091D7028091D8021B
:101F10009091D90220E030E040E05FE30E9402307F
:101F20000E94CE30AB01BC0180912D02882309F0C4
:101F30006FC1BA01882777FD8095982F24E630E09D
:101F400040E050E00E94553328E431E040E050E0AA
:101F50000E94C933832F422F582F5AC18091790292
:101F6000882349F580917C028150863008F0BAC1FF
:101F700081E00E949129809179028093B102809141
:101F80007C0280937D0289E080937902E0917C025B
:101F9000F0E0E953FD4F808180937C0280917C02C8
:101FA000853030F080917C02845080937F025EC146
:101FB00010927F025BC180917902893001F5E09136
:101FC0007D02F0E080917C02E953FD4F8083809197
:101FD000B1028093790280917D0280937C0280918E
:101FE0007C02853030F080917C02845080937F02A7
:101FF00002C010927F0281E080937B0238C1809101
:1020000079028730A9F480917C02813039F08230E6
:1020100009F068C181E08093770227C080917B023C
:102020008F5F80937B0210927F0210927C025AC1D4
:10203000809179028A3009F055C12091B102209334
:10204000B80280917C02823099F0833020F4813094
:1020500009F048C106C0833021F1843009F042C143
:1020600068C0809380022093790210927B02FFC0A7
:1020700081E191E066E571E04CE551E03DDE809163
:10208000B802843019F48091FE06C9CE823019F46A
:1020900080910007C4CE863009F024C18091FF06EC
:1020A000BECE2430C9F48091F8069091F9062FE74E
:1020B0008F3F920761F08FEF9FE79093F90680932F
:1020C000F80610927B0284E080937902CFC04091A1
:1020D000F3065091F40643C02230A1F48091FC062F
:1020E0009091FD063FE78F3F930739F08FEF9FE711
:1020F0009093FD068093FC06B5C04091F306509185
:10210000F40671C0263009F0EDC08091FA06909176
:10211000FB063FE78F3F930739F08FEF9FE79093E0
:10212000FB068093FA069EC04091F3065091F40698
:10213000A5C0243009F041C08091ED069091EE06D3
:102140003FE78F3F930739F08FEF9FE79093EE06BD
:102150008093ED0687C04091F5065091F606809178
:102160002D02882371F4CA01880F991F880F991FC7
:10217000840F951F805A904069E070E00E9494336C
:10218000AB01E0912D0280912D02A0912D02F0E093
:10219000EE0FFF1FEA5BFD4FC82FD0E0CC0FDD1F15
:1021A000CE5ADD4F68817981B0E0AA0FBB1FA65CD3
:1021B000BD4F2D913C91119792C0223009F041C042
:1021C0008091F1069091F2063FE78F3F930739F037
:1021D0008FEF9FE79093F2068093F10643C0409102
:1021E000F5065091F60680912D02882389F4BA01F4
:1021F000882777FD8095982F0E9401312FEB3EE0D4
:102200004CE95EE30E948D310E94CE30AB01BC01EF
:10221000E0912D0280912D02A0912D02F0E0EE0FB1
:10222000FF1FE65BFD4FC82FD0E0CC0FDD1FCA5A61
:10223000DD4F68817981B0E0AA0FBB1FA25CBD4F62
:102240004AC0263009F04EC08091EF069091F0060A
:102250003FE78F3F930771F08FEF9FE79093F00672
:102260008093EF0610927B022093790281E08093A5
:10227000750238C04091F5065091F60680912D0206
:10228000882389F4BA01882777FD8095982F0E94CA
:10229000013120EA34E747E052E40E948D310E9488
:1022A000CE30AB01BC01E0912D0280912D02A091B6
:1022B0002D02F0E0EE0FFF1FE85BFD4FC82FD0E0CE
:1022C000CC0FDD1FCC5ADD4F68817981B0E0AA0FB9
:1022D000BB1FA45CBD4F2D913C912F5F3F4F808170
:1022E000918142DBDF91CF910895E0917902F0E096
:1022F000EE0FFF1FE85FFD4F2081318190E001C0AC
:102300009F5FE92FF0E0EE0FFF1FE20FF31F4591F3
:10231000549141155105A1F720917C02280F20937B
:102320007C0280917C02891719F410927C0207C00C
:1023300080917C028F3F19F4915090937C02909190
:102340007C0280917F02981728F480917C02809310
:102350007F02089520917C0280917F0230E090E01E
:102360000696821793072CF480917C028650809306
:102370007F02089584E18093B6028FEF9FE79093E8
:10238000C3028093C20282E08093C80281E08093FE
:10239000C9028CE08093CA0293E09093CB028093B1
:1023A000CC0288E08093CD0208951F9381E00E94C3
:1023B00091298091B1028830D9F580917C028430D6
:1023C00031F1853020F4823009F04AC027C08630D0
:1023D00059F0873009F044C080917E02813009F0C5
:1023E0003FC0809376023CC010917E021130C1F54F
:1023F0000E94AB2ABFDF1093610283E080932D021D
:102400000E9456061092DB021092DA0229C09091C7
:102410007E0281E0891B8093610222C090917E023E
:10242000892F880F890F81958D5F80932D0218C0A9
:102430008091B802823029F490917E029093000737
:102440000DC0843029F490917E029093FE0606C060
:10245000863031F490917E029093FF068093B10212
:102460008091B1028093790210927B0281E0809387
:1024700075021F910895EF92FF920F931F93CF93D0
:10248000DF9380E00E942824682F6B50613808F0A9
:10249000605880E00E943924FC01828186958695EF
:1024A00086959381292F2295220F207EE22EE82AFD
:1024B000E7017E01969596959695F92EE70120976E
:1024C000E1F16091D6027091D7028091D80290918B
:1024D000D90220E030E048EC52E40E948D310E94A5
:1024E000CE307B018C0180EA9CE1A2E0B0E0E80EF6
:1024F000F91E0A1F1B1FBE0180E090E028EC30E0AF
:1025000040E050E00E945533E61AF70A080B190B19
:10251000C801B7012AE030E040E050E00E94C93332
:102520002E5C3F4F4F4F5F4FCA01B90124E630E0A8
:1025300040E050E00E94C93304C02FEF3FEF4FEF5F
:102540005FE7B901CA01CDB7DEB7E6E00C940C3401
:1025500080E00E942824682F6D53613808F060588D
:1025600080E00E943924FC018081882389F0209139
:10257000D4023091D502442737FD4095542F2C5E6C
:102580003F4F4F4F5F4F281B31094109510904C08C
:102590002FEF3FEF4FEF5FE7B901CA010895EF92C8
:1025A000FF920F931F9380E00E942824682F6D53A1
:1025B000613808F0605880E00E943924FC01618194
:1025C0008281782F777061157105E9F0E090D00273
:1025D000F090D1020091D2021091D30280EE91EBE3
:1025E000AFEFBFEFE80EF91E0A1F1B1F80E090E05F
:1025F00022E330E040E050E00E945533E61AF70A4B
:10260000080B190B08C06FEFE62E6FEFF62E6FEF79
:10261000062F6FE7162FB701C8011F910F91FF908A
:10262000EF900895EF92FF920F931F9381E00E9425
:102630002824682F6C54613808F0605881E00E94AB
:102640003924FC0161818281782F777061157105D1
:1026500029F1E090D002F090D1020091D2021091C5
:10266000D30280EE91EBAFEFBFEFE80EF91E0A1F29
:102670001B1F80E090E022E330E040E050E00E9449
:102680005533E61AF70A080B190BC801B70125E004
:1026900030E040E050E00E94C93304C02FEF3FEF2C
:1026A0004FEF5FE7B901CA011F910F91FF90EF90C3
:1026B00008956F3F2FEF72072FEF82072FE79207E2
:1026C000D9F1693C71058105910574F5693771058A
:1026D000810591055CF5663371058105910544F529
:1026E00016161706180619062CF1611571058105D5
:1026F000910511F16B3C2FEF72072FEF82072FEF3F
:102700009207E4F468382FEF72072FEF82072FEF5C
:102710009207B4F468332FEF72072FEF82072FEF81
:10272000920784F087E0089580E0089581E008959D
:1027300082E0089583E0089584E0089585E0089597
:1027400086E0089588E00895AAE0B0E0EAEAF3E1BF
:102750000C94EA338C0170E0615070406C3071056C
:1027600008F062C26C5C7F4FFB010C941B34DC01EF
:102770001C926DC24091D4025091D50260E015C008
:102780006091D6027091D7028091D8029091D902BF
:1027900020E030E040E05FE30E9402300E94CE3053
:1027A0009B01AC01C80162E0A9010E94C3274FC28E
:1027B0006FEC78E00E944D34D8010D900020E9F7CD
:1027C0007D010894E108F108E01AF10A6091D00255
:1027D0007091D1028091D2029091D302675E7F4FB7
:1027E0008F4F9F4F22E330E040E050E00E94C9331A
:1027F000C8018E0D9F1D44C062EC78E00E944D34EC
:10280000E090DA02F090DB026091D0027091D10288
:102810008091D2029091D3020E9401314B015C0160
:10282000B701882777FD8095982F0E9401312FEB03
:102830003EE04CE95EE30E948D319B01AC01C50195
:10284000B4010E94B508D8010D900020E9F77D0180
:102850000894E108F108E01AF10AE00EF11E20E008
:1028600030E048EC51E40E94023020E030E048E4DF
:1028700052E40E9466300E94CE309B01AC01C70139
:1028800061E092CFF8DD6B017C0197FD0FC0C801BC
:1028900067EB78E00E944D34BFEFCB16BFEFDB064D
:1028A000BFEFEB06BFE7FB0639F009C0C8016BEAD2
:1028B00078E00E944D3403C0CC24DD247601D80199
:1028C0000D900020E9F7CD010197801B910B800F3F
:1028D000911F62E0A6010E94C327C80166EA78E062
:1028E0004EC1C9DD4B015C01C80168E978E00E9476
:1028F0004D34C090C202D090C3026091D602709154
:10290000D7028091D8029091D902BFEF8B16BFEF0A
:102910009B06BFEFAB06BFE7BB0671F12091C20279
:102920003091C302EFE72F3F3E0731F1EE24D7FC91
:10293000E094FE2C0E94CE30C61AD70AE80AF90AA3
:10294000C501B40122E030E040E050E00E94C9330C
:10295000C20ED31EE41EF51EC701B601A5019401E7
:102960000E94C93357FD08C02438F9E03F07F0E062
:102970004F07F0E05F0724F0C80162E978E0FFC08C
:10298000CA01B9012CE330E040E050E00E94C933B5
:10299000E62EC801622F0E94E408C80160E978E0D1
:1029A0000E944234C8016E2D0E94E40850C16AE8BA
:1029B00078E00E944D34CCDD6F30710581059105C2
:1029C000ACF569307105810591050CF032C16330B9
:1029D0007105810591050CF02EC116161706180613
:1029E00019060CF42AC1611571058105910509F4D8
:1029F00026C16E3F2FEF72072FEF82072FEF92074E
:102A00000CF01FC1683F4FEF74074FEF84074FEF83
:102A100094070CF018C1623FAFEF7A07AFEF8A0757
:102A2000AFEF9A070CF011C1E8E009C06F3FBFEFAC
:102A30007B07BFEF8B07BFE79B0749F0E0E0F0E0C3
:102A4000EE0FFF1FEE5DF84F2591349113C0EAE2BF
:102A5000F7E0259134910EC060E878E00E944D3493
:102A60009EDD27DE90E0880F991F8E5D984FFC0158
:102A700025913491C801B90182C066E778E00E94CF
:102A80004D348DDD6B017C0114DE8987CBDD4B017C
:102A90005C010FDE282F3985EFEFCE16EFEFDE0653
:102AA000EFEFEE06EFE7FE0649F0FFEF8F16FFEFC0
:102AB0009F06FFEFAF06FFE7BF0621F4C8016AE6F5
:102AC00078E05DC0832F8750823030F4263060F488
:102AD000C8016DE578E053C0353031F4253021F47C
:102AE000C80163E578E04BC0932F9550923040F4D5
:102AF000822F8550823060F4C80166E478E03FC0E0
:102B0000373030F0263020F0C8016AE378E037C073
:102B1000832F8250823040F4422F4250423090F452
:102B2000C8016DE278E02BC0323030F4223050F032
:102B3000C80164E278E023C0383021F4C80168E1BC
:102B400078E01DC0373021F4C80161E178E017C09A
:102B5000923020F4C8016CE078E011C0343021F4E8
:102B6000C80162E078E00BC0823020F4C8016DEF4C
:102B700077E005C0323030F4C80162EF77E00E94A0
:102B8000423465C0C8016DEE77E02A8739870E941C
:102B90004234D8010D900020E9F7BD01615070402A
:102BA000601B710B600F711F3985832F90E04AE025
:102BB00050E00E946E34C8016BEE77E00E94423410
:102BC000D8010D900020E9F7BD0161507040601BF5
:102BD000710B600F711F2A85822F90E04AE050E050
:102BE0000E946E3434C06091AB024091AC022091DF
:102BF000A5020E9450092BC06091A4024091A3023B
:102C00000E94F908C80169EE77E00E9442346091A1
:102C1000AB024091AC02CE0101960E941709BC01A3
:102C2000C8010E94633413C06BED77E00E944D34FD
:102C30000EC0E1E004CFE2E002CFE3E000CFE4E049
:102C4000FECEE5E0FCCEE6E0FACEE7E0F8CE2A964E
:102C5000ECE00C940634AF92BF92CF92DF92FF92D9
:102C60000F931F93DF93CF930F92CDB7DEB75C0125
:102C7000CB01BA012CE330E040E050E00E94A733E2
:102C8000F62ECA01B90128E130E040E050E00E9490
:102C9000A733162FCA01B901B5E0969587957795A8
:102CA0006795BA95D1F7022F0F712DE030E040E023
:102CB00050E00E94A733462FC501602F29830E9450
:102CC000F908C50169ED77E00E944234D5010D9005
:102CD0000020E9F7BD01615070406A197B09298124
:102CE000822F90E06A0D7B1D8053984F4AE050E0A0
:102CF0000E946E34C50167ED77E00E944234D50131
:102D00000D900020E9F7CD0101978A199B098A0DE2
:102D10009B1D612F4F2D0E9417090F90CF91DF91BE
:102D20001F910F91FF90DF90CF90BF90AF900895CB
:102D3000EF92FF920F931F93CF93DF93EC018B01E0
:102D4000DB0112968C91129786958695869513963F
:102D50009C91292F2295220F207E422F482B592FFC
:102D6000569556955695445B5240CE0162E00E94BE
:102D7000DC27CE0165ED77E00E9442347E01EC2F26
:102D8000FF2DDF010D900020E9F7CD0101978E1B8B
:102D90009F0BF801408150E0445150408C0F9D1F23
:102DA00060E00E94DC27CE0163ED77E00E944234B0
:102DB000EC2FFF2DDF010D900020E9F7CD010197E9
:102DC0008E1B9F0BF80141812281522F5770405773
:102DD0005E4F8C0F9D1F61E00E949727CDB7DEB735
:102DE000E6E00C940C34A6E1B0E0E9EFF6E10C94D7
:102DF000E4330E941026482E55240E944526FC01EB
:102E000080819181A281B3810097A105B10551F420
:102E100080E062E00E94862A83E691E060E00E9402
:102E20006F2A39C10E94732600E010E06E010894F9
:102E3000C11CD11C282E3324A02EB02EB39480E0C8
:102E40006B2D0E94862A80917F027201E81AF10898
:102E5000E01AF10AF7FE04C00E947126E80EF11C88
:102E60008E2D0E944526FC016080718082809380B7
:102E7000611471048104910409F4D9C090917F0216
:102E800080917C029801290F311D90E028173907A5
:102E900011F46FE701C060E081E00E94C629C7011C
:102EA0000196B6014AE050E00E946E3490917F0294
:102EB00080917C029801290F311D90E061E0281774
:102EC000390709F060E0C6010E946F2AF6010190FF
:102ED0000020E9F73197EE2EEC1890917F02809157
:102EE0007C029801290F311D90E02817390711F451
:102EF0006FE501C060E281E00E94C62990917F02E7
:102F000080917C029801290F311D90E02817390724
:102F100011F46FE701C060E081E00E94C629909142
:102F20007F0280917C029801290F311D90E02817C3
:102F3000390711F46FE701C060E081E00E94C62903
:102F4000C601B401A30187DE90917F0280917C02CB
:102F50009801290F311D90E061E02817390709F029
:102F600060E0C6010E946F2AF60101900020E9F797
:102F70003197EC19FD09FF240894E11CF11CEE0EB9
:102F8000FF1EEE0CEE0C12C090917F0280917C022D
:102F90009801290F311D90E02817390711F46FE7C8
:102FA00001C060E081E00E94C629E394E7FEECCF17
:102FB000AA2091F480917F02882399F180E56B2DFE
:102FC0000E94862A90917F0280917C0261E0981392
:102FD00060E08DE091E023C0FA2DF33011F580918F
:102FE0007F0290E00196800F911F82159305C9F032
:102FF00080917C028F3FA9F080E56B2D0E94862A8C
:1030000090917F0280917C029801290F311D90E000
:1030100061E02817390709F060E08FE091E00E9435
:103020006F2A0F5F1F4F0430110509F005CF809103
:103030007C02481A510857FE04C00E947126480EAF
:10304000511C842D0E9445268C0180E065E00E9481
:10305000862A81E061E00E94C629B8016C5F7F4F3B
:103060008E010F5F1F4FC80163DEC80160E00E9440
:103070006F2AF80101900020E9F73197E01BF10B6E
:103080000E2F000F000F04C081E061E00E94C629EE
:103090000F5F07FFF9CF6696E2E10C9400341F93AF
:1030A000182F0E94732690917C02910F90937C02BE
:1030B00090917C02981719F410927C0207C09091AD
:1030C0007C029F3F19F4815080937C0290917C0296
:1030D00080917F02981718F480917C020DC0209196
:1030E0007C0280917F0230E090E003968217930784
:1030F0002CF480917C02835080937F021F9108956D
:1031000081E00E94912910927B0281E080937502F8
:103110000895AEE1B0E0EFE8F8E10C94EC33809173
:103120008302882371F180E060E00E94862A00E03B
:1031300010E009C0F801E45AFE4F649181E00E945A
:10314000C6290F5F1F4F23E00030120799F780E078
:1031500066E00E94862A8E01085F1F4FC8016FEB50
:1031600077E00E944D34C80160E00E946F2A80E041
:1031700067E00E94862AC8016FEA77E00E944D341A
:1031800076C180917902882309F073C080917B0217
:10319000882309F06BC000E010E038E0E32EF12C4A
:1031A000EC0EFD1EC02EF801E853FD4F6081C701F3
:1031B000CBDA1D8E80E0602F0E94862A90E081E0AD
:1031C00060E09E8F0E94C6299E8D9F5F9038B9F760
:1031D000F70101900020E9F73197EE198E2F880F43
:1031E0008E0F8195815C6C2D0E94862AC70160E05C
:1031F0000E946F2A0F5F1F4F0230110599F600E001
:1032000010E028E0E22EF12CEC0EFD1E92E0C92E1B
:10321000C00EF801E653FD4F6081C70195DA1D8E9F
:1032200080E06C2D0E94862A90E081E060E09E8F15
:103230000E94C6299E8D9F5F9038B9F7F7010190D3
:103240000020E9F73197EE198E2F880F8E0F8195A8
:10325000815C6C2D0E94862AC70160E00E946F2A63
:103260000F5F1F4F0430110589F6A5C581E791E076
:103270009DC5809179028A30D1F48091B102843069
:1032800021F0863021F481E003C080E001C082E0BB
:1032900060917A0290917B0241E0911140E00E949E
:1032A0005E2B80917B02813009F085C582C58091BB
:1032B0007902883009F0E0C080917B0261E08111E1
:1032C00060E083E891E00E94D92A80917B02882304
:1032D00009F06FC561E00E94862A8AE891E060E00B
:1032E0000E946F2A88E0E82EF12CEC0EFD1EC7012B
:1032F0006CE574E00E944D34C70160E00E946F2AC3
:103300000E940C065B016C0185E090E0A0E0B0E05B
:10331000A80EB91ECA1EDB1EC70166EA77E00E942E
:103320004D34D7010D900020E9F78D010150104078
:103330000E191F09C601B5012AE030E040E050E057
:103340000E94C933CA01B9010E94013120E030E076
:1033500048EC52E40E9466300E0D1F1D41E022E051
:103360000E942134C70164EA77E00E94423480E081
:1033700062E00E94862AC70160E00E946F2A80E016
:1033800063E00E94862AC7016AE977E00E944D3413
:103390008091F706F70101900020E9F7BF01615025
:1033A000704090E04AE050E00E946E34C70160E057
:1033B0000E946F2A80E064E00E94862AC70163E9C8
:1033C00077E00E944D3480916102882321F0C7018B
:1033D00060E977E003C0C7016CE877E00E944234FF
:1033E0008E01085F1F4FC80160E00E946F2A609144
:1033F000A4024091A302C8010E94F90880E065E0A0
:103400000E94862AC80160E00E946F2AC8016AE80B
:1034100077E00E944D348091A602D8010D900020E3
:10342000E9F7BD0190E0615070408053984F4AE049
:1034300050E00E946E34C80160E00E946F2A6091E3
:10344000AB024091AC022091A502C8010E94500934
:10345000F80101900020E9F73197E01BF10B8AEFAA
:10346000E89F802D1124805865E00E94862AC801BB
:1034700060E00E946F2A9FC480917902873009F032
:1034800065C080917B0261E0811160E083E991E099
:103490000E94D92A80917B02882309F04BC00E94A8
:1034A0001026C82E0E9445267C01FC012081318116
:1034B00042815381211531054105510539F480E0E0
:1034C00062E00E94862A8DE991E0D2CF8E01085FEA
:1034D0001F4FC80160E877E00E944D34D8010D907D
:1034E0000020E9F7BD018C2D90E0615070400196FD
:1034F0004AE050E00E946E3480E062E00E94862A3A
:10350000C80160E00E946F2AF701419151916191D9
:1035100071917F01C8019FDB80E063E00E94862AF1
:10352000C80160E00E946F2AC801B70101DC80E099
:1035300064E09BCF80917B02813009F43AC4809192
:103540007B02823009F037C44EDC35C480917902A9
:10355000843041F480917A0240918102209180026E
:1035600060E017C080917902863041F480917A0240
:10357000409181022091800261E00BC0809179022C
:10358000823051F480917A02409181022091800230
:1035900062E00E94622C0FC4809179028B3009F0A6
:1035A00003C18DEA91E060E00E94D92A80E162E0E7
:1035B0000E94862A08E0E02EF12CEC0EFD1EC701C9
:1035C0006EE777E00E944D344091B5028E010F5FA7
:1035D0001F4FC80161E00E94F9081C82C701B801B1
:1035E0000E946334C7016CE777E00E944234809107
:1035F0007C0261E0811160E0C7010E946F2A8E01A8
:10360000085F1F4FC8016AE777E00E944D34609160
:10361000C602C8010E94E408C80168E777E00E947A
:10362000423480917C0261E0813009F060E0C801A1
:103630000E946F2A8E01085F1F4FC80166E777E07E
:103640000E944D348091B402D8010D900020E9F71A
:10365000BD0190E0615070408053984F4AE050E0C7
:103660000E946E34C80164E777E00E944234809182
:103670007C0261E0823009F060E0C8010E946F2A9C
:1036800088E064E00E94862A8091C702882359F06E
:103690008091C7028C3039F08091C7026CE00E94A3
:1036A0007433292F01C02CE08E01085F1F4FC80121
:1036B00062E777E02E8F0E944D34C8012E8D622F75
:1036C0000E94E408C80160E777E00E9442348091DC
:1036D0007C0261E0833009F060E0C8010E946F2A3B
:1036E0008BEB91E060E00E946F2A8E01085F1F4F14
:1036F000C8016EE677E00E944D346091BD02C801BA
:103700000E94E408C8016CE677E00E944234809190
:103710007C0261E0843009F060E0C8010E946F2AF9
:103720008BEB91E060E00E946F2A8E01085F1F4FD3
:10373000C8016AE677E00E944D346091B702C80183
:103740000E94E408C80168E677E00E944234809154
:103750007C0261E0853009F060E0C8010E946F2AB8
:103760008E01085F1F4FC80166E677E00E944D3466
:103770008091C7028C3020F4C80163E677E003C073
:10378000C80160E677E00E9442348E01085F1F4F57
:10379000C8016EE577E00E94423480917C0261E0CE
:1037A000863009F06EC16EC1809179028C3009F0CB
:1037B000C9C080917C02E091B102F0E0EE0FFF1FE2
:1037C000E85FFD4F90E0880F991F0190F081E02D98
:1037D000E80FF91F259134918E01085F1F4FC80132
:1037E000B9010E944D34C80160E00E94D92A20919D
:1037F000B2023091B30221153105D1F0C901F901AE
:1038000001900020E9F731978E1B9F0B880F991FBD
:10381000880F991F8C5A9F4F9695879562E00E945A
:10382000862A8091B2029091B30260E00E946F2AD2
:103830006091B9027091BA02AA24A3942AE030E000
:1038400005C0A394CB01B9010E9494336A3071057D
:10385000C4F782E190E08A19910962E070E00E9469
:103860009433862F880F880F2091B2023091B302D3
:103870002115310511F064E001C063E00E94862A41
:103880002091C0023091C102CE01089637FF03C0DB
:103890006CE577E002C06AE577E00E944D34E09085
:1038A000C002F090C102F7FE04C0F094E194F10868
:1038B000F3940AE010E0E8E0CE2ED12CCC0EDD1E11
:1038C00013C0E016F1062CF4C60168E577E00E940B
:1038D0004234C801880F991F63E0000F111F6A95D9
:1038E000E1F7080F191FAA94BA2DB23050F78E01D4
:1038F000085F1F4FF80101900020E9F7BF016150F8
:103900007040C7014AE050E00E946E34C80166E58D
:1039100077E00E944234C80161E00E946F2A609102
:10392000C4027091C5026115710509F444C2C80151
:103930000E944D34C80161E00E946F2A8DEB91E036
:1039400061E097CD809179028D3009F09DC0809122
:103950007C02E091B102F0E0EE0FFF1FE85FFD4F47
:1039600090E0880F991F0190F081E02DE80FF91F7A
:10397000259134918E01085F1F4FC801B9010E9443
:103980004D34C80160E00E94D92AE091AF02F09165
:10399000B00280818823C9F0CF0101900020E9F7AF
:1039A00031978E1B9F0B880F991F880F991F8C5A78
:1039B0009F4F9695879562E00E94862A8091AF027C
:1039C0009091B00260E00E946F2AE091AD02F09108
:1039D000AE02DF010D900020E9F711978E2F8A1BB0
:1039E000880F880F805EA091AF02B091B0029C91C9
:1039F000992311F064E001C063E00E94862A8E01E1
:103A0000085F1F4FC80164E577E00E944D34609164
:103A1000AD027091AE02C8010E946334C80162E534
:103A200077E00E94423480917E0261E0811160E083
:103A3000C8010E946F2AE091AF02F091B00280812C
:103A4000882311F064E001C063E08CE20E94862AC2
:103A50008E01085F1F4FC80160E577E00E944D347A
:103A60006091BE027091BF02C8010E946334C80118
:103A70006EE477E00E94423480917E0261E0813002
:103A800009F060E0C801F5CC80917902813009F03D
:103A90005DC080917B0261E0811160E08FEB91E07D
:103AA0000E94D92A80917B02882309F082C18E016D
:103AB000085F1F4FC80162E00E94A41380E061E02C
:103AC0000E94862AC80160E00E946F2AC80163E054
:103AD0000E94A41380E062E00E94862AC80160E090
:103AE0000E946F2A8091C2029091C302FFE78F3F2C
:103AF0009F07D1F080E064E00E94862AC80161E45B
:103B000077E00E944D34D8010D900020E9F7CD01F7
:103B10004091C2025091C302019762E00E94C32704
:103B2000C80160E00E946F2A8091C2029091C30296
:103B3000BFE78F3F9B0709F43EC18E01085F1F4F0F
:103B4000C80164E00E94A41380E08ECC80917902C9
:103B5000833009F06BC080917B0261E0811160E0ED
:103B600088EC91E00E94D92A80917B02882309F099
:103B700020C161E00E94862A8E01085F1F4FC801A4
:103B800061E00E94A413C80160E00E946F2A80E0F7
:103B900062E00E94862A84ED91E060E00E946F2A34
:103BA0000E94A8126B017C016F3FEFEF7E07EFEFE1
:103BB0008E07EFE79E0731F4C8016DE377E00E94BE
:103BC0004D3414C097FD06C0C8016BE377E00E9436
:103BD0004D3401C01886CE010896DC010D900020FE
:103BE000E9F7CD010197B6010E941B27CE01089687
:103BF00060E00E946F2A8BED91E060E00E946F2AE6
:103C000080E063E00E94862A00E081E060E00E949C
:103C1000C6290F5F0038C9F780E063E00E94862A5A
:103C20008E01085F1F4FC80169E09EC08091790234
:103C3000853009F09CC080917B0261E0811160E0D9
:103C400082EE91E00E94D92A80917B02882309F0BC
:103C5000B0C061E00E94862A8E01085F1F4FC80134
:103C600065E00E94A413C80160E00E946F2A80E012
:103C700062E00E94862A0E94CF126B017C016F3F96
:103C8000BFEF7B07BFEF8B07BFE79B0731F4C8018E
:103C900066E377E00E944D3421C097FD06C0C8015D
:103CA00064E377E00E944D3401C01886FE01389627
:103CB000DF010D900020E9F78D01C701B601675EB5
:103CC0007F4F8F4F9F4F22E330E040E050E00E9453
:103CD000C933C8010197B9010E944127CE01089656
:103CE00060E00E946F2A8BEE91E060E00E946F2AF4
:103CF00080E063E00E94862A00E081E060E00E94AC
:103D0000C6290F5F0038C9F780E063E00E94862A69
:103D10008E01085F1F4FC8016AE00E94A413C8010A
:103D200060E00E946F2A80E064E00E94862AC80159
:103D300066E00E94A413C80160E00E946F2A80E040
:103D400065E00E94862A00E081E060E00E94C629CA
:103D50000F5F0038C9F780E065E00E94862A8E0177
:103D6000085F1F4FC8016BE00E94A41380CB8091B5
:103D70007902893001F580917D02E091B102F0E095
:103D8000EE0FFF1FE85FFD4F90E0880F991F019035
:103D9000F081E02DE80FF91F259134918E01085F25
:103DA0001F4FC801B9010E944D34C80160E00E9454
:103DB000D92A0E94900A6E96EAE00C940834A0E09A
:103DC000B0E0E5EEFEE10C94EC3385B1876085B997
:103DD0000E94AB2A0E94CF2A80E00E94D12A8FE362
:103DE0009CE90197F1F700C000000E940C0A80E0F6
:103DF00091D70E9457290E94F0270E94BA11789407
:103E000080E060E00E94862A87EF91E060E00E94F7
:103E10006F2A0E9463068823E1F38091B6008062D6
:103E20008093B6008091B6008F7B8093B60010928D
:103E3000B00083E08093B1008091B60090E08F7075
:103E400090700097C9F78FE19EE40197F1F700C0E9
:103E5000000081E087BB8093700090916B009760B9
:103E600090936B0090916B00906190936B00909198
:103E70006800916090936800909164009F6A9093AD
:103E8000640080930602AA24A39480917802882378
:103E900059F0109278020E94AB2A0E94CF2A80E04B
:103EA0000E94D12AA092070280917602882351F0C5
:103EB0001092760280E060E00E94862A0E94CF2A5B
:103EC00081E028D780910602882329F48091770227
:103ED000882309F465C0809164008F778093640023
:103EE0000E949F060E941107EC010E94C9060E94D1
:103EF0006D076B017C018091640080688093640091
:103F000080910602882321F0CE01B701A601B9D520
:103F100080917702882309F43FC0BFB6F89460917E
:103F2000A60270E080E090E02DE030E040E050E05C
:103F30000E9455332091A302620F711D811D911DB6
:103F400045E0660F771F881F991F4A95D1F720918A
:103F5000A402620F711D811D911D28E130E040E037
:103F600050E00E9455332091AB02620F711D811DFC
:103F7000911D2CE330E040E050E00E9455338B016E
:103F80009C018091AC02BFBE080F111D211D311D87
:103F9000CE01B701A601E4D5109206021092770275
:103FA00080917502882321F0109275020E94CF2A19
:103FB00080910702882399F010920702AAD80FC0B7
:103FC00080918402882359F483B7817F866083BF00
:103FD00083B7816083BF889583B78E7F83BF8091CD
:103FE0000602882309F051CF80910702882309F047
:103FF0004CCF80917702882319F347CF1F93182F56
:10400000809180028823B1F080918102810F80939A
:10401000810280918102813F20F48091810287FF9B
:1040200004C080918102805802C0809181028093F7
:1040300081029BC080917902893040F080917902A1
:10404000893021F0809179028A3041F480917B029D
:10405000813021F4812F0E94751187C080917902EF
:10406000893008F063C080917B02882309F05EC02C
:104070000E94912980917902843041F080917902E7
:10408000863021F0809179028230E1F480917A02C9
:10409000810F80937A0280917A02833031F41092FA
:1040A0007A02809179028F5F0AC080917A028F3FF5
:1040B00011F582E080937A02809179028150809399
:1040C000790219C080917902810F809379021F3F94
:1040D00081F480917902843041F0809179028630B8
:1040E00021F080917902823021F482E080937A027B
:1040F00002C010927A0280917902813F20F0809173
:104100007902875F0AC080917902893020F080911E
:104110007902895002C080917902809379028FE7F9
:104120008093810281E0809375021FC080917902A3
:104130008B3021F4812F0E94C60B17C08091790229
:104140008C3021F4812F0E94300E0FC080917902B3
:104150008D3021F4812F0E94920E07C08091790248
:10416000873019F4812F0E944F181F9108951F93D3
:1041700080917902863041F080917902843021F07B
:10418000809179028230B1F480918002882361F4B9
:1041900081E00E949129809179028093B1028AE0A6
:1041A0008093790281E01FC082E00E9491291092E1
:1041B00080021FC080917902893018F580917B02BE
:1041C0008823F9F4E0917902F0E0EE0FFF1FE85F39
:1041D000FD4F80819181009781F081E00E949129BB
:1041E00080917B028F5F80937B0210927F021092FE
:1041F0007C0281E08093750258C083E00E9491297F
:1042000054C080917902893040F0809179028930E0
:1042100021F0809179028A3069F510917B0211308A
:1042200049F580917C028823F9F482E00E9491296B
:1042300080917B02815080937B028091790289304A
:1042400051F48091B1028093790280917D02809334
:104250007C0210937B02809179028A3051F6809122
:10426000B10280937902C5CF81E00E9491290E941A
:10427000990EBFCF809179028B3019F40E94960B72
:1042800014C0809179028C3019F40E94D00C0DC0BA
:10429000809179028D3019F40E94D51106C0809169
:1042A0007902873011F40E9480181F9108951F929F
:1042B0000F920FB60F921124EF92FF920F931F935C
:1042C0002F933F934F935F936F937F938F939F931E
:1042D000AF93BF93EF93FF930E941A0A8091A702B6
:1042E0009091A802A091A902B091AA028370907047
:1042F000A070B0700097A105B105E1F48091820231
:10430000882359F480917902883039F480917B02B6
:10431000882319F481E0809307028091A502882305
:1043200049F481E08093060290918202992311F46E
:104330008093070280918202882309F083C08091D4
:10434000A7029091A802A091A902B091AA02E090C0
:10435000B200FF2400E010E0BA2FA92F982F882781
:10436000E82AF92A0A2B1B2B80916D0290916E028C
:10437000A0916F02B0917002209183022223E1F597
:10438000A8019701281B390B4A0B5B0BDA01C90105
:10439000853F31E0930730E0A30730E0B30760F1D9
:1043A000189B02C01A9928C0813747E1940740E062
:1043B000A40740E0B40758F4893B5BE0950750E060
:1043C000A50750E0B50730F49CEF84E005C098EDF8
:1043D00088E202C094EF8CE020917902293030F419
:1043E00020917B02222311F49FEF81E01899892FFD
:1043F00005DE81E08093070280916C02882311F52D
:104400008091710290917202A0917302B091740236
:10441000E81AF90A0A0B1B0B8091B60290E0A0E0A3
:10442000B0E06AE0880F991FAA1FBB1F6A95D1F7F9
:104430008E159F05A007B10728F481E080938202C2
:104440000E94D12A1092B0008091B60081FDFCCF6D
:10445000FF91EF91BF91AF919F918F917F916F915C
:104460005F914F913F912F911F910F91FF90EF908E
:104470000F900FBE0F901F9018951F920F920FB6BE
:104480000F921124DF92EF92FF920F931F932F93BD
:104490003F934F935F936F937F938F939F93AF93CC
:1044A000BF93EF93FF931C9902C0C1D6B0C0809117
:1044B000A7029091A802A091A902B091AA02E0904F
:1044C000B200FF2400E010E0BA2FA92F982F882710
:1044D000E82AF92A0A2B1B2B189B09C01A9B07C034
:1044E00081E090E0199B05C080E090E002C081E08F
:1044F00090E0D82E809182028823B9F0DD20A9F0C7
:1045000010928202E0927102F092720200937302A2
:104510001093740280E00E94D12A81E0809375029A
:10452000809307028093830272C08091830281305E
:1045300051F418995CC01A995AC0199B58C082E06E
:104540008093830254C080918302823059F4DD202D
:1045500009F05BC01092830281E080937502809322
:10456000070247C0189908C01A9906C0199904C0D3
:1045700081E0809378023BC0DD20D9F180916C020C
:10458000882309F042C08091710290917202A0913B
:104590007302B0917402A8019701281B390B4A0BD2
:1045A0005B0BDA01C901189B02C01A990CC08A3151
:1045B0009105A105B10538F0189902C081E001C04C
:1045C0008FEF1CDD08C0199909C08A319105A1053A
:1045D000B10520F0CCDD81E080930702E0926D020E
:1045E000F0926E0200936F02109370020EC0DD20F5
:1045F00061F480916C02882341F0E0927102F092A4
:1046000072020093730210937402D0926C02FF91B5
:10461000EF91BF91AF919F918F917F916F915F913A
:104620004F913F912F911F910F91FF90EF90DF904D
:104630000F900FBE0F901F9018958093CF02089592
:104640001092B90080E28093B8000895E091CF0203
:1046500030E0F4EA24E8AE2FA1603F5F393C09F472
:1046600086C0F093BC009091BC0097FFFCCF909166
:10467000B900987F9093CE02903129F0983389F356
:10468000983009F076C0E093BB002093BC00909175
:10469000BC0097FFFCCF9091B900987F9093CE0219
:1046A0009032D9F29833E9F2983109F05BC08093E7
:1046B000BB002093BC009091BC0097FFFCCF909171
:1046C000B900987F9093CE02983221F0983309F088
:1046D00049C0C7CFF093BC009091BC0097FFFCCFBE
:1046E0009091B900987F9093CE02903129F0983341
:1046F00009F4B7CF9830B1F5A093BB002093BC006C
:104700009091BC0097FFFCCF9091B900987F909357
:10471000CE02983309F4A5CF903421F5E42FF52F7C
:1047200094EC1AC06130710509F494E89093BC00D0
:104730008091BC0087FFFCCF8091B900887F809377
:10474000CE02803521F0883569F460E070E0809118
:10475000BB008193615070408E2F841B1616170684
:104760000CF301C080E094E99093BC00089580E0D0
:10477000089580E008955091CF0220E044EA34E8A3
:104780002F5F293C09F44DC04093BC009091BC00C0
:1047900097FFFCCF9091B900987F9093CE02903113
:1047A00021F0983389F39830F1F55093BB003093A2
:1047B000BC009091BC0097FFFCCF9091B900987F0E
:1047C0009093CE029032E1F29833F1F2983121F5D4
:1047D0008093BB003093BC009091BC0097FFFCCF4E
:1047E0009091B900987F9093CE02983219F0983347
:1047F00099F4CACF6093BB0084E88093BC00809199
:10480000BC0087FFFCCF8091B900887F8093CE02E7
:10481000883211F481E001C080E094E99093BC00FB
:10482000089580E0089580E00895282F30E0225018
:1048300030403695322F222737952795260F311D88
:10484000220F331F220F331F205F3F4FC9010895EE
:10485000282F30E0823028F42851394FF901808127
:104860000895C901880F991F880F991F05970C9407
:104870008D34823080F4282F30E03695322F222775
:1048800037952795260F311D220F331F220F331F17
:104890002C513D4F0DC0C9DF0E9495346093E40652
:1048A0007093E5068093E6069093E70624EE36E0E3
:1048B000C9010895A0E0B0E0E0E6F4E20C94E8332A
:1048C000EC0179018A012093D0023093D102409308
:1048D000D2025093D302CB01E3E0880F991FEA95EF
:1048E000E1F7860F971F65E070E00E949433605CEB
:1048F0007E4F5B01CC24B7FCC094DC2CC601B50113
:1049000025E030E040E050E00E94C9333093D5020A
:104910002093D402C601B5016C392FEF72072FEF37
:1049200082072FEF920724F46CE97FEF8FEF9FEF60
:104930006A597F4F8F4F9F4F25E030E040E050E0B5
:104940000E94C933A22EB32EC42ED52E6FEFA61609
:10495000B104C104D10431F02CF07FEFA72EB12CAB
:10496000C12CD12C80E2E8168EE4F80680E008071E
:1049700080E018071CF0C801B70104C060E27EE4C3
:1049800080E090E067507E448040904022E330E039
:1049900040E050E00E94C933622E932E842E752E83
:1049A000C801B7010E9401310E948F0825E83BEE43
:1049B00041E550E40E948D31262F372F482F592F83
:1049C0002093D6023093D7024093D8025093D90255
:1049D00020E030E040E05FE30E9402300E94CE30F1
:1049E000262F372F482F592F28396AEF36076FEFB8
:1049F00046076FEF560724F428E93AEF4FEF5FEFD1
:104A000027593A4F4F4F5F4F559547953795279503
:104A1000A882862D992DA82DB72D803068E09607A5
:104A200060E0A60760E0B60724F08FEF97E0A0E013
:104A3000B0E0898397708A81887F892B8A832030B0
:104A400080E2380780E0480780E0580724F02FEF25
:104A50003FE140E050E0922F990F990F990F8A8122
:104A60008770892B8A83832F880F880F880F229560
:104A700026952770282B2B83CDB7DEB7EEE00C945C
:104A80000434A6E0B0E0E7E4F5E20C94ED33FC0179
:104A90009A01AB01CE010196BF010CDFBEE2EB2E05
:104AA000B2E0FB2E08EE16E0CC24DD2420E03CE34F
:104AB000222391F08091AB024091AC02839FC00110
:104AC0001124840F911DF701608171810E94803350
:104AD0000097A1F52230C9F0F8014081F601E40FFA
:104AE000F11DEE0FFF1FEE0FFF1FEC51FD4F8981EF
:104AF0009A81AB81BC8180839183A283B383842F0D
:104B00008F5F8F77F801808319C083E090E02D8359
:104B10003E830E948D34B82E82E06B2D86DE498163
:104B20005A816B817C810E94B1346B2D6F5F6F77EE
:104B300083E090E00E949F343E812D812F5F82E0D0
:104B400090E0E80EF91E0F5F1F4FE0E8F0E0CE0E98
:104B5000DF1E233009F0ACCF2696E9E00C9409342F
:104B60006F927F928F929F92BF92CF92DF92EF923D
:104B7000FF920F931F93DF93CF9300D000D00F923B
:104B8000CDB7DEB7FC016A017B0138014901CE01D6
:104B90000196BF01A70196018DDE00E112E020E041
:104BA000CC24CA94DC2C7601BB24C8012D830E943E
:104BB00095342D816C157D058E059F0518F46B01CC
:104BC0007C01B22E2F5F085F1F4F2E3371F70B2D24
:104BD00010E00E5B1F4F83E0000F111F8A95E1F775
:104BE000C801B401A3010E94B13449815A816B818B
:104BF0007C81C80104960E94B1340F900F900F90F1
:104C00000F900F90CF91DF911F910F91FF90EF9038
:104C1000DF90CF90BF909F908F907F906F9008957E
:104C2000AF92BF92DF92EF92FF920F931F93DF93A9
:104C3000CF930F92CDB7DEB790E1A92E92E0B92EB7
:104C400020E0EE24FF248701DD24C50129830E9492
:104C5000953429816E157F058007910718F07B0137
:104C60008C01D22E2F5F88E090E0A80EB91E2E3363
:104C700061F78D2D0F90CF91DF911F910F91FF90D4
:104C8000EF90DF90BF90AF900895A4E0B0E0EBE428
:104C9000F6E20C94F233082F10E00E5B1F4F23E076
:104CA000000F111F2A95E1F7C8010E949534609307
:104CB000DC027093DD028093DE029093DF02C80174
:104CC00004960E9495346093E0027093E102809311
:104CD000E2029093E3028CED92E02496E4E00C94DF
:104CE0000E348EE308951F93CF93DF93C0E1D2E09B
:104CF00010E0CE010E949534611571058105910582
:104D000021F01F5F28961E33A1F7812FDF91CF91ED
:104D10001F9108951F93CF93DF93182F1092DB02FA
:104D20001092DA02A8EEB6E020E030E01D9280E0BA
:104D3000F901E80FF11DEE0FFF1FEE0FFF1FEC5101
:104D4000FD4F10821182128213828F5F803881F7AB
:104D500020583F4F81E02030380741F780E090E055
:104D60000E949A342EEB833B920711F4112399F1A0
:104D70008EE192E060E0B3D380E090E043EB5EEB45
:104D800060E070E00E94B13484E090E040E050E0E8
:104D9000BA010E94B13410E082E0612F46DD40E0AC
:104DA00050E0BA010E94B1341F5F1038A9F7C0E18A
:104DB000D2E0CE0140E050E0BA010E94B134CE0111
:104DC000049640E050E0BA010E94B134289684E095
:104DD000C030D80771F7DF91CF911F9108950F93DD
:104DE0001F938C01882777FD8095982F0E940131B1
:104DF00020912D02222391F420E030E040E852E49B
:104E00000E94013020E030E040EA50E40E948D3101
:104E100020E030E040E151E40E94663020E030E0E4
:104E200040E05FE30E948D3141E021E00E942134A7
:104E30001F910F9108950F931F938C01882777FD81
:104E40008095982F0E94013120912D02222361F438
:104E500020E030E040EA50E40E948D3120E030E074
:104E600040E151E40E94663020E030E040E05FE342
:104E70000E948D3141E021E00E9421341F910F9169
:104E800008950F931F938C0180912D02882391F038
:104E9000882777FD8095982F29E83BE040E050E097
:104EA0000E94553320EA36E841E050E00E94C933C1
:104EB000622F732F882777FD8095982F0E940131EC
:104EC00020E030E040E05FE30E948D3120912D0230
:104ED000222311F022E001C020E041E00E942134B1
:104EE0001F910F910895CF93DF93EC01CB01209197
:104EF0002D022223A1F49B01B901882777FD80951B
:104F0000982F24E630E040E050E00E94553328E43A
:104F100031E040E050E00E94C933822F932FBE0160
:104F20004AE050E00E946E34DF91CF910895262F21
:104F3000BA01222309F453CF213009F4A2CFD3CFF1
:104F4000662351F4E0912D02F0E0EE0FFF1FE65CC6
:104F5000FD4F6081718115C0613041F4E0912D02F7
:104F6000F0E0EE0FFF1FE45CFD4F07C0E0912D0263
:104F7000F0E0EE0FFF1FE25CFD4F608171816F5F1B
:104F80007F4F0C9442341F93CF93DF93EC01162F85
:104F90008FE74E3F580714F018820AC0CE01C7DFD2
:104FA000CE016BEF78E00E944234CE01612FC8DF62
:104FB000DF91CF911F9108951F93CF93DF93EC0161
:104FC000162F8FE74E3F580714F0188205C0CE0108
:104FD000AEDFCE01612FB4DFDF91CF911F91089535
:104FE0002C9A089556D1E4E6F0E08081877F808393
:104FF0001092800089E080938100109289008FECEC
:105000008093880082E086BB2B9A0895E4E6F0E066
:1050100080818860808308959091EA069827909314
:10502000EA062B9A92E096BBB19BFECF92E096BB2C
:10503000B19BFECF2B9892E096BBB19BFECF98E040
:1050400022E080FF02C02B9A01C02B9826BBB19BA7
:10505000FECF915011F08695F4CF2B9A82E086BB5B
:10506000B19BFECF0895A1E0B0E0E9E3F8E20C9433
:10507000EC3381E0D1DF37DEC82ECEDFD1DDA82EC4
:10508000BB240894A11CB11CAC18B108B7FE03C026
:1050900028DEA80EB11CDD241EC08A2DF6DD082FE7
:1050A0000894A11CB11C99831CDE282F30E0998143
:1050B000A216B30611F4AA24BB24192F88E0E82E07
:1050C000F12CE00EF11EF80181918F01A5DF0E1584
:1050D0001F05C9F7D394DC1400F32196EAE00C9481
:1050E0000834A0E0B0E0E7E7F8E20C94ED3381E0AB
:1050F00093DF83E091DF80E88FDF8091A5028CDF72
:105100008091AC0289DF8091AB0286DF8091A4029E
:1051100083DF8091A30280DF8091A6027DDFCEE253
:10512000D2E0DD248E01898177DF2296F80180812B
:1051300073DF8D2D8DDBC82EBB248D2D6C2D99DB5F
:10514000C394FC2DF03809F4CC24082F192F94E0D7
:10515000E92EF12CE00EF11EF80181918F015CDF48
:105160000E151F05C9F7B394FB2DF03831F7D39412
:105170002D2D2330B9F6CDB7DEB7E9E00C94093414
:105180001F93CF93DF93182F8CE446DF8FE444DF27
:1051900087E442DF1092EA06123369F0133369F0B4
:1051A000113361F4CCE5D4E0899136DF84E0C63672
:1051B000D807D1F703C095DF01C055DF8091EA061B
:1051C0002BDFDF91CF911F91089580E090E022E0E6
:1051D00008C0B19B06C026BB01963BE48030930714
:1051E00011F11C9BF6CF09C0B19B08C026BB0196EC
:1051F0003BE48030930711F418C022E01C99F4CFEF
:1052000080E28A95F1F7109285001092840098E070
:1052100080E022E026BBB19BFECF86951C9980687A
:105220009150C1F7089580E0089580E00895A4E0CA
:10523000B0E0EDE1F9E20C94F133D4DEDE01119639
:10524000EEE5F2E083E001900D928150E1F725E078
:10525000F22E90E08E010F5F1F4F9C83B6DF9C8182
:10526000F801E90FF11D2081821741F49F5F93300F
:1052700049F4ABDF882341F083DF06C091E0298148
:10528000821390E0FA9449F7C1DE2496E5E00C948D
:105290000D34109284025E98589814BC10926F00DE
:1052A00016BAE4E6F0E08081886280830895569A19
:1052B000509AEFCF8091EC06882329F48091EB0679
:1052C000823078F40CC08091EC06813039F4809102
:1052D000EB06882319F0823021F401C0DACF80E494
:1052E00001C080E6909164009F7D9093640092E4F9
:1052F00094BD93E095BD87BD16BC80916400877F07
:1053000080936400109280008DE0809381009093E0
:10531000890080E28093880082E086BB80936F00E2
:10532000089590916102992341F08093EB061092C9
:10533000EC0681E080938402BDCF08951F920F9206
:105340000FB60F9211242F933F934F935F936F9358
:105350007F938F939F93AF93BF93EF93FF9380912E
:10536000EC068F5F8093EC06A5DFFF91EF91BF9174
:10537000AF919F918F917F916F915F914F913F91ED
:105380002F910F900FBE0F901F901895882311F04A
:105390005F9A01C05F985C9888E02D9867FF02C013
:1053A0002B9A01C02B982D9A815011F0660FF5CFE2
:1053B0005C9A2B9A08958AB1806B8AB984B188620D
:1053C00084B95C9A5D9A8FEC97E00197F1F700C081
:1053D00000005D988FE19EE40197F1F700C00000A6
:1053E0005D9A80E06EEAD2DF80E060E0CFDF80E0AF
:1053F00060E1CCDF80E060E4C9DF80E061E8C6DF27
:105400006091F70680E0C2DF80E061EABFDF80E004
:1054100066EABCDF80E064EAB9DF80E068EAB6DF14
:1054200080E06FE3B3DF80E063EDB0DF80E060E059
:10543000ADDF80E065EDAADF80E060E8A7DF80E017
:1054400069EDA4DF80E061EFA1DF80E06AED9EDF1F
:1054500080E062E19BDF80E06BED98DF80E060E45C
:1054600095DF80E060E292DF80E060E08FDF80E047
:1054700061EA8CDF80E068EC89DF80E06DE886DF40
:1054800080E064E183DF80E06FEA80CFEF92FF92FB
:105490000F931F93CF93DF93F62E05E0809F80013B
:1054A0001124035A174FC0E0D0E08FE7E82EF8012F
:1054B000EC0FFD1F6491F1106E2581E067DF2196EE
:1054C000C530D105A1F7FF2011F06FE701C060E002
:1054D00081E05CDFCDB7DEB7E6E00C940C34EF92F0
:1054E000FF921F93CF93DF93162FE82EE7017E01E3
:1054F000F92EE70102C0612FC9DF89918823D9F70E
:10550000DF91CF911F91FF90EF9008950F931F931C
:10551000182F062F682F6F7080E038DF612F62959B
:105520006F70606180E032DF602F6770606B80E0D9
:105530002DDF1F910F91089580E060E0E7DF5F9A13
:105540005C982B9880E090E22D982D9A0197E1F7D6
:105550005C9A2B9A08958FEF9FE79093F9068093BA
:10556000F8069093EE068093ED061092FE06909357
:10557000FB068093FA069093F0068093EF06109254
:10558000FF069093FD068093FC069093F2068093AD
:10559000F106109200078FEF8093F7060CCFCCCF67
:1055A0000895882319F080E06EEA02C080E06FEA77
:1055B000EDCEA1E0B0E0EFEDFAE20C94EE33D82EA0
:1055C000E92E162FE82FF92FDF010D900020E9F7C3
:1055D0001197A81B23E130E02A1B31093595279547
:1055E000C22E0A2F01950D5E021B80E060E08EDF67
:1055F000112311F06FE701C060E081E0C7DE1123E5
:1056000019F042E652E002C044E652E0CA01612FBE
:1056100066DF112331F486E060E078DF81E060E44A
:10562000B5DEFF24F39411C0112329F08AE692E03D
:1056300061E055DF09C090E081E060E49983A6DE77
:1056400099819F5F9630C1F7F394FC1468F38AE662
:1056500092E0612F44DF8D2D9E2D612F40DF8AE681
:1056600092E0612F3CDFFF24F3940FC0112329F057
:105670008AE692E061E033DF07C096E0E92E81E040
:1056800060E484DEEA94D9F7F394F01678F31123FA
:1056900011F06FE701C060E481E078DE8AE760E046
:1056A00035DF112319F086E692E002C088E692E029
:1056B000612F15DF2196E8E00C940A34A5E1B0E0F3
:1056C000E4E6FBE20C94F033282FF62EE42E882338
:1056D00029F4CE0101966DED7AE009C0CE01019664
:1056E000213019F464ED7AE002C06BEC7AE00E949C
:1056F0004D348E010F5F1F4FC80164EC7AE00E94A9
:105700004234F80101900020E9F7CF01EF2DF0E0DD
:10571000EE0FFF1FEC5CFD4F208131810197B90135
:105720000E944234C8016E2D44DF6596E6E00C9479
:105730000C344F925F927F928F929F92AF92BF9262
:10574000CF92DF92EF92FF920F931F93DF93CF934D
:10575000CDB7DEB727970FB6F894DEBF0FBECDBF2B
:10576000782E2B0149015801823021F4440C551C3C
:10577000440F551FD401F50180E01D9211928F5FF7
:105780008431D9F7D6011C928E010F5F1F4FC801DB
:10579000672DCDDBD80145E020C0249F9001112466
:1057A000C901805A90402B593040FC01E350F74F1B
:1057B0006491F6015081F501E50FF11D60835F5F93
:1057C000F601508301968217930779F7F501E50FEB
:1057D000F11D10825F5FF60150832D912223E9F6BF
:1057E000D7011C92CE010196672DA201A0DB45E0F6
:1057F00021C0249F90011124C901805A90402B5947
:105800003040FC01E350F74FE491D7015C91D401A3
:10581000A50FB11DEE0FEC935F5FF701508301966A
:105820008217930771F7F401E50FF11D10825F5F96
:10583000D7015C93F80121918F012223D1F627969D
:105840000FB6F894DEBF0FBECDBFCF91DF911F9191
:105850000F91FF90EF90DF90CF90BF90AF909F900F
:105860008F907F905F904F900895CF93DF93EC01DE
:1058700080E060E04BDE81E06FE788DDCE0161E033
:105880002EDEDF91CF910895A1E0B0E0E9E4FCE2E3
:10589000AAC7182FE82FF92FDF010D900020E9F794
:1058A0001197A81B2A2F220F2A0F220F80E8821B94
:1058B00060E099832BDE812F998161E010DE2196D3
:1058C000E3E0ADC7AAE7B0E0E7E6FCE27DC7AC964F
:1058D0008FAFAC97762EAD964FAFAD97E0962FAFCA
:1058E000E0970E942824682E40E0CC24CA94DC2C47
:1058F000AA24BB24EE24EA94FE2CAD962FADAD97DE
:10590000022F10E0080F111D0F771070AC968FADAD
:10591000AC97642FE5964FAFE5970E943924FC01C0
:105920002081E5964FADE5972223B9F4818132813C
:10593000932F9770009789F4532F56955695569547
:105940003381632F6295660F607E862F852B932FA0
:10595000969596959695009749F1772011F430E049
:1059600017C08281372D313021F42181382F3770D3
:105970000FC0982F9695969596958381582F52959E
:10598000550F507E252F292B382F36953695369575
:10599000A216B30608F459012E153F0508F4790143
:1059A000842F90E08017910709F469014F5F403818
:1059B00009F0ACCF772009F049C0A601445150400E
:1059C000AB965FAF4EAFAB978091F8069091F9061A
:1059D0005FE78F3F950739F46CEE862E6FEF962EBA
:1059E0008E0C9F1C04C08090F8069090F906809160
:1059F000ED069091EE066FE78F3F960729F48CEE47
:105A00009FEFA80EB91E04C0A090ED06B090EE0660
:105A100022E030E0C401B90187D67093F4066093A8
:105A2000F306C501B90180D67093F6066093F506BA
:105A30008091F8069091F906AFE78F3F9A0709F039
:105A4000AFC08091ED069091EE06AAC0B72DB1309F
:105A500009F059C0F601E057FE4FAB96FFAFEEAF2D
:105A6000AB978091FA069091FB06FFE78F3F9F0767
:105A700039F450E9852E51E0952E8E0C9F1C04C000
:105A80008090FA069090FB068091EF069091F006C8
:105A90002FE78F3F920729F440E951E0A40EB51E8D
:105AA00004C0A090EF06B090F006B401882777FDFF
:105AB0008095982FA6D320EA34E747E852E406D32E
:105AC0006DD37093F4066093F306B501882777FDD4
:105AD0008095982F96D320EA34E747E852E4F6D22F
