:100000000C941E060C943B060C943B060C94D726CD
:100010000C943B060C943B060C943B060C943B065C
:100020000C943B060C9404260C943B060C94572D20
:100030000C943B060C943B060C943B060C943B063C
:100040000C943B060C943B060C943B060C943B062C
:100050000C943B060C943B060C943B060C943B061C
:100060000C9499350C943B0607634236B79BD8A78E
:100070001A39685618AEBAAB558C1D3CB7CC5763CD
:10008000BD6DEDFD753EF6177231BF000000803F7B
:1000900008000000BE922449123EABAAAA2ABECD97
:1000A000CCCC4C3E00000080BEABAAAAAA3E000009
:1000B0000000BF000000803F000000000008417801
:1000C000D3BB4387D1133D190E3CC3BD4282AD2B38
:1000D0003E68EC8276BED98FE1A93E4C80EFFFBE30
:1000E00001C4FF7F3F00000000004A616E004665CA
:1000F00062004D617200417072004D6179004A7575
:100100006E004A756C0041756700536570004F635F
:1001100074004E6F760044656300EA00EE00F20062
:10012000F600FA00FE00020106010A010E011201AA
:100130001601200064006800346400326400323428
:10014000680032680039306D006D005000410030A9
:10015000003A0030003A0030005000410030003AD0
:100160000030002000203000FFFFFFFFFFFFFFFFF7
:10017000FFFF0F0F0F0F0F0F0F0FFFFFFFFEFCF81A
:10018000F0E0C0000000FFFFFFFFFFFFFFFFFEFCED
:10019000F8F0E0C08000000080C0E0F0F8FCFEFF56
:1001A000FFFFFFFFFFFF00000080C0E0F0F8FCFE53
:1001B000FFFFFF0F0F0F0F0F0F0F0FFFFFFFFEFCD3
:1001C000F8F0E0C080000000FFFFFFFFFFFFFFFF2F
:1001D000FFFF00000000000000000000000000FF22
:1001E000FFFFFFFFFFFFFFFFFFFFFFFFFFFFFFFF1F
:1001F000FFFF1E1E1E1E1E1E1E1EFFFFFFFFFFF71F
:10020000E3C180000000FFFFFFFFFFFFFFFFFFFFD4
:100210000F1F3F7FFFFFFEFFFF7F3F1F0FFFFFFF0F
:10022000FFFFFFFFFFFF000000FFFFFFFFFFFFFFDB
:10023000FFFFFF0000000000000000FFFFFFFFFFC6
:10024000FFFFFFFFFF000000FFFFFFFFFFFFFFFFBB
:10025000FFFF80C0E0F0F8FCFEFCF8F0E0C080FF9B
:10026000FFFFFFFFFFFFFFFFFFFFFFFFFFFFFFFF9E
:10027000FFFF8080808080808080FFFFFFFFFFFF86
:100280007F3F1F000000FFFFFFFFFFFFFFFFFFFF9B
:1002900000000000000103010000000000FFFFFF5C
:1002A000FFFFFFFFFFFF0000000F1F3F7FFFFFFF6B
:1002B000FFFFFF8080808080808080FFFFFFFFFF46
:1002C000FF7F3F1F0F000000FFFFFFFFFFFFFFFF4B
:1002D000FFFFFF7F3F1F0F0703070F1F3F7FFFFF3A
:1002E000FFFFFFFFFFFFFFFF87878787870707075E
:1002F000070787870707070707070707070301009F
:1003000000000000000087870707078787070707A7
:1003100000000000000000000000000000070707C8
:10032000070707070707000000000000000001039F
:100330000707070707078787070707070707030157
:100340000000808000000080870707078787070775
:100350000301000000000000000000000000000198
:100360000307070707070707FFFF1919FFE7000043
:10037000000CFDFD00000000FCFE8686FEFE000075
:10038000000000000000FFFF1E781EFFFF00FCFEC3
:1003900066667E7C00003C7E6666E6C600003C7EAB
:1003A0006666E6C60000000000000000FCFE0606CF
:1003B000FEFC000000001F1F000000000000000005
:1003C0000000FFFFE078E0FFFF00000CFDFD0000F3
:1003D0000000FEFE06061E1C0000FCFE66667E7C1B
:1003E00000003C7E6666E6C60707060607030000B7
:1003F0000006070706000000181919191F0F000052
:1004000000000000000007070000000707000307C6
:100410000606060600000606060607030000060696
:1004200006060703000000000000000003070606A0
:1004300007030000000000000000000000000000B2
:100440000000070701000107070000060707060074
:10045000000007070000000000000307060606066C
:1004600000000606060607034F637420323520326B
:100470003031310031313A32353A3236004578691F
:1004800074204D656E75004C696E652031204461A5
:100490007461004C696E6520322044617461004CC7
:1004A000696E6520332044617461004C696E65207B
:1004B000342044617461004C696E652035204461CC
:1004C0007461004C696E6520362044617461007D62
:1004D00004870493049F04AB04B704C304000043DF
:1004E000616C696272617465005365742044657360
:1004F00074696E6174696F6E00526573657420442F
:10050000657374696E6174696F6E007D04DF04E960
:100510000400004461746520616E642054696D6557
:1005200000536C6565702044656C617900536F758C
:100530006E64004C434420436F6E747261737400A8
:100540004C43442042696173004C43442054656D20
:100550007020436F656600526573746F7265204446
:10056000656661756C747300457261736520416CDA
:100570006C2044617461007D04130521052D053351
:10058000054005490557056805000054656D70650F
:1005900072617475726500416C746974756465008C
:1005A00052617465206F6620417363656E740054F8
:1005B000696D6520746F2044657374696E61746938
:1005C0006F6E0053746174696F6E2050726573733F
:1005D00075726500536561204C6576656C205072BC
:1005E0006573737572650054696D65206F6620448C
:1005F0006179004461746520616E642054696D65A1
:100600000054656D70657261747572652054726511
:100610006E64005072657373757265205472656EF6
:1006200064005765617468657220466F7265636126
:10063000737400456D707479007D048B059705A077
:1006400005AF05C305D405E705F30501061306222A
:1006500006330600005669657720536E6170736833
:100660006F74204C6F670054616B6520536E61702E
:1006700073686F74007D0455066706000045787046
:100680006C6F7265204772617068004472617769AF
:100690006E67205374796C6500437573746F6D20B9
:1006A000592D41786973204D696E00437573746FDD
:1006B0006D20592D41786973204D61780041757422
:1006C0006F20592D41786973204D696E0041757412
:1006D0006F20592D41786973204D6178007D047D2C
:1006E000068B069906AB060000536F6172696E6750
:1006F00000526973696E67204661737400526973B2
:10070000696E6700526973696E6720536C6F77007A
:100710005374656164790046616C6C696E6720533F
:100720006C6F770046616C6C696E670046616C6C3B
:10073000696E67204661737400506C756D6D6574E9
:10074000696E6700E906F106FD0604071007170742
:1007500024072C0739072B002D2D2D2D002B002DC4
:100760002D2D00206674200044657374696E6174D9
:10077000696F6E2000200020002000200020003043
:100780000020002D002000504D00414D0020002091
:100790000030002000200030002000200030002029
:1007A0000020002000200030002000200020005306
:1007B0006E617073686F74200020004F6666004F92
:1007C0006E00536F756E642000436F6E74726173B8
:1007D00074200056004261747465727920002050C4
:1007E0004153542000414C54495455444500505203
:1007F0004553535552450054454D5000202020206C
:100800002020746F20756E6C6F636B0020686F6CB6
:1008100064205052455620616E64204E4558540065
:100820004620006674200020002000556E696D701F
:100830006C656D656E746564002000200045727201
:100840002000436C6561722C204472790046616916
:100850007200556E6368616E676564005261696E0F
:100860000053746F726D7900566572792053746FFE
:10087000726D7900436C656172696E6700476F6FD6
:1008800064205765617468657200417070722E2033
:1008900053746F726D00506F6F722057656174688A
:1008A000657200556E6368616E67656400427269C7
:1008B00065662053686F77657200556E6176616971
:1008C0006C61626C6500466F7265636173742000D1
:1008D0005072657373757265200054656D702000E9
:1008E00030003A0030002D2D2D2D2D0054696D65FE
:1008F00020746F204465737420002066742F6D6926
:100900006E002D2D2D0044657363656E64696E67FE
:100910002000417363656E64696E67200020696E14
:1009200000536561204C6576205072732000206969
:100930006E0053746174696F6E20507273200052A0
:1009400065747279200053656E736F7220657272E0
:100950003A2000667400696E00274600000000001F
:100960000000005F00000007000700147F147F14E0
:10097000242A7F2A12231308646236495620500025
:1009800006050300001C2241000041221C002A1C15
:100990007F1C2A08083E08080080703000080808FC
:1009A0000808000060600020100804023E5149451C
:1009B0003E00427F400072494949462141494D333A
:1009C0001814127F1027454545393C4A49493141A1
:1009D000211109073649494936464949291E00006F
:1009E000140000103070301000081C3E7F141414E6
:1009F0001414007F3E1C0802015909063E415D594E
:100A00004E7C1211127C7F494949363E41414122B8
:100A10007F4141413E7F494949417F090909013EE2
:100A2000414151737F0808087F00417F4100204009
:100A3000413F017F081422417F404040407F021C1B
:100A4000027F7F0408107F3E4141413E7F09090932
:100A5000063E4151215E7F091929462649494932FE
:100A600003017F01033F4040403F1F2040201F3FC4
:100A70004038403F63140814630304780403615949
:100A8000494D43007F41414102040810200041418B
:100A9000417F04060706044040404040000605032D
:100AA0000020545478407F28444438384444442833
:100AB000384444287F385454541800087E090218DA
:100AC000A4A49C787F0804047800447D4000204062
:100AD000403D007F1028440000417F40007C0478A6
:100AE00004787C080404783844444438FC182424EE
:100AF0001818242418FC7C0804040848545454246E
:100B000004043F44243C4040207C1C2040201C3CEA
:100B10004030403C44281028444C9090907C4464E1
:100B2000544C4420504153542000414C5449545596
:100B300044450050524553535552450054454D507D
:100B40000000407A10F35A00A0724E18090010A558
:100B5000D4E80000E87648170000E40B54020000D7
:100B6000CA9A3B000000E1F505000080969800005D
:100B70000040420F000000A0860100000010270086
:100B8000000000E803000000006400000000000A0C
:100B900000000000000100000000002C76D888DC76
:100BA000674F0823DFC1DFAE59E1B1B796E5E3E453
:100BB00053C63AE651997696E8E6C28426EB898CCC
:100BC0009B62ED407C6FFCEFBC9C9F40F2BAA56F2E
:100BD000A5F490055A2AF75C936B6CF9676DC11BFD
:100BE000FCE0E40D47FEF520E6B500D0ED902E03C5
:100BF00000943577050080841E080000204E0A000E
:100C00000000C80C333333330F986E12831141EF59
:100C10008D2114893BE65516CFFEE6DB18D1844BB7
:100C2000381BF77C1D901DA4BBE424203284725E27
:100C3000228100C9F124ECA1E53D270011241FBE4B
:100C4000CFEFD8E0DEBFCDBF12E0A0E0B1E0E4E539
:100C5000FEE702C005900D92A433B107D9F717E063
:100C6000A4E3B2E001C01D92A631B107E1F70E94F2
:100C7000EC220C94283F0C9400000F931F9380915A
:100C800064008E7F8093640080917A0080688093F6
:100C90007A0086E480937C008FE99FE00197F1F76A
:100CA00000C0000080917A00806480937A00809177
:100CB0007A0086FDFCCF2091780030E040E050E0E3
:100CC00080917900782F60E0882777FD8095982FB4
:100CD000622B732B842B952B2CEB3CE040E050E0F7
:100CE0000E942F3B20917A002F7720937A00209149
:100CF00064002160209364002FEF33E040E050E077
:100D00000E94A33BB901CA011F910F9108951F933F
:100D1000182F87E70E944837812F0E9462370E9470
:100D2000523787E761E00E943B370E94BA37882339
:100D3000E1F30E94C0371F9108951F93182F87E792
:100D40000E944837812F0E9462370E945237809359
:100D50003402809134028823A1F487E762E00E9484
:100D60003B370E94BA378230E0F30E94C037182F19
:100D70000E94C037512F40E0282F30E0242B352B24
:100D800002C020E030E0C9011F91089580E896EE8E
:100D9000A5ECB7E480939F029093A002A093A102D8
:100DA000B093A2020895109234023B9A43988FECBC
:100DB00097E00197F1F700C00000439A80E896EEB3
:100DC000A5ECB7E480939F029093A002A093A102A8
:100DD000B093A2020E9423378AEA0E949D06909354
:100DE0008C0280938B028CEA0E949D069093940261
:100DF000809393028EEA0E949D069093A4028093B2
:100E0000A30280EB0E949D06909398028093970224
:100E100082EB0E949D06909392028093910284EB54
:100E20000E949D069093900280938F0286EB0E9411
:100E30009D0690938E0280938D0288EB0E949D0602
:100E400090938802809387028AEB0E949D0690937C
:100E50008A02809389028CEB0E949D0690939A02ED
:100E6000809399028EEB0E949D0690939602809348
:100E70009502089587E70E94483784EF0E94623701
:100E80008EE20E9462370E94523780933402809132
:100E90003402882361F48FE097E20197F1F700C0F4
:100EA000000086EF0E949D06282F392F02C020E007
:100EB00030E0C9010895EF92FF920F931F9387E7E7
:100EC0000E94483784EF0E94623784EF0E946237A5
:100ED0000E9452378093340280913402882309F0B3
:100EE00045C08FE19BEC0197F1F700C0000087E758
:100EF0000E94483786EF0E9462370E9452378093E3
:100F0000340280913402882389F587E763E00E94E8
:100F10003B370E94BA378330E0F30E94C037182F66
:100F20000E94C037E82E0E94C037212F30E040E0F9
:100F300050E0A90133272227FF2400E010E0102F02
:100F40000F2DFE2CEE242E293F29402B512B90E013
:100F5000A0E0B0E0282B392B4A2B5B2B85E056957F
:100F60004795379527958A95D1F703C020E030E063
:100F7000A901B901CA011F910F91FF90EF90089547
:100F8000EF92FF920F931F93BC0180E090E02091BD
:100F90008F023091900240E050E0621B730B840B93
:100FA000950B209191023091920240E050E00E9416
:100FB0002F3B7B018C01FFE015950795F794E79493
:100FC000FA95D1F76091990270919A02882777FD7E
:100FD0008095982FEBE0660F771F881F991FEA9581
:100FE000D1F72091950230919602442737FD409524
:100FF000542F2E0D3F1D401F511F0E94A33B2E0D4D
:101000003F1D401F511F20939B0230939C02409331
:101010009D0250939E02285F3F4F4F4F5F4F74E0F9
:1010200055954795379527957A95D1F7C9011F9121
:101030000F91FF90EF9008952F923F924F925F9201
:101040006F927F928F929F92AF92BF92CF92DF92D8
:10105000EF92FF920F931F93DF93CF9300D000D0B6
:10106000CDB7DEB71B012C01A0909B02B0909C0273
:10107000C0909D02D0909E0280E690EFAFEFBFEF50
:10108000A80EB91ECA1EDB1EC601B501A601950138
:101090000E942F3B69837A838B839C836091A30298
:1010A0007091A402882777FD8095982F0E942F3B8E
:1010B0007B018C014DE015950795F794E7944A95CF
:1010C000D1F782E090E0A0E0B0E0E80EF91E0A1F40
:1010D0001B1F69817A818B819C813CE09595879566
:1010E000779567953A95D1F720918D0230918E02D0
:1010F000442737FD4095542F0E942F3BBC01992770
:1011000077FD9095892FE60EF71E081F191F82E0C4
:1011100015950795F794E7948A95D1F780E090E8C4
:10112000A0E0B0E0E80EF91E0A1F1B1F20919702F5
:101130003091980240E050E0C801B7010E942F3B77
:101140003B014C01BFE09694879477946794BA95DD
:10115000D1F76091930270919402882777FD809572
:10116000982FA60195010E942F3B7B018C01ABE0DB
:1011700015950795F794E794AA95D1F780918B027E
:1011800090918C02AA2797FDA095BA2FF2E0880FC4
:10119000991FAA1FBB1FFA95D1F7E80EF91E0A1F67
:1011A0001B1F2091870230918802442737FD40950C
:1011B000542F69817A818B819C810E942F3BE7E1CA
:1011C0009595879577956795EA95D1F7E60EF71E81
:1011D000081F191FEE0CFF1C001F111F2E183F08BF
:1011E000400A510AC201B1012AE638E140E050E06C
:1011F0000E942F3B97FD0BC0660F771F881F991F1A
:10120000A40193010E94813B79018A010AC0A401D3
:1012100093010E94813B79018A01EE0CFF1C001FA3
:10122000111F552717FD5A95412F302F2F2DCA0119
:10123000B9010E942F3B2EED3BE040E050E00E94C0
:101240002F3B5B016C01C801B70123E433EE4FEF84
:101250005FEF0E942F3B9C01552737FD5095452F8E
:101260002153314F4F4F5F4F5601DD24B7FCD094CF
:10127000CD2C2A0D3B1D4C1D5D1DA4E055954795B9
:1012800037952795AA95D1F72E0D3F1D401F511F69
:10129000B901CA010F900F900F900F90CF91DF917D
:1012A0001F910F91FF90EF90DF90CF90BF90AF9084
:1012B0009F908F907F906F905F904F903F902F9076
:1012C000089520919F023091A0024091A102509177
:1012D000A2020E94403821EB3CED42E45EE30E9412
:1012E000CA39562F472F382F292F60E070E080E849
:1012F0009FE3DA01F9012B2F3A2F4F2F5E2F0E9427
:10130000DB3720E03AE24DE257E40E946739089566
:10131000EF92FF920F931F937B018C01CA01B901D9
:1013200020E03AE24DE257E40E9440389B01AC01D4
:1013300060E070E080E89FE30E94DB3726EF38E250
:1013400048EA50E40E94CA39562F472F382F292FD8
:10135000C801B701DA01F9012B2F3A2F4F2F5E2F69
:101360000E9440381F910F91FF90EF9008958FE9F0
:101370009DE09093A9028093A80280E48093660088
:101380008DE08A95F1F70000E6EBF0E08081806265
:10139000808380818F7B80831092B00081E0809376
:1013A000B10008951092B2008091B6008A71E1F701
:1013B00020E030E02F5F3F4F8091B2008436D0F3C1
:1013C000C90108952091A8023091A9022817390770
:1013D00048F48FEF8093A502809166009091A60259
:1013E000891B0BC08217930778F481E08093A502D4
:1013F000809166009091A602890F809366008DE02F
:101400008A95F1F7000006C081E090E09093AB026E
:101410008093AA028091A60286958093A6020895E1
:101420008091AC028F5F8093AC02843059F480913C
:10143000AE028093660081E090E09093AB028093CF
:10144000AA020895809166009091A502890F809369
:1014500066008DE08A95F1F7000008951F9311E072
:1014600033C00E94D2092091A602222319F00E94C3
:10147000E2092AC02091A8023091A9021123A1F407
:10148000821B930B97FF03C0909581959F4F2091EE
:101490000001821730F480930001809166008093F0
:1014A000AE020E94100A10C01092AC02821B930B75
:1014B00097FF03C0909581959F4F80930001809185
:1014C00066008093AE0210E08091AA029091AB0278
:1014D000009739F21F9108951F930E94B7098FE179
:1014E0009EE40197F1F700C0000010E21093A602FD
:1014F0001092AB021092AA020E942E0A8091000163
:10150000882319F190EC909366009DE09A95F1F78D
:1015100000009091AE029093A7028093AD021093C9
:10152000A6021092AB021092AA020E942E0A90917B
:1015300000018091AD02891740F48091A702809349
:1015400066008DE08A95F1F700001F9108959F9243
:10155000AF92BF92CF92DF92EF92FF920F931F93C1
:10156000CF93DF936C01C0E0D0E0FE01EE0FFF1FD0
:10157000E65EFE4FA590B49000E010E0F601E00FAB
:10158000F11F8491F801EA0DFB1D949090E00E94F8
:10159000E03B7C01892D90E00E94E03BE816F906D3
:1015A00039F40F5F1F4F0330110541F7219606C034
:1015B0002196CC30D105C9F6C0E0D0E0CE01DF9154
:1015C000CF911F910F91FF90EF90DF90CF90BF9040
:1015D000AF909F900895EF92FF921F93CF93DF9368
:1015E000EC01162FE42FF0E0EE0FFF1FE85EFE4F38
:1015F00025913491CE01B9010E94F33B1A3020F4B9
:10160000CE0165E671E003C0CE0163E671E00E94A1
:10161000E83B7E01AC2FBF2DFD0101900020E9F7D2
:101620003197EA1BFB0BEC0FFD1F812F90E0BF01F0
:101630004AE050E00E941B3CCE01DF91CF911F9108
:10164000FF90EF900895CF92DF92EF92FF920F9369
:101650001F93DF93CF930F92CDB7DEB76C01162F98
:10166000042FFC011082662389F06C3079F0862FFC
:101670006CE00E944E3B292F9A3048F4C60161E687
:1016800071E029830E94E83B298101C02CE0F6012A
:1016900001900020E9F73197EC19FD09EC0DFD1DD3
:1016A000822F90E0BF014AE050E00E941B3CC6013F
:1016B0006FE571E00E94E83B0A3028F4C6016DE551
:1016C00071E00E94E83BF60101900020E9F73197B4
:1016D000EC19FD09EC0DFD1D802F90E0BF014AE0E3
:1016E00050E00E941B3C1C3018F46BE571E002C016
:1016F00069E571E0C6010E94E83BC6010F90CF91F9
:10170000DF911F910F91FF90EF90DF90CF900895A0
:10171000AF92BF92CF92DF92EF92FF920F931F93FF
:10172000DF93CF930F92CDB7DEB75C01162F042F56
:10173000F22EDC011C92662389F06C3079F0862F42
:101740006CE00E944E3B292F9A3048F4C50167E5B2
:1017500071E029830E94E83B298101C02CE0D5017A
:101760000D900020E9F7BD01615070406A197B09B6
:101770006A0D7B1D822F90E04AE050E00E941B3CE6
:10178000C50165E571E00E94E83B0A3028F4C50117
:1017900063E571E00E94E83BD5010D900020E9F778
:1017A000BD01615070406A197B096A0D7B1D802F55
:1017B00090E04AE050E00E941B3CC50161E571E009
:1017C0000E94E83BBF2DBA3028F4C5016FE471E0F8
:1017D0000E94E83BF50101900020E9F73197EA19F2
:1017E000FB09EA0DFB1D8F2D90E0BF014AE050E0A0
:1017F0000E941B3C1C3018F46DE471E002C06BE4E5
:1018000071E0C5010E94E83BC5010F90CF91DF91C7
:101810001F910F91FF90EF90DF90CF90BF90AF900E
:1018200008950F931F938C016C33710550F4CB0115
:10183000B8014AE050E00E941B3CC80169E471E035
:1018400047C06435710519F465E471E01DC0603866
:10185000710519F462E471E017C085E0683E78070D
:1018600021F4C8016EE371E00FC089E0683D78079C
:1018700021F4C8016BE371E007C083E1603B7807A6
:1018800031F4C80168E371E00E94F33B23C088E0B3
:101890006137780778F4CB016CE370E00E945A3B23
:1018A000CB01B8014AE050E00E941B3CC80166E34E
:1018B00071E00EC0CB0160EA75E00E945A3BCB019B
:1018C000B8014AE050E00E941B3CC80164E371E0AB
:1018D0000E94E83BC8011F910F910895AF92BF92FB
:1018E000CF92DF92EF92FF920F931F93DF93CF93EC
:1018F000CDB7DEB760970FB6F894DEBF0FBECDBF91
:10190000E82ED92E9B018FB7F894F090B802C090C2
:10191000B702E091B0024091AF02F091B2028FBFE6
:10192000CB016CE370E00E945A3BF81A8F2D8C3388
:1019300018F0CA948CE3F80EC9016CE370E00E94C1
:101940005A3B9B01CB0168E170E00E945A3BC81AE8
:101950008C2D883118F0E15088E1C80EF37011F435
:10196000FDE101C0FCE1EE23D9F4415049F04230E1
:1019700091F0413091F0433081F0453071F002C078
:101980004CE00BC0473049F0483039F04A3029F07C
:101990004C3029F402C0EF2F03C0EFE101C0EEE1AB
:1019A000C90168E170E00E945A3B9B0122C02150AE
:1019B0003040E1508E2F81508F31D8F0415049F0A6
:1019C000423091F0413091F0433081F0453071F078
:1019D00002C04CE00BC0473049F0483039F04A3083
:1019E00029F04C3029F402C0EF2F03C0EFE101C011
:1019F000EEE121153105D9F65E010894A11CB11C58
:101A0000C5016E2F0E94EB0A8E01085F1F4FC801AF
:101A10006C2D4F2D0E94230B8E2D9D2DB5010E9404
:101A2000143C8E2D9D2D62E371E00E94E83B8E2DCB
:101A30009D2DB8010E94093C8E2D9D2D60960FB6FC
:101A4000F894DEBF0FBECDBFCF91DF911F910F91F4
:101A5000FF90EF90DF90CF90BF90AF9008958BE014
:101A60008093B20281E08093AF028093B002109223
:101A7000B7021092B8021092B10208958091B30299
:101A80009091B402A091B502B091B6020196A11D49
:101A9000B11D8093B3029093B402A093B502B093AA
:101AA000B6028091B3029091B402A091B502B091B8
:101AB000B60283709070A070B0700097A105B10558
:101AC00009F067C08091B1028F5F8093B10280916D
:101AD000B1028C3309F05DC01092B1028091B8025E
:101AE0008F5F8093B8028091B8028C3309F051C0A7
:101AF0001092B8028091B7028F5F8093B7028091F5
:101B0000B702883109F045C01092B7028091B00247
:101B10008F5F8093B0028091B202837011F48DE1E7
:101B200001C08CE19091AF02923041F42091B0025B
:101B300030E090E0019628173907C1F08091AF029C
:101B4000843061F08091AF02863041F08091AF0225
:101B5000893021F08091AF028B3021F48091B00266
:101B60008F3121F08091B002803299F491E090930E
:101B7000B0028091AF028F5F8093AF028091AF027D
:101B80008D3039F49093AF028091B2028F5F8093D1
:101B9000B20208952F923F924F925F926F927F927E
:101BA0008F929F92AF92BF92CF92DF92EF92FF926D
:101BB0000F931F93DF93CF93CDB7DEB766970FB622
:101BC000F894DEBF0FBECDBFE0913902F0E0EE0F1A
:101BD000FF1FE351FE4F4080518020E001C02F5F86
:101BE000222E3324F101EE0FFF1FE40DF51D859128
:101BF00094910097A1F7882499243E010894611CD0
:101C0000711CD4C080913F02F801E80FF11DEE0F66
:101C1000FF1FE40DF51D85919491E82EF92E80911A
:101C200039028130A1F480913F029801280F311DC3
:101C30002230310561F48091CE029091CF023FE7CE
:101C40008F3F930721F059EFE52E54E0F52E809158
:101C500039028A30D1F58091BD02823029F0E1E06D
:101C6000843019F4E0E001C0E2E080913F02980185
:101C7000280F311D2330310589F4AE2FB0E0AA0FB3
:101C8000BB1FA35FB84F8D919C9111973FE78F3F8A
:101C9000930721F03DEBE32E36E0F32E80913F02D7
:101CA0009801280F311D2430310579F4F0E0EE0F52
:101CB000FF1FEE5FF84F808191813FE78F3F9307D1
:101CC00021F09DECE92E96E0F92EAB2CA39480E058
:101CD0006A2D0E94AE2E80E8C82ED12C90913F0232
:101CE00080913C029801290F311D90E02817390797
:101CF00011F46FE701C060E081E00E94802D08943C
:101D0000C108D108C114D10449F784E06A2D0E94AA
:101D1000AE2EC301B70145E150E00E94FA3B90911D
:101D20003F0280913C029801290F311D90E061E053
:101D30002817390709F060E0C3010E94962EBB20E6
:101D400091F480913F02882371F18AE76A2D0E9405
:101D5000AE2E90913F0280913C0261E0981360E0CA
:101D600081E091E01EC08B2D8630E9F480913F0226
:101D700090E00196800F911F82159305A1F08AE7EC
:101D80006A2D0E94AE2E90913F0280913C02090F75
:101D9000111D90E061E00817190709F060E083E089
:101DA00091E00E94962E0894811C911CB82C082D5D
:101DB00010E027E08216910449F080913F029801DB
:101DC000280F311D221533050CF41CCF66960FB673
:101DD000F894DEBF0FBECDBFCF91DF911F910F9161
:101DE000FF90EF90DF90CF90BF90AF909F908F903B
:101DF0007F906F905F904F903F902F90089581E07B
:101E00000E94492D80913C028F5F80933C0280911B
:101E10003C02873019F58FB7F8949091C3029093E4
:101E2000B1029091C9029093B8029091D30290931D
:101E3000B7029091D2029093B0029091C102909318
:101E4000AF029091C0029093B2028FBF88E080935E
:101E5000390210923B0281E08093350208959091FF
:101E6000C002937011F49DE101C09CE12091C10278
:101E7000223099F09091C102943061F09091C102AA
:101E8000963041F09091C102993021F09091C102B9
:101E90009B3011F49EE101C09FE13091D30220916B
:101EA0003C02233009F450C0243030F4213051F189
:101EB000223008F043C00AC0253009F484C0253020
:101EC00008F467C0263009F0B7C097C09091C102EE
:101ED000980F9093C1028091C1028150813F20F000
:101EE0008091C102845F0BC08091C10281508C300F
:101EF00020F08091C1028C5002C08091C102809379
:101F0000C10208952091D202280F2093D20280911D
:101F1000D2028150813F20F08091D202890F0BC004
:101F20008091D2028150891720F08091D202891BC2
:101F300002C08091D2028093D20208959091C00293
:101F4000980F9093C00208959091D302980F9093A8
:101F5000D3023C3048F08091D3028C50813F40F452
:101F60008091D3028C500AC08091D302813F20F02F
:101F70008091D302845F0AC08091D3028C3020F01C
:101F80008091D3028C5002C08091D3028093D302FF
:101F900008959091C902980F9093C9028091C90247
:101FA000813F20F08091C902845C0AC08091C902FF
:101FB0008C3320F08091C9028C5302C08091C902F9
:101FC0008093C90208959091C302980F9093C30221
:101FD0008091C302813F20F08091C302845C0AC0DB
:101FE0008091C3028C3320F08091C3028C5302C0D5
:101FF0008091C3028093C3020895813021F48091BF
:10200000D302845F03C08091D3028C508093D302AB
:102010008091D302813F20F08091D302885E0AC074
:102020008091D302883120F08091D302885102C080
:102030008091D3028093D3020895E0913902E09316
:10204000BD027093C6026093C5029093C80280934C
:10205000C7025093CD024093CC023093D10220931B
:10206000D0021092BF021092BE028CE0809339021F
:102070000895EF92FF920F931F9381E00E94492DE4
:102080008091BD02883051F480913C02823009F089
:10209000BDC08091CC028093C202B8C0813009F0EB
:1020A0005EC080913C02813021F0823009F0AEC0E8
:1020B0004DC06091E5027091E6028091E702909137
:1020C000E8020E94DB387B018C016091CC027091A8
:1020D000CD02882777FD8095982F0E94DB382FEB63
:1020E0003EE04CE95EE30E9467399B01AC01C80108
:1020F000B7010E94880960939F027093A0028093A9
:10210000A1029093A2026091E5027091E602809193
:10211000E7029091E8020E94DB380E94610928E4FE
:1021200039EF41E550E40E9467396093EB02709308
:10213000EC028093ED029093EE028091CC0290919C
:10214000CD029093F0028093EF0260C08091CC02A8
:102150009091CD029093CF028093CE0257C0809190
:10216000C4028230D1F480913C02833019F0843073
:1021700091F409C08091CC029091CD029093120706
:102180008093110708C08091CC029091CD0290936A
:1021900007078093060782E037C08430D1F480912E
:1021A0003C02833019F0843091F409C08091CC0254
:1021B0009091CD0290930E0780930D0708C08091F7
:1021C000CC029091CD02909303078093020784E0A4
:1021D0001BC08630D9F480913C02833019F08430E2
:1021E00091F409C08091CC029091CD029093100798
:1021F00080930F0708C08091CC029091CD029093FC
:1022000005078093040786E08093BD028091BD029C
:102210008093390210923B0281E0809335021F9136
:102220000F91FF90EF900895282F30E04091CC025D
:102230005091CD0287FD07C0240F351F3093CD028A
:102240002093CC0209C0CA0180509140820F931F95
:102250009093CD028093CC028091C7029091C802E6
:102260002091CC023091CD022817390724F49093A5
:10227000CD028093CC028091C5029091C60220913C
:10228000CC023091CD028217930724F49093CD02B3
:102290008093CC028091BD02883089F480913C0209
:1022A000843069F48091CC0280930C0780E061E86F
:1022B0000E94802D60910C0780E00E94802D08957F
:1022C000209139022093BD029093BC028093BB02FF
:1022D0007093BA026093B9025093CB024093CA0242
:1022E00010923E028DE080933902089590913E0253
:1022F00081E0891B80933E020895809139028830E5
:1023000009F060C080913C02833009F44EC08430F3
:1023100030F4813061F0823009F000C229C087308A
:10232000D9F18830C9F1843009F0F8C12BC08BE0B5
:102330008093390210923C028FB7F8949091B102C9
:102340009093C3029091B8029093C9029091B70202
:102350009093D3029091B0029093D2029091AF02E9
:102360009093C1029091B2029093C0028FBF0895E2
:102370004091C20280E090E068E770E050E025E024
:1023800031E0A5C140910C0780E090E06FEF70E074
:1023900050E027E031E09BC188E091E066E171E028
:1023A00049E151E00E946011089587E091E06DE1FC
:1023B00071E040E251E00E9460119091290281E0B9
:1023C000891BFDC020913902213009F055C0809150
:1023D0003C02813021F0823009F0A0C122C060911E
:1023E000EB027091EC028091ED029091EE0220E000
:1023F00030E040E05FE30E94DC370E94A8389B0198
:10240000AC0188E19CEF68E97AE3A90124E231E0BC
:102410000E941D1087E291E09093BF028093BE025C
:1024200008958091CE029091CF023FE78F3F9307AE
:1024300059F08FEF9FE79093CF028093CE021092D6
:102440003B022093350208956091EB027091EC02FB
:102450008091ED029091EE0220E030E040E05FE3F9
:102460000E94DC370E94A8389B01AC0188E19CEFF8
:1024700068E97AE3A90129C180913902882349F5E5
:1024800080913C028150863008F048C181E00E9472
:10249000492D809139028093BD0280913C02809346
:1024A0003D0289E080933902E0913C02F0E0ED5278
:1024B000FD4F808180933C0280913C02853030F05A
:1024C00080913C02845080933F0218C110923F02D9
:1024D00015C180913902893001F5E0913D02F0E0AB
:1024E00080913C02ED52FD4F80838091BD0280932C
:1024F000390280913D0280933C0280913C028530FC
:1025000030F080913C02845080933F0202C01092D0
:102510003F0281E080933B02F2C080913902873014
:10252000A9F480913C02813039F0823009F0F6C084
:1025300081E08093370227C080913B028F5F8093B8
:102540003B0210923F0210923C02089580913902A2
:102550008A3009F0E3C02091BD022093C40280912B
:102560003C02823099F0833020F4813009F0D6C0EB
:1025700006C0833039F1843009F0D0C071C0809337
:1025800040022093390210923B02B9C087E091E0EB
:102590006DE371E043E451E00E9460118091C40258
:1025A000843019F4809113070AC0823019F48091A5
:1025B000150705C0863009F0B1C0809114078093DB
:1025C0003E0208952430C9F480910D0790910E07C2
:1025D0002FE78F3F920761F08FEF9FE790930E07F1
:1025E00080930D0710923B0284E08093390286C0ED
:1025F000409108075091090748C02230A1F480910A
:102600001107909112073FE78F3F930739F08FEF43
:102610009FE790931207809311076CC040910807C1
:10262000509109074EC0263009F078C080910F07FD
:10263000909110073FE78F3F930739F08FEF9FE7A7
:102640009093100780930F0755C040910807509151
:10265000090785E090E065E270E02DE431E037C0E5
:102660002430D1F480910207909103073FE78F3F18
:10267000930739F08FEF9FE790930307809302074A
:1026800039C040910A0750910B0786EF9FEF66E72C
:1026900070E02AE431E01BC02230E1F480910607AB
:1026A000909107073FE78F3F930739F08FEF9FE740
:1026B00090930707809306071DC040910A07509129
:1026C0000B0788E99AEF68E97AE324E231E00E9497
:1026D0001D100895263011F580910407909105078B
:1026E0003FE78F3F930771F08FEF9FE790930507C8
:1026F0008093040710923B022093390281E080937B
:102700003502089540910A0750910B0785E090E04B
:1027100065E270E02DE431E00E941D100895E09123
:102720003902F0E0EE0FFF1FE351FE4F20813181AF
:1027300090E001C09F5FE92FF0E0EE0FFF1FE20F76
:10274000F31F4591549141155105A1F720913C0289
:10275000280F20933C0280913C02891719F41092B3
:102760003C0207C080913C028F3F19F49150909336
:102770003C0290913C0280913F02981728F480918E
:102780003C0280933F02089520913C0280913F02D9
:1027900030E090E00696821793072CF480913C027B
:1027A000865080933F02089584E18093C2028FEFA8
:1027B0009FE79093CF028093CE0282E08093D40271
:1027C00081E08093D5028CE08093D60293E09093D1
:1027D000D7028093D80288E08093D90208951F938E
:1027E00081E00E94492D8091BD02883041F58091A1
:1027F0003C02873061F0883019F08330C1F518C091
:1028000080913E02813099F58093360230C010915C
:102810003E02113061F50E94EA2E0E94D4131093FB
:1028200029020E94C6061092F0021092EF021FC009
:1028300090913E0281E0891B8093290218C080910B
:10284000C402823029F490913E02909315070DC086
:10285000843029F490913E029093130706C086308D
:1028600031F490913E02909314078093BD028091C1
:10287000BD028093390210923B0281E080933502C1
:102880001F910895EF92FF920F931F93CF93DF93C1
:1028900080E00E94D427682F6B50613808F06058A0
:1028A00080E00E94E627FC018281869586958695C8
:1028B0009381292F2295220F207EE22EE82AE7011C
:1028C0007E01969596959695F92EE7012097E1F170
:1028D0006091EB027091EC028091ED029091EE021A
:1028E00020E030E048EC52E40E9467390E94A838AA
:1028F0007B018C0180EA9CE1A2E0B0E0E80EF91EC9
:102900000A1F1B1FBE0180E090E028EC30E040E091
:1029100050E00E942F3BE61AF70A080B190BC8017A
:10292000B7012AE030E040E050E00E94A33B2E5C7B
:102930003F4F4F4F5F4FCA01B90124E630E040E0FE
:1029400050E00E94A33B04C02FEF3FEF4FEF5FE743
:10295000B901CA01DF91CF911F910F91FF90EF90C4
:1029600008950F931F9380E00E94D427682F6D5322
:10297000613808F0605880E00E94E627FC01208161
:10298000222399F130E040E050E0DA01C90172E021
:10299000880F991FAA1FBB1F7A95D1F7820F931F2B
:1029A000A41FB51F04E610E020E030E0081B190B5F
:1029B0002A0B3B0B4091E9025091EA02CA0163E005
:1029C000880F991F6A95E1F7840F951F65E070E005
:1029D0000E946E3B605C7E4F882777FD8095982F24
:1029E000060F171F281F391F04C00FEF1FEF2FEF0F
:1029F0003FE7B801C9011F910F910895EF92FF922F
:102A00000F931F9380E00E94D427682F6D53613885
:102A100008F0605880E00E94E627FC016181828115
:102A2000782F777061157105E9F0E090E502F0907C
:102A3000E6020091E7021091E80280EE91EBAFEF21
:102A4000BFEFE80EF91E0A1F1B1F80E090E022E393
:102A500030E040E050E00E942F3BE61AF70A080BF6
:102A6000190B08C0EFEFEE2EEFEFFE2EEFEF0E2F5B
:102A7000EFE71E2FB701C8011F910F91FF90EF9054
:102A80000895EF92FF920F931F9381E00E94D42745
:102A9000682F6C54613808F0605881E00E94E62786
:102AA000FC0161818281782F77706115710529F1B0
:102AB000E090E502F090E6020091E7021091E80252
:102AC00080EE91EBAFEFBFEFE80EF91E0A1F1B1F60
:102AD00080E090E022E330E040E050E00E942F3BB5
:102AE000E61AF70A080B190BC801B70125E030E018
:102AF00040E050E00E94A33B04C02FEF3FEF4FEFB8
:102B00005FE7B901CA011F910F91FF90EF900895FF
:102B10006F3F2FEF72072FEF82072FE79207D9F150
:102B2000693C71058105910574F569377105810569
:102B300091055CF5663371058105910544F516161E
:102B40001706180619062CF1611571058105910506
:102B500011F16B3C2FEF72072FEF82072FEF9207D7
:102B6000E4F468382FEF72072FEF82072FEF9207F8
:102B7000B4F468332FEF72072FEF82072FEF92071D
:102B800084F087E0089580E0089581E0089582E070
:102B9000089583E0089584E0089585E0089586E02F
:102BA000089588E008956F927F928F929F92AF92DE
:102BB000BF92CF92DF92EF92FF920F931F93DF931A
:102BC000CF93CDB7DEB728970FB6F894DEBF0FBE10
:102BD000CDBF7C01663009F4AEC0673090F463303D
:102BE00009F404C1643030F4613019F1623009F045
:102BF00016C346C0643009F437C1653009F00FC30D
:102C000060C0693009F4CEC16A3038F4673009F425
:102C1000E5C2683009F003C3EAC26B3009F42BC285
:102C20006B3008F415C26C3009F0F9C2DC011C925B
:102C30000AC32091E9023091EA02C901B3E0880F8A
:102C4000991FBA95E1F7820F931F65E070E00E942B
:102C50006E3B605C7E4F882777FD8095982F0E94A1
:102C6000DB3820E030E040E251E40E94403841E0AF
:102C700021E087010E94BE3BC70160E571E0CCC244
:102C80006091EB027091EC028091ED029091EE0266
:102C900020E030E048EC52E40E9467390E94A838F6
:102CA0000E94DB3820E030E048EC52E40E944038DB
:102CB00041E022E087010E94BE3BC70163E571E06D
:102CC000ABC26091E5027091E6028091E7029091BB
:102CD000E80229E83BE040E050E00E942F3B5B0126
:102CE0006C01C70162E379E00E94F33BD7010D90CC
:102CF0000020E9F78D01015010400E191F09C6018F
:102D0000B50120EA36E841E050E00E94A33BCA0149
:102D1000B9010E94DB3820E030E048EC52E40E9428
:102D200040380E0D1F1D41E022E00E94BE3BC7014E
:102D30006EE279E058C00091EF021091F0026091CC
:102D4000E5027091E6028091E7029091E8020E940C
:102D5000DB385B016C01B801882777FD8095982FDF
:102D60000E94DB382FEB3EE04CE95EE30E946739BE
:102D70009B01AC01C601B5010E94880920E030E941
:102D800048E355E40E9467390E94A8386B01682E19
:102D9000A92EC70161E279E00E94F33BD7010D90B3
:102DA0000020E9F78D01015010400E191F09B601EE
:102DB000862D9A2D20EA36E841E050E00E94A33BA0
:102DC000CA01B9010E94DB3820E030E048EC52E44F
:102DD0000E9440380E0D1F1D41E022E00E94BE3BC4
:102DE000C7016DE179E00E94E83B2DC20E944214C8
:102DF0005B016C0197FD0FC0C70162E179E00E94A1
:102E0000F33BBFEFAB16BFEFBB06BFEFCB06BFE791
:102E1000DB0631F420C0C70166E079E00E94F33B95
:102E2000D7010D900020E9F7AD01415050404E19F7
:102E30005F09C601B501D7FE07C0909580957095D2
:102E400061957F4F8F4F9F4F4E0D5F1D2AE030E001
:102E50000E943C3C05C0C70162E079E00E94E83B6B
:102E6000C7016AEF78E0BFCF0E9442143B014C01DA
:102E7000C7016CEE78E00E94F33BA090CE02B090C8
:102E8000CF026091EB027091EC028091ED02909183
:102E9000EE02BFEF6B16BFEF7B06BFEF8B06BFE7FF
:102EA0009B0681F12091CE023091CF02EFE72F3FB8
:102EB0003E0741F1CC24B7FCC094DC2C0E94A8381A
:102EC000A61AB70AC80AD90AC401B30122E030E041
:102ED00040E050E00E94A33BA20EB31EC41ED51ECC
:102EE000C601B501A40193010E94A33B59016A01E7
:102EF00057FD08C02438F9E03F07F0E04F07F0E045
:102F00005F0724F0C70166EE78E06DCF28E5A216D2
:102F100022E0B20620E0C20620E0D2062CF4C7016F
:102F200064EE78E00E94E83BD7010D900020E9F7BD
:102F30008D01015010400E191F09C601B5012CE387
:102F400030E040E050E00E94A33B5B016C010E0DBD
:102F50001F1DCA01B901A8012AE030E00E943C3CD3
:102F6000C70162EE78E00E94E83BBAE0AB16B1041C
:102F7000C104D1042CF4C70160EE78E00E94E83B64
:102F8000D7010D900020E9F7AD01415050404E1996
:102F90005F094E0D5F1DC601B5012AE030E00E94B9
:102FA0003C3C51C16AED78E00E94F33B0E94B114B1
:102FB0006734710581059105ACF5693271058105AC
:102FC00091050CF032C16B307105810591050CF053
:102FD0002EC116161706180619060CF42AC161151B
:102FE00071058105910509F426C1663FBFEF7B0796
:102FF000BFEF8B07BFEF9B070CF01FC1683DEFEFE2
:103000007E07EFEF8E07EFEF9E070CF018C16A3BCB
:10301000FFEF7F07FFEF8F07FFEF9F070CF011C156
:10302000E8E009C06F3F2FEF72072FEF82072FE70D
:10303000920749F0E0E0F0E0EE0FFF1FEC5BF84F85
:103040002591349115C0ECE4F7E02591349110C03E
:1030500060ED78E00E94F33B0E94FE140E94881508
:1030600090E0880F991F8C5B984FFC01259134915B
:10307000C701B901B8CE66EC78E00E94F33B0E942C
:10308000FE145B016C010E948815182F0E944115E7
:103090003B014C010E948815082F4FEFA4164FEFFB
:1030A000B4064FEFC4064FE7D40649F08FEF681619
:1030B0008FEF78068FEF88068FE7980621F4C70117
:1030C0006AEB78E090CE812F8750823030F4063062
:1030D00060F4C7016DEA78E086CE153031F4053032
:1030E00021F4C70163EA78E07ECE912F95509230AB
:1030F00040F4802F8550823060F4C70166E978E0A3
:1031000072CE173030F0063020F0C7016AE878E060
:103110006ACE812F8250823040F4202F22502230FC
:1031200090F4C7016DE778E05ECE123030F40230E3
:1031300050F0C70164E778E056CE183021F4C7019B
:1031400068E678E050CE173021F4C70161E678E0F8
:103150004ACE923020F4C7016CE578E044CE1430BA
:1031600021F4C70162E578E03ECE823020F4C70149
:103170006DE478E038CE123020F4C70162E478E0E4
:1031800032CEC7016DE378E00E94E83BD7010D9095
:103190000020E9F7BD01615070406E197F096E0D86
:1031A0007F1D812F90E04AE050E00E941B3CC70148
:1031B0006BE378E00E94E83BD7010D900020E9F72F
:1031C000BD01615070406E197F096E0D7F1D802F0B
:1031D00090E04AE050E00E941B3C35C06091B7028D
:1031E0004091B8022091B1020E94880B2CC06091DE
:1031F000B0024091AF020E94EB0AC70169E378E098
:103200000E94E83B6091B7024091B802CE0101965E
:103210000E94230BBC01C7010E94093C14C0C701D6
:103220006BE278E00E94F33B0EC0E1E004CFE2E005
:1032300002CFE3E000CFE4E0FECEE5E0FCCEE6E046
:10324000FACEE7E0F8CE28960FB6F894DEBF0FBEB0
:10325000CDBFCF91DF911F910F91FF90EF90DF9045
:10326000CF90BF90AF909F908F907F906F90089578
:10327000AF92BF92CF92DF92FF920F931F93DF9393
:10328000CF930F92CDB7DEB75C01CB01BA012CE32F
:1032900030E040E050E00E94813BF62ECA01B901C7
:1032A00028E130E040E050E00E94813B162FCA0147
:1032B000B90105E096958795779567950A95D1F7B9
:1032C000022F0F712DE030E040E050E00E94813B82
:1032D000462FC501602F29830E94EB0AC50169E2D0
:1032E00078E00E94E83BD5010D900020E9F7BD0190
:1032F000615070406A197B092981822F90E06A0D24
:103300007B1D8053984F4AE050E00E941B3CC50152
:1033100067E278E00E94E83BD5010D900020E9F7D4
:10332000CD0101978A199B098A0D9B1D612F4F2D95
:103330000E94230B0F90CF91DF911F910F91FF906F
:10334000DF90CF90BF90AF900895EF92FF920F93D0
:103350001F93CF93DF93EC018B01DB0112968C91CD
:10336000129786958695869513969C91292F22957E
:10337000220F207E422F482B592F56955695569551
:10338000445B5240CE0162E00E94CE2ACE0163E24D
:1033900078E00E94E83B7E01EC2FFF2DDF010D90CD
:1033A0000020E9F7CD0101978E1B9F0BF8014081AA
:1033B00050E0445150408C0F9D1F60E00E94CE2A87
:1033C000CE0160E278E00E94E83BEC2FFF2DDF01A8
:1033D0000D900020E9F7CD0101978E1B9F0BF8019E
:1033E00041812281522F577040575E4F8C0F9D1F95
:1033F00061E00E94CE2ADF91CF911F910F91FF9043
:10340000EF9008952F923F924F925F926F927F922A
:103410008F929F92BF92CF92DF92EF92FF920F9383
:103420001F93DF93CF93CDB7DEB766970FB6F894AF
:10343000DEBF0FBECDBF0E94E529482E55240E9455
:10344000152AFC0180819181A281B3810097A10599
:10345000B10551F480E062E00E94AE2E87E591E074
:1034600060E00E94962E48C10E944A2A00E010E0C7
:103470006E010894C11CD11C282E3324B02EB394A5
:1034800080E06B2D0E94AE2E80913F027201E81AFF
:10349000F108E01AF10AF7FE04C00E94482AE80E7B
:1034A000F11C8E2D0E94152AFC01608071808280A3
:1034B0009380611471048104910409F4E0C0909137
:1034C0003F0280913C029801290F311D90E028179E
:1034D000390711F46FE701C060E081E00E94802DA0
:1034E000C7010196B6014AE050E00E941B3C909152
:1034F0003F0280913C029801290F311D90E061E06C
:103500002817390709F060E0C6010E94962EF601DF
:1035100001900020E9F77F010894E108F108EC1818
:1035200090913F0280913C029801290F311D90E05B
:103530002817390711F46FE501C060E281E00E94AD
:10354000802D90913F0280913C029801290F311DFE
:1035500090E02817390711F46FE701C060E081E0BF
:103560000E94802D90913F0280913C029801290F8A
:10357000311D90E02817390711F46FE701C060E0B2
:1035800081E00E94802DC601B401A3010E94381978
:1035900090913F0280913C029801290F311D90E0EB
:1035A00061E02817390709F060E0C6010E94962EF5
:1035B000F60101900020E9F73197EC19FD09FF248D
:1035C0000894E11CF11CEE0EFF1EEE0CFF1CEE0C2D
:1035D000FF1C14C090913F0280913C029801290F7A
:1035E000311D90E02817390711F46FE701C060E042
:1035F00081E00E94802D0894E11CF11CF0E8EF1698
:10360000F10444F30115110591F480913F028823E0
:1036100081F180E56B2D0E94AE2E90913F0280914A
:103620003C0261E0981360E081E091E020C003304B
:103630001105F9F480913F0290E0049682159305FC
:10364000C1F080913C028F3FA1F080E56B2D0E947C
:10365000AE2E80913F0220913C0290E0039630E034
:1036600061E08217930709F060E083E091E00E9437
:10367000962E0F5F1F4F0430110509F0FFCE809189
:103680003C02481A510857FE04C00E94482A480EBE
:10369000511C842D0E94152A8C0180E065E00E9457
:1036A000AE2E81E061E00E94802DB8016C5F7F4FFB
:1036B0008E010F5F1F4FC8010E94A519C80160E06D
:1036C0000E94962EF80101900020E9F77F010894EE
:1036D000E108F108E01AF10AEE0CFF1CEE0CFF1CE9
:1036E00004C081E061E00E94802D0894E11CF11C7F
:1036F000F0E8EF16F104ACF366960FB6F894DEBF6F
:103700000FBECDBFCF91DF911F910F91FF90EF9032
:10371000DF90CF90BF909F908F907F906F905F9041
:103720004F903F902F9008951F93182F0E944A2A80
:1037300090913C02910F90933C0290913C0298171B
:1037400019F410923C0207C090913C029F3F19F47B
:10375000815080933C0290913C0280913F029817E7
:1037600018F480913C020DC020913C0280913F02F0
:1037700030E090E00396821793072CF480913C028E
:10378000835080933F021F91089581E00E94492D4C
:1037900010923B0281E0809335020895AF92BF9270
:1037A000CF92DF92EF92FF920F931F93DF93CF930D
:1037B000CDB7DEB76D970FB6F894DEBF0FBECDBFA5
:1037C00080914302882369F180E060E00E94AE2E80
:1037D00000E010E0F801E859FE4F649181E00E949A
:1037E000802D0F5F1F4F23E00030120799F780E014
:1037F00066E00E94AE2E8E01085F1F4FC8016CE08C
:1038000078E00E94F33BC80160E00E94962E80E0C1
:1038100067E00E94AE2EC8016CEF77E00E94F33B98
:103820009FC180913902882309F079C080913B02C1
:10383000882309F071C000E010E058E0E52EF12C7B
:10384000EC0EFD1EF801EC52FD4F6081C7010E9495
:10385000D3151D8EA02E80E0602F0E94AE2ECC24AA
:10386000DD2481E060E00E94802D0894C11CD11C01
:1038700080E8C816D104A9F7F70101900020E9F704
:103880003197EE198E2F880F8E0F8195815C6A2DEE
:103890000E94AE2EC70160E00E94962E0F5F1F4F60
:1038A0000230110579F602E010E048E0E42EF12C38
:1038B000EC0EFD1EF801EC52FD4F6081C7010E9425
:1038C000D3151D8EA02E80E0602F0E94AE2ECC243A
:1038D000DD2481E060E00E94802D0894C11CD11C91
:1038E00090E8C916D104A9F7F70101900020E9F783
:1038F0003197EE198E2F880F8E0F8195815C6A2D7E
:103900000E94AE2EC70160E00E94962E0F5F1F4FEF
:103910000630110579F64FC685E691E047C68091DD
:1039200039028A3009F040C02091BD02243029F4C8
:10393000CE01089667EF77E009C0CE0108962630E1
:1039400019F46EEE77E002C065EE77E00E94F33B7B
:103950008E01085F1F4FC8016EED77E00E94E83BC3
:10396000D8010D900020E9F7CD01E0913A02F0E096
:10397000EE0FFF1FE05EFD4F608171817695762F1F
:1039800066277795679501970E94110C80913B02FD
:1039900061E0811160E0C8010E941E2F80913B020E
:1039A000813009F008C605C680913902883009F0D7
:1039B000DCC080913B0261E0811160E087E791E02B
:1039C0000E941E2F80913B02882309F0F2C561E01E
:1039D0000E94AE2E8EE791E060E00E94962E8AED66
:1039E00092E060E00E94962E0E943D065B016C0111
:1039F00085E090E0A0E0B0E0A80EB91ECA1EDB1E74
:103A000008E0E02EF12CEC0EFD1EC70165ED77E01D
:103A10000E94F33BD7010D900020E9F78D01015082
:103A200010400E191F09C601B5012AE030E040E040
:103A300050E00E94A33BCA01B9010E94DB3820E09C
:103A400030E048EC52E40E9440380E0D1F1D41E06A
:103A500022E00E94BE3BC70163ED77E00E94E83B95
:103A600080E062E00E94AE2EC70160E00E94962EC8
:103A700080E063E00E94AE2EC70169EC77E00E940F
:103A8000F33B80910C07F70101900020E9F7BF019B
:103A90006150704090E04AE050E00E941B3CC7013A
:103AA00060E00E94962E80E064E00E94AE2EC70186
:103AB00062EC77E00E94F33B80912902882321F099
:103AC000C7016FEB77E003C0C7016BEB77E00E94A3
:103AD000E83B8E01085F1F4FC80160E00E94962EF0
:103AE0006091B0024091AF02C8010E94EB0A80E0F1
:103AF00065E00E94AE2EC80160E00E94962EC801CB
:103B000069EB77E00E94F33B8091B202D8010D90FF
:103B10000020E9F7BD0190E0615070408053984F5C
:103B20004AE050E00E941B3CC80160E00E94962ED3
:103B30006091B7024091B8022091B102C8010E9481
:103B4000880BF80101900020E9F73197E01BF10B99
:103B50008AEFE89F802D1124805865E00E94AE2EE8
:103B6000C80160E00E94962E26C5809139028730F8
:103B700009F068C080913B0261E0811160E087E854
:103B800091E00E941E2F80913B02882309F04DC0D6
:103B90000E94E529C82E0E94152A7C01FC01208183
:103BA000318142815381211531054105510539F497
:103BB00080E062E00E94AE2E81E991E0D2CF8E01DA
:103BC000085F1F4FC8016FEA77E00E94F33BD801FE
:103BD0000D900020E9F7BD018C2D90E06150704000
:103BE00001964AE050E00E941B3C80E062E00E94A7
:103BF000AE2EC80160E00E94962EF70141915191CE
:103C0000619171917F01C8010E94381980E063E0E1
:103C10000E94AE2EC80160E00E94962EC801B70136
:103C20000E94A51980E064E099CF80913B02813029
:103C300009F4BFC480913B02823009F0BCC40E94E9
:103C4000021AB9C480913902843041F480913A0259
:103C5000409141022091400260E017C080913902FA
:103C6000863041F480913A02409141022091400215
:103C700061E00BC080913902823051F480913A02A8
:103C8000409141022091400262E00E948A3093C438
:103C9000809139028B3009F055C181EA91E060E0F2
:103CA0000E941E2F80E162E00E94AE2E18E0E12EFD
:103CB000F12CEC0EFD1EC7016DEA77E00E94F33B8C
:103CC0004091C1028E010F5F1F4FC80161E00E9449
:103CD000EB0A1C82C701B8010E94093CC7016BEACC
:103CE00077E00E94E83B80913C0261E0811160E056
:103CF000C7010E94962E8E01085F1F4FC80169EA16
:103D000077E00E94F33B8091D2028A3028F4C80108
:103D100067EA77E00E94E83B8091D2028E01085F5B
:103D20001F4FD8010D900020E9F7BD016150704090
:103D300090E04AE050E00E941B3CC80165EA77E051
:103D40000E94E83B80913C0261E0813009F060E034
:103D5000C8010E94962E8E01085F1F4FC80163EABA
:103D600077E00E94F33B8091C002F80101900020AF
:103D7000E9F7BF0190E0615070408053984F4AE0EE
:103D800050E00E941B3CC80161EA77E00E94E83BDA
:103D900080913C0261E0823009F060E0C8010E943D
:103DA000962E88E064E00E94AE2E8091D302882394
:103DB00059F08091D3028C3039F08091D3026CE0BD
:103DC0000E944E3BE92E02C0BCE0EB2E8E01085F44
:103DD0001F4FC8016FE977E00E94F33BFE2DFA30D8
:103DE00028F4C8016DE977E00E94E83B8E01085F86
:103DF0001F4FD8010D900020E9F7BD0161507040C0
:103E00008E2D90E04AE050E00E941B3CC8016BE917
:103E100077E00E94E83B80913C0261E0833009F04A
:103E200060E0C8010E94962E8FEA91E060E00E9457
:103E3000962E8E01085F1F4FC80169E977E00E9446
:103E4000F33B8091C9028A3028F4C80167E977E022
:103E50000E94E83B8091C9028E01085F1F4FF80164
:103E600001900020E9F7BF016150704090E04AE006
:103E700050E00E941B3CC80165E977E00E94E83BE6
:103E800080913C0261E0843009F060E0C8010E944A
:103E9000962E8FEA91E060E00E94962E8E01085FD8
:103EA0001F4FC80163E977E00E94F33B8091C30292
:103EB0008A3028F4C80161E977E00E94E83B8091EC
:103EC000C3028E01085F1F4FD8010D900020E9F753
:103ED000BD016150704090E04AE050E00E941B3C00
:103EE000C8016FE877E00E94E83B80913C0261E006
:103EF000853009F060E0C8010E94962E8E01085FAF
:103F00001F4FC8016DE877E00E94F33B8091D30218
:103F10008C3020F4C8016AE877E003C0C80167E884
:103F200077E00E94E83B8E01085F1F4FC80165E8FB
:103F300077E00E94E83B80913C0261E0863009F026
:103F40006BC16BC1809139028C3009F0C6C0809181
:103F50003C02E091BD02F0E0EE0FFF1FE351FE4F87
:103F600090E0880F991F0190F081E02DE80FF91F74
:103F7000259134918E01085F1F4FC801B9010E943D
:103F8000F33BC80160E00E941E2F2091BE023091D9
:103F9000BF0221153105D1F0C901F90101900020BE
:103FA000E9F731978E1B9F0B880F991F880F991F78
:103FB0008C5A9F4F9695879562E00E94AE2E809115
:103FC000BE029091BF0260E00E94962E6091C502F1
:103FD0007091C602AA24A3942AE030E005C0A394FD
:103FE000CB01B9010E946E3B6A307105C4F782E1D2
:103FF00090E08A19910962E070E00E946E3B862F82
:10400000880F880F2091BE023091BF022115310523
:1040100011F064E001C063E00E94AE2E2091CC025A
:104020003091CD02CE01089637FF03C063E877E0F8
:1040300002C061E877E00E94F33BE090CC02F09090
:10404000CD02F7FE04C0F094E194F108F3940AE085
:1040500010E048E0C42ED12CCC0EDD1E13C0E016BB
:10406000F1062CF4C6016FE777E00E94E83BC80137
:10407000880F991F23E0000F111F2A95E1F7080F01
:10408000191FAA94BA2DB23050F78E01085F1F4F46
:10409000F80101900020E9F7BF0161507040C701AD
:1040A0004AE050E00E941B3CC8016DE777E00E94A7
:1040B000E83BC80161E00E94962E8091D002909169
:1040C000D102DC012C91222309F475C261E00E9427
:1040D000962E81EB91E061E045CD809139028D30E3
:1040E00009F09DC080913C02E091BD02F0E0EE0F2E
:1040F000FF1FE351FE4F90E0880F991F0190F08160
:10410000E02DE80FF91F259134918E01085F1F4FB4
:10411000C801B9010E94F33BC80160E00E941E2F54
:10412000E091BB02F091BC0280818823C9F0CF01ED
:1041300001900020E9F731978E1B9F0B880F991F84
:10414000880F991F8C5A9F4F9695879562E00E9421
:10415000AE2E8091BB029091BC0260E00E94962E30
:10416000E091B902F091BA02DF010D900020E9F769
:1041700011978E2F8A1B880F880F845EA091BB0237
:10418000B091BC029C91992311F064E001C063E0FE
:104190000E94AE2E8E01085F1F4FC8016BE777E0CB
:1041A0000E94F33B6091B9027091BA02C8010E946B
:1041B000093CC80169E777E00E94E83B80913E0234
:1041C00061E0811160E0C8010E94962EE091BB027F
:1041D000F091BC028081882311F064E001C063E0AB
:1041E0008CE20E94AE2E8E01085F1F4FC80167E768
:1041F00077E00E94F33B6091CA027091CB02C80144
:104200000E94093CC80165E777E00E94E83B809185
:104210003E0261E0813009F060E0C801A3CC8091EA
:104220003902813009F064C080913B0261E0811164
:1042300060E083EB91E00E941E2F80913B02882377
:1042400009F0B7C18E01085F1F4FC80162E00E94EC
:10425000D31580E061E00E94AE2EC80160E00E94AC
:10426000962EC80163E00E94D31580E062E00E94B0
:10427000AE2EC80160E00E94962E8091CE029091F1
:10428000CF02BFE78F3F9B0709F180E064E00E9407
:10429000AE2EC80168E677E00E94F33B8091CE0223
:1042A0009091CF02F80101900020E9F7BF01615021
:1042B00070404AE050E00E941B3CC80163E677E092
:1042C0000E94E83BC80160E00E94962E8091CE02D9
:1042D0009091CF02FFE78F3F9F0709F46CC18E01D9
:1042E000085F1F4FC80164E00E94D31580E035CC01
:1042F00080913902833009F081C080913B0261E0F6
:10430000811160E08CEB91E00E941E2F80913B02B6
:10431000882309F04EC161E00E94AE2E8E01085F35
:104320001F4FC80161E00E94D315C80160E00E94E0
:10433000962E80E062E00E94AE2E88EC91E060E074
:104340000E94962E0E94B1146B017C016F3F2FEFEB
:1043500072072FEF82072FE7920731F4C8016FE54C
:1043600077E00E94F33B27C097FD06C0C8016DE5CA
:1043700077E00E94F33B01C0188658E0A52EB12CCF
:10438000AC0EBD1ED5010D900020E9F78D01015046
:1043900010400A191B09C701B6010E94DB3820E052
:1043A00030E040E251E40E9440380A0D1B1D41E01C
:1043B00021E00E94BE3BCE01089660E00E94962E4E
:1043C0008FEC91E060E00E94962E80E063E00E9416
:1043D000AE2E00E010E081E060E00E94802D0F5FD3
:1043E0001F4F00381105B9F780E063E00E94AE2E40
:1043F0008E01085F1F4FC80169E0B6C08091390285
:10440000853009F0B4C080913B0261E0811160E029
:1044100086ED91E00E941E2F80913B02882309F0D7
:10442000C8C061E00E94AE2E8E01085F1F4FC80118
:1044300065E00E94D315C80160E00E94962E80E0DE
:1044400062E00E94AE2E0E94FE146F3FBFEF7B071A
:10445000BFEF8B07BFE79B0731F4C80168E577E042
:104460000E94F33B35C029E83BE040E050E00E9469
:104470002F3B20EA36E841E050E00E94A33B59017F
:104480006A0157FD06C0C80166E577E00E94F33B6C
:1044900001C0188648E0E42EF12CEC0EFD1EF70159
:1044A00001900020E9F78F01015010400E191F09FB
:1044B000C601B5010E94DB3820E030E048EC52E450
:1044C0000E9440380E0D1F1D41E022E00E94BE3BBD
:1044D000CE01089660E00E94962E8FED91E060E09C
:1044E0000E94962E80E063E00E94AE2E00E010E075
:1044F00081E060E00E94802D0F5F1F4F00381105A2
:10450000B9F780E063E00E94AE2E8E01085F1F4F76
:10451000C8016AE00E94D315C80160E00E94962E8F
:1045200080E064E00E94AE2EC80166E00E94D315D0
:10453000C80160E00E94962E80E065E00E94AE2EE9
:1045400000E010E081E060E00E94802D0F5F1F4FCF
:1045500000381105B9F780E065E00E94AE2E8E01AB
:10456000085F1F4FC8016BE00E94D315F9CA809104
:104570003902893001F580913D02E091BD02F0E001
:10458000EE0FFF1FE351FE4F90E0880F991F01903F
:10459000F081E02DE80FF91F259134918E01085F1D
:1045A0001F4FC801B9010E94F33BC80160E00E949F
:1045B0001E2F0E94CA0D6D960FB6F894DEBF0FBE77
:1045C000CDBFCF91DF911F910F91FF90EF90DF90C2
:1045D000CF90BF90AF9008958F929F92AF92BF926D
:1045E000CF92DF92EF92FF920F931F93DF93CF93BF
:1045F000CDB7DEB765970FB6F894DEBF0FBECDBF5F
:1046000085B1876085B90E94EA2E0E94102F80E054
:104610000E94132F8FE39CE90197F1F700C000007F
:104620000E942F0D80E00E94612A0E94ED2C0E94C2
:10463000422B0E94D4130E946C0AAFECB7E0119792
:10464000F1F700C000000E946C0A7894CC248E011F
:104650000F5F1F4F0E94D30680913402882309F414
:104660003FC080E061E00E94AE2EC80166E479E0C0
:104670000E94F33B80913402F80101900020E9F799
:10468000BF016150704090E04AE050E00E941B3C46
:10469000C80160E00E94962E80E062E00E94AE2E8B
:1046A000C8016FE379E00E94F33BD8010D90002030
:1046B000E9F7BD01615070408C2D90E04AE050E078
:1046C0000E941B3CC80160E00E94962E8FEF93ED84
:1046D000A0E381509040A040E1F700C00000C394E7
:1046E00080913402882309F0B5CF8091B6008062B2
:1046F0008093B6008091B6008F7B8093B6001092B5
:10470000B00083E08093B1008091B60090E08F709C
:1047100090700097C9F7AFE1BEE41197F1F700C0C0
:10472000000081E087BB8093700080916B00876000
:1047300080936B0080916B00806180936B0080910F
:104740006800816080936800809164008F6A809324
:10475000640001E714E0F80184918093DA02319655
:10476000E491E093DB02C80109970E94A70A6AE07E
:104770000E944E3B805D8093DC02905D9093DD0251
:1047800005501040F8010491003221F480E3809339
:10479000DE0202C00093DE02EDE6F4E0E491E09375
:1047A000DF0280E090E026E0823051F0FC01EC581E
:1047B000FB4FE491A22FB0E0A652BD4FEC932F5FC8
:1047C00001968530910581F7E22FF0E0E652FD4F2A
:1047D000108281E08093EB018824839480913802D9
:1047E000882359F0109238020E94EA2E0E94102F5E
:1047F00080E00E94132F8092EC0180913602882382
:1048000059F01092360280E060E00E94AE2E0E94C5
:10481000102F81E00E94612A8091EB01882329F406
:1048200080913702882309F467C0809164008F77F4
:10483000809364000E943A070E94C0075C010E94B6
:104840005B070E941C086B017C01809164008068FA
:10485000809364008091EB01882329F0C501B701A2
:10486000A6010E94F62880913702882309F440C0EF
:104870009FB6F8946091B20270E080E090E02DE085
:1048800030E040E050E00E942F3B2091AF02620FE9
:10489000711D811D911DE5E0660F771F881F991F0F
:1048A000EA95D1F72091B002620F711D811D911D13
:1048B00028E130E040E050E00E942F3B2091B70219
:1048C000620F711D811D911D2CE330E040E050E02E
:1048D0000E942F3B8B019C018091B8029FBE080F64
:1048E000111D211D311DC501B701A6010E947B29A3
:1048F0001092EB011092370280913502882321F04B
:10490000109235020E94102F8091EC018823A1F0B3
:104910001092EC010E94CE1B0FC0809148028823A8
:1049200059F483B7817F866083BF83B7816083BF7B
:10493000889583B78E7F83BF8091EB01882309F030
:104940004DCF8091EC01882309F048CF8091370248
:10495000882319F343CF1F93182F80914002882397
:10496000B1F080914102810F809341028091410218
:10497000813F20F48091410287FF04C08091410271
:10498000805802C080914102809341029BC0809177
:104990003902893040F080913902893021F08091CC
:1049A00039028A3041F480913B02813021F4812F19
:1049B0000E948F1387C080913902893008F063C04C
:1049C00080913B02882309F05EC00E94492D8091AE
:1049D0003902843041F080913902863021F0809193
:1049E00039028230E1F480913A02810F80933A02D9
:1049F00080913A02833031F410923A028091390268
:104A00008F5F0AC080913A028F3F11F582E0809358
:104A10003A028091390281508093390219C0809105
:104A20003902810F809339021F3F81F4809139024E
:104A3000843041F080913902863021F08091390232
:104A4000823021F482E080933A0202C010923A024E
:104A500080913902813F20F080913902875F0AC03E
:104A600080913902893020F080913902895002C04A
:104A700080913902809339028FE78093410281E06F
:104A8000809335021FC0809139028B3021F4812F31
:104A90000E942F0F17C0809139028C3021F4812F92
:104AA0000E9414110FC0809139028D3021F4812FA2
:104AB0000E94761107C080913902873019F4812F46
:104AC0000E94941B1F9108951F9380913902863094
:104AD00041F080913902843021F080913902823096
:104AE000B1F480914002882361F481E00E94492D55
:104AF000809139028093BD028AE08093390281E07F
:104B00001FC082E00E94492D109240021FC0809178
:104B10003902893018F580913B028823F9F4E0913D
:104B20003902F0E0EE0FFF1FE351FE4F80819181CB
:104B3000009781F081E00E94492D80913B028F5FB8
:104B400080933B0210923F0210923C0281E08093DE
:104B5000350258C083E00E94492D54C0809139022B
:104B6000893040F080913902893021F080913902FA
:104B70008A3069F510913B02113049F580913C0271
:104B80008823F9F482E00E94492D80913B028150F4
:104B900080933B0280913902893051F48091BD02AB
:104BA0008093390280913D0280933C0210933B0236
:104BB000809139028A3051F68091BD02809339028A
:104BC000C5CF81E00E94492D0E947D11BFCF809109
:104BD00039028B3019F40E94FF0E14C08091390203
:104BE0008C3019F40E9439100DC0809139028D303B
:104BF00019F40E94EF1306C080913902873011F436
:104C00000E94C51B1F9108951F920F920FB60F921D
:104C10001124EF92FF920F931F932F933F934F9383
:104C20005F936F937F938F939F93AF93BF93EF9314
:104C3000FF930E943E0D8091B3029091B402A09127
:104C4000B502B091B60283709070A070B0700097FA
:104C5000A105B105E1F480914202882359F48091C5
:104C60003902883039F480913B02882319F481E0BD
:104C70008093EC018091B102882349F481E0809314
:104C8000EB0190914202992311F48093EC01809101
:104C90004202882309F070C08091B3029091B4025F
:104CA000A091B502B091B602E090B200FF2400E0FE
:104CB00010E0BA2FA92F982F8827E82AF92A0A2B63
:104CC0001B2B8091440290914502A0914602B09125
:104CD0004702E81AF90A0A0B1B0B8091430288234A
:104CE000A9F5189B02C01A9931C081E7E81687E13F
:104CF000F80680E0080780E0180730F0189902C035
:104D000088E21FC088ED1DC089EBE8168BE0F8062D
:104D100080E0080780E0180730F0189902C08CE0A6
:104D200010C084EF0EC085EFE81681E0F80680E041
:104D3000080780E0180750F0189902C084E001C00D
:104D40008CEF0E94AB2481E08093EC018091C20241
:104D500090E0A0E0B0E02AE0880F991FAA1FBB1FD7
:104D60002A95D1F78E159F05A007B10728F481E099
:104D7000809342020E94132F1092B0008091B600DF
:104D800081FDFCCFFF91EF91BF91AF919F918F91EA
:104D90007F916F915F914F913F912F911F910F9153
:104DA000FF90EF900F900FBE0F901F9018951F92DD
:104DB0000F920FB60F921124EF92FF920F931F9351
:104DC0002F933F934F935F936F937F938F939F9313
:104DD000AF93BF93EF93FF931C9903C00E949E2C47
:104DE000BBC080914202882371F1189B04C01A9BBA
:104DF00002C0199928C02091B3023091B4024091A9
:104E0000B5025091B6028091B20090E0A0E0B0E00F
:104E1000542F432F322F2227822B932BA42BB52BD9
:104E20008093440290934502A0934602B0934702B8
:104E30001092420280E00E94132F81E0809335029D
:104E40008093EC011DC0E090B302F090B402009199
:104E5000B5021091B6028091B200209144023091C7
:104E60004502409146025091470290914302913091
:104E700051F4189971C01A996FC0199B6DC082E0E6
:104E80008093430269C090E0A0E0B0E0102F0F2DA6
:104E9000FE2CEE248E299F29A02BB12B821B930B75
:104EA000A40BB50B20914302223091F4189B54C0FF
:104EB0001A9B52C0199B50C08B3F9105A105B105AB
:104EC00008F44AC01092430281E08093350242C048
:104ED000189908C01A9906C0199904C081E08093F6
:104EE00038023AC0189B02C01A990DC08B3F910539
:104EF000A105B10540F0189902C081E001C08FEF13
:104F00000E94AB2409C0199927C08B3F9105A105C8
:104F1000B10510F10E9464252091B3023091B402D2
:104F20004091B5025091B6028091B20090E0A0E0AD
:104F3000B0E0542F432F322F2227822B932BA42B08
:104F4000B52B8093440290934502A0934602B09300
:104F5000470281E08093EC01FF91EF91BF91AF9107
:104F60009F918F917F916F915F914F913F912F9181
:104F70001F910F91FF90EF900F900FBE0F901F9019
:104F80001895282F30E0225030403695322F2227B6
:104F900037952795260F311D220F331F220F331F00
:104FA000205F3F4FC9010895282F30E0823028F458
:104FB0002350394FF90180810895C901880F991F45
:104FC000880F991F05970E94703C0895823080F4E5
:104FD000282F30E03695322F222737952795260F38
:104FE000311D220F331F220F331F27503D4F0EC09C
:104FF0000E94C1270E94783C6093F9067093FA06DC
:105000008093FB069093FC0629EF36E0C9010895D2
:105010006F927F928F929F92AF92BF92CF92DF92C8
:10502000EF92FF920F931F93CF93DF93EC017901DF
:105030008A017093EA026093E9022093E5023093BB
:10504000E6024093E7025093E802CB01E3E0880FC9
:10505000991FEA95E1F7860F971F65E070E00E94BF
:105060006E3B605C7E4F882777FD8095982F6C396A
:105070002FEF72072FEF82072FEF920724F46CE9CE
:105080007FEF8FEF9FEF6A597F4F8F4F9F4F25E044
:1050900030E040E050E00E94A33BA22EB32EC42E8D
:1050A000D52E6FEFA616B104C104D10431F02CF057
:1050B0007FEFA72EB12CC12CD12C80E2E8168EE414
:1050C000F80680E0080780E018071CF0C801B70167
:1050D00004C060E27EE480E090E067507E4480405F
:1050E000904022E330E040E050E00E94A33B622E7B
:1050F000932E842E752EC801B7010E94DB380E94C2
:10510000610928E439EF41E550E40E946739262F10
:10511000372F482F592F2093EB023093EC02409306
:10512000ED025093EE0220E030E040E05FE30E94A9
:10513000DC370E94A838262F372F482F592F2839BF
:105140006AEF36076FEF46076FEF560724F428E93A
:105150003AEF4FEF5FEF27593A4F4F4F5F4F55955B
:10516000479537952795A882862D992DA82DB72D7F
:10517000803068E0960760E0A60760E0B60724F09C
:105180008FEF97E0A0E0B0E0898397708A81887FF5
:10519000892B8A83203080E2380780E0480780E04E
:1051A000580724F02FEF3FE140E050E0922F990F95
:1051B000990F990F8A818770892B8A83832F880F93
:1051C000880F880F229526952770282B2B83DF9137
:1051D000CF911F910F91FF90EF90DF90CF90BF90F4
:1051E000AF909F908F907F906F900895BF92CF92D5
:1051F000DF92EF92FF920F931F93DF93CF9300D034
:1052000000D000D0CDB7DEB7FC019A01AB01CE01D2
:105210000196BF010E940828B0E2EB2EB2E0FB2EFF
:105220000DEF16E0CC24DD2420E03CE3222391F0B6
:105230008091B7024091B802839FC0011124840F6E
:10524000911DF701608171810E945A3B0097A9F579
:105250002230C9F0F8014081F601E40FF11DEE0F94
:10526000FF1FEE0FFF1FE750FD4F89819A81AB8131
:10527000BC8180839183A283B383842F8F5F8F77D8
:10528000F80180831AC083E090E02D833E830E9462
:10529000703CB82E82E06B2D0E94C12749815A8153
:1052A0006B817C810E94963C6B2D6F5F6F7783E0F2
:1052B00090E00E94843C3E812D812F5F82E090E04F
:1052C000E80EF91E0F5F1F4FE0E8F0E0CE0EDF1E84
:1052D000233009F0ABCF26960FB6F894DEBF0FBE91
:1052E000CDBFCF91DF911F910F91FF90EF90DF9095
:1052F000CF90BF9008954F925F926F927F928F925E
:105300009F92AF92BF92CF92DF92EF92FF920F9354
:105310001F93DF93CF9300D000D0CDB7DEB7FC0151
:105320006A017B0128013901CE010196BF01A70165
:1053300096010E94082890E1E92E92E0F92E00E003
:1053400010E0AA24AA94BA2C650188249924C701E4
:105350000E94783C6A157B058C059D0518F45B015D
:105360006C0148010F5F1F4F88E090E0E80EF91EC6
:105370000E33110561F784010E5B1F4F83E0000FB0
:10538000111F8A95E1F7C801B301A2010E94963C62
:1053900049815A816B817C81C80104960E94963CA8
:1053A0000F900F900F900F90CF91DF911F910F9161
:1053B000FF90EF90DF90CF90BF90AF909F908F9035
:1053C0007F906F905F904F900895AF92BF92CF9271
:1053D000DF92EF92FF920F931F93CF93DF9300E141
:1053E00012E0C0E0D0E0CC24DD247601AA24BB2466
:1053F000C8010E94783C6C157D058E059F0518F04C
:105400006B017C015E012196085F1F4FCE33D105F1
:1054100079F78A2DDF91CF911F910F91FF90EF9037
:10542000DF90CF90BF90AF9008950F931F93DF93BD
:10543000CF9300D000D0CDB7DEB7082F10E00E5BC1
:105440001F4F23E0000F111F2A95E1F7C8010E94AA
:10545000783C6093F1027093F2028093F302909390
:10546000F402C80104960E94783C6093F5027093A0
:10547000F6028093F7029093F80281EF92E00F908A
:105480000F900F900F90CF91DF911F910F91089582
:105490008EE308951F93CF93DF93C0E1D2E010E035
:1054A000CE010E94783C2896611571058105910511
:1054B00019F01F5F1E33A1F7812FDF91CF911F914C
:1054C00008951F93CF93DF93182F1092F00210923C
:1054D000EF02ADEFB6E020E030E01D9280E0F90190
:1054E000E80FF11DEE0FFF1FEE0FFF1FE750FD4FFE
:1054F00010821182128213828F5F803881F72058C8
:105500003F4F81E02030380741F780E090E00E9473
:105510007E3C2EEB833B920741F4112331F483E070
:1055200092E060E00E94962E35C081E192E060E05A
:105530000E94962E80E090E043EB5EEB60E070E02E
:105540000E94963C84E090E040E050E0BA010E9466
:10555000963C10E082E0612F0E94C12740E050E0BD
:10556000BA010E94963C1F5F1038A1F7C0E1D2E05B
:10557000CE0140E050E0BA010E94963CCE01049674
:1055800040E050E0BA010E94963C289684E0C0308A
:10559000D80771F7DF91CF911F910895EF92FF9295
:1055A0000F931F93CF93DF93EC012FE74E3F5207EA
:1055B00014F0188240C0662381F4BA01882777FD71
:1055C0008095982F0E94DB3820E030E040E05FE3D8
:1055D0000E94673941E021E022C0613021F5BA0123
:1055E000882777FD8095982F29E83BE040E050E040
:1055F0000E942F3B20ED37E040E050E00E94A33BAB
:10560000B901882777FD8095982F0E94DB3820E02C
:1056100030E048EC52E40E94403841E022E08E0144
:105620000E94BE3B08C0CA01880F991FBE014AE014
:1056300050E00E941B3CCE01DF91CF911F910F9152
:10564000FF90EF900895EF92FF92CF93DF93EC01DC
:105650002FE74E3F520714F018820EC0662319F44C
:1056600069E579E007C0613019F466E579E002C0C8
:1056700063E579E00E94F33BCE01DF91CF91FF908B
:10568000EF9008952C9A08950E94DE2CE4E6F0E055
:105690008081877F80831092800089E080938100E1
:1056A000109289008FEC8093880082E086BB2B9A51
:1056B0000895E4E6F0E08081886080830895909109
:1056C000FF0698279093FF062B9A92E096BBB19B1A
:1056D000FECF92E096BBB19BFECF2B9892E096BB9B
:1056E000B19BFECF98E022E080FF02C02B9A01C060
:1056F0002B9826BBB19BFECF915011F08695F4CF2D
:105700002B9A82E086BBB19BFECF0895AF92BF92E9
:10571000CF92DF92EF92FF920F931F93DF93CF937D
:105720000F92CDB7DEB781E00E945F2B0E944A2A1C
:10573000C82E0E945F2B0E94E529A82EBB24089446
:10574000A11CB11CAC18B108B7FE04C00E94482AC5
:10575000A80EB11CDD2421C08A2D0E94152A082F15
:105760000894A11CB11C99830E94482A282F30E07C
:105770009981A216B30611F4AA24BB24192F88E03C
:10578000E82EF12CE00EF11EF80181918F010E94AC
:105790005F2B0E151F05C1F7D394DC14E8F20F90B0
:1057A000CF91DF911F910F91FF90EF90DF90CF90FD
:1057B000BF90AF900895BF92CF92DF92EF92FF9289
:1057C0000F931F93CF93DF9381E00E945F2B83E0C1
:1057D0000E945F2B80E80E945F2B8091B1020E94A3
:1057E0005F2B8091B8020E945F2B8091B7020E94CC
:1057F0005F2B8091B0020E945F2B8091AF020E94CC
:105800005F2B8091B2020E945F2BC0E2D2E0DD24C8
:105810008E0189810E945F2B2296F80180810E946F
:105820005F2B8D2D0E94D427C82EBB248D2D6C2D6F
:105830000E94E627C394FC2DF03809F4CC24082FED
:10584000192F94E0E92EF12CE00EF11EF801819160
:105850008F010E945F2B0E151F05C1F7B394FB2D1E
:10586000F03821F7D3942D2D233091F6DF91CF918D
:105870001F910F91FF90EF90DF90CF90BF90089510
:105880001F93CF93DF93182F8CE40E945F2B8FE43C
:105890000E945F2B87E40E945F2B1092FF06123359
:1058A00071F0133379F0113379F4CAEDD2E08991B4
:1058B0000E945F2B82E0C43ED807C9F705C00E9452
:1058C000DB2B02C00E94862B8091FF060E945F2B7B
:1058D000DF91CF911F91089580E090E022E008C011
:1058E000B19B06C026BB01963BE48030930711F1C3
:1058F0001C9BF6CF09C0B19B08C026BB01963BE4B8
:105900008030930711F418C022E01C99F4CF80E294
:105910008A95F1F7109285001092840098E080E05B
:1059200022E026BBB19BFECF86951C9980689150E2
:10593000C1F7089580E0089580E00895FF920F93E5
:105940001F93DF93CF9300D000D0CDB7DEB70E9476
:10595000442BDE011196E6E2F2E083E001900D9225
:105960008150E1F725E0F22E90E08E010F5F1F4F8E
:105970009C830E946C2C9C81F801E90FF11D208111
:10598000821751F49F5F933059F40E946C2C882346
:1059900049F00E94402C06C091E02981821390E0DA
:1059A000FA9431F70E94592B0F900F900F900F909F
:1059B000CF91DF911F910F91FF90089510924802AF
:1059C0008BB18E7B8BB914BC10926F0016BAE4E6D3
:1059D000F0E08081886280830895569A509A0E94F0
:1059E000DE2C089580910107882339F48091000707
:1059F000823018F1853019F520C08091010781307F
:105A000049F4809100078823A9F08230B1F08430F6
:105A1000B1F413C080910107823021F48091000716
:105A2000843059F080910107823021F48091000781
:105A3000853029F00E94DE2C089580E401C080E6C4
:105A4000909164009F7D9093640092E494BD93E0F4
:105A500095BD87BD16BC80916400877F80936400EC
:105A6000109280008DE08093810080910007845027
:105A7000823028F489E08093890080E603C0909307
:105A8000890080E28093880082E086BB80936F006B
:105A9000089590912902992349F08093000710926C
:105AA000010781E0809348020E94F22C08951F9222
:105AB0000F920FB60F9211242F933F934F935F9342
:105AC0006F937F938F939F93AF93BF93EF93FF93C6
:105AD000809101078F5F809301070E94F22CFF9154
