:100000000C941E060C943B060C943B060C9497260D
:100010000C943B060C943B060C943B060C943B065C
:100020000C943B060C94C4250C943B060C94702B4A
:100030000C943B060C943B060C943B060C943B063C
:100040000C943B060C943B060C943B060C943B062C
:100050000C943B060C943B060C943B060C943B061C
:100060000C94AF330C943B0607634236B79BD8A77A
:100070001A39685618AEBAAB558C1D3CB7CC5763CD
:10008000BD6DEDFD753EF6177231BF000000803F7B
:1000900008000000BE922449123EABAAAA2ABECD97
:1000A000CCCC4C3E00000080BEABAAAAAA3E000009
:1000B0000000BF000000803F000000000008417801
:1000C000D3BB4387D1133D190E3CC3BD4282AD2B38
:1000D0003E68EC8276BED98FE1A93E4C80EFFFBE30
:1000E00001C4FF7F3F00000000004A616E004665CA
:1000F00062004D617200417072004D6179004A7575
:100100006E004A756C0041756700536570004F635F
:1001100074004E6F760044656300EA00EE00F20062
:10012000F600FA00FE00020106010A010E011201AA
:100130001601200064006800346400326400323428
:10014000680032680039306D006D005000410030A9
:10015000003A0030003A0030005000410030003AD0
:100160000030002000203000FFFFFFFFFFFFFFFFF7
:10017000FFFF0F0F0F0F0F0F0F0FFFFFFFFEFCF81A
:10018000F0E0C0000000FFFFFFFFFFFFFFFFFEFCED
:10019000F8F0E0C08000000080C0E0F0F8FCFEFF56
:1001A000FFFFFFFFFFFF00000080C0E0F0F8FCFE53
:1001B000FFFFFF0F0F0F0F0F0F0F0FFFFFFFFEFCD3
:1001C000F8F0E0C080000000FFFFFFFFFFFFFFFF2F
:1001D000FFFF00000000000000000000000000FF22
:1001E000FFFFFFFFFFFFFFFFFFFFFFFFFFFFFFFF1F
:1001F000FFFF1E1E1E1E1E1E1E1EFFFFFFFFFFF71F
:10020000E3C180000000FFFFFFFFFFFFFFFFFFFFD4
:100210000F1F3F7FFFFFFEFFFF7F3F1F0FFFFFFF0F
:10022000FFFFFFFFFFFF000000FFFFFFFFFFFFFFDB
:10023000FFFFFF0000000000000000FFFFFFFFFFC6
:10024000FFFFFFFFFF000000FFFFFFFFFFFFFFFFBB
:10025000FFFF80C0E0F0F8FCFEFCF8F0E0C080FF9B
:10026000FFFFFFFFFFFFFFFFFFFFFFFFFFFFFFFF9E
:10027000FFFF8080808080808080FFFFFFFFFFFF86
:100280007F3F1F000000FFFFFFFFFFFFFFFFFFFF9B
:1002900000000000000103010000000000FFFFFF5C
:1002A000FFFFFFFFFFFF0000000F1F3F7FFFFFFF6B
:1002B000FFFFFF8080808080808080FFFFFFFFFF46
:1002C000FF7F3F1F0F000000FFFFFFFFFFFFFFFF4B
:1002D000FFFFFF7F3F1F0F0703070F1F3F7FFFFF3A
:1002E000FFFFFFFFFFFFFFFF87878787870707075E
:1002F000070787870707070707070707070301009F
:1003000000000000000087870707078787070707A7
:1003100000000000000000000000000000070707C8
:10032000070707070707000000000000000001039F
:100330000707070707078787070707070707030157
:100340000000808000000080870707078787070775
:100350000301000000000000000000000000000198
:100360000307070707070707FFFF1919FFE7000043
:10037000000CFDFD00000000FCFE8686FEFE000075
:10038000000000000000FFFF1E781EFFFF00FCFEC3
:1003900066667E7C00003C7E6666E6C600003C7EAB
:1003A0006666E6C60000000000000000FCFE0606CF
:1003B000FEFC000000001F1F000000000000000005
:1003C0000000FFFFE078E0FFFF00000CFDFD0000F3
:1003D0000000FEFE06061E1C0000FCFE66667E7C1B
:1003E00000003C7E6666E6C60707060607030000B7
:1003F0000006070706000000181919191F0F000052
:1004000000000000000007070000000707000307C6
:100410000606060600000606060607030000060696
:1004200006060703000000000000000003070606A0
:1004300007030000000000000000000000000000B2
:100440000000070701000107070000060707060074
:10045000000007070000000000000307060606066C
:1004600000000606060607034F637420313520326C
:100470003031310031373A30343A3134004578691F
:1004800074204D656E75004C696E652031204461A5
:100490007461004C696E6520322044617461004CC7
:1004A000696E6520332044617461004C696E65207B
:1004B000342044617461004C696E652035204461CC
:1004C0007461004C696E6520362044617461007D62
:1004D00004870493049F04AB04B704C304000043DF
:1004E000616C696272617465005365742044657360
:1004F00074696E6174696F6E00526573657420442F
:10050000657374696E6174696F6E007D04DF04E960
:100510000400004461746520616E642054696D6557
:1005200000536C6565702044656C617900536F758C
:100530006E64004C434420436F6E747261737400A8
:100540004C43442042696173004C43442054656D20
:100550007020436F656600526573746F7265204446
:10056000656661756C747300457261736520416CDA
:100570006C2044617461007D04130521052D053351
:10058000054005490557056805000054656D70650F
:1005900072617475726500416C746974756465008C
:1005A00052617465206F6620417363656E740054F8
:1005B000696D6520746F2044657374696E61746938
:1005C0006F6E0053746174696F6E2050726573733F
:1005D00075726500536561204C6576656C205072BC
:1005E0006573737572650054696D65206F6620448C
:1005F0006179004461746520616E642054696D65A1
:100600000054656D70657261747572652054726511
:100610006E64005072657373757265205472656EF6
:1006200064005765617468657220466F7265636126
:10063000737400456D707479007D048B059705A077
:1006400005AF05C305D405E705F30501061306222A
:1006500006330600005669657720536E6170736833
:100660006F74204C6F670054616B6520536E61702E
:1006700073686F74007D0455066706000045787046
:100680006C6F7265204772617068004472617769AF
:100690006E67205374796C6500437573746F6D20B9
:1006A000592D41786973204D696E00437573746FDD
:1006B0006D20592D41786973204D61780041757422
:1006C0006F20592D41786973204D696E0041757412
:1006D0006F20592D41786973204D6178007D047D2C
:1006E000068B069906AB060000536F6172696E6750
:1006F00000526973696E67204661737400526973B2
:10070000696E6700526973696E6720536C6F77007A
:100710005374656164790046616C6C696E6720533F
:100720006C6F770046616C6C696E670046616C6C3B
:10073000696E67204661737400506C756D6D6574E9
:10074000696E6700E906F106FD0604071007170742
:1007500024072C0739072B002D2D2D2D002B002DC4
:100760002D2D00206674200044657374696E6174D9
:10077000696F6E2000200020002000200020003043
:100780000020002D002000504D00414D0020002091
:100790000030002000200030002000200030002029
:1007A0000020002000200030002000200020005306
:1007B0006E617073686F74200020004F6666004F92
:1007C0006E00536F756E642000436F6E74726173B8
:1007D00074200056004261747465727920002050C4
:1007E0004153542000414C54495455444500505203
:1007F0004553535552450054454D5000202020206C
:100800002020746F20756E6C6F636B0020686F6CB6
:1008100064205052455620616E64204E4558540065
:100820004620006674200020002000556E696D701F
:100830006C656D656E746564002000200045727201
:100840002000436C6561722C204472790046616916
:100850007200556E6368616E676564005261696E0F
:100860000053746F726D7900566572792053746FFE
:10087000726D7900436C656172696E6700476F6FD6
:1008800064205765617468657200417070722E2033
:1008900053746F726D00506F6F722057656174688A
:1008A000657200556E6368616E67656400427269C7
:1008B00065662053686F77657200556E6176616971
:1008C0006C61626C6500466F7265636173742000D1
:1008D0005072657373757265200054656D702000E9
:1008E00030003A0030002D2D2D2D2D0054696D65FE
:1008F00020746F204465737420002066742F6D6926
:100900006E002D2D2D0044657363656E64696E67FE
:100910002000417363656E64696E67200020696E14
:1009200000536561204C6576205072732000206969
:100930006E0053746174696F6E20507273200052A0
:1009400065747279200053656E736F7220657272E0
:100950003A2000667400696E00274600000000001F
:100960000000005F00000007000700147F147F14E0
:10097000242A7F2A12231308646236495620500025
:1009800006050300001C2241000041221C002A1C15
:100990007F1C2A08083E08080080703000080808FC
:1009A0000808000060600020100804023E5149451C
:1009B0003E00427F400072494949462141494D333A
:1009C0001814127F1027454545393C4A49493141A1
:1009D000211109073649494936464949291E00006F
:1009E000140000103070301000081C3E7F141414E6
:1009F0001414007F3E1C0802015909063E415D594E
:100A00004E7C1211127C7F494949363E41414122B8
:100A10007F4141413E7F494949417F090909013EE2
:100A2000414151737F0808087F00417F4100204009
:100A3000413F017F081422417F404040407F021C1B
:100A4000027F7F0408107F3E4141413E7F09090932
:100A5000063E4151215E7F091929462649494932FE
:100A600003017F01033F4040403F1F2040201F3FC4
:100A70004038403F63140814630304780403615949
:100A8000494D43007F41414102040810200041418B
:100A9000417F04060706044040404040000605032D
:100AA0000020545478407F28444438384444442833
:100AB000384444287F385454541800087E090218DA
:100AC000A4A49C787F0804047800447D4000204062
:100AD000403D007F1028440000417F40007C0478A6
:100AE00004787C080404783844444438FC182424EE
:100AF0001818242418FC7C0804040848545454246E
:100B000004043F44243C4040207C1C2040201C3CEA
:100B10004030403C44281028444C9090907C4464E1
:100B2000544C4420504153542000414C5449545596
:100B300044450050524553535552450054454D507D
:100B40000000407A10F35A00A0724E18090010A558
:100B5000D4E80000E87648170000E40B54020000D7
:100B6000CA9A3B000000E1F505000080969800005D
:100B70000040420F000000A0860100000010270086
:100B8000000000E803000000006400000000000A0C
:100B900000000000000100000000002C76D888DC76
:100BA000674F0823DFC1DFAE59E1B1B796E5E3E453
:100BB00053C63AE651997696E8E6C28426EB898CCC
:100BC0009B62ED407C6FFCEFBC9C9F40F2BAA56F2E
:100BD000A5F490055A2AF75C936B6CF9676DC11BFD
:100BE000FCE0E40D47FEF520E6B500D0ED902E03C5
:100BF00000943577050080841E080000204E0A000E
:100C00000000C80C333333330F986E12831141EF59
:100C10008D2114893BE65516CFFEE6DB18D1844BB7
:100C2000381BF77C1D901DA4BBE424203284725E27
:100C3000228100C9F124ECA1E53D270011241FBE4B
:100C4000CFEFD8E0DEBFCDBF12E0A0E0B1E0E0E83A
:100C5000FAE702C005900D92A233B107D9F716E06A
:100C6000A2E3B2E001C01D92AE3FB107E1F70E94DE
:100C7000FE220C943E3D0C9400000F931F93809134
:100C800064008E7F8093640080917A0080688093F6
:100C90007A0086E480937C008FE99FE00197F1F76A
:100CA00000C0000080917A00806480937A00809177
:100CB0007A0086FDFCCF2091780030E040E050E0E3
:100CC00080917900782F60E0882777FD8095982FB4
:100CD000622B732B842B952B2CEB3CE040E050E0F7
:100CE0000E94453920917A002F7720937A00209135
:100CF00064002160209364002FEF33E040E050E077
:100D00000E94B939B901CA011F910F9108958091CC
:100D100064008E7F8093640080917A008068809365
:100D20007A0088EC80937C008FE99FE00197F1F7CF
:100D300000C0000080917A00806480937A008091E6
:100D40007A0086FDFCCF2091780030E040E050E052
:100D500080917900782F60E0882777FD8095982F23
:100D6000622B732B842B952B23E334E040E050E07F
:100D70000E9445399B01AC0180917A008F77809366
:100D80007A0080916400816080936400275E3C401B
:100D900042405040B901CA0108951F93182F87E7B8
:100DA0000E945E35812F0E9478350E94683587E762
:100DB00061E00E9451350E94D0358823E1F30E9402
:100DC000D6351F9108951F93182F87E70E945E352F
:100DD000812F0E9478350E9468358093320280917D
:100DE00032028823A1F487E762E00E9451350E9415
:100DF000D0358230E0F30E94D635182F0E94D635C8
:100E0000512F40E0282F30E0242B352B02C020E06A
:100E100030E0C9011F91089580E896EEA5ECB7E493
:100E200080939D0290939E02A0939F02B093A00294
:100E30000895109232023B9A43988FEC97E0019705
:100E4000F1F700C00000439A80E896EEA5ECB7E405
:100E500080939D0290939E02A0939F02B093A00264
:100E60000E9439358AEA0E94E30690938A028093B1
:100E700089028CEA0E94E306909392028093910289
:100E80008EEA0E94E3069093A2028093A10280EB77
:100E90000E94E306909396028093950282EB0E9453
:100EA000E3069093900280938F0284EB0E94E30606
:100EB00090938E0280938D0286EB0E94E3069093BE
:100EC0008C0280938B0288EB0E94E306909386024B
:100ED000809385028AEB0E94E306909388028093B8
:100EE00087028CEB0E94E30690939802809397020E
:100EF0008EEB0E94E30690939402809393020895F0
:100F000087E70E945E3584EF0E9478358EE20E946A
:100F100078350E94683580933202809132028823AE
:100F200061F48FE097E20197F1F700C0000086EFCF
:100F30000E94E306282F392F02C020E030E0C901CB
:100F40000895EF92FF920F931F9387E70E945E35FB
:100F500084EF0E94783584EF0E9478350E946835CE
:100F60008093320280913202882309F045C08FE1DC
:100F70009BEC0197F1F700C0000087E70E945E3507
:100F800086EF0E9478350E94683580933202809106
:100F90003202882389F587E763E00E9451350E9479
:100FA000D0358330E0F30E94D635182F0E94D63515
:100FB000E82E0E94D635212F30E040E050E0A90114
:100FC00033272227FF2400E010E0102F0F2DFE2CE6
:100FD000EE242E293F29402B512B90E0A0E0B0E0D9
:100FE000282B392B4A2B5B2B85E056954795379557
:100FF00027958A95D1F703C020E030E0A901B90117
:10100000CA011F910F91FF90EF900895EF92FF9208
:101010000F931F93BC0180E090E020918D023091EE
:101020008E0240E050E0621B730B840B950B209105
:101030008F023091900240E050E00E9445397B01E0
:101040008C01FFE015950795F794E794FA95D1F791
:101050006091970270919802882777FD8095982F6C
:10106000EBE0660F771F881F991FEA95D1F7209153
:10107000930230919402442737FD4095542F2E0D52
:101080003F1D401F511F0E94B9392E0D3F1D401FAB
:10109000511F2093990230939A0240939B025093E0
:1010A0009C02285F3F4F4F4F5F4F74E05595479527
:1010B000379527957A95D1F7C9011F910F91FF9028
:1010C000EF9008952F923F924F925F926F927F928E
:1010D0008F929F92AF92BF92CF92DF92EF92FF9248
:1010E0000F931F93DF93CF9300D000D0CDB7DEB71F
:1010F0001B012C01A0909902B0909A02C0909B0213
:10110000D0909C0280E690EFAFEFBFEFA80EB91E23
:10111000CA1EDB1EC601B501A60195010E94453914
:1011200069837A838B839C836091A1027091A20270
:10113000882777FD8095982F0E9445397B018C0187
:101140004DE015950795F794E7944A95D1F782E01D
:1011500090E0A0E0B0E0E80EF91E0A1F1B1F6981B5
:101160007A818B819C813CE09595879577956795F1
:101170003A95D1F720918B0230918C02442737FDAC
:101180004095542F0E944539BC01992777FD9095D1
:10119000892FE60EF71E081F191F82E01595079587
:1011A000F794E7948A95D1F780E090E8A0E0B0E06A
:1011B000E80EF91E0A1F1B1F20919502309196021E
:1011C00040E050E0C801B7010E9445393B014C01A5
:1011D000BFE09694879477946794BA95D1F760911D
:1011E000910270919202882777FD8095982FA60131
:1011F00095010E9445397B018C01ABE0159507955F
:10120000F794E794AA95D1F78091890290918A0288
:10121000AA2797FDA095BA2FF2E0880F991FAA1F61
:10122000BB1FFA95D1F7E80EF91E0A1F1B1F20916C
:10123000850230918602442737FD4095542F6981FD
:101240007A818B819C810E944539E7E1959587954C
:1012500077956795EA95D1F7E60EF71E081F191FD7
:10126000EE0CFF1C001F111F2E183F08400A510AE8
:10127000C201B1012AE638E140E050E00E94453960
:1012800097FD0BC0660F771F881F991FA40193015C
:101290000E94973979018A010AC0A40193010E9432
:1012A000973979018A01EE0CFF1C001F111F552789
:1012B00017FD5A95412F302F2F2DCA01B9010E94D9
:1012C00045392EED3BE040E050E00E9445395B019E
:1012D0006C01C801B70123E433EE4FEF5FEF0E94CA
:1012E00045399C01552737FD5095452F2153314FE6
:1012F0004F4F5F4F5601DD24B7FCD094CD2C2A0D03
:101300003B1D4C1D5D1DA4E05595479537952795D0
:10131000AA95D1F72E0D3F1D401F511FB901CA01DB
:101320000F900F900F900F90CF91DF911F910F9121
:10133000FF90EF90DF90CF90BF90AF909F908F90F5
:101340007F906F905F904F903F902F9008952091E5
:101350009D0230919E0240919F025091A0020E94F6
:10136000563621EB3CED42E45EE30E94E037562F17
:10137000472F382F292F60E070E080E89FE3DA01E3
:10138000F9012B2F3A2F4F2F5E2F0E94F13520E0CD
:101390003AE24DE257E40E947D370895EF92FF92C2
:1013A0000F931F937B018C01CA01B90120E03AE23F
:1013B0004DE257E40E9456369B01AC0160E070E0BC
:1013C00080E89FE30E94F13526EF38E248EA50E4D6
:1013D0000E94E037562F472F382F292FC801B70119
:1013E000DA01F9012B2F3A2F4F2F5E2F0E9456362C
:1013F0001F910F91FF90EF90089580919D02909121
:101400009E02A0919F02B091A00208959F92AF9278
:10141000BF92CF92DF92EF92FF920F931F93CF93E1
:10142000DF936C01C0E0D0E0FE01EE0FFF1FE65E2F
:10143000FE4FA590B49000E010E0F601E00FF11F20
:101440008491F801EA0DFB1D949090E00E94F6391A
:101450007C01892D90E00E94F639E816F90639F4EE
:101460000F5F1F4F0330110541F7219606C02196EB
:10147000CC30D105C9F6C0E0D0E0CE01DF91CF91EC
:101480001F910F91FF90EF90DF90CF90BF90AF90A2
:101490009F900895EF92FF921F93CF93DF93EC01FB
:1014A000162FE42FF0E0EE0FFF1FE85EFE4F2591B0
:1014B0003491CE01B9010E94093A1A3020F4CE01CC
:1014C00065E671E003C0CE0163E671E00E94FE397B
:1014D0007E01AC2FBF2DFD0101900020E9F731976F
:1014E000EA1BFB0BEC0FFD1F812F90E0BF014AE0D0
:1014F00050E00E94313ACE01DF91CF911F91FF90D1
:10150000EF900895CF92DF92EF92FF920F931F9387
:10151000DF93CF930F92CDB7DEB76C01162F042F58
:10152000FC011082662389F06C3079F0862F6CE024
:101530000E946439292F9A3048F4C60161E671E0AF
:1015400029830E94FE39298101C02CE0F601019017
:101550000020E9F73197EC19FD09EC0DFD1D822FF4
:1015600090E0BF014AE050E00E94313AC6016FE5C9
:1015700071E00E94FE390A3028F4C6016DE571E081
:101580000E94FE39F60101900020E9F73197EC192D
:10159000FD09EC0DFD1D802F90E0BF014AE050E0F9
:1015A0000E94313A1C3020F4C6016BE571E003C0A3
:1015B000C60169E571E00E94FE39C6010F90CF9126
:1015C000DF911F910F91FF90EF90DF90CF900895E2
:1015D000AF92BF92CF92DF92EF92FF920F931F9341
:1015E000DF93CF930F92CDB7DEB75C01162F042F98
:1015F000F22EDC011C92662389F06C3079F0862F84
:101600006CE00E946439292F9A3048F4C50167E5DF
:1016100071E029830E94FE39298101C02CE0D501A7
:101620000D900020E9F7BD01615070406A197B09F7
:101630006A0D7B1D822F90E04AE050E00E94313A13
:10164000C50165E571E00E94FE390A3028F4C50144
:1016500063E571E00E94FE39D5010D900020E9F7A5
:10166000BD01615070406A197B096A0D7B1D802F96
:1016700090E04AE050E00E94313AC50161E571E036
:101680000E94FE39BF2DBA3028F4C5016FE471E025
:101690000E94FE39F50101900020E9F73197EA191F
:1016A000FB09EA0DFB1D8F2D90E0BF014AE050E0E1
:1016B0000E94313A1C3020F4C5016DE471E003C092
:1016C000C5016BE471E00E94FE39C5010F90CF9116
:1016D000DF911F910F91FF90EF90DF90CF90BF901F
:1016E000AF9008950F931F938C016C33710550F4E4
:1016F000CB01B8014AE050E00E94313AC80169E4E8
:1017000071E047C06435710519F465E471E01DC0EE
:101710006038710519F462E471E017C085E0683E35
:10172000780721F4C8016EE371E00FC089E0683DDD
:10173000780721F4C8016BE371E007C083E1603BE7
:10174000780731F4C80168E371E00E94093A23C0C8
:1017500088E06137780778F4CB016CE370E00E9491
:101760007039CB01B8014AE050E00E94313AC8011B
:1017700066E371E00EC0CB0160EA75E00E9470394B
:10178000CB01B8014AE050E00E94313AC80164E35D
:1017900071E00E94FE39C8011F910F910895AF9228
:1017A000BF92CF92DF92EF92FF920F931F93DF933E
:1017B000CF93CDB7DEB760970FB6F894DEBF0FBEFC
:1017C000CDBFE82ED92E9B018FB7F894F090AC02D4
:1017D000C090AB02E091A4024091A302F091A60256
:1017E0008FBFCB016CE370E00E947039F81A8F2D27
:1017F0008C3318F0CA948CE3F80EC9016CE370E0E6
:101800000E9470399B01CB0168E170E00E94703941
:10181000C81A8C2D883118F0E15088E1C80EF37099
:1018200011F4FDE101C0FCE1EE2319F5415049F04E
:101830004230D1F04130D1F04330C1F04530B1F009
:1018400002C04CE013C0473089F0483079F04A308C
:1018500069F04C3059F0443059F0463049F0493085
:1018600039F04B3031F404C0EF2F03C0EFE101C079
:10187000EEE1C90168E170E00E9470399B012AC065
:1018800021503040E1508E2F81508F3118F141505E
:1018900049F04230D1F04130D1F04330C1F0453011
:1018A000B1F002C04CE013C0473089F0483079F005
:1018B0004A3069F04C3059F0443059F0463049F024
:1018C000493039F04B3031F404C0EF2F03C0EFE161
:1018D00001C0EEE12115310599F65E010894A11CC5
:1018E000B11CC5016E2F0E944A0A8E01085F1F4F6E
:1018F000C8016C2D4F2D0E94820A8E2D9D2DB501A1
:101900000E942A3A8E2D9D2D62E371E00E94FE39DD
:101910008E2D9D2DB8010E941F3A8E2D9D2D609613
:101920000FB6F894DEBF0FBECDBFCF91DF911F91F0
:101930000F91FF90EF90DF90CF90BF90AF90089500
:10194000FC019491903211F0905301C090E03196D7
:10195000E491E053990F892F880F880F890F8E0F1C
:101960000895CF93DF93C1E7D4E0CE010E94A00C8D
:101970008093A602CE0109970E94060A8093A302D3
:10198000CE0105970E94A00C8093A402C4E7D4E086
:10199000CE010E94A00C8093AB02CE0103960E9460
:1019A000A00C8093AC02CE0106960E94A00C8093FE
:1019B000A502DF91CF9108958091A7029091A8028E
:1019C000A091A902B091AA020196A11DB11D809318
:1019D000A7029093A802A093A902B093AA028091B3
:1019E000A7029091A802A091A902B091AA028370C7
:1019F0009070A070B0700097A105B10509F083C088
:101A00008091A5028F5F8093A5028091A5028C33FF
:101A100009F079C01092A5028091AC028F5F80938B
:101A2000AC028091AC028C3309F06DC01092AC0214
:101A30008091AB028F5F8093AB028091AB028831C3
:101A400009F061C01092AB028091A4028F5F809375
:101A5000A4028091A602837011F48DE101C08CE193
:101A60009091A302923041F42091A40230E090E0E2
:101A7000019628173907A1F18091A3028130C1F0A6
:101A80008091A3028330A1F08091A302853081F080
:101A90008091A302873061F08091A302883041F0E9
:101AA0008091A3028A3021F08091A3028C3021F42E
:101AB0008091A4028032A1F08091A302843061F071
:101AC0008091A302863041F08091A302893021F0F9
:101AD0008091A3028B30B9F48091A4028F3199F4E4
:101AE00091E09093A4028091A3028F5F8093A30260
:101AF0008091A3028D3039F49093A3028091A602C5
:101B00008F5F8093A60208952F923F924F925F922B
:101B10006F927F928F929F92AF92BF92CF92DF92FD
:101B2000EF92FF920F931F93DF93CF93CDB7DEB762
:101B300066970FB6F894DEBF0FBECDBFE0913702B7
:101B4000F0E0EE0FFF1FE251FE4F4080518020E099
:101B500001C02F5F222E3324F101EE0FFF1FE40D91
:101B6000F51D859194910097A1F7882499243E0151
:101B70000894611C711CD4C080913D02F801E80FEB
:101B8000F11DEE0FFF1FE40DF51D85919491E82ED8
:101B9000F92E809137028130A1F480913D029801A5
:101BA000280F311D2230310561F48091C2029091DD
:101BB000C3023FE78F3F930721F059EFE52E54E032
:101BC000F52E809137028A30D1F58091B1028230B2
:101BD00029F0E1E0843019F4E0E001C0E2E0809116
:101BE0003D029801280F311D2330310589F4AE2FB5
:101BF000B0E0AA0FBB1FAB50B94F8D919C911197CC
:101C00003FE78F3F930721F03DEBE32E36E0F32EC5
:101C100080913D029801280F311D2430310579F45F
:101C2000F0E0EE0FFF1FE651F94F808191813FE711
:101C30008F3F930721F09DECE92E96E0F92EAB2C17
:101C4000A39480E06A2D0E94C52C80E8C82ED12C78
:101C500090913D0280913A029801290F311D90E048
:101C60002817390711F46FE701C060E081E00E9496
:101C7000992B0894C108D108C114D10449F784E014
:101C80006A2D0E94C52CC301B70145E150E00E94B6
:101C9000103A90913D0280913A029801290F311D2E
:101CA00090E061E02817390709F060E0C3010E9465
:101CB000AD2CBB2091F480913D02882371F18AE71D
:101CC0006A2D0E94C52C90913D0280913A0261E0FC
:101CD000981360E080E091E01EC08B2D8630E9F41F
:101CE00080913D0290E00196800F911F821593052F
:101CF000A1F08AE76A2D0E94C52C90913D02809147
:101D00003A02090F111D90E061E00817190709F068
:101D100060E082E091E00E94AD2C0894811C911C4F
:101D2000B82C082D10E027E08216910449F080912C
:101D30003D029801280F311D221533050CF41CCFEC
:101D400066960FB6F894DEBF0FBECDBFCF91DF9180
:101D50001F910F91FF90EF90DF90CF90BF90AF90C9
:101D60009F908F907F906F905F904F903F902F90BB
:101D7000089581E00E94622B80913A028F5F8093E8
:101D80003A0280913A02873019F58FB7F894909112
:101D9000B7029093A5029091BD029093AC029091EE
:101DA000C7029093AB029091C6029093A4029091C7
:101DB000B5029093A3029091B4029093A6028FBFB4
:101DC00088E0809337021092390281E080933302D9
:101DD00008959091B402937011F49DE101C09CE1CB
:101DE0002091B502213049F12091B502233029F12B
:101DF0002091B502253009F12091B5022730E9F094
:101E00002091B5022830C9F02091B5022A30A9F0FE
:101E10002091B5022C3089F02091B502243079F060
:101E20002091B502263059F02091B502293039F0C1
:101E30002091B5022B3021F402C09FE101C09EE148
:101E40003091C70220913A02233009F450C0243067
:101E500030F4213051F1223008F043C00AC025305F
:101E600009F484C0253008F467C0263009F0B7C0F3
:101E700097C09091B502980F9093B5028091B502EA
:101E80008150813F20F08091B502845F0BC080912A
:101E9000B50281508C3020F08091B5028C5002C088
:101EA0008091B5028093B50208952091C602280F53
:101EB0002093C6028091C6028150813F20F080911C
:101EC000C602890F0BC08091C6028150891720F08D
:101ED0008091C602891B02C08091C6028093C6020F
:101EE00008959091B402980F9093B4020895909140
:101EF000C702980F9093C7023C3048F08091C70208
:101F00008C50813F40F48091C7028C500AC0809170
:101F1000C702813F20F08091C702845F0AC0809190
:101F2000C7028C3020F08091C7028C5002C0809193
:101F3000C7028093C70208959091BD02980F9093B5
:101F4000BD028091BD02813F20F08091BD02845C82
:101F50000AC08091BD028C3320F08091BD028C5369
:101F600002C08091BD028093BD0208959091B70296
:101F7000980F9093B7028091B702813F20F0809133
:101F8000B702845C0AC08091B7028C3320F0809144
:101F9000B7028C5302C08091B7028093B7020895B4
:101FA000813021F48091C702845F03C08091C70211
:101FB0008C508093C7028091C702813F20F08091AE
:101FC000C702885E0AC08091C702883120F08091E4
:101FD000C702885102C08091C7028093C70208954A
:101FE000E0913702E093B1027093BA026093B902B4
:101FF0009093BC028093BB025093C1024093C002F5
:102000003093C5022093C4021092B3021092B20220
:102010008CE0809337020895EF92FF920F931F9305
:1020200081E00E94622B8091B102883051F480914E
:102030003A02823009F0BDC08091C0028093B6029E
:10204000B8C0813009F05EC080913A02813021F041
:10205000823009F0AEC04DC06091CE027091CF02C7
:102060008091D0029091D1020E94F1367B018C01C7
:102070006091C0027091C102882777FD8095982FEA
:102080000E94F1362FEB3EE04CE95EE30E947D3783
:102090009B01AC01C801B7010E94CE0960939D026B
:1020A00070939E0280939F029093A0026091CE0253
:1020B0007091CF028091D0029091D1020E94F136AE
:1020C0000E94A70928E439EF41E550E40E947D37DA
:1020D0006093D4027093D5028093D6029093D70276
:1020E0008091C0029091C1029093D9028093D8024E
:1020F00060C08091C0029091C1029093C30280930E
:10210000C20257C08091B8028230D1F480913A0265
:10211000833019F0843091F409C08091C00290910D
:10212000C1029093FA068093F90608C08091C0021C
:102130009091C1029093EF068093EE0682E037C043
:102140008430D1F480913A02833019F0843091F4D4
:1021500009C08091C0029091C1029093F6068093CD
:10216000F50608C08091C0029091C1029093EB06E1
:102170008093EA0684E01BC08630D9F480913A024D
:10218000833019F0843091F409C08091C00290919D
:10219000C1029093F8068093F70608C08091C002B0
:1021A0009091C1029093ED068093EC0686E08093B7
:1021B000B1028091B102809337021092390281E01E
:1021C000809333021F910F91FF90EF900895282F75
:1021D00030E04091C0025091C10287FD07C0240F3A
:1021E000351F3093C1022093C00209C0CA0180503C
:1021F0009140820F931F9093C1028093C0028091FF
:10220000BB029091BC022091C0023091C1022817FC
:10221000390724F49093C1028093C0028091B902DF
:102220009091BA022091C0023091C10282179307A7
:1022300024F49093C1028093C0028091B10288304F
:1022400089F480913A02843069F48091C0028093CD
:10225000F40680E061E80E94992B6091F40680E02A
:102260000E94992B0895209137022093B1029093F8
:10227000B0028093AF027093AE026093AD025093B0
:10228000BF024093BE0210923C028DE08093370261
:10229000089590913C0281E0891B80933C0208954F
:1022A00080913702883009F060C080913A02833013
:1022B00009F44EC0843030F4813061F0823009F08E
:1022C00000C229C08730D9F18830C9F1843009F0C3
:1022D000F8C12BC08BE08093370210923A028FB77F
:1022E000F8949091A5029093B7029091AC029093CC
:1022F000BD029091AB029093C7029091A40290937B
:10230000C6029091A3029093B5029091A602909379
:10231000B4028FBF08954091B60280E090E068E774
:1023200070E050E024E031E0A5C14091F40680E087
:1023300090E06FEF70E050E026E031E09BC187E075
:1023400091E065E171E048E151E00E9433110895A8
:1023500086E091E06CE171E04FE151E00E943311C1
:102360009091270281E0891BFDC020913702213026
:1023700009F055C080913A02813021F0823009F095
:10238000A0C122C06091D4027091D5028091D60282
:102390009091D70220E030E040E05FE30E94F23508
:1023A0000E94BE369B01AC0188E19CEF68E97AE3AC
:1023B000A90123E231E00E94F00F86E291E09093C0
:1023C000B3028093B20208958091C2029091C30239
:1023D0003FE78F3F930759F08FEF9FE79093C3023A
:1023E0008093C202109239022093330208956091C3
:1023F000D4027091D5028091D6029091D70220E04C
:1024000030E040E05FE30E94F2350E94BE369B015F
:10241000AC0188E19CEF68E97AE3A90129C18091C8
:102420003702882349F580913A028150863008F0BE
:1024300048C181E00E94622B809137028093B102F3
:1024400080913A0280933B0289E080933702E091C9
:102450003A02F0E0E953FD4F808180933A02809187
:102460003A02853030F080913A02845080933D02E8
:1024700018C110923D0215C180913702893001F5D3
:10248000E0913B02F0E080913A02E953FD4F8083F6
:102490008091B1028093370280913B0280933A028F
:1024A00080913A02853030F080913A0284508093D6
:1024B0003D0202C010923D0281E080933902F2C0D9
:1024C000809137028730A9F480913A02813039F047
:1024D000823009F0F6C081E08093350227C08091F8
:1024E00039028F5F8093390210923D0210923A02B6
:1024F0000895809137028A3009F0E3C02091B1023B
:102500002093B80280913A02823099F0833020F40F
:10251000813009F0D6C006C0833039F1843009F02B
:10252000D0C071C080933E022093370210923902CE
:10253000B9C086E091E06CE371E042E451E00E94B2
:1025400033118091B802843019F48091FB060AC0DF
:10255000823019F48091FD0605C0863009F0B1C0C3
:102560008091FC0680933C0208952430C9F4809148
:10257000F5069091F6062FE78F3F920761F08FEFF7
:102580009FE79093F6068093F5061092390284E057
:102590008093370286C04091F0065091F10648C002
:1025A0002230A1F48091F9069091FA063FE78F3F1F
:1025B000930739F08FEF9FE79093FA068093F9061F
:1025C0006CC04091F0065091F1064EC0263009F0E3
:1025D00078C08091F7069091F8063FE78F3F930708
:1025E00039F08FEF9FE79093F8068093F70655C078
:1025F0004091F0065091F10685E090E065E270E0D0
:102600002CE431E037C02430D1F48091EA06909177
:10261000EB063FE78F3F930739F08FEF9FE79093EB
:10262000EB068093EA0639C04091F2065091F3061A
:1026300086EF9FEF66E770E029E431E01BC02230AF
:10264000E1F48091EE069091EF063FE78F3F93070C
:1026500039F08FEF9FE79093EF068093EE061DC051
:102660004091F2065091F30688E99AEF68E97AE31F
:1026700023E231E00E94F00F0895263011F5809199
:10268000EC069091ED063FE78F3F930771F08FEFD7
:102690009FE79093ED068093EC0610923902209309
:1026A000370281E08093330208954091F206509101
:1026B000F30685E090E065E270E02CE431E00E94F2
:1026C000F00F0895E0913702F0E0EE0FFF1FE251A6
:1026D000FE4F2081318190E001C09F5FE92FF0E043
:1026E000EE0FFF1FE20FF31F459154914115510565
:1026F000A1F720913A02280F20933A0280913A02E2
:10270000891719F410923A0207C080913A028F3F5C
:1027100019F4915090933A0290913A0280913D02BF
:10272000981728F480913A0280933D0208952091F1
:102730003A0280913D0230E090E0069682179307BE
:102740002CF480913A02865080933D02089584E1F2
:102750008093B6028FEF9FE79093C3028093C202EB
:1027600082E08093C80281E08093C9028CE080936C
:10277000CA0293E09093CB028093CC0288E08093CE
:10278000CD0208951F9381E00E94622B8091B102D7
:10279000883041F580913A02873061F0883019F035
:1027A0008330C1F518C080913C02813099F5809347
:1027B000340230C010913C02113061F50E94002DAE
:1027C0000E94A713109327020E940C071092D902AF
:1027D0001092D8021FC090913C0281E0891B809327
:1027E000270218C08091B802823029F490913C02EF
:1027F0009093FD060DC0843029F490913C02909393
:10280000FB0606C0863031F490913C029093FC06A2
:102810008093B1028091B102809337021092390205
:1028200081E0809333021F910895EF92FF920F93FE
:102830001F93CF93DF9380E00E948927682F6B500E
:10284000613808F0605880E00E949B27FC0182817B
:102850008695869586959381292F2295220F207E35
:10286000E22EE82AE7017E01969596959695F92E37
:10287000E7012097E1F16091D4027091D502809137
:10288000D6029091D70220E030E048EC52E40E945A
:102890007D370E94BE367B018C0180EA9CE1A2E07C
:1028A000B0E0E80EF91E0A1F1B1FBE0180E090E099
:1028B00028EC30E040E050E00E944539E61AF70A83
:1028C000080B190BC801B7012AE030E040E050E0E6
:1028D0000E94B9392E5C3F4F4F4F5F4FCA01B9017B
:1028E00024E630E040E050E00E94B93904C02FEF08
:1028F0003FEF4FEF5FE7B901CA01DF91CF911F9121
:102900000F91FF90EF9008950F931F9380E00E9426
:102910008927682F6D53613808F0605880E00E9465
:102920009B27FC012081222399F130E040E050E018
:10293000DA01C90172E0880F991FAA1FBB1F7A959F
:10294000D1F7820F931FA41FB51F04E610E020E00B
:1029500030E0081B190B2A0B3B0B4091D20250911F
:10296000D302CA0163E0880F991F6A95E1F7840FCB
:10297000951F65E070E00E948439605C7E4F882777
:1029800077FD8095982F060F171F281F391F04C049
:102990000FEF1FEF2FEF3FE7B801C9011F910F9114
:1029A0000895EF92FF920F931F9380E00E94892772
:1029B000682F6D53613808F0605880E00E949B27B3
:1029C000FC0161818281782F777061157105E9F0D2
:1029D000E090CE02F090CF020091D0021091D1028F
:1029E00080EE91EBAFEFBFEFE80EF91E0A1F1B1F41
:1029F00080E090E022E330E040E050E00E94453982
:102A0000E61AF70A080B190B08C0EFEFEE2EEFEFEE
:102A1000FE2EEFEF0E2FEFE71E2FB701C8011F911B
:102A20000F91FF90EF900895EF92FF920F931F93F5
:102A300081E00E948927682F6C54613808F0605843
:102A400081E00E949B27FC0161818281782F777051
:102A50006115710529F1E090CE02F090CF0200914E
:102A6000D0021091D10280EE91EBAFEFBFEFE80EF4
:102A7000F91E0A1F1B1F80E090E022E330E040E0D7
:102A800050E00E944539E61AF70A080B190BC801F5
:102A9000B70125E030E040E050E00E94B93904C0C1
:102AA0002FEF3FEF4FEF5FE7B901CA011F910F9181
:102AB000FF90EF9008956F3F2FEF72072FEF82077F
:102AC0002FE79207D9F1693C71058105910574F5ED
:102AD00069377105810591055CF5663371058105DE
:102AE000910544F516161706180619062CF16115FE
:102AF00071058105910511F16B3C2FEF72072FEFE6
:102B000082072FEF9207E4F468382FEF72072FEF58
:102B100082072FEF9207B4F468332FEF72072FEF7D
:102B200082072FEF920784F087E0089580E00895F0
:102B300081E0089582E0089583E0089584E0089597
:102B400085E0089586E0089588E008956F927F9269
:102B50008F929F92AF92BF92CF92DF92EF92FF92AD
:102B60000F931F93DF93CF93CDB7DEB728970FB6A0
:102B7000F894DEBF0FBECDBF7C01663009F4AEC055
:102B8000673090F4633009F404C1643030F461308C
:102B900019F1623009F016C346C0643009F437C138
:102BA000653009F00FC360C0693009F4CEC16A30E6
:102BB00038F4673009F4E5C2683009F003C3EAC2AB
:102BC0006B3009F42BC26B3008F415C26C3009F07D
:102BD000F9C2DC011C920AC32091D2023091D302C7
:102BE000C901B3E0880F991FBA95E1F7820F931FCF
:102BF00065E070E00E948439605C7E4F882777FD35
:102C00008095982F0E94F13620E030E040E251E4B8
:102C10000E94563641E021E087010E94D439C70165
:102C20006FE471E0CCC26091D4027091D5028091C2
:102C3000D6029091D70220E030E048EC52E40E94A6
:102C40007D370E94BE360E94F13620E030E048EC2D
:102C500052E40E94563641E022E087010E94D439B6
:102C6000C70162E571E0ABC26091CE027091CF0204
:102C70008091D0029091D10229E83BE040E050E001
:102C80000E9445395B016C01C70162E379E00E9453
:102C9000093AD7010D900020E9F78D01015010404D
:102CA0000E191F09C601B50120EA36E841E050E0DF
:102CB0000E94B939CA01B9010E94F13620E030E022
:102CC00048EC52E40E9456360E0D1F1D41E022E0F2
:102CD0000E94D439C7016EE279E058C00091D80251
:102CE0001091D9026091CE027091CF028091D002F2
:102CF0009091D1020E94F1365B016C01B8018827E6
:102D000077FD8095982F0E94F1362FEB3EE04CE93D
:102D10005EE30E947D379B01AC01C601B5010E94B4
:102D2000CE0920E030E948E355E40E947D370E9457
:102D3000BE366B01682EA92EC70161E279E00E94C0
:102D4000093AD7010D900020E9F78D01015010409C
:102D50000E191F09B601862D9A2D20EA36E841E0AA
:102D600050E00E94B939CA01B9010E94F13620E051
:102D700030E048EC52E40E9456360E0D1F1D41E033
:102D800022E00E94D439C7016DE179E00E94FE394A
:102D90002DC20E9415145B016C0197FD0FC0C70185
:102DA00062E179E00E94093ABFEFAB16BFEFBB06C4
:102DB000BFEFCB06BFE7DB0631F420C0C70166E0FA
:102DC00079E00E94093AD7010D900020E9F7AD01A2
:102DD000415050404E195F09C601B501D7FE07C0EA
:102DE00090958095709561957F4F8F4F9F4F4E0DB9
:102DF0005F1D2AE030E00E94523A05C0C70162E040
:102E000079E00E94FE39C7016AEF78E0BFCF0E94E7
:102E100015143B014C01C7016CEE78E00E94093AA1
:102E2000A090C202B090C3026091D4027091D5020A
:102E30008091D6029091D702BFEF6B16BFEF7B0651
:102E4000BFEF8B06BFE79B0681F12091C202309154
:102E5000C302EFE72F3F3E0741F1CC24B7FCC094FB
:102E6000DC2C0E94BE36A61AB70AC80AD90AC401C9
:102E7000B30122E030E040E050E00E94B939A20EF8
:102E8000B31EC41ED51EC601B501A40193010E9444
:102E9000B93959016A0157FD08C02438F9E03F07E4
:102EA000F0E04F07F0E05F0724F0C70166EE78E03E
:102EB0006DCF28E5A21622E0B20620E0C20620E08F
:102EC000D2062CF4C70164EE78E00E94FE39D701E7
:102ED0000D900020E9F78D01015010400E191F09D7
:102EE000C601B5012CE330E040E050E00E94B93962
:102EF0005B016C010E0D1F1DCA01B901A8012AE07A
:102F000030E00E94523AC70162EE78E00E94FE393A
:102F1000BAE0AB16B104C104D1042CF4C70160EED1
:102F200078E00E94FE39D7010D900020E9F7AD014D
:102F3000415050404E195F094E0D5F1DC601B5014D
:102F40002AE030E00E94523A51C16AED78E00E94D6
:102F5000093A0E9484146734710581059105ACF526
:102F600069327105810591050CF032C16B30710534
:102F7000810591050CF02EC11616170618061906C4
:102F80000CF42AC1611571058105910509F426C16A
:102F9000663FBFEF7B07BFEF8B07BFEF9B070CF0D0
:102FA0001FC1683DEFEF7E07EFEF8E07EFEF9E0743
:102FB0000CF018C16A3BFFEF7F07FFEF8F07FFEFB1
:102FC0009F070CF011C1E8E009C06F3F2FEF7207B7
:102FD0002FEF82072FE7920749F0E0E0F0E0EE0FD5
:102FE000FF1FEC5BF84F2591349115C0ECE4F7E03E
:102FF0002591349110C060ED78E00E94093A0E945A
:10300000D1140E945B1590E0880F991F8C5B984F3C
:10301000FC0125913491C701B901B8CE66EC78E086
:103020000E94093A0E94D1145B016C010E945B1559
:10303000182F0E9414153B014C010E945B15082FAC
:103040004FEFA4164FEFB4064FEFC4064FE7D40678
:1030500049F08FEF68168FEF78068FEF88068FE7BD
:10306000980621F4C7016AEB78E090CE812F875053
:10307000823030F4063060F4C7016DEA78E086CE25
:10308000153031F4053021F4C70163EA78E07ECED3
:10309000912F9550923040F4802F8550823060F40B
:1030A000C70166E978E072CE173030F0063020F0C4
:1030B000C7016AE878E06ACE812F8250823040F4FE
:1030C000202F2250223090F4C7016DE778E05ECEC9
:1030D000123030F4023050F0C70164E778E056CE89
:1030E000183021F4C70168E678E050CE173021F49B
:1030F000C70161E678E04ACE923020F4C7016CE562
:1031000078E044CE143021F4C70162E578E03ECE89
:10311000823020F4C7016DE478E038CE123020F41C
:10312000C70162E478E032CEC7016DE378E00E9427
:10313000FE39D7010D900020E9F7BD0161507040C4
:103140006E197F096E0D7F1D812F90E04AE050E0DF
:103150000E94313AC7016BE378E00E94FE39D70143
:103160000D900020E9F7BD01615070406E197F0994
:103170006E0D7F1D802F90E04AE050E00E94313AB2
:1031800035C06091AB024091AC022091A5020E9433
:10319000E80A2CC06091A4024091A3020E944A0A4E
:1031A000C70169E378E00E94FE396091AB0240916B
:1031B000AC02CE0101960E94820ABC01C7010E94A6
:1031C0001F3A14C0C7016BE278E00E94093A0EC0B2
:1031D000E1E004CFE2E002CFE3E000CFE4E0FECEA6
:1031E000E5E0FCCEE6E0FACEE7E0F8CE28960FB6B2
:1031F000F894DEBF0FBECDBFCF91DF911F910F912D
:10320000FF90EF90DF90CF90BF90AF909F908F9006
:103210007F906F900895AF92BF92CF92DF92FF920E
:103220000F931F93DF93CF930F92CDB7DEB75C015F
:10323000CB01BA012CE330E040E050E00E94973926
:10324000F62ECA01B90128E130E040E050E00E94CA
:103250009739162FCA01B90105E09695879577959C
:1032600067950A95D1F7022F0F712DE030E040E00D
:1032700050E00E949739462FC501602F29830E9494
:103280004A0AC50169E278E00E94FE39D5010D9035
:103290000020E9F7BD01615070406A197B0929815E
:1032A000822F90E06A0D7B1D8053984F4AE050E0DA
:1032B0000E94313AC50167E278E00E94FE39D501EB
:1032C0000D900020E9F7CD0101978A199B098A0D1D
:1032D0009B1D612F4F2D0E94820A0F90CF91DF918D
:1032E0001F910F91FF90DF90CF90BF90AF90089506
:1032F000EF92FF920F931F93CF93DF93EC018B011B
:10330000DB0112968C911297869586958695139679
:103310009C91292F2295220F207E422F482B592F36
:10332000569556955695445B5240CE0162E00E94F8
:10333000832ACE0163E278E00E94FE397E01EC2F01
:10334000FF2DDF010D900020E9F7CD0101978E1BC5
:103350009F0BF801408150E0445150408C0F9D1F5D
:1033600060E00E94832ACE0160E278E00E94FE398C
:10337000EC2FFF2DDF010D900020E9F7CD01019723
:103380008E1B9F0BF80141812281522F57704057AD
:103390005E4F8C0F9D1F61E00E94832ADF91CF91C9
:1033A0001F910F91FF90EF9008952F923F924F92AF
:1033B0005F926F927F928F929F92BF92CF92DF9295
:1033C000EF92FF920F931F93DF93CF93CDB7DEB7AA
:1033D00066970FB6F894DEBF0FBECDBF0E949A2944
:1033E000482E55240E94CA29FC0180819181A28126
:1033F000B3810097A105B10551F480E062E00E941D
:10340000C52C86E591E060E00E94AD2C48C10E9489
:10341000FF2900E010E06E010894C11CD11C282E89
:103420003324B02EB39480E06B2D0E94C52C809184
:103430003D027201E81AF108E01AF10AF7FE04C031
:103440000E94FD29E80EF11C8E2D0E94CA29FC0164
:103450006080718082809380611471048104910482
:1034600009F4E0C090913D0280913A029801290F41
:10347000311D90E02817390711F46FE701C060E0B3
:1034800081E00E94992BC7010196B6014AE050E005
:103490000E94313A90913D0280913A029801290FA1
:1034A000311D90E061E02817390709F060E0C6019E
:1034B0000E94AD2CF60101900020E9F77F010894ED
:1034C000E108F108EC1890913D0280913A029801D0
:1034D000290F311D90E02817390711F46FE501C05D
:1034E00060E281E00E94992B90913D0280913A0226
:1034F0009801290F311D90E02817390711F46FE763
:1035000001C060E081E00E94992B90913D02809182
:103510003A029801290F311D90E02817390711F45C
:103520006FE701C060E081E00E94992BC601B40101
:10353000A3010E940B1990913D0280913A029801DB
:10354000290F311D90E061E02817390709F060E08C
:10355000C6010E94AD2CF60101900020E9F73197D9
:10356000EC19FD09FF240894E11CF11CEE0EFF1E6E
:10357000EE0CFF1CEE0CFF1C14C090913D028091DC
:103580003A029801290F311D90E02817390711F4EC
:103590006FE701C060E081E00E94992B0894E11C74
:1035A000F11CF0E8EF16F10444F30115110591F454
:1035B00080913D02882381F180E56B2D0E94C52C0E
:1035C00090913D0280913A0261E0981360E080E0C2
:1035D00091E020C003301105F9F480913D0290E0A4
:1035E000049682159305C1F080913A028F3FA1F0B5
:1035F00080E56B2D0E94C52C80913D0220913A02FE
:1036000090E0039630E061E08217930709F060E0F4
:1036100082E091E00E94AD2C0F5F1F4F0430110536
:1036200009F0FFCE80913A02481A510857FE04C0B3
:103630000E94FD29480E511C842D0E94CA298C012C
:1036400080E065E00E94C52C81E061E00E94992B3A
:10365000B8016C5F7F4F8E010F5F1F4FC8010E9442
:103660007819C80160E00E94AD2CF801019000209B
:10367000E9F77F010894E108F108E01AF10AEE0C7D
:10368000FF1CEE0CFF1C04C081E061E00E94992B3E
:103690000894E11CF11CF0E8EF16F104ACF3669617
:1036A0000FB6F894DEBF0FBECDBFCF91DF911F9153
:1036B0000F91FF90EF90DF90CF90BF909F908F90F1
:1036C0007F906F905F904F903F902F9008951F9341
:1036D000182F0E94FF2990913A02910F90933A027D
:1036E00090913A02981719F410923A0207C09091FB
:1036F0003A029F3F19F4815080933A0290913A0226
:1037000080913D02981718F480913A020DC02091E3
:103710003A0280913D0230E090E0039682179307D1
:103720002CF480913A02835080933D021F910895BA
:1037300081E00E94622B1092390281E08093330273
:103740000895AF92BF92CF92DF92EF92FF920F93C4
:103750001F93DF93CF93CDB7DEB76D970FB6F89475
:10376000DEBF0FBECDBF80914102882369F180E0AA
:1037700060E00E94C52C00E010E0F801E859FE4F1F
:10378000649181E00E94992B0F5F1F4F23E000306E
:10379000120799F780E066E00E94C52C8E01085F51
:1037A0001F4FC8016CE078E00E94093AC80160E050
:1037B0000E94AD2C80E067E00E94C52CC8016CEF30
:1037C00077E00E94093ADEC180913702882309F030
:1037D00079C080913902882309F071C000E010E0BF
:1037E00058E0E52EF12CEC0EFD1EF801E853FD4FDC
:1037F0006081C7010E94A6151D8EA02E80E0602F5B
:103800000E94C52CCC24DD2481E060E00E94992B2D
:103810000894C11CD11C80E8C816D104A9F7F7018F
:1038200001900020E9F73197EE198E2F880F8E0F47
:103830008195815C6A2D0E94C52CC70160E00E94C1
:10384000AD2C0F5F1F4F0230110579F602E010E03A
:1038500048E0E42EF12CEC0EFD1EF801E853FD4F7C
:103860006081C7010E94A6151D8EA02E80E0602FEA
:103870000E94C52CCC24DD2481E060E00E94992BBD
:103880000894C11CD11C90E8C916D104A9F7F7010E
:1038900001900020E9F73197EE198E2F880F8E0FD7
:1038A0008195815C6A2D0E94C52CC70160E00E9451
:1038B000AD2C0F5F1F4F0630110579F68EC684E6DA
:1038C00091E086C6809137028A3009F040C020918D
:1038D000B102243029F4CE01089667EF77E009C0E1
:1038E000CE010896263019F46EEE77E002C065EE40
:1038F00077E00E94093A8E01085F1F4FC8016EED04
:1039000077E00E94FE39D8010D900020E9F7CD0143
:10391000E0913802F0E0EE0FFF1FEF5DFD4F608198
:1039200071817695762F66277795679501970E9426
:10393000720B8091390261E0811160E0C8010E9440
:10394000342D80913902813009F047C644C68091F8
:103950003702883009F01BC18091390261E0811182
:1039600060E086E791E00E94342D8091390288233F
:1039700009F031C661E00E94C52C8DE791E060E05E
:103980000E94AD2C8E01085F1F4FC80161E774E0F3
:103990000E94093AC80160E00E94AD2C88E694E0DC
:1039A0000E94060A082F8A3028F486E891E060E039
:1039B0000E94AD2C88E0E82EF12CEC0EFD1E802F2D
:1039C00090E0B7014AE050E00E94313AC70160E060
:1039D0000E94AD2CC7016CE674E042E050E00E940A
:1039E000103AC70160E00E94AD2CC70164E774E0A3
:1039F00042E050E00E94103AC70160E00E94AD2C06
:103A0000C70167E774E042E050E00E94103AC70146
:103A100060E00E94AD2C0E943D065B016C0185E0D8
:103A200090E0A0E0B0E0A80EB91ECA1EDB1EC701E0
:103A300065ED77E00E94093AD7010D900020E9F783
:103A40008D01015010400E191F09C601B5012AE071
:103A500030E040E050E00E94B939CA01B9010E944B
:103A6000F13620E030E048EC52E40E9456360E0D6C
:103A70001F1D41E022E00E94D439C70163ED77E0C9
:103A80000E94FE3980E062E00E94C52CC70160E020
:103A90000E94AD2C80E063E00E94C52CC70169EC58
:103AA00077E00E94093A8091F406F7010190002026
:103AB000E9F7BF016150704090E04AE050E00E9499
:103AC000313AC70160E00E94AD2C80E064E00E94C2
:103AD000C52CC70162EC77E00E94093A8091270269
:103AE000882321F0C7016FEB77E003C0C7016BEBC0
:103AF00077E00E94FE398E01085F1F4FC80160E029
:103B00000E94AD2C6091A4024091A302C8010E94C2
:103B10004A0A80E065E00E94C52CC80160E00E946E
:103B2000AD2CC80169EB77E00E94093A8091A602AA
:103B3000D8010D900020E9F7BD0190E06150704080
:103B40008053984F4AE050E00E94313AC80160E04B
:103B50000E94AD2C6091AB024091AC022091A50275
:103B6000C8010E94E80AF80101900020E9F73197A6
:103B7000E01BF10B8AEFE89F802D1124805865E04F
:103B80000E94C52CC80160E00E94AD2C26C5809122
:103B90003702873009F068C08091390261E08111F5
:103BA00060E088E891E00E94342D809139028823FA
:103BB00009F04DC00E949A29C82E0E94CA297C0192
:103BC000FC0120813181428153812115310541055C
:103BD000510539F480E062E00E94C52C82E991E051
:103BE000D2CF8E01085F1F4FC8016FEA77E00E94B5
:103BF000093AD8010D900020E9F7BD018C2D90E025
:103C00006150704001964AE050E00E94313A80E0F5
:103C100062E00E94C52CC80160E00E94AD2CF70153
:103C200041915191619171917F01C8010E940B19DD
:103C300080E063E00E94C52CC80160E00E94AD2CCA
:103C4000C801B7010E94781980E064E099CF8091A3
:103C50003902813009F4BFC480913902823009F001
:103C6000BCC40E94D519B9C480913702843041F494
:103C70008091380240913F0220913E0260E017C0DF
:103C800080913702863041F48091380240913F02A2
:103C900020913E0261E00BC080913702823051F4E6
:103CA0008091380240913F0220913E0262E00E94E2
:103CB000A02E93C4809137028B3009F055C182EA5F
:103CC00091E060E00E94342D80E162E00E94C52C0A
:103CD00018E0E12EF12CEC0EFD1EC7016DEA77E035
:103CE0000E94093A4091B5028E010F5F1F4FC80133
:103CF00061E00E944A0A1C82C701B8010E941F3A73
:103D0000C7016BEA77E00E94FE3980913A0261E0D8
:103D1000811160E0C7010E94AD2C8E01085F1F4F2A
:103D2000C80169EA77E00E94093A8091C6028A30A8
:103D300028F4C80167EA77E00E94FE398091C60244
:103D40008E01085F1F4FD8010D900020E9F7BD01DB
:103D50006150704090E04AE050E00E94313AC80162
:103D600065EA77E00E94FE3980913A0261E0813095
:103D700009F060E0C8010E94AD2C8E01085F1F4F62
:103D8000C80163EA77E00E94093A8091B402F80121
:103D900001900020E9F7BF0190E06150704080532E
:103DA000984F4AE050E00E94313AC80161EA77E05A
:103DB0000E94FE3980913A0261E0823009F060E0B1
:103DC000C8010E94AD2C88E064E00E94C52C80915F
:103DD000C702882359F08091C7028C3039F0809156
:103DE000C7026CE00E946439E92E02C0BCE0EB2EF1
:103DF0008E01085F1F4FC8016FE977E00E94093A02
:103E0000FE2DFA3028F4C8016DE977E00E94FE39F2
:103E10008E01085F1F4FD8010D900020E9F7BD010A
:103E2000615070408E2D90E04AE050E00E94313A9F
:103E3000C8016BE977E00E94FE3980913A0261E0A7
:103E4000833009F060E0C8010E94AD2C80EB91E066
:103E500060E00E94AD2C8E01085F1F4FC80169E928
:103E600077E00E94093A8091BD028A3028F4C801A7
:103E700067E977E00E94FE398091BD028E01085FFC
:103E80001F4FF80101900020E9F7BF016150704019
:103E900090E04AE050E00E94313AC80165E977E0DD
:103EA0000E94FE3980913A0261E0843009F060E0BE
:103EB000C8010E94AD2C80EB91E060E00E94AD2C27
:103EC0008E01085F1F4FC80163E977E00E94093A3D
:103ED0008091B7028A3028F4C80161E977E00E9436
:103EE000FE398091B7028E01085F1F4FD8010D90F7
:103EF0000020E9F7BD016150704090E04AE050E0D9
:103F00000E94313AC8016FE877E00E94FE39809143
:103F10003A0261E0853009F060E0C8010E94AD2CF2
:103F20008E01085F1F4FC8016DE877E00E94093AD3
:103F30008091C7028C3020F4C8016AE877E003C0A2
:103F4000C80167E877E00E94FE398E01085F1F4FC5
:103F5000C80165E877E00E94FE3980913A0261E08D
:103F6000863009F06BC16BC1809137028C3009F04B
:103F7000C6C080913A02E091B102F0E0EE0FFF1F5F
:103F8000E251FE4F90E0880F991F0190F081E02DE3
:103F9000E80FF91F259134918E01085F1F4FC8016A
:103FA000B9010E94093AC80160E00E94342D2091B5
:103FB000B2023091B30221153105D1F0C901F901E6
:103FC00001900020E9F731978E1B9F0B880F991FF6
:103FD000880F991F8C5A9F4F9695879562E00E9493
:103FE000C52C8091B2029091B30260E00E94AD2C8A
:103FF0006091B9027091BA02AA24A3942AE030E039
:1040000005C0A394CB01B9010E9484396A307105BF
:10401000C4F782E190E08A19910962E070E00E94A1
:104020008439862F880F880F2091B2023091B30215
:104030002115310511F064E001C063E00E94C52C38
:104040002091C0023091C102CE01089637FF03C013
:1040500063E877E002C061E877E00E94093AE09007
:10406000C002F090C102F7FE04C0F094E194F108A0
:10407000F3940AE010E048E0C42ED12CCC0EDD1EF3
:1040800013C0E016F1062CF4C6016FE777E00E943A
:10409000FE39C801880F991F23E0000F111F2A95D0
:1040A000E1F7080F191FAA94BA2DB23050F78E010C
:1040B000085F1F4FF80101900020E9F7BF01615030
:1040C0007040C7014AE050E00E94313AC8016DE7F4
:1040D00077E00E94FE39C80161E00E94AD2C80911A
:1040E000C4029091C502DC012C91222309F475C20F
:1040F00061E00E94AD2C82EB91E061E045CD8091C2
:1041000037028D3009F09DC080913A02E091B102F2
:10411000F0E0EE0FFF1FE251FE4F90E0880F991F75
:104120000190F081E02DE80FF91F259134918E0167
:10413000085F1F4FC801B9010E94093AC80160E039
:104140000E94342DE091AF02F091B002808188236B
:10415000C9F0CF0101900020E9F731978E1B9F0B2A
:10416000880F991F880F991F8C5A9F4F9695879596
:1041700062E00E94C52C8091AF029091B00260E095
:104180000E94AD2CE091AD02F091AE02DF010D90E6
:104190000020E9F711978E2F8A1B880F880F845E05
:1041A000A091AF02B091B0029C91992311F064E00C
:1041B00001C063E00E94C52C8E01085F1F4FC8013B
:1041C0006BE777E00E94093A6091AD027091AE0210
:1041D000C8010E941F3AC80169E777E00E94FE39D2
:1041E00080913C0261E0811160E0C8010E94AD2C29
:1041F000E091AF02F091B0028081882311F064E079
:1042000001C063E08CE20E94C52C8E01085F1F4F45
:10421000C80167E777E00E94093A6091BE02709199
:10422000BF02C8010E941F3AC80165E777E00E94FB
:10423000FE3980913C0261E0813009F060E0C80104
:10424000A3CC80913702813009F064C0809139029B
:1042500061E0811160E084EB91E00E94342D809157
:104260003902882309F0B7C18E01085F1F4FC801CA
:1042700062E00E94A61580E061E00E94C52CC801A2
:1042800060E00E94AD2CC80163E00E94A61580E0AA
:1042900062E00E94C52CC80160E00E94AD2C8091B4
:1042A000C2029091C302BFE78F3F9B0709F180E0F4
:1042B00064E00E94C52CC80168E677E00E94093AD4
:1042C0008091C2029091C302F80101900020E9F7A9
:1042D000BF01615070404AE050E00E94313AC8018D
:1042E00063E677E00E94FE39C80160E00E94AD2CD1
:1042F0008091C2029091C302FFE78F3F9F0709F4AC
:104300006CC18E01085F1F4FC80164E00E94A615B2
:1043100080E035CC80913702833009F081C08091F4
:10432000390261E0811160E08DEB91E00E94342D53
:1043300080913902882309F04EC161E00E94C52CAA
:104340008E01085F1F4FC80161E00E94A615C801D9
:1043500060E00E94AD2C80E062E00E94C52C89ECF8
:1043600091E060E00E94AD2C0E9484146B017C01FE
:104370006F3F2FEF72072FEF82072FE7920731F47D
:10438000C8016FE577E00E94093A27C097FD06C093
:10439000C8016DE577E00E94093A01C0188658E02F
:1043A000A52EB12CAC0EBD1ED5010D900020E9F755
:1043B0008D01015010400A191B09C701B6010E9466
:1043C000F13620E030E040E251E40E9456360A0D1A
:1043D0001B1D41E021E00E94D439CE01089660E027
:1043E0000E94AD2C80ED91E060E00E94AD2C80E059
:1043F00063E00E94C52C00E010E081E060E00E94D4
:10440000992B0F5F1F4F00381105B9F780E063E06B
:104410000E94C52C8E01085F1F4FC80169E0B6C01D
:1044200080913702853009F0B4C08091390261E093
:10443000811160E087ED91E00E94342D8091390276
:10444000882309F0C8C061E00E94C52C8E01085F76
:104450001F4FC80165E00E94A615C80160E00E94D8
:10446000AD2C80E062E00E94C52C0E94D1146F3F09
:10447000BFEF7B07BFEF8B07BFE79B0731F4C80196
:1044800068E577E00E94093A35C029E83BE040E062
:1044900050E00E94453920EA36E841E050E00E94B1
:1044A000B93959016A0157FD06C0C80166E577E0D0
:1044B0000E94093A01C0188648E0E42EF12CEC0E67
:1044C000FD1EF70101900020E9F78F010150104017
:1044D0000E191F09C601B5010E94F13620E030E037
:1044E00048EC52E40E9456360E0D1F1D41E022E0BA
:1044F0000E94D439CE01089660E00E94AD2C80EE77
:1045000091E060E00E94AD2C80E063E00E94C52C49
:1045100000E010E081E060E00E94992B0F5F1F4FE8
:1045200000381105B9F780E063E00E94C52C8E01C8
:10453000085F1F4FC8016AE00E94A615C80160E02D
:104540000E94AD2C80E064E00E94C52CC80166E0AA
:104550000E94A615C80160E00E94AD2C80E065E0D5
:104560000E94C52C00E010E081E060E00E94992BE1
:104570000F5F1F4F00381105B9F780E065E00E941A
:10458000C52C8E01085F1F4FC8016BE00E94A61565
:10459000F9CA80913702893001F580913B02E091A0
:1045A000B102F0E0EE0FFF1FE251FE4F90E0880FE6
:1045B000991F0190F081E02DE80FF91F25913491AA
:1045C0008E01085F1F4FC801B9010E94093AC80156
:1045D00060E00E94342D0E94840D6D960FB6F89411
:1045E000DEBF0FBECDBFCF91DF911F910F91FF9026
:1045F000EF90DF90CF90BF90AF9008958F929F92F1
:10460000AF92BF92CF92DF92EF92FF920F931F93E0
:10461000DF93CF93CDB7DEB765970FB6F894DEBFC3
:104620000FBECDBF85B1876085B90E94002D0E9465
:10463000262D80E00E94292D8FE39CE90197F1F758
:1046400000C000000E94B10C80E00E94162A0E9467
:10465000062B0E94A7137894CC248E010F5F1F4F66
:104660000E94190780913202882309F43FC080E03C
:1046700061E00E94C52CC80166E479E00E94093A15
:1046800080913202D8010D900020E9F7BD01615000
:10469000704090E04AE050E00E94313AC80160E08A
:1046A0000E94AD2C80E062E00E94C52CC8016FE33F
:1046B00079E00E94093AF80101900020E9F7BF0172
:1046C000615070408C2D90E04AE050E00E94313AF9
:1046D000C80160E00E94AD2C8FEF93EDA0E3815004
:1046E0009040A040E1F700C00000C39480913202E6
:1046F000882309F0B5CF8091B60080628093B60020
:104700008091B6008F7B8093B6001092B00083E05A
:104710008093B1008091B60090E08F709070009708
:10472000C9F7AFE1BEE41197F1F700C0000081E0E6
:1047300087BB8093700090916B00976090936B00A3
:1047400090916800916090936800909164009F6AD6
:10475000909364008093EC018824839480913602C6
:10476000882359F0109236020E94002D0E94262DB7
:1047700080E00E94292D8092ED01809134028823EF
:1047800059F01092340280E060E00E94C52C0E9433
:10479000262D81E00E94162A8091EC01882329F4BD
:1047A00080913502882309F467C0809164008F7777
:1047B000809364000E9480070E9406085C010E94AA
:1047C000A1070E9462086B017C01809164008068EF
:1047D000809364008091EC01882329F0C501B70122
:1047E000A6010E94AB2880913502882309F440C0BD
:1047F0009FB6F8946091A60270E080E090E02DE012
:1048000030E040E050E00E9445392091A302620F61
:10481000711D811D911DE5E0660F771F881F991F8F
:10482000EA95D1F72091A402620F711D811D911D9F
:1048300028E130E040E050E00E9445392091AB0291
:10484000620F711D811D911D2CE330E040E050E0AE
:104850000E9445398B019C018091AC029FBE080FDC
:10486000111D211D311DC501B701A6010E9430296E
:104870001092EC011092350280913302882321F0CE
:10488000109233020E94262D8091ED018823A1F021
:104890001092ED010E94A11B0FC080914602882357
:1048A00059F483B7817F866083BF83B7816083BFFC
:1048B000889583B78E7F83BF8091EC01882309F0B0
:1048C0004DCF8091ED01882309F048CF80913502CA
:1048D000882319F343CF1F93182F80913E0288231A
:1048E000B1F080913F02810F80933F0280913F029F
:1048F000813F20F480913F0287FF04C080913F02F6
:10490000805802C080913F0280933F029BC08091FB
:104910003702893040F080913702893021F0809150
:1049200037028A3041F480913902813021F4812F9D
:104930000E94621387C080913702893008F063C0FB
:1049400080913902882309F05EC00E94622B809119
:104950003702843041F080913702863021F0809117
:1049600037028230E1F480913802810F809338025F
:1049700080913802833031F41092380280913702EE
:104980008F5F0AC0809138028F3F11F582E08093DB
:1049900038028091370281508093370219C080918C
:1049A0003702810F809337021F3F81F480913702D5
:1049B000843041F080913702863021F080913702B7
:1049C000823021F482E08093380202C010923802D3
:1049D00080913702813F20F080913702875F0AC0C3
:1049E00080913702893020F080913702895002C0CF
:1049F00080913702809337028FE780933F0281E0F6
:104A0000809333021FC0809137028B3021F4812FB5
:104A10000E94E90E17C0809137028C3021F4812F5B
:104A20000E94E7100FC0809137028D3021F4812F52
:104A30000E94491107C080913702873019F4812FF5
:104A40000E94671B1F9108951F9380913702863043
:104A500041F080913702843021F08091370282301A
:104A6000B1F480913E02882361F481E00E94622BC0
:104A7000809137028093B1028AE08093370281E00F
:104A80001FC082E00E94622B10923E021FC08091E4
:104A90003702893018F5809139028823F9F4E091C2
:104AA0003702F0E0EE0FFF1FE251FE4F808191814F
:104AB000009781F081E00E94622B809139028F5F24
:104AC0008093390210923D0210923A0281E0809365
:104AD000330258C083E00E94622B54C08091370299
:104AE000893040F080913702893021F0809137027F
:104AF0008A3069F510913902113049F580913A02F6
:104B00008823F9F482E00E94622B8091390281505F
:104B10008093390280913702893051F48091B1023B
:104B20008093370280913B0280933A0210933902BE
:104B3000809137028A3051F68091B102809337021A
:104B4000C5CF81E00E94622B0E945011BFCF80919F
:104B500037028B3019F40E94B90E14C080913702CD
:104B60008C3019F40E940C100DC0809137028D30EA
:104B700019F40E94C21306C080913702873011F4E5
:104B80000E94981B1F9108951F920F920FB60F92CB
:104B90001124EF92FF920F931F932F933F934F9304
:104BA0005F936F937F938F939F93AF93BF93EF9395
:104BB000FF930E94DC0C8091A7029091A802A09123
:104BC000A902B091AA0283709070A070B070009793
:104BD000A105B105E1F480914002882359F4809148
:104BE0003702883039F480913902882319F481E042
:104BF0008093ED018091A502882349F481E08093A0
:104C0000EC0190914002992311F48093ED01809181
:104C10004002882309F070C08091A7029091A802F9
:104C2000A091A902B091AA02E090B200FF2400E096
:104C300010E0BA2FA92F982F8827E82AF92A0A2BE3
:104C40001B2B8091420290914302A0914402B091AB
:104C50004502E81AF90A0A0B1B0B809141028823CE
:104C6000A9F5189B02C01A9931C081E7E81687E1BF
:104C7000F80680E0080780E0180730F0189902C0B5
:104C800088E21FC088ED1DC089EBE8168BE0F806AE
:104C900080E0080780E0180730F0189902C08CE027
:104CA00010C084EF0EC085EFE81681E0F80680E0C2
:104CB000080780E0180750F0189902C084E001C08E
:104CC0008CEF0E946B2481E08093ED018091B6020D
:104CD00090E0A0E0B0E02AE0880F991FAA1FBB1F58
:104CE0002A95D1F78E159F05A007B10728F481E01A
:104CF000809340020E94292D1092B0008091B6004E
:104D000081FDFCCFFF91EF91BF91AF919F918F916A
:104D10007F916F915F914F913F912F911F910F91D3
:104D2000FF90EF900F900FBE0F901F9018951F925D
:104D30000F920FB60F921124EF92FF920F931F93D1
:104D40002F933F934F935F936F937F938F939F9393
:104D5000AF93BF93EF93FF9380914002882341F17B
:104D60002091A7023091A8024091A9025091AA0275
:104D70008091B20090E0A0E0B0E0542F432F322F9A
:104D80002227822B932BA42BB52B80934202909346
:104D90004302A0934402B09345021092400280E087
:104DA0000E94292D81E0809333028093ED011DC084
:104DB000E090A702F090A8020091A9021091AA0227
:104DC0008091B2002091420230914302409144020E
:104DD0005091450290914102913051F4189971C05F
:104DE0001A996FC0199B6DC082E08093410269C01F
:104DF00090E0A0E0B0E0102F0F2DFE2CEE248E29C5
:104E00009F29A02BB12B821B930BA40BB50B2091D8
:104E10004102223091F4189B54C01A9B52C0199B36
:104E200050C08B3F9105A105B10508F44AC010920E
:104E3000410281E08093330242C0189908C01A9958
:104E400006C0199904C081E0809336023AC0189BCD
:104E500002C01A990DC08B3F9105A105B10540F024
:104E6000189902C081E001C08FEF0E946B2409C035
:104E7000199927C08B3F9105A105B10510F10E943A
:104E800024252091A7023091A8024091A9025091B7
:104E9000AA028091B20090E0A0E0B0E0542F432F2E
:104EA000322F2227822B932BA42BB52B80934202E7
:104EB00090934302A0934402B093450281E0809313
:104EC000ED01FF91EF91BF91AF919F918F917F91F4
:104ED0006F915F914F913F912F911F910F91FF9093
:104EE000EF900F900FBE0F901F901895282F30E075
:104EF000225030403695322F222737952795260F9E
:104F0000311D220F331F220F331F205F3F4FC90176
:104F10000895282F30E0823028F42A51394FF901C2
:104F200080810895C901880F991F880F991F0597DF
:104F30000E94863A0895823080F4282F30E036951A
:104F4000322F222737952795260F311D220F331F29
:104F5000220F331F2E513D4F0EC00E9476270E9414
:104F60008E3A6093E2067093E3068093E406909392
:104F7000E50622EE36E0C90108956F927F928F9286
:104F80009F92AF92BF92CF92DF92EF92FF920F93D8
:104F90001F93CF93DF93EC0179018A017093D302C1
:104FA0006093D2022093CE023093CF024093D0027E
:104FB0005093D102CB01E3E0880F991FEA95E1F706
:104FC000860F971F65E070E00E948439605C7E4F19
:104FD000882777FD8095982F6C392FEF72072FEF78
:104FE00082072FEF920724F46CE97FEF8FEF9FEF9A
:104FF0006A597F4F8F4F9F4F25E030E040E050E0EF
:105000000E94B939A22EB32EC42ED52E6FEFA6164C
:10501000B104C104D10431F02CF07FEFA72EB12CE4
:10502000C12CD12C80E2E8168EE4F80680E0080757
:1050300080E018071CF0C801B70104C060E27EE4FC
:1050400080E090E067507E448040904022E330E072
:1050500040E050E00E94B939622E932E842E752EC6
:10506000C801B7010E94F1360E94A70928E439EF70
:1050700041E550E40E947D37262F372F482F592FC6
:105080002093D4023093D5024093D6025093D70296
:1050900020E030E040E05FE30E94F2350E94BE363F
:1050A000262F372F482F592F28396AEF36076FEFF1
:1050B00046076FEF560724F428E93AEF4FEF5FEF0A
:1050C00027593A4F4F4F5F4F55954795379527953D
:1050D000A882862D992DA82DB72D803068E09607DF
:1050E00060E0A60760E0B60724F08FEF97E0A0E04D
:1050F000B0E0898397708A81887F892B8A832030EA
:1051000080E2380780E0480780E0580724F02FEF5E
:105110003FE140E050E0922F990F990F990F8A815B
:105120008770892B8A83832F880F880F880F229599
:1051300026952770282B2B83DF91CF911F910F91FC
:10514000FF90EF90DF90CF90BF90AF909F908F90A7
:105150007F906F900895BF92CF92DF92EF92FF926F
:105160000F931F93DF93CF9300D000D000D0CDB723
:10517000DEB7FC019A01AB01CE010196BF010E948E
:10518000BD27B1E2EB2EB2E0FB2E06EE16E0CC24FA
:10519000DD2420E03CE3222391F08091AB0240919A
:1051A000AC02839FC0011124840F911DF70160811F
:1051B00071810E9470390097A9F52230C9F0F80179
:1051C0004081F601E40FF11DEE0FFF1FEE0FFF1FF0
:1051D000EE51FD4F89819A81AB81BC81808391839F
:1051E000A283B383842F8F5F8F77F80180831AC0E7
:1051F00083E090E02D833E830E94863AB82E82E0C1
:105200006B2D0E94762749815A816B817C810E9497
:10521000AC3A6B2D6F5F6F7783E090E00E949A3A13
:105220003E812D812F5F82E090E0E80EF91E0F5F36
:105230001F4FE0E8F0E0CE0EDF1E233009F0ABCFC9
:1052400026960FB6F894DEBF0FBECDBFCF91DF918B
:105250001F910F91FF90EF90DF90CF90BF90089536
:105260004F925F926F927F928F929F92AF92BF9276
:10527000CF92DF92EF92FF920F931F93DF93CF9322
:1052800000D000D0CDB7DEB7FC016A017B01280158
:105290003901CE010196BF01A70196010E94BD27E9
:1052A00090E1E92E92E0F92E00E010E0AA24AA9401
:1052B000BA2C650188249924C7010E948E3A6A1588
:1052C0007B058C059D0518F45B016C0148010F5F9F
:1052D0001F4F88E090E0E80EF91E0E33110561F7CC
:1052E00084010E5B1F4F83E0000F111F8A95E1F7C9
:1052F000C801B301A2010E94AC3A49815A816B8175
:105300007C81C80104960E94AC3A0F900F900F90D8
:105310000F90CF91DF911F910F91FF90EF90DF9051
:10532000CF90BF90AF909F908F907F906F905F9045
:105330004F900895AF92BF92CF92DF92EF92FF927B
:105340000F931F93CF93DF9300E112E0C0E0D0E012
:10535000CC24DD247601AA24BB24C8010E948E3A05
:105360006C157D058E059F0518F06B017C015E01B3
:105370002196085F1F4FCE33D10579F78A2DDF9133
:10538000CF911F910F91FF90EF90DF90CF90BF9042
:10539000AF9008950F931F93DF93CF9300D000D069
:1053A000CDB7DEB7082F10E00E5B1F4F23E0000FD4
:1053B000111F2A95E1F7C8010E948E3A6093DA0224
:1053C0007093DB028093DC029093DD02C8010496A7
:1053D0000E948E3A6093DE027093DF028093E002B7
:1053E0009093E1028AED92E00F900F900F900F9052
:1053F000CF91DF911F910F9108958EE308951F9330
:10540000CF93DF93C0E1D2E010E0CE010E948E3A4C
:105410002896611571058105910519F01F5F1E33EE
:10542000A1F7812FDF91CF911F9108951F93CF9303
:10543000DF93182F1092D9021092D802A6EEB6E090
:1054400020E030E01D9280E0F901E80FF11DEE0F41
:10545000FF1FEE0FFF1FEE51FD4F108211821282CF
:1054600013828F5F803881F720583F4F81E02030D2
:10547000380741F780E090E00E94943A2EEB833B9E
:10548000920741F4112331F484E092E060E00E943D
:10549000AD2C35C082E192E060E00E94AD2C80E04E
:1054A00090E043EB5EEB60E070E00E94AC3A84E099
:1054B00090E040E050E0BA010E94AC3A10E082E097
:1054C000612F0E94762740E050E0BA010E94AC3A7A
:1054D0001F5F1038A1F7C0E1D2E0CE0140E050E0FC
:1054E000BA010E94AC3ACE01049640E050E0BA0105
:1054F0000E94AC3A289684E0C030D80771F7DF915B
:10550000CF911F910895EF92FF920F931F93CF9326
:10551000DF93EC012FE74E3F520714F0188240C092
:10552000662381F4BA01882777FD8095982F0E9421
:10553000F13620E030E040E05FE30E947D3741E05B
:1055400021E022C0613021F5BA01882777FD8095DE
:10555000982F29E83BE040E050E00E94453920EDDB
:1055600037E040E050E00E94B939B901882777FD63
:105570008095982F0E94F13620E030E048EC52E40C
:105580000E94563641E022E08E010E94D43908C0C4
:10559000CA01880F991FBE014AE050E00E94313ACB
:1055A000CE01DF91CF911F910F91FF90EF90089561
:1055B000EF92FF92CF93DF93EC012FE74E3F52071C
:1055C00014F018820EC0662319F469E579E007C06B
:1055D000613019F466E579E002C063E579E00E9484
:1055E000093ACE01DF91CF91FF90EF90089510928C
:1055F00046028BB18E7B8BB914BC10926F0016BA29
:10560000E4E6F0E08081886280830895569A509A9B
:105610000E94F72A08958091E906882339F4809141
:10562000E806823018F1853019F520C08091E9062E
:10563000813049F48091E8068823A9F08230B1F0E6
:105640008430B1F413C08091E906823021F4809156
:10565000E806843059F08091E906823021F4809187
:10566000E806853029F00E94F72A089580E401C0F9
:1056700080E6909164009F7D9093640092E494BDD5
:1056800093E095BD87BD16BC80916400877F8093B1
:105690006400109280008DE0809381008091E80684
:1056A0008450823028F489E08093890080E603C02A
:1056B0009093890080E28093880082E086BB80938B
:1056C0006F00089590912702992349F08093E8068E
:1056D0001092E90681E0809346020E940B2B089508
:1056E0001F920F920FB60F9211242F933F934F9357
:1056F0005F936F937F938F939F93AF93BF93EF933A
:10570000FF938091E9068F5F8093E9060E940B2B3F
:10571000FF91EF91BF91AF919F918F917F916F9189
:105720005F914F913F912F910F900FBE0F901F905F
:105730001895882311F05F9A01C05F985C986623E2
:1057400009F443C067FF02C02B9A01C02B982D9A21
:105750002D98862F880F66FF02C02B9A01C02B98C8
:105760002D9A2D98982F990F86FF02C02B9A01C071
:105770002B982D9A2D98892F880F96FF02C02B9A6F
:1057800001C02B982D9A2D98982F990F86FF02C053
:105790002B9A01C02B982D9A2D98892F880F96FF50
:1057A00002C02B9A01C02B982D9A2D98982F990FF3
:1057B00086FF02C02B9A01C02B982D9A2D9896FF38
:1057C00002C02B9A11C02B980FC02B982D9A2D98A0
:1057D0002D9A2D982D9A2D982D9A2D982D9A2D9899
:1057E0002D9A2D982D9A2D982D9A2D985C9A089582
:1057F0008AB1806B8AB984B1886284B95C9A5D9AF7
:105800008FEC97E00197F1F700C000005D988FE101
:105810009EE40197F1F700C000005D9A80E06EEA17
:105820000E94992B80E060E00E94992B80E060E16B
:105830000E94992B80E060E40E94992B80E061E84F
:105840000E94992B6091F40680E00E94992B80E0E1
:1058500061EA0E94992B80E066EA0E94992B80E021
:1058600064EA0E94992B80E068EA0E94992B80E00C
:105870006FE30E94992B80E063ED0E94992B80E0FA
:1058800060E00E94992B80E065ED0E94992B80E0FA
:1058900060E80E94992B80E069ED0E94992B80E0DE
:1058A00061EF0E94992B80E06AED0E94992B80E0C5
:1058B00062E10E94992B80E06BED0E94992B80E0C1
:1058C00060E40E94992B80E060E20E94992B80E0C6
:1058D00060E00E94992B80E061EA0E94992B80E0B1
:1058E00068EC0E94992B80E06DE80E94992B80E083
:1058F00064E10E94992B80E06FEA0E94992B089541
:10590000EF92FF920F931F93CF93DF93F62E05E054
:10591000809F800111240454174FC0E0D0E08FE72E
:10592000E82EF801EC0FFD1F6491F1106E2581E067
:105930000E94992B2196C530D10599F7FF2011F0CF
:105940006FE701C060E081E00E94992BDF91CF9169
:105950001F910F91FF90EF900895EF92FF921F9388
:10596000CF93DF93162FE82EE7017E01F92EE70192
:1059700003C0612F0E94802C89918823D1F7DF9189
:10598000CF911F91FF90EF9008950F931F93182FC1
:10599000062F682F6F7080E00E94992B612F62950F
:1059A0006F70606180E00E94992B602F6770606B60
:1059B00080E00E94992B1F910F91089580E060E094
:1059C0000E94C52C5F9A5C982B9888E015C02D9A90
:1059D0002D982D9A2D982D9A2D982D9A2D982D9A97
:1059E0002D982D9A2D982D9A2D982D9A2D989F5F50
:1059F000903869F7815011F090E0E9CF5C9A0895F2
:105A00008FEF9FE79093F6068093F5069093EB0651
:105A10008093EA061092FB069093F8068093F706AF
:105A20009093ED068093EC061092FC069093FA0694
:105A30008093F9069093EF068093EE061092FD0690
:105A40008FEF8093F4060E94F82B08950E94DE2CBD
:105A50000895882319F080E06EEA02C080E06FEAC2
:105A60000E94992B08950895CF92DF92EF92FF92B2
:105A70000F931F93DF93CF930F92CDB7DEB7D82E3E
:105A8000E92E162FE82FF92FDF010D900020E9F7FE
:105A90001197A81B23E130E02A1B31093595279582
:105AA000C22E0A2F01950D5E021B80E060E00E946D
:105AB000C52C112311F06FE701C060E081E00E9466
:105AC000992B112319F048E252E002C04AE252E059
:105AD000CA01612F0E94AD2C112341F486E060E0E1
