:10000000B4C50000CFC50000CDC500000C94F3219D
:10001000C9C50000C7C50000C5C50000C3C50000B4
:10002000C1C500000C942221BDC500000C94AB2F6B
:10003000B9C50000B7C50000B5C50000B3C50000D4
:10004000B1C50000AFC50000ADC50000ABC50000E4
:10005000A9C50000A7C50000A5C50000A3C50000F4
:10006000A1C500009FC500009A0EBB0ECA0EFE0E71
:10007000D40EE00EEA0EF60EF60EB413BA133C14CC
:100080006B14D213F613ED15F615D114261537158A
:10009000B11307634236B79BD8A71A39685618AE12
:1000A000BAAB558C1D3CB7CC5763BD6DEDFD753EAD
:1000B000F6177231BF000000803F08000000BE92BA
:1000C0002449123EABAAAA2ABECDCCCC4C3E00009D
:1000D0000080BEABAAAAAA3E00000000BF0000003C
:1000E000803F0000000000084178D3BB4387D11354
:1000F0003D190E3CC3BD4282AD2B3E68EC8276BEFC
:10010000D98FE1A93E4C80EFFFBE01C4FF7F3F00C5
:10011000000000004A616E00466562004D61720099
:10012000417072004D6179004A756E004A756C002D
:1001300041756700536570004F6374004E6F760021
:1001400044656300140118011C01200124012801E9
:100150002C013001340138013C01400120005000E5
:1001600041003A003A00500041003A00200080C0AF
:10017000C000C0E0EC6E6C60606C6E6C60606C6EB9
:100180006C60606CEEECC00000000000000000003D
:1001900080C0C0C0606060E0C0C0C0C0E0603038F7
:1001A000181C0E060E0E0E0C1C1818383830306055
:1001B000606060C0C0C0C08080000000000000001F
:1001C000000010393900FFFF0000000000C0F8FCFB
:1001D000BCCCFC7C380000C0E0EFEF0080C0CCEC71
:1001E00066676303C1E1E180C0E060C0E0E081C117
:1001F000E0E000C0E0E080C0E06060E0E0C080805F
:10020000C0E06060E0E0C080C0E1E161E1E3C3879D
:1002100007C6E6EC6C6C42E7E700FFFF80000010C9
:100220001E1F1F19191F0F17181E0F0F9DDFDF0E3E
:100230001F1F19181800101E1F0F0F1F1910001F65
:100240001F1F07031F1F0F07010E1F1F19181C0F69
:100250000F070F1F1F19181C0F0F171F1F1F191C27
:100260000E0F071118191B1F0F06000000000103D5
:100270001B3B1B03031B3B1B03031B3B1B03031BFE
:100280003B1B010000001C10101010181010101063
:100290001810101010101810101010181010101046
:1002A000101C101010101018101010101810101032
:1002B000101018101010101810101010101C312EE3
:1002C000302E310045786974204D656E75004C699B
:1002D0006E6520312044617461004C696E65203286
:1002E0002044617461004C696E6520332044617460
:1002F00061004C696E6520342044617461004C6972
:100300006E6520352044617461004C696E6520364D
:10031000204461746100C402CE02DA02E602F202F5
:10032000FE020A03000043616C6962726174650039
:100330005365742044657374696E6174696F6E00EF
:1003400052657365742044657374696E6174696F76
:100350006E00C4022603300300004461746520610E
:100360006E642054696D65004D6561737572656DCD
:10037000656E7420556E69747300536C65657020EA
:1003800044656C617900536F756E64004C43442082
:10039000436F6E7472617374004C43442042696110
:1003A00073004C43442054656D7020436F656600B4
:1003B000526573746F72652044656661756C747301
:1003C00000457261736520416C6C2044617461006A
:1003D000C4025A0368037A0386038C039903A203B9
:1003E000B003C103000054656D706572617475726D
:1003F0006500416C746974756465005261746520B0
:100400006F6620417363656E740054696D65207476
:100410006F2044657374696E6174696F6E00537404
:100420006174696F6E2050726573737572650053E5
:100430006561204C6576656C2050726573737572CA
:10044000650054696D65206F6620446179004461E0
:10045000746520616E642054696D650054656D702B
:1004600065726174757265205472656E64005072B5
:10047000657373757265205472656E6400576561AB
:100480007468657220466F72656361737400456DB0
:1004900070747900C402E603F203FB030A041E042D
:1004A0002F0442044E045C046E047D048E0400009C
:1004B0005669657720536E617073686F74204C6F56
:1004C000670054616B6520536E617073686F7400D0
:1004D000C402B004C20400004578706C6F726520DD
:1004E00047726170680044726177696E6720537467
:1004F000796C6500437573746F6D20592D4178696F
:1005000073204D696E00437573746F6D20592D41D2
:10051000786973204D6178004175746F20592D41C1
:10052000786973204D696E004175746F20592D41B3
:10053000786973204D617800C402D804E604F4049D
:1005400006050000536F6172696E67005269736936
:100550006E67204661737400526973696E6700525A
:100560006973696E6720536C6F77005374656164BB
:10057000790046616C6C696E6720536C6F7700463A
:10058000616C6C696E670046616C6C696E672046D1
:1005900061737400506C756D6D6574696E670044AD
:1005A000054C0558055F056B0572057F05870594A9
:1005B000052B002D2D2D2D002B002D2D2D004465FC
:1005C0007374696E6174696F6E20002000200020D2
:1005D0000020002000300020002D002000504D00A1
:1005E000414D00200020002000200020002000209D
:1005F00000200020002000200020002000536E6119
:100600007073686F74200020004F6666004F6E00A4
:10061000536F756E642000436F6E74726173742043
:1006200000560042617474657279200020202020F9
:100630002020746F20756E6C6F636B0020686F6C88
:1006400064205052455620616E64204E4558540037
:100650002000200020002000556E696D706C656DD3
:10066000656E7465640020002000457272200043AE
:100670006C6561722C204472790046616972005584
:100680006E6368616E676564005261696E005374E1
:100690006F726D7900566572792053746F726D793F
:1006A00000436C656172696E6700476F6F64205725
:1006B00065617468657200417070722E2053746FAA
:1006C000726D00506F6F72205765617468657200BB
:1006D000556E6368616E6765640042726965662085
:1006E00053686F77657200556E617661696C6162FF
:1006F0006C6500466F7265636173742000507265AB
:100700007373757265200054656D7020003A002D7A
:100710002D2D2D2D0054696D6520746F2044657357
:100720007420002F6D696E0044657363656E6469A3
:100730006E672000417363656E64696E67200053C5
:100740006561204C6576205072732000537461748B
:10075000696F6E20507273200000000000170003C4
:1007600000031F0A1F0A1F050904120F171C0003AC
:1007700003000E11110E00050205040E04100800FE
:100780000404040010001804031E110F021F0019B6
:10079000151215150A07041F1715091E151D190531
:1007A000031F151F17150F000A00040C04040E1F69
:1007B0000A0A0A1F0E040115030E15161E051E1F38
:1007C000150A0E11111F110E1F15151F05050E1507
:1007D0001D1F041F111F1108100F1F041B1F1010D5
:1007E0001F061F1F0E1F0E110E1F05020E191E1FC2
:1007F0000D16121509011F010F101F0718071F0CF6
:100800001F1B041B031C031915131F1010020408DF
:1008100010101F0406041010100003031A161C1FEA
:10082000120C0C12120C121F0C1A16041E050C2AA4
:100830001E1F021C001D0010201D1F0C12111F1076
:100840001E0E1E1E021C0C120C3E120C0C123E1C24
:100850000202141E0A021F120E101E0E180E1E1C7B
:100860001E120C1206281E1A1F1620504153542027
:1008700000414C544954554445005052455353553A
:1008800052450054454D5000000000000000005F3C
:1008900000000007000700147F147F14242A7F2A19
:1008A00012231308646236495522500005030000E4
:1008B000001C2241000041221C0014083E081408BC
:1008C000083E0808005030000008080808080060CA
:1008D00060000020100804023E5149453E00427F5E
:1008E000400042615149462141454B311814127F65
:1008F0001027454545393C4A4949300171090503EE
:100900003649494936064949291E00363600000055
:100910005636000008142241001414141414004127
:100920002214080201510906324979413E7E111113
:10093000117E7F494949363E414141227F41412252
:100940001C7F494949417F090909013E4149497ACA
:100950007F0808087F00417F41002040413F017F20
:10096000081422417F404040407F020C027F7F04F8
:1009700008107F3E4141413E7F090909063E415131
:10098000215E7F09192946464949493101017F0104
:10099000013F4040403F1F2040201F3F4038403F24
:1009A0006314081463070870080761514945430040
:1009B0007F41410002040810200041417F000402F1
:1009C000010204404040404000060503002054540A
:1009D00054787F4844443838444444203844444898
:1009E0007F3854545418087E0901020C5252523E6A
:1009F0007F0804047800447D40002040443D007F8F
:100A00001028440000417F40007C041804787C08D2
:100A100004047838444444387C141414080814142A
:100A2000187C7C080404084854545420043F444073
:100A3000203C4040207C1C2040201C3C4030403C5E
:100A400044281028440C5050503C4464544C4439C1
:100A5000306D00386800326400604300206D620031
:100A6000206D0060460020696E0020667400200042
:100A700000407A10F35A00A0724E18090010A5D455
:100A8000E80000E87648170000E40B54020000CAB2
:100A90009A3B000000E1F5050000809698000000F8
:100AA00040420F000000A086010000001027000057
:100AB0000000E803000000006400000000000A00DD
:100AC000000000000100000000002C76D888DC67E0
:100AD0004F0823DFC1DFAE59E1B1B796E5E3E45338
:100AE000C63AE651997696E8E6C28426EB898C9B55
:100AF00062ED407C6FFCEFBC9C9F40F2BAA56FA5F5
:100B0000F490055A2AF75C936B6CF9676DC11BFC76
:100B1000E0E40D47FEF520E6B500D0ED902E030091
:100B2000943577050080841E080000204E0A0000DE
:100B300000C80C333333330F986E12831141EF8D9D
:100B40002114893BE65516CFFEE6DB18D1844B38DD
:100B50001BF77C1D901DA4BBE424203284725E220E
:100B60008100C9F124ECA1E53D2711241FBECFEF80
:100B7000D8E0DEBFCDBF12E0A0E0B1E0E2EBFDE6E1
:100B800002C005900D92AC36B107D9F715E0ACE67E
:100B9000B2E001C01D92AE39B107E1F70E94AE1E6E
:100BA0000C94D7362DCA0F931F93809164008E7FCB
:100BB0008093640080917A00806880937A008EE44C
:100BC00080937C0083EF91E00197F1F700C0000073
:100BD00080917A00806480937A0080917A0086FD0B
:100BE000FCCF8091780090E0A0E0B0E040917900E7
:100BF000342F20E0442737FD4095542F282B392BE4
:100C00004A2B5B2B80917A008F7780937A008091BA
:100C1000640081608093640060E070E381E190E0B3
:100C20000E949B33B901CA011F910F91089580E87A
:100C300096EEA5ECB7E480939A0290939B02A09362
:100C40009C02B0939D020895CF93DF933B9A439803
:100C500089EF90E00197F1F700C00000439A83EC20
:100C600099E00197F1F700C0000080E896EEA5EC4E
:100C7000B7E480939A0290939B02A0939C02B09356
:100C80009D020E94DD228EEE0E94DA22C0E8D2E0B0
:100C90008AEA90E066E170E0AE010E94E3228823D8
:100CA00059F08881998198838983229692E0C63988
:100CB000D907B9F781E001C080E0DF91CF910895B5
:100CC000A2E0B0E0E6E6F6E00C94C63384EF90E0F4
:100CD0006EE20E94782381EE94E00197F1F700C064
:100CE000000086EF90E062E070E0AE014F5F5F4F82
:100CF0000E94E322882339F0998180E02A8130E044
:100D0000282B392B02C020E030E0C9012296E2E016
:100D10000C94E233A3E0B0E0E0E9F6E00C94C633D3
:100D200084EF90E064EF0E94782383E699E10197D5
:100D3000F1F700C0000086EF90E063E070E0AE01E4
:100D40004F5F5F4F0E94E322882319F1298130E031
:100D500040E050E0A901332722278A8190E0A0E0FB
:100D6000B0E0BA2FA92F982F8827282B392B4A2B90
:100D70005B2B8B8190E0A0E0B0E0282B392B4A2B35
:100D80005B2B85E056954795379527958A95D1F742
:100D900003C020E030E0A901B901CA012396E2E0D6
:100DA0000C94E233EF92FF920F931F93BC0180E00B
:100DB00090E020918A0230918B0240E050E0621B6B
:100DC000730B840B950B209188023091890240E0CF
:100DD00050E00E9427337B018C01AFE01595079509
:100DE000F794E794AA95D1F76091920270919302DB
:100DF000882777FD8095982FFBE0660F771F881F67
:100E0000991FFA95D1F720919402309195024427C9
:100E100037FD4095542F2E0D3F1D401F511F0E943E
:100E20009B332E0D3F1D401F511F20939602309380
:100E300097024093980250939902285F3F4F4F4F7B
:100E40005F4FE4E05595479537952795EA95D1F79B
:100E5000C9011F910F91FF90EF900895A4E0B0E0B9
:100E6000E4E3F7E00C94B63369837A838B839C8345
:100E700060909602709097028090980290909902EC
:100E800080E690EFAFEFBFEF680E791E8A1E9B1EC3
:100E9000C401B301A40193010E9427331B012C015B
:100EA0006091840270918502882777FD8095982F44
:100EB0000E9427337B018C014DE015950795F7942F
:100EC000E7944A95D1F782E090E0A0E0B0E0E80E28
:100ED000F91E0A1F1B1FC201B1013CE095958795C1
:100EE000779567953A95D1F720918C0230918D02D4
:100EF000442737FD4095542F0E942733BC01992782
:100F000077FD9095892FE60EF71E081F191FB2E096
:100F100015950795F794E794BA95D1F780E090E896
:100F2000A0E0B0E0E80EF91E0A1F1B1F2091860208
:100F30003091870240E050E0C801B7010E9427339A
:100F40005B016C01AFE0D694C794B794A794AA95BF
:100F5000D1F720918E0230918F02442737FD4095C2
:100F6000542FC201B1010E9427337B018C01F7E1AC
:100F700015950795F794E794FA95D1F76091820259
:100F800070918302882777FD8095982FA4019301A3
:100F90000E942733EBE09595879577956795EA95BD
:100FA000D1F7E60EF71E081F191F8091800290915D
:100FB0008102AA2797FDA095BA2F72E0880F991F8A
:100FC000AA1FBB1F7A95D1F7E80EF91E0A1F1B1F37
:100FD000EE0CFF1C001F111F89819A81AB81BC811F
:100FE0008E199F09A00BB10BBC01CD012AE638E197
:100FF00040E050E00E94273397FD0BC0660F771F3B
:10100000881F991FA60195010E94793379018A01F1
:101010000AC0A60195010E94793379018A01EE0C7C
:10102000FF1C001F111F552717FD5A95412F302F08
:101030002F2DCA01B9010E9427332EED3BE040E07D
:1010400050E00E9427335B016C01C801B70123E423
:1010500033EE4FEF5FEF0E9427339C01552737FD9A
:101060005095452F2153314F4F4F5F4F5601DD248F
:10107000B7FCD094CD2C2A0D3B1D4C1D5D1DB4E05A
:101080005595479537952795BA95D1F72E0D3F1D64
:10109000401F511FB901CA012496E2E10C94D233DA
:1010A00020919A0230919B0240919C0250919D02A6
:1010B0000E94383021EB3CED42E45EE30E94C231F5
:1010C000562F472F382F292F60E070E080E89FE3EC
:1010D000DA01F9012B2F3A2F4F2F5E2F0E94D32FC9
:1010E00020E03AE24DE257E40C945F31EF92FF9238
:1010F0000F931F937B018C01CA01B90120E03AE2F2
:101100004DE257E40E9438309B01AC0160E070E092
:1011100080E89FE30E94D32F26EF38E248EA50E4AC
:101120000E94C231562F472F382F292FC801B701EF
:10113000DA01F9012B2F3A2F4F2F5E2F0E94383002
:101140001F910F91FF90EF9008959C01862FF90158
:1011500001900020E9F73197E21BF30BE20FF31F38
:101160006A3010F490E3919390E0BF014AE050E0C0
:101170000C944034FF920F931F938C01F62EE42FB2
:10118000F0E0EE0FFF1FEE5BFE4F25913491C8019A
:10119000B9010E941F34C8016CE671E00E9414344A
:1011A000C8016F2DD2DFC8011F910F91FF900895E4
:1011B000CF92DF92EF92FF921F93DF93CF930F9224
:1011C000CDB7DEB76C01162FFC011082662341F00B
:1011D0006C3031F0862F6CE00E944633692F01C0DD
:1011E0006CE0C6014983B1DFC6016AE671E00E9486
:1011F0001434C6014981642FA8DF1C3018F468E656
:1012000071E002C066E671E0C6010E941434C601B6
:101210000F90CF91DF911F91FF90EF90DF90CF90D3
:101220000895CF92DF92EF92FF921F93DF93CF93B7
:1012300000D0CDB7DEB76C01162FFC0110826623FB
:1012400041F06C3031F0862F6CE00E944633692FFC
:1012500001C06CE0C6012A83498377DFC60164E6DA
:1012600071E00E941434C6014981642F6EDFC6010B
:1012700062E671E00E941434C6012A81622F65DFA4
:101280001C3018F460E671E002C06EE571E0C60142
:101290000E941434C6010F900F90CF91DF911F91DF
:1012A000FF90EF90DF90CF900895EF92FF920F9311
:1012B0001F93CF93DF93EC019B018FB7F8941091AC
:1012C000A7020091A602F0909F0240919E02E0903A
:1012D000A1028FBFCB016CE370E00E945233181B58
:1012E0001C3310F00150145CC9016CE370E00E94E3
:1012F00052339B01CB0168E170E00E945233081B1E
:10130000083110F0FA94085E8E2D837011F48DE18F
:1013100001C08CE180930201FF2041F4415009F4A7
:101320004CE0E42FF0E0E050FF4FF080C90168E1AD
:1013300070E00E9452339B010FC021503040FA945C
:101340008F2D81508F3140F0415009F44CE0E42F53
:10135000F0E0E050FF4FF0802115310571F7CE012C
:101360006F2D08DFCE016CE571E00E9414347E0120
:10137000EC2FFF2DDF010D900020E9F7CD01019743
:101380008E1B9F0B8C0F9D1F602F412F11DFCE01F5
:10139000CDB7DEB7E6E00C94DE331092A10281E017
:1013A00080939E0280939F021092A6021092A70241
:1013B0001092A00208958091A2029091A302A091A0
:1013C000A402B091A5020196A11DB11D8093A202B5
:1013D0009093A302A093A402B093A5028091A202CD
:1013E0009091A302A091A402B091A5028370907085
:1013F000A070B0700097A105B10509F051C08091AF
:10140000A0028F5F8093A0028091A0028C3309F02C
:1014100047C01092A0028091A7028F5F8093A7021D
:101420008091A7028C33E1F51092A7028091A60269
:101430008F5F8093A6028091A602883189F5109271
:10144000A60280919F028F5F80939F028091A102EC
:10145000837011F48DE101C08CE180930201209131
:101460009F02E0919E0230E0F0E0E050FF4F80816B
:1014700090E001962817390799F491E090939F0224
:1014800080919E028F5F80939E0280919E028D309C
:1014900039F490939E028091A1028F5F8093A10204
:1014A0000895A7E1B0E0E7E5FAE00C94BA33E091E3
:1014B0007002F0E0EE0FFF1FE85FFD4F808091802B
:1014C00020E001C02F5F622E7724F301EE0FFF1F93
:1014D000E80DF91D859194910097A1F700E010E0C7
:1014E0006E010894C11CD11CD5C080917602F80110
:1014F000E80FF11DEE0FFF1FE80DF91D8591949186
:10150000E82EF92E809170028130A1F4809176024C
:101510009801280F311D2230310561F48091BD0200
:101520009091BE023FE78F3F930721F040E4E42E05
:1015300043E0F42E809170028A30D1F58091AC02A4
:10154000823029F0E1E0843019F4E0E001C0E2E00B
:10155000809176029801280F311D2330310589F4DE
:10156000AE2FB0E0AA0FBB1FA852BD4F8D919C912A
:1015700011973FE78F3F930721F028E1E22E25E006
:10158000F22E809176029801280F311D243031050A
:1015900079F4F0E0EE0FFF1FE453FD4F808191815D
:1015A0003FE78F3F930721F088E2E82E85E0F82E91
:1015B000A02EB02EB39480E06B2D0E94E72340E074
:1015C00090917602809173029801290F311D90E06D
:1015D0002817390711F46FE701C060E081E04F8BF5
:1015E0000E94D2234F894F5F443551F784E06B2D21
:1015F0000E94E723C601B70145E150E00E9426346E
:1016000090917602809173029801290F311D90E02C
:1016100061E02817390709F060E0C6010E94232421
:10162000AA2091F480917602882379F180E56B2DD0
:101630000E94E723909176028091730261E09813F3
:1016400060E08DE091E01FC08A2D8430F1F480913C
:10165000760290E00196800F911F86159705A9F0FC
:1016600080E56B2D0E94E7239091760280917302B2
:101670009801290F311D90E061E02817390709F022
:1016800060E08FE091E00E9423240F5F1F4F053040
:10169000110549F0809176029801280F311D261519
:1016A00037050CF422CF6796EEE00C94D63381E038
:1016B0000E949E2F809173028F5F809373028091AE
:1016C0007302873019F58FB7F8949091B202909316
:1016D000A0029091B8029093A7029091C2029093B9
:1016E000A6029091C10290939F029091B0029093B4
:1016F0009E029091AF029093A1028FBF88E08093E9
:1017000070021092720281E080936C0208959091B1
:10171000AF02937011F49DE101C09CE12091B002F1
:10172000223099F09091B002943061F09091B00223
:10173000963041F09091B002993021F09091B00232
:101740009B3011F49EE101C09FE13091C2022091D3
:101750007302233009F450C0243030F4213051F1A9
:10176000223008F043C00AC0253009F484C0253077
:1017700008F467C0263009F0B7C097C09091B00256
:10178000980F9093B0028091B0028150813F20F079
:101790008091B002845F0BC08091B00281508C3088
:1017A00020F08091B0028C5002C08091B0028093F2
:1017B000B00208952091C102280F2093C1028091A8
:1017C000C1028150813F20F08091C102890F0BC07E
:1017D0008091C1028150891720F08091C102891B3C
:1017E00002C08091C1028093C10208959091AF021E
:1017F000980F9093AF0208959091C202980F909322
:10180000C2023C3048F08091C2028C50813F40F4CB
:101810008091C2028C500AC08091C202813F20F0A8
:101820008091C202845F0AC08091C2028C3020F095
:101830008091C2028C5002C08091C2028093C20289
:1018400008959091B802980F9093B8028091B802D1
:10185000813F20F08091B802845C0AC08091B80278
:101860008C3320F08091B8028C5302C08091B80272
:101870008093B80208959091B202980F9093B202AB
:101880008091B202813F20F08091B202845C0AC054
:101890008091B2028C3320F08091B2028C5302C04E
:1018A0008091B2028093B2020895813021F4809138
:1018B000C202845F03C08091C2028C508093C20236
:1018C0008091C202813F20F08091C202885E0AC0EE
:1018D0008091C202883120F08091C202885102C0FA
:1018E0008091C2028093C2020895E0917002E09359
:1018F000AC027093B5026093B4029093B7028093E8
:10190000B6025093BC024093BB023093C0022093B6
:10191000BF021092AE021092AD028CE08093700272
:101920000895EF92FF920F931F9381E00E949E2FE4
:101930008091AC02883051F480917302833009F0B9
:1019400042C18091BB028093B1023DC1813009F058
:101950007CC0809137028823E1F46091BB027091D2
:10196000BC02882777FD8095982F0E94D33020E015
:1019700030E040E05FE30E94D42F25E83BEE41E5F4
:1019800050E40E945F310E94A0307093BC026093CB
:10199000BB0280917302813021F0823009F013C1C3
:1019A0004BC06091E1027091E2028091E30290915C
:1019B000E4020E94D3307B018C016091BB027091E4
:1019C000BC02882777FD8095982F0E94D3302FEB9B
:1019D0003EE04CE95EE30E945F319B01AC01C8012F
:1019E000B70184DB60939A0270939B0280939C0200
:1019F00090939D026091E1027091E2028091E30276
:101A00009091E4020E94D3304BDB25E83BEE41E5A8
:101A100050E40E945F316093E7027093E802809384
:101A2000E9029093EA028091BB029091BC029093EC
:101A3000EC028093EB02C7C08091BB029091BC0284
:101A40009093BE028093BD02BEC08091B3028230EB
:101A5000D1F5809137028823E1F46091BB02709147
:101A6000BC02882777FD8095982F0E94D33020E014
:101A700030E040E05FE30E94D42F25E83BEE41E5F3
:101A800050E40E945F310E94A0307093BC026093CA
:101A9000BB0280917302833019F0843091F409C045
:101AA0008091BB029091BC029093DD028093DC0296
:101AB00008C08091BB029091BC029093D1028093A8
:101AC000D00282E07EC0843009F043C080913702AA
:101AD000882359F08091BB029091BC02880F991F16
:101AE0009093BC028093BB021AC08091BB0290917C
:101AF000BC029C01220F331FC901F3E0880F991F1C
:101B0000FA95E1F7820F931F029665E070E00E945C
:101B10006633605C7F4F7093BC026093BB02809120
:101B20007302833019F0843091F409C08091BB02B4
:101B30009091BC029093D9028093D80208C0809102
:101B4000BB029091BC029093CD028093CC0284E0C2
:101B500038C08630C1F5809137026091BB02709128
:101B6000BC02882379F0882777FD8095982F0E9402
:101B7000D33020EA34E747E852E40E945F310E9404
:101B8000A03002C0660F771F7093BC026093BB0247
:101B900080917302833019F0843091F409C08091F0
:101BA000BB029091BC029093DB028093DA0208C0E2
:101BB0008091BB029091BC029093CF028093CE02A1
:101BC00086E08093AC028091AC0280937002109208
:101BD000720281E080936C021F910F91FF90EF9051
:101BE0000895282F30E04091BB025091BC0287FD40
:101BF00007C0240F351F3093BC022093BB0209C0DD
:101C0000CA0180509140820F931F9093BC02809331
:101C1000BB028091B6029091B7022091BB02309135
:101C2000BC022817390724F49093BC028093BB02AE
:101C30008091B4029091B5022091BB023091BC0218
:101C40008217930724F49093BC028093BB02809187
:101C5000AC028830E9F580917302853069F4809197
:101C6000BB02855E80688093D70280E061E20E94BB
:101C7000D2236091D7020FC080917302863091F415
:101C80008091BB0280618093CB0280E061E20E9480
:101C9000D2236091CB0280E00E94D22380E060E2F8
:101CA0000C94D22380917302873091F48091BB020F
:101CB00084608093D60280E061E20E94D22360912A
:101CC000D60280E00E94D22380E060E20C94D2230E
:101CD0000895209170022093AC029093AB02809300
:101CE000AA027093A9026093A8025093BA0240938B
:101CF000B902109275028DE0809370020895909160
:101D0000750281E0891B809375020895CF93DF935C
:101D100080917002883009F07FC08091730290E05A
:101D200001978930910508F0D7C28C5C9F4FFC0168
:101D30000C94ED338BE080937002109273028FB796
:101D4000F8949091A0029093B2029091A702909380
:101D5000B8029091A6029093C20290919F02909334
:101D6000C10290919E029093B0029091A102909333
:101D7000AF028FBFB1C281E191E062E171E04BE15E
:101D800051E0A7DF9091370281E0992309F441C027
:101D900080E03FC04091B10280E090E068E770E0F1
:101DA00050E022E231E097C24091D70250E04F77F5
:101DB00050704B51504080E090E064E670E013C0FA
:101DC0004091CB0250E04770507080E090E067E0B7
:101DD00070E009C04091D60250E04370507080E03E
:101DE00090E063E070E020E030E075C284E291E0D2
:101DF00062E371E045E351E06CDF6EC281E191E0A6
:101E000069E371E04CE351E064DF90916B0281E0A3
:101E1000891B8093750260C220917002213009F005
:101E200097C080917302813021F0823009F054C252
:101E300050C06091E7027091E8028091E9029091B0
:101E4000EA0220E030E040E05FE30E94D42F0E94ED
:101E5000A030AB01BC01809137028823A1F4BA0104
:101E6000882777FD8095982F24E630E040E050E009
:101E70000E94273328E431E040E050E00E949B3389
:101E8000832F422F582FE091370280913702A09183
:101E90003702F0E0EE0FFF1FEC5AFD4FC82FD0E0E5
:101EA000CC0FDD1FC05ADD4F68817981B0E0AA0FE9
:101EB000BB1FA85BBD4F2D913C912F5F3F4F808191
:101EC000918113DD80E491E09093AE028093AD02A6
:101ED00003C28091BD029091BE02FFE78F3F9F0732
:101EE00059F08FEF9FE79093BE028093BD0210924E
:101EF000720220936C02F0C16091E7027091E802D7
:101F00008091E9029091EA0220E030E040E05FE356
:101F10000E94D42F0E94A030AB01BC0180913702F7
:101F2000882309F06FC1BA01882777FD8095982F23
:101F300024E630E040E050E00E94273328E431E01E
:101F400040E050E00E949B33832F422F582F5AC10C
:101F500080917002882349F5809173028150863008
:101F600008F0BAC181E00E949E2F80917002809398
:101F7000AC02809173028093740289E080937002B6
:101F8000E0917302F0E0EE53FD4F80818093730285
:101F900080917302853030F0809173028450809379
:101FA00076025EC1109276025BC180917002893028
:101FB00001F5E0917402F0E080917302EE53FD4F61
:101FC00080838091AC028093700280917402809330
:101FD000730280917302853030F0809173028450D7
:101FE0008093760202C01092760281E080937202A2
:101FF00038C1809170028730A9F4809173028130DA
:1020000039F0823009F068C181E080936E0227C008
:10201000809172028F5F809372021092760210920A
:1020200073025AC1809170028A3009F055C1209123
:10203000AC022093B30280917302823099F0833016
:1020400020F4813009F048C106C0833021F184308A
:1020500009F042C168C08093770220937002109209
:102060007202FFC081E191E066E571E04CE551E06C
:1020700030DE8091B302843019F48091DE02C9CE43
:10208000823019F48091E002C4CE863009F024C178
:102090008091DF02BECE2430C9F48091D8029091A5
:1020A000D9022FE78F3F920761F08FEF9FE7909360
:1020B000D9028093D8021092720284E08093700259
:1020C000CFC04091D2025091D30243C02230A1F43C
:1020D0008091DC029091DD023FE78F3F930739F05A
:1020E0008FEF9FE79093DD028093DC02B5C04091B3
:1020F000D2025091D30271C0263009F0EDC0809118
:10210000DA029091DB02EFE78F3F9E0739F08FEF05
:102110009FE79093DB028093DA029EC04091D20247
:102120005091D302A5C0243009F041C08091CC0267
:102130009091CD02FFE78F3F9F0739F08FEF9FE728
:102140009093CD028093CC0287C04091D4025091ED
:10215000D50280913702882371F4CA01880F991F34
:10216000880F991F840F951F805A904069E070E096
:102170000E946633AB01E091370280913702A09153
:102180003702F0E0EE0FFF1FE05BFD4FC82FD0E0FD
:10219000CC0FDD1FC45ADD4F68817981B0E0AA0FF2
:1021A000BB1FAC5BBD4F2D913C91119792C022306B
:1021B00009F041C08091D0029091D1023FE78F3F5A
:1021C000930739F08FEF9FE79093D1028093D0026D
:1021D00043C04091D4025091D502809137028823A8
:1021E00089F4BA01882777FD8095982F0E94D33013
:1021F0002FEB3EE04CE95EE30E945F310E94A0308D
:10220000AB01BC01E091370280913702A091370207
:10221000F0E0EE0FFF1FEC5AFD4FC82FD0E0CC0FBF
:10222000DD1FC05ADD4F68817981B0E0AA0FBB1F66
:10223000A85BBD4F4AC0263009F04EC08091CE0247
:102240009091CF02EFE78F3F9E0771F08FEF9FE7EE
:102250009093CF028093CE0210927202209370026C
:1022600081E080936C0238C04091D4025091D50235
:1022700080913702882389F4BA01882777FD8095F9
:10228000982F0E94D33020EA34E747E052E40E94BE
:102290005F310E94A030AB01BC01E0913702809118
:1022A0003702A0913702F0E0EE0FFF1FEE5AFD4F0C
:1022B000C82FD0E0CC0FDD1FC25ADD4F6881798175
:1022C000B0E0AA0FBB1FAA5BBD4F2D913C912F5FC1
:1022D0003F4F8081918109DBDF91CF910895E0919B
:1022E0007002F0E0EE0FFF1FE85FFD4F20813181AB
:1022F00090E001C09F5FE92FF0E0EE0FFF1FE20FBB
:10230000F31F4591549141155105A1F72091730296
:10231000280F2093730280917302891719F4109289
:10232000730207C0809173028F3F19F4915090930C
:1023300073029091730280917602981728F480912D
:102340007302809376020895209173028091760241
:1023500030E090E00496821793072CF4809173028A
:10236000845080937602089584E18093B1028FEFC8
:102370009FE79093BE028093BD0282E08093C302E8
:1023800081E08093C4028CE08093C50293E0909337
:10239000C6028093C70288E08093C80208951F9305
:1023A00081E00E949E2F8091AC028830D9F5809107
:1023B0007302843031F1853020F4823009F04AC054
:1023C00027C0883059F0893009F044C080917502E7
:1023D000813009F03FC080936D023CC010917502BE
:1023E0001130C1F50E94DD24BFDF10936B0283E042
:1023F000809337020E9417061092EC021092EB02B3
:1024000029C09091750281E0891B80936B0222C0E4
:1024100090917502892F880F890F81958D5F809328
:10242000370218C08091B302823029F4909175026E
:102430009093E0020DC0843029F49091750290933E
:10244000DE0206C0863031F4909175029093DF026F
:102450008093AC028091AC02809370021092720261
:1024600081E080936C021F910895EF92FF920F9389
:102470001F93CF93DF9380E00E946A2A682F6B50EE
:10248000653508F06C5A80E00E947B2AFC0182814D
:102490008695869586959381292F2295220F207EF9
:1024A000E22EE82AE7017E01969596959695F92EFB
:1024B000E7012097E1F16091E7027091E8028091D5
:1024C000E9029091EA0220E030E048EC52E40E94F8
:1024D0005F310E94A0307B018C0180EA9CE1A2E088
:1024E000B0E0E80EF91E0A1F1B1FBE0180E090E05D
:1024F00028EC30E040E050E00E942733E61AF70A6B
:10250000080B190BC801B7012AE030E040E050E0A9
:102510000E949B332E5C3F4F4F4F5F4FCA01B90162
:1025200024E630E040E050E00E949B3304C02FEFEF
:102530003FEF4FEF5FE7B901CA01CDB7DEB7E6E085
:102540000C94DE3380E00E946A2A682F6D53653553
:1025500008F06C5A80E00E947B2AFC01808188236D
:1025600089F02091E5023091E602442737FD40953D
:10257000542F2C5E3F4F4F4F5F4F281B31094109AD
:10258000510904C02FEF3FEF4FEF5FE7B901CA01D8
:102590000895EF92FF920F931F9380E00E946A2AA2
:1025A000682F6D53653508F06C5A80E00E947B2AD5
:1025B000FC0161818281782F777061157105E9F0E6
:1025C000E090E102F090E2020091E3021091E40257
:1025D00080EE91EBAFEFBFEFE80EF91E0A1F1B1F55
:1025E00080E090E022E330E040E050E00E942733BA
:1025F000E61AF70A080B190B08C06FEFE62E6FEF0B
:10260000F62E6FEF062F6FE7162FB701C8011F9147
:102610000F91FF90EF900895EF92FF920F931F9309
:1026200081E00E946A2A682F6C54653508F06C5A64
:1026300081E00E947B2AFC0161818281782F777082
:102640006115710529F1E090E102F090E20200913C
:10265000E3021091E40280EE91EBAFEFBFEFE80EE2
:10266000F91E0A1F1B1F80E090E022E330E040E0EB
:1026700050E00E942733E61AF70A080B190BC8012D
:10268000B70125E030E040E050E00E949B3304C0F9
:102690002FEF3FEF4FEF5FE7B901CA011F910F9195
:1026A000FF90EF9008956F3F2FEF72072FEF820793
:1026B0002FE79207D9F1693C71058105910574F501
:1026C00069377105810591055CF5663371058105F2
:1026D000910544F516161706180619062CF1611512
:1026E00071058105910511F16B3C2FEF72072FEFFA
:1026F00082072FEF9207E4F468382FEF72072FEF6D
:1027000082072FEF9207B4F468332FEF72072FEF91
:1027100082072FEF920784F087E0089580E0089504
:1027200081E0089582E0089583E0089584E00895AB
:1027300085E0089586E0089588E00895AAE0B0E075
:10274000E4EAF3E10C94BC338C0170E0615070401A
:102750006C30710508F062C2635C7F4FFB010C9422
:10276000ED33DC011C926DC24091E5025091E6020E
:1027700060E015C06091E7027091E8028091E90283
:102780009091EA0220E030E040E05FE30E94D42F25
:102790000E94A0309B01AC01C80162E0A9010E9427
:1027A000DA2D4FC26CE477E00E941F34D8010D90FF
:1027B0000020E9F77D010894E108F108E01AF10A28
:1027C0006091E1027091E2028091E3029091E40253
:1027D000675E7F4F8F4F9F4F22E330E040E050E035
:1027E0000E949B33C8018E0D9F1D44C06FE377E0AC
:1027F0000E941F34E090EB02F090EC026091E10245
:102800007091E2028091E3029091E4020E94D33041
:102810004B015C01B701882777FD8095982F0E94B6
:10282000D3302FEB3EE04CE95EE30E945F319B0129
:10283000AC01C501B4010E947608D8010D900020BA
:10284000E9F77D010894E108F108E01AF10AE00EC9
:10285000F11E20E030E048EC51E40E94D42F20E04B
:1028600030E048E452E40E9438300E94A0309B01DE
:10287000AC01C70161E092CFF8DD6B017C0197FDEF
:102880000FC0C80164E377E00E941F34BFEFCB168E
:10289000BFEFDB06BFEFEB06BFE7FB0639F009C071
:1028A000C80168E277E00E941F3403C0CC24DD2415
:1028B0007601D8010D900020E9F7CD010197801B2A
:1028C000910B800F911F62E0A6010E94DA2DC801D2
:1028D00063E277E04EC1C9DD4B015C01C80165E1EF
:1028E00077E00E941F34C090BD02D090BE0260917C
:1028F000E7027091E8028091E9029091EA02BFEF4D
:102900008B16BFEF9B06BFEFAB06BFE7BB0671F1AF
:102910002091BD023091BE02EFE72F3F3E0731F11B
:10292000EE24D7FCE094FE2C0E94A030C61AD70AF1
:10293000E80AF90AC501B40122E030E040E050E0C5
:102940000E949B33C20ED31EE41EF51EC701B601C2
:10295000A50194010E949B3357FD08C02438F9E07B
:102960003F07F0E04F07F0E05F0724F0C8016FE099
:1029700077E0FFC0CA01B9012CE330E040E050E04D
:102980000E949B33E62EC801622F0E94A508C80151
:102990006DE077E00E941434C8016E2D0E94A508F6
:1029A00050C167E077E00E941F34CCDD6F307105C5
:1029B00081059105ACF569307105810591050CF033
:1029C00032C163307105810591050CF02EC11616D8
:1029D0001706180619060CF42AC161157105810540
:1029E000910509F426C16E3F2FEF72072FEF820782
:1029F0002FEF92070CF01FC1683F4FEF74074FEFA6
:102A000084074FEF94070CF018C1623FAFEF7A07CD
:102A1000AFEF8A07AFEF9A070CF011C1E8E009C0E9
:102A20006F3FBFEF7B07BFEF8B07BFE79B0749F007
:102A3000E0E0F0E0EE0FFF1FE156FA4F25913491F0
:102A400013C0E7EAF5E0259134910EC06DEF76E012
:102A50000E941F349EDD27DE90E0880F991F81566B
:102A60009A4FFC0125913491C801B90182C063EFEE
:102A700076E00E941F348DDD6B017C0114DE8987B6
:102A8000CBDD4B015C010FDE282F3985EFEFCE1631
:102A9000EFEFDE06EFEFEE06EFE7FE0649F0FFEFA1
:102AA0008F16FFEF9F06FFEFAF06FFE7BF0621F48B
:102AB000C80167EE76E05DC0832F8750823030F426
:102AC000263060F4C8016AED76E053C0353031F449
:102AD000253021F4C80160ED76E04BC0932F95506E
:102AE000923040F4822F8550823060F4C80163EC4C
:102AF00076E03FC0373030F0263020F0C80167EB79
:102B000076E037C0832F8250823040F4422F42500B
:102B1000423090F4C8016AEA76E02BC0323030F4DB
:102B2000223050F0C80161EA76E023C0383021F449
:102B3000C80165E976E01DC0373021F4C8016EE8B0
:102B400076E017C0923020F4C80169E876E011C041
:102B5000343021F4C8016FE776E00BC0823020F4F6
:102B6000C8016AE776E005C0323030F4C8016FE68C
:102B700076E00E94143465C0C8016AE676E02A87D0
:102B800039870E941434D8010D900020E9F7BD0167
:102B900061507040601B710B600F711F3985832F6E
:102BA00090E04AE050E00E944034C80168E676E0D8
:102BB0000E941434D8010D900020E9F7BD01615046
:102BC0007040601B710B600F711F2A85822F90E08F
:102BD0004AE050E00E94403434C06091A602409127
:102BE000A7022091A0020E9411092BC060919F02B0
:102BF00040919E020E94BA08C80166E676E00E94F3
:102C000014346091A6024091A702CE0101960E9461
:102C1000D808BC01C8010E94353413C068E576E0CD
:102C20000E941F340EC0E1E004CFE2E002CFE3E0F7
:102C300000CFE4E0FECEE5E0FCCEE6E0FACEE7E051
:102C4000F8CE2A96ECE00C94D833AF92BF92CF9294
:102C5000DF92FF920F931F93DF93CF930F92CDB725
:102C6000DEB75C01CB01BA012CE330E040E050E07C
:102C70000E947933F62ECA01B90128E130E040E024
:102C800050E00E947933162FCA01B901B5E096953C
:102C9000879577956795BA95D1F7022F0F712DE03B
:102CA00030E040E050E00E947933462FC501602FAC
:102CB00029830E94BA08C50166E576E00E941434B3
:102CC000D5010D900020E9F7BD01615070406A19EF
:102CD0007B092981822F90E06A0D7B1D8053984FDC
:102CE0004AE050E00E944034C50164E576E00E946D
:102CF0001434D5010D900020E9F7CD0101978A1910
:102D00009B098A0D9B1D612F4F2D0E94D8080F90A3
:102D1000CF91DF911F910F91FF90DF90CF90BF90E7
:102D2000AF900895EF92FF920F931F93CF93DF938D
:102D3000EC018B01DB0112968C911297869586959A
:102D4000869513969C91292F2295220F207E422F43
:102D5000482B592F569556955695445B5240CE01B7
:102D600062E00E94F22DCE0162E576E00E9414340A
:102D70007E01EC2FFF2DDF010D900020E9F7CD0142
:102D800001978E1B9F0BF801408150E04451504049
:102D90008C0F9D1F60E00E94F22DCE0160E576E071
:102DA0000E941434EC2FFF2DDF010D900020E9F775
:102DB000CD0101978E1B9F0BF80141812281522F7B
:102DC000577040575E4F8C0F9D1F61E00E94AF2DE2
:102DD000CDB7DEB7E6E00C94DE33A6E1B0E0E3EF7A
:102DE000F6E10C94B6330E944D2C482E55240E94D7
:102DF000822CFC0180819181A281B3810097A10581
:102E0000B10551F480E062E00E94E72383E691E09F
:102E100060E00E94232439C10E94AC2C00E010E045
:102E20006E010894C11CD11C282E3324A02EB02E74
:102E3000B39480E06B2D0E94E723809176027201AB
:102E4000E81AF108E01AF10AF7FE04C00E94AA2C61
:102E5000E80EF11C8E2D0E94822CFC016080718096
:102E600082809380611471048104910409F4DAC0B2
:102E700090917602809173029801290F311D90E0A4
:102E80002817390711F46FE701C060E081E00E9464
:102E9000D223C7010196B6014AE050E00E944034B7
:102EA00090917602809173029801290F311D90E074
:102EB00061E02817390709F060E0C6010E94232469
:102EC000F60101900020E9F73197EE2EEC18909171
:102ED0007602809173029801290F311D90E0281726
:102EE000390711F46FE501C060E281E00E94D2234E
:102EF00090917602809173029801290F311D90E024
:102F00002817390711F46FE701C060E081E00E94E3
:102F1000D22390917602809173029801290F311D7E
:102F200090E02817390711F46FE701C060E081E0F5
:102F30000E94D223C601B401A30187DE90917602DC
:102F4000809173029801290F311D90E061E02817EC
:102F5000390709F060E0C6010E942324F6010190C0
:102F60000020E9F73197EC19FD09FF240894E11CD2
:102F7000F11CEE0EFF1EEE0CEE0C12C090917602CC
:102F8000809173029801290F311D90E028173907AD
:102F900011F46FE701C060E081E00E94D223E39466
:102FA000FE2DF43558F3AA2091F4809176028823FF
:102FB00099F180E56B2D0E94E72390917602809134
:102FC000730261E0981360E08DE091E023C08A2DE8
:102FD000833011F58091760290E00196800F911F69
:102FE00082159305C9F0809173028F3FA9F080E5A7
:102FF0006B2D0E94E72390917602809173029801D5
:10300000290F311D90E061E02817390709F060E0D1
:103010008FE091E00E9423240F5F1F4F04301105C1
:1030200009F004CF80917302481A510857FE04C07A
:103030000E94AA2C480E511C842D0E94822C8C01C7
:1030400080E065E00E94E72381E061E00E94D223F6
:10305000B8016C5F7F4F8E010F5F1F4FC80162DEAA
:10306000C8010E947F24F80101900020E9F7319700
:10307000E01BF10B0E2F000F000F04C081E061E098
:103080000E94D2230F5F0435C8F36696E2E10C94E8
:10309000D2331F93182F0E94AC2C90917302910F82
:1030A0009093730290917302981719F4109273021F
:1030B00007C0909173029F3F19F48150809373026F
:1030C0009091730280917602981718F480917302A0
:1030D0000DC0209173028091760230E090E003965B
:1030E000821793072CF480917302835080937602A9
:1030F0001F91089581E00E949E2F1092720281E03C
:1031000080936C020895AEE1B0E0E9E8F8E10C9438
:10311000BE3380917A02882371F180E060E00E94E2
:10312000E72300E010E009C0F801E259FE4F649186
:1031300081E00E94D2230F5F1F4F21E0003512076C
:1031400099F780E064E00E94E7238E01085F1F4F3B
:10315000C8016CE376E00E941F34C80160E00E9461
:10316000232480E065E00E94E723C8016CE276E05A
:103170000E941F3473C180917002882309F06EC0D1
:1031800080917202882309F066C000E010E048E0F8
:10319000E42EF12CEC0EFD1EC02EF801ED53FD4F78
:1031A0006081C701CBDA1E8A80E0602F0E94E7238E
:1031B00090E081E060E09E8F0E94D2239E8D9F5F11
:1031C0009435B9F7F70101900020E9F73197EE192E
:1031D0008E2F880F8E0F8195865D6C2D0E94E723C0
:1031E000C7010E9410240F5F1F4F02301105A1F686
:1031F00000E010E038E0E32EF12CEC0EFD1E22E0A2
:10320000C22EC00EF801EB53FD4F6081C70196DA64
:103210001D8E80E06C2D0E94E72394E5A92E81E0AD
:1032200060E00E94D223AA94D1F7F7010190002018
:10323000E9F731978E2D8E1B880F865D6C2D0E94CD
:10324000E723C70160E00E9423240F5F1F4F043073
:103250001105A9F67FC581E791E078C580917002DC
:103260008A30D1F48091AC02843021F0863021F490
:1032700081E003C080E001C082E060917102909122
:10328000720241E0911140E00E9476268091720224
:10329000813009F05FC55CC580917002883009F00B
:1032A000E2C08091720261E0811160E083E891E008
:1032B0000E94F82580917202882309F049C561E0D7
:1032C0000E94E7238AE891E060E00E94232488E0DE
:1032D000E82EF12CEC0EFD1EC7016EEB72E00E9491
:1032E0001F34C70160E00E9423240E94D3055B01C4
:1032F0006C0185E090E0A0E0B0E0A80EB91ECA1E07
:10330000DB1EC70163E276E00E941F34D7010D90F7
:103310000020E9F78D01015010400E191F09C60168
:10332000B5012AE030E040E050E00E949B33CA0142
:10333000B9010E94D33020E030E048EC52E40E9412
:1033400038300E0D1F1D41E022E00E94F333C7010B
:1033500061E276E00E94143480E062E00E94E7239C
:10336000C70160E00E94232480E063E00E94E7231D
:10337000C70167E176E00E941F348091D702F70110
:1033800001900020E9F7BF0190E08F7790706150C5
:1033900070404B974AE050E00E944034C70160E023
:1033A0000E94232480E064E00E94E723C70160E1DB
:1033B00076E00E941F3480916B02882321F0C701C0
:1033C0006DE076E003C0C70169E076E00E94143446
:1033D0008E01085F1F4FC80160E00E9423246091A6
:1033E0009F0240919E02C8010E94BA0880E065E0F9
:1033F0000E94E723C80160E00E942324C80167E01F
:1034000076E00E941F348091A102D8010D90002027
:10341000E9F7BD0190E0615070408053984F4AE059
:1034200050E00E944034C80160E00E942324609173
:10343000A6024091A7022091A002C8010E94110992
:10344000F80101900020E9F73197E01BF10BEE0F36
:10345000EE0F84E58E1B65E00E94E723C80160E063
:103460000E94232477C480917002873009F065C0E0
:103470008091720261E0811160E083E991E00E9435
:10348000F82580917202882309F04BC00E944D2CD0
:10349000C82E0E94822C7C01FC0120813181428156
:1034A0005381211531054105510539F480E062E071
:1034B0000E94E7238DE991E0D2CF8E01085F1F4F74
:1034C000C8016DEF75E00E941F34D8010D900020F7
:1034D000E9F7BD018C2D90E06150704001964AE003
:1034E00050E00E94403480E062E00E94E723C8017F
:1034F00060E00E942324F701419151916191719103
:103500007F01C801A2DB80E063E00E94E723C801DD
:1035100060E00E942324C801B70104DC80E064E07D
:103520009BCF80917202813009F412C480917202A3
:10353000823009F00FC451DC0DC4809170028430D8
:1035400041F480917102409178022091770260E00D
:1035500017C080917002863041F4809171024091D1
:1035600078022091770261E00BC080917002823076
:1035700051F480917102409178022091770262E0CB
:103580000E94B126E7C3809170028B3009F003C11D
:103590008DEA91E060E00E94F82580E162E00E94FF
:1035A000E72308E0E02EF12CEC0EFD1EC7016BEFC7
:1035B00075E00E941F344091B0028E010F5F1F4FD3
:1035C000C80161E00E94BA081C82C701B8010E94CC
:1035D0003534C70169EF75E00E941434809173029D
:1035E00061E0811160E0C7010E9423248E01085F21
:1035F0001F4FC80167EF75E00E941F346091C10240
:10360000C8010E94A508C80165EF75E00E94143446
:103610008091730261E0813009F060E0C8010E948E
:1036200023248E01085F1F4FC80163EF75E00E94DD
:103630001F348091AF02D8010D900020E9F7BD0141
:1036400090E0615070408053984F4AE050E00E94F3
:103650004034C80161EF75E00E9414348091730218
:1036600061E0823009F060E0C8010E94232488E014
:1036700064E00E94E7238091C202882359F0809180
:10368000C2028C3039F08091C2026CE00E94463355
:10369000292F01C02CE08E01085F1F4FC8016FEE7B
:1036A00075E02E8F0E941F34C8012E8D622F0E945C
:1036B000A508C8016DEE75E00E9414348091730274
:1036C00061E0833009F060E0C8010E9423248BEBA5
:1036D00091E060E00E9423248E01085F1F4FC80123
:1036E0006BEE75E00E941F346091B802C8010E9421
:1036F000A508C80169EE75E00E9414348091730238
:1037000061E0843009F060E0C8010E9423248BEB63
:1037100091E060E00E9423248E01085F1F4FC801E2
:1037200067EE75E00E941F346091B202C8010E94EA
:10373000A508C80165EE75E00E94143480917302FB
:1037400061E0853009F060E0C8010E9423248E0109
:10375000085F1F4FC80163EE75E00E941F3480911F
:10376000C2028C3020F4C80160EE75E003C0C801CD
:103770006DED75E00E9414348E01085F1F4FC80183
:103780006BED75E00E9414348091730261E0863025
:1037900009F065C165C1809170028C3009F0C5C027
:1037A00080917302E091AC02F0E0EE0FFF1FE85F42
:1037B000FD4F90E0880F991F0190F081E02DE80FF8
:1037C000F91F259134918E01085F1F4FC801B9017F
:1037D0000E941F34C80160E00E94F8252091AD02CC
:1037E0003091AE0221153105C9F0C901F9010190EE
:1037F0000020E9F731978E1B9F0B880F991F880FC8
:10380000991F8C5A9F4F9695879562E0E0D78091DB
:10381000AD029091AE0260E00E9423246091B40258
:103820007091B502AA24A3942AE030E005C0A394C5
:10383000CB01B9010E9466336A307105C4F782E199
:1038400090E08A19910962E070E00E946633862F49
:10385000880F880F2091AD023091AE0221153105FD
:1038600011F064E001C063E0B2D72091BB02309157
:10387000BC02CE01089637FF03C069ED75E002C0B7
:1038800067ED75E00E941F34E090BB02F090BC022F
:10389000F7FE04C0F094E194F108F3940AE010E01C
:1038A000E8E0CE2ED12CCC0EDD1E13C0E016F106C2
:1038B0002CF4C60165ED75E00E941434C801880F30
:1038C000991F63E0000F111F6A95E1F7080F191F98
:1038D000AA94BA2DB23050F78E01085F1F4FF8013D
:1038E00001900020E9F7BF0161507040C7014AE034
:1038F00050E00E944034C80163ED75E00E9414342A
:10390000C80161E0A0D76091BF027091C00261154B
:10391000710509F41FC2C8010E941F34C80161E08B
:1039200092D78DEB91E061E09BCD809170028D305C
:1039300009F098C080917302E091AC02F0E0EE0FC4
:10394000FF1FE85FFD4F90E0880F991F0190F08105
:10395000E02DE80FF91F259134918E01085F1F4F6C
:10396000C801B9010E941F34C80160E00E94F82517
:10397000E091AA02F091AB0280818823B9F0CF01D7
:1039800001900020E9F731978E1B9F0B880F991F3C
:10399000880F991F8C5A9F4F9695879562E017D78D
:1039A0008091AA029091AB0260E04DD7E091A8020D
:1039B000F091A902DF010D900020E9F711978E2FF9
:1039C0008A1B880F880F805EA091AA02B091AB027B
:1039D0009C91992311F064E001C063E0F8D68E0158
:1039E000085F1F4FC80161ED75E00E941F346091B0
:1039F000A8027091A902C8010E943534C8016FEC79
:103A000075E00E9414348091750261E0811160E0DC
:103A1000C80119D7E091AA02F091AB0280818823F6
:103A200011F064E001C063E08CE2D1D68E01085F42
:103A30001F4FC8016DEC75E00E941F346091B90200
:103A40007091BA02C8010E943534C8016BEC75E070
:103A50000E9414348091750261E0813009F060E0C9
:103A6000C801FECC80917002813009F057C080916E
:103A7000720261E0811160E08FEB91E00E94F82515
:103A800080917202882309F063C18E01085F1F4F85
:103A9000C80162E00E949E1380E061E098D6C801F0
:103AA00060E0D1D6C80163E00E949E1380E062E02E
:103AB0008ED6C80160E0C7D68091BD029091BE024B
:103AC000FFE78F3F9F07C1F080E064E080D6C80128
:103AD0006EEB75E00E941F34D8010D900020E9F7CD
:103AE000CD014091BD025091BE02019762E00E945B
:103AF000DA2DC80160E0A7D68091BD029091BE0288
:103B0000BFE78F3F9B0709F425C18E01085F1F4F58
:103B1000C80164E00E949E1380E09DCC80917002F9
:103B2000833009F062C08091720261E0811160E02F
:103B300088EC91E00E94F82580917202882309F0B8
:103B400007C161E044D68E01085F1F4FC80161E0E4
:103B50000E949E13C80160E076D680E062E037D60E
:103B600084ED91E060E06FD60E94A2126B017C01AF
:103B70006F3FEFEF7E07EFEF8E07EFE79E0731F421
:103B8000C8016AEB75E00E941F3414C097FD06C09F
:103B9000C80168EB75E00E941F3401C01886CE0191
:103BA0000896DC010D900020E9F7CD010197B601E0
:103BB0000E94402DCE01089660E045D68BED91E045
:103BC00060E041D680E063E002D600E081E060E0A2
:103BD000E9D50F5F0435D1F780E063E0F8D58E01B9
:103BE000085F1F4FC80169E08FC080917002853067
:103BF00009F08DC08091720261E0811160E082EE77
:103C000091E0F6D780917202882309F0A1C061E0AB
:103C1000DED58E01085F1F4FC80165E00E949E132C
:103C2000C80160E010D680E062E0D1D50E94C912E0
:103C30006B017C016F3FBFEF7B07BFEF8B07BFE7D7
:103C40009B0731F4C80163EB75E00E941F3421C06B
:103C500097FD06C0C80161EB75E00E941F3401C0EA
:103C60001886FE013896DF010D900020E9F78D01DE
:103C7000C701B601675E7F4F8F4F9F4F22E330E051
:103C800040E050E00E949B33C8010197B9010E94B7
:103C9000612DCE01089660E0D6D58BEE91E060E014
:103CA000D2D580E063E093D500E081E060E07AD592
:103CB0000F5F0435D1F780E063E089D58E01085F9E
:103CC0001F4FC8016AE00E949E13C80160E0BBD587
:103CD00080E064E07CD5C80166E00E949E13C801C4
:103CE00060E0B1D580E065E072D500E081E060E0A1
:103CF00059D50F5F0435D1F780E065E068D58E01B6
:103D0000085F1F4FC8016BE00E949E13A7CB8091F4
:103D100070028930F9F480917402E091AC02F0E015
:103D2000EE0FFF1FE85FFD4F90E0880F991F019095
:103D3000F081E02DE80FF91F259134918E01085F85
:103D40001F4FC801B9010E941F34C80160E050D75D
:103D50000E94510A6E96EAE00C94DA33A0E0B0E0DB
:103D6000E4EBFEE10C94BE3385B1876085B925D6BE
:103D700018D680E00AD687E893E10197F1F700C0F2
:103D800000000E94CD0980E00E94C22C0E94652F95
:103D90000E94062E0E94B411789480E060E017D54E
:103DA00087EF91E03DD50E9424068823E1F38091BE
:103DB000B60080628093B6008091B6008F7B8093BE
:103DC000B6001092B00083E08093B1008091B600FD
:103DD00090E08F7090700097C9F783EC99E001979D
:103DE000F1F700C0000081E087BB809370009091E4
:103DF0006B00976090936B0090916B009061909333
:103E00006B009091680091609093680090916400BD
:103E10009F6A9093640080930602AA24A3948091E1
:103E20006F02882341F010926F02C7D5BAD580E0A7
:103E3000ACD5A092070280916D02882349F01092C0
:103E40006D0280E060E0C3D4ACD581E00E94C22C5A
:103E500080910602882329F480916E02882309F458
:103E600067C0809164008F77809364000E94600631
:103E70000E94D206EC010E948A060E942E076B0166
:103E80007C018091640080688093640080910602C8
:103E9000882329F0CE01B701A6010E947C2B8091D6
:103EA0006E02882309F440C0BFB6F8946091A10265
:103EB00070E080E090E02DE030E040E050E00E94D3
:103EC000273320919E02620F711D811D911D55E0C7
:103ED000660F771F881F991F5A95D1F720919F026F
:103EE000620F711D811D911D28E130E040E050E01E
:103EF0000E9427332091A602620F711D811D911D22
:103F00002CE330E040E050E00E9427338B019C011D
:103F10008091A702BFBE080F111D211D311DCE01CA
:103F2000B701A6010E94ED2B1092060210926E02BC
:103F300080916C02882319F010926C0232D5809126
:103F40000702882399F010920702DDD80FC08091F4
:103F50007F02882359F483B7817F866083BF83B74C
:103F6000816083BF889583B78E7F83BF809106026F
:103F7000882309F054CF80910702882309F04FCF9E
:103F800080916E02882319F34ACF1F93182F8091D6
:103F900077028823D1F080917802810F8093780294
:103FA00080917802813F20F0809178028C5A0AC07B
:103FB00080917802843520F080917802845502C087
:103FC00080917802809378029BC080917002893042
:103FD00040F080917002893021F0809170028A3027
:103FE00041F480917202813021F4812F0E946F117F
:103FF00087C080917002893008F063C0809172029E
:10400000882309F05EC00E949E2F80917002843048
:1040100041F080917002863021F0809170028230F0
:10402000E1F480917102810F80937102809171029D
:10403000833031F410927102809170028F5F0AC058
:10404000809171028F3F11F582E08093710280911F
:10405000700281508093700219C080917002810FAC
:10406000809370021F3F81F480917002843041F090
:1040700080917002863021F080917002823021F4AC
:1040800082E08093710202C01092710280917002EE
:10409000813F20F080917002875F0AC0809170029A
:1040A000893020F080917002895002C080917002A6
:1040B0008093700283E58093780281E080936C02A4
:1040C0001FC0809170028B3021F4812F0E94870BDA
:1040D00017C0809170028C3021F4812F0E94F10D65
:1040E0000FC0809170028D3021F4812F0E947F0ECD
:1040F00007C080917002873019F4812F0E944918FF
:104100001F9108951F9380917002863041F0809135
:104110007002843021F0809170028230B1F480917D
:104120007702882361F481E00E949E2F80917002C3
:104130008093AC028AE08093700281E01FC082E02D
:104140000E949E2F109277021FC0809170028930CA
:1041500018F5809172028823F9F4E0917002F0E082
:10416000EE0FFF1FE85FFD4F80819181009781F086
:1041700081E00E949E2F809172028F5F8093720275
:10418000109276021092730281E080936C0258C004
:1041900083E00E949E2F54C080917002893040F0CD
:1041A00080917002893021F0809170028A3069F527
:1041B00010917202113049F5809173028823F9F44D
:1041C00082E00E949E2F8091720281508093720241
:1041D00080917002893051F48091AC02809370021A
:1041E0008091740280937302109372028091700226
:1041F0008A3051F68091AC0280937002C5CF81E085
:104200000E949E2F0E94860EBFCF809170028B303D
:1042100019F40E94570B14C0809170028C3019F46D
:104220000E94910C0DC0809170028D3019F40E9493
:10423000CF1106C080917002873011F40E947A1865
:104240001F9108951F920F920FB60F921124EF92B3
:10425000FF920F931F932F933F934F935F936F930F
:104260007F938F939F93AF93BF93EF93FF930E949E
:10427000DB098091A2029091A302A091A402B091C7
:10428000A50283709070A070B0700097A105B10571
:10429000E1F480917902882359F48091700288308A
:1042A00039F480917202882319F481E08093070227
:1042B0008091A002882349F481E0809306029091C6
:1042C0007902992311F4809307028091790288235F
:1042D00009F06EC08091A2029091A302A091A40265
:1042E000B091A502E090B200FF2400E010E0BA2FE8
:1042F000A92F982F8827E82AF92A0A2B1B2B8091AF
:104300007B0290917C02A0917D02B0917E02E81A1E
:10431000F90A0A0B1B0B80917A028823A1F5189BDE
:1043200002C01A9930C081E7E81687E1F80680E0FC
:10433000080780E0180730F0189902C088E21FC013
:1043400088ED1DC089EBE8168BE0F80680E00807D1
:1043500080E0180730F0189902C08CE010C084EF9C
:104360000EC085EFE81681E0F80680E0080780E0DF
:10437000180748F0189902C084E001C08CEF05DEF0
:1043800081E0809307028091B10290E0A0E0B0E06C
:104390007AE0880F991FAA1FBB1F7A95D1F78E1557
:1043A0009F05A007B10720F481E080937902EDD248
:1043B0001092B0008091B60081FDFCCFFF91EF918B
:1043C000BF91AF919F918F917F916F915F914F912D
:1043D0003F912F911F910F91FF90EF900F900FBE83
:1043E0000F901F9018951F920F920FB60F921124E5
:1043F000EF92FF920F931F932F933F934F935F93EF
:104400006F937F938F939F93AF93BF93EF93FF939C
:104410001C9903C00E94272FB8C08091790288237D
:1044200069F1189B04C01A9B02C0199927C02091FA
:10443000A2023091A3024091A4025091A502809162
:10444000B20090E0A0E0B0E0542F432F322F22279B
:10445000822B932BA42BB52B80937B0290937C0211
:10446000A0937D02B0937E021092790280E08DD2FB
:1044700081E080936C02809307021DC0E090A2024D
:10448000F090A3020091A4021091A5028091B200C5
:1044900020917B0230917C0240917D0250917E02FE
:1044A00090917A02913051F418996FC01A996DC0A9
:1044B000199B6BC082E080937A0267C090E0A0E015
:1044C000B0E0102F0F2DFE2CEE248E299F29A02B5B
:1044D000B12B821B930BA40BB50B20917A022230D7
:1044E00091F4189B52C01A9B50C0199B4EC08B3F31
:1044F0009105A105B10508F448C010927A0281E047
:1045000080936C0240C0189908C01A9906C0199986
:1045100004C081E080936F0238C0189B02C01A99D2
:104520000CC08B3F9105A105B10538F0189902C068
:1045300081E001C08FEF29DD08C0199926C08B3FAB
:104540009105A105B10508F1DDDD2091A2023091B0
:10455000A3024091A4025091A5028091B20090E084
:10456000A0E0B0E0542F432F322F2227822B932B31
:10457000A42BB52B80937B0290937C02A0937D02A9
:10458000B0937E0281E080930702FF91EF91BF918B
:10459000AF919F918F917F916F915F914F913F91DB
:1045A0002F911F910F91FF90EF900F900FBE0F90E2
:1045B0001F9018958093CA0208951092B9008AE05E
:1045C0008093B8000895E091CA0230E0F4EA24E84C
:1045D000AE2FA1603F5F393C09F486C0F093BC0068
:1045E0009091BC0097FFFCCF9091B900987F909379
:1045F000C902903129F0983389F3983009F076C0D8
:10460000E093BB002093BC009091BC0097FFFCCFCF
:104610009091B900987F9093C9029032D9F2983363
:10462000E9F2983109F05BC08093BB002093BC0095
:104630009091BC0097FFFCCF9091B900987F909328
:10464000C902983221F0983309F049C0C7CFF093DE
:10465000BC009091BC0097FFFCCF9091B900987F6F
:104660009093C902903129F0983309F4B7CF98306C
:10467000B1F5A093BB002093BC009091BC0097FFC4
:10468000FCCF9091B900987F9093C902983309F4B8
:10469000A5CF903421F5E42FF52F94EC1AC06130AA
:1046A000710509F494E89093BC008091BC0087FFE9
:1046B000FCCF8091B900887F8093C902803521F0BA
:1046C000883569F460E070E08091BB0081936150AF
:1046D00070408E2F841B161617060CF301C080E065
:1046E00094E99093BC00089580E0089580E00895D7
:1046F0005091CA0220E044EA34E82F5F293C09F4D3
:104700004DC04093BC009091BC0097FFFCCF9091AE
:10471000B900987F9093C902903121F0983389F3C2
:104720009830F1F55093BB003093BC009091BC00E1
:1047300097FFFCCF9091B900987F9093C902903277
:10474000E1F29833F1F2983121F58093BB00309378
:10475000BC009091BC0097FFFCCF9091B900987F6E
:104760009093C902983219F0983399F4CACF6093A4
:10477000BB0084E88093BC008091BC0087FFFCCF25
:104780008091B900887F8093C902883211F481E05A
:1047900001C080E094E99093BC00089580E0089502
:1047A00080E00895882311F05F9A01C05F985C98BB
:1047B00088E02D9867FF02C02B9A01C02B982D9A94
:1047C000815011F0660FF5CF5C9A2B9A08951F93D4
:1047D000162F682F606880E0E5DF612F606480E05D
:1047E000E1DF1F9108950F931F93CF93DF9305E0AF
:1047F000809F80011124E801C851D84F0351184F00
:10480000FE01649181E0CEDF2196C017D107C1F788
:1048100081E060E0C7DFDF91CF911F910F91089594
:10482000EF92FF92CF93DF93E82EE7017E01F92EFE
:10483000E70101C0D8DF89918823E1F7DF91CF91AB
:10484000FF90EF900895A0E0B0E0E9E2F4E20C946C
:10485000C033D62E082F192F3FE7C32E45C08D3603
:1048600021F5DD2011F063E401C06CE381E09ADF03
:10487000DD2011F06BE701C064E081E093DFDD2013
:1048800011F067E601C068E181E08CDFDD2011F006
:104890006BE701C064E081E085DFDD2011F067E4B3
:1048A00001C068E381E07EDF18C023E0829FC00181
:1048B0001124EC01C750D94F2CEFE22E26E0F22E46
:1048C000E80EF91EFE016491660FD1106C2581E09F
:1048D00069DF2196CE15DF05A9F7DD2011F06FE71E
:1048E00001C060E081E05EDFF80181918F018823E3
:1048F00009F0B5CFCDB7DEB7E8E00C94DC33EF922A
:10490000FF920F931F93CF93DF93082F192F2DC082
:104910008D3681F481E069E745DF81E069E042DFBF
:1049200081E061E33FDF81E069E03CDF81E061E756
:1049300039DF18C023E0829FC0011124EC01C75069
:10494000D94F4CEFE42E46E0F42EE80EF91EFE019E
:104950006491660F660F616081E024DF2196CE15B9
:10496000DF05A9F781E061E01DDFF80181918F018A
:10497000882371F6CDB7DEB7E6E00C94DE338823EA
:1049800011F05B9A08955B980895882329F080E0E0
:1049900064E208DF80E004C080E060E203DF81E0E1
:1049A000EECFCF93DF93C8EFD1E081E060E0FADE95
:1049B0002197D9F7DF91CF91089581EB8093D702AA
:1049C00084E18093CB0284E08093D6028FEF9FE74F
:1049D0009093D9028093D8029093CD028093CC0219
:1049E0001092DE029093DB028093DA029093CF0262
:1049F0008093CE021092DF029093DD028093DC025E
:104A00009093D1028093D0021092E002549A559A6A
:104A1000579A539A239A259A5D985D9A80E061E2AD
:104A2000C1DE6091D70280E0BDDE6091D60280E0F9
:104A3000B9DE6091CB0280E0B5DE80E060E2B2DEFC
:104A400080E06CE0AFCE2F923F924F925F927F92C8
:104A50008F929F92AF92BF92CF92DF92EF92FF928E
:104A60000F931F93DF93CF93CDB7DEB727970FB682
:104A7000F894DEBF0FBECDBF782E2B01490158013F
:104A8000823021F4440C551C440F551FD401F5010C
:104A900080E01D9211928F5F8431D9F7D6011C926C
:104AA0008E010F5F1F4FC801672D0E94AF2D1801A7
:104AB00043E01FC0849FC0011124FC01E750F94F5F
:104AC0009C012450394F6491D6015C91C501850F3A
:104AD000911DDC016C93852F8F5FD6018C933196ED
:104AE000E217F30781F7F501E80FF11D10828F5FE0
:104AF0008C93F10181911F018823E1F6D7011C926B
:104B0000CE010196672DA2010E94AF2D23E01FC0A8
:104B1000829FC0011124FC01E750F94F8450994F46
:104B20004491D7013C91D401A30FB11D440F440F10
:104B3000440F4C933F5FD7013C933196E817F90738
:104B400079F7F401E30FF11D10823F5F3C93F80108
:104B500081918F018823E1F627960FB6F894DEBF86
:104B60000FBECDBFCF91DF911F910F91FF90EF90BE
:104B7000DF90CF90BF90AF909F908F907F905F908D
:104B80004F903F902F900895CF93DF93EC0180E0FA
:104B900060E01DDE81E06FE705DECE0161E053DEFF
:104BA000DF91CF910895A1E0B0E0E9EDF5E20C943A
:104BB000C533182FE12FF92F80E003C02D3609F4FB
:104BC0008F5F3E2F311B21912223C1F78195880FE2
:104BD0008C5A232F220F220F821B60E09983F7DD6E
:104BE000812F998161E02FDE2196E3E00C94E1337F
:104BF000A1E0B0E0EEEFF5E20C94C033D82EE92E40
:104C0000162FE82FF92FDF010D900020E9F71197FB
:104C1000A81B23E130E02A1B310935952795C22EC8
:104C20000A2F01950D5E021B80E060E0D0DD1123AC
:104C300011F06FE701C060E081E0B4DD112319F0ED
:104C40004EE152E002C040E252E0CA01612FFBDDBA
:104C5000112331F483E060E0BADD81E060E2A2DD9F
:104C6000FF24F39411C0112329F086E292E061E061
:104C7000EADD09C090E081E060E2998393DD9981EB
:104C80009F5F9430C1F7F394FC1468F386E292E0DE
:104C9000612FD9DD8D2D9E2D612FD5DD86E292E02D
:104CA000612FD1DDFF24F3940FC0112329F086E298
:104CB00092E061E0C8DD07C0E4E0EE2E81E060E252
:104CC00071DDEA94D9F7F394F01678F380E560E0AB
:104CD0007EDD112319F082E292E002C084E292E0CC
:104CE000612FB1DD2196E8E00C94DC33A5E1B0E062
:104CF000ECE7F6E20C94C233282FF62EE42E88233C
:104D000029F4CE01019663E878E009C0CE0101964E
:104D1000213019F46AE778E002C061E778E00E9488
:104D20001F348E010F5F1F4FC8016AE678E00E94B2
:104D30001434F80101900020E9F7CF01EF2DF0E0E5
:104D4000EE0FFF1FE25CFD4F208131810197B90119
:104D50000E941434C8016E2D4BDF6596E6E00C947A
:104D6000DE33A1E6B0E0E7EBF6E20C94B6336296F0
:104D70008FAF6297762E67964FAF679768962FAF83
:104D80006897A8D3682E67963FAD6797232F30E0CA
:104D900064963FAF2EAF6497C901860D911D64E5FF
:104DA00070E00E9466334C0100E010E0CC24CA940D
:104DB000DC2CAA24BB24EE24EA94FE2C62968FAD50
:104DC0006297602F98D3FC0120812223B9F481815E
:104DD0003281932F9770009789F4432F469546951B
:104DE00046953381532F5295550F507E852F842B36
:104DF000932F969596959695009739F1772011F413
:104E000030E017C08281472D413021F42181382FB5
:104E100037700FC0982F9695969596958381482F59
:104E20004295440F407E242F292B382F36953695F6
:104E30003695A216B30608F459012E153F0508F45D
:104E400079010815190509F469010F5F1F4F043531
:104E5000110509F0B3CF772009F04BC0B6016451BA
:104E6000704061967FAF6EAF61978091D80290914C
:104E7000D9027FE78F3F970739F46CEE862E6FEFEC
:104E8000962E8E0C9F1C04C08090D8029090D90260
:104E90008091CC029091CD02AFE78F3F9A0729F421
:104EA000ECEEFFEFAE0EBF1E04C0A090CC02B0909F
:104EB000CD0222E030E0C401B9010E946633709354
:104EC000D3026093D202C501B9010E946633709388
:104ED000D5026093D4028091D8029091D902FFE765
:104EE0008F3F9F0709F0B7C08091CC029091CD020F
:104EF000B2C0272D213009F05FC0A60140575E4F98
:104F000061965FAF4EAF61978091DA029091DB02BC
:104F10005FE78F3F950739F450E9852E51E0952ED4
:104F20008E0C9F1C04C08090DA029090DB0280916E
:104F3000CE029091CF026FE78F3F960729F480E968
:104F400091E0A80EB91E04C0A090CE02B090CF028E
:104F5000B401882777FD8095982F0E94D33020EAEE
:104F600034E747E852E40E9438300E94A030709342
:104F7000D3026093D202B501882777FD8095982FE0
:104F80000E94D33020EA34E747E852E40E943830E8
:104F90000E94A0307093D5026093D4028091DA020F
:104FA0009091DB02AFE78F3F9A0709F054C08091E0
:104FB000CE029091CF024FC0F601E45BF2406196C1
:104FC000FFAFEEAF61978091DC029091DD02FFE7C9
:104FD0008F3F9F0739F44CE4842E4DEF942E8E0CB6
:104FE0009F1C09C08091DC029091DD0262E070E0BC
:104FF0000E9466334B018091D0029091D1022FE73D
:105000008F3F920729F44CE45DEFA40EB51E09C052
:105010008091D0029091D10262E070E00E946633EC
:105020005B01C401880F991F9093D3028093D20231
:10503000C501880F991F9093D5028093D402809167
:10504000DC029091DD025FE78F3F950721F48091AC
:10505000D0029091D1026FEFC6166FEFD60631F4F1
:105060008FEF9FE761969FAF8EAF61979FEFE91635
:105070009FEFF906A9F41092D5021092D402809104
:10508000D4029091D5029093D3028093D2028FEFF5
:10509000A82E8FE7B82E0EEF802E0FE7902E20C09F
:1050A000A814B90429F445010894A11CB11C18C026
:1050B000C501881999098431910594F4C501880DB9
:1050C000991D62E070E00E94663316EF812E1FEF9B
:1050D000912E860E971EBAE0AB2EB12CA60EB71EEF
:1050E00080E062E25FDB862D8D5A64E50E944633E4
:1050F000692EA2E12A2E312C2C0E3D1EF6E24F2EF7
:10510000512C4C0E5D1E872DB401A5019101820129
:105110007E010894E11CF11CE2E0CE2ED12CCC0ED5
:10512000DD1E91DC13E50FEFDE0118966E96BFAF22
:10513000AEAF6E97A0963FAE2EAEA097C501881970
:1051400099099C01442737FD4095542F6C962CAF4C
:105150003DAF4EAF5FAF6C972DE0E22EF12CEC0E21
:10516000FD1E472C55244EED52E0440E551E812F56
:1051700061E02DDB5A81498193E0292E312C2C0EE0
:105180003D1EBE01685F7F4F66967FAF6EAF66972C
:10519000DB01F101812F90E026E230E02C0F3D1F72
:1051A000280F391F62E170E06C0F7D1F860F971F7B
:1051B000A296BFAFAEAFA29768967FAD68977723F0
:1051C00029F06796AFAD67971A1711F060E001C03C
:1051D00065E56193A296AEADBFADA2976FEF6D93FB
:1051E000A296BFAFAEAFA297151748F4772339F454
:1051F0006B81D901CC906C296B83B0ECB887141704
:1052000048F4772339F46F81DC01CC906C296F83EB
:10521000B3E0BC876E96AEADBFAD6E97EA17FB07E5
:1052200071F662968FAD6297662D65D1FC016A9426
:10523000B62DBF3F11F483E5682E772029F46081F5
:1052400070E0645170401BC08281272D213031F401
:105250006181782F777060577E4F11C0982F969597
:10526000969596958381282F2295220F207E622F76
:10527000692B782F769576957695645B72401D86BE
:105280001E861F86188A198A681579050CF47DC058
:10529000A616B7060CF479C080818823C1F48181F9
:1052A0002281922F9770009791F4322F3695369580
:1052B00036952381422F4295440F407E842F832BC5
:1052C000922F969596959695009709F45EC0681969
:1052D0007909882777FD8095982F29ED3FEF4FEFCB
:1052E0005FEF0E9427336C962CAD3DAD4EAD5FADA8
:1052F0006C970E949B33295D822F869586958695B3
:10530000322F377091E002C0990F31503323E1F70B
:10531000F701E80FF11D90832017D1F10F3FB9F18C
:10532000D2019C91992399F5021710F0015021C0E8
:105330000F5F09C0392F3695392B3083902F9F5F2F
:10534000201729F1092FF701E80FF11D908190FF37
:10535000F1CF8150F701E80FF11DB0E8B083EECF37
:10536000392F330F392B3083902F9150201779F03C
:10537000092FF701E80FF11D908197FFF1CF8F5FA3
:10538000F701E80FF11D31E0EECF0FEF01C0022F62
:105390006701D6019D916D016696EEADFFAD6697F2
:1053A00061916696FFAFEEAF6697D1018D911D01B9
:1053B0006923682B81E0F6D9A096EEADFFADA097EA
:1053C000CE16DF0631F7115008F0D1CE80E060E252
:1053D000E9D96896FFAD6897FF2309F45FC08FB7DE
:1053E000F8949091A602A091A7028FBF62962FAD6C
:1053F0006297E22FF0E0EE0FFF1FE85CFD4F608147
:1054000071818E01065C1F4F43E550E06496EEAD5E
:10541000FFAD64974E1B5F0B469F9001479F300D79
:10542000569F300D11248CE3989FC00111248A0FE0
:10543000911D0E945233280F391FC801B9010E94E3
:105440005509C801A1DBF80101900020E9F7319767
:10545000E01BF10B1E2F110F110F03C081E06FE74E
:10546000A1D91F5F1435D0F3F72DF23051F46196B6
:105470002EAD3FAD6197220F331F61963FAF2EAF28
:1054800061978E01065C1F4FC801672D61964EAD76
:105490005FAD6197A7D3C80186DB06C0872D6296F2
:1054A0006FAD629741E022DCCF59DF4FE2E10C940F
:1054B000D23370E0685A704094E5899FC00111248E
:1054C000680F791F660F771F660F771F605F7F4F2A
:1054D000CB010895282F30E0823028F427563A4F28
:1054E000F90180810895C901880F991F880F991FBC
:1054F00005970C945F34823068F424E5829F900114
:105500001124260F311D220F331F220F331F2B5062
:105510003D4F0DC0CEDF0E946734609395057093B8
:105520009605809397059093980525E935E0C90184
:105530000895A0E0B0E0EFE9FAE20C94BA33EC0190
:1055400079018A012093E1023093E2024093E30261
:105550005093E402CB01E3E0880F991FEA95E1F74D
:10556000860F971F65E070E00E946633605C7E4F97
:105570005B01CC24B7FCC094DC2CC601B50125E04E
:1055800030E040E050E00E949B333093E6022093ED
:10559000E502C601B5016C392FEF72072FEF8207C4
:1055A0002FEF920724F46CE97FEF8FEF9FEF6A599A
:1055B0007F4F8F4F9F4F25E030E040E050E00E944A
:1055C0009B33A22EB32EC42ED52E6FEFA616B10498
:1055D000C104D10431F02CF07FEFA72EB12CC12CE7
:1055E000D12C80E2E8168EE4F80680E0080780E01F
:1055F00018071CF0C801B70104C060E27EE480E037
:1056000090E067507E448040904022E330E040E0EC
:1056100050E00E949B33622E932E842E752EC8017B
:10562000B701C1D50E94500825E83BEE41E550E4A2
:1056300046D6262F372F482F592F2093E702309335
:10564000E8024093E9025093EA0220E030E040E0B3
:105650005FE3AAD475D5262F372F482F592F283925
:105660006AEF36076FEF46076FEF560724F428E915
:105670003AEF4FEF5FEF27593A4F4F4F5F4F559536
:10568000479537952795A882862D992DA82DB72D5A
:10569000803068E0960760E0A60760E0B60724F077
:1056A0008FEF97E0A0E0B0E0898397708A81887FD0
:1056B000892B8A83203080E2380780E0480780E029
:1056C000580724F02FEF3FE140E050E0922F990F70
:1056D000990F990F8A818770892B8A83832F880F6E
:1056E000880F880F229526952770282B2B83CDB7FE
:1056F000DEB7EEE00C94D633A6E0B0E0E2E8FBE2E1
:105700000C94BE33FC019A01AB01CE010196BF019E
:1057100010DF18E3E12E12E0F12E09E915E0CC24A8
:10572000DD2420E0B4E5AB2E3CE3222389F0809118
:10573000A6024091A702839FC0011124840F911DEE
:10574000F70160817181AED70097B1F52230C9F0C1
:10575000F8018081F601E80FF11DEE0FFF1FEE0F3B
:10576000FF1FEB50FD4F49815A816B817C81408343
:105770005183628373838F5F6A2D88D7F80190838A
:105780001BC083E090E02D833E830E945F34B82EDF
:1057900082E06B2D8EDE49815A816B817C810E9473
:1057A00083348B2D8F5F6A2D71D7692F83E090E052
:1057B0000E9471343E812D812F5F82E090E0E80EDF
:1057C000F91E0F5F1F4FE4E5F0E0CE0EDF1E233021
:1057D00009F0ABCF2696EAE0EDC76F927F928F92E9
:1057E0009F92BF92CF92DF92EF92FF920F931F93FF
:1057F000DF93CF9300D000D00F92CDB7DEB7FC017E
:105800006A017B0138014901CE010196BF01A70160
:1058100096018FDE00E611E020E0CC24CA94DC2C57
:105820007601BB24C8012D830E9467342D816C153D
:105830007D058E059F0518F46B017C01B22E2F5F4C
:10584000085F1F4F243571F70B2D10E0045D1F4FCB
:1058500083E0000F111F8A95E1F7C801B401A3018D
:105860000E94833449815A816B817C81C8010496EE
:105870000E9483340F900F900F900F900F90CF9154
:10588000DF911F910F91FF90EF90DF90CF90BF902D
:105890009F908F907F906F900895AF92BF92DF920C
:1058A000EF92FF920F931F93DF93CF930F92CDB799
:1058B000DEB790E6A92E91E0B92E20E0EE24FF2479
:1058C0008701DD24C50129830E94673429816E1573
:1058D0007F058007910718F07B018C01D22E2F5F86
:1058E00088E090E0A80EB91E243561F78D2D0F9049
:1058F000CF91DF911F910F91FF90EF90DF90BF90BC
:10590000AF900895A4E0B0E0E7E8FCE23DC7082FBF
:1059100010E0045D1F4F23E0000F111F2A95E1F7EF
:10592000C801D5D76093ED027093EE028093EF0229
:105930009093F002C8010496CAD76093F102709365
:10594000F2028093F3029093F4028DEE92E024969B
:10595000E4E036C784E508951F93CF93DF93C0E654
:10596000D1E010E0CE01B3D7611571058105910535
:1059700021F01F5F28961435A9F7812FDF91CF9171
:105980001F9108951F93CF93DF93182F1092EC026D
:105990001092EB02A9E9B5E025EF32E01D92F90182
:1059A00084E51082118212821382815034968823FA
:1059B000C1F7205B3E4F85E0AB39B80779F780E04F
:1059C00090E08AD72EEB833B920711F4112371F1FB
:1059D00088E292E00E94102480E090E043EB5EEBCE
:1059E00060E070E090D784E090E040E050E0BA01E1
:1059F0008AD710E082E0612F5CDD40E050E0BA0120
:105A000082D71F5F1435B1F7C0E6D1E0CE0140E088
:105A100050E0BA0178D7CE01049640E050E0BA01D8
:105A200072D7289684E0C030D80781F7DF91CF91F4
:105A30001F9108950F931F938C01882777FD809500
:105A4000982FB1D320913702222379F420E030E05F
:105A500040E852E4A8D220E030E040EA50E42FD4FD
:105A600020E030E040E151E403D320E030E040E0CA
:105A70005FE325D441E021E0B6D61F910F91089550
:105A80000F931F938C01882777FD8095982F8BD3D8
:105A900020913702222351F420E030E040EA50E424
:105AA0000ED420E030E040E151E4E2D220E030E0EA
:105AB00040E05FE304D441E021E095D61F910F91CF
:105AC00008950F931F938C0180913702882381F0F2
:105AD000882777FD8095982F29E83BE040E050E04B
