:10000000D8C50000F3C50000F1C500000C94132210
:10001000EDC50000EBC50000E9C50000E7C5000024
:10002000E5C500000C942E21E1C500000C94C62FFC
:10003000DDC50000DBC50000D9C50000D7C5000044
:10004000D5C50000D3C50000D1C50000CFC5000054
:10005000CDC50000CBC50000C9C50000C7C5000064
:10006000C5C50000C3C50000B80DD90DE80D1C0EB4
:10007000F20DFE0D080E140E140ED212D8125A13E1
:100080008913F01214130B151415EF13441455149F
:100090002C152C152C15CF1207634236B79BD8A709
:1000A0001A39685618AEBAAB558C1D3CB7CC57639D
:1000B000BD6DEDFD753EF6177231BF000000803F4B
:1000C00008000000BE922449123EABAAAA2ABECD67
:1000D000CCCC4C3E00000080BEABAAAAAA3E0000D9
:1000E0000000BF000000803F0000000000084178D1
:1000F000D3BB4387D1133D190E3CC3BD4282AD2B08
:100100003E68EC8276BED98FE1A93E4C80EFFFBEFF
:1001100001C4FF7F3F00000000004A616E00466599
:1001200062004D617200417072004D6179004A7544
:100130006E004A756C0041756700536570004F632F
:1001400074004E6F7600446563001A011E0122019F
:1001500026012A012E01320136013A013E014201F7
:1001600046012000500041003A003A005000410092
:100170003A00200080C0C000C0E0EC6E6C60606C93
:100180006E6C60606C6E6C60606CEEECC0000000C9
:1001900000000000000080C0C0C0606060E0C0C01F
:1001A000C0C0E0603038181C0E060E0E0E0C1C1875
:1001B000183838303060606060C0C0C0C0808000D7
:1001C000000000000000000010393900FFFF0000AF
:1001D000000000C0F8FCBCCCFC7C380000C0E0EFA4
:1001E000EF0080C0CCEC66676303C1E1E180C0E052
:1001F00060C0E0E081C1E0E000C0E0E080C0E0601D
:1002000060E0E0C08080C0E06060E0E0C080C0E10D
:10021000E161E1E3C38707C6E6EC6C6C42E7E70007
:10022000FFFF800000101E1F1F19191F0F17181E37
:100230000F0F9DDFDF0E1F1F19181800101E1F0F54
:100240000F1F1910001F1F1F07031F1F0F07010E8D
:100250001F1F19181C0F0F070F1F1F19181C0F0F36
:10026000171F1F1F191C0E0F071118191B1F0F0630
:100270000000000001031B3B1B03031B3B1B03038C
:100280001B3B1B03031B3B1B010000001C10101039
:100290001018101010101810101010101810101046
:1002A000101810101010101C101010101018101032
:1002B0001010181010101010181010101018101026
:1002C0001010101C312E302E340045786974204DEA
:1002D000656E75004C696E65203120446174610063
:1002E0004C696E6520322044617461004C696E6512
:1002F00020332044617461004C696E6520342044D1
:10030000617461004C696E65203520446174610040
:100310004C696E652036204461746100CA02D402C3
:10032000E002EC02F80204031003000043616C6970
:100330006272617465005365742044657374696EFC
:100340006174696F6E0052657365742044657374DF
:10035000696E6174696F6E00CA022C033603000077
:100360004461746520616E642054696D65004D655B
:1003700061737572656D656E7420556E6974730076
:10038000536C6565702044656C617900536F756EC0
:1003900064004C434420436F6E7472617374004C6C
:1003A00043442042696173004C43442054656D709E
:1003B00020436F656600526573746F7265204465F3
:1003C0006661756C747300457261736520416C6C75
:1003D000204461746100CA0260036E0380038C03D1
:1003E00092039F03A803B603C703000054656D7012
:1003F0006572617475726500416C746974756465C9
:100400000052617465206F6620417363656E7400ED
:1004100054696D6520746F2044657374696E6174EE
:10042000696F6E0053746174696F6E2050726573EA
:100430007375726500536561204C6576656C20505C
:10044000726573737572650054696D65206F6620FF
:10045000446179004461746520616E642054696D63
:10046000650054656D7065726174757265205472B3
:10047000656E6400507265737375726520547265A1
:100480006E64005765617468657220466F726563BB
:1004900061737400456D7074790054656D7020440B
:1004A00061696C7920486967682F4C6F77005072DA
:1004B000657373204461696C7920486967682F4CC3
:1004C0006F7700416C74204461696C7920486967DA
:1004D000682F4C6F7700CA02EC03F8030104100484
:1004E00024043504480454046204740483049A0404
:1004F000AE04C304940400005669657720536E610E
:100500007073686F74204C6F670054616B65205383
:100510006E617073686F7400CA02F8040A05000007
:100520004578706C6F726520477261706800447224
:100530006177696E67205374796C650043757374D5
:100540006F6D20592D41786973204D696E00437598
:1005500073746F6D20592D41786973204D61780057
:100560004175746F20592D41786973204D696E0073
:100570004175746F20592D41786973204D61780061
:10058000CA0220052E053C054E050000536F61721E
:10059000696E6700526973696E6720466173740003
:1005A000526973696E6700526973696E6720536C94
:1005B0006F77005374656164790046616C6C696E95
:1005C0006720536C6F770046616C6C696E670046FC
:1005D000616C6C696E67204661737400506C756D58
:1005E0006D6574696E67008C059405A005A705B359
:1005F00005BA05C705CF05DC052B002D2D2D2D00D7
:100600002B002D2D2D0044657374696E6174696F24
:100610006E2000200020002000200020003000205C
:10062000002D002000504D00414D002000200020F2
:1006300000200020002000200020002000200020BA
:100640000020002000536E617073686F74200020DA
:10065000004F6666004F6E00536F756E6420004356
:100660006F6E747261737420005600426174746519
:1006700072792000202020202020746F20756E6C5D
:100680006F636B0020686F6C642050524556206188
:100690006E64204E455854002000200020002000A9
:1006A000556E696D706C656D656E746564002000D3
:1006B00020004572722000436C6561722C204472E8
:1006C00079004661697200556E6368616E676564A2
:1006D000005261696E0053746F726D7900566572D5
:1006E000792053746F726D7900436C656172696E25
:1006F0006700476F6F6420576561746865720041D9
:100700007070722E2053746F726D00506F6F722074
:100710005765617468657200556E6368616E6765E0
:10072000640042726965662053686F776572005590
:100730006E617661696C61626C6500466F726563BB
:100740006173742000507265737375726520005474
:10075000656D7020003A002D2D2D2D2D0054696DF2
:100760006520746F204465737420002F6D696E00DE
:1007700044657363656E64696E67200041736365E9
:100780006E64696E672000536561204C6576205069
:100790007273200053746174696F6E2050727320FD
:1007A000000000000017000300031F0A1F0A1F05B6
:1007B0000904120F171C000303000E11110E00058F
:1007C0000205040E041008000404040010001804BC
:1007D000031E110F021F0019151215150A07041F19
:1007E0001715091E151D1905031F151F17150F00D5
:1007F0000A00040C04040E1F0A0A0A1F0E04011545
:10080000030E15161E051E1F150A0E11111F110EBF
:100810001F15151F05050E151D1F041F111F11089B
:10082000100F1F041B1F10101F061F1F0E1F0E117D
:100830000E1F05020E191E1F0D16121509011F01AC
:100840000F101F0718071F0C1F1B041B031C031985
:1008500015131F101002040810101F0406041010B6
:10086000100003031A161C1F120C0C12120C121F7C
:100870000C1A16041E050C2A1E1F021C001D001057
:10088000201D1F0C12111F101E0E1E1E021C0C120A
:100890000C3E120C0C123E1C0202141E0A021F1205
:1008A0000E101E0E180E1E1C1E120C1206281E1AEA
:1008B0001F1620504153542000414C544954554474
:1008C000450050524553535552450054454D500034
:1008D000000000000000005F000000070007001497
:1008E0007F147F14242A7F2A122313086462364956
:1008F0005522500005030000001C22410000412247
:100900001C0014083E081408083E08080050300077
:1009100000080808080800606000002010080402B1
:100920003E5149453E00427F4000426151494621C7
:1009300041454B311814127F1027454545393C4A33
:100940004949300171090503364949493606494983
:10095000291E0036360000005636000008142241D9
:100960000014141414140041221408020151090641
:10097000324979413E7E1111117E7F494949363E07
:10098000414141227F4141221C7F494949417F0920
:100990000909013E4149497A7F0808087F00417FE3
:1009A00041002040413F017F081422417F404040E8
:1009B000407F020C027F7F0408107F3E4141413E90
:1009C0007F090909063E4151215E7F0919294646E2
:1009D0004949493101017F01013F4040403F1F200B
:1009E00040201F3F4038403F6314081463070870DD
:1009F00008076151494543007F4141000204081046
:100A0000200041417F000402010204404040404078
:100A1000000605030020545454787F484444383875
:100A200044444420384444487F3854545418087E81
:100A30000901020C5252523E7F0804047800447DA2
:100A400040002040443D007F1028440000417F408A
:100A5000007C041804787C08040478384444443842
:100A60007C14141408081414187C7C080404084826
:100A700054545420043F4440203C4040207C1C20DF
:100A800040201C3C4030403C44281028440C50502E
:100A9000503C4464544C4439306D00386800326432
:100AA00000604300206D6200206D006046002069F8
:100AB0006E0020667400200000407A10F35A00A0F7
:100AC000724E18090010A5D4E80000E87648170017
:100AD00000E40B54020000CA9A3B000000E1F50557
:100AE000000080969800000040420F000000A086A1
:100AF00001000000102700000000E80300000000D3
:100B00006400000000000A00000000000100000076
:100B100000002C76D888DC674F0823DFC1DFAE5990
:100B2000E1B1B796E5E3E453C63AE651997696E823
:100B3000E6C28426EB898C9B62ED407C6FFCEFBCA7
:100B40009C9F40F2BAA56FA5F490055A2AF75C93D2
:100B50006B6CF9676DC11BFCE0E40D47FEF520E608
:100B6000B500D0ED902E0300943577050080841EEB
:100B7000080000204E0A000000C80C333333330F46
:100B8000986E12831141EF8D2114893BE65516CFE3
:100B9000FEE6DB18D1844B381BF77C1D901DA4BBEF
:100BA000E424203284725E228100C9F124ECA1E5A4
:100BB0003D2711241FBECFEFD8E0DEBFCDBF12E02E
:100BC000A0E0B1E0E8EEFDE602C005900D92AC3683
:100BD000B107D9F715E0ACE6B2E001C01D92A33A27
:100BE000B107E1F70E94BA1E0C94F23609CA0F93BE
:100BF0001F93809164008E7F8093640080917A00BF
:100C0000806880937A008EE480937C0083EF91E08B
:100C10000197F1F700C0000080917A008064809312
:100C20007A0080917A0086FDFCCF8091780090E078
:100C3000A0E0B0E040917900342F20E0442737FD58
:100C40004095542F282B392B4A2B5B2B80917A000F
:100C50008F7780937A008091640081608093640034
:100C600060E070E381E190E00E94B633B901CA010F
:100C70001F910F91089580E896EEA5ECB7E480935C
:100C80009F029093A002A093A102B093A2020895A4
:100C9000CF93DF933B9A439889EF90E00197F1F768
:100CA00000C00000439A83EC99E00197F1F700C07F
:100CB000000080E896EEA5ECB7E480939F02909345
:100CC000A002A093A102B093A2020E94F6228EEE8F
:100CD0000E94F322C5E8D2E08AEA90E066E170E083
:100CE000AE010E94FC22882359F088819981988363
:100CF0008983229692E0CB39D907B9F781E001C008
:100D000080E0DF91CF910895A2E0B0E0EAE8F6E05C
:100D10000C94E13384EF90E06EE20E94912381EE27
:100D200094E00197F1F700C0000086EF90E062E0E8
:100D300070E0AE014F5F5F4F0E94FC22882339F0C4
:100D4000998180E02A8130E0282B392B02C020E0F5
:100D500030E0C9012296E2E00C94FD33A3E0B0E05C
:100D6000E4EBF6E00C94E13384EF90E064EF0E9452
:100D7000912383E699E10197F1F700C0000086EF27
:100D800090E063E070E0AE014F5F5F4F0E94FC2295
:100D9000882319F1298130E040E050E0A901332790
:100DA00022278A8190E0A0E0B0E0BA2FA92F982FE7
:100DB0008827282B392B4A2B5B2B8B8190E0A0E0D6
:100DC000B0E0282B392B4A2B5B2B85E056954795B5
:100DD000379527958A95D1F703C020E030E0A90127
:100DE000B901CA012396E2E00C94FD33EF92FF9221
:100DF0000F931F93BC0180E090E020918F0230910F
:100E0000900240E050E0621B730B840B950B209125
:100E10008D0230918E0240E050E00E9442337B010F
:100E20008C01AFE015950795F794E794AA95D1F753
:100E30006091970270919802882777FD8095982F8E
:100E4000FBE0660F771F881F991FFA95D1F7209155
:100E5000990230919A02442737FD4095542F2E0D68
:100E60003F1D401F511F0E94B6332E0D3F1D401FD6
:100E7000511F20939B0230939C0240939D025093FC
:100E80009E02285F3F4F4F4F5F4FE4E055954795D7
:100E900037952795EA95D1F7C9011F910F91FF90DA
:100EA000EF900895A4E0B0E0E8E5F7E00C94D133CA
:100EB00069837A838B839C8360909B0270909C02F1
:100EC00080909D0290909E0280E690EFAFEFBFEF82
:100ED000680E791E8A1E9B1EC401B301A4019301F2
:100EE0000E9442331B012C016091890270918A0299
:100EF000882777FD8095982F0E9442337B018C01D3
:100F00004DE015950795F794E7944A95D1F782E05F
:100F100090E0A0E0B0E0E80EF91E0A1F1B1FC2011E
:100F2000B1013CE095958795779567953A95D1F70E
:100F30002091910230919202442737FD4095542F21
:100F40000E944233BC01992777FD9095892FE60EC8
:100F5000F71E081F191FB2E015950795F794E7943F
:100F6000BA95D1F780E090E8A0E0B0E0E80EF91E75
:100F70000A1F1B1F20918B0230918C0240E050E031
:100F8000C801B7010E9442335B016C01AFE0D69407
:100F9000C794B794A794AA95D1F720919302309162
:100FA0009402442737FD4095542FC201B1010E949D
:100FB00042337B018C01F7E115950795F794E7948F
:100FC000FA95D1F76091870270918802882777FDA2
:100FD0008095982FA40193010E944233EBE09595F0
:100FE000879577956795EA95D1F7E60EF71E081F66
:100FF000191F8091850290918602AA2797FDA095DE
:10100000BA2F72E0880F991FAA1FBB1F7A95D1F7DC
:10101000E80EF91E0A1F1B1FEE0CFF1C001F111FFC
:1010200089819A81AB81BC818E199F09A00BB10B7C
:10103000BC01CD012AE638E140E050E00E94423395
:1010400097FD0BC0660F771F881F991FA60195019A
:101050000E94943379018A010AC0A60195010E9479
:10106000943379018A01EE0CFF1C001F111F5527D4
:1010700017FD5A95412F302F2F2DCA01B9010E941B
:1010800042332EED3BE040E050E00E9442335B01F2
:101090006C01C801B70123E433EE4FEF5FEF0E940C
:1010A00042339C01552737FD5095452F2153314F31
:1010B0004F4F5F4F5601DD24B7FCD094CD2C2A0D45
:1010C0003B1D4C1D5D1DB4E0559547953795279503
:1010D000BA95D1F72E0D3F1D401F511FB901CA010E
:1010E0002496E2E10C94ED3320919F023091A0020E
:1010F0004091A1025091A2020E94533021EB3CED9D
:1011000042E45EE30E94DD31562F472F382F292F0E
:1011100060E070E080E89FE3DA01F9012B2F3A2FBD
:101120004F2F5E2F0E94EE2F20E03AE24DE257E46F
:101130000C947A31EF92FF920F931F937B018C01F5
:10114000CA01B90120E03AE24DE257E40E9453306F
:101150009B01AC0160E070E080E89FE30E94EE2F0D
:1011600026EF38E248EA50E40E94DD31562F472F3F
:10117000382F292FC801B701DA01F9012B2F3A2F97
:101180004F2F5E2F0E9453301F910F91FF90EF90D1
:1011900008959C01862FF90101900020E9F731970D
:1011A000E21BF30BE20FF31F6A3010F490E391930C
:1011B00090E0BF014AE050E00C945B34FF920F9343
:1011C0001F938C01F62EE42FF0E0EE0FFF1FE85B7B
:1011D000FE4F25913491C801B9010E943A34C801EB
:1011E00062E771E00E942F34C8016F2DD2DFC80181
:1011F0001F910F91FF900895CF92DF92EF92FF928F
:101200001F93DF93CF930F92CDB7DEB76C01162FEC
:10121000FC011082662341F06C3031F0862F6CE0C7
:101220000E946133692F01C06CE0C6014983B1DFC0
:10123000C60160E771E00E942F34C6014981642F26
:10124000A8DF1C3018F46EE671E002C06CE671E0B5
:10125000C6010E942F34C6010F90CF91DF911F91DC
:10126000FF90EF90DF90CF900895CF92DF92EF92B2
:10127000FF921F93DF93CF9300D0CDB7DEB76C0101
:10128000162FFC011082662341F06C3031F0862F5E
:101290006CE00E946133692F01C06CE0C6012A83B3
:1012A000498377DFC6016AE671E00E942F34C601E8
:1012B0004981642F6EDFC60168E671E00E942F3419
:1012C000C6012A81622F65DF1C3018F466E671E0E2
:1012D00002C064E671E0C6010E942F34C6010F907F
:1012E0000F90CF91DF911F91FF90EF90DF90CF9003
:1012F0000895EF92FF920F931F93CF93DF93EC012A
:101300009B018FB7F8941091AC020091AB02F09062
:10131000A4024091A302E090A6028FBFCB016CE330
:1013200070E00E946D33181B1C3310F00150145CE8
:10133000C9016CE370E00E946D339B01CB0168E151
:1013400070E00E946D33081B083110F0FA94085EBB
:101350008E2D837011F48DE101C08CE18093020128
:10136000FF2041F4415009F44CE0E42FF0E0E0505C
:10137000FF4FF080C90168E170E00E946D339B016E
:101380000FC021503040FA948F2D81508F3140F0A2
:10139000415009F44CE0E42FF0E0E050FF4FF080C2
:1013A0002115310571F7CE016F2D08DFCE0162E600
:1013B00071E00E942F347E01EC2FFF2DDF010D9094
:1013C0000020E9F7CD0101978E1B9F0B8C0F9D1F0D
:1013D000602F412F11DFCE01CDB7DEB7E6E00C94D0
:1013E000F9331092A60281E08093A3028093A402B5
:1013F0001092AB021092AC021092A5020895809157
:10140000A7029091A802A091A902B091AA02019608
:10141000A11DB11D8093A7029093A802A093A902D9
:10142000B093AA028091A7029091A802A091A9026C
:10143000B091AA0283709070A070B0700097A1055F
:10144000B10509F051C08091A5028F5F8093A5027C
:101450008091A5028C3309F047C01092A5028091BB
:10146000AC028F5F8093AC028091AC028C33E1F5CB
:101470001092AC028091AB028F5F8093AB0280919F
:10148000AB02883189F51092AB028091A4028F5F84
:101490008093A4028091A602837011F48DE101C0B3
:1014A0008CE1809302012091A402E091A30230E03C
:1014B000F0E0E050FF4F808190E001962817390757
:1014C00099F491E09093A4028091A3028F5F80939E
:1014D000A3028091A3028D3039F49093A3028091EE
:1014E000A6028F5F8093A602089581E00E94B92F23
:1014F00080917C028F5F80937C0280917C02873098
:1015000019F58FB7F8949091B7029093A502909136
:10151000BD029093AC029091C7029093AB02909160
:10152000C6029093A4029091B5029093A302909169
:10153000B4029093A6028FBF88E080937902109244
:101540007B0281E08093750208959091B4029370BC
:1015500011F49DE101C09CE12091B502223099F087
:101560009091B502943061F09091B502963041F0BF
:101570009091B502993021F09091B5029B3011F411
:101580009EE101C09FE13091C70220917C0223308F
:1015900009F450C0243030F4213051F1223008F0E9
:1015A00043C00AC0253009F484C0253008F467C060
:1015B000263009F0B7C097C09091B502980F90936C
:1015C000B5028091B5028150813F20F08091B50233
:1015D000845F0BC08091B50281508C3020F08091E7
:1015E000B5028C5002C08091B5028093B502089577
:1015F0002091C602280F2093C6028091C602815016
:10160000813F20F08091C602890F0BC08091C602F5
:101610008150891720F08091C602891B02C08091F9
:10162000C6028093C60208959091B402980F9093D9
:10163000B40208959091C702980F9093C7023C306E
:1016400048F08091C7028C50813F40F48091C702DE
:101650008C500AC08091C702813F20F08091C70260
:10166000845F0AC08091C7028C3020F08091C7024D
:101670008C5002C08091C7028093C7020895909158
:10168000BD02980F9093BD028091BD02813F20F072
:101690008091BD02845C0AC08091BD028C3320F031
:1016A0008091BD028C5302C08091BD028093BD0227
:1016B00008959091B702980F9093B7028091B70266
:1016C000813F20F08091B702845C0AC08091B7020C
:1016D0008C3320F08091B7028C5302C08091B70206
:1016E0008093B7020895813021F48091C702845F0E
:1016F00003C08091C7028C508093C7028091C702BB
:10170000813F20F08091C702885E0AC08091C702A5
:10171000883120F08091C702885102C08091C702B1
:101720008093C7020895E0917902E093B10270932B
:10173000BA026093B9029093BC028093BB025093AB
:10174000C1024093C0023093C5022093C40210929C
:10175000B3021092B2028CE0809379020895EF9266
:10176000FF920F931F9381E00E94B92F8091B102E5
:10177000883051F480917C02833009F042C180911D
:10178000C0028093B6023DC1813009F07CC08091D7
:1017900037028823E1F46091C0027091C10288276A
:1017A00077FD8095982F0E94EE3020E030E040E0F9
:1017B0005FE30E94EF2F25E83BEE41E550E40E94F5
:1017C0007A310E94BB307093C1026093C002809155
:1017D0007C02813021F0823009F013C14BC060914E
:1017E000E6027091E7028091E8029091E9020E947E
:1017F000EE307B018C016091C0027091C10288279C
:1018000077FD8095982F0E94EE302FEB3EE04CE95B
:101810005EE30E947A319B01AC01C801B7018ADC0A
:1018200060939F027093A0028093A1029093A20202
:101830006091E6027091E7028091E8029091E902DE
:101840000E94EE3051DC25E83BEE41E550E40E9479
:101850007A316093EC027093ED028093EE029093E4
:10186000EF028091C0029091C1029093F1028093A7
:10187000F002C7C08091C0029091C1029093C30250
:101880008093C202BEC08091B8028230D1F58091AF
:1018900037028823E1F46091C0027091C102882769
:1018A00077FD8095982F0E94EE3020E030E040E0F8
:1018B0005FE30E94EF2F25E83BEE41E550E40E94F4
:1018C0007A310E94BB307093C1026093C002809154
:1018D0007C02833019F0843091F409C08091C002F9
:1018E0009091C1029093E2028093E10208C080913E
:1018F000C0029091C1029093D6028093D50282E0FB
:101900007EC0843009F043C080913702882359F0AB
:101910008091C0029091C102880F991F9093C102DB
:101920008093C0021AC08091C0029091C1029C01B4
:10193000220F331FC90143E0880F991F4A95E1F731
:10194000820F931F029665E070E00E948133605C15
:101950007F4F7093C1026093C00280917C028330FC
:1019600019F0843091F409C08091C0029091C102B5
:101970009093DE028093DD0208C08091C0029091B6
:10198000C1029093D2028093D10284E038C08630A5
:10199000C1F5809137026091C0027091C102882325
:1019A00079F0882777FD8095982F0E94EE3020EA05
:1019B00034E747E852E40E947A310E94BB3002C00B
:1019C000660F771F7093C1026093C00280917C0202
:1019D000833019F0843091F409C08091C002909155
:1019E000C1029093E0028093DF0208C08091C002A0
:1019F0009091C1029093D4028093D30286E08093A9
:101A0000B1028091B1028093790210927B0281E051
:101A1000809375021F910F91FF90EF900895282FEA
:101A200030E04091C0025091C10287FD07C0240FF1
:101A3000351F3093C1022093C00209C0CA018050F3
:101A40009140820F931F9093C1028093C0028091B6
:101A5000BB029091BC022091C0023091C1022817B4
:101A6000390724F49093C1028093C0028091B90297
:101A70009091BA022091C0023091C102821793075F
:101A800024F49093C1028093C0028091B102883007
:101A9000E9F580917C02853069F48091C002855E11
:101AA00080688093DC0280E061E20E94EB23609119
:101AB000DC020FC080917C02863091F48091C002DC
:101AC00080618093D00280E061E20E94EB2360910C
:101AD000D00280E00E94EB2380E060E20C94EB23D4
:101AE00080917C02873091F48091C0028460809361
:101AF000DB0280E061E20E94EB236091DB0280E088
:101B00000E94EB2380E060E20C94EB230895209187
:101B100079022093B1029093B0028093AF02709348
:101B2000AE026093AD025093BF024093BE0210928A
:101B30007E028DE080937902089590917E0281E08B
:101B4000891B80937E020895CF93DF938091790261
:101B5000883009F07FC080917C0290E00197893045
:101B6000910508F0D7C28C5C9F4FFC010C9408349F
:101B70008BE08093790210927C028FB7F894909159
:101B8000A5029093B7029091AC029093BD02909100
:101B9000AB029093C7029091A4029093C6029091D9
:101BA000A3029093B5029091A6029093B4028FBFC6
:101BB000B1C28DE091E06EE071E047E151E0A7DF56
:101BC0009091370281E0992309F441C080E03FC041
:101BD0004091B60280E090E068E770E050E02EE1CE
:101BE00031E097C24091DC0250E04F7750704B518A
:101BF000504080E090E064E670E013C04091D00275
:101C000050E04770507080E090E067E070E009C0FD
:101C10004091DB0250E04370507080E090E063E060
:101C200070E020E030E075C280E291E06EE271E0A9
:101C300041E351E06CDF6EC28DE091E065E371E05D
:101C400048E351E064DF90916B0281E0891B80934F
:101C50007E0260C220917902213009F097C0809104
:101C60007C02813021F0823009F054C250C0609172
:101C7000EC027091ED028091EE029091EF0220E073
:101C800030E040E05FE30E94EF2F0E94BB30AB01E9
:101C9000BC01809137028823A1F4BA01882777FD1F
:101CA0008095982F24E630E040E050E00E944233D7
:101CB00028E431E040E050E00E94B633832F422F09
:101CC000582FE091370280913702A0913702F0E05F
:101CD000EE0FFF1FEC5AFD4FC82FD0E0CC0FDD1FD9
:101CE000C05ADD4F68817981B0E0AA0FBB1FA85BA5
:101CF000BD4F2D913C912F5F3F4F8081918113DD2E
:101D00008CE391E09093B3028093B20203C280917E
:101D1000C2029091C302FFE78F3F9F0759F08FEFF8
:101D20009FE79093C3028093C20210927B0220939C
:101D30007502F0C16091EC027091ED028091EE02AB
:101D40009091EF0220E030E040E05FE30E94EF2F4F
:101D50000E94BB30AB01BC0180913702882309F09F
:101D60006FC1BA01882777FD8095982F24E630E06F
:101D700040E050E00E94423328E431E040E050E08F
:101D80000E94B633832F422F582F5AC18091790277
:101D9000882349F580917C028150863008F0BAC1D1
:101DA00081E00E94B92F809179028093B1028091E5
:101DB0007C0280937D0289E080937902E0917C022D
:101DC000F0E0E953FD4F808180937C0280917C029A
:101DD000853030F080917C02845080937F025EC118
:101DE00010927F025BC180917902893001F5E09108
:101DF0007D02F0E080917C02E953FD4F8083809169
:101E0000B1028093790280917D0280937C0280915F
:101E10007C02853030F080917C02845080937F0278
:101E200002C010927F0281E080937B0238C18091D2
:101E300079028730A9F480917C02813039F08230B8
:101E400009F068C181E08093770227C080917B020E
:101E50008F5F80937B0210927F0210927C025AC1A6
:101E6000809179028A3009F055C12091B102209306
:101E7000B80280917C02823099F0833020F4813066
:101E800009F048C106C0833021F1843009F042C115
:101E900068C0809380022093790210927B02FFC079
:101EA0008DE091E062E571E048E551E030DE80913F
:101EB000B802843019F48091E302C9CE823019F45B
:101EC0008091E502C4CE863009F024C18091E402FD
:101ED000BECE2430C9F48091DD029091DE022FE75E
:101EE0008F3F920761F08FEF9FE79093DE02809320
:101EF000DD0210927B0284E080937902CFC0409192
:101F0000D7025091D80243C02230A1F48091E1025F
:101F10009091E2023FE78F3F930739F08FEF9FE701
:101F20009093E2028093E102B5C04091D7025091B4
:101F3000D80271C0263009F0EDC08091DF02909187
:101F4000E002EFE78F3F9E0739F08FEF9FE7909316
:101F5000E0028093DF029EC04091D7025091D802E8
:101F6000A5C0243009F041C08091D1029091D202E5
:101F7000FFE78F3F9F0739F08FEF9FE79093D202E3
:101F80008093D10287C04091D9025091DA028091AA
:101F90003702882371F4CA01880F991F880F991F8F
:101FA000840F951F805A904069E070E00E94813351
:101FB000AB01E091370280913702A0913702F0E047
:101FC000EE0FFF1FE05BFD4FC82FD0E0CC0FDD1FF1
:101FD000C45ADD4F68817981B0E0AA0FBB1FAC5BAA
:101FE000BD4F2D913C91119792C0223009F041C014
:101FF0008091D5029091D6023FE78F3F930739F049
:102000008FEF9FE79093D6028093D50243C0409113
:10201000D9025091DA0280913702882389F4BA01FB
:10202000882777FD8095982F0E94EE302FEB3EE0B9
:102030004CE95EE30E947A310E94BB30AB01BC01E7
:10204000E091370280913702A0913702F0E0EE0F65
:10205000FF1FEC5AFD4FC82FD0E0CC0FDD1FC05A38
:10206000DD4F68817981B0E0AA0FBB1FA85BBD4F2F
:102070004AC0263009F04EC08091D3029091D4021C
:10208000EFE78F3F9E0771F08FEF9FE79093D402A9
:102090008093D30210927B022093790281E0809397
:1020A000750238C04091D9025091DA02809137020E
:1020B000882389F4BA01882777FD8095982F0E949C
:1020C000EE3020EA34E747E052E40E947A310E9481
:1020D000BB30AB01BC01E091370280913702A09187
:1020E0003702F0E0EE0FFF1FEE5AFD4FC82FD0E091
:1020F000CC0FDD1FC25ADD4F68817981B0E0AA0F95
:10210000BB1FAA5BBD4F2D913C912F5F3F4F80813C
:10211000918109DBDF91CF910895E0917902F0E0A0
:10212000EE0FFF1FE85FFD4F2081318190E001C07D
:102130009F5FE92FF0E0EE0FFF1FE20FF31F4591C5
:10214000549141155105A1F720917C02280F20934D
:102150007C0280917C02891719F410927C0207C0DE
:1021600080917C028F3F19F4915090937C02909162
:102170007C0280917F02981728F480917C028093E2
:102180007F02089520917C0280917F0230E090E0F0
:102190000496821793072CF480917C0284508093DC
:1021A0007F02089584E18093B6028FEF9FE79093BA
:1021B000C3028093C20282E08093C80281E08093D0
:1021C000C9028FE08093CA0293E09093CB02809380
:1021D000CC0288E08093CD0208951F9381E00E9495
:1021E000B92F8091B1028830D9F580917C0284307A
:1021F00031F1853020F4823009F04AC027C08830A0
:1022000059F0893009F044C080917E02813009F094
:102210003FC0809376023CC010917E021130C1F520
:102220000E94F624BFDF10936B0283E08093370295
:102230000E943B061092F1021092F00229C0909188
:102240007E0281E0891B80936B0222C090917E0206
:10225000892F880F890F81958D5F8093370218C071
:102260008091B802823029F490917E029093E50229
:102270000DC0843029F490917E029093E30206C051
:10228000863031F490917E029093E4028093B10203
:102290008091B1028093790210927B0281E0809359
:1022A00075021F910895EF92FF920F931F93CF93A2
:1022B000DF9380E00E94832A682F6B50653508F019
:1022C0006C5A80E00E94942AFC0182818695869552
:1022D00086959381292F2295220F207EE22EE82ACF
:1022E000E7017E01969596959695F92EE701209740
:1022F000E1F16091EC027091ED028091EE0290911B
:10230000EF0220E030E048EC52E40E947A310E9473
:10231000BB307B018C0180EA9CE1A2E0B0E0E80EDA
:10232000F91E0A1F1B1FBE0180E090E028EC30E080
:1023300040E050E00E944233E61AF70A080B190BFE
:10234000C801B7012AE030E040E050E00E94B63317
:102350002E5C3F4F4F4F5F4FCA01B90124E630E07A
:1023600040E050E00E94B63304C02FEF3FEF4FEF44
:102370005FE7B901CA01CDB7DEB7E6E00C94F933E7
:1023800080E00E94832A682F6D53653508F06C5AEF
:1023900080E00E94942AFC018081882389F02091AA
:1023A000EA023091EB02442737FD4095542F2C5E12
:1023B0003F4F4F4F5F4F281B31094109510904C05E
:1023C0002FEF3FEF4FEF5FE7B901CA010895EF929A
:1023D000FF920F931F9380E00E94832A682F6D5312
:1023E000653508F06C5A80E00E94942AFC016181F6
:1023F0008281782F777061157105E9F0E090E6022F
:10240000F090E7020091E8021091E90280EE91EB72
:10241000AFEFBFEFE80EF91E0A1F1B1F80E090E030
:1024200022E330E040E050E00E944233E61AF70A2F
:10243000080B190B08C06FEFE62E6FEFF62E6FEF4B
:10244000062F6FE7162FB701C8011F910F91FF905C
:10245000EF900895EF92FF920F931F9381E00E94F7
:10246000832A682F6C54653508F06C5A81E00E940D
:10247000942AFC0161818281782F77706115710542
:1024800029F1E090E602F090E7020091E802109155
:10249000E90280EE91EBAFEFBFEFE80EF91E0A1FE5
:1024A0001B1F80E090E022E330E040E050E00E941B
:1024B0004233E61AF70A080B190BC801B70125E0E9
:1024C00030E040E050E00E94B63304C02FEF3FEF11
:1024D0004FEF5FE7B901CA011F910F91FF90EF9095
:1024E00008956F3F2FEF72072FEF82072FE79207B4
:1024F000D9F1693C71058105910574F5693771055C
:10250000810591055CF5663371058105910544F5FA
:1025100016161706180619062CF1611571058105A6
:10252000910511F16B3C2FEF72072FEF82072FEF10
:102530009207E4F468382FEF72072FEF82072FEF2E
:102540009207B4F468332FEF72072FEF82072FEF53
:10255000920784F087E0089580E0089581E008956F
:1025600082E0089583E0089584E0089585E0089569
:1025700086E0089588E00895AAE0B0E0E2ECF2E198
:102580000C94D7338C0170E0615070406F3071054E
:1025900008F062C2635C7F4FFB010C940834DC01DD
:1025A0001C926EC24091EA025091EB0260E015C0AD
:1025B0006091EC027091ED028091EE029091EF0239
:1025C00020E030E040E05FE30E94EF2F0E94BB304C
:1025D0009B01AC01C80162E0A9010E94F32D50C229
:1025E00064E977E00E943A34D8010D900020E9F7C1
:1025F0007D010894E108F108E01AF10A6091E60211
:102600007091E7028091E8029091E902675E7F4F46
:102610008F4F9F4F22E330E040E050E00E94B633FE
:10262000C8018E0D9F1D44C067E877E00E943A34D0
:10263000E090F002F090F1026091E6027091E70202
:102640008091E8029091E9020E94EE304B015C011A
:10265000B701882777FD8095982F0E94EE302FEBE9
:102660003EE04CE95EE30E947A319B01AC01C5017A
:10267000B4010E949A08D8010D900020E9F77D016D
:102680000894E108F108E01AF10AE00EF11E20E0DA
:1026900030E048EC51E40E94EF2F20E030E048E4C5
:1026A00052E40E9453300E94BB309B01AC01C70131
:1026B00061E092CFF8DD6B017C0197FD0FC0C8018E
:1026C0006CE777E00E943A34BFEFCB16BFEFDB0632
:1026D000BFEFEB06BFE7FB0639F009C0C80160E7B2
:1026E00077E00E943A3403C0CC24DD247601D8017F
:1026F0000D900020E9F7CD010197801B910B800F11
:10270000911F62E0A6010E94F32DC8016BE677E0FD
:102710004EC1C9DD4B015C01C8016DE577E00E9447
:102720003A34C090C202D090C3026091EC02709122
:10273000ED028091EE029091EF02BFEF8B16BFEF9A
:102740009B06BFEFAB06BFE7BB0671F12091C2024B
:102750003091C302EFE72F3F3E0731F1EE24D7FC63
:10276000E094FE2C0E94BB30C61AD70AE80AF90A88
:10277000C501B40122E030E040E050E00E94B633F1
:10278000C20ED31EE41EF51EC701B601A5019401B9
:102790000E94B63357FD08C02438F9E03F07F0E047
:1027A0004F07F0E05F0724F0C80167E577E0FFC05E
:1027B000CA01B9012CE330E040E050E00E94B6339A
:1027C000E62EC801622F0E94C908C80165E577E0BE
:1027D0000E942F34C8016E2D0E94C90851C16FE4B8
:1027E00077E00E943A34CCDD6F30710581059105A8
:1027F000ACF569307105810591050CF033C163308A
:102800007105810591050CF02FC1161617061806E3
:1028100019060CF42BC1611571058105910509F4A8
:1028200027C16E3F2FEF72072FEF82072FEF92071E
:102830000CF020C1683F4FEF74074FEF84074FEF54
:1028400094070CF019C1623FAFEF7A07AFEF8A0728
:10285000AFEF9A070CF012C1E8E009C06F3FBFEF7D
:102860007B07BFEF8B07BFE79B0749F0E0E0F0E095
:10287000EE0FFF1FE951FA4F2591349113C0EFEE8F
:10288000F5E0259134910EC065E477E00E943A347A
:102890009EDD27DE90E0880F991F89519A4FFC0139
:1028A00025913491C801B90182C06BE377E00E94A1
:1028B0003A348DDD6B017C0114DE8987CBDD4B0161
:1028C0005C010FDE282F3985EFEFCE16EFEFDE0625
:1028D000EFEFEE06EFE7FE0649F0FFEF8F16FFEF92
:1028E0009F06FFEFAF06FFE7BF0621F4C8016FE2C6
:1028F00077E05DC0832F8750823030F4263060F45B
:10290000C80162E277E053C0353031F4253021F45C
:10291000C80168E177E04BC0932F9550923040F4A6
:10292000822F8550823060F4C8016BE077E03FC0B1
:10293000373030F0263020F0C8016FEF76E037C036
:10294000832F8250823040F4422F4250423090F424
:10295000C80162EF76E02BC0323030F4223050F004
:10296000C80169EE76E023C0383021F4C8016DED6E
:1029700076E01DC0373021F4C80166ED76E017C05F
:10298000923020F4C80161ED76E011C0343021F4BA
:10299000C80167EC76E00BC0823020F4C80162EC1D
:1029A00076E005C0323030F4C80167EB76E00E9473
:1029B0002F3466C0C80162EB76E02A8739870E940F
:1029C0002F34D8010D900020E9F7BD01615070400F
:1029D000601B710B600F711F3985832F90E04AE0F7
:1029E00050E00E945B34C80160EB76E00E942F3417
:1029F000D8010D900020E9F7BD0161507040601BC7
:102A0000710B600F711F2A85822F90E04AE050E021
:102A10000E945B3435C06091AB024091AC022091C2
:102A2000A5020E9435092CC06091A4024091A30226
:102A30000E94DE08C8016EEA76E00E942F346091A1
:102A4000AB024091AC02CE0101960E94FC08BC0191
:102A5000C8010E94503414C0C80160EA76E00E94A8
:102A60003A340EC0E1E003CFE2E001CFE3E0FFCE75
:102A7000E4E0FDCEE5E0FBCEE6E0F9CEE7E0F7CE20
:102A80002A96ECE00C94F333AF92BF92CF92DF9290
:102A9000FF920F931F93DF93CF930F92CDB7DEB7C3
:102AA0005C01CB01BA012CE330E040E050E00E9431
:102AB0009433F62ECA01B90128E130E040E050E03D
:102AC0000E949433162FCA01B901B5E096958795F7
:102AD00077956795BA95D1F7022F0F712DE030E009
:102AE00040E050E00E949433462FC501602F2983B7
:102AF0000E94DE08C5016EE976E00E942F34D50100
:102B00000D900020E9F7BD01615070406A197B0902
:102B10002981822F90E06A0D7B1D8053984F4AE0F7
:102B200050E00E945B34C5016CE976E00E942F34CE
:102B3000D5010D900020E9F7CD0101978A199B0975
:102B40008A0D9B1D612F4F2D0E94FC080F90CF9185
:102B5000DF911F910F91FF90DF90CF90BF90AF90CA
:102B60000895EF92FF920F931F93CF93DF93EC01A1
:102B70008B01DB0112968C9112978695869586952E
:102B800013969C91292F2295220F207E422F482BAD
:102B9000592F569556955695445B5240CE0162E0AA
:102BA0000E940B2ECE016AE976E00E942F347E014E
:102BB000EC2FFF2DDF010D900020E9F7CD010197EB
:102BC0008E1B9F0BF801408150E0445150408C0F08
:102BD0009D1F60E00E940B2ECE0168E976E00E9406
:102BE0002F34EC2FFF2DDF010D900020E9F7CD01F0
:102BF00001978E1B9F0BF80141812281522F577044
:102C000040575E4F8C0F9D1F61E00E94C82DCDB7CD
:102C1000DEB7E6E00C94F933A6E1B0E0E2E1F6E1DC
:102C20000C94D1330E94662C482E55240E949B2C74
:102C3000FC0180819181A281B3810097A105B1053A
:102C400051F480E062E00E9400248FE591E060E0B2
:102C50000E943C2439C10E94C52C00E010E06E01A6
:102C60000894C11CD11C282E3324A02EB02EB3945E
:102C700080E06B2D0E94002480917F027201E81A8F
:102C8000F108E01AF10AF7FE04C00E94C32CE80E16
:102C9000F11C8E2D0E949B2CFC0160807180828033
:102CA0009380611471048104910409F4DAC0909155
:102CB0007F0280917C029801290F311D90E0281736
:102CC000390711F46FE701C060E081E00E94EB2357
:102CD000C7010196B6014AE050E00E945B34909132
:102CE0007F0280917C029801290F311D90E061E004
:102CF0002817390709F060E0C6010E943C24F6015C
:102D000001900020E9F73197EE2EEC1890917F02A8
:102D100080917C029801290F311D90E02817390716
:102D200011F46FE501C060E281E00E94EB23909115
:102D30007F0280917C029801290F311D90E02817B5
:102D4000390711F46FE701C060E081E00E94EB23D6
:102D500090917F0280917C029801290F311D90E0B3
:102D60002817390711F46FE701C060E081E00E9485
:102D7000EB23C601B401A30187DE90917F0280910D
:102D80007C029801290F311D90E061E02817390776
:102D900009F060E0C6010E943C24F6010190002089
:102DA000E9F73197EC19FD09FF240894E11CF11CA7
:102DB000EE0EFF1EEE0CEE0C12C090917F02809181
:102DC0007C029801290F311D90E02817390711F472
:102DD0006FE701C060E081E00E94EB23E394FE2DE9
:102DE000F43558F3AA2091F480917F02882399F159
:102DF00080E56B2D0E94002490917F0280917C02DF
:102E000061E0981360E08DE691E023C08A2D833065
:102E100011F580917F0290E00196800F911F82153D
:102E20009305C9F080917C028F3FA9F080E56B2D5E
:102E30000E94002490917F0280917C029801290FCA
:102E4000311D90E061E02817390709F060E08FE656
:102E500091E00E943C240F5F1F4F0430110509F0E0
:102E600004CF80917C02481A510857FE04C00E948A
:102E7000C32C480E511C842D0E949B2C8C0180E099
:102E800065E00E94002481E061E00E94EB23B8012C
:102E90006C5F7F4F8E010F5F1F4FC80162DEC8015C
:102EA0000E949824F80101900020E9F73197E01B77
:102EB000F10B0E2F000F000F04C081E061E00E94B3
:102EC000EB230F5F0435C8F36696E2E10C94ED3313
:102ED0001F93182F0E94C52C90917C02910F909304
:102EE0007C0290917C02981719F410927C0207C022
:102EF00090917C029F3F19F4815080937C029091C5
:102F00007C0280917F02981718F480917C020DC09A
:102F100020917C0280917F0230E090E0039682173E
:102F200093072CF480917C02835080937F021F9141
:102F3000089581E00E94B92F10927B0281E0809376
:102F4000750208950F931F93982F062F80E0692F25
:102F50000E94002414E581E0602F0E94EB231150B1
:102F6000D1F71F910F910895A6E1B0E0EAEBF7E1E8
:102F70000C94D533E0917902F0E0EE0FFF1FE85F8B
:102F8000FD4F8080918020E001C02F5F622E77246A
:102F9000F301EE0FFF1FE80DF91D85919491009745
:102FA000A1F700E010E06E010894C11CD11CCAC05A
:102FB00080917F02F801E80FF11DEE0FFF1FE80D71
:102FC000F91D85919491E82EF92E80917902813036
:102FD000A1F480917F029801280F311D2230310524
:102FE00061F48091C2029091C3023FE78F3F930743
:102FF00021F046E4E42E43E0F42E809179028A30F9
:10300000D1F58091B102823029F0E1E0843019F4E9
:10301000E0E001C0E2E080917F029801280F311DBD
:103020002330310589F4AE2FB0E0AA0FBB1FA352A5
:10303000BD4F8D919C9111973FE78F3F930721F0F2
:1030400020E6E22E25E0F22E80917F029801280FE3
:10305000311D2430310579F4F0E0EE0FFF1FEF52FF
:10306000FD4F808191813FE78F3F930721F080E7FB
:10307000E82E85E0F82EA02EB02EB39490917F021A
:1030800080917C029801290F311D90E028173907A3
:1030900011F46FE701C060E08B2D54DF84E06B2DED
:1030A0000E940024C601B70145E150E00E9441346E
:1030B00090917F0280917C029801290F311D90E050
:1030C00061E02817390709F060E0C6010E943C243E
:1030D000AA2091F480917F02882379F180E56B2DFD
:1030E0000E94002490917F0280917C0261E09813FD
:1030F00060E08DE691E01FC08A2D8430F1F480916C
:103100007F0290E00196800F911F86159705A9F028
:1031100080E56B2D0E94002490917F0280917C02BB
:103120009801290F311D90E061E02817390709F057
:1031300060E08FE691E00E943C240F5F1F4F053056
:10314000110549F080917F029801280F311D261545
:1031500037050CF42DCF6696EEE00C94F133A2E225
:10316000B0E0E5EBF8E10C94DD33182F7E01089414
:10317000E11CF11C80E2F70111928A95E9F7C70181
:103180002AA349A3F9D9812F60E0DCDEF701019081
:103190000020E9F73197EE19FF0949A14E1B2AA13A
:1031A000429F802D1124612F0E940024002329F0CA
:1031B000C70160E00E943C2403C0C7010E9429248B
:1031C000A296E6E00C94F933A6E1B0E0EAEEF8E16D
:1031D0000C94DF3380E060E00E94002400E010E007
:1031E00009C0F801EC58FE4F649181E00E94EB2386
:1031F0000F5F1F4F81E00035180799F780E064E00A
:103200000E9400248E010F5F1F4FC80164E876E022
:103210000E943A34C80160E00E943C2480E065E0EE
:103220000E940024C80164E776E00E943A34C80195
:1032300060E00E943C246696E4E00C94FB33AEE12F
:10324000B0E0E5E2F9E10C94D93380918302882360
:1032500011F0BADF8BC580917902882339F580910E
:103260007B02882301F56091C8024EE023E000E074
:1032700076DF6091C90281E04EE023E070DFEE244A
:10328000FF24F701E653FD4F60818E2D8E5F45E1EF
:1032900022E001E064DF0894E11CF11C24E0E21666
:1032A000F10479F763C581E791E05DC5809179020A
:1032B0008A30D1F48091B102843021F0863021F43B
:1032C00081E003C080E001C082E060917A029091C9
:1032D0007B0241E0911140E00E948F2680917B02A9
:1032E000813009F043C541C580917902883009F0E9
:1032F000DEC080917B0261E0811160E083E891E0B3
:103300000E94112680917B02882309F02EC561E07E
:103310000E9400248AE891E060E00E943C2408E0DA
:10332000E02EF12CEC0EFD1EC70164EC72E00E9451
:103330003A34C70160E00E943C240E94F7055B011B
:103340006C0185E090E0A0E0B0E0A80EB91ECA1EB6
:10335000DB1EC7016BE676E00E943A34D7010D9080
:103360000020E9F78D01015010400E191F09C60118
:10337000B5012AE030E040E050E00E94B633CA01D7
:10338000B9010E94EE3020E030E048EC52E40E94A7
:1033900053300E0D1F1D41E022E00E940E34C70184
:1033A00069E676E00E942F3480E062E00E9400240B
:1033B000C70160E00E943C2480E063E00E9400249A
:1033C000C7016FE576E00E943A348091DC02F70194
:1033D00001900020E9F7BF0190E08F779070615075
:1033E00070404B974AE050E00E945B34C70160E0B8
:1033F0000E943C2480E064E00E940024C70168E54C
:1034000076E00E943A3480916B02882321F0C70154
:1034100065E576E003C0C70161E576E00E942F34E0
:103420008E01085F1F4FC80160E00E943C2460913C
:10343000A4024091A302C8010E94DE0880E065E07A
:103440000E940024C80160E00E943C24C8016FE48F
:1034500076E00E943A348091A602D8010D900020B7
:10346000E9F7BD0190E0615070408053984F4AE009
:1034700050E00E945B34C80160E00E943C246091EF
:10348000AB024091AC022091A502C8010E9435090F
:10349000F80101900020E9F73197E01BF10BEE0FE6
:1034A000EE0F84E58E1B65E00E94002439C48091F4
:1034B0007902873009F065C080917B0261E081115B
:1034C00060E083E991E00E94112680917B028823CD
:1034D00009F04BC00E94662CC82E0E949B2C7C01D8
:1034E000FC01208131814281538121153105410543
:1034F000510539F480E062E00E9400248DE991E0FA
:1035000010C48E01085F1F4FC80165E476E00E9479
:103510003A34D8010D900020E9F7BD018C2D90E0E0
:103520006150704001964AE050E00E945B3480E0B8
:1035300062E00E940024C80160E00E943C24F70180
:1035400041915191619171917F01C8019DDA80E0B3
:1035500063E00E940024C80160E00E943C24C8018E
:10356000B701FFDA80E064E09FCF80917B02813079
:1035700009F4FBC380917B02823009F0F7C34CDB76
:10358000F5C380917902843041F480917A024091B0
:1035900081022091800260E017C08091790286301C
:1035A00041F480917A02409181022091800261E091
:1035B0000BC080917902823051F480917A0240915F
:1035C00081022091800262E00E94CA26CFC38091CE
:1035D00079028B3009F003C18DEA91E060E00E942E
:1035E000112680E162E00E94002418E0E12EF12C17
:1035F000EC0EFD1EC70163E476E00E943A34409170
:10360000B5028E010F5F1F4FC80161E00E94DE0806
:103610001C82C701B8010E945034C70161E476E002
:103620000E942F3480917C0261E0811160E0C7012B
:103630000E943C248E01085F1F4FC8016FE376E0B3
:103640000E943A346091C602C8010E94C908C801AC
:103650006DE376E00E942F3480917C0261E081303E
:1036600009F060E0C8010E943C248E01085F1F4FF2
:10367000C8016BE376E00E943A348091B402D8012D
:103680000D900020E9F7BD0190E06150704080533B
:10369000984F4AE050E00E945B34C80169E376E04D
:1036A0000E942F3480917C0261E0823009F060E05A
:1036B000C8010E943C2488E064E00E9400248091BC
:1036C000C702882359F08091C7028C3039F080916D
:1036D000C7026CE00E946133292F01C02CE08E01EB
:1036E000085F1F4FC80167E376E02E8F0E943A34CF
:1036F000C8012E8D622F0E94C908C80165E376E0DB
:103700000E942F3480917C0261E0833009F060E0F8
:10371000C8010E943C248BEB91E060E00E943C24B5
:103720008E01085F1F4FC80163E376E00E943A34C0
:103730006091BD02C8010E94C908C80161E376E03A
:103740000E942F3480917C0261E0843009F060E0B7
:10375000C8010E943C248BEB91E060E00E943C2475
:103760008E01085F1F4FC8016FE276E00E943A3475
:103770006091B702C8010E94C908C8016DE276E0F5
:103780000E942F3480917C0261E0853009F060E076
:10379000C8010E943C248E01085F1F4FC8016BE2E4
:1037A00076E00E943A348091C7028C3020F4C80140
:1037B00068E276E003C0C80165E276E00E942F343B
:1037C0008E01085F1F4FC80163E276E00E942F342C
:1037D00080917C0261E0863009F065C165C180910D
:1037E00079028C3009F0C5C080917C02E091B10271
:1037F000F0E0EE0FFF1FE85FFD4F90E0880F991F8C
:103800000190F081E02DE80FF91F259134918E0190
:10381000085F1F4FC801B9010E943A34C80160E037
:103820000E9411262091B2023091B3022115310578
:10383000C9F0C901F90101900020E9F731978E1B09
:103840009F0B880F991F880F991F8C5A9F4F969531
:10385000879562E0D5D78091B2029091B30260E083
:103860000E943C246091B9027091BA02AA24A394E8
:103870002AE030E005C0A394CB01B9010E94813356
:103880006A307105C4F782E190E08A19910962E01B
:1038900070E00E948133862F880F880F2091B2023A
:1038A0003091B3022115310511F064E001C063E0ED
:1038B000A7D72091C0023091C102CE01089637FFF0
:1038C00003C061E276E002C06FE176E00E943A3424
:1038D000E090C002F090C102F7FE04C0F094E194C1
:1038E000F108F3940AE010E068E0C62ED12CCC0E6B
:1038F000DD1E13C0E016F1062CF4C6016DE176E082
:103900000E942F34C801880F991F43E0000F111F38
:103910004A95E1F7080F191FAA94BA2DB23050F753
:103920008E01085F1F4FF80101900020E9F7BF01E9
:1039300061507040C7014AE050E00E945B34C8010A
:103940006BE176E00E942F34C80161E095D7609169
:10395000C4027091C5026115710509F407C2C8015E
:103960000E943A34C80161E087D78DEB91E061E0B5
:10397000D9C1809179028D3009F098C080917C0284
:10398000E091B102F0E0EE0FFF1FE85FFD4F90E025
:10399000880F991F0190F081E02DE80FF91F259104
:1039A00034918E01085F1F4FC801B9010E943A345B
:1039B000C80160E00E941126E091AF02F091B002D0
:1039C00080818823B9F0CF0101900020E9F7319779
:1039D0008E1B9F0B880F991F880F991F8C5A9F4F22
:1039E0009695879562E00CD78091AF029091B002D6
:1039F00060E042D7E091AD02F091AE02DF010D90A0
:103A00000020E9F711978E2F8A1B880F880F805EA0
:103A1000A091AF02B091B0029C91992311F064E0A3
:103A200001C063E0EDD68E01085F1F4FC80169E158
:103A300076E00E943A346091AD027091AE02C80106
:103A40000E945034C80167E176E00E942F348091D3
:103A50007E0261E0811160E0C8010ED7E091AF0203
:103A6000F091B0028081882311F064E001C063E02E
:103A70008CE2C6D68E01085F1F4FC80165E176E073
:103A80000E943A346091BE027091BF02C8010E9448
:103A90005034C80163E176E00E942F3480917E02A9
:103AA00061E0813009F060E0C8013CC18091790299
:103AB000813009F057C080917B0261E0811160E0A4
:103AC0008FEB91E00E94112680917B02882309F000
:103AD0004CC18E01085F1F4FC80162E00E94BC12FA
:103AE00080E061E08DD6C80160E0C6D6C80163E021
:103AF0000E94BC1280E062E083D6C80160E0BCD6C0
:103B00008091C2029091C302FFE78F3F9F07C1F0EF
:103B100080E064E075D6C80166E076E00E943A3441
:103B2000D8010D900020E9F7CD014091C2025091DB
:103B3000C302019762E00E94F32DC80160E09CD6A9
:103B40008091C2029091C302BFE78F3F9B0709F4A7
:103B50000DC18E01085F1F4FC80164E00E94BC12B6
:103B600080E0A1CC80917902833009F05AC0809125
:103B70007B0261E0811160E088EC91E00E941126F7
:103B800080917B02882309F0F0C061E039D68E0174
:103B9000085F1F4FC80161E00E94BC12C80160E0CD
:103BA0006BD680E062E02CD684ED91E060E064D6D4
:103BB0000E94C0116B017C016F3FEFEF7E07EFEFBA
:103BC0008E07EFE79E0731F4C80162E076E00E94BD
:103BD0003A3414C097FD06C0C80160E076E00E9448
:103BE0003A3401C01886CE010896DC010D90002001
:103BF000E9F7CD010197B6010E94592D8E01085FAA
:103C00001F4FC80160E038D68BED91E060E034D6FC
:103C100083E060E097D980E063E0F2D5C80169E015
:103C20007DC080917902853009F07EC080917B0251
:103C300061E0811160E082EE91E0F3D780917B0238
:103C4000882309F092C061E0DBD58E01085F1F4F29
:103C5000C80165E00E94BC12C80160E00DD680E09A
:103C600062E0CED50E94E7116B017C016F3FBFEF90
:103C70007B07BFEF8B07BFE79B0731F4C8016BEFF2
:103C800075E00E943A3421C097FD06C0C80169EF73
:103C900075E00E943A3401C01886FE013896DF01B3
:103CA0000D900020E9F78D01C701B601675E7F4FD7
:103CB0008F4F9F4F22E330E040E050E00E94B63348
:103CC000C8010197B9010E947A2D8E01085F1F4F2C
:103CD000C80160E0D1D58BEE91E060E0CDD583E006
:103CE00060E030D980E063E08BD5C8016AE00E94D3
:103CF000BC12C80160E0C0D580E064E081D5C80195
:103D000066E00E94BC12C80160E0B6D585E060E0C4
:103D100019D980E065E074D5C8016BE00E94BC123F
:103D2000C80160E0A9D522C0809179028930F1F400
:103D300080917D02E091B102F0E0EE0FFF1FE85F9D
:103D4000FD4F90E0880F991F0190F081E02DE80F62
:103D5000F91F259134918E01085F1F4FC801B901E9
:103D60000E943A34C80160E05CD7FED86E96EAE063
:103D70000C94F533A0E0B0E0E0ECFEE10C94D93314
:103D800085B1876085B932D625D680E017D687E819
:103D900093E10197F1F700C000000E94F10980E073
:103DA0000E94DB2C0E94802F0E941F2E0E94D210A6
:103DB000789480E060E024D587EF91E04AD50E94B6
:103DC00048068823E1F38091B60080628093B600B4
:103DD0008091B6008F7B8093B6001092B00083E094
:103DE0008093B1008091B60090E08F709070009742
:103DF000C9F783EC99E00197F1F700C0000081E07A
:103E000087BB8093700090916B00976090936B00DC
:103E100090916B00906190936B009091680091601D
:103E200090936800909164009F6A909364008093DF
:103E30000602AA24A39480917802882341F010926C
:103E40007802D4D5C7D580E0B9D5A0920702809179
:103E50007602882349F01092760280E060E0D0D4A8
:103E6000B9D581E00E94DB2C80910602882329F4D9
:103E700080917702882309F467C0809164008F776E
:103E8000809364000E9484060E94F606EC010E9462
:103E9000AE060E9452076B017C018091640080682D
:103EA0008093640080910602882329F0CE01B70137
:103EB000A6010E94952B80917702882309F440C0C7
:103EC000BFB6F8946091A60270E080E090E02DE02B
:103ED00030E040E050E00E9442332091A302620FA4
:103EE000711D811D911D25E0660F771F881F991F89
:103EF0002A95D1F72091A402620F711D811D911D99
:103F000028E130E040E050E00E9442332091AB02D3
:103F1000620F711D811D911D2CE330E040E050E0E7
:103F20000E9442338B019C018091AC02BFBE080FFE
:103F3000111D211D311DCE01B701A6010E94062CC5
:103F4000109206021092770280917502882319F070
:103F5000109275023FD580910702882399F0109244
:103F600007026DD90FC080918402882359F483B76A
:103F7000817F866083BF83B7816083BF889583B765
:103F80008E7F83BF80910602882309F054CF8091F1
:103F90000702882309F04FCF80917702882319F315
:103FA0004ACF1F93182F809180028823D1F08091EF
:103FB0008102810F8093810280918102813F20F0F4
:103FC000809181028C5A0AC080918102843520F050
:103FD00080918102845502C0809181028093810288
:103FE0009BC080917902893040F0809179028930BC
:103FF00021F0809179028A3041F480917B028130F6
:1040000021F4812F0E948D1087C080917902893020
:1040100008F063C080917B02882309F05EC00E9493
:10402000B92F80917902843041F0809179028630F5
:1040300021F0809179028230E1F480917A02810F3F
:1040400080937A0280917A02833031F410927A025E
:10405000809179028F5F0AC080917A028F3F11F5BB
:1040600082E080937A028091790281508093790274
:1040700019C080917902810F809379021F3F81F4EA
:1040800080917902843041F080917902863021F06C
:1040900080917902823021F482E080937A0202C01A
:1040A00010927A0280917902813F20F0809179020A
:1040B000875F0AC080917902893020F0809179026F
:1040C000895002C0809179028093790283E58093C0
:1040D000810281E0809375021FC0809179028B304C
:1040E00021F4812F0E94A50A17C0809179028C309B
:1040F00021F4812F0E940F0D0FC0809179028D3025
:1041000021F4812F0E949D0D07C080917902873094
:1041100019F4812F0E9468171F9108951F938091B1
:104120007902863041F080917902843021F08091CB
:1041300079028230B1F480918002882361F481E0B9
:104140000E94B92F809179028093B1028AE0809316
:10415000790281E01FC082E00E94B92F1092800294
:104160001FC080917902893018F580917B028823E5
:10417000F9F4E0917902F0E0EE0FFF1FE85FFD4FE8
:1041800080819181009781F081E00E94B92F809118
:104190007B028F5F80937B0210927F0210927C02E1
:1041A00081E08093750258C083E00E94B92F54C00B
:1041B00080917902893040F080917902893021F034
:1041C000809179028A3069F510917B02113049F5AE
:1041D00080917C028823F9F482E00E94B92F8091BB
:1041E0007B02815080937B0280917902893051F467
:1041F0008091B1028093790280917D0280937C024C
:1042000010937B02809179028A3051F68091B1023D
:1042100080937902C5CF81E00E94B92F0E94A40D3E
:10422000BFCF809179028B3019F40E94750A14C0B7
:10423000809179028C3019F40E94AF0B0DC08091EF
:1042400079028D3019F40E94ED1006C08091790238
:10425000873011F40E9499171F9108951F920F92B1
:104260000FB60F921124EF92FF920F931F932F938B
:104270003F934F935F936F937F938F939F93AF93EE
:10428000BF93EF93FF930E94FF098091A702909143
:10429000A802A091A902B091AA0283709070A070A8
:1042A000B0700097A105B105E1F4809182028823E6
:1042B00059F480917902883039F480917B02882307
:1042C00019F481E0809307028091A502882349F4C4
:1042D00081E08093060290918202992311F48093E9
:1042E000070280918202882309F082C08091A70290
:1042F0009091A802A091A902B091AA02E090B20008
:10430000FF2400E010E0BA2FA92F982F8827E82A71
:10431000F92A0A2B1B2B80916D0290916E02A091BD
:104320006F02B0917002209183022223E1F5A8016F
:104330009701281B390B4A0B5B0BDA01C901853F3A
:1043400031E0930730E0A30730E0B30760F1189B3A
:1043500002C01A9928C0813747E1940740E0A407BA
:1043600040E0B40758F4893B5BE0950750E0A507AF
:1043700050E0B50730F49CEF84E005C098ED88E28A
:1043800002C094EF8CE020917902293030F4209122
:104390007B02222311F49FEF81E01899892F01DE1F
:1043A00081E08093070280916C02882309F5809157
:1043B000710290917202A0917302B0917402E81A96
:1043C000F90A0A0B1B0B8091B60290E0A0E0B0E066
:1043D0004AE0880F991FAA1FBB1F4A95D1F78E1577
:1043E0009F05A007B10720F481E080938202E6D206
:1043F0001092B0008091B60081FDFCCFFF91EF914B
:10440000BF91AF919F918F917F916F915F914F91EC
:104410003F912F911F910F91FF90EF900F900FBE42
:104420000F901F9018951F920F920FB60F921124A4
:10443000DF92EF92FF920F931F932F933F934F932F
:104440005F936F937F938F939F93AF93BF93EF93FC
:10445000FF931C9903C00E94422FAFC08091A70216
:104460009091A802A091A902B091AA02E090B20096
:10447000FF2400E010E0BA2FA92F982F8827E82A00
:10448000F92A0A2B1B2B189B09C01A9B07C081E035
:1044900090E0199B05C080E090E002C081E090E0D0
:1044A000D82E809182028823B1F0DD20A1F01092F5
:1044B0008202E0927102F0927202009373021093F2
:1044C000740280E07BD281E08093750280930702C2
:1044D0008093830272C080918302813051F41899D5
:1044E0005CC01A995AC0199B58C082E0809383021D
:1044F00054C080918302823059F4DD2009F05BC002
:104500001092830281E0809375028093070247C076
:10451000189908C01A9906C0199904C081E08093BF
:1045200078023BC0DD20D9F180916C02882309F02C
:1045300042C08091710290917202A0917302B09179
:104540007402A8019701281B390B4A0B5B0BDA0197
:10455000C901189B02C01A990CC08A319105A105A6
:10456000B10538F0189902C081E001C08FEF19DD64
:1045700008C0199909C08A319105A105B10520F03B
:10458000CDDD81E080930702E0926D02F0926E0231
:1045900000936F02109370020EC0DD2061F48091D1
:1045A0006C02882341F0E0927102F0927202009353
:1045B000730210937402D0926C02FF91EF91BF913D
:1045C000AF919F918F917F916F915F914F913F91AB
:1045D0002F911F910F91FF90EF90DF900F900FBEE2
:1045E0000F901F9018958093CF0208951092B900F4
:1045F0008AE08093B8000895E091CF0230E0F4EAB9
:1046000024E8AE2FA1603F5F393C09F486C0F093E7
:10461000BC009091BC0097FFFCCF9091B900987FAF
:104620009093CE02903129F0983389F3983009F0B5
:1046300076C0E093BB002093BC009091BC0097FF34
:10464000FCCF9091B900987F9093CE029032D9F22E
:104650009833E9F2983109F05BC08093BB00209356
:10466000BC009091BC0097FFFCCF9091B900987F5F
:104670009093CE02983221F0983309F049C0C7CF09
:10468000F093BC009091BC0097FFFCCF9091B900D3
:10469000987F9093CE02903129F0983309F4B7CFE8
:1046A0009830B1F5A093BB002093BC009091BC0062
:1046B00097FFFCCF9091B900987F9093CE029833EA
:1046C00009F4A5CF903421F5E42FF52F94EC1AC00E
:1046D0006130710509F494E89093BC008091BC00AE
:1046E00087FFFCCF8091B900887F8093CE02803510
:1046F00021F0883569F460E070E08091BB0081931F
:10470000615070408E2F841B161617060CF301C0E3
:1047100080E094E99093BC00089580E0089580E0E3
:1047200008955091CF0220E044EA34E82F5F293CFD
:1047300009F44DC04093BC009091BC0097FFFCCFA2
:104740009091B900987F9093CE02903121F09833E8
:1047500089F39830F1F55093BB003093BC009091F1
:10476000BC0097FFFCCF9091B900987F9093CE0248
:104770009032E1F29833F1F2983121F58093BB0049
:104780003093BC009091BC0097FFFCCF9091B90092
:10479000987F9093CE02983219F0983399F4CACF4B
:1047A0006093BB0084E88093BC008091BC0087FFCD
:1047B000FCCF8091B900887F8093CE02883211F4BB
:1047C00081E001C080E094E99093BC00089580E00E
:1047D000089580E00895882311F05F9A01C05F98E2
:1047E0005C9888E02D9867FF02C02B9A01C02B9837
:1047F0002D9A815011F0660FF5CF5C9A2B9A08958F
:104800001F93162F682F606880E0E5DF612F6064DA
:1048100080E0E1DF1F9108950F931F93CF93DF9303
:1048200005E0809F80011124E801C05DD74F0B5C3B
:10483000174FFE01649181E0CEDF2196C017D107AA
:10484000C1F781E060E0C7DFDF91CF911F910F9149
:104850000895EF92FF92CF93DF93E82EE7017E0158
:10486000F92EE70101C0D8DF89918823E1F7DF91B4
:10487000CF91FF90EF900895A0E0B0E0E2E4F4E281
:104880000C94DB33D62E082F192F3FE7C32E45C0DB
:104890008D3621F5DD2011F063E401C06CE381E089
:1048A0009ADFDD2011F06BE701C064E081E093DF67
:1048B000DD2011F067E601C068E181E08CDFDD20DA
:1048C00011F06BE701C064E081E085DFDD2011F0CD
:1048D00067E401C068E381E07EDF18C023E0829FC7
:1048E000C0011124EC01CF5BD84F24E4E22E27E075
:1048F000F22EE80EF91EFE016491660FD1106C25B0
:1049000081E069DF2196CE15DF05A9F7DD2011F0E2
:104910006FE701C060E081E05EDFF80181918F0107
:10492000882309F0B5CFCDB7DEB7E8E00C94F733B4
:10493000EF92FF920F931F93CF93DF93082F192FBE
:104940002DC08D3681F481E069E745DF81E069E0C3
:1049500042DF81E061E33FDF81E069E03CDF81E04D
:1049600061E739DF18C023E0829FC0011124EC0108
:10497000CF5BD84F44E4E42E47E0F42EE80EF91E56
:10498000FE016491660F660F616081E024DF21966D
:10499000CE15DF05A9F781E061E01DDFF801819107
:1049A0008F01882371F6CDB7DEB7E6E00C94F933BA
:1049B000882311F05B9A08955B980895882329F065
:1049C00080E064E208DF80E004C080E060E203DFB2
:1049D00081E0EECFCF93DF93C8EFD1E081E060E0DC
:1049E000FADE2197D9F7DF91CF91089581EB80937B
:1049F000DC0284E18093D00284E08093DB028FEFBD
:104A00009FE79093DE028093DD029093D202809321
:104A1000D1021092E3029093E0028093DF02909320
:104A2000D4028093D3021092E4029093E202809326
:104A3000E1029093D6028093D5021092E502549A37
:104A4000559A579A539A239A259A5D985D9A80E0D1
:104A500061E2C1DE6091DC0280E0BDDE6091DB02DC
:104A600080E0B9DE6091D00280E0B5DE80E060E2F7
:104A7000B2DE80E06CE0AFCE2F923F924F925F9219
:104A80007F928F929F92AF92BF92CF92DF92EF92DE
:104A9000FF920F931F93DF93CF93CDB7DEB7279786
:104AA0000FB6F894DEBF0FBECDBF782E2B014901A3
:104AB0005801823021F4440C551C440F551FD40179
:104AC000F50180E01D9211928F5F8431D9F7D601F4
:104AD0001C928E010F5F1F4FC801672D0E94C82DC9
:104AE000180143E01FC0849FC0011124FC01EF5B4B
:104AF000F84F9C012C5B384F6491D6015C91C50145
:104B0000850F911DDC016C93852F8F5FD6018C93EF
:104B10003196E217F30781F7F501E80FF11D1082D6
:104B20008F5F8C93F10181911F018823E1F6D701FA
:104B30001C92CE010196672DA2010E94C82D23E090
:104B40001FC0829FC0011124FC01EF5BF84F8C5BFA
:104B5000984F4491D7013C91D401A30FB11D440F4C
:104B6000440F440F4C933F5FD7013C933196E817B5
:104B7000F90779F7F401E30FF11D10823F5F3C93D1
:104B8000F80181918F018823E1F627960FB6F894FA
:104B9000DEBF0FBECDBFCF91DF911F910F91FF9070
:104BA000EF90DF90CF90BF90AF909F908F907F90CD
:104BB0005F904F903F902F900895CF93DF93EC013B
:104BC00080E060E01DDE81E06FE705DECE0161E0A0
:104BD00053DEDF91CF910895A1E0B0E0E2EFF5E27E
:104BE0000C94E033182FE12FF92F80E003C02D360D
:104BF00009F48F5F3E2F311B21912223C1F781954C
:104C0000880F8C5A232F220F220F821B60E099837A
:104C1000F7DD812F998161E02FDE2196E3E00C948E
:104C2000FC33A1E0B0E0E7E1F6E20C94DB33D82EF0
:104C3000E92E162FE82FF92FDF010D900020E9F75C
:104C40001197A81B23E130E02A1B310935952795E0
:104C5000C22E0A2F01950D5E021B80E060E0D0DDC0
:104C6000112311F06FE701C060E081E0B4DD112392
:104C700019F04EE152E002C040E252E0CA01612F59
:104C8000FBDD112331F483E060E0BADD81E060E216
:104C9000A2DDFF24F39411C0112329F086E292E0F3
:104CA00061E0EADD09C090E081E060E2998393DD94
:104CB00099819F5F9430C1F7F394FC1468F386E206
:104CC00092E0612FD9DD8D2D9E2D612FD5DD86E2FD
:104CD00092E0612FD1DDFF24F3940FC0112329F05E
:104CE00086E292E061E0C8DD07C0E4E0EE2E81E0FC
:104CF00060E271DDEA94D9F7F394F01678F380E579
:104D000060E07EDD112319F082E292E002C084E2CD
:104D100092E0612FB1DD2196E8E00C94F733A5E134
:104D2000B0E0E5E9F6E20C94DD33282FF62EE42E10
:104D3000882329F4CE0101966BEC78E009C0CE01FE
:104D40000196213019F462EC78E002C069EB78E05A
:104D50000E943A348E010F5F1F4FC80162EB78E06A
:104D60000E942F34F80101900020E9F7CF01EF2DC8
:104D7000F0E0EE0FFF1FE25CFD4F208131810197D3
:104D8000B9010E942F34C8016E2D4BDF6596E6E015
:104D90000C94F933A1E6B0E0E0EDF6E20C94D133E7
:104DA00062968FAF6297762E67964FAF6797689639
:104DB0002FAF6897A8D3682E67963FAD6797232FCC
:104DC00030E064963FAF2EAF6497C901860D911D08
:104DD00064E570E00E9481334C0100E010E0CC24D7
:104DE000CA94DC2CAA24BB24EE24EA94FE2C6296FE
:104DF0008FAD6297602F98D3FC0120812223B9F4F4
:104E000081813281932F9770009789F4432F4695C3
:104E1000469546953381532F5295550F507E852FD9
:104E2000842B932F969596959695009739F1772038
:104E300011F430E017C08281472D413021F42181E7
:104E4000382F37700FC0982F969596959695838139
:104E5000482F4295440F407E242F292B382F36951A
:104E600036953695A216B30608F459012E153F055E
:104E700008F479010815190509F469010F5F1F4F3E
:104E80000435110509F0B3CF772009F04BC0B60106
:104E90006451704061967FAF6EAF61978091DD0283
:104EA0009091DE027FE78F3F970739F46CEE862EF4
:104EB0006FEF962E8E0C9F1C04C08090DD029090A8
:104EC000DE028091D1029091D202AFE78F3F9A0724
:104ED00029F4ECEEFFEFAE0EBF1E04C0A090D1028D
:104EE000B090D20222E030E0C401B9010E948133C7
:104EF0007093D8026093D702C501B9010E94813333
:104F00007093DA026093D9028091DD029091DE0203
:104F1000FFE78F3F9F0709F0B7C08091D1029091C2
:104F2000D202B2C0272D213009F05FC0A601405740
:104F30005E4F61965FAF4EAF61978091DF029091B7
:104F4000E0025FE78F3F950739F450E9852E51E085
:104F5000952E8E0C9F1C04C08090DF029090E00282
:104F60008091D3029091D4026FE78F3F960729F486
:104F700080E991E0A80EB91E04C0A090D302B090C1
:104F8000D402B401882777FD8095982F0E94EE30D7
:104F900020EA34E747E852E40E9453300E94BB30D5
:104FA0007093D8026093D702B501882777FD80956A
:104FB000982F0E94EE3020EA34E747E852E40E943E
:104FC00053300E94BB307093DA026093D902809113
:104FD000DF029091E002AFE78F3F9A0709F054C0DB
:104FE0008091D3029091D4024FC0F601E45BF2406D
:104FF0006196FFAFEEAF61978091E1029091E2027E
:10500000FFE78F3F9F0739F44CE4842E4DEF942E39
:105010008E0C9F1C09C08091E1029091E20262E037
:1050200070E00E9481334B018091D5029091D602AD
:105030002FE78F3F920729F44CE45DEFA40EB51ED5
:1050400009C08091D5029091D60262E070E00E9482
:1050500081335B01C401880F991F9093D80280931C
:10506000D702C501880F991F9093DA028093D90265
:105070008091E1029091E2025FE78F3F950721F472
:105080008091D5029091D6026FEFC6166FEFD606CB
:1050900031F48FEF9FE761969FAF8EAF61979FEFDF
:1050A000E9169FEFF906A9F41092DA021092D902DC
:1050B0008091D9029091DA029093D8028093D7021E
:1050C0008FEFA82E8FE7B82E0EEF802E0FE7902ED1
:1050D00020C0A814B90429F445010894A11CB11CEE
:1050E00018C0C501881999098431910594F4C50146
:1050F000880D991D62E070E00E94813316EF812EC9
:105100001FEF912E860E971EBAE0AB2EB12CA60E85
:10511000B71E80E062E25FDB862D8D5A64E50E9457
:105120006133692EA2E12A2E312C2C0E3D1EF6E2AF
:105130004F2E512C4C0E5D1E872DB401A5019101FF
:1051400082017E010894E11CF11CE2E0CE2ED12CFC
:10515000CC0EDD1E91DC13E50FEFDE0118966E9686
:10516000BFAFAEAF6E97A0963FAE2EAEA097C50173
:10517000881999099C01442737FD4095542F6C9656
:105180002CAF3DAF4EAF5FAF6C972DE0E22EF12C10
:10519000EC0EFD1E472C552443EE52E0440E551EE6
:1051A000812F61E02DDB5A81498193E0292E312C3A
:1051B0002C0E3D1EBE01685F7F4F66967FAF6EAFBF
:1051C0006697DB01F101812F90E026E230E02C0FA1
:1051D0003D1F280F391F62E170E06C0F7D1F860FA5
:1051E000971FA296BFAFAEAFA29768967FAD6897A4
:1051F000772329F06796AFAD67971A1711F060E033
:1052000001C065E56193A296AEADBFADA2976FEF09
:105210006D93A296BFAFAEAFA297151748F4772350
:1052200039F46B81D901CC906C296B83B0ECB887D1
:10523000141748F4772339F46F81DC01CC906C2982
:105240006F83B3E0BC876E96AEADBFAD6E97EA17C5
:10525000FB0771F662968FAD6297662D65D1FC01F2
:105260006A94B62DBF3F11F483E5682E772029F4A8
:10527000608170E0645170401BC08281272D213015
:1052800031F46181782F777060577E4F11C0982F6D
:105290009695969596958381282F2295220F207EAC
:1052A000622F692B782F769576957695645B7240A0
:1052B0001D861E861F86188A198A681579050CF4C2
:1052C0007DC0A616B7060CF479C080818823C1F48E
:1052D00081812281922F9770009791F4322F369519
:1052E000369536952381422F4295440F407E842F78
:1052F000832B922F969596959695009709F45EC00C
:1053000068197909882777FD8095982F29ED3FEF57
:105310004FEF5FEF0E9442336C962CAD3DAD4EAD2A
:105320005FAD6C970E94B633295D822F8695869576
:105330008695322F377091E002C0990F3150332398
:10534000E1F7F701E80FF11D90832017D1F10F3F2E
:10535000B9F1D2019C91992399F5021710F00150EF
:1053600021C00F5F09C0392F3695392B3083902F1C
:105370009F5F201729F1092FF701E80FF11D908198
:1053800090FFF1CF8150F701E80FF11DB0E8B08335
:10539000EECF392F330F392B3083902F91502017B8
:1053A00079F0092FF701E80FF11D908197FFF1CFF8
:1053B0008F5FF701E80FF11D31E0EECF0FEF01C075
:1053C000022F6701D6019D916D016696EEADFFAD8E
:1053D000669761916696FFAFEEAF6697D1018D91AA
:1053E0001D016923682B81E0F6D9A096EEADFFADD3
:1053F000A097CE16DF0631F7115008F0D1CE80E02D
:1054000060E2E9D96896FFAD6897FF2309F45FC0B1
:105410008FB7F8949091AB02A091AC028FBF6296C7
:105420002FAD6297E22FF0E0EE0FFF1FE85CFD4F1B
:10543000608171818E01065C1F4F43E550E06496E8
:10544000EEADFFAD64974E1B5F0B469F9001479FEB
:10545000300D569F300D11248CE3989FC00111240C
:105460008A0F911D0E946D33280F391FC801B901A1
:105470000E947909C801A1DBF80101900020E9F739
:105480003197E01BF10B1E2F110F110F03C081E0AC
:105490006FE7A1D91F5F1435D0F3F72DF23051F427
:1054A00061962EAD3FAD6197220F331F61963FAFDE
:1054B0002EAF61978E01065C1F4FC801672D619664
:1054C0004EAD5FAD6197A7D3C80186DB06C0872DBF
:1054D00062966FAD629741E022DCCF59DF4FE2E187
:1054E0000C94ED3370E0685A704094E5899FC001D8
:1054F0001124680F791F660F771F660F771F605F93
:105500007F4FCB010895282F30E0823028F42256B7
:105510003A4FF90180810895C901880F991F880FBA
:10552000991F05970C947A34823068F424E5829FA1
:1055300090011124260F311D220F331F220F331F1C
:1055400026503D4F0DC0CEDF0E94823460939A05F5
:1055500070939B0580939C0590939D052AE935E007
:10556000C9010895A0E0B0E0E8EBFAE20C94D5336D
:10557000EC0179018A012093E6023093E70240931F
:10558000E8025093E902CB01E3E0880F991FEA9506
:10559000E1F7860F971F65E070E00E948133605C41
:1055A0007E4F5B01CC24B7FCC094DC2CC601B50156
:1055B00025E030E040E050E00E94B6333093EB024B
:1055C0002093EA02C601B5016C392FEF72072FEF65
:1055D00082072FEF920724F46CE97FEF8FEF9FEFA4
:1055E0006A597F4F8F4F9F4F25E030E040E050E0F9
:1055F0000E94B633A22EB32EC42ED52E6FEFA61660
:10560000B104C104D10431F02CF07FEFA72EB12CEE
:10561000C12CD12C80E2E8168EE4F80680E0080761
:1056200080E018071CF0C801B70104C060E27EE406
:1056300080E090E067507E448040904022E330E07C
:1056400040E050E00E94B633622E932E842E752ED9
:10565000C801B701C3D50E94740825E83BEE41E5B7
:1056600050E448D6262F372F482F592F2093EC028D
:105670003093ED024093EE025093EF0220E030E0D1
:1056800040E05FE3ACD477D5262F372F482F592F32
:1056900028396AEF36076FEF46076FEF560724F495
:1056A00028E93AEF4FEF5FEF27593A4F4F4F5F4FDF
:1056B0005595479537952795A882862D992DA82D24
:1056C000B72D803068E0960760E0A60760E0B60777
:1056D00024F08FEF97E0A0E0B0E0898397708A8193
:1056E000887F892B8A83203080E2380780E0480752
:1056F00080E0580724F02FEF3FE140E050E0922F88
:10570000990F990F990F8A818770892B8A83832F2C
:10571000880F880F880F229526952770282B2B83BA
:10572000CDB7DEB7EEE00C94F133A6E0B0E0EBE9E4
:10573000FBE20C94D933FC019A01AB01CE01019636
:10574000BF0110DF18E3E12E12E0F12E0EE915E0A3
:10575000CC24DD2420E0B4E5AB2E3CE3222389F009
:105760008091AB024091AC02839FC0011124840F51
:10577000911DF70160817181B0D70097B1F522309A
:10578000C9F0F8018081F601E80FF11DEE0FFF1F4F
:10579000EE0FFF1FE650FD4F49815A816B817C81DE
:1057A00040835183628373838F5F6A2D8AD7F801A8
:1057B00090831BC083E090E02D833E830E947A3467
:1057C000B82E82E06B2D8EDE49815A816B817C81FF
:1057D0000E949E348B2D8F5F6A2D73D7692F83E0D3
:1057E00090E00E948C343E812D812F5F82E090E01A
:1057F000E80EF91E0F5F1F4FE4E5F0E0CE0EDF1E4E
:10580000233009F0ABCF2696EAE0EFC76F927F9284
:105810008F929F92BF92CF92DF92EF92FF920F935F
:105820001F93DF93CF9300D000D00F92CDB7DEB798
:10583000FC016A017B0138014901CE010196BF01DB
:10584000A70196018FDE00E611E020E0CC24CA9487
:10585000DC2C7601BB24C8012D830E9482342D816B
:105860006C157D058E059F0518F46B017C01B22E29
:105870002F5F085F1F4F243571F70B2D10E0045D7B
:105880001F4F83E0000F111F8A95E1F7C801B40193
:10589000A3010E949E3449815A816B817C81C80199
:1058A00004960E949E340F900F900F900F900F90CF
:1058B000CF91DF911F910F91FF90EF90DF90CF90EC
:1058C000BF909F908F907F906F900895AF92BF92FE
:1058D000DF92EF92FF920F931F93DF93CF930F927C
:1058E000CDB7DEB790E6A92E91E0B92E20E0EE24E8
:1058F000FF248701DD24C50129830E948234298188
:105900006E157F058007910718F07B018C01D22E60
:105910002F5F88E090E0A80EB91E243561F78D2D29
:105920000F90CF91DF911F910F91FF90EF90DF903B
:10593000BF90AF900895A4E0B0E0E0EAFCE23FC77A
:10594000082F10E0045D1F4F23E0000F111F2A9560
:10595000E1F7C801D7D76093F2027093F302809306
:10596000F4029093F502C8010496CCD76093F60236
:105970007093F7028093F8029093F90282EF92E01D
:105980002496E4E038C784E508951F93CF93DF930E
:10599000C0E6D1E010E0CE01B5D7611571058105F3
:1059A000910521F01F5F28961435A9F7812FDF910B
:1059B000CF911F9108951F93CF93DF93182F1092CB
:1059C000F1021092F002AEE9B5E02AEF32E01D924A
:1059D000F90184E51082118212821382815034967B
:1059E0008823C1F7205B3E4F85E0A03AB80779F7DE
:1059F00080E090E08CD72EEB833B920711F41123CB
:105A000071F188E292E00E94292480E090E043EB6B
:105A10005EEB60E070E092D784E090E040E050E020
:105A2000BA018CD710E082E0612F5CDD40E050E0ED
:105A3000BA0184D71F5F1435B1F7C0E6D1E0CE01BB
:105A400040E050E0BA017AD7CE01049640E050E041
:105A5000BA0174D7289684E0C030D80781F7DF9167
:105A6000CF911F9108950F931F938C01882777FD85
:105A70008095982FB3D320913702222379F420E028
:105A800030E040E852E4AAD220E030E040EA50E4BE
:105A900031D420E030E040E151E405D320E030E0B3
:105AA00040E05FE327D441E021E0B8D61F910F9199
:105AB00008950F931F938C01882777FD8095982F69
:105AC0008DD320913702222351F420E030E040EAC8
:105AD00050E410D420E030E040E151E4E4D220E092
