:100000002EC5000049C5000047C500000C943923E7
:1000100043C5000041C500003FC500003DC50000CC
:100020003BC500000C94682237C500000C94FC30DE
:1000300033C5000031C500002FC500002DC50000EC
:100040002BC5000029C5000027C5000025C50000FC
:1000500023C5000021C500001FC500001DC500000C
:100060001BC5000019C50000430F640F730FA70FD5
:100070007D0F890F930F9F0F9F0F5D146314E5147D
:1000800014157B149F14CE16D716B2150716181622
:100090005A1407634236B79BD8A71A39685618AE68
:1000A000BAAB558C1D3CB7CC5763BD6DEDFD753EAD
:1000B000F6177231BF000000803F08000000BE92BA
:1000C0002449123EABAAAA2ABECDCCCC4C3E00009D
:1000D0000080BEABAAAAAA3E00000000BF0000003C
:1000E000803F0000000000084178D3BB4387D11354
:1000F0003D190E3CC3BD4282AD2B3E68EC8276BEFC
:10010000D98FE1A93E4C80EFFFBE01C4FF7F3F00C5
:10011000000000004A616E00466562004D61720099
:10012000417072004D6179004A756E004A756C002D
:1001300041756700536570004F6374004E6F760021
:1001400044656300140118011C01200124012801E9
:100150002C013001340138013C01400120006400D1
:100160006800346400326400323468003268003958
:10017000306D006D005000410030003A0030003A10
:100180000030005000410030003A003000200020D4
:100190003000312E302E300045786974204D656E68
:1001A00075004C696E6520312044617461004C69B2
:1001B0006E6520322044617461004C696E652033A5
:1001C0002044617461004C696E6520342044617480
:1001D00061004C696E6520352044617461004C6992
:1001E0006E6520362044617461009801A201AE0161
:1001F000BA01C601D201DE01000043616C6962727E
:10020000617465005365742044657374696E61742C
:10021000696F6E0052657365742044657374696E0E
:100220006174696F6E009801FA0104020000446174
:10023000746520616E642054696D65004D6561735D
:100240007572656D656E7420556E69747300536CBC
:100250006565702044656C617900536F756E64004C
:100260004C434420436F6E7472617374004C43447A
:100270002042696173004C43442054656D702043F3
:100280006F656600526573746F72652044656661C0
:10029000756C747300457261736520416C6C204409
:1002A0006174610098012E023C024E025A02600203
:1002B0006D02760284029502000054656D706572CD
:1002C000617475726500416C74697475646500527F
:1002D000617465206F6620417363656E74005469B4
:1002E0006D6520746F2044657374696E6174696F05
:1002F0006E0053746174696F6E205072657373750C
:10030000726500536561204C6576656C205072659E
:1003100073737572650054696D65206F6620446162
:1003200079004461746520616E642054696D6500D4
:1003300054656D7065726174757265205472656E76
:1003400064005072657373757265205472656E64D3
:10035000005765617468657220466F7265636173EA
:100360007400456D707479009801BA02C602CF021C
:10037000DE02F20203031603220330034203510399
:10038000620300005669657720536E617073686F71
:1003900074204C6F670054616B6520536E617073FD
:1003A000686F740098018403960300004578706CB0
:1003B0006F72652047726170680044726177696E80
:1003C00067205374796C6500437573746F6D2059A1
:1003D0002D41786973204D696E00437573746F6D9C
:1003E00020592D41786973204D6178004175746FF3
:1003F00020592D41786973204D696E004175746FE5
:1004000020592D41786973204D6178009801AC0323
:10041000BA03C803DA030000536F6172696E6700A4
:10042000526973696E67204661737400526973691B
:100430006E6700526973696E6720536C6F77005363
:1004400074656164790046616C6C696E6720536CF9
:100450006F770046616C6C696E670046616C6C6911
:100460006E67204661737400506C756D6D657469BC
:100470006E6700180420042C0433043F0446045320
:10048000045B0468042B002D2D2D2D002B002D2D39
:100490002D0044657374696E6174696F6E2000206D
:1004A000002000200020002000300020002D00202F
:1004B00000504D00414D0020002000300020002061
:1004C000003000200020003000200020002000200C
:1004D000003000200020002000536E617073686FB0
:1004E00074200020004F6666004F6E00536F756EDB
:1004F000642000436F6E7472617374200056004272
:100500006174746572792000205041535420004179
:100510004C54495455444500505245535355524547
:100520000054454D5000202020202020746F20755D
:100530006E6C6F636B0020686F6C64205052455680
:1005400020616E64204E4558540020002000200099
:100550002000556E696D706C656D656E7465640024
:10056000200020004572722000436C6561722C20CF
:10057000447279004661697200556E6368616E6706
:100580006564005261696E0053746F726D79005634
:100590006572792053746F726D7900436C65617276
:1005A000696E6700476F6F64205765617468657294
:1005B00000417070722E2053746F726D00506F6F17
:1005C00072205765617468657200556E6368616E6C
:1005D0006765640042726965662053686F7765726B
:1005E00000556E617661696C61626C6500466F7280
:1005F0006563617374200050726573737572652052
:100600000054656D70200030003A0030002D2D2D13
:100610002D2D0054696D6520746F2044657374201E
:10062000002F6D696E0044657363656E64696E6763
:100630002000417363656E64696E672000536561D5
:10064000204C657620507273200053746174696F7A
:100650006E2050727320000000000017000300039A
:100660001F0A1F0A1F050904120F171C00030300AD
:100670000E11110E00050205040E041008000404FA
:10068000040010001804031E110F021F0019151298
:1006900015150A07041F1715091E151D1905031F37
:1006A000151F17150F000A00040C04040E1F0A0A78
:1006B0000A1F0E040115030E15161E051E1F150A2E
:1006C0000E11111F110E1F15151F05050E151D1FEB
:1006D000041F111F1108100F1F041B1F10101F06ED
:1006E0001F1F0E1F0E110E1F05020E191E1F0D16C5
:1006F000121509011F010F101F0718071F0C1F1BE0
:10070000041B031C031915131F10100204081010FA
:100710001F0406041010100003031A161C1F120CED
:100720000C12120C121F0C1A16041E050C2A1E1F86
:10073000021C001D0010201D1F0C12111F101E0E88
:100740001E1E021C0C120C3E120C0C123E1C02024D
:10075000141E0A021F120E101E0E180E1E1C1E1250
:100760000C1206281E1A1F16205041535420004117
:100770004C544954554445005052455353555245E5
:100780000054454D5000000000000000005F0000D4
:100790000007000700147F147F14242A7F2A1223E5
:1007A0001308646236495522500005030000001CFE
:1007B0002241000041221C0014083E081408083E93
:1007C00008080050300000080808080800606000B1
:1007D0000020100804023E5149453E00427F40007F
:1007E00042615149462141454B311814127F10276F
:1007F000454545393C4A49493001710905033649A7
:10080000494936064949291E003636000000563649
:10081000000008142241001414141414004122147E
:10082000080201510906324979413E7E1111117EBB
:100830007F494949363E414141227F4141221C7F47
:10084000494949417F090909013E4149497A7F08DF
:1008500008087F00417F41002040413F017F08148C
:1008600022417F404040407F020C027F7F040810FD
:100870007F3E4141413E7F090909063E4151215ECB
:100880007F09192946464949493101017F01013F44
:100890004040403F1F2040201F3F4038403F6314EE
:1008A00008146307087008076151494543007F41F8
:1008B000410002040810200041417F0004020102AF
:1008C0000440404040400006050300205454547842
:1008D0007F484444383844444420384444487F38AE
:1008E00054545418087E0901020C5252523E7F089B
:1008F00004047800447D40002040443D007F1028DF
:10090000440000417F40007C041804787C08040403
:100910007838444444387C14141408081414187C9F
:100920007C080404084854545420043F4440203CAC
:100930004040207C1C2040201C3C4030403C44284F
:100940001028440C5050503C4464544C44604300C4
:10095000206D6200206D0060460020696E002066F8
:100960007400200000407A10F35A00A0724E18095B
:100970000010A5D4E80000E87648170000E40B5406
:10098000020000CA9A3B000000E1F50500008096D5
:100990009800000040420F000000A0860100000007
:1009A000102700000000E8030000000064000000C1
:1009B00000000A00000000000100000000002C768A
:1009C000D888DC674F0823DFC1DFAE59E1B1B796A5
:1009D000E5E3E453C63AE651997696E8E6C2842602
:1009E000EB898C9B62ED407C6FFCEFBC9C9F40F2DE
:1009F000BAA56FA5F490055A2AF75C936B6CF9675A
:100A00006DC11BFCE0E40D47FEF520E6B500D0ED1E
:100A1000902E0300943577050080841E0800002086
:100A20004E0A000000C80C333333330F986E128324
:100A30001141EF8D2114893BE65516CFFEE6DB18F8
:100A4000D1844B381BF77C1D901DA4BBE4242032BD
:100A500084725E228100C9F124ECA1E53D271124B6
:100A60001FBECFEFD8E0DEBFCDBF12E0A0E0B1E007
:100A7000E6ECF0E702C005900D92A835B107D9F772
:100A800015E0A8E5B2E001C01D92AB38B107E1F76F
:100A90000E94FA1F0C946138B3CA0F931F93809180
:100AA00064008E7F8093640080917A0080688093D8
:100AB0007A008EE480937C0083EF91E00197F1F758
:100AC00000C0000080917A00806480937A00809159
:100AD0007A0086FDFCCF8091780090E0A0E0B0E045
:100AE00040917900342F20E0442737FD4095542F62
:100AF000282B392B4A2B5B2B80917A008F778093A0
:100B00007A008091640081608093640060E070E30B
:100B100081E190E00E94EC34B901CA011F910F916C
:100B2000089580E896EEA5ECB7E480938502909353
:100B30008602A0938702B09388020895A2E0B0E0F5
:100B4000E4EAF5E00C94173590E062E070E0AE0165
:100B50004F5F5F4F0E94292480935802998180E063
:100B60002A8130E0282B392BC9012296E2E00C942F
:100B700033353B9A439889EF90E00197F1F700C035
:100B80000000439A83EC99E00197F1F700C0000060
:100B900080E896EEA5ECB7E48093850290938602F8
:100BA000A0938702B09388020E9423248EEE0E94B5
:100BB00020248AEAC3DF90937202809371028CEA48
:100BC000BDDF90937A02809379028EEAB7DF90932B
:100BD0008A028093890280EBB1DF90937E0280933A
:100BE0007D0282EBABDF909378028093770284EBF7
:100BF000A5DF909376028093750286EB9FDF90933A
:100C000074028093730288EB99DF90936E02809355
:100C10006D028AEB93DF9093700280936F028CEBEE
:100C20008DDF9093800280937F028EEB87DF90931D
:100C30007C0280937B0280915802089584EF90E0BB
:100C40006EE20E94C22481EE94E00197F1F700C0A9
:100C5000000086EF73DF20915802222319F0282F1D
:100C6000392F02C020E030E0C9010895A3E0B0E0D0
:100C7000ECE3F6E00C94173584EF90E064EF0E940B
:100C8000C22483E699E10197F1F700C0000086EFE6
:100C900090E063E070E0AE014F5F5F4F0E94292457
:100CA000882319F1298130E040E050E0A901332781
:100CB00022278A8190E0A0E0B0E0BA2FA92F982FD8
:100CC0008827282B392B4A2B5B2B8B8190E0A0E0C7
:100CD000B0E0282B392B4A2B5B2B85E056954795A6
:100CE000379527958A95D1F703C020E030E0A90118
:100CF000B901CA012396E2E00C943335EF92FF92DA
:100D00000F931F93BC0180E090E020917502309119
:100D1000760240E050E0621B730B840B950B209130
:100D200077023091780240E050E00E9478347B01F5
:100D30008C01AFE015950795F794E794AA95D1F744
:100D400060917F0270918002882777FD8095982FAF
:100D5000FBE0660F771F881F991FFA95D1F7209146
:100D60007B0230917C02442737FD4095542F2E0D95
:100D70003F1D401F511F0E94EC342E0D3F1D401F90
:100D8000511F20938102309382024093830250933B
:100D90008402285F3F4F4F4F5F4FE4E055954795E2
:100DA00037952795EA95D1F7C9011F910F91FF90CB
:100DB000EF900895A4E0B0E0E0EEF6E00C94073583
:100DC0001B012C01A0908102B0908202C09083028E
:100DD000D090840280E690EFAFEFBFEFA80EB91E6F
:100DE000CA1EDB1EC601B501A60195010E9478341A
:100DF00069837A838B839C836091890270918A02D4
:100E0000882777FD8095982F0E9478347B018C018C
:100E10004DE015950795F794E7944A95D1F782E050
:100E200090E0A0E0B0E0E80EF91E0A1F1B1F6981E8
:100E30007A818B819C813CE0959587957795679524
:100E40003A95D1F72091730230917402442737FD0F
:100E50004095542F0E947834BC01992777FD9095D6
:100E6000892FE60EF71E081F191F82E015950795BA
:100E7000F794E7948A95D1F780E090E8A0E0B0E09D
:100E8000E80EF91E0A1F1B1F20917D0230917E0281
:100E900040E050E0C801B7010E9478343B014C01AA
:100EA000BFE09694879477946794BA95D1F7609150
:100EB000790270917A02882777FD8095982FA60194
:100EC00095010E9478347B018C01ABE01595079564
:100ED000F794E794AA95D1F78091710290917202EC
:100EE000AA2797FDA095BA2FF2E0880F991FAA1F95
:100EF000BB1FFA95D1F7E80EF91E0A1F1B1F2091A0
:100F00006D0230916E02442737FD4095542F698160
:100F10007A818B819C810E947834E7E19595879551
:100F200077956795EA95D1F7E60EF71E081F191F0A
:100F3000EE0CFF1C001F111F2E183F08400A510A1B
:100F4000C201B1012AE638E140E050E00E94783465
:100F500097FD0BC0660F771F881F991FA40193018F
:100F60000E94CA3479018A010AC0A40193010E9437
:100F7000CA3479018A01EE0CFF1C001F111F55278E
:100F800017FD5A95412F302F2F2DCA01B9010E940C
:100F900078342EED3BE040E050E00E9478345B0175
:100FA0006C01C801B70123E433EE4FEF5FEF0E94FD
:100FB00078349C01552737FD5095452F2153314FEB
:100FC0004F4F5F4F5601DD24B7FCD094CD2C2A0D36
:100FD0003B1D4C1D5D1DB4E05595479537952795F4
:100FE000BA95D1F72E0D3F1D401F511FB901CA01FF
:100FF0002496E2E10C9423352091850230918602FB
:1010000040918702509188020E94893121EB3CED8A
:1010100042E45EE30E941333562F472F382F292FC7
:1010200060E070E080E89FE3DA01F9012B2F3A2FAE
:101030004F2F5E2F0E94243120E03AE24DE257E428
:101040000C94B032EF92FF920F931F937B018C01AF
:10105000CA01B90120E03AE24DE257E40E94893129
:101060009B01AC0160E070E080E89FE30E942431C6
:1010700026EF38E248EA50E40E941333562F472FF8
:10108000382F292FC801B701DA01F9012B2F3A2F88
:101090004F2F5E2F0E9489311F910F91FF90EF908B
:1010A0000895EF92FF921F93CF93DF93EC01162FD9
:1010B000E42FF0E0EE0FFF1FEE5BFE4F2591349121
:1010C000CE01B9010E9470351A3020F4CE016FE8CC
:1010D00071E003C0CE016DE871E00E9465357E01CC
:1010E000AC2FBF2DFD0101900020E9F73197EA1BDD
:1010F000FB0BEC0FFD1F812F90E0BF014AE050E099
:101100000E949835CE01DF91CF911F91FF90EF9013
:101110000895A1E0B0E0EFE8F8E00C9411356C011F
:10112000162F042FFC011082662389F06C3079F0B1
:10113000862F6CE00E949734292F9A3048F4C6011C
:101140006BE871E029830E946535298101C02CE09C
:10115000F60101900020E9F73197EC19FD09EC0D3B
:10116000FD1D822F90E0BF014AE050E00E949835BB
:10117000C60169E871E00E9465350A3028F4C601AD
:1011800067E871E00E946535F60101900020E9F7FB
:101190003197EC19FD09EC0DFD1D802F90E0BF018A
:1011A0004AE050E00E9498351C3018F465E871E080
:1011B00002C063E871E0C6010E946535C601219650
:1011C000E8E00C942D35A1E0B0E0E9EEF8E00C94F5
:1011D0000F355C01162F042FF22EDC011C926623C2
:1011E00089F06C3079F0862F6CE00E949734292FBB
:1011F0009A3048F4C50161E871E029830E946535A1
:10120000298101C02CE0D5010D900020E9F7BD0136
:10121000615070406A197B096A0D7B1D822F90E036
:101220004AE050E00E949835C5016FE771E00E94E6
:1012300065350A3028F4C5016DE771E00E94653517
:10124000D5010D900020E9F7BD01615070406A1989
:101250007B096A0D7B1D802F90E04AE050E00E94E0
:101260009835C5016BE771E00E946535BF2DBA3036
:1012700028F4C50169E771E00E946535F501019028
:101280000020E9F73197EA19FB09EA0DFB1D8F2DC4
:1012900090E0BF014AE050E00E9498351C3018F4FD
:1012A00067E771E002C065E771E0C5010E9465353E
:1012B000C5012196EAE00C942B350F931F938C0106
:1012C0006C33710550F4CB01B8014AE050E00E9444
:1012D0009835C80163E771E047C06435710519F4BA
:1012E0006FE671E01DC06038710519F46CE671E0BD
:1012F00017C085E0683E780721F4C80168E671E010
:101300000FC089E0683D780721F4C80165E671E007
:1013100007C083E1603B780731F4C80162E671E001
:101320000E94703523C088E06137780778F4CB01DC
:101330006CE370E00E94A334CB01B8014AE050E0B6
:101340000E949835C80160E671E00EC0CB0160EAEA
:1013500075E00E94A334CB01B8014AE050E00E943E
:101360009835C8016EE571E00E946535C8011F918E
:101370000F910895A0E1B0E0E0ECF9E00C940F3596
:10138000E82ED92E9B018FB7F894F0909402C0906C
:101390009302E0918C0240918B02F0918E028FBFFC
:1013A000CB016CE370E00E94A334F81A8F2D8C33CC
:1013B00018F0CA948CE3F80EC9016CE370E00E9447
:1013C000A3349B01CB0168E170E00E94A334C81AEA
:1013D0008C2D883118F0E15088E1C80EF37011F4BB
:1013E000FDE101C0FCE1EE23D9F4415049F0423067
:1013F00091F0413091F0433081F0453071F002C0FE
:101400004CE00BC0473049F0483039F04A3029F001
:101410004C3029F402C0EF2F03C0EFE101C0EEE130
:10142000C90168E170E00E94A3349B0122C02150F1
:101430003040E1508E2F81508F31D8F0415049F02B
:10144000423091F0413091F0433081F0453071F0FD
:1014500002C04CE00BC0473049F0483039F04A3008
:1014600029F04C3029F402C0EF2F03C0EFE101C096
:10147000EEE121153105D9F65E010894A11CB11CDD
:10148000C5016E2F0EDE8E01085F1F4FC8016C2D47
:101490004F2D3FDE8E2D9D2DB5010E9491358E2D55
:1014A0009D2D6CE571E00E9465358E2D9D2DB80156
:1014B0000E9486358E2D9D2D6096EAE00C942B358A
:1014C00010928E0281E080938B0280938C021092A6
:1014D00093021092940210928D02089580918F02CF
:1014E00090919002A0919102B09192020196A11D5B
:1014F000B11D80938F0290939002A0939102B093BC
:10150000920280918F0290919002A0919102B091ED
:10151000920283709070A070B0700097A105B10521
:1015200009F067C080918D028F5F80938D0280915A
:101530008D028C3309F05DC010928D02809194026F
:101540008F5F80939402809194028C3309F051C094
:1015500010929402809193028F5F80939302809106
:101560009302883109F045C01092930280918C0259
:101570008F5F80938C0280918E02837011F48DE1D5
:1015800001C08CE190918B02923041F420918C0249
:1015900030E090E0019628173907C1F080918B0266
:1015A000843061F080918B02863041F080918B0213
:1015B000893021F080918B028B3021F480918C0254
:1015C0008F3121F080918C02803299F491E09093D8
:1015D0008C0280918B028F5F80938B0280918B02B3
:1015E0008D3039F490938B0280918E028F5F8093BF
:1015F0008E020895A7E1B0E0E0E0FBE00C940B352B
:10160000E0915D02F0E0EE0FFF1FE451FE4F80809D
:10161000918020E001C02F5F622E7724F301EE0F4E
:10162000FF1FE80DF91D859194910097A1F700E047
:1016300010E06E010894C11CD11CD5C080916302DA
:10164000F801E80FF11DEE0FFF1FE80DF91D859160
:101650009491E82EF92E80915D028130A1F4809161
:1016600063029801280F311D2230310561F4809109
:10167000AA029091AB023FE78F3F930721F044E12C
:10168000E42E42E0F42E80915D028A30D1F5809103
:101690009902823029F0E1E0843019F4E0E001C0E1
:1016A000E2E0809163029801280F311D233031055B
:1016B00089F4AE2FB0E0AA0FBB1FAB53BD4F8D9185
:1016C0009C9111973FE78F3F930721F02CEEE22E7C
:1016D00023E0F22E809163029801280F311D2430FF
:1016E000310579F4F0E0EE0FFF1FE754FD4F8081E4
:1016F00091813FE78F3F930721F08CEFE82E83E045
:10170000F82EA02EB02EB39480E06B2D0E943525CC
:1017100040E090916302809160029801290F311D91
:1017200090E02817390711F46FE701C060E081E00D
:101730004F8B0E9420254F894F5F443551F784E03D
:101740006B2D0E943525C601B70145E150E00E948E
:10175000773590916302809160029801290F311DC5
:1017600090E061E02817390709F060E0C6010E94A7
:101770007125AA2091F480916302882379F180E594
:101780006B2D0E943525909163028091600261E08B
:10179000981360E080E091E01FC08A2D8430F1F45E
:1017A0008091630290E00196800F911F8615970546
:1017B000A9F080E56B2D0E94352590916302809100
:1017C00060029801290F311D90E061E02817390768
:1017D00009F060E082E091E00E9471250F5F1F4FE9
:1017E0000530110549F0809163029801280F311DE1
:1017F000261537050CF422CF6796EEE00C942735BA
:1018000081E00E94EF30809160028F5F80936002E0
:1018100080916002873019F58FB7F89490919F02FC
:1018200090938D029091A502909394029091AF02B3
:10183000909393029091AE0290938C0290919D02AE
:1018400090938B0290919C0290938E028FBF88E0C0
:1018500080935D0210925F0281E0809359020895A7
:1018600090919C02937011F49DE101C09CE1209144
:101870009D02223099F090919D02943061F09091F8
:101880009D02963041F090919D02993021F0909107
:101890009D029B3011F49EE101C09FE13091AF02A7
:1018A00020916002233009F450C0243030F42130FC
:1018B00051F1223008F043C00AC0253009F484C039
:1018C000253008F467C0263009F0B7C097C0909162
:1018D0009D02980F90939D0280919D028150813FBF
:1018E00020F080919D02845F0BC080919D02815009
:1018F0008C3020F080919D028C5002C080919D021E
:1019000080939D0208952091AE02280F2093AE028D
:101910008091AE028150813F20F08091AE02890F0C
:101920000BC08091AE028150891720F08091AE02E9
:10193000891B02C08091AE028093AE0208959091FF
:101940009C02980F90939C0208959091AF02980F7B
:101950009093AF023C3048F08091AF028C50813FB1
:1019600040F48091AF028C500AC08091AF02813F59
:1019700020F08091AF02845F0AC08091AF028C306A
:1019800020F08091AF028C5002C08091AF02809312
:10199000AF0208959091A502980F9093A5028091AF
:1019A000A502813F20F08091A502845C0AC080914D
:1019B000A5028C3320F08091A5028C5302C0809147
:1019C000A5028093A502089590919F02980F90938D
:1019D0009F0280919F02813F20F080919F02845C52
:1019E0000AC080919F028C3320F080919F028C531B
:1019F00002C080919F0280939F020895813021F45C
:101A00008091AF02845F03C08091AF028C508093BD
:101A1000AF028091AF02813F20F08091AF02885EDB
:101A20000AC08091AF02883120F08091AF028851C6
:101A300002C08091AF028093AF020895E0915D02F1
:101A4000E09399027093A2026093A1029093A40282
:101A50008093A3025093A9024093A8023093AD0251
:101A60002093AC0210929B0210929A028CE0809319
:101A70005D020895EF92FF920F931F9381E00E9401
:101A8000EF3080919902883051F480916002833068
:101A900009F042C18091A80280939E023DC181302D
:101AA00009F07CC0809129028823E1F46091A802AA
:101AB0007091A902882777FD8095982F0E94243283
:101AC00020E030E040E05FE30E94253125E83BEE76
:101AD00041E550E40E94B0320E94F1317093A902B6
:101AE0006093A80280916002813021F0823009F079
:101AF00013C14BC06091CE027091CF028091D00291
:101B00009091D1020E9424327B018C016091A80245
:101B10007091A902882777FD8095982F0E94243222
:101B20002FEB3EE04CE95EE30E94B0329B01AC013A
:101B3000C801B70187DA60938502709386028093AB
:101B40008702909388026091CE027091CF028091BB
:101B5000D0029091D1020E9424324EDA25E83BEE69
:101B600041E550E40E94B0326093D4027093D502F4
:101B70008093D6029093D7028091A8029091A902F7
:101B80009093D9028093D802C7C08091A802909107
:101B9000A9029093AB028093AA02BEC08091A002DA
:101BA0008230D1F5809129028823E1F46091A80266
:101BB0007091A902882777FD8095982F0E94243282
:101BC00020E030E040E05FE30E94253125E83BEE75
:101BD00041E550E40E94B0320E94F1317093A902B5
:101BE0006093A80280916002833019F0843091F4F0
:101BF00009C08091A8029091A9029093CA02809393
:101C0000C90208C08091A8029091A9029093BE02D7
:101C10008093BD0282E07EC0843009F043C0809191
:101C20002902882359F08091A8029091A902880F77
:101C3000991F9093A9028093A8021AC08091A802CC
:101C40009091A9029C01220F331FC901F3E0880F74
:101C5000991FFA95E1F7820F931F029665E070E0F5
:101C60000E94B734605C7F4F7093A9026093A80212
:101C700080916002833019F0843091F409C0809122
:101C8000A8029091A9029093C6028093C50208C051
:101C90008091A8029091A9029093BA028093B90210
:101CA00084E038C08630C1F5809129026091A80295
:101CB0007091A902882379F0882777FD8095982F65
:101CC0000E94243220EA34E747E852E40E94B0320E
:101CD0000E94F13102C0660F771F7093A9026093D2
:101CE000A80280916002833019F0843091F409C019
:101CF0008091A8029091A9029093C8028093C70294
:101D000008C08091A8029091A9029093BC02809390
:101D1000BB0286E0809399028091990280935D02D4
:101D200010925F0281E0809359021F910F91FF9002
:101D3000EF900895282F30E04091A8025091A90219
:101D400087FD07C0240F351F3093A9022093A802F6
:101D500009C0CA0180509140820F931F9093A9023D
:101D60008093A8028091A3029091A4022091A802DE
:101D70003091A9022817390724F49093A90280937F
:101D8000A8028091A1029091A2022091A802309114
:101D9000A9028217930724F49093A9028093A802C2
:101DA000809199028830E9F580916002853069F46C
:101DB0008091A802855E80688093C40280E061E221
:101DC0000E9420256091C4020FC08091600286307D
:101DD00091F48091A80280618093B80280E061E272
:101DE0000E9420256091B80280E00E94202580E0BA
:101DF00060E20C94202580916002873091F48091FC
:101E0000A80284608093C30280E061E20E942025E2
:101E10006091C30280E00E94202580E060E20C9483
:101E20002025089520915D022093990290939802B5
:101E30008093970270939602609395025093A70245
:101E40004093A602109262028DE080935D02089595
:101E50009091620281E0891B809362020895CF9382
:101E6000DF9380915D02883009F07FC0809160022D
:101E700090E001978930910508F0D7C28C5C9F4FA4
:101E8000FC010C943E358BE080935D021092600261
:101E90008FB7F89490918D0290939F029091940245
:101EA0009093A502909193029093AF0290918C022F
:101EB0009093AE0290918B0290939D0290918E022E
:101EC00090939C028FBFB1C284E091E065E071E025
:101ED0004EE051E0A7DF9091290281E0992309F4B7
:101EE00041C080E03FC040919E0280E090E068E702
:101EF00070E050E025E131E097C24091C40250E02B
:101F00004F7750704B51504080E090E064E670E0B5
:101F100013C04091B80250E04770507080E090E0EC
:101F200067E070E009C04091C30250E04370507018
:101F300080E090E063E070E020E030E075C287E18F
:101F400091E065E271E048E251E06CDF6EC284E04E
:101F500091E06CE271E04FE251E064DF9091570252
:101F600081E0891B8093620260C220915D02213072
:101F700009F097C080916002813021F0823009F031
:101F800054C250C06091D4027091D5028091D602A3
:101F90009091D70220E030E040E05FE30E942531DD
:101FA0000E94F131AB01BC01809129028823A1F488
:101FB000BA01882777FD8095982F24E630E040E02D
:101FC00050E00E94783428E431E040E050E00E9484
:101FD000EC34832F422F582FE0912902809129025F
:101FE000A0912902F0E0EE0FFF1FE05CFD4FC82F2B
:101FF000D0E0CC0FDD1FC45BDD4F68817981B0E09C
:10200000AA0FBB1FAC5CBD4F2D913C912F5F3F4F82
:102010008081918113DD83E391E090939B02809313
:102020009A0203C28091AA029091AB02FFE78F3F10
:102030009F0759F08FEF9FE79093AB028093AA021E
:1020400010925F0220935902F0C16091D402709106
:10205000D5028091D6029091D70220E030E040E096
:102060005FE30E9425310E94F131AB01BC018091F8
:102070002902882309F06FC1BA01882777FD80956E
:10208000982F24E630E040E050E00E94783428E4C5
:1020900031E040E050E00E94EC34832F422F582F73
:1020A0005AC180915D02882349F580916002815078
:1020B000863008F0BAC181E00E94EF3080915D0265
:1020C00080939902809160028093610289E08093FD
:1020D0005D02E0916002F0E0E155FD4F8081809368
:1020E000600280916002853030F0809160028450FF
:1020F000809363025EC1109263025BC180915D02B6
:10210000893001F5E0916102F0E080916002E155D3
:10211000FD4F80838091990280935D0280916102DE
:102120008093600280916002853030F0809160027F
:1021300084508093630202C01092630281E0809316
:102140005F0238C180915D028730A9F480916002FE
:10215000813039F0823009F068C181E080935B0200
:1021600027C080915F028F5F80935F0210926302AD
:10217000109260025AC180915D028A3009F055C107
:10218000209199022093A00280916002823099F000
:10219000833020F4813009F048C106C0833021F13A
:1021A000843009F042C168C08093640220935D02CC
:1021B00010925F02FFC084E091E069E471E04FE4B7
:1021C00051E030DE8091A002843019F48091CB027E
:1021D000C9CE823019F48091CD02C4CE863009F088
:1021E00024C18091CC02BECE2430C9F48091C502B6
:1021F0009091C6022FE78F3F920761F08FEF9FE724
:102200009093C6028093C50210925F0284E080938F
:102210005D02CFC04091BF025091C00243C0223046
:10222000A1F48091C9029091CA023FE78F3F9307C2
:1022300039F08FEF9FE79093CA028093C902B5C02F
:102240004091BF025091C00271C0263009F0EDC02C
:102250008091C7029091C802EFE78F3F9E0739F047
:102260008FEF9FE79093C8028093C7029EC0409172
:10227000BF025091C002A5C0243009F041C0809136
:10228000B9029091BA02FFE78F3F9F0739F08FEFB5
:102290009FE79093BA028093B90287C04091C10230
:1022A0005091C20280912902882371F4CA01880FDB
:1022B000991F880F991F840F951F805A904069E0DD
:1022C00070E00E94B734AB01E091290280912902AD
:1022D000A0912902F0E0EE0FFF1FE45CFD4FC82F34
:1022E000D0E0CC0FDD1FC85BDD4F68817981B0E0A5
:1022F000AA0FBB1FA05DBD4F2D913C91119792C0BD
:10230000223009F041C08091BD029091BE023FE7AA
:102310008F3F930739F08FEF9FE79093BE02809332
:10232000BD0243C04091C1025091C2028091290276
:10233000882389F4BA01882777FD8095982F0E9419
:1023400024322FEB3EE04CE95EE30E94B0320E9463
:10235000F131AB01BC01E091290280912902A091E9
:102360002902F0E0EE0FFF1FE05CFD4FC82FD0E028
:10237000CC0FDD1FC45BDD4F68817981B0E0AA0F0F
:10238000BB1FAC5CBD4F4AC0263009F04EC08091E7
:10239000BB029091BC02EFE78F3F9E0771F08FEF79
:1023A0009FE79093BC028093BB0210925F02209340
:1023B0005D0281E08093590238C04091C102509182
:1023C000C20280912902882389F4BA01882777FD07
:1023D0008095982F0E94243220EA34E747E052E4A7
:1023E0000E94B0320E94F131AB01BC01E0912902A0
:1023F00080912902A0912902F0E0EE0FFF1FE25C1C
:10240000FD4FC82FD0E0CC0FDD1FC65BDD4F6881CC
:102410007981B0E0AA0FBB1FAE5CBD4F2D913C91FE
:102420002F5F3F4F8081918109DBDF91CF9108952C
:10243000E0915D02F0E0EE0FFF1FE451FE4F2081BE
:10244000318190E001C09F5FE92FF0E0EE0FFF1FA8
:10245000E20FF31F4591549141155105A1F72091C9
:102460006002280F2093600280916002891719F49E
:102470001092600207C0809160028F3F19F4915062
:10248000909360029091600280916302981728F403
:102490008091600280936302089520916002809190
:1024A000630230E090E00496821793072CF4809149
:1024B0006002845080936302089584E180939E02B9
:1024C0008FEF9FE79093AB028093AA0282E0809304
:1024D000B00281E08093B1028CE08093B20293E07D
:1024E0009093B3028093B40288E08093B50208957C
:1024F0001F9381E00E94EF30809199028830D9F5D6
:1025000080916002843031F1853020F4823009F00E
:102510004AC027C0883059F0893009F044C0809102
:102520006202813009F03FC080935A023CC0109192
:1025300062021130C1F50E942B26BFDF10935702B3
:1025400083E0809329020E9491051092D902109293
:10255000D80229C09091620281E0891B80935702C2
:1025600022C090916202892F880F890F81958D5F1B
:102570008093290218C08091A002823029F49091A2
:1025800062029093CD020DC0843029F490916202D2
:102590009093CB0206C0863031F490916202909302
:1025A000CC02809399028091990280935D021092EF
:1025B0005F0281E0809359021F910895EF92FF928C
:1025C0000F931F93CF93DF9380E00E94B42B682F6B
:1025D0006B50653508F06C5A80E00E94C52BFC01F9
:1025E00082818695869586959381292F2295220F43
:1025F000207EE22EE82AE7017E0196959695969533
:10260000F92EE7012097E1F16091D4027091D50293
:102610008091D6029091D70220E030E048EC52E45D
:102620000E94B0320E94F1317B018C0180EA9CE172
:10263000A2E0B0E0E80EF91E0A1F1B1FBE0180E0F9
:1026400090E028EC30E040E050E00E947834E61A58
:10265000F70A080B190BC801B7012AE030E040E087
:1026600050E00E94EC342E5C3F4F4F4F5F4FCA0149
:10267000B90124E630E040E050E00E94EC3404C0B0
:102680002FEF3FEF4FEF5FE7B901CA01CDB7DEB7DC
:10269000E6E00C942F3580E00E94B42B682F6D5338
:1026A000653508F06C5A80E00E94C52BFC018081E2
:1026B000882389F02091D2023091D302442737FD3C
:1026C0004095542F2C5E3F4F4F4F5F4F281B3109D1
:1026D0004109510904C02FEF3FEF4FEF5FE7B90108
:1026E000CA010895EF92FF920F931F9380E00E941A
:1026F000B42B682F6D53653508F06C5A80E00E944A
:10270000C52BFC0161818281782F7770611571057D
:10271000E9F0E090CE02F090CF020091D00210914B
:10272000D10280EE91EBAFEFBFEFE80EF91E0A1F6A
:102730001B1F80E090E022E330E040E050E00E9488
:102740007834E61AF70A080B190B08C06FEFE62E6B
:102750006FEFF62E6FEF062F6FE7162FB701C80148
:102760001F910F91FF90EF900895EF92FF920F93BA
:102770001F9381E00E94B42B682F6C54653508F0DC
:102780006C5A81E00E94C52BFC0161818281782F07
:1027900077706115710529F1E090CE02F090CF02BB
:1027A0000091D0021091D10280EE91EBAFEFBFEF1C
:1027B000E80EF91E0A1F1B1F80E090E022E330E0C4
:1027C00040E050E00E947834E61AF70A080B190B33
:1027D000C801B70125E030E040E050E00E94EC3451
:1027E00004C02FEF3FEF4FEF5FE7B901CA011F9120
:1027F0000F91FF90EF9008956F3F2FEF72072FEF2B
:1028000082072FE79207D9F1693C7105810591058F
:1028100074F569377105810591055CF566337105BD
:102820008105910544F516161706180619062CF1B0
:10283000611571058105910511F16B3C2FEF720750
:102840002FEF82072FEF9207E4F468382FEF72071B
:102850002FEF82072FEF9207B4F468332FEF720740
:102860002FEF82072FEF920784F087E0089580E032
:10287000089581E0089582E0089583E0089584E05A
:10288000089585E0089586E0089588E00895AAE017
:10289000B0E0EDE4F4E10C940D358C0170E0615092
:1028A00070406C30710508F09AC2635C7F4FFB0189
:1028B0000C943E35DC011C92A5C24091D20250918D
:1028C000D30260E015C06091D4027091D50280916E
:1028D000D6029091D70220E030E040E05FE30E9412
:1028E00025310E94F1319B01AC01C80162E0A901D0
:1028F0000E942B2F87C26AE476E00E947035D801CF
:102900000D900020E9F77D010894E108F108E01A34
:10291000F10A6091CE027091CF028091D002909125
:10292000D102675E7F4F8F4F9F4F22E330E040E040
:1029300050E00E94EC34C8018E0D9F1D44C06DE331
:1029400076E00E947035E090D802F090D902609154
:10295000CE027091CF028091D0029091D1020E945C
:1029600024325B016C01B701882777FD8095982F91
:102970000E9424322FEB3EE04CE95EE30E94B0322D
:102980009B01AC01C601B5010E942208D8010D903F
:102990000020E9F77D010894E108F108E01AF10A46
:1029A000E00EF11E20E030E048EC51E40E942531B9
:1029B00020E030E048E452E40E9489310E94F13185
:1029C0009B01AC01C70161E092CFF8DD6B017C0196
:1029D00097FD0FC0C80162E376E00E947035BFEF3B
:1029E000CB16BFEFDB06BFEFEB06BFE7FB0639F008
:1029F00009C0C80166E276E00E94703503C0CC24AD
:102A0000DD247601D8010D900020E9F7CD01019772
:102A1000801B910B800F911F62E0A6010E942B2F5B
:102A2000C80161E276E086C1C9DD4B015C01C801E5
:102A300063E176E00E947035C090AA02D090AB02AC
:102A40006091D4027091D5028091D6029091D70204
:102A5000BFEF8B16BFEF9B06BFEFAB06BFE7BB0612
:102A600081F12091AA023091AB02EFE72F3F3E07A0
:102A700041F1EE24D7FCE094FE2C0E94F131C61AFD
:102A8000D70AE80AF90AC501B40122E030E040E0C3
:102A900050E00E94EC34C20ED31EE41EF51EC701A6
:102AA000B601A50194010E94EC3459016A0157FD59
:102AB00008C02438F9E03F07F0E04F07F0E05F0777
:102AC00024F0C8016DE076E035C128E5A21622E0C9
:102AD000B20620E0C20620E0D2062CF4C8016BE06A
:102AE00076E00E946535D8010D900020E9F77D0160
:102AF0000894E108F108E01AF10AC601B5012CE3D7
:102B000030E040E050E00E94EC345B016C01E00EEC
:102B1000F11ECA01B901A7012AE030E00E94B735D1
:102B2000C80169E076E00E946535BAE0AB16B104F1
:102B3000C104D1042CF4C80167E076E00E94653539
:102B4000D8010D900020E9F7AD0141505040401BE5
:102B5000510B400F511FC601B5012AE030E00E9421
:102B6000B73550C161E076E00E94703594DD6F307A
:102B7000710581059105ACF56930710581059105F7
:102B80000CF032C163307105810591050CF02EC146
:102B900016161706180619060CF42AC161157105D8
:102BA0008105910509F426C16E3FBFEF7B07BFEF9A
:102BB0008B07BFEF9B070CF01FC1683FEFEF7E074D
:102BC000EFEF8E07EFEF9E070CF018C1623FFFEFAB
:102BD0007F07FFEF8F07FFEF9F070CF011C1E8E0C1
:102BE00009C06F3F2FEF72072FEF82072FE7920781
:102BF00049F0E0E0F0E0EE0FFF1FED58FB4F2591AC
:102C0000349113C0EBE7F4E0259134910EC067EFE7
:102C100075E00E94703566DDEFDD90E0880F991F4A
:102C20008D589B4FFC0125913491C801B90182C098
:102C30006DEE75E00E94703555DD6B017C01DCDDC9
:102C4000898793DD4B015C01D7DD282F39854FEF54
:102C5000C4164FEFD4064FEFE4064FE7F40649F0F1
:102C60008FEF88168FEF98068FEFA8068FE7B806CC
:102C700021F4C80161EE75E05DC0832F875082307A
:102C800030F4263060F4C80164ED75E053C035308F
:102C900031F4253021F4C8016AEC75E04BC0932F64
:102CA0009550923040F4822F8550823060F4C801F4
:102CB0006DEB75E03FC0373030F0263020F0C801B2
:102CC00061EB75E037C0832F8250823040F4422F91
:102CD0004250423090F4C80164EA75E02BC03230B3
:102CE00030F4223050F0C8016BE975E023C0383071
:102CF00021F4C8016FE875E01DC0373021F4C80128
:102D000068E875E017C0923020F4C80163E875E008
:102D100011C0343021F4C80169E775E00BC082307E
:102D200020F4C80164E775E005C0323030F4C80112
:102D300069E675E00E94653565C0C80164E675E026
:102D40002A8739870E946535D8010D900020E9F760
:102D5000BD0161507040601B710B600F711F3985A0
:102D6000832F90E04AE050E00E949835C80162E667
:102D700075E00E946535D8010D900020E9F7BD018E
:102D800061507040601B710B600F711F2A85822F8C
:102D900090E04AE050E00E94983534C06091930280
:102DA0004091940220918D020E94E3082BC0609113
:102DB0008C0240918B020E945108C80160E675E0C8
:102DC0000E9465356091930240919402CE01019674
:102DD0000E948908BC01C8010E94863513C062E5C3
:102DE00075E00E9470350EC0E1E004CFE2E002CF52
:102DF000E3E000CFE4E0FECEE5E0FCCEE6E0FACE94
:102E0000E7E0F8CE2A96ECE00C942935AF92BF9219
:102E1000CF92DF92FF920F931F93DF93CF930F9286
:102E2000CDB7DEB75C01CB01BA012CE330E040E066
:102E300050E00E94CA34F62ECA01B90128E130E000
:102E400040E050E00E94CA34162FCA01B901B5E033
:102E50009695879577956795BA95D1F7022F0F715B
:102E60002DE030E040E050E00E94CA34462FC5011A
:102E7000602F29830E945108C50160E575E00E941A
:102E80006535D5010D900020E9F7BD016150704016
:102E90006A197B092981822F90E06A0D7B1D80537E
:102EA000984F4AE050E00E949835C5016EE475E005
:102EB0000E946535D5010D900020E9F7CD010197FD
:102EC0008A199B098A0D9B1D612F4F2D0E9489082D
:102ED0000F90CF91DF911F910F91FF90DF90CF90D6
:102EE000BF90AF900895EF92FF920F931F93CF93EF
:102EF000DF93EC018B01DB0112968C911297869582
:102F00008695869513969C91292F2295220F207ED7
:102F1000422F482B592F569556955695445B524053
:102F2000CE0162E00E94432FCE016CE475E00E9466
:102F300065357E01EC2FFF2DDF010D900020E9F7B4
:102F4000CD0101978E1B9F0BF801408150E0445149
:102F500050408C0F9D1F60E00E94432FCE016AE419
:102F600075E00E946535EC2FFF2DDF010D900020EC
:102F7000E9F7CD0101978E1B9F0BF801418122815A
:102F8000522F577040575E4F8C0F9D1F61E00E947B
:102F9000002FCDB7DEB7E6E00C942F35A6E1B0E008
:102FA000E4EDF7E10C9407350E94972D482E552447
:102FB0000E94CC2DFC0180819181A281B381009778
:102FC000A105B10551F480E062E00E94352586E557
:102FD00091E060E00E94712539C10E94F82D00E067
:102FE00010E06E010894C11CD11C282E3324A02EA1
:102FF000B02EB39480E06B2D0E9435258091630242
:103000007201E81AF108E01AF10AF7FE04C00E9402
:10301000F62DE80EF11C8E2D0E94CC2DFC01608057
:10302000718082809380611471048104910409F499
:10303000DAC090916302809160029801290F311DDE
:1030400090E02817390711F46FE701C060E081E0D4
:103050000E942025C7010196B6014AE050E00E9477
:10306000983590916302809160029801290F311D7B
:1030700090E061E02817390709F060E0C6010E947E
:103080007125F60101900020E9F73197EE2EEC183A
:1030900090916302809160029801290F311D90E0A8
:1030A0002817390711F46FE501C060E281E00E9442
:1030B000202590916302809160029801290F311DB3
:1030C00090E02817390711F46FE701C060E081E054
:1030D0000E94202590916302809160029801290F3F
:1030E000311D90E02817390711F46FE701C060E047
:1030F00081E00E942025C601B401A30187DE9091E2
:103100006302809160029801290F311D90E061E017
:103110002817390709F060E0C6010E947125F60101
:1031200001900020E9F73197EC19FD09FF2408947C
:10313000E11CF11CEE0EFF1EEE0CEE0C12C0909185
:103140006302809160029801290F311D90E02817D9
:10315000390711F46FE701C060E081E00E9420258B
:10316000E394FE2DF43558F3AA2091F48091630284
:10317000882399F180E56B2D0E943525909163029B
:103180008091600261E0981360E080E091E023C0EC
:103190008A2D833011F58091630290E00196800FB3
:1031A000911F82159305C9F0809160028F3FA9F0AD
:1031B00080E56B2D0E94352590916302809160021D
:1031C0009801290F311D90E061E02817390709F0B7
:1031D00060E082E091E00E9471250F5F1F4F043094
:1031E000110509F004CF80916002481A510857FE7A
:1031F00004C00E94F62D480E511C842D0E94CC2D37
:103200008C0180E065E00E94352581E061E00E944C
:103210002025B8016C5F7F4F8E010F5F1F4FC801E3
:1032200062DEC8010E94CD25F80101900020E9F777
:103230003197E01BF10B0E2F000F000F04C081E04F
:1032400061E00E9420250F5F0435C8F36696E2E135
:103250000C9423351F93182F0E94F82D9091600233
:10326000910F9093600290916002981719F4109258
:10327000600207C0909160029F3F19F481508093D3
:1032800060029091600280916302981718F4809117
:1032900060020DC0209160028091630230E090E0F6
:1032A0000396821793072CF48091600283508093D9
:1032B00063021F91089581E00E94EF3010925F0237
:1032C00081E0809359020895AEE1B0E0EAE6F9E1C9
:1032D0000C940F35809167028823D1F080E061E083
:1032E0000E9435258E01085F1F4FC80166E375E017
:1032F0000E947035C80160E00E94712580E062E0A4
:103300000E943525C80166E275E00E947035A0C1B3
:1033100080915D02882309F070C080915F0288234C
:1033200009F068C000E010E058E0E52EF12CEC0E4A
:10333000FD1EC02EF801E055FD4F6081C701A7DAE0
:103340001E8A80E0602F0E94352590E081E060E0D9
:103350009E8F0E9420259E8D9F5F9435B9F7F701BF
:1033600001900020E9F73197EE198E2F880F8E0F0C
:103370008195865D6C2D0E943525C7010E945E25D2
:103380000F5F1F4F02301105A1F600E010E048E08A
:10339000E42EF12CEC0EFD1E32E0C32EC00EF8011F
:1033A000EE54FD4F6081C70172DA1D8E80E06C2DF6
:1033B0000E94352590E081E060E09E8F0E942025EC
:1033C0009E8D9F5F9435B9F7F70101900020E9F7D2
:1033D00031978E2D8E1B880F865D6C2D0E943525B2
:1033E000C70160E00E9471250F5F1F4F0430110577
:1033F00099F6FCC584E691E0F5C580915D028A30BE
:1034000009F044C020919902243029F4CE01089695
:1034100061E275E009C0CE010896263019F468E132
:1034200075E002C06FE075E00E9470358E01085FA4
:103430001F4FC80168E075E00E946535D8010D9006
:103440000020E9F7CD01E0915E02F0E0EE0FFF1FF2
:10345000E65DFD4F4081518124E530E0429FB0019F
:10346000439F700D529F700D112401970E945D09BA
:1034700080915F0261E0811160E0C8010E944627EF
:1034800080915F02813009F0B1C5AEC580915D02C7
:10349000883009F0E2C080915F0261E0811160E054
:1034A00086E791E00E94462780915F02882309F019
:1034B0009BC561E00E9435258DE791E060E00E94A8
:1034C000712598E0E92EF12CEC0EFD1EC70162E992
:1034D00071E00E947035C70160E00E9471250E9472
:1034E0004D055B016C0185E090E0A0E0B0E0A80E26
:1034F000B91ECA1EDB1EC7016FEF74E00E94703553
:10350000D7010D900020E9F78D01015010400E19F0
:103510001F09C601B5012AE030E040E050E00E94FA
:10352000EC34CA01B9010E94243220E030E048ECBA
:1035300052E40E9489310E0D1F1D41E022E00E94DD
:103540004435C7016DEF74E00E94653580E062E0AC
:103550000E943525C70160E00E94712580E063E08C
:103560000E943525C70163EF74E00E947035809199
:10357000C402F70101900020E9F7BF0190E08F77C6
:103580009070615070404B974AE050E00E9498352F
:10359000C70160E00E94712580E064E00E9435254B
:1035A000C7016CEE74E00E94703580915702882349
:1035B00021F0C70169EE74E003C0C70165EE74E055
:1035C0000E9465358E01085F1F4FC80160E00E94B0
:1035D000712560918C0240918B02C8010E945108B4
:1035E00080E065E00E943525C80160E00E947125F9
:1035F000C80163EE74E00E94703580918E02D8019C
:103600000D900020E9F7BD0190E0615070408053BB
:10361000984F4AE050E00E949835C80160E00E944F
:103620007125609193024091940220918D02C8010E
:103630000E94E308F80101900020E9F73197E01BB0
:10364000F10BEE0FEE0F84E58E1B65E00E94352531
:10365000C80160E00E947125C9C480915D02873075
:1036600009F065C080915F0261E0811160E086E849
:1036700091E00E94462780915F02882309F04BC0A9
:103680000E94972DC82E0E94CC2D7C01FC01208128
:10369000318142815381211531054105510539F4AC
:1036A00080E062E00E94352580E991E0D2CF8E0172
:1036B000085F1F4FC80169ED74E00E947035D801A2
:1036C0000D900020E9F7BD018C2D90E06150704015
:1036D00001964AE050E00E94983580E062E00E9446
:1036E0003525C80160E00E947125F7014191519193
:1036F000619171917F01C80189DB80E063E00E94E4
:103700003525C80160E00E947125C801B701EBDBD7
:1037100080E064E09BCF80915F02813009F464C453
:1037200080915F02823009F061C438DC5FC480910F
:103730005D02843041F480915E02409165022091E7
:10374000640260E017C080915D02863041F4809190
:103750005E02409165022091640261E00BC080919D
:103760005D02823051F480915E02409165022091A9
:10377000640262E00E94C42739C480915D028B30EC
:1037800009F055C180EA91E060E00E94462780E19F
:1037900062E00E94352588E0E82EF12CEC0EFD1E3B
:1037A000C70167ED74E00E94703540919D028E0163
:1037B0000F5F1F4FC80161E00E9451081C82C701C2
:1037C000B8010E948635C70165ED74E00E94653539
:1037D0008091600261E0811160E0C7010E94712563
:1037E0008E01085F1F4FC80163ED74E00E947035C1
:1037F0008091AE028A3028F4C80161ED74E00E9425
:1038000065358091AE028E01085F1F4FD8010D9083
:103810000020E9F7BD016150704090E04AE050E0BF
:103820000E949835C8016FEC74E00E946535809164
:10383000600261E0813009F060E0C8010E947125FA
:103840008E01085F1F4FC8016DEC74E00E94703557
:1038500080919C02F80101900020E9F7BF0190E0FF
:10386000615070408053984F4AE050E00E94983574
:10387000C8016BEC74E00E9465358091600261E0E4
:10388000823009F060E0C8010E94712588E064E0A0
:103890000E9435258091AF02882359F08091AF02B4
:1038A0008C3039F08091AF026CE00E949734E92EA1
:1038B00002C00CE0E02E8E01085F1F4FC80169ECCA
:1038C00074E00E947035FE2DFA3028F4C80167ECD0
:1038D00074E00E9465358E01085F1F4FD8010D907E
:1038E0000020E9F7BD01615070408E2D90E04AE064
:1038F00050E00E949835C80165EC74E00E9465357F
:103900008091600261E0833009F060E0C8010E94AC
:1039100071258EEA91E060E00E9471258E01085FBA
:103920001F4FC80163EC74E00E9470358091A502BE
:103930008A3028F4C80161EC74E00E9465358091FA
:10394000A5028E01085F1F4FF80101900020E9F7E2
:10395000BF016150704090E04AE050E00E9498350D
:10396000C8016FEB74E00E9465358091600261E0F0
:10397000843009F060E0C8010E9471258EEA91E070
:1039800060E00E9471258E01085F1F4FC8016DEB3A
:1039900074E00E94703580919F028A3028F4C8013B
:1039A0006BEB74E00E94653580919F028E01085F89
:1039B0001F4FD8010D900020E9F7BD016150704004
:1039C00090E04AE050E00E949835C80169EB74E04D
:1039D0000E9465358091600261E0853009F060E009
:1039E000C8010E9471258E01085F1F4FC80167EB57
:1039F00074E00E9470358091AF028C3020F4C801D1
:103A000064EB74E003C0C80161EB74E00E946535AB
:103A10008E01085F1F4FC8016FEA74E00E94653590
:103A20008091600261E0863009F065C165C18091D6
:103A30005D028C3009F0C5C080916002E09199026E
:103A4000F0E0EE0FFF1FE451FE4F90E0880F991F4A
:103A50000190F081E02DE80FF91F259134918E013E
:103A6000085F1F4FC801B9010E947035C80160E0AE
:103A70000E94462720919A0230919B022115310520
:103A8000C9F0C901F90101900020E9F731978E1BB7
:103A90009F0B880F991F880F991F8C5A9F4F9695DF
:103AA000879562E0E2D780919A0290919B0260E054
:103AB0000E9471256091A1027091A202AA24A39490
:103AC0002AE030E005C0A394CB01B9010E94B734CD
:103AD0006A307105C4F782E190E08A19910962E0C9
:103AE00070E00E94B734862F880F880F20919A02C9
:103AF00030919B022115310511F064E001C063E0B3
:103B0000B4D72091A8023091A902CE01089637FFC0
:103B100003C06DEA74E002C06BEA74E00E94703585
:103B2000E090A802F090A902F7FE04C0F094E1949E
:103B3000F108F3940AE010E0E8E0CE2ED12CCC0E90
:103B4000DD1E13C0E016F1062CF4C60169EA74E02C
:103B50000E946535C801880F991F63E0000F111F8F
:103B60006A95E1F7080F191FAA94BA2DB23050F7E1
:103B70008E01085F1F4FF80101900020E9F7BF0197
:103B800061507040C7014AE050E00E949835C8017A
:103B900067EA74E00E946535C80161E0A2D76091D0
:103BA000AC027091AD026115710509F41FC2C80124
:103BB0000E947035C80161E094D780EB91E061E02C
:103BC00049CD80915D028D3009F098C080916002EE
:103BD000E0919902F0E0EE0FFF1FE451FE4F90E0FC
:103BE000880F991F0190F081E02DE80FF91F2591B2
:103BF00034918E01085F1F4FC801B9010E947035D2
:103C0000C80160E00E944627E0919702F091980277
:103C100080818823B9F0CF0101900020E9F7319726
:103C20008E1B9F0B880F991F880F991F8C5A9F4FCF
:103C30009695879562E019D78091970290919802A6
:103C400060E04FD7E0919502F0919602DF010D9070
:103C50000020E9F711978E2F8A1B880F880F805E4E
:103C6000A0919702B09198029C91992311F064E081
:103C700001C063E0FAD68E01085F1F4FC80165EAF4
:103C800074E00E9470356091950270919602C801AF
:103C90000E948635C80163EA74E00E946535809110
:103CA000620261E0811160E0C8011BD7E0919702D8
:103CB000F09198028081882311F064E001C063E0F4
:103CC0008CE2D3D68E01085F1F4FC80161EA74E011
:103CD0000E9470356091A6027091A702C8010E94EF
:103CE0008635C8016FE974E00E94653580916202F3
:103CF00061E0813009F060E0C801ACCC80915D02E8
:103D0000813009F057C080915F0261E0811160E06D
:103D100082EB91E00E94462780915F02882309F0A0
:103D200063C18E01085F1F4FC80162E00E94471403
:103D300080E061E09AD6C80160E0D3D6C80163E0B4
:103D40000E94471480E062E090D6C80160E0C9D6C6
:103D50008091AA029091AB02FFE78F3F9F07C1F0CD
:103D600080E064E082D6C80162E974E00E947035A8
:103D7000D8010D900020E9F7CD014091AA025091A1
:103D8000AB02019762E00E942B2FC80160E0A9D628
:103D90008091AA029091AB02BFE78F3F9B0709F485
:103DA00025C18E01085F1F4FC80164E00E944714BF
:103DB00080E04BCC80915D02833009F062C080913D
:103DC0005F0261E0811160E08BEB91E00E94462789
:103DD00080915F02882309F007C161E046D68E0119
:103DE000085F1F4FC80161E00E944714C80160E0EE
:103DF00078D680E062E039D687EC91E060E071D659
:103E00000E944B136B017C016F3FEFEF7E07EFEFDA
:103E10008E07EFE79E0731F4C8016EE874E00E9458
:103E2000703514C097FD06C0C8016CE874E00E94AC
:103E3000703501C01886CE010896DC010D90002077
:103E4000E9F7CD010197B6010E94912ECE010896A7
:103E500060E047D68EEC91E060E043D680E063E01E
:103E600004D600E081E060E0EBD50F5F0435D1F7C8
:103E700080E063E0FAD58E01085F1F4FC80169E05A
:103E80008FC080915D02853009F08DC080915F0206
:103E900061E0811160E085ED91E0F8D780915F02EB
:103EA000882309F0A1C061E0E0D58E01085F1F4FB3
:103EB000C80165E00E944714C80160E012D680E0A6
:103EC00062E0D3D50E9472136B017C016F3FBFEF9C
:103ED0007B07BFEF8B07BFE79B0731F4C80167E89B
:103EE00074E00E94703521C097FD06C0C80165E8E6
:103EF00074E00E94703501C01886FE013896DF011B
:103F00000D900020E9F78D01C701B601675E7F4F74
:103F10008F4F9F4F22E330E040E050E00E94EC34AE
:103F2000C8010197B9010E94B22ECE01089660E047
:103F3000D8D58EED91E060E0D4D580E063E095D5F2
:103F400000E081E060E07CD50F5F0435D1F780E0D0
:103F500063E08BD58E01085F1F4FC8016AE00E94A5
:103F60004714C80160E0BDD580E064E07ED5C8019B
:103F700066E00E944714C80160E0B3D580E065E0C8
:103F800074D500E081E060E05BD50F5F0435D1F7C8
:103F900080E065E06AD58E01085F1F4FC8016BE0C5
:103FA0000E94471455CB80915D028930F9F48091CD
:103FB0006102E0919902F0E0EE0FFF1FE451FE4F25
:103FC00090E0880F991F0190F081E02DE80FF91F14
:103FD000259134918E01085F1F4FC801B9010E94DD
:103FE0007035C80160E052D70E94FA0A6E96EAE086
:103FF0000C942B35A0E0B0E0E0E0F0E20C940F353B
:1040000085B1876085B927D61AD680E00CD687E8B7
:1040100093E10197F1F700C000000E94600A80E080
:104020000E940E2E0E94B6300E94572F0E945D12F1
:1040300078940E94B9058823E1F38091B6008062EC
:104040008093B6008091B6008F7B8093B60010926B
:10405000B00083E08093B1008091B60090E08F7053
:1040600090700097C9F783EC99E00197F1F700C0D1
:10407000000081E087BB8093700090916B00976097
:1040800090936B0090916B00906190936B00909176
:104090006800916090936800909164009F6A90938B
:1040A00064008093EA01AA24A39480915C0288238F
:1040B00041F010925C02CFD5C2D580E0B4D5A09279
:1040C000EB0180915A02882349F010925A0280E055
:1040D00060E0CBD4B4D581E00E940E2E8091EA013D
:1040E000882329F480915B02882309F467C08091BA
:1040F00064008F77809364000E941E060E947E06F3
:10410000EC010E9436060E94DA066B017C01809168
:1041100064008068809364008091EA01882329F01C
:10412000CE01B701A6010E94C62C80915B028823B4
:1041300009F440C0BFB6F89460918E0270E080E050
:1041400090E02DE030E040E050E00E947834209193
:104150008B02620F711D811D911DE5E0660F771FB7
:10416000881F991FEA95D1F720918C02620F711D6B
:10417000811D911D28E130E040E050E00E9478343C
:1041800020919302620F711D811D911D2CE330E07F
:1041900040E050E00E9478348B019C0180919402B1
:1041A000BFBE080F111D211D311DCE01B701A60193
:1041B0000E94372D1092EA0110925B028091590201
:1041C000882319F0109259023AD58091EB01882387
:1041D00099F01092EB0178D80FC080916C0288237F
:1041E00059F483B7817F866083BF83B7816083BFC3
:1041F000889583B78E7F83BF8091EA01882309F079
:1042000054CF8091EB01882309F04FCF80915B025E
:10421000882319F34ACF1F93182F809164028823B3
:10422000D1F080916502810F8093650280916502D3
:10423000813F20F0809165028C5A0AC0809165020E
:10424000843520F080916502845502C0809165021A
:10425000809365029BC080915D02893040F080911F
:104260005D02893021F080915D028A3041F48091B5
:104270005F02813021F4812F0E94181287C0809143
:104280005D02893008F063C080915F02882309F0E5
:104290005EC00E94EF3080915D02843041F08091D9
:1042A0005D02863021F080915D028230E1F48091E0
:1042B0005E02810F80935E0280915E02833031F452
:1042C00010925E0280915D028F5F0AC080915E0253
:1042D0008F3F11F582E080935E0280915D028150F4
:1042E00080935D0219C080915D02810F80935D0211
:1042F0001F3F81F480915D02843041F080915D0226
:10430000863021F080915D02823021F482E080933A
:104310005E0202C010925E0280915D02813F20F039
:1043200080915D02875F0AC080915D02893020F034
:1043300080915D02895002C080915D0280935D0290
:1043400083E58093650281E0809359021FC08091CC
:104350005D028B3021F4812F0E94300C17C08091B8
:104360005D028C3021F4812F0E949A0E0FC0809143
:104370005D028D3021F4812F0E94280F07C08091AB
:104380005D02873019F4812F0E942A191F91089528
:104390001F9380915D02863041F080915D028430F0
:1043A00021F080915D028230B1F480916402882313
:1043B00061F481E00E94EF3080915D028093990268
:1043C0008AE080935D0281E01FC082E00E94EF30AE
:1043D000109264021FC080915D02893018F58091AF
:1043E0005F028823F9F4E0915D02F0E0EE0FFF1F19
:1043F000E451FE4F80819181009781F081E00E941D
:10440000EF3080915F028F5F80935F0210926302B2
:104410001092600281E08093590258C083E00E94AC
:10442000EF3054C080915D02893040F080915D0290
:10443000893021F080915D028A3069F510915F0228
:10444000113049F5809160028823F9F482E00E94DE
:10445000EF3080915F02815080935F0280915D0216
:10446000893051F48091990280935D0280916102BC
:104470008093600210935F0280915D028A3051F652
:104480008091990280935D02C5CF81E00E94EF3058
:104490000E942F0FBFCF80915D028B3019F40E94D4
:1044A000000C14C080915D028C3019F40E943A0D0A
:1044B0000DC080915D028D3019F40E94781206C003
:1044C00080915D02873011F40E945B191F9108955D
:1044D0001F920F920FB60F921124EF92FF920F933B
:1044E0001F932F933F934F935F936F937F938F937C
:1044F0009F93AF93BF93EF93FF930E946E0A8091B7
:104500008F0290919002A0919102B09192028370DB
:104510009070A070B0700097A105B105E1F4809192
:104520006602882359F480915D02883039F48091C5
:104530005F02882319F481E08093EB0180918D0262
:10454000882349F481E08093EA01909166029923DF
:1045500011F48093EB0180916602882309F06EC00C
:1045600080918F0290919002A0919102B09192025D
:10457000E090B200FF2400E010E0BA2FA92F982F9E
:104580008827E82AF92A0A2B1B2B80916802909130
:104590006902A0916A02B0916B02E81AF90A0A0B4B
:1045A0001B0B809167028823A1F5189B02C01A9902
:1045B00030C081E7E81687E1F80680E0080780E070
:1045C000180730F0189902C088E21FC088ED1DC09E
:1045D00089EBE8168BE0F80680E0080780E0180712
:1045E00030F0189902C08CE010C084EF0EC085EF47
:1045F000E81681E0F80680E0080780E0180748F038
:10460000189902C084E001C08CEF05DE81E0809340
:10461000EB0180919E0290E0A0E0B0E02AE0880FDC
:10462000991FAA1FBB1F2A95D1F78E159F05A007BA
:10463000B10720F481E080936602F5D21092B000B9
:104640008091B60081FDFCCFFF91EF91BF91AF91BA
:104650009F918F917F916F915F914F913F912F919A
:104660001F910F91FF90EF900F900FBE0F901F9032
:1046700018951F920F920FB60F921124EF92FF928E
:104680000F931F932F933F934F935F936F937F935A
:104690008F939F93AF93BF93EF93FF931C9903C0A6
:1046A0000E947830B8C080916602882369F1189B17
:1046B00004C01A9B02C0199927C020918F02309123
:1046C000900240919102509192028091B20090E04C
:1046D000A0E0B0E0542F432F322F2227822B932BC0
:1046E000A42BB52B8093680290936902A0936A0271
:1046F000B0936B021092660280E095D281E08093C5
:1047000059028093EB011DC0E0908F02F09090025F
:1047100000919102109192028091B2002091680262
:104720003091690240916A0250916B029091670248
:10473000913051F418996FC01A996DC0199B6BC0D4
:1047400082E08093670267C090E0A0E0B0E0102FA5
:104750000F2DFE2CEE248E299F29A02BB12B821B1E
:10476000930BA40BB50B20916702223091F4189B98
:1047700052C01A9B50C0199B4EC08B3F9105A1059A
:10478000B10508F448C01092670281E08093590295
:1047900040C0189908C01A9906C0199904C081E050
:1047A00080935C0238C0189B02C01A990CC08B3FE2
:1047B0009105A105B10538F0189902C081E001C04A
:1047C0008FEF29DD08C0199926C08B3F9105A105FF
:1047D000B10508F1DDDD20918F023091900240910A
:1047E0009102509192028091B20090E0A0E0B0E07E
:1047F000542F432F322F2227822B932BA42BB52B00
:104800008093680290936902A0936A02B0936B024E
:1048100081E08093EB01FF91EF91BF91AF919F9168
:104820008F917F916F915F914F913F912F911F9148
:104830000F91FF90EF900F900FBE0F901F90189563
:104840008093B70208951092B9008AE08093B8006F
:104850000895F091B70220E030E0A4EAE4E8BF2F29
:10486000B1602F5F3F4F96E02134390709F486C0CD
:10487000A093BC009091BC0097FFFCCF9091B90031
:10488000987F9093B602903129F0983389F398304D
:1048900009F076C0F093BB00E093BC009091BC009F
:1048A00097FFFCCF9091B900987F9093B602903219
:1048B000C1F29833E9F2983109F05BC08093BB00F4
:1048C000E093BC009091BC0097FFFCCF9091B900A1
:1048D000987F9093B602983221F0983309F049C03E
:1048E000C7CFA093BC009091BC0097FFFCCF9091E4
:1048F000B900987F9093B602903129F0983309F46B
:10490000B7CF9830B1F5B093BB00E093BC00909165
:10491000BC0097FFFCCF9091B900987F9093B602AE
:10492000983309F4A5CF903421F5E42FF52F94ECBA
:104930001AC06130710509F494E89093BC0080912D
:10494000BC0087FFFCCF8091B900887F8093B602BE
:10495000803521F0883569F460E070E08091BB001B
:104960008193615070408E2F841B161617060CF32E
:1049700001C080E094E99093BC00089580E0089520
:1049800080E008957091B70220E030E054EA44E8F6
:104990002F5F3F4F96E02134390709F44DC0509303
:1049A000BC009091BC0097FFFCCF9091B900987F1C
:1049B0009093B602903121F0983389F39830F1F555
:1049C0007093BB004093BC009091BC0097FFFCCF5C
:1049D0009091B900987F9093B6029032C9F29833C3
:1049E000F1F2983121F58093BB004093BC00909187
:1049F000BC0097FFFCCF9091B900987F9093B602CE
:104A0000983219F0983399F4CACF6093BB0084E8C8
:104A10008093BC008091BC0087FFFCCF8091B900DF
:104A2000887F8093B602883211F481E001C080E073
:104A300094E99093BC00089580E0089580E0089583
:104A4000882311F05F9A01C05F985C9888E02D98E8
:104A500067FF02C02B9A01C02B982D9A815011F04C
:104A6000660FF5CF5C9A2B9A08951F93162F682F27
:104A7000606880E0E5DF612F606480E0E1DF1F9126
:104A800008950F931F93CF93DF9305E0809F8001DC
:104A90001124E801CA51D94F0551194FFE01649103
:104AA00081E0CEDF2196C017D107C1F781E060E039
:104AB000C7DFDF91CF911F910F910895EF92FF9281
:104AC000CF93DF93E82EE7017E01F92EE70101C0C5
:104AD000D8DF89918823E1F7DF91CF91FF90EF90A4
:104AE0000895A0E0B0E0E7E7F5E20C941135D62E8A
:104AF000082F192F3FE7C32E45C08D3621F5DD2045
:104B000011F063E401C06CE381E09ADFDD2011F075
:104B10006BE701C064E081E093DFDD2011F067E620
:104B200001C068E181E08CDFDD2011F06BE701C09E
:104B300064E081E085DFDD2011F067E401C068E317
:104B400081E07EDF18C023E0829FC0011124EC01C8
:104B5000C950DA4F2AEFE22E25E0F22EE80EF91EB8
:104B6000FE016491660FD1106C2581E069DF21960A
:104B7000CE15DF05A9F7DD2011F06FE701C060E079
:104B800081E05EDFF80181918F01882309F0B5CFC4
:104B9000CDB7DEB7E8E00C942D35EF92FF920F937E
:104BA0001F93CF93DF93082F192F2DC08D3681F4DB
:104BB00081E069E745DF81E069E042DF81E061E3B0
:104BC0003FDF81E069E03CDF81E061E739DF18C069
:104BD00023E0829FC0011124EC01C950DA4F4AEF53
:104BE000E42E45E0F42EE80EF91EFE016491660FF6
:104BF000660F616081E024DF2196CE15DF05A9F7FD
:104C000081E061E01DDFF80181918F01882371F659
:104C1000CDB7DEB7E6E00C942F35882311F05B9A10
:104C200008955B980895882329F080E064E208DF06
:104C300080E004C080E060E203DF81E0EECFCF934C
:104C4000DF93C8EFD1E081E060E0FADE2197D9F789
:104C5000DF91CF91089581EB8093C40284E180932A
:104C6000B80284E08093C3028FEF9FE79093C6025F
:104C70008093C5029093BA028093B9021092CB023E
:104C80009093C8028093C7029093BC028093BB02AA
:104C90001092CC029093CA028093C9029093BE02F4
:104CA0008093BD021092CD02549A559A579A539A06
:104CB000239A259A5D985D9A80E061E2C1DE609159
:104CC000C40280E0BDDE6091C30280E0B9DE609185
:104CD000B80280E0B5DE80E060E2B2DE80E06CE049
:104CE000AFCE2F923F924F925F927F928F929F9280
:104CF000AF92BF92CF92DF92EF92FF920F931F93EA
:104D0000DF93CF93CDB7DEB727970FB6F894DEBF0A
:104D10000FBECDBF782E2B0149015801823021F4FE
:104D2000440C551C440F551FD401F50180E01D9221
:104D300011928F5F8431D9F7D6011C928E010F5FDB
:104D40001F4FC801672D0E94002F180143E01FC0AC
:104D5000849FC0011124FC01E950FA4F9C012650A8
:104D60003A4F6491D6015C91C501850F911DDC011C
:104D70006C93852F8F5FD6018C933196E217F307E2
:104D800081F7F501E80FF11D10828F5F8C93F1011F
:104D900081911F018823E1F6D7011C92CE01019673
:104DA000672DA2010E94002F23E01FC0829FC00137
:104DB0001124FC01E950FA4F86509A4F4491D701D3
:104DC0003C91D401A30FB11D440F440F440F4C93E9
:104DD0003F5FD7013C933196E817F90779F7F40163
:104DE000E30FF11D10823F5F3C93F80181918F0129
:104DF0008823E1F627960FB6F894DEBF0FBECDBF2D
:104E0000CF91DF911F910F91FF90EF90DF90CF90A6
:104E1000BF90AF909F908F907F905F904F903F900A
:104E20002F900895CF93DF93EC0180E060E01DDECA
:104E300081E06FE705DECE0161E053DEDF91CF91C7
:104E40000895A1E0B0E0E7E2F7E20C941635182FE0
:104E5000E12FF92F80E003C02D3609F48F5F3E2F3C
:104E6000311B21912223C1F78195880F8C5A232F62
:104E7000220F220F821B60E09983F7DD812F998139
:104E800061E02FDE2196E3E00C943235A1E0B0E042
:104E9000ECE4F7E20C941135D82EE92E162FE82F0A
:104EA000F92FDF010D900020E9F71197A81B23E1EE
:104EB00030E02A1B310935952795C22E0A2F01951E
:104EC0000D5E021B80E060E0D0DD112311F06FE782
:104ED00001C060E081E0B4DD112319F042E052E04E
:104EE00002C044E052E0CA01612FFBDD112331F41E
:104EF00083E060E0BADD81E060E2A2DDFF24F394AC
:104F000011C0112329F08AE092E061E0EADD09C0D6
:104F100090E081E060E2998393DD99819F5F943016
:104F2000C1F7F394FC1468F38AE092E0612FD9DDB5
:104F30008D2D9E2D612FD5DD8AE092E0612FD1DD90
:104F4000FF24F3940FC0112329F08AE092E061E07E
:104F5000C8DD07C0E4E0EE2E81E060E271DDEA9496
:104F6000D9F7F394F01678F380E560E07EDD112345
:104F700019F086E092E002C088E092E0612FB1DD96
:104F80002196E8E00C942D35A2E6B0E0EAECF7E2D9
:104F90000C94073563968FAF6397762E68964FAF64
:104FA000689769962FAF6997DFD3682E68963FADF3
:104FB0006897232F30E065963FAF2EAF6597C90104
:104FC000860D911D64E570E00E94B7344C0100E04D
:104FD00010E0CC24CA94DC2CAA24BB24EE24EA944E
:104FE000FE2C63968FAD6397602FCFD3FC01208199
:104FF0002223B9F481813281932F9770009789F42D
:10500000432F4695469546953381532F5295550F1C
:10501000507E852F842B932F969596959695009785
:1050200039F1772011F430E017C08281472D4130EB
:1050300021F42181382F37700FC0982F96959695BF
:1050400096958381482F4295440F407E242F292B2B
:10505000382F369536953695A216B30608F45901C1
:105060002E153F0508F479010815190509F46901A1
:105070000F5F1F4F0435110509F0B3CF772009F0FA
:105080004BC0B6016451704062967FAF6EAF6297BD
:105090008091C5029091C6027FE78F3F970739F450
:1050A0006CEE862E6FEF962E8E0C9F1C04C08090A7
:1050B000C5029090C6028091B9029091BA02AFE702
:1050C0008F3F9A0729F4ECEEFFEFAE0EBF1E04C02F
:1050D000A090B902B090BA0222E030E0C401B90158
:1050E0000E94B7347093C0026093BF02C501B9013A
:1050F0000E94B7347093C2026093C1028091C502CE
:105100009091C602FFE78F3F9F0709F0B7C08091DB
:10511000B9029091BA02B2C0272D213009F05FC0C8
:10512000A60140575E4F62965FAF4EAF6297809187
:10513000C7029091C8025FE78F3F950739F450E9A5
:10514000852E51E0952E8E0C9F1C04C08090C702C6
:105150009090C8028091BB029091BC026FE78F3F94
:10516000960729F480E991E0A80EB91E04C0A0902A
:10517000BB02B090BC02B401882777FD8095982FC0
:105180000E94243220EA34E747E852E40E94893141
:105190000E94F1317093C0026093BF02B50188276D
:1051A00077FD8095982F0E94243220EA34E747E863
:1051B00052E40E9489310E94F1317093C2026093DF
:1051C000C1028091C7029091C802AFE78F3F9A0752
:1051D00009F054C08091BB029091BC024FC0F6010F
:1051E000E45BF2406296FFAFEEAF62978091C90236
:1051F0009091CA02FFE78F3F9F0739F44CE4842E59
:105200004DEF942E8E0C9F1C09C08091C902909185
:10521000CA0262E070E00E94B7344B018091BD0287
:105220009091BE022FE78F3F920729F44CE45DEF87
:10523000A40EB51E09C08091BD029091BE0262E02D
:1052400070E00E94B7345B01C401880F991F9093EE
:10525000C0028093BF02C501880F991F9093C202BC
:105260008093C1028091C9029091CA025FE78F3F8B
:10527000950721F48091BD029091BE026FEFC61692
:105280006FEFD60631F48FEF9FE762969FAF8EAF38
:1052900062979FEFE9169FEFF906A9F41092C202F8
:1052A0001092C1028091C1029091C2029093C002FB
:1052B0008093BF028FEFA82E8FE7B82E0EEF802EBF
:1052C0000FE7902E20C0A814B90429F445010894D2
:1052D000A11CB11C18C0C501881999098431910518
:1052E00094F4C501880D991D62E070E00E94B73406
:1052F00016EF812E1FEF912E860E971EBAE0AB2E71
:10530000B12CA60EB71E80E062E29ADB862D8D5A84
:1053100064E50E949734692EA3E12A2E312C2C0ECD
:105320003D1EF7E24F2E512C4C0E5D1E872DB40111
:10533000A501910182017E010894E11CF11CE2E0CB
:10534000CE2ED12CCC0EDD1ECCDC13E50FEFDE0112
:1053500018966F96BFAFAEAF6F97C50188199909C0
:105360009C01442737FD4095542F6D962CAF3DAFDF
:105370004EAF5FAF6D972DE0E22EF12CEC0EFD1ECF
:10538000472C55244BEC52E0440E551EBE016E5E78
:105390007F4FA1967FAF6EAFA197812F61E065DB54
:1053A0005A81498193E0292E312C2C0E3D1ECE01CD
:1053B000089667969FAF8EAF6797DC01F101812F4A
:1053C00090E027E230E02C0F3D1F280F391F63E1EA
:1053D00070E06C0F7D1F860F971FA396BFAFAEAF17
:1053E000A39769967FAD6997772329F06896AFAD4B
:1053F00068971A1711F060E001C065E56193A39604
:10540000AEADBFADA3976FEF6D93A396BFAFAEAF39
:10541000A397151748F4772339F46B81D901CC9001
:105420006C296B83B0ECB887141748F4772339F4F0
:105430006F81DC01CC906C296F83B3E0BC876F96E1
:10544000AEADBFAD6F97EA17FB0771F663968FADF0
:105450006397662D9AD1FC016A94B62DBF3F11F473
:1054600083E5682E772029F4608170E064517040F4
:105470001BC08281272D213031F46181782F777014
:1054800060577E4F11C0982F96959695969583817B
:10549000282F2295220F207E622F692B782F769558
:1054A00076957695645B72401D861E861F86188AE7
:1054B000198A681579050CF47EC0A616B7060CF497
:1054C0007AC080818823C1F481812281922F9770D4
:1054D000009791F4322F3695369536952381422FD9
:1054E0004295440F407E842F832B922F969596955C
:1054F0009695009709F45FC068197909882777FDA8
:105500008095982F29ED3FEF4FEF5FEF0E947834A1
:105510006D962CAD3DAD4EAD5FAD6D970E94EC34F8
:10552000295D822F869586958695322F377091E07A
:1055300002C0990F31503323E1F7F701E80FF11D55
:1055400090832017D9F10F3FC1F1D2019C9199238B
:10555000A1F5021718F0015041E021C00F5F09C00A
:10556000392F3695392B3083902F9F5F201729F1E3
:10557000092FF701E80FF11D908190FFF1CF8150C5
:10558000F701E80FF11DB0E8B083EECF392F330FEC
:10559000392B3083902F9150201779F0092FF70184
:1055A000E80FF11D908197FFF1CF8F5FF701E80FB2
:1055B000F11D4083EFCF0FEF01C0022F6701F6010D
:1055C00091916F016796AEADBFAD67976D9167968C
:1055D000BFAFAEAF6797F10181911F016923682BBF
:1055E00081E02EDAA1962EAD3FADA197C216D3066B
:1055F00031F7115008F0D1CE80E060E221DA6996EF
:105600003FAD6997332309F45FC08FB7F894909149
:105610009302A09194028FBF63964FAD6397E42FDE
:10562000F0E0EE0FFF1FE65DFD4F608171818E019E
:10563000055C1F4F43E550E06596EEADFFAD659705
:105640004E1B5F0B469F9001479F300D569F300DBC
:1056500011248CE3989FC00111248A0F911D0E9490
:10566000A334280F391FC801B9010E94BA09C80123
:10567000D9DBF80101900020E9F73197E01BF10B2D
:105680001E2F110F110F03C081E06FE7D9D91F5FE3
:105690001435D0F3F72DF23051F462962EAD3FADB4
:1056A0006297220F331F62963FAF2EAF62978E0133
:1056B000055C1F4FC801672D62964EAD5FAD6297C6
:1056C000E2D3C801BEDB3AC0772029F4CE01CB96E5
:1056D00061E877E00AC0CE01CB96372D313019F45E
:1056E00068E777E002C06FE677E00E9470358E01D0
:1056F000055C1F4FC80168E677E00E946535639638
:105700004FAD6397E42FF0E0EE0FFF1FE65DFD4F16
:105710002081318184E590E0289FB001299F700DA0
:10572000389F700D1124CE010D960E945D09BC01B9
:10573000C8010E948635C80161E0A8DBCE59DF4F61
:10574000E2E10C94233570E0685A704094E5899F3B
:10575000C0011124680F791F660F771F660F771F2E
:10576000605F7F4FCB010895282F30E0823028F40E
:105770002A573A4FF90180810895C901880F991F6E
:10578000880F991F05970C94E935823068F424E559
:10579000829F90011124260F311D220F331F220FEB
:1057A000331F2E513D4F0DC0CEDF0E94F135609367
:1057B000820570938305809384059093850522E884
:1057C00035E0C9010895A0E0B0E0E9EEFBE20C94F9
:1057D0000B35EC0179018A012093CE023093CF0280
:1057E0004093D0025093D102CB01E3E0880F991F80
:1057F000EA95E1F7860F971F65E070E00E94B734E5
:10580000605C7E4F5B01CC24B7FCC094DC2CC601ED
:10581000B50125E030E040E050E00E94EC343093E8
:10582000D3022093D202C601B5016C392FEF720763
:105830002FEF82072FEF920724F46CE97FEF8FEFB1
:105840009FEF6A597F4F8F4F9F4F25E030E040E038
:1058500050E00E94EC34A22EB32EC42ED52E6FEF52
:10586000A616B104C104D10431F02CF07FEFA72EAD
:10587000B12CC12CD12C80E2E8168EE4F80680E031
:10588000080780E018071CF0C801B70104C060E2F7
:105890007EE480E090E067507E448040904022E3C8
:1058A00030E040E050E00E94EC34622E932E842ED3
:1058B000752EC801B701C8D50E94FC0725E83BEE4C
:1058C00041E550E44DD6262F372F482F592F2093EE
:1058D000D4023093D5024093D6025093D70220E0F1
:1058E00030E040E05FE3B1D47CD5262F372F482F3E
:1058F000592F28396AEF36076FEF46076FEF5607C3
:1059000024F428E93AEF4FEF5FEF27593A4F4F4F12
:105910005F4F5595479537952795A882862D992DE8
:10592000A82DB72D803068E0960760E0A60760E0FC
:10593000B60724F08FEF97E0A0E0B0E0898397707E
:105940008A81887F892B8A83203080E2380780E033
:10595000480780E0580724F02FEF3FE140E050E097
:10596000922F990F990F990F8A818770892B8A83BB
:10597000832F880F880F880F229526952770282B54
:105980002B83CDB7DEB7EEE00C942735A6E0B0E070
:10599000ECECFCE20C940F35FC019A01AB01CE015A
:1059A0000196BF0110DF1AE2E12E12E0F12E06E8A7
:1059B00015E0CC24DD2420E0B4E5AB2E3CE322232B
:1059C00089F08091930240919402839FC001112439
:1059D000840F911DF70160817181B5D70097B1F5F2
:1059E0002230C9F0F8018081F601E80FF11DEE0FB9
:1059F000FF1FEE0FFF1FEE51FD4F49815A816B8152
:105A00007C8140835183628373838F5F6A2D8FD73C
:105A1000F80190831BC083E090E02D833E830E94B9
:105A2000E935B82E82E06B2D8EDE49815A816B817B
:105A30007C810E940D368B2D8F5F6A2D78D7692F60
:105A400083E090E00E94FB353E812D812F5F82E054
:105A500090E0E80EF91E0F5F1F4FE4E5F0E0CE0E78
:105A6000DF1E233009F0ABCF2696EAE0F4C76F9231
:105A70007F928F929F92BF92CF92DF92EF92FF928E
:105A80000F931F93DF93CF9300D000D00F92CDB729
:105A9000DEB7FC016A017B0138014901CE010196A4
:105AA000BF01A70196018FDE00E611E020E0CC24C3
:105AB000CA94DC2C7601BB24C8012D830E94F135E9
:105AC0002D816C157D058E059F0518F46B017C01F9
:105AD000B22E2F5F085F1F4F243571F70B2D10E09A
