:100000000C9426050C9443050C9443050C947B2614
:100010000C9443050C9443050C9443050C94430540
:100020000C9443050C94A8250C9443050C9424349B
:100030000C9443050C9443050C9443050C94430520
:100040000C9443050C9443050C9443050C94430510
:100050000C9443050C9443050C9443050C94430500
:100060000C9414350C94430507634236B79BD8A70C
:100070001A39685618AEBAAB558C1D3CB7CC5763CD
:10008000BD6DEDFD753EF6177231BF000000803F7B
:1000900008000000BE922449123EABAAAA2ABECD97
:1000A000CCCC4C3E00000080BEABAAAAAA3E000009
:1000B0000000BF000000803F000000000008417801
:1000C000D3BB4387D1133D190E3CC3BD4282AD2B38
:1000D0003E68EC8276BED98FE1A93E4C80EFFFBE30
:1000E00001C4FF7F3F00000000004A616E004665CA
:1000F00062004D617200417072004D6179004A7575
:100100006E004A756C0041756700536570004F635F
:1001100074004E6F760044656300EA00EE00F20062
:10012000F600FA00FE00020106010A010E011201AA
:100130001601200064006800346400326400323428
:10014000680032680039306D006D005000410030A9
:10015000003A0030003A0030005000410030003AD0
:1001600000300020002030004F63742032352032F0
:100170003031310031313A32353A31370045786922
:1001800074204D656E75004C696E652031204461A8
:100190007461004C696E6520322044617461004CCA
:1001A000696E6520332044617461004C696E65207E
:1001B000342044617461004C696E652035204461CF
:1001C0007461004C696E6520362044617461007D65
:1001D00001870193019F01AB01B701C301000043F7
:1001E000616C696272617465005365742044657363
:1001F00074696E6174696F6E005265736574204432
:10020000657374696E6174696F6E007D01DF01E969
:100210000100004461746520616E642054696D655D
:1002200000536C6565702044656C617900536F758F
:100230006E64004C434420436F6E747261737400AB
:100240004C43442042696173004C43442054656D23
:100250007020436F656600526573746F7265204449
:10026000656661756C747300457261736520416CDD
:100270006C2044617461007D01130221022D023360
:10028000024002490257026802000054656D706521
:1002900072617475726500416C746974756465008F
:1002A00052617465206F6620417363656E740054FB
:1002B000696D6520746F2044657374696E6174693B
:1002C0006F6E0053746174696F6E20507265737342
:1002D00075726500536561204C6576656C205072BF
:1002E0006573737572650054696D65206F6620448F
:1002F0006179004461746520616E642054696D65A4
:100300000054656D70657261747572652054726514
:100310006E64005072657373757265205472656EF9
:1003200064005765617468657220466F7265636129
:10033000737400456D707479007D018B029702A083
:1003400002AF02C302D402E702F302010313032245
:1003500003330300005669657720536E617073683C
:100360006F74204C6F670054616B6520536E617031
:1003700073686F74007D0155036703000045787052
:100380006C6F7265204772617068004472617769B2
:100390006E67205374796C6500437573746F6D20BC
:1003A000592D41786973204D696E00437573746FE0
:1003B0006D20592D41786973204D61780041757425
:1003C0006F20592D41786973204D696E0041757415
:1003D0006F20592D41786973204D6178007D017D32
:1003E000038B039903AB030000536F6172696E675F
:1003F00000526973696E67204661737400526973B5
:10040000696E6700526973696E6720536C6F77007D
:100410005374656164790046616C6C696E67205342
:100420006C6F770046616C6C696E670046616C6C3E
:10043000696E67204661737400506C756D6D6574EC
:10044000696E6700E903F103FD0304041004170457
:1004500024042C0439042B002D2D2D2D002B002DD0
:100460002D2D00206674200044657374696E6174DC
:10047000696F6E2000200020002000200020003046
:100480000020002D002000504D00414D0020002094
:10049000003000200020003000200020003000202C
:1004A0000020002000200030002000200020005309
:1004B0006E617073686F74200020004F6666004F95
:1004C0006E00536F756E642000436F6E74726173BB
:1004D00074200056004261747465727920002050C7
:1004E0004153542000414C54495455444500505206
:1004F0004553535552450054454D5000202020206F
:100500002020746F20756E6C6F636B0020686F6CB9
:1005100064205052455620616E64204E4558540068
:100520004620006674200020002000556E696D7022
:100530006C656D656E746564002000200045727204
:100540002000436C6561722C204472790046616919
:100550007200556E6368616E676564005261696E12
:100560000053746F726D7900566572792053746F01
:10057000726D7900436C656172696E6700476F6FD9
:1005800064205765617468657200417070722E2036
:1005900053746F726D00506F6F722057656174688D
:1005A000657200556E6368616E67656400427269CA
:1005B00065662053686F77657200556E6176616974
:1005C0006C61626C6500466F7265636173742000D4
:1005D0005072657373757265200054656D702000EC
:1005E00030003A0030002D2D2D2D2D0054696D6501
:1005F00020746F204465737420002066742F6D6929
:100600006E002D2D2D0044657363656E64696E6701
:100610002000417363656E64696E67200020696E17
:1006200000536561204C657620507273200020696C
:100630006E0053746174696F6E20507273200052A3
:1006400065747279200053656E736F7220657272E3
:100650003A20000000000017000300031F0A1F0AD1
:100660001F050904120F171C000303000E11110EC1
:1006700000050205040E0410080004040400100024
:100680001804031E110F021F0019151215150A0771
:10069000041F1715091E151D1905031F151F171512
:1006A0000F000A00040C04040E1F0A0A0A1F0E049D
:1006B0000115030E15161E051E1F150A0E11111F1A
:1006C000110E1F15151F05050E151D1F041F111FE7
:1006D0001108100F1F041B1F10101F061F1F0E1FD5
:1006E0000E110E1F05020E191E1F0D1612150901FF
:1006F0001F010F101F0718071F0C1F1B041B031CD3
:10070000031915131F101002040810101F0406040B
:100710001010100003031A161C1F120C0C12120CDE
:10072000121F0C1A16041E050C2A1E1F021C001D87
:100730000010201D1F0C12111F101E0E1E1E021C69
:100740000C120C3E120C0C123E1C0202141E0A0269
:100750001F120E101E0E180E1E1C1E120C12062842
:100760001E1A1F1620504153542000414C54495426
:100770005544450050524553535552450054454D3C
:100780005000000000000000005F000000070007AC
:1007900000147F147F14242A7F2A12231308646212
:1007A00036495522500005030000001C224100007C
:1007B00041221C0014083E081408083E0808005096
:1007C00030000008080808080060600000201008D9
:1007D00004023E5149453E00427F4000426151497A
:1007E000462141454B311814127F102745454539A4
:1007F0003C4A4949300171090503364949493606E1
:100800004949291E003636000000563600000814FB
:10081000224100141414141400412214080201513E
:100820000906324979413E7E1111117E7F494949BD
:10083000363E414141227F4141221C7F4949494185
:100840007F090909013E4149497A7F0808087F006C
:10085000417F41002040413F017F081422417F40F9
:100860004040407F020C027F7F0408107F3E4141E0
:10087000413E7F090909063E4151215E7F09192940
:1008800046464949493101017F01013F4040403F0F
:100890001F2040201F3F4038403F63140814630767
:1008A000087008076151494543007F414100020437
:1008B0000810200041417F00040201020440404032
:1008C0004040000605030020545454787F484444B7
:1008D000383844444420384444487F3854545418E9
:1008E000087E0901020C5252523E7F08040478002F
:1008F000447D40002040443D007F102844000041DA
:100900007F40007C041804787C0804047838444450
:1009100044387C14141408081414187C7C0804044B
:10092000084854545420043F4440203C4040207C1C
:100930001C2040201C3C4030403C44281028440CE3
:100940005050503C4464544C44667400696E002717
:10095000460000407A10F35A00A0724E18090010A9
:10096000A5D4E80000E87648170000E40B54020024
:1009700000CA9A3B000000E1F5050000809698004F
:10098000000040420F000000A08601000000102778
:1009900000000000E8030000000064000000000008
:1009A0000A00000000000100000000002C76D8883A
:1009B000DC674F0823DFC1DFAE59E1B1B796E5E34D
:1009C000E453C63AE651997696E8E6C28426EB8966
:1009D0008C9B62ED407C6FFCEFBC9C9F40F2BAA503
:1009E0006FA5F490055A2AF75C936B6CF9676DC19B
:1009F0001BFCE0E40D47FEF520E6B500D0ED902E9F
:100A00000300943577050080841E080000204E0AFC
:100A1000000000C80C333333330F986E128311413A
:100A2000EF8D2114893BE65516CFFEE6DB18D18405
:100A30004B381BF77C1D901DA4BBE424203284722C
:100A40005E228100C9F124ECA1E53D2711241FBEDF
:100A5000CFEFD8E0DEBFCDBF12E0A0E0B1E0EAE426
:100A6000FDE702C005900D92A433B107D9F715E058
:100A7000A4E3B2E001C01D92A83BB107E1F70E94D8
:100A800088220C94A33E0C9400000F931F93809136
:100A900064008E7F8093640080917A0080688093E8
:100AA0007A008EE480937C0083EF91E00197F1F768
:100AB00000C0000080917A00806480937A00809169
:100AC0007A0086FDFCCF8091780090E0A0E0B0E055
:100AD00040917900342F20E0442737FD4095542F72
:100AE000282B392B4A2B5B2B80917A008F778093B0
:100AF0007A008091640081608093640060E070E31C
:100B000081E190E00E941E3BB901CA011F910F9143
:100B100008951F93182F87E70E94C336812F0E94E4
:100B2000DD360E94CD3687E761E00E94B6360E942E
:100B300035378823E1F30E943B371F9108951F93B7
:100B4000182F87E70E94C336812F0E94DD360E944E
:100B5000CD3680933402809134028823A1F487E754
:100B600062E00E94B6360E9435378230E0F30E9480
:100B70003B37182F0E943B37512F40E0282F30E0A1
:100B8000242B352B02C020E030E0C9011F910895CD
:100B900080E896EEA5ECB7E480939F029093A002C4
:100BA000A093A102B093A2020895109234023B9A3E
:100BB000439889EF90E00197F1F700C00000439A55
:100BC00080E896EEA5ECB7E480939F029093A00294
:100BD000A093A102B093A2020E949E368AEA0E94CC
:100BE0009F0590938C0280938B028CEA0E949F0554
:100BF00090939402809393028EEA0E949F059093B3
:100C0000A4028093A30280EB0E949F059093980218
:100C10008093970282EB0E949F05909392028093AB
:100C2000910284EB0E949F059093900280938F0223
:100C300086EB0E949F0590938E0280938D0288EB35
:100C40000E949F0590938802809387028AEB0E94FE
:100C50009F0590938A02809389028CEB0E949F05E6
:100C600090939A02809399028EEB0E949F05909335
:100C7000960280939502089587E70E94C33684EF19
:100C80000E94DD368EE20E94DD360E94CD368093D2
:100C9000340280913402882361F481EE94E001975C
:100CA000F1F700C0000086EF0E949F05282F392F22
:100CB00002C020E030E0C9010895EF92FF920F9347
:100CC0001F9387E70E94C33684EF0E94DD3684EFCE
:100CD0000E94DD360E94CD3680933402809134022A
:100CE000882309F045C083E699E10197F1F700C038
:100CF000000087E70E94C33686EF0E94DD360E941F
:100D0000CD368093340280913402882389F587E7B9
:100D100063E00E94B6360E9435378330E0F30E94CC
:100D20003B37182F0E943B37E82E0E943B37212F7C
:100D300030E040E050E0A90133272227FF2400E003
:100D400010E0102F0F2DFE2CEE242E293F29402BD2
:100D5000512B90E0A0E0B0E0282B392B4A2B5B2BE5
:100D600085E056954795379527958A95D1F703C025
:100D700020E030E0A901B901CA011F910F91FF9055
:100D8000EF900895EF92FF920F931F93BC0180E0C4
:100D900090E020918F023091900240E050E0621B81
:100DA000730B840B950B209191023091920240E0DD
:100DB00050E00E94AA3A7B018C01FFE0159507954F
:100DC000F794E794FA95D1F76091990270919A029D
:100DD000882777FD8095982FEBE0660F771F881F97
:100DE000991FEA95D1F720919502309196024427F8
:100DF00037FD4095542F2E0D3F1D401F511F0E945F
:100E00001E3B2E0D3F1D401F511F20939B02309310
:100E10009C0240939D0250939E02285F3F4F4F4F8C
:100E20005F4F74E055954795379527957A95D1F79B
:100E3000C9011F910F91FF90EF9008952F923F925B
:100E40004F925F926F927F928F929F92AF92BF92DA
:100E5000CF92DF92EF92FF920F931F93DF93CF9386
:100E600000D000D0CDB7DEB71B012C01A0909B02B3
:100E7000B0909C02C0909D02D0909E0280E690EFC0
:100E8000AFEFBFEFA80EB91ECA1EDB1EC601B5012B
:100E9000A60195010E94AA3A69837A838B839C8379
:100EA0006091A3027091A402882777FD8095982F06
:100EB0000E94AA3A7B018C014DE015950795F794A5
:100EC000E7944A95D1F782E090E0A0E0B0E0E80E28
:100ED000F91E0A1F1B1F69817A818B819C813CE06E
:100EE00095958795779567953A95D1F720918D02DD
:100EF00030918E02442737FD4095542F0E94AA3A24
:100F0000BC01992777FD9095892FE60EF71E081FE3
:100F1000191F82E015950795F794E7948A95D1F704
:100F200080E090E8A0E0B0E0E80EF91E0A1F1B1F69
:100F3000209197023091980240E050E0C801B7013B
:100F40000E94AA3A3B014C01BFE0969487947794A3
:100F50006794BA95D1F760919302709194028827B3
:100F600077FD8095982FA60195010E94AA3A7B01F2
:100F70008C01ABE015950795F794E794AA95D1F706
:100F800080918B0290918C02AA2797FDA095BA2F91
:100F9000F2E0880F991FAA1FBB1FFA95D1F7E80E40
:100FA000F91E0A1F1B1F20918702309188024427D7
:100FB00037FD4095542F69817A818B819C810E94F5
:100FC000AA3AE7E19595879577956795EA95D1F7E0
:100FD000E60EF71E081F191FEE0CFF1C001F111F45
:100FE0002E183F08400A510AC201B1012AE638E131
:100FF00040E050E00E94AA3A97FD0BC0660F771FB1
:10100000881F991FA40193010E94FC3A79018A016B
:101010000AC0A40193010E94FC3A79018A01EE0CF6
:10102000FF1C001F111F552717FD5A95412F302F08
:101030002F2DCA01B9010E94AA3A2EED3BE040E0F3
:1010400050E00E94AA3A5B016C01C801B70123E499
:1010500033EE4FEF5FEF0E94AA3A9C01552737FD10
:101060005095452F2153314F4F4F5F4F5601DD248F
:10107000B7FCD094CD2C2A0D3B1D4C1D5D1DA4E06A
:101080005595479537952795AA95D1F72E0D3F1D74
:10109000401F511FB901CA010F900F900F900F9080
:1010A000CF91DF911F910F91FF90EF90DF90CF9044
:1010B000BF90AF909F908F907F906F905F904F9078
:1010C0003F902F90089520919F023091A00240916F
:1010D000A1025091A2020E94BB3721EB3CED42E4F9
:1010E0005EE30E944539562F472F382F292F60E0A5
:1010F00070E080E89FE3DA01F9012B2F3A2F4F2FA0
:101100005E2F0E94563720E03AE24DE257E40E94FB
:10111000E2380895EF92FF920F931F937B018C01A9
:10112000CA01B90120E03AE24DE257E40E94BB3720
:101130009B01AC0160E070E080E89FE30E945637BD
:1011400026EF38E248EA50E40E944539562F472FEF
:10115000382F292FC801B701DA01F9012B2F3A2FB7
:101160004F2F5E2F0E94BB371F910F91FF90EF9082
:10117000089583EB91E09093A9028093A80280E404
:101180008093660000C000C00000E6EBF0E08081C4
:101190008062808380818F7B80831092B00081E0A9
:1011A0008093B10008951092B2008091B6008A71C8
:1011B000E1F720E030E02F5F3F4F8091B2008436AE
:1011C000D0F3C90108952091A8023091A9022817EF
:1011D000390748F48FEF8093A502809166009091C3
:1011E000A602891B0BC08217930770F481E08093DD
:1011F000A502809166009091A602890F80936600F7
:1012000000C000C0000006C081E090E09093AB02F7
:101210008093AA028091A60286958093A6020895E3
:101220008091AC028F5F8093AC02843059F480913E
:10123000AE028093660081E090E09093AB028093D1
:10124000AA020895809166009091A502890F80936B
:10125000660000C000C0000008951F9311E033C075
:101260000E94D3082091A602222319F00E94E308CD
:101270002AC02091A8023091A9021123A1F4821B57
:10128000930B97FF03C0909581959F4F209100018C
:10129000821730F480930001809166008093AE0243
:1012A0000E94100910C01092AC02821B930B97FF92
:1012B00003C0909581959F4F8093000180916600B7
:1012C0008093AE0210E08091AA029091AB02009749
:1012D00039F21F9108951F930E94B90883EC99E099
:1012E0000197F1F700C0000010E21093A6021092DF
:1012F000AB021092AA020E942D098091000188235E
:1013000009F190EC9093660000C000C0000090913D
:10131000AE029093A7028093AD021093A6021092A2
:10132000AB021092AA020E942D09909100018091B7
:10133000AD02891738F48091A7028093660000C03F
:1013400000C000001F9108959F92AF92BF92CF926C
:10135000DF92EF92FF920F931F93CF93DF936C0175
:10136000C0E0D0E0FE01EE0FFF1FE65EFE4FA5904D
:10137000B49000E010E0F601E00FF11F8491F80155
:10138000EA0DFB1D949090E00E945B3B7C01892D4F
:1013900090E00E945B3BE816F90639F40F5F1F4F9F
:1013A0000330110541F7219606C02196CC30D105B6
:1013B000C9F6C0E0D0E0CE01DF91CF911F910F912F
:1013C000FF90EF90DF90CF90BF90AF909F900895E7
:1013D000EF92FF921F93CF93DF93EC01162FE42F30
:1013E000F0E0EE0FFF1FE85EFE4F25913491CE0135
:1013F000B9010E946E3B1A3020F4CE0165E671E01F
:1014000003C0CE0163E671E00E94633B7E01AC2F16
:10141000BF2DFD0101900020E9F73197EA1BFB0B7E
:10142000EC0FFD1F812F90E0BF014AE050E00E94C9
:10143000963BCE01DF91CF911F91FF90EF900895E1
:10144000CF92DF92EF92FF920F931F93DF93CF9390
:101450000F92CDB7DEB76C01162F042FFC0110825E
:10146000662389F06C3079F0862F6CE00E94C93ACF
:10147000292F9A3048F4C60161E671E029830E9461
:10148000633B298101C02CE0F60101900020E9F7BF
:101490003197EC19FD09EC0DFD1D822F90E0BF0185
:1014A0004AE050E00E94963BC6016FE571E00E9461
:1014B000633B0A3028F4C6016DE571E00E94633B8E
:1014C000F60101900020E9F73197EC19FD09EC0DC8
:1014D000FD1D802F90E0BF014AE050E00E94963B46
:1014E0001C3018F46BE571E002C069E571E0C601DB
:1014F0000E94633BC6010F90CF91DF911F910F9126
:10150000FF90EF90DF90CF900895AF92BF92CF926F
:10151000DF92EF92FF920F931F93DF93CF930F927F
:10152000CDB7DEB75C01162F042FF22EDC011C9222
:10153000662389F06C3079F0862F6CE00E94C93AFE
:10154000292F9A3048F4C50167E571E029830E948C
:10155000633B298101C02CE0D5010D900020E9F703
:10156000BD01615070406A197B096A0D7B1D822F95
:1015700090E04AE050E00E94963BC50165E571E0CD
:101580000E94633B0A3028F4C50163E571E00E94C4
:10159000633BD5010D900020E9F7BD01615070401B
:1015A0006A197B096A0D7B1D802F90E04AE050E0AC
:1015B0000E94963BC50161E571E00E94633BBF2D2F
:1015C000BA3028F4C5016FE471E00E94633BF50175
:1015D00001900020E9F73197EA19FB09EA0DFB1D9C
:1015E0008F2D90E0BF014AE050E00E94963B1C30F6
:1015F00018F46DE471E002C06BE471E0C5010E9473
:10160000633BC5010F90CF91DF911F910F91FF9028
:10161000EF90DF90CF90BF90AF9008950F931F93FE
:101620008C016C33710550F4CB01B8014AE050E0F5
:101630000E94963BC80169E471E047C064357105BA
:1016400019F465E471E01DC06038710519F462E4B5
:1016500071E017C085E0683E780721F4C8016EE3A9
:1016600071E00FC089E0683D780721F4C8016BE3A1
:1016700071E007C083E1603B780731F4C80168E39B
:1016800071E00E946E3B23C088E06137780778F4F0
:10169000CB016CE370E00E94D53ACB01B8014AE07F
:1016A00050E00E94963BC80166E371E00EC0CB019A
:1016B00060EA75E00E94D53ACB01B8014AE050E0FB
:1016C0000E94963BC80164E371E00E94633BC8013D
:1016D0001F910F910895AF92BF92CF92DF92EF9238
:1016E000FF920F931F93DF93CF93CDB7DEB7609731
:1016F0000FB6F894DEBF0FBECDBFE82ED92E9B01EA
:101700008FB7F894F090B802C090B702E091B002A1
:101710004091AF02F091B2028FBFCB016CE370E059
:101720000E94D53AF81A8F2D8C3318F0CA948CE3A6
:10173000F80EC9016CE370E00E94D53A9B01CB0121
:1017400068E170E00E94D53AC81A8C2D883118F0F3
:10175000E15088E1C80EF37011F4FDE101C0FCE135
:10176000EE23D9F4415049F0423091F0413091F0EC
:10177000433081F0453071F002C04CE00BC047307F
:1017800049F0483039F04A3029F04C3029F402C091
:10179000EF2F03C0EFE101C0EEE1C90168E170E0A5
:1017A0000E94D53A9B0122C021503040E1508E2F3B
:1017B00081508F31D8F0415049F0423091F04130A2
:1017C00091F0433081F0453071F002C04CE00BC025
:1017D000473049F0483039F04A3029F04C3029F48C
:1017E00002C0EF2F03C0EFE101C0EEE1211531058A
:1017F000D9F65E010894A11CB11CC5016E2F0E9490
:10180000E8098E01085F1F4FC8016C2D4F2D0E9403
:10181000200A8E2D9D2DB5010E948F3B8E2D9D2D72
:1018200062E371E00E94633B8E2D9D2DB8010E9402
:10183000843B8E2D9D2D60960FB6F894DEBF0FBEB3
:10184000CDBFCF91DF911F910F91FF90EF90DF906F
:10185000CF90BF90AF9008958BE08093B20281E06B
:101860008093AF028093B0021092B7021092B80238
:101870001092B10208958091B3029091B402A091A8
:10188000B502B091B6020196A11DB11D8093B302BD
:101890009093B402A093B502B093B6028091B302C4
:1018A0009091B402A091B502B091B602837090708D
:1018B000A070B0700097A105B10509F067C08091D4
:1018C000B1028F5F8093B1028091B1028C3309F035
:1018D0005DC01092B1028091B8028F5F8093B80210
:1018E0008091B8028C3309F051C01092B8028091F7
:1018F000B7028F5F8093B7028091B702883109F0F9
:1019000045C01092B7028091B0028F5F8093B00201
:101910008091B202837011F48DE101C08CE190914D
:10192000AF02923041F42091B00230E090E0019695
:1019300028173907C1F08091AF02843061F080919F
:10194000AF02863041F08091AF02893021F0809162
:10195000AF028B3021F48091B0028F3121F0809161
:10196000B002803299F491E09093B0028091AF027E
:101970008F5F8093AF028091AF028D3039F49093E6
:10198000AF028091B2028F5F8093B20208952F92CE
:101990003F924F925F926F927F928F929F92BF92EF
:1019A000CF92DF92EF92FF920F931F93DF93CF932B
:1019B000CDB7DEB766970FB6F894DEBF0FBECDBFCA
:1019C000E0913902F0E0EE0FFF1FE351FE4F40803F
:1019D000518020E001C02F5F222E3324F101EE0F51
:1019E000FF1FE40DF51D859194910097A1F7BB248D
:1019F0003E010894611C711CD8C080913F02F8011F
:101A0000E80FF11DEE0FFF1FE40DF51D8591949178
:101A1000E82EF92E809139028130A1F480913F02A5
:101A20009801280F311D2230310561F48091CE02DA
:101A30009091CF023FE78F3F930721F059EFE52EBA
:101A400051E0F52E809139028A30D1F58091BD02A6
:101A5000823029F0E1E0843019F4E0E001C0E2E0F6
:101A600080913F029801280F311D2330310589F400
:101A7000AE2FB0E0AA0FBB1FAE50BD4F8D919C9111
:101A800011973FE78F3F930721F03DEBE32E33E0C3
:101A9000F32E80913F029801280F311D243031052B
:101AA00079F4F0E0EE0FFF1FEA51FD4F8081918144
:101AB0003FE78F3F930721F09DECE92E93E0F92E4D
:101AC00048010894811C911C80E090E0B4010E94C0
:101AD0007B2784E5C82ED12C90913F0280913C0257
:101AE0009801290F311D90E02817390711F46FE78D
:101AF00001C060E081E00E9465270894C108D10818
:101B0000C114D10449F784E090E0B4010E947B271E
:101B1000C301B70145E150E00E94753B90913F023F
:101B200080913C029801290F311D90E061E0281757
:101B3000390709F060E0C3010E94BC27BB2099F47B
:101B400080913F02882381F180E590E0B4010E94FA
:101B50007B2790913F0280913C0261E0981360E006
:101B600081E091E01FC08B2D8430F1F480913F0221
:101B700090E00196800F911F82159305A9F080E5F2
:101B800090E0B4010E947B2790913F0280913C023B
:101B9000090F111D90E061E00817190709F060E0D6
:101BA00083E091E00E94BC27B3940B2D10E02B2D15
:101BB000253049F080913F029801280F311D2215F0
:101BC00033050CF41ACF66960FB6F894DEBF0FBE3D
:101BD000CDBFCF91DF911F910F91FF90EF90DF90DC
:101BE000CF90BF909F908F907F906F905F904F901D
:101BF0003F902F90089581E00E94163480913C021E
:101C00008F5F80933C0280913C02873019F58FB73B
:101C1000F8949091C3029093B1029091C90290936D
:101C2000B8029091D3029093B7029091D202909310
:101C3000B0029091C1029093AF029091C002909334
:101C4000B2028FBF88E08093390210923B0281E09C
:101C50008093350208959091C002937011F49DE134
:101C600001C09CE12091C102223099F09091C10203
:101C7000943061F09091C102963041F09091C10290
:101C8000993021F09091C1029B3011F49EE101C086
:101C90009FE13091D30220913C02233009F450C0DF
:101CA000243030F4213051F1223008F043C00AC012
:101CB000253009F484C0253008F467C0263009F0C7
:101CC000B7C097C09091C102980F9093C1028091C4
:101CD000C1028150813F20F08091C102845F0BC01E
:101CE0008091C10281508C3020F08091C1028C50D3
:101CF00002C08091C1028093C10208952091D20256
:101D0000280F2093D2028091D2028150813F20F08F
:101D10008091D202890F0BC08091D2028150891725
:101D200020F08091D202891B02C08091D202809360
:101D3000D20208959091C002980F9093C002089526
:101D40009091D302980F9093D3023C3048F0809149
:101D5000D3028C50813F40F48091D3028C500AC052
:101D60008091D302813F20F08091D302845F0AC02A
:101D70008091D3028C3020F08091D3028C5002C02D
:101D80008091D3028093D30208959091C902980F55
:101D90009093C9028091C902813F20F08091C902CD
:101DA000845C0AC08091C9028C3320F08091C90202
:101DB0008C5302C08091C9028093C902089590910A
:101DC000C302980F9093C3028091C302813F20F019
:101DD0008091C302845C0AC08091C3028C3320F0DE
:101DE0008091C3028C5302C08091C3028093C302CE
:101DF0000895813021F48091D302845F03C08091E3
:101E0000D3028C508093D3028091D302813F20F083
:101E10008091D302885E0AC08091D302883120F07D
:101E20008091D302885102C08091D3028093D30263
:101E30000895E0913902E093BD027093C602609369
:101E4000C5029093C8028093C7025093CD0240937D
:101E5000CC023093D1022093D0021092BF02109294
:101E6000BE028CE0809339020895EF92FF920F93A7
:101E70001F9381E00E9416348091BD02883051F496
:101E800080913C02823009F0BDC08091CC028093E9
:101E9000C202B8C0813009F05EC080913C0281303E
:101EA00021F0823009F0AEC04DC06091FB0270910C
:101EB000FC028091FD029091FE020E9456387B0147
:101EC0008C016091CC027091CD02882777FD8095BE
:101ED000982F0E9456382FEB3EE04CE95EE30E94BB
:101EE000E2389B01AC01C801B7010E948A086093E7
:101EF0009F027093A0028093A1029093A20260912E
:101F0000FB027091FC028091FD029091FE020E9402
:101F100056380E94630828E439EF41E550E40E94F6
:101F2000E23860930103709302038093030390935C
:101F300004038091CC029091CD029093060380938C
:101F4000050360C08091CC029091CD029093CF02A6
:101F50008093CE0257C08091C4028230D1F4809128
:101F60003C02833019F0843091F409C08091CC0296
:101F70009091CD029093F7028093F60208C0809171
:101F8000CC029091CD029093EB028093EA0282E022
:101F900037C08430D1F480913C02833019F0843012
:101FA00091F409C08091CC029091CD029093F302FC
:101FB0008093F20208C08091CC029091CD02909360
:101FC000E7028093E60284E01BC08630D9F480915A
:101FD0003C02833019F0843091F409C08091CC0226
:101FE0009091CD029093F5028093F40208C0809105
:101FF000CC029091CD029093E9028093E80286E0B2
:102000008093BD028091BD028093390210923B0201
:1020100081E0809335021F910F91FF90EF9008951A
:10202000282F30E04091CC025091CD0287FD07C0AF
:10203000240F351F3093CD022093CC0209C0CA0172
:1020400080509140820F931F9093CD028093CC02D9
:102050008091C7029091C8022091CC023091CD02AC
:102060002817390724F49093CD028093CC028091F5
:10207000C5029091C6022091CC023091CD02821708
:10208000930724F49093CD028093CC028091BD02FB
:102090008830F1F580913C02843069F48091CC0263
:1020A000855E80688093F10280E061E20E9465278E
:1020B0006091F1020FC080913C02853099F48091CB
:1020C000CC0280618093E50280E061E20E94652796
:1020D0006091E50280E00E94652780E060E20E9456
:1020E0006527089580913C02863091F48091CC025E
:1020F00084608093F00280E061E20E946527609135
:10210000F00280E00E94652780E060E20E9465277F
:102110000895209139022093BD029093BC028093D0
:10212000BB027093BA026093B9025093CB02409302
:10213000CA0210923E028DE0809339020895909178
:102140003E0281E0891B80933E020895809139020E
:10215000883009F080C080913C02843009F443C08B
:10216000853048F48230A9F1833008F067C08130AF
:1021700009F01DC20DC0863009F44BC0863008F44A
:102180003EC0873009F451C0883009F010C24DC0FC
:102190008BE08093390210923C028FB7F8949091B3
:1021A000B1029093C3029091B8029093C9029091AA
:1021B000B7029093D3029091B0029093D202909183
:1021C000AF029093C1029091B2029093C0028FBF70
:1021D00008954091C20280E090E068E770E050E02E
:1021E00025E031E0BDC14091F10250E04F775070E1
:1021F0004B51504080E090E064E670E013C04091A5
:10220000E50250E04770507080E090E067E070E0D9
:1022100009C04091F00250E04370507080E090E0BF
:1022200063E070E027E031E09BC188E091E066E187
:1022300071E049E151E00E948910089587E091E042
:102240006DE171E040E251E00E948910909133020B
:1022500081E0891BFDC020913902213009F055C071
:1022600080913C02813021F0823009F0A0C122C06F
:102270006091010370910203809103039091040324
:1022800020E030E040E05FE30E9457370E942338AF
:102290009B01AC0188E19CEF68E97AE3A90124E2A3
:1022A00031E00E94190F87E291E09093BF02809382
:1022B000BE0208958091CE029091CF023FE78F3FFA
:1022C000930759F08FEF9FE79093CF028093CE0250
:1022D00010923B02209335020895609101037091A2
:1022E0000203809103039091040320E030E040E07A
:1022F0005FE30E9457370E9423389B01AC0188E1BD
:102300009CEF68E97AE3A90129C180913902882309
:1023100049F580913C028150863008F048C181E047
:102320000E941634809139028093BD0280913C0254
:1023300080933D0289E080933902E0913C02F0E015
:10234000ED52FD4F808180933C0280913C028530AC
:1023500030F080913C02845080933F0218C110926B
:102360003F0215C180913902893001F5E0913D02AB
:10237000F0E080913C02ED52FD4F80838091BD02E0
:102380008093390280913D0280933C0280913C020F
:10239000853030F080913C02845080933F0202C02F
:1023A00010923F0281E080933B02F2C0809139029B
:1023B0008730A9F480913C02813039F0823009F0F5
:1023C000F6C081E08093370227C080913B028F5F87
:1023D00080933B0210923F0210923C02089580913C
:1023E00039028A3009F0E3C02091BD022093C40273
:1023F00080913C02823099F0833020F4813009F0E2
:10240000D6C006C0833039F1843009F0D0C071C025
:10241000809340022093390210923B02B9C087E0BA
:1024200091E06DE371E043E451E00E9489108091F6
:10243000C402843019F48091F8020AC0823019F481
:102440008091FA0205C0863009F0B1C08091F9028E
:1024500080933E0208952430C9F48091F202909155
:10246000F3022FE78F3F920761F08FEF9FE7909382
:10247000F3028093F20210923B0284E080933902CF
:1024800086C04091EC025091ED0248C02230A1F488
:102490008091F6029091F7023FE78F3F930739F062
:1024A0008FEF9FE79093F7028093F6026CC0409104
:1024B000EC025091ED024EC0263009F078C08091B8
:1024C000F4029091F5023FE78F3F930739F08FEFC9
:1024D0009FE79093F5028093F40255C04091EC027F
:1024E0005091ED0285E090E065E270E02DE431E08E
:1024F00037C02430D1F48091E6029091E7023FE7A3
:102500008F3F930739F08FEF9FE79093E702809317
:10251000E60239C04091EE025091EF0286EF9FEF44
:1025200066E770E02AE431E01BC02230E1F48091DC
:10253000EA029091EB023FE78F3F930739F08FEF6C
:102540009FE79093EB028093EA021DC04091EE0258
:102550005091EF0288E99AEF68E97AE324E231E0EA
:102560000E94190F0895263011F58091E80290918C
:10257000E9023FE78F3F930771F08FEF9FE790935A
:10258000E9028093E80210923B022093390281E035
:102590008093350208954091EE025091EF0285E05C
:1025A00090E065E270E02DE431E00E94190F08959B
:1025B000E0913902F0E0EE0FFF1FE351FE4F208162
:1025C000318190E001C09F5FE92FF0E0EE0FFF1F27
:1025D000E20FF31F4591549141155105A1F7209148
:1025E0003C02280F20933C0280913C02891719F489
:1025F00010923C0207C080913C028F3F19F4915029
:1026000090933C0290913C0280913F02981728F4ED
:1026100080913C0280933F02089520913C0280917A
:102620003F0230E090E00496821793072CF48091EB
:102630003C02845080933F02089584E18093C2025B
:102640008FEF9FE79093CF028093CE0282E080933A
:10265000D40281E08093D5028CE08093D60293E08F
:102660009093D7028093D80288E08093D90208958E
:102670001F9381E00E9416348091BD02883041F59D
:1026800080913C02873061F0883019F08330C1F5C9
:1026900018C080913E02813099F58093360230C097
:1026A00010913E02113061F50E9491280E941D1385
:1026B000109333020E94C80510920603109205037E
:1026C0001FC090913E0281E0891B8093330218C0A5
:1026D0008091C402823029F490913E029093FA02D4
:1026E0000DC0843029F490913E029093F80206C008
:1026F000863031F490913E029093F9028093BD02AE
:102700008091BD028093390210923B0281E0809358
:1027100035021F910895EF92FF920F931F93CF936D
:10272000DF9380E00E94A72E682F6B50653508F07C
:102730006C5A80E00E94B92EFC01828186958695B4
:1027400086959381292F2295220F207EE22EE82A5A
:10275000E7017E01969596959695F92EE7012097CB
:10276000E1F1609101037091020380910303909164
:10277000040320E030E048EC52E40E94E2380E947A
:1027800023387B018C0180EA9CE1A2E0B0E0E80EF6
:10279000F91E0A1F1B1FBE0180E090E028EC30E00C
:1027A00040E050E00E94AA3AE61AF70A080B190B1B
:1027B000C801B7012AE030E040E050E00E941E3B33
:1027C0002E5C3F4F4F4F5F4FCA01B90124E630E006
:1027D00040E050E00E941E3B04C02FEF3FEF4FEF60
:1027E0005FE7B901CA01DF91CF911F910F91FF906F
:1027F000EF9008950F931F9380E00E94A72E682FFB
:102800006D53653508F06C5A80E00E94B92EFC01CA
:102810002081222399F130E040E050E0DA01C90143
:1028200072E0880F991FAA1FBB1F7A95D1F7820FFC
:10283000931FA41FB51F04E610E020E030E0081B42
:10284000190B2A0B3B0B4091FF0250910003CA0168
:1028500063E0880F991F6A95E1F7840F951F65E083
:1028600070E00E94E93A605C7E4F882777FD809592
:10287000982F060F171F281F391F04C00FEF1FEFD7
:102880002FEF3FE7B801C9011F910F910895EF9213
:10289000FF920F931F9380E00E94A72E682F6D5325
:1028A000653508F06C5A80E00E94B92EFC01618108
:1028B0008281782F777061157105E9F0E090FB0255
:1028C000F090FC020091FD021091FE0280EE91EB6F
:1028D000AFEFBFEFE80EF91E0A1F1B1F80E090E06C
:1028E00022E330E040E050E00E94AA3AE61AF70AFC
:1028F000080B190B08C0EFEFEE2EEFEFFE2EEFEFF7
:102900000E2FEFE71E2FB701C8011F910F91FF9007
:10291000EF900895EF92FF920F931F9381E00E9432
:10292000A72E682F6C54653508F06C5A81E00E9420
:10293000B92EFC0161818281782F77706115710554
:1029400029F1E090FB02F090FC020091FD02109151
:10295000FE0280EE91EBAFEFBFEFE80EF91E0A1F0B
:102960001B1F80E090E022E330E040E050E00E9456
:10297000AA3AE61AF70A080B190BC801B70125E0B5
:1029800030E040E050E00E941E3B04C02FEF3FEFDC
:102990004FEF5FE7B901CA011F910F91FF90EF90D0
:1029A00008956F3F2FEF72072FEF82072FE79207EF
:1029B000D9F1693C71058105910574F56937710597
:1029C000810591055CF5663371058105910544F536
:1029D00016161706180619062CF1611571058105E2
:1029E000910511F16B3C2FEF72072FEF82072FEF4C
:1029F0009207E4F468382FEF72072FEF82072FEF6A
:102A00009207B4F468332FEF72072FEF82072FEF8E
:102A1000920784F087E0089580E0089581E00895AA
:102A200082E0089583E0089584E0089585E00895A4
:102A300086E0089588E008956F927F928F929F922A
:102A4000AF92BF92CF92DF92EF92FF920F931F93BC
:102A5000DF93CF93CDB7DEB728970FB6F894DEBFDC
:102A60000FBECDBF7C01663009F4AEC0673090F474
:102A7000633009F404C1643030F4613019F162301C
:102A800009F016C346C0643009F437C1653009F057
:102A90000FC360C0693009F4CEC16A3038F46730C2
:102AA00009F4E5C2683009F003C3EAC26B3009F4E7
:102AB0002BC26B3008F415C26C3009F0F9C2DC018E
:102AC0001C920AC32091FF0230910003C901B3E0B8
:102AD000880F991FBA95E1F7820F931F65E070E0A8
:102AE0000E94E93A605C7E4F882777FD8095982F99
:102AF0000E94563820E030E040E251E40E94BB37AB
:102B000041E021E087010E94393BC70160E571E0A7
:102B1000CCC26091010370910203809103039091F4
:102B2000040320E030E048EC52E40E94E2380E94C6
:102B300023380E94563820E030E048EC52E40E94EE
:102B4000BB3741E022E087010E94393BC70163E5C2
:102B500071E0ABC26091FB027091FC028091FD02BA
:102B60009091FE0229E83BE040E050E00E94AA3A42
:102B70005B016C01C70162E376E00E946E3BD70106
:102B80000D900020E9F78D01015010400E191F092A
:102B9000C601B50120EA36E841E050E00E941E3B44
:102BA000CA01B9010E94563820E030E048EC52E4F6
:102BB0000E94BB370E0D1F1D41E022E00E94393BF1
:102BC000C7016EE276E058C000910503109106033C
:102BD0006091FB027091FC028091FD029091FE02D7
:102BE0000E9456385B016C01B801882777FD8095FB
:102BF000982F0E9456382FEB3EE04CE95EE30E948E
:102C0000E2389B01AC01C601B5010E948A0820E0B0
:102C100030E948E355E40E94E2380E9423386B0112
:102C2000682EA92EC70161E276E00E946E3BD701B3
:102C30000D900020E9F78D01015010400E191F0979
:102C4000B601862D9A2D20EA36E841E050E00E9438
:102C50001E3BCA01B9010E94563820E030E048EC22
:102C600052E40E94BB370E0D1F1D41E022E00E947E
:102C7000393BC7016DE176E00E94633B2DC20E94A3
:102C80008B135B016C0197FD0FC0C70162E176E019
:102C90000E946E3BBFEFAB16BFEFBB06BFEFCB068C
:102CA000BFE7DB0631F420C0C70166E076E00E9492
:102CB0006E3BD7010D900020E9F7AD014150504027
:102CC0004E195F09C601B501D7FE07C090958095E2
:102CD000709561957F4F8F4F9F4F4E0D5F1D2AE07E
:102CE00030E00E94B73B05C0C70162E076E00E9479
:102CF000633BC7016AEF75E0BFCF0E948B133B01B6
:102D00004C01C7016CEE75E00E946E3BA090CE02B4
:102D1000B090CF0260910103709102038091030390
:102D200090910403BFEF6B16BFEF7B06BFEF8B06DE
:102D3000BFE79B0681F12091CE023091CF02EFE7F1
:102D40002F3F3E0741F1CC24B7FCC094DC2C0E94FD
:102D50002338A61AB70AC80AD90AC401B30122E067
:102D600030E040E050E00E941E3BA20EB31EC41EA5
:102D7000D51EC601B501A40193010E941E3B590155
:102D80006A0157FD08C02438F9E03F07F0E04F071B
:102D9000F0E05F0724F0C70166EE75E06DCF28E52F
:102DA000A21622E0B20620E0C20620E0D2062CF4F1
:102DB000C70164EE75E00E94633BD7010D900020CF
:102DC000E9F78D01015010400E191F09C601B50128
:102DD0002CE330E040E050E00E941E3B5B016C01C0
:102DE0000E0D1F1DCA01B901A8012AE030E00E94A2
:102DF000B73BC70162EE75E00E94633BBAE0AB16D9
:102E0000B104C104D1042CF4C70160EE75E00E9446
:102E1000633BD7010D900020E9F7AD0141505040D0
:102E20004E195F094E0D5F1DC601B5012AE030E065
:102E30000E94B73B51C16AED75E00E946E3B0E9453
:102E4000FA136734710581059105ACF56932710596
:102E5000810591050CF032C16B307105810591053A
:102E60000CF02EC116161706180619060CF42AC106
:102E7000611571058105910509F426C1663FBFEF13
:102E80007B07BFEF8B07BFEF9B070CF01FC1683DAF
:102E9000EFEF7E07EFEF8E07EFEF9E070CF018C104
:102EA0006A3BFFEF7F07FFEF8F07FFEF9F070CF0F5
:102EB00011C1E8E009C06F3F2FEF72072FEF8207C3
:102EC0002FE7920749F0E0E0F0E0EE0FFF1FEC5B28
:102ED000FB4F2591349115C0ECE4F4E02591349139
:102EE00010C060ED75E00E946E3B0E9447140E9486
:102EF000D11490E0880F991F8C5B9B4FFC012591AA
:102F00003491C701B901B8CE66EC75E00E946E3B02
:102F10000E9447145B016C010E94D114182F0E947B
:102F20008A143B014C010E94D114082F4FEFA416C4
:102F30004FEFB4064FEFC4064FE7D40649F08FEFCA
:102F400068168FEF78068FEF88068FE7980621F4D2
:102F5000C7016AEB75E090CE812F8750823030F444
:102F6000063060F4C7016DEA75E086CE153031F4A5
:102F7000053021F4C70163EA75E07ECE912F9550AC
:102F8000923040F4802F8550823060F4C70166E9AA
:102F900075E072CE173030F0063020F0C7016AE8D5
:102FA00075E06ACE812F8250823040F4202F22506B
:102FB000223090F4C7016DE775E05ECE123030F438
:102FC000023050F0C70164E775E056CE183021F4A6
:102FD000C70168E675E050CE173021F4C70161E6FD
:102FE00075E04ACE923020F4C7016CE575E044CE1E
:102FF000143021F4C70162E575E03ECE823020F442
:10300000C7016DE475E038CE123020F4C70162E4E8
:1030100075E032CEC7016DE375E00E94633BD701D6
:103020000D900020E9F7BD01615070406E197F09D5
:103030006E0D7F1D812F90E04AE050E00E94963B8C
:10304000C7016BE375E00E94633BD7010D90002040
:10305000E9F7BD01615070406E197F096E0D7F1D4B
:10306000802F90E04AE050E00E94963B35C060918E
:10307000B7024091B8022091B1020E94850A2CC08B
:103080006091B0024091AF020E94E809C70169E374
:1030900075E00E94633B6091B7024091B802CE0197
:1030A00001960E94200ABC01C7010E94843B14C003
:1030B000C7016BE275E00E946E3B0EC0E1E004CFF9
:1030C000E2E002CFE3E000CFE4E0FECEE5E0FCCEBC
:1030D000E6E0FACEE7E0F8CE28960FB6F894DEBF29
:1030E0000FBECDBFCF91DF911F910F91FF90EF9059
:1030F000DF90CF90BF90AF909F908F907F906F9018
:103100000895AF92BF92CF92DF92FF920F931F93D9
:10311000DF93CF930F92CDB7DEB75C01CB01BA013D
:103120002CE330E040E050E00E94FC3AF62ECA0169
:10313000B90128E130E040E050E00E94FC3A162F4F
:10314000CA01B90105E096958795779567950A9527
:10315000D1F7022F0F712DE030E040E050E00E94E7
:10316000FC3A462FC501602F29830E94E809C5015A
:1031700069E275E00E94633BD5010D900020E9F7FC
:10318000BD01615070406A197B092981822F90E04E
:103190006A0D7B1D8053984F4AE050E00E94963B99
:1031A000C50167E275E00E94633BD5010D900020E8
:1031B000E9F7CD0101978A199B098A0D9B1D612FA3
:1031C0004F2D0E94200A0F90CF91DF911F910F91F8
:1031D000FF90DF90CF90BF90AF900895EF92FF9255
:1031E0000F931F93CF93DF93EC018B01DB011296BA
:1031F0008C91129786958695869513969C91292F8A
:103200002295220F207E422F482B592F56955695F6
:103210005695445B5240CE0162E00E949D31CE0142
:1032200063E275E00E94633B7E01EC2FFF2DDF011E
:103230000D900020E9F7CD0101978E1B9F0BF8013F
:10324000408150E0445150408C0F9D1F60E00E942F
:103250009D31CE0160E275E00E94633BEC2FFF2DB3
:10326000DF010D900020E9F7CD0101978E1B9F0B28
:10327000F80141812281522F577040575E4F8C0FC9
:103280009D1F61E00E949D31DF91CF911F910F91B1
:10329000FF90EF9008952F923F924F925F926F921E
:1032A0007F928F929F92AF92BF92CF92DF92EF92D6
:1032B000FF920F931F93DF93CF93CDB7DEB768973D
:1032C0000FB6F894DEBF0FBECDBF0E94BD30482EB2
:1032D00055240E94ED30FC0180819181A281B3814F
:1032E0000097A105B10561F480E090E062E070E034
:1032F0000E947B2787E591E060E00E94BC2753C1D4
:103300000E942231AA24BB246E010894C11CD11C46
:10331000282F30E0388F2F8B85010894A11CB11C19
:103320003A2C2B2C80E090E0B5010E947B27809105
:103330003F027201E81AF108E01AF10AF7FE04C030
:103340000E942031E80EF11C8E2D0E94ED30FC0110
:103350006080718082809380611471048104910483
:1033600009F4E3C090913F0280913C029801290F3B
:10337000311D90E02817390711F46FE701C060E0B4
:1033800081E00E946527C7010196B6014AE050E03E
:103390000E94963B90913F0280913C029801290F38
:1033A000311D90E061E02817390709F060E0C6019F
:1033B0000E94BC27F60101900020E9F73197EE2E1C
:1033C000EC1890913F0280913C029801290F311D29
:1033D00090E02817390711F46FE501C060E281E041
:1033E0000E94652790913F0280913C029801290F2D
:1033F000311D90E02817390711F46FE701C060E034
:1034000081E00E94652790913F0280913C029801E3
:10341000290F311D90E02817390711F46FE701C01B
:1034200060E081E00E946527C601B401A3010E940B
:10343000811890913F0280913C029801290F311D23
:1034400090E061E02817390709F060E0C6010E94AA
:10345000BC27F60101900020E9F73197EC19FD092E
:10346000FF240894E11CF11CEE0EFF1EEE0CFF1C65
:10347000EE0CFF1C14C090913F0280913C02980119
:10348000290F311D90E02817390711F46FE701C0AB
:1034900060E081E00E9465270894E11CF11CF4E5DE
:1034A000EF16F10444F301151105A1F480913F02D8
:1034B0008823B1F180E590E0632D722D0E947B2777
:1034C00090913F0280913C0261E0981360E081E0BE
:1034D00091E024C00330110519F580913F0290E07E
:1034E00004962F89388D82179307D1F080913C0282
:1034F0008F3FB1F080E590E0632D722D0E947B2715
:1035000080913F0220913C0290E0039630E061E020
:103510008217930709F060E083E091E00E94BC27E6
:1035200034E0A316B10409F0F7CE80913C02481AAA
:10353000510857FE04C00E942031480E511C842DB2
:103540000E94ED308C0180E090E065E070E00E9428
:103550007B2781E061E00E946527B8016C5F7F4FA7
:103560008E010F5F1F4FC8010E94EE18C8010E9414
:103570002528F80101900020E9F77F010894E1086F
:10358000F108E01AF10AEE0CFF1CEE0CFF1C04C05F
:1035900081E061E00E9465270894E11CF11CF4E5DC
:1035A000EF16F104ACF368960FB6F894DEBF0FBEC9
:1035B000CDBFCF91DF911F910F91FF90EF90DF90E2
:1035C000CF90BF90AF909F908F907F906F905F90C3
:1035D0004F903F902F9008951F93182F0E942231F3
:1035E00090913C02910F90933C0290913C0298176D
:1035F00019F410923C0207C090913C029F3F19F4CD
:10360000815080933C0290913C0280913F02981738
:1036100018F480913C020DC020913C0280913F0241
:1036200030E090E00396821793072CF480913C02DF
:10363000835080933F021F91089581E00E941634C9
:1036400010923B0281E0809335020895AF92BF92C1
:10365000CF92DF92EF92FF920F931F93DF93CF935E
:10366000CDB7DEB76D970FB6F894DEBF0FBECDBFF6
:10367000809143028823F1F080E090E061E070E007
:103680000E947B278E01085F1F4FC8016CE075E028
:103690000E946E3BC80160E00E94BC2780E090E081
:1036A00062E070E00E947B27C8016CEF74E00E942A
:1036B0006E3BBAC180913902882309F07DC08091A8
:1036C0003B02882309F075C000E010E068E0E62EB8
:1036D000F12CEC0EFD1EF801EC52FD4F6081C7018C
:1036E0000E941C151E8A80E090E0B8010E947B2792
:1036F000CC24DD2481E060E00E9465270894C11C91
:10370000D11C24E5C216D104A9F7F70101900020CD
:10371000E9F73197EE19FF09CF01880F991F8E0F36
:103720009F1F909581959F4F8A96B8010E947B2795
:10373000C7010E94A8270F5F1F4F0230110559F6DD
:1037400002E010E048E0E42EF12CEC0EFD1EF80142
:10375000EC52FD4F6081C7010E941C151D8E80E058
:1037600090E0B8010E947B27CC24DD2481E060E05A
:103770000E9465270894C11CD11C84E5C816D10499
:10378000A9F7F70101900020E9F73197C7018E1BD7
:103790009F0B880F991F8A96B8010E947B27C7014B
:1037A00060E00E94BC270F5F1F4F0630110579F6BD
:1037B0009EC685E691E096C6809139028A3009F06E
:1037C00044C02091BD02243029F4CE01089667EF51
:1037D00074E009C0CE010896263019F46EEE74E04C
:1037E00002C065EE74E00E946E3B8E01085F1F4FC1
:1037F000C8016EED74E00E94633BD8010D9000207B
:10380000E9F7CD01E0913A02F0E0EE0FFF1FE65D2F
:10381000FD4F4081518124E530E0429FB001439F3C
:10382000700D529F700D112401970E940E0B809114
:103830003B0261E0811160E0C8010E94BA298091D9
:103840003B02813009F053C650C68091390288305E
:1038500009F0EFC080913B0261E0811160E087E7F1
:1038600091E00E94BA2980913B02882309F03DC66D
:1038700080E090E061E070E00E947B278EE791E0BD
:1038800060E00E94BC278AED92E060E00E94BC27C5
:103890000E9445055B016C0185E090E0A0E0B0E08E
:1038A000A80EB91ECA1EDB1E98E0E92EF12CEC0E04
:1038B000FD1EC70165ED74E00E946E3BD7010D90BF
:1038C0000020E9F78D01015010400E191F09C601B3
:1038D000B5012AE030E040E050E00E941E3BCA0102
:1038E000B9010E94563820E030E048EC52E40E94D2
:1038F000BB370E0D1F1D41E022E00E94393BC7017E
:1039000063ED74E00E94633B80E090E062E070E071
:103910000E947B27C70160E00E94BC2780E090E006
:1039200063E070E00E947B27C70169EC74E00E94AD
:103930006E3B8091F102F70101900020E9F7BF0191
:1039400090E08F779070615070404B974AE050E064
:103950000E94963BC70160E00E94BC2780E090E097
:1039600064E070E00E947B27C70162EC74E00E9473
:103970006E3B80913302882321F0C7016FEB74E026
:1039800003C0C7016BEB74E00E94633B8E01085FCC
:103990001F4FC80160E00E94BC276091B0024091B7
:1039A000AF02C8010E94E80980E090E065E070E0A5
:1039B0000E947B27C80160E00E94BC27C80169EB18
:1039C00074E00E946E3B8091B202D8010D900020FD
:1039D000E9F7BD0190E0615070408053984F4AE094
:1039E00050E00E94963BC80160E00E94BC276091B5
:1039F000B7024091B8022091B102C8010E94850A25
:103A0000F80101900020E9F73197E01B2E2F30E0FC
:103A1000220F331F220F331F84E590E0821B930B8C
:103A200065E070E00E947B27C80160E00E94BC272F
:103A30005EC580913902873009F070C080913B02E9
:103A400061E0811160E087E891E00E94BA298091ED
:103A50003B02882309F055C00E94BD30C82E0E9449
:103A6000ED307C01FC01208131814281538121159F
:103A700031054105510549F480E090E062E070E0D5
:103A80000E947B2781E991E0D0CF8E01085F1F4F14
:103A9000C8016FEA74E00E946E3BD8010D900020CF
:103AA000E9F7BD018C2D90E06150704001964AE02D
:103AB00050E00E94963B80E090E062E070E00E945F
:103AC0007B27C80160E00E94BC27F701419151911A
:103AD000619171917F01C8010E94811880E090E09E
:103AE00063E070E00E947B27C80160E00E94BC2771
:103AF000C801B7010E94EE1880E090E064E070E039
:103B000091CF80913B02813009F4EFC480913B0258
:103B1000823009F0ECC40E944B19E9C4809139024B
:103B2000843041F480913A02409141022091400258
:103B300060E017C080913902863041F480913A02EA
:103B4000409141022091400261E00BC08091390216
:103B5000823051F480913A0240914102209140021A
:103B600062E00E94532AC3C4809139028B3009F06D
:103B700059C181EA91E060E00E94BA2980E190E0B9
:103B800062E070E00E947B2708E0E02EF12CEC0E52
:103B9000FD1EC7016DEA74E00E946E3B4091C102B8
:103BA0008E010F5F1F4FC80161E00E94E8091C826F
:103BB000C701B8010E94843BC7016BEA74E00E9410
:103BC000633B80913C0261E0811160E0C7010E948B
:103BD000BC278E01085F1F4FC80169EA74E00E948C
:103BE0006E3B8091D2028A3028F4C80167EA74E003
:103BF0000E94633B8091D2028E01085F1F4FD80163
:103C00000D900020E9F7BD016150704090E04AE05E
:103C100050E00E94963BC80165EA74E00E94633B55
:103C200080913C0261E0813009F060E0C8010E94AF
:103C3000BC278E01085F1F4FC80163EA74E00E9431
:103C40006E3B8091C002F80101900020E9F7BF01AE
:103C500090E0615070408053984F4AE050E00E94DD
:103C6000963BC80161EA74E00E94633B80913C028C
:103C700061E0823009F060E0C8010E94BC2788E062
:103C800090E064E070E00E947B278091D30288235B
:103C900059F08091D3028C3039F08091D3026CE0DE
:103CA0000E94C93AE92E02C01CE0E12E8E01085F95
:103CB0001F4FC8016FE974E00E946E3BFE2DFA3081
:103CC00028F4C8016DE974E00E94633B8E01085F2F
:103CD0001F4FD8010D900020E9F7BD0161507040E1
:103CE0008E2D90E04AE050E00E94963BC8016BE9BF
:103CF00074E00E94633B80913C0261E0833009F0F4
:103D000060E0C8010E94BC278FEA91E060E00E9459
:103D1000BC278E01085F1F4FC80169E974E00E944B
:103D20006E3B8091C9028A3028F4C80167E974E0CB
:103D30000E94633B8091C9028E01085F1F4FF8010A
:103D400001900020E9F7BF016150704090E04AE027
:103D500050E00E94963BC80165E974E00E94633B15
:103D600080913C0261E0843009F060E0C8010E946B
:103D7000BC278FEA91E060E00E94BC278E01085FBB
:103D80001F4FC80163E974E00E946E3B8091C3023B
:103D90008A3028F4C80161E974E00E94633B809195
:103DA000C3028E01085F1F4FD8010D900020E9F774
:103DB000BD016150704090E04AE050E00E94963BA7
:103DC000C8016FE874E00E94633B80913C0261E0AF
:103DD000853009F060E0C8010E94BC278E01085FB1
:103DE0001F4FC8016DE874E00E946E3B8091D302C2
:103DF0008C3020F4C8016AE874E003C0C80167E8A9
:103E000074E00E94633B8E01085F1F4FC80165E8A4
:103E100074E00E94633B80913C0261E0863009F0CF
:103E200078C178C1809139028C3009F0CBC0809183
:103E30003C02E091BD02F0E0EE0FFF1FE351FE4FA8
:103E400090E0880F991F0190F081E02DE80FF91F95
:103E5000259134918E01085F1F4FC801B9010E945E
:103E60006E3BC80160E00E94BA292091BE023091E9
:103E7000BF0221153105D9F0C901F90101900020D7
:103E8000E9F731978E1B9F0B880F991F880F991F99
:103E90008C5A9F4F9695879562E070E00E947B2731
:103EA0008091BE029091BF0260E00E94BC276091A9
:103EB000C5027091C602AA24A3942AE030E005C08E
:103EC000A394CB01B9010E94E93A6A307105C4F7A5
:103ED00082E190E08A19910962E070E00E94E93A7B
:103EE0009B01220F331F220F331F8091BE0290913E
:103EF000BF02009719F064E070E002C063E070E078
:103F0000C9010E947B272091CC023091CD02CE01C5
:103F1000089637FF03C063E874E002C061E874E00C
:103F20000E946E3BE090CC02F090CD02F7FE04C000
:103F3000F094E194F108F3940AE010E048E0C42E14
:103F4000D12CCC0EDD1E13C0E016F1062CF4C601F8
:103F50006FE774E00E94633BC801880F991F23E05C
:103F6000000F111F2A95E1F7080F191FAA94BA2D07
:103F7000B23050F78E01085F1F4FF801019000200A
:103F8000E9F7BF0161507040C7014AE050E00E946C
:103F9000963BC8016DE774E00E94633BC80161E095
:103FA0000E94BC278091D0029091D102DC012C911B
:103FB000222309F49CC261E00E94BC2781EB91E0BE
:103FC00061E034CD809139028D3009F0A5C0809137
:103FD0003C02E091BD02F0E0EE0FFF1FE351FE4F07
:103FE00090E0880F991F0190F081E02DE80FF91FF4
:103FF000259134918E01085F1F4FC801B9010E94BD
:104000006E3BC80160E00E94BA29E091BB02F091CA
:10401000BC0280818823D1F0CF0101900020E9F714
:1040200031978E1B9F0B880F991F880F991F8C5AF1
:104030009F4F9695879562E070E00E947B27809164
:10404000BB029091BC0260E00E94BC278091B90243
:104050009091BA02FC0101900020E9F731978E1B84
:104060009F0B880F991F880F991F4C96E091BB02F8
:10407000F091BC022081222319F064E070E002C0BC
:1040800063E070E00E947B278E01085F1F4FC8012C
:104090006BE774E00E946E3B6091B9027091BA02C6
:1040A000C8010E94843BC80169E774E00E94633B39
:1040B00080913E0261E0811160E0C8010E94BC274E
:1040C000E091BB02F091BC028081882319F064E08A
:1040D00070E002C063E070E08CE290E00E947B2719
:1040E0008E01085F1F4FC80167E774E00E946E3BB6
:1040F0006091CA027091CB02C8010E94843BC80142
:1041000065E774E00E94633B80913E0261E081308C
:1041100009F060E0C8018ACC80913902813009F051
:104120006BC080913B0261E0811160E083EB91E024
:104130000E94BA2980913B02882309F0D6C18E01E2
:10414000085F1F4FC80162E00E941C1580E090E0EC
:1041500061E070E00E947B27C80160E00E94BC27FC
:10416000C80163E00E941C1580E090E062E070E00E
:104170000E947B27C80160E00E94BC278091CE028C
:104180009091CF02BFE78F3F9B0719F180E090E04D
:1041900064E070E00E947B27C80168E674E00E943A
:1041A0006E3B8091CE029091CF02F80101900020E9
:1041B000E9F7BF01615070404AE050E00E94963B31
:1041C000C80163E674E00E94633BC80160E00E949E
:1041D000BC278091CE029091CF02FFE78F3F9F07CF
:1041E00009F485C18E01085F1F4FC80164E00E9479
:1041F0001C1580E090E014CC80913902833009F0E6
:104200008AC080913B0261E0811160E08CEB91E01B
:104210000E94BA2980913B02882309F066C180E0A0
:1042200090E061E070E00E947B278E01085F1F4FE5
:10423000C80161E00E941C15C80160E00E94BC2713
:1042400080E090E062E070E00E947B2788EC91E0E3
:1042500060E00E94BC270E94FA136B017C016F3F53
:104260002FEF72072FEF82072FE7920731F4C80173
:104270006FE574E00E946E3B27C097FD06C0C80141
:104280006DE574E00E946E3B01C0188658E0A52ED3
:10429000B12CAC0EBD1ED5010D900020E9F78D01AB
:1042A000015010400A191B09C701B6010E94563877
:1042B00020E030E040E251E40E94BB370A0D1B1DB4
:1042C00041E021E00E94393BCE01089660E00E9467
:1042D000BC278FEC91E060E00E94BC2780E090E07A
:1042E00063E070E00E947B2700E010E081E060E086
:1042F0000E9465270F5F1F4F04351105B9F780E055
:1043000090E063E070E00E947B278E01085F1F4F02
:10431000C80169E0C5C080913902853009F0C3C089
:1043200080913B0261E0811160E086ED91E00E94A6
:10433000BA2980913B02882309F0D7C080E090E041
:1043400061E070E00E947B278E01085F1F4FC8016B
:1043500065E00E941C15C80160E00E94BC2780E057
:1043600090E062E070E00E947B270E9447146F3F5C
:10437000BFEF7B07BFEF8B07BFE79B0731F4C80197
:1043800068E574E00E946E3B35C029E83BE040E000
:1043900050E00E94AA3A20EA36E841E050E00E944C
:1043A0001E3B59016A0157FD06C0C80166E574E06D
:1043B0000E946E3B01C0188648E0E42EF12CEC0E02
:1043C000FD1EF70101900020E9F78F010150104018
:1043D0000E191F09C601B5010E94563820E030E0D1
:1043E00048EC52E40E94BB370E0D1F1D41E022E055
:1043F0000E94393BCE01089660E00E94BC278FEDF9
:1044000091E060E00E94BC2780E090E063E070E013
:104410000E947B2700E010E081E060E00E946527B9
:104420000F5F1F4F04351105B9F780E090E063E09E
:1044300070E00E947B278E01085F1F4FC8016AE071
:104440000E941C15C80160E00E94BC2780E090E03B
:1044500064E070E00E947B27C80166E00E941C15A2
:10446000C80160E00E94BC2780E090E065E070E059
:104470000E947B2700E010E081E060E00E94652759
:104480000F5F1F4F04351105B9F780E090E065E03C
:1044900070E00E947B278E01085F1F4FC8016BE010
:1044A0000E941C15C1CA80913902893001F58091A2
:1044B0003D02E091BD02F0E0EE0FFF1FE351FE4F21
:1044C00090E0880F991F0190F081E02DE80FF91F0F
:1044D000259134918E01085F1F4FC801B9010E94D8
:1044E0006E3BC80160E00E94BA290E94C70C6D961D
:1044F0000FB6F894DEBF0FBECDBFCF91DF911F91F5
:104500000F91FF90EF90DF90CF90BF90AF90089504
:104510008F929F92AF92BF92CF92DF92EF92FF92D3
:104520000F931F93DF93CF93CDB7DEB765970FB689
:10453000F894DEBF0FBECDBF85B1876085B90E94FC
:1045400091280E94842880E00E94742887E893E1E3
:104550000197F1F700C000000E942C0C80E00E943F
:1045600039310E94BA330E9411320E941D130E94F9
:104570006B09A9EFB0E01197F1F700C000000E94AD
:104580006B097894CC248E010F5F1F4F0E94D505D4
:1045900080913402882309F441C080E090E061E01A
:1045A00070E00E947B27C80166E476E00E946E3BC3
:1045B00080913402F80101900020E9F7BF016150B9
:1045C000704090E04AE050E00E94963BC8010E9493
:1045D000A82780E090E062E070E00E947B27C8019D
:1045E0006FE376E00E946E3BD8010D900020E9F762
:1045F000BD01615070408C2D90E04AE050E00E9477
:10460000963BC8010E94A8278FE79AE1A6E0815057
:104610009040A040E1F700C00000C39480913402B4
:10462000882309F0B3CF8091B60080628093B600F2
:104630008091B6008F7B8093B6001092B00083E02B
:104640008093B1008091B60090E08F7090700097D9
:10465000C9F7A3ECB9E01197F1F700C0000081E0C1
:1046600087BB8093700080916B00876080936B00A4
:1046700080916B00806180936B0080916800816005
:1046800080936800809164008F6A8093640001E7E2
:1046900011E0F80184918093DA023196E491E0937D
:1046A000DB02C80109970E94A4096AE00E94C93A86
:1046B000805D8093DC02905D9093DD020550104098
:1046C000F8010491003221F480E38093DE0202C0FD
:1046D0000093DE02EDE6F1E0E491E093DF0280E09A
:1046E00090E026E0823051F0FC01EC58FE4FE4915E
:1046F000A22FB0E0A652BD4FEC932F5F01968530FC
:10470000910581F7E22FF0E0E652FD4F108281E043
:104710008093EB018824839480913802882359F098
:10472000109238020E9491280E94842880E00E9402
:1047300074288092EC0180913602882369F01092EF
:10474000360280E090E060E070E00E947B270E94EB
:10475000842881E00E9439318091EB01882329F47B
:1047600080913702882309F467C0809164008F77B5
:10477000809364000E943C060E94C2065C010E9475
:104780005D060E941E076B017C01809164008068B9
:10479000809364008091EB01882329F0C501B70163
:1047A000A6010E94C62F80913702882309F440C0D9
:1047B0009FB6F8946091B20270E080E090E02DE046
:1047C00030E040E050E00E94AA3A2091AF02620F30
:1047D000711D811D911DE5E0660F771F881F991FD0
:1047E000EA95D1F72091B002620F711D811D911DD4
:1047F00028E130E040E050E00E94AA3A2091B70260
:10480000620F711D811D911D2CE330E040E050E0EE
:104810000E94AA3A8B019C018091B8029FBE080FAA
:10482000111D211D311DC501B701A6010E94533084
:104830001092EB011092370280913502882321F00B
:10484000109235020E9484288091EC018823A1F007
:104850001092EC010E94261B0FC080914802882311
:1048600059F483B7817F866083BF83B7816083BF3C
:10487000889583B78E7F83BF8091EB01882309F0F1
:104880004BCF8091EC01882309F046CF809137020D
:10489000882319F341CF1F93182F8091400288235A
:1048A000D1F080914102810F8093410280914102B9
:1048B000813F20F0809141028C5A0AC080914102D0
:1048C000843520F080914102845502C080914102DC
:1048D000809341029BC080913902893040F08091E1
:1048E0003902893021F0809139028A3041F4809177
:1048F0003B02813021F4812F0E94D81287C0809121
:104900003902893008F063C080913B02882309F0A6
:104910005EC00E94163480913902843041F080914B
:104920003902863021F0809139028230E1F48091A1
:104930003A02810F80933A0280913A02833031F437
:1049400010923A02809139028F5F0AC080913A0238
:104950008F3F11F582E080933A02809139028150B5
:104960008093390219C080913902810F80933902F6
:104970001F3F81F480913902843041F080913902E7
:10498000863021F080913902823021F482E08093D8
:104990003A0202C010923A0280913902813F20F01F
:1049A00080913902875F0AC080913902893020F0F6
:1049B00080913902895002C0809139028093390276
:1049C00083E58093410281E0809335021FC080918E
:1049D00039028B3021F4812F0E942B0E17C0809159
:1049E00039028C3021F4812F0E9410100FC0809169
:1049F00039028D3021F4812F0E949F1007C08091D1
:104A00003902873019F4812F0E94EC1A1F91089502
:104A10001F9380913902863041F0809139028430B1
:104A200021F0809139028230B1F4809140028823D4
:104A300061F481E00E941634809139028093BD02B6
:104A40008AE08093390281E01FC082E00E94163420
:104A5000109240021FC080913902893018F5809170
:104A60003B028823F9F4E0913902F0E0EE0FFF1FDA
:104A7000E351FE4F80819181009781F081E00E9497
:104A8000163480913B028F5F80933B0210923F026D
:104A900010923C0281E08093350258C083E00E946E
:104AA000163454C080913902893040F08091390227
:104AB000893021F0809139028A3069F510913B02EA
:104AC000113049F580913C028823F9F482E00E947C
:104AD000163480913B02815080933B0280913902D1
:104AE000893051F48091BD028093390280913D025A
:104AF00080933C0210933B02809139028A3051F638
:104B00008091BD0280933902C5CF81E00E941634A6
:104B10000E94A610BFCF809139028B3019F40E94F9
:104B2000FB0D14C0809139028C3019F40E94350FAE
:104B30000DC0809139028D3019F40E94381306C0DF
:104B400080913902873011F40E941D1B1F91089536
:104B50001F920F920FB60F921124EF92FF920F93B4
:104B60001F932F933F934F935F936F937F938F93F5
:104B70009F93AF93BF93EF93FF930E943B0C809161
:104B8000B3029091B402A091B502B091B6028370C5
:104B90009070A070B0700097A105B105E1F480910C
:104BA0004202882359F480913902883039F4809187
:104BB0003B02882319F481E08093EC018091B102DB
:104BC000882349F481E08093EB019091420299237C
:104BD00011F48093EC0180914202882309F070C0A7
:104BE0008091B3029091B402A091B502B091B60247
:104BF000E090B200FF2400E010E0BA2FA92F982F18
:104C00008827E82AF92A0A2B1B2B809144029091CD
:104C10004502A0914602B0914702E81AF90A0A0B30
:104C20001B0B809143028823A9F5189B02C01A9997
:104C300031C081E7E81687E1F80680E0080780E0E8
:104C4000180730F0189902C088E21FC088ED1DC017
:104C500089EBE8168BE0F80680E0080780E018078B
:104C600030F0189902C08CE010C084EF0EC085EFC0
:104C7000E81681E0F80680E0080780E0180750F0A9
:104C8000189902C084E001C08CEF0E944B2481E09F
:104C90008093EC018091C20290E0A0E0B0E02AE0B5
:104CA000880F991FAA1FBB1F2A95D1F78E159F0544
:104CB000A007B10728F481E0809342020E94742883
:104CC0001092B0008091B60081FDFCCFFF91EF9172
:104CD000BF91AF919F918F917F916F915F914F9114
:104CE0003F912F911F910F91FF90EF900F900FBE6A
:104CF0000F901F9018951F920F920FB60F921124CC
:104D0000EF92FF920F931F932F933F934F935F93D5
:104D10006F937F938F939F93AF93BF93EF93FF9383
:104D20001C9903C00E946B33BBC080914202882350
:104D300071F1189B04C01A9B02C0199928C02091D8
:104D4000B3023091B4024091B5025091B602809105
:104D5000B20090E0A0E0B0E0542F432F322F222782
:104D6000822B932BA42BB52B809344029093450266
:104D7000A0934602B09347021092420280E00E9444
:104D8000742881E0809335028093EC011DC0E0908F
:104D9000B302F090B4020091B5021091B602809176
:104DA000B200209144023091450240914602509158
:104DB000470290914302913051F4189971C01A99A9
:104DC0006FC0199B6DC082E08093430269C090E080
:104DD000A0E0B0E0102F0F2DFE2CEE248E299F298D
:104DE000A02BB12B821B930BA40BB50B209143027C
:104DF000223091F4189B54C01A9B52C0199B50C08A
:104E00008B3F9105A105B10508F44AC010924302F9
:104E100081E08093350242C0189908C01A9906C0F3
:104E2000199904C081E0809338023AC0189B02C0EF
:104E30001A990DC08B3F9105A105B10540F0189955
:104E400002C081E001C08FEF0E944B2409C0199974
:104E500027C08B3F9105A105B10510F10E940825DF
:104E60002091B3023091B4024091B5025091B60244
:104E70008091B20090E0A0E0B0E0542F432F322F99
:104E80002227822B932BA42BB52B80934402909343
:104E90004502A0934602B093470281E08093EC0163
:104EA000FF91EF91BF91AF919F918F917F916F9102
:104EB0005F914F913F912F911F910F91FF90EF9034
:104EC0000F900FBE0F901F901895882311F05F9AD6
:104ED00001C05F985C9888E090E02D9867FF02C061
:104EE0002B9A01C02B982D9A019711F0660FF5CFE0
:104EF0005C9A2B9A08951F93162F682F606880E0A4
:104F00000E946527612F606480E00E9465271F91E1
:104F100008950F931F93CF93DF9305E0809F800147
:104F20001124E801CE51D94F0951194FFE01649166
:104F300081E00E9465272196C017D107B9F781E06B
:104F400060E00E946527DF91CF911F910F91089536
:104F5000EF92FF92CF93DF93E82EE7017E01F92EC7
:104F6000E70102C00E94892789918823D9F7DF9140
:104F7000CF91FF90EF900895CF92DF92EF92FF9242
:104F80000F931F93CF93DF93D62E082F192F3FE750
:104F9000C32E4CC08D3649F5DD2011F063E401C00D
:104FA0006CE381E00E946527DD2011F06BE701C012
:104FB00064E081E00E946527DD2011F067E601C012
:104FC00068E181E00E946527DD2011F06BE701C0F8
:104FD00064E081E00E946527DD2011F067E401C0F4
:104FE00068E381E00E94652719C023E0829FC00129
:104FF0001124EC01CD50DA4F26EFE22E25E0F22EFF
:10500000E80EF91EFE016491660FD1106C2581E057
:105010000E9465272196CE15DF05A1F7DD2011F04E
:105020006FE701C060E081E00E946527F80181918F
:105030008F01882309F0AECFDF91CF911F910F919F
:10504000FF90EF90DF90CF900895EF92FF920F9333
:105050001F93CF93DF93082F192F34C08D36A9F4F7
:1050600081E069E70E94652781E069E00E94652789
:1050700081E061E30E94652781E069E00E94652785
:1050800081E061E70E94652719C023E0829FC0018B
:105090001124EC01CD50DA4F46EFE42E45E0F42E1A
:1050A000E80EF91EFE016491660F660F616081E0F3
:1050B0000E9465272196CE15DF05A1F781E061E00A
:1050C0000E946527F80181918F01882339F6DF91CD
:1050D000CF911F910F91FF90EF900895882311F0C9
:1050E0005B9A08955B980895882331F080E064E22C
:1050F0000E94652780E005C080E060E20E9465278D
:1051000081E00E946E280895CF93DF93C8EFD1E02D
:1051100081E060E00E9465272197D1F7DF91CF9170
:10512000089581EB8093F10285E18093E50284E0AC
:105130008093F0028FEF9FE79093F3028093F20247
:105140009093E7028093E6021092F8029093F502A2
:105150008093F4029093E9028093E8021092F9029E
:105160009093F7028093F6029093EB028093EA0209
:105170001092FA02549A559A579A539A239A259A5A
:105180005D985D9A80E061E20E9465276091F1027E
:1051900080E00E9465276091F00280E00E94652710
:1051A0006091E50280E00E94652780E060E20E9455
:1051B000652780E06CE00E94652708952F923F925A
:1051C0004F925F927F928F929F92AF92BF92CF92B7
:1051D000DF92EF92FF920F931F93DF93CF93CDB7A0
:1051E000DEB727970FB6F894DEBF0FBECDBF782E7F
:1051F0002B0149015801D901F80180E01D9211925B
:105200008F5F8431D9F7D6011C928E010F5F1F4F3B
:10521000C801672D0E949D31180143E01FC0849F83
:10522000C0011124FC01ED50FA4F9C012A503A4F65
:105230006491D6015C91C501850F911DDC016C93D1
:10524000852F8F5FD6018C933196E217F30781F794
:10525000F501E80FF11D10828F5F8C93F1018191B0
:105260001F018823E1F6D7011C92CE010196672D1C
:10527000A2010E949D3123E01FC0829FC001112422
:10528000FC01ED50FA4F8A509A4F4491D7013C915E
:10529000D401A30FB11D440F440F440F4C933F5F43
:1052A000D7013C933196E817F90779F7F401E30F3A
:1052B000F11D10823F5F3C93F80181918F0188239B
:1052C000E1F627960FB6F894DEBF0FBECDBFCF91A3
:1052D000DF911F910F91FF90EF90DF90CF90BF90E3
:1052E000AF909F908F907F905F904F903F902F90C6
:1052F0000895CF93DF93EC0180E090E060E070E0F0
:105300000E947B2781E06FE70E946527CE0161E064
:105310000E94BC27DF91CF9108950F931F93182F00
:10532000092FC801E92FF82F20E003C08D3609F4BA
:105330002F5F4E2F411B81918823C1F730E03095BC
:1053400021953F4F220F331F2C5A3F4F50E0440FFF
:10535000551F440F551FC901841B950B60E070E079
:105360000E947B27812F902F61E00E94BC271F9114
:105370000F910895CF92DF92EF92FF920F931F93B8
:10538000DF93CF930F92CDB7DEB77C01162FDC01F0
:105390000D900020E9F71197A81B23E130E02A1BAC
:1053A000310935952795D22E0A2F01950D5E021BE6
:1053B00080E090E060E070E00E947B27112311F014
:1053C0006FE701C060E081E00E946527112319F0BA
:1053D00043E052E002C045E052E0CA01612F0E9462
:1053E000BC27112351F483E090E060E070E00E945C
:1053F0007B2781E060E20E946527CC24C39413C020
:10540000112331F08BE092E061E00E94BC270AC0DA
:1054100090E081E060E299830E94652799819F5F17
:105420009430B9F7C394CD1458F38BE092E0612F18
:105430000E94BC27C701612F0E94BC278BE092E02D
:10544000612F0E94BC27FF24F39411C0112331F077
:105450008BE092E061E00E94BC2708C0E4E0EE2E01
:1054600081E060E20E946527EA94D1F7F394F01698
:1054700068F380E590E060E070E00E947B271123F4
:1054800019F087E092E002C089E092E0612F0E946B
:10549000BC270F90CF91DF911F910F91FF90EF905C
:1054A000DF90CF9008952F923F924F925F926F922C
:1054B0007F928F929F92AF92BF92CF92DF92EF92A4
:1054C000FF920F931F93DF93CF93CDB7DEB7C256F2
:1054D000D0400FB6F894DEBF0FBECDBF65968FAF3C
:1054E0006597762E6C964FAF6C976D962FAF6D9734
:1054F0000E94A72E682E6C963FAD6C97232F30E04C
:1055000069963FAF2EAF6997C901860D911D64E57D
:1055100070E00E94E93A4C0100E010E0CC24CA940B
:10552000DC2CAA24BB24EE24EA94FE2C65968FADD5
:105530006597602F0E94B92EFC0120812223B9F4C7
:1055400081813281932F9770009789F4432F46957C
:10555000469546953381532F5295550F507E852F92
:10556000842B932F969596959695009739F17720F1
:1055700011F430E017C08281472D413021F42181A0
:10558000382F37700FC0982F9695969596958381F2
:10559000482F4295440F407E242F292B382F3695D3
:1055A00036953695A216B30608F459012E153F0517
:1055B00008F479010815190509F469010F5F1F4FF7
:1055C0000435110509F0B2CF772009F04FC0B601BC
:1055D0006451704064967FAF6EAF64978091F20221
:1055E0009091F3027FE78F3F970739F4BCEE8B2E43
:1055F000BFEF9B2E8E0C9F1C06C08090F2029090F5
:10560000F302880C991C8091E6029091E702AFE7C3
:105610008F3F9A0729F4ECEEFFEFAE0EBF1E06C0D7
:10562000A090E602B090E702AA0CBB1C22E030E09A
:10563000C401B9010E94E93A7093ED026093EC0253
:10564000C501B9010E94E93A7093EF026093EE023E
:105650008091F2029091F302FFE78F3F9F0709F0DC
:10566000E1C08091E6029091E702DCC0272D213055
:1056700009F089C0A60140575E4F64965FAF4EAFF8
:1056800064978091F4029091F5025FE78F3F950750
:1056900051F4B70180E090E060577E4F8F4F9F4FED
:1056A0000E94563812C06091F4027091F502660FA4
:1056B000771F882777FD8095982F0E94563820EA1B
:1056C00034E747E052E40E94E2380E9423384B015D
:1056D0008091E8029091E9026FE78F3F960751F4BD
:1056E000B50180E090E060577E4F8F4F9F4F0E9442
:1056F000563812C06091E8027091E902660F771F78
:10570000882777FD8095982F0E94563820EA34E745
:1057100047E052E40E94E2380E9423385B01B40162
:10572000882777FD8095982F0E94563820EA34E725
:1057300047E852E40E94BB370E9423387093ED0281
:105740006093EC02B501882777FD8095982F0E9421
:10575000563820EA34E747E852E40E94BB370E94FB
:1057600023387093EF026093EE028091F4029091DF
:10577000F5027FE78F3F970709F054C08091E80258
:105780009091E9024FC0C601845B924064969FAF3E
:105790008EAF64978091F6029091F702AFE78F3F4A
:1057A0009A0739F44CE4842E4DEF942E8E0C9F1CF6
:1057B00009C08091F6029091F70262E070E00E94C9
:1057C000E93A4B018091EA029091EB02BFE78F3FEB
:1057D0009B0729F4ECE4FDEFAE0EBF1E09C08091DB
:1057E000EA029091EB0262E070E00E94E93A5B010C
:1057F000C401880F991F9093ED028093EC02C501BC
:10580000880F991F9093EF028093EE028091F60229
:105810009091F702FFE78F3F9F0721F48091EA0202
:105820009091EB022FEFC2162FEFD20631F44FEF1B
:105830005FE764965FAF4EAF64975FEFE5165FEF8B
:10584000F506A9F41092EF021092EE028091EE029A
:105850009091EF029093ED028093EC028FEFA82ECF
:105860008FE7B82E0EEF802E0FE7902E20C0A814E1
:10587000B90429F445010894A11CB11C18C0C50144
:10588000881999098431910594F4C501880D991DF1
:1058900062E070E00E94E93A16EF812E1FEF912E30
:1058A000860E971EBAE0AB2EB12CA60EB71E80E076
:1058B00062E20E946527862D8D5A64E50E94C93AEE
:1058C000692EA5E12A2E312C2C0E3D1EF9E24F2E19
:1058D000512C4C0E5D1E872DB401A5019101820152
:1058E0007E010894E11CF11CE2E0CE2ED12CCC0EFE
:1058F000DD1E0E94DE2803E51FEFBE01685F7F4FBB
:10590000A3967FAF6EAFA397C501881999099C0133
:10591000442737FD4095542FA1962CAF3DAF4EAF95
:105920005FAFA1972DE0E22EF12CEC0EFD1E272C8F
:10593000332448EF52E0240E351EC02EDD24C6016C
:1059400061E070E00E947B273A812981BE016D5F92
:105950007F4F67967FAF6EAF6797CE0108966B96C5
:105960009FAF8EAF6B97DC01FB0189E290E08C0F5B
:105970009D1F8C0D9D1D45E150E04C0F5D1FC40E19
:10598000D51E2D016D965FAD6D97552329F06C9650
:105990006FAD6C97061711F040E001C045E54193EB
:1059A000D2014FEF4D932D01031748F4552339F4DD
:1059B0004B81DC016C91462B4B83B0ECB88702170E
:1059C00048F4552339F44F81D6016C91462B4F830F
:1059D000B3E0BC87A3966EAD7FADA397E617F7073C
:1059E000A1F665968FAD6597662D0E94B92EFC01D4
:1059F0006A94762D7F3F11F493E5692E772029F480
:105A0000608170E0645170401BC08281972D91309D
:105A100031F46181782F777060577E4F11C0982FD5
:105A20009695969596958381282F2295220F207E14
:105A3000622F692B782F769576957695645B724008
:105A40001D861E861F86188A198A681579050CF42A
:105A50007DC0A616B7060CF479C080818823C1F4F6
:105A600081812281922F9770009791F4322F369581
:105A7000369536952381422F4295440F407E842FE0
:105A8000832B922F969596959695009709F45EC074
:105A900068197909882777FD8095982F29ED3FEFC0
:105AA0004FEF5FEF0E94AA3AA1962CAD3DAD4EADEF
:105AB0005FADA1970E941E3B295D822F869586953A
:105AC0008695322F377091E002C0990F3150332301
:105AD000E1F7F701E80FF11D90832117D1F11F3F86
