:100000000C9426050C9443050C9443050C94462649
:100010000C9443050C9443050C9443050C94430540
:100020000C9443050C9473250C9443050C943632C0
:100030000C9443050C9443050C9443050C94430520
:100040000C9443050C9443050C9443050C94430510
:100050000C9443050C9443050C9443050C94430500
:100060000C9426330C94430507634236B79BD8A7FC
:100070001A39685618AEBAAB558C1D3CB7CC5763CD
:10008000BD6DEDFD753EF6177231BF000000803F7B
:1000900008000000BE922449123EABAAAA2ABECD97
:1000A000CCCC4C3E00000080BEABAAAAAA3E000009
:1000B0000000BF000000803F000000000008417801
:1000C000D3BB4387D1133D190E3CC3BD4282AD2B38
:1000D0003E68EC8276BED98FE1A93E4C80EFFFBE30
:1000E00001C4FF7F3F00000000004A616E004665CA
:1000F00062004D617200417072004D6179004A7575
:100100006E004A756C0041756700536570004F635F
:1001100074004E6F760044656300EA00EE00F20062
:10012000F600FA00FE00020106010A010E011201AA
:100130001601200064006800346400326400323428
:10014000680032680039306D006D005000410030A9
:10015000003A0030003A0030005000410030003AD0
:1001600000300020002030004A756C2031392032E8
:100170003031310031353A32393A3431004578691D
:1001800074204D656E75004C696E652031204461A8
:100190007461004C696E6520322044617461004CCA
:1001A000696E6520332044617461004C696E65207E
:1001B000342044617461004C696E652035204461CF
:1001C0007461004C696E6520362044617461007D65
:1001D00001870193019F01AB01B701C301000043F7
:1001E000616C696272617465005365742044657363
:1001F00074696E6174696F6E005265736574204432
:10020000657374696E6174696F6E007D01DF01E969
:100210000100004461746520616E642054696D655D
:1002200000536C6565702044656C617900536F758F
:100230006E64004C434420436F6E747261737400AB
:100240004C43442042696173004C43442054656D23
:100250007020436F656600526573746F7265204449
:10026000656661756C747300457261736520416CDD
:100270006C2044617461007D01130221022D023360
:10028000024002490257026802000054656D706521
:1002900072617475726500416C746974756465008F
:1002A00052617465206F6620417363656E740054FB
:1002B000696D6520746F2044657374696E6174693B
:1002C0006F6E0053746174696F6E20507265737342
:1002D00075726500536561204C6576656C205072BF
:1002E0006573737572650054696D65206F6620448F
:1002F0006179004461746520616E642054696D65A4
:100300000054656D70657261747572652054726514
:100310006E64005072657373757265205472656EF9
:1003200064005765617468657220466F7265636129
:10033000737400456D707479007D018B029702A083
:1003400002AF02C302D402E702F302010313032245
:1003500003330300005669657720536E617073683C
:100360006F74204C6F670054616B6520536E617031
:1003700073686F74007D0155036703000045787052
:100380006C6F7265204772617068004472617769B2
:100390006E67205374796C6500437573746F6D20BC
:1003A000592D41786973204D696E00437573746FE0
:1003B0006D20592D41786973204D61780041757425
:1003C0006F20592D41786973204D696E0041757415
:1003D0006F20592D41786973204D6178007D017D32
:1003E000038B039903AB030000536F6172696E675F
:1003F00000526973696E67204661737400526973B5
:10040000696E6700526973696E6720536C6F77007D
:100410005374656164790046616C6C696E67205342
:100420006C6F770046616C6C696E670046616C6C3E
:10043000696E67204661737400506C756D6D6574EC
:10044000696E6700E903F103FD0304041004170457
:1004500024042C0439042B002D2D2D2D002B002DD0
:100460002D2D00206674200044657374696E6174DC
:10047000696F6E2000200020002000200020003046
:100480000020002D002000504D00414D0020002094
:10049000003000200020003000200020003000202C
:1004A0000020002000200030002000200020005309
:1004B0006E617073686F74200020004F6666004F95
:1004C0006E00536F756E642000436F6E74726173BB
:1004D00074200056004261747465727920002050C7
:1004E0004153542000414C54495455444500505206
:1004F0004553535552450054454D5000202020206F
:100500002020746F20756E6C6F636B0020686F6CB9
:1005100064205052455620616E64204E4558540068
:100520004620006674200020002000556E696D7022
:100530006C656D656E746564002000200045727204
:100540002000436C6561722C204472790046616919
:100550007200556E6368616E676564005261696E12
:100560000053746F726D7900566572792053746F01
:10057000726D7900436C656172696E6700476F6FD9
:1005800064205765617468657200417070722E2036
:1005900053746F726D00506F6F722057656174688D
:1005A000657200556E6368616E67656400427269CA
:1005B00065662053686F77657200556E6176616974
:1005C0006C61626C6500466F7265636173742000D4
:1005D0005072657373757265200054656D702000EC
:1005E00030003A0030002D2D2D2D2D0054696D6501
:1005F00020746F204465737420002066742F6D6929
:100600006E002D2D2D0044657363656E64696E6701
:100610002000417363656E64696E67200020696E17
:1006200000536561204C657620507273200020696C
:100630006E0053746174696F6E20507273200052A3
:1006400065747279200053656E736F7220657272E3
:100650003A20000000000017000300031F0A1F0AD1
:100660001F050904120F171C000303000E11110EC1
:1006700000050205040E0410080004040400100024
:100680001804031E110F021F0019151215150A0771
:10069000041F1715091E151D1905031F151F171512
:1006A0000F000A00040C04040E1F0A0A0A1F0E049D
:1006B0000115030E15161E051E1F150A0E11111F1A
:1006C000110E1F15151F05050E151D1F041F111FE7
:1006D0001108100F1F041B1F10101F061F1F0E1FD5
:1006E0000E110E1F05020E191E1F0D1612150901FF
:1006F0001F010F101F0718071F0C1F1B041B031CD3
:10070000031915131F101002040810101F0406040B
:100710001010100003031A161C1F120C0C12120CDE
:10072000121F0C1A16041E050C2A1E1F021C001D87
:100730000010201D1F0C12111F101E0E1E1E021C69
:100740000C120C3E120C0C123E1C0202141E0A0269
:100750001F120E101E0E180E1E1C1E120C12062842
:100760001E1A1F1620504153542000414C54495426
:100770005544450050524553535552450054454D3C
:100780005000000000000000005F000000070007AC
:1007900000147F147F14242A7F2A12231308646212
:1007A00036495522500005030000001C224100007C
:1007B00041221C0014083E081408083E0808005096
:1007C00030000008080808080060600000201008D9
:1007D00004023E5149453E00427F4000426151497A
:1007E000462141454B311814127F102745454539A4
:1007F0003C4A4949300171090503364949493606E1
:100800004949291E003636000000563600000814FB
:10081000224100141414141400412214080201513E
:100820000906324979413E7E1111117E7F494949BD
:10083000363E414141227F4141221C7F4949494185
:100840007F090909013E4149497A7F0808087F006C
:10085000417F41002040413F017F081422417F40F9
:100860004040407F020C027F7F0408107F3E4141E0
:10087000413E7F090909063E4151215E7F09192940
:1008800046464949493101017F01013F4040403F0F
:100890001F2040201F3F4038403F63140814630767
:1008A000087008076151494543007F414100020437
:1008B0000810200041417F00040201020440404032
:1008C0004040000605030020545454787F484444B7
:1008D000383844444420384444487F3854545418E9
:1008E000087E0901020C5252523E7F08040478002F
:1008F000447D40002040443D007F102844000041DA
:100900007F40007C041804787C0804047838444450
:1009100044387C14141408081414187C7C0804044B
:10092000084854545420043F4440203C4040207C1C
:100930001C2040201C3C4030403C44281028440CE3
:100940005050503C4464544C44667400696E002717
:10095000460000407A10F35A00A0724E18090010A9
:10096000A5D4E80000E87648170000E40B54020024
:1009700000CA9A3B000000E1F5050000809698004F
:10098000000040420F000000A08601000000102778
:1009900000000000E8030000000064000000000008
:1009A0000A00000000000100000000002C76D8883A
:1009B000DC674F0823DFC1DFAE59E1B1B796E5E34D
:1009C000E453C63AE651997696E8E6C28426EB8966
:1009D0008C9B62ED407C6FFCEFBC9C9F40F2BAA503
:1009E0006FA5F490055A2AF75C936B6CF9676DC19B
:1009F0001BFCE0E40D47FEF520E6B500D0ED902E9F
:100A00000300943577050080841E080000204E0AFC
:100A1000000000C80C333333330F986E128311413A
:100A2000EF8D2114893BE65516CFFEE6DB18D18405
:100A30004B381BF77C1D901DA4BBE424203284722C
:100A40005E228100C9F124ECA1E53D2711241FBEDF
:100A5000CFEFD8E0DEBFCDBF12E0A0E0B1E0EEE620
:100A6000F9E702C005900D92A233B107D9F715E05E
:100A7000A2E3B2E001C01D92A03AB107E1F70E94E3
:100A8000A5220C94B53C0C9400000F931F93809109
:100A900064008E7F8093640080917A0080688093E8
:100AA0007A008EE480937C0083EF91E00197F1F768
:100AB00000C0000080917A00806480937A00809169
:100AC0007A0086FDFCCF8091780090E0A0E0B0E055
:100AD00040917900342F20E0442737FD4095542F72
:100AE000282B392B4A2B5B2B80917A008F778093B0
:100AF0007A008091640081608093640060E070E31C
:100B000081E190E00E943039B901CA011F910F9133
:100B10000895809164008E7F8093640080917A00B4
:100B2000806880937A0088EC80937C0083EF91E06A
:100B30000197F1F700C0000080917A0080648093F3
:100B40007A0080917A0086FDFCCF2091780030E019
:100B500040E050E080917900782F60E0882777FDB1
:100B60008095982F622B732B842B952B23E334E0F5
:100B700040E050E00E94BC389B01AC0180917A00BB
:100B80008F7780937A008091640081608093640005
:100B9000275E3C4042405040B901CA0108951F936E
:100BA000182F87E70E94D534812F0E94EF340E94CE
:100BB000DF3487E761E00E94C8340E94473588230C
:100BC000E1F30E944D351F9108951F93182F87E779
:100BD0000E94D534812F0E94EF340E94DF3480932D
:100BE0003202809132028823A1F487E762E00E94FA
:100BF000C8340E9447358230E0F30E944D35182FEB
:100C00000E944D35512F40E0282F30E0242B352B0A
:100C100002C020E030E0C9011F91089580E896EEFF
:100C2000A5ECB7E480939D0290939E02A0939F024F
:100C3000B093A0020895109232023B9A439889EF34
:100C400090E00197F1F700C00000439A80E896EE2B
:100C5000A5ECB7E480939D0290939E02A0939F021F
:100C6000B093A0020E94B0348AEA0E94E5059093F6
:100C70008A02809389028CEA0E94E5059093920291
:100C8000809391028EEA0E94E5059093A2028093E0
:100C9000A10280EB0E94E505909396028093950255
:100CA00082EB0E94E5059093900280938F0284EB83
:100CB0000E94E50590938E0280938D0286EB0E9440
:100CC000E50590938C0280938B0288EB0E94E505EA
:100CD00090938602809385028AEB0E94E5059093AB
:100CE0008802809387028CEB0E94E505909398021E
:100CF000809397028EEB0E94E50590939402809377
:100D00009302089587E70E94D53484EF0E94EF3460
:100D10008EE20E94EF340E94DF3480933202809191
:100D20003202882361F481EE94E00197F1F700C06C
:100D3000000086EF0E94E505282F392F02C020E031
:100D400030E0C9010895EF92FF920F931F9387E758
:100D50000E94D53484EF0E94EF3484EF0E94EF3478
:100D60000E94DF348093320280913202882309F09E
:100D700045C083E699E10197F1F700C0000087E7DD
:100D80000E94D53486EF0E94EF340E94DF348093B6
:100D9000320280913202882389F587E763E00E945E
:100DA000C8340E9447358330E0F30E944D35182F38
:100DB0000E944D35E82E0E944D35212F30E040E055
:100DC00050E0A90133272227FF2400E010E0102F74
:100DD0000F2DFE2CEE242E293F29402B512B90E085
:100DE000A0E0B0E0282B392B4A2B5B2B85E05695F1
:100DF0004795379527958A95D1F703C020E030E0D5
:100E0000A901B901CA011F910F91FF90EF900895B8
:100E1000EF92FF920F931F93BC0180E090E020912E
:100E20008D0230918E0240E050E0621B730B840B08
:100E3000950B20918F023091900240E050E00E948B
:100E4000BC387B018C01FFE015950795F794E7947A
:100E5000FA95D1F76091970270919802882777FDF3
:100E60008095982FEBE0660F771F881F991FEA95F2
:100E7000D1F72091930230919402442737FD409599
:100E8000542F2E0D3F1D401F511F0E9430392E0D33
:100E90003F1D401F511F2093990230939A024093A7
:100EA0009B0250939C02285F3F4F4F4F5F4F74E06F
:100EB00055954795379527957A95D1F7C9011F9193
:100EC0000F91FF90EF9008952F923F924F925F9273
:100ED0006F927F928F929F92AF92BF92CF92DF924A
:100EE000EF92FF920F931F93DF93CF9300D000D028
:100EF000CDB7DEB71B012C01A0909902B0909A02E9
:100F0000C0909B02D0909C0280E690EFAFEFBFEFC5
:100F1000A80EB91ECA1EDB1EC601B501A6019501A9
:100F20000E94BC3869837A838B839C836091A10281
:100F30007091A202882777FD8095982F0E94BC3877
:100F40007B018C014DE015950795F794E7944A9540
:100F5000D1F782E090E0A0E0B0E0E80EF91E0A1FB1
:100F60001B1F69817A818B819C813CE095958795D7
:100F7000779567953A95D1F720918B0230918C0245
:100F8000442737FD4095542F0E94BC38BC01992757
:100F900077FD9095892FE60EF71E081F191F82E036
:100FA00015950795F794E7948A95D1F780E090E836
:100FB000A0E0B0E0E80EF91E0A1F1B1F2091950269
:100FC0003091960240E050E0C801B7010E94BC3861
:100FD0003B014C01BFE09694879477946794BA954F
:100FE000D1F76091910270919202882777FD8095E8
:100FF000982FA60195010E94BC387B018C01ABE0C3
:1010000015950795F794E794AA95D1F780918902F1
:1010100090918A02AA2797FDA095BA2FF2E0880F37
:10102000991FAA1FBB1FFA95D1F7E80EF91E0A1FD8
:101030001B1F2091850230918602442737FD409581
:10104000542F69817A818B819C810E94BC38E7E1B1
:101050009595879577956795EA95D1F7E60EF71EF2
:10106000081F191FEE0CFF1C001F111F2E183F0830
:10107000400A510AC201B1012AE638E140E050E0DD
:101080000E94BC3897FD0BC0660F771F881F991F01
:10109000A40193010E940E3979018A010AC0A401BA
:1010A00093010E940E3979018A01EE0CFF1C001F8A
:1010B000111F552717FD5A95412F302F2F2DCA018B
:1010C000B9010E94BC382EED3BE040E050E00E94A8
:1010D000BC385B016C01C801B70123E433EE4FEF6C
:1010E0005FEF0E94BC389C01552737FD5095452F76
:1010F0002153314F4F4F5F4F5601DD24B7FCD09441
:10110000CD2C2A0D3B1D4C1D5D1DA4E0559547952A
:1011100037952795AA95D1F72E0D3F1D401F511FDA
:10112000B901CA010F900F900F900F90CF91DF91EE
:101130001F910F91FF90EF90DF90CF90BF90AF90F5
:101140009F908F907F906F905F904F903F902F90E7
:10115000089520919D0230919E0240919F025091EE
:10116000A0020E94CD3521EB3CED42E45EE30E94FB
:101170005737562F472F382F292F60E070E080E82F
:101180009FE3DA01F9012B2F3A2F4F2F5E2F0E9498
:10119000683520E03AE24DE257E40E94F4360895C3
:1011A000EF92FF920F931F937B018C01CA01B9014B
:1011B00020E03AE24DE257E40E94CD359B01AC01BC
:1011C00060E070E080E89FE30E94683526EF38E237
:1011D00048EA50E40E945737562F472F382F292FBF
:1011E000C801B701DA01F9012B2F3A2F4F2F5E2FDB
:1011F0000E94CD351F910F91FF90EF90089580913F
:101200009D0290919E02A0919F02B091A00208952C
:101210009F92AF92BF92CF92DF92EF92FF920F9385
:101220001F93CF93DF936C01C0E0D0E0FE01EE0F7F
:10123000FF1FE65EFE4FA590B49000E010E0F601BF
:10124000E00FF11F8491F801EA0DFB1D949090E0EE
:101250000E946D397C01892D90E00E946D39E8165D
:10126000F90639F40F5F1F4F0330110541F721963E
:1012700006C02196CC30D105C9F6C0E0D0E0CE0141
:10128000DF91CF911F910F91FF90EF90DF90CF9062
:10129000BF90AF909F900895EF92FF921F93CF93CE
:1012A000DF93EC01162FE42FF0E0EE0FFF1FE85E56
:1012B000FE4F25913491CE01B9010E9480391A3038
:1012C00020F4CE0165E671E003C0CE0163E671E073
:1012D0000E9475397E01AC2FBF2DFD0101900020C9
:1012E000E9F73197EA1BFB0BEC0FFD1F812F90E014
:1012F000BF014AE050E00E94A839CE01DF91CF91B2
:101300001F91FF90EF900895CF92DF92EF92FF929E
:101310000F931F93DF93CF930F92CDB7DEB76C017E
:10132000162F042FFC011082662389F06C3079F0AF
:10133000862F6CE00E94DB38292F9A3048F4C601D2
:1013400061E671E029830E947539298101C02CE092
:10135000F60101900020E9F73197EC19FD09EC0D39
:10136000FD1D822F90E0BF014AE050E00E94A839A5
:10137000C6016FE571E00E9475390A3028F4C60194
:101380006DE571E00E947539F60101900020E9F7E2
:101390003197EC19FD09EC0DFD1D802F90E0BF0188
:1013A0004AE050E00E94A8391C3020F4C6016BE5E9
:1013B00071E003C0C60169E571E00E947539C6019C
:1013C0000F90CF91DF911F910F91FF90EF90DF90E1
:1013D000CF900895AF92BF92CF92DF92EF92FF929B
:1013E0000F931F93DF93CF930F92CDB7DEB75C01BE
:1013F000162F042FF22EDC011C92662389F06C302C
:1014000079F0862F6CE00E94DB38292F9A3048F45F
:10141000C50167E571E029830E947539298101C002
:101420002CE0D5010D900020E9F7BD01615070401E
:101430006A197B096A0D7B1D822F90E04AE050E01B
:101440000E94A839C50165E571E00E9475390A302E
:1014500028F4C50163E571E00E947539D5010D904E
:101460000020E9F7BD01615070406A197B096A0DDF
:101470007B1D802F90E04AE050E00E94A839C50112
:1014800061E571E00E947539BF2DBA3028F4C501BD
:101490006FE471E00E947539F50101900020E9F7D1
:1014A0003197EA19FB09EA0DFB1D8F2D90E0BF0172
:1014B0004AE050E00E94A8391C3020F4C5016DE4D8
:1014C00071E003C0C5016BE471E00E947539C5018C
:1014D0000F90CF91DF911F910F91FF90EF90DF90D0
:1014E000CF90BF90AF9008950F931F938C016C33F2
:1014F000710550F4CB01B8014AE050E00E94A839D0
:10150000C80169E471E047C06435710519F465E408
:1015100071E01DC06038710519F462E471E017C014
:1015200085E0683E780721F4C8016EE371E00FC0E2
:1015300089E0683D780721F4C8016BE371E007C0DA
:1015400083E1603B780731F4C80168E371E00E94F1
:10155000803923C088E06137780778F4CB016CE3E9
:1015600070E00E94E738CB01B8014AE050E00E94E9
:10157000A839C80166E371E00EC0CB0160EA75E0EE
:101580000E94E738CB01B8014AE050E00E94A83938
:10159000C80164E371E00E947539C8011F910F9181
:1015A0000895AF92BF92CF92DF92EF92FF920F9386
:1015B0001F93DF93CF93CDB7DEB760970FB6F89444
:1015C000DEBF0FBECDBFE82ED92E9B018FB7F8949A
:1015D000F090AC02C090AB02E091A4024091A30253
:1015E000F091A6028FBFCB016CE370E00E94E73858
:1015F000F81A8F2D8C3318F0CA948CE3F80EC901B9
:101600006CE370E00E94E7389B01CB0168E170E079
:101610000E94E738C81A8C2D883118F0E15088E113
:10162000C80EF37011F4FDE101C0FCE1EE2319F5E1
:10163000415049F04230D1F04130D1F04330C1F057
:101640004530B1F002C04CE013C0473089F048305B
:1016500079F04A3069F04C3059F0443059F0463056
:1016600049F0493039F04B3031F404C0EF2F03C05A
:10167000EFE101C0EEE1C90168E170E00E94E738E6
:101680009B012AC021503040E1508E2F81508F3174
:1016900018F1415049F04230D1F04130D1F043309F
:1016A000C1F04530B1F002C04CE013C0473089F0C2
:1016B000483079F04A3069F04C3059F0443059F0F4
:1016C000463049F0493039F04B3031F404C0EF2F47
:1016D00003C0EFE101C0EEE12115310599F65E018D
:1016E0000894A11CB11CC5016E2F0E944C098E01EB
:1016F000085F1F4FC8016C2D4F2D0E9484098E2D4D
:101700009D2DB5010E94A1398E2D9D2D62E371E0C2
:101710000E9475398E2D9D2DB8010E9496398E2D0F
:101720009D2D60960FB6F894DEBF0FBECDBFCF9152
:10173000DF911F910F91FF90EF90DF90CF90BF90BE
:10174000AF900895FC019491903211F0905301C034
:1017500090E03196E491E053990F892F880F880F1C
:10176000890F8E0F0895CF93DF93C1E7D1E0CE01AB
:101770000E94A20B8093A602CE0109970E9408093D
:101780008093A302CE0105970E94A20B8093A4022E
:10179000C4E7D1E0CE010E94A20B8093AB02CE0140
:1017A00003960E94A20B8093AC02CE0106960E9483
:1017B000A20B8093A502DF91CF9108958091A7029B
:1017C0009091A802A091A902B091AA020196A11D30
:1017D000B11D8093A7029093A802A093A902B09391
:1017E000AA028091A7029091A802A091A902B091AB
:1017F000AA0283709070A070B0700097A105B10527
:1018000009F083C08091A5028F5F8093A50280912B
:10181000A5028C3309F079C01092A5028091AC0228
:101820008F5F8093AC028091AC028C3309F06DC065
:101830001092AC028091AB028F5F8093AB028091DB
:10184000AB02883109F061C01092AB028091A40212
:101850008F5F8093A4028091A602837011F48DE1C2
:1018600001C08CE19091A302923041F42091A40236
:1018700030E090E0019628173907A1F18091A3028A
:101880008130C1F08091A3028330A1F08091A30246
:10189000853081F08091A302873061F08091A302AE
:1018A000883041F08091A3028A3021F08091A30218
:1018B0008C3021F48091A4028032A1F08091A302A7
:1018C000843061F08091A302863041F08091A302C0
:1018D000893021F08091A3028B30B9F48091A40269
:1018E0008F3199F491E09093A4028091A3028F5FCD
:1018F0008093A3028091A3028D3039F49093A302C8
:101900008091A6028F5F8093A60208952F923F9246
:101910004F925F926F927F928F929F92AF92BF92FF
:10192000CF92DF92EF92FF920F931F93DF93CF93AB
:10193000CDB7DEB766970FB6F894DEBF0FBECDBF4A
:10194000E0913702F0E0EE0FFF1FE251FE4F4080C2
:10195000518020E001C02F5F222E3324F101EE0FD1
:10196000FF1FE40DF51D859194910097A1F700E00C
:1019700010E03E010894611C711CE0C080913D02A2
:10198000F801E80FF11DEE0FFF1FE40DF51D859125
:101990009491E82EF92E809137028130A1F4809144
:1019A0003D029801280F311D2230310561F48091EC
:1019B000C2029091C3023FE78F3F930721F049EFA6
:1019C000E42E41E0F42E809137028A30D1F58091E7
:1019D000B102823029F0E1E0843019F4E0E001C086
:1019E000E2E080913D029801280F311D233031053E
:1019F00089F4AE2FB0E0AA0FBB1FA552BD4F8D9149
:101A00009C9111973FE78F3F930721F02DEBE22E3A
:101A100023E0F22E80913D029801280F311D2430E1
:101A2000310579F4F0E0EE0FFF1FE153FD4F8081A7
:101A300091813FE78F3F930721F08DECE82E83E003
:101A4000F82E58010894A11CB11C9A2C8B2C80E014
:101A500090E0B5010E943A27CC24DD2490913D020C
:101A600080913A029801290F311D90E0281739071B
:101A700011F46FE701C060E081E00E94252708941F
:101A8000C11CD11C84E5C816D10441F784E090E064
:101A9000692D782D0E943A27C301B70145E150E036
:101AA0000E94873990913D0280913A029801290F56
:101AB000311D90E061E02817390709F060E0C301AB
:101AC0000E947B270023A1F480913D02882389F1A5
:101AD00080E590E0692D782D0E943A2790913D0293
:101AE00080913A0261E0981360E080E091E01FC0CD
:101AF0000430F9F480913D0290E00196800F911F2F
:101B000082159305B1F080E590E0692D782D0E9453
:101B10003A2790913D0280913A02090F111D90E001
:101B200061E00817190709F060E082E091E00E9487
:101B30007B2725E0A216B10451F0850180913D027A
:101B40009801280F311D221533050CF417CF669626
:101B50000FB6F894DEBF0FBECDBFCF91DF911F91BE
:101B60000F91FF90EF90DF90CF90BF90AF909F903C
:101B70008F907F906F905F904F903F902F9008953F
:101B800081E00E94283280913A028F5F80933A026E
:101B900080913A02873019F58FB7F8949091B70287
:101BA0009093A5029091BD029093AC029091C702D0
:101BB0009093AB029091C6029093A4029091B502CB
:101BC0009093A3029091B4029093A6028FBF88E0F5
:101BD000809337021092390281E080933302089596
:101BE0009091B402937011F49DE101C09CE12091A9
:101BF000B502213049F12091B502233029F120911D
:101C0000B502253009F12091B5022730E9F0209185
:101C1000B5022830C9F02091B5022A30A9F02091F0
:101C2000B5022C3089F02091B502243079F0209152
:101C3000B502263059F02091B502293039F02091B3
:101C4000B5022B3021F402C09FE101C09EE130912A
:101C5000C70220913A02233009F450C0243030F4F6
:101C6000213051F1223008F043C00AC0253009F478
:101C700084C0253008F467C0263009F0B7C097C08B
:101C80009091B502980F9093B5028091B502815062
:101C9000813F20F08091B502845F0BC08091B50236
:101CA00081508C3020F08091B5028C5002C0809120
:101CB000B5028093B50208952091C602280F2093A3
:101CC000C6028091C6028150813F20F08091C602F9
:101CD000890F0BC08091C6028150891720F0809136
:101CE000C602891B02C08091C6028093C602089575
:101CF0009091B402980F9093B40208959091C70206
:101D0000980F9093C7023C3048F08091C7028C50E6
:101D1000813F40F48091C7028C500AC08091C70275
:101D2000813F20F08091C702845F0AC08091C70282
:101D30008C3020F08091C7028C5002C08091C70285
:101D40008093C70208959091BD02980F9093BD02B1
:101D50008091BD02813F20F08091BD02845C0AC069
:101D60008091BD028C3320F08091BD028C5302C063
:101D70008091BD028093BD0208959091B702980FA3
:101D80009093B7028091B702813F20F08091B70213
:101D9000845C0AC08091B7028C3320F08091B70236
:101DA0008C5302C08091B7028093B70208958130AE
:101DB00021F48091C702845F03C08091C7028C50D8
:101DC0008093C7028091C702813F20F08091C702B3
:101DD000885E0AC08091C702883120F08091C702D6
:101DE000885102C08091C7028093C7020895E09194
:101DF0003702E093B1027093BA026093B9029093F4
:101E0000BC028093BB025093C1024093C002309346
:101E1000C5022093C4021092B3021092B2028CE069
:101E2000809337020895EF92FF920F931F9381E002
:101E30000E9428328091B102883051F480913A0298
:101E4000823009F0BDC08091C0028093B602B8C054
:101E5000813009F05EC080913A02813021F08230F9
:101E600009F0AEC04DC06091E4027091E50280912E
:101E7000E6029091E7020E9468367B018C01609136
:101E8000C0027091C102882777FD8095982F0E942B
:101E900068362FEB3EE04CE95EE30E94F4369B018E
:101EA000AC01C801B7010E94D00860939D027093F5
:101EB0009E0280939F029093A0026091E402709131
:101EC000E5028091E6029091E7020E9468360E9446
:101ED000A90828E439EF41E550E40E94F436609304
:101EE000EA027093EB028093EC029093ED028091F2
:101EF000C0029091C1029093EF028093EE0260C005
:101F00008091C0029091C1029093C3028093C2025B
:101F100057C08091B8028230D1F480913A02833068
:101F200019F0843091F409C08091C0029091C102EF
:101F30009093E0028093DF0208C08091C0029091EC
:101F4000C1029093D4028093D30282E037C08430E0
:101F5000D1F480913A02833019F0843091F409C0B1
:101F60008091C0029091C1029093DC028093DB02C9
:101F700008C08091C0029091C1029093D0028093DA
:101F8000CF0284E01BC08630D9F480913A028330BE
:101F900019F0843091F409C08091C0029091C1027F
:101FA0009093DE028093DD0208C08091C002909180
:101FB000C1029093D2028093D10286E08093B10255
:101FC0008091B102809337021092390281E08093B0
:101FD00033021F910F91FF90EF900895282F30E06A
:101FE0004091C0025091C10287FD07C0240F351FE8
:101FF0003093C1022093C00209C0CA0180509140B1
:10200000820F931F9093C1028093C0028091BB0204
:102010009091BC022091C0023091C102281739076B
:1020200024F49093C1028093C0028091B9029091F0
:10203000BA022091C0023091C1028217930724F4A2
:102040009093C1028093C0028091B1028830F1F573
:1020500080913A02843069F48091C002855E806884
:102060008093DA0280E061E20E9425276091DA0223
:102070000FC080913A02853099F48091C00280614E
:102080008093CE0280E061E20E9425276091CE021B
:1020900080E00E94252780E060E20E9425270895C5
:1020A00080913A02863091F48091C00284608093DE
:1020B000D90280E061E20E9425276091D90280E088
:1020C0000E94252780E060E20E9425270895209144
:1020D00037022093B1029093B0028093AF027093C5
:1020E000AE026093AD025093BF024093BE021092C5
:1020F0003C028DE080933702089590913C0281E08C
:10210000891B80933C02089580913702883009F042
:1021100080C080913A02843009F443C0853048F48D
:102120008230A9F1833008F067C0813009F01DC208
:102130000DC0863009F44BC0863008F43EC08730AD
:1021400009F451C0883009F010C24DC08BE0809373
:10215000370210923A028FB7F8949091A5029093AB
:10216000B7029091AC029093BD029091AB02909314
:10217000C7029091A4029093C6029091A3029093FB
:10218000B5029091A6029093B4028FBF089540913A
:10219000B60280E090E068E770E050E024E031E0D3
:1021A000BDC14091DA0250E04F7750704B51504022
:1021B00080E090E064E670E013C04091CE0250E011
:1021C0004770507080E090E067E070E009C0409197
:1021D000D90250E04370507080E090E063E070E01E
:1021E00026E031E09BC187E091E065E171E048E1E4
:1021F00051E00E946710089586E091E06CE171E083
:102200004FE151E00E9467109091310281E0891BFB
:10221000FDC020913702213009F055C080913A026B
:10222000813021F0823009F0A0C122C06091EA0221
:102230007091EB028091EC029091ED0220E030E091
:1022400040E05FE30E9469350E9435369B01AC0196
:1022500088E19CEF68E97AE3A90123E231E00E947A
:10226000F70E86E291E09093B3028093B202089554
:102270008091C2029091C3023FE78F3F930759F0CC
:102280008FEF9FE79093C3028093C20210923902AE
:102290002093330208956091EA027091EB028091DD
:1022A000EC029091ED0220E030E040E05FE30E941C
:1022B00069350E9435369B01AC0188E19CEF68E9E5
:1022C0007AE3A90129C180913702882349F58091D9
:1022D0003A028150863008F048C181E00E942832DD
:1022E000809137028093B10280913A0280933B0241
:1022F00089E080933702E0913A02F0E0E953FD4F24
:10230000808180933A0280913A02853030F080914A
:102310003A02845080933D0218C110923D0215C1CB
:1023200080913702893001F5E0913B02F0E0809125
:102330003A02E953FD4F80838091B10280933702C6
:1023400080913B0280933A0280913A02853030F0CE
:1023500080913A02845080933D0202C010923D0267
:1023600081E080933902F2C0809137028730A9F46E
:1023700080913A02813039F0823009F0F6C081E074
:102380008093350227C0809139028F5F8093390294
:1023900010923D0210923A020895809137028A30DD
:1023A00009F0E3C02091B1022093B80280913A0273
:1023B000823099F0833020F4813009F0D6C006C015
:1023C000833039F1843009F0D0C071C080933E026F
:1023D0002093370210923902B9C086E091E06CE395
:1023E00071E042E451E00E9467108091B8028430AD
:1023F00019F48091E1020AC0823019F48091E3025D
:1024000005C0863009F0B1C08091E20280933C02A1
:1024100008952430C9F48091DB029091DC022FE70B
:102420008F3F920761F08FEF9FE79093DC028093DC
:10243000DB021092390284E08093370286C040911B
:10244000D5025091D60248C02230A1F48091DF021B
:102450009091E0023FE78F3F930739F08FEF9FE7BE
:102460009093E0028093DF026CC04091D5025091BE
:10247000D6024EC0263009F078C08091DD029091DE
:10248000DE023FE78F3F930739F08FEF9FE790938E
:10249000DE028093DD0255C04091D5025091D602F4
:1024A00085E090E065E270E02CE431E037C0243054
:1024B000D1F48091CF029091D0023FE78F3F9307F4
:1024C00039F08FEF9FE79093D0028093CF0239C00D
:1024D0004091D7025091D80286EF9FEF66E770E0F7
:1024E00029E431E01BC02230E1F48091D3029091C5
:1024F000D4023FE78F3F930739F08FEF9FE7909328
:10250000D4028093D3021DC04091D7025091D802CB
:1025100088E99AEF68E97AE323E231E00E94F70E56
:102520000895263011F58091D1029091D2023FE7B3
:102530008F3F930771F08FEF9FE79093D2028093C4
:10254000D102109239022093370281E08093330246
:1025500008954091D7025091D80285E090E065E25D
:1025600070E02CE431E00E94F70E0895E09137020C
:10257000F0E0EE0FFF1FE251FE4F2081318190E02D
:1025800001C09F5FE92FF0E0EE0FFF1FE20FF31F86
:102590004591549141155105A1F720913A02280F18
:1025A00020933A0280913A02891719F410923A0264
:1025B00007C080913A028F3F19F4915090933A02EC
:1025C00090913A0280913D02981728F480913A0246
:1025D00080933D02089520913A0280913D0230E0BF
:1025E00090E00496821793072CF480913A0284506D
:1025F00080933D02089584E18093B6028FEF9FE7B8
:102600009093C3028093C20282E08093C80281E06B
:102610008093C9028CE08093CA0293E09093CB022E
:102620008093CC0288E08093CD0208951F9381E0CF
:102630000E9428328091B102883041F580913A029F
:10264000873061F0883019F08330C1F518C080916F
:102650003C02813099F58093340230C010913C02E5
:10266000113061F50E9450280E94FB121093310234
:102670000E940E061092EF021092EE021FC090917F
:102680003C0281E0891B8093310218C08091B8021E
:10269000823029F490913C029093E3020DC0843083
:1026A00029F490913C029093E10206C0863031F407
:1026B00090913C029093E2028093B1028091B1022A
:1026C000809337021092390281E0809333021F9188
:1026D0000895EF92FF920F931F93CF93DF9380E0C3
:1026E0000E94662E682F6B50653508F06C5A80E0AA
:1026F0000E94782EFC01828186958695869593812D
:10270000292F2295220F207EE22EE82AE7017E0162
:10271000969596959695F92EE7012097E1F16091AF
:10272000EA027091EB028091EC029091ED0220E0C0
:1027300030E048EC52E40E94F4360E9435367B01CA
:102740008C0180EA9CE1A2E0B0E0E80EF91E0A1FCD
:102750001B1FBE0180E090E028EC30E040E050E03C
:102760000E94BC38E61AF70A080B190BC801B7011A
:102770002AE030E040E050E00E9430392E5C3F4FCC
:102780004F4F5F4FCA01B90124E630E040E050E00E
:102790000E94303904C02FEF3FEF4FEF5FE7B901E0
:1027A000CA01DF91CF911F910F91FF90EF90089593
:1027B0000F931F9380E00E94662E682F6D5365353E
:1027C00008F06C5A80E00E94782EFC0120812223C0
:1027D00099F130E040E050E0DA01C90172E0880F81
:1027E000991FAA1FBB1F7A95D1F7820F931FA41FB1
:1027F000B51F04E610E020E030E0081B190B2A0B9F
:102800003B0B4091E8025091E902CA0163E0880F56
:10281000991F6A95E1F7840F951F65E070E00E94AB
:10282000FB38605C7E4F882777FD8095982F060FD8
:10283000171F281F391F04C00FEF1FEF2FEF3FE7AF
:10284000B801C9011F910F910895EF92FF920F9364
:102850001F9380E00E94662E682F6D53653508F047
:102860006C5A80E00E94782EFC0161818281782F71
:10287000777061157105E9F0E090E402F090E502EF
:102880000091E6021091E70280EE91EBAFEFBFEF0F
:10289000E80EF91E0A1F1B1F80E090E022E330E0E3
:1028A00040E050E00E94BC38E61AF70A080B190B0A
:1028B00008C0EFEFEE2EEFEFFE2EEFEF0E2FEFE75B
:1028C0001E2FB701C8011F910F91FF90EF9008953F
:1028D000EF92FF920F931F9381E00E94662E682F64
:1028E0006C54653508F06C5A81E00E94782EFC012A
:1028F00061818281782F77706115710529F1E090EF
:10290000E402F090E5020091E6021091E70280EE09
:1029100091EBAFEFBFEFE80EF91E0A1F1B1F80E01F
:1029200090E022E330E040E050E00E94BC38E61A3C
:10293000F70A080B190BC801B70125E030E040E0A9
:1029400050E00E94303904C02FEF3FEF4FEF5FE7B8
:10295000B901CA011F910F91FF90EF9008956F3F49
:102960002FEF72072FEF82072FE79207D9F1693C0B
:1029700071058105910574F569377105810591052A
:102980005CF5663371058105910544F51616170649
:10299000180619062CF1611571058105910511F1D3
:1029A0006B3C2FEF72072FEF82072FEF9207E4F4B3
:1029B00068382FEF72072FEF82072FEF9207B4F4DA
:1029C00068332FEF72072FEF82072FEF920784F003
:1029D00087E0089580E0089581E0089582E00895F9
:1029E00083E0089584E0089585E0089586E00895E1
:1029F00088E008956F927F928F929F92AF92BF92DC
:102A0000CF92DF92EF92FF920F931F93DF93CF93BA
:102A1000CDB7DEB728970FB6F894DEBF0FBECDBF97
:102A20007C01663009F4AEC0673090F4633009F47D
:102A300004C1643030F4613019F1623009F016C31A
:102A400046C0643009F437C1653009F00FC360C077
:102A5000693009F4CEC16A3038F4673009F4E5C250
:102A6000683009F003C3EAC26B3009F42BC26B3043
:102A700008F415C26C3009F0F9C2DC011C920AC3DB
:102A80002091E8023091E902C901B3E0880F991F53
:102A9000BA95E1F7820F931F65E070E00E94FB3862
:102AA000605C7E4F882777FD8095982F0E9468365E
:102AB00020E030E040E251E40E94CD3541E021E0E9
:102AC00087010E944B39C7016FE471E0CCC260916D
:102AD000EA027091EB028091EC029091ED0220E00D
:102AE00030E048EC52E40E94F4360E9435360E94F1
:102AF000683620E030E048EC52E40E94CD3541E0F9
:102B000022E087010E944B39C70162E571E0ABC248
:102B10006091E4027091E5028091E6029091E702F3
:102B200029E83BE040E050E00E94BC385B016C01CA
:102B3000C70162E376E00E948039D7010D90002042
:102B4000E9F78D01015010400E191F09C601B501AA
:102B500020EA36E841E050E00E943039CA01B9016C
:102B60000E94683620E030E048EC52E40E94CD3507
:102B70000E0D1F1D41E022E00E944B39C7016EE29D
:102B800076E058C00091EE021091EF026091E402ED
:102B90007091E5028091E6029091E7020E9468360A
:102BA0005B016C01B801882777FD8095982F0E9402
:102BB00068362FEB3EE04CE95EE30E94F4369B0161
:102BC000AC01C601B5010E94D00820E030E948E31D
:102BD00055E40E94F4360E9435366B01682EA92E0A
:102BE000C70161E276E00E948039D7010D90002094
:102BF000E9F78D01015010400E191F09B601862D0D
:102C00009A2D20EA36E841E050E00E943039CA01AE
:102C1000B9010E94683620E030E048EC52E40E949E
:102C2000CD350E0D1F1D41E022E00E944B39C7013A
:102C30006DE176E00E9475392DC20E9469135B0137
:102C40006C0197FD0FC0C70162E176E00E948039F8
:102C5000BFEFAB16BFEFBB06BFEFCB06BFE7DB0690
:102C600031F420C0C70166E076E00E948039D701C8
:102C70000D900020E9F7AD01415050404E195F0919
:102C8000C601B501D7FE07C09095809570956195F6
:102C90007F4F8F4F9F4F4E0D5F1D2AE030E00E9407
:102CA000C93905C0C70162E076E00E947539C701E5
:102CB0006AEF75E0BFCF0E9469133B014C01C70169
:102CC0006CEE75E00E948039A090C202B090C30201
:102CD0006091EA027091EB028091EC029091ED021A
:102CE000BFEF6B16BFEF7B06BFEF8B06BFE79B0600
:102CF00081F12091C2023091C302EFE72F3F3E07DE
:102D000041F1CC24B7FCC094DC2C0E943536A61AC5
:102D1000B70AC80AD90AC401B30122E030E040E092
:102D200050E00E943039A20EB31EC41ED51EC6014B
:102D3000B501A40193010E94303959016A0157FD80
:102D400008C02438F9E03F07F0E04F07F0E05F07E4
:102D500024F0C70166EE75E06DCF28E5A21622E0EB
:102D6000B20620E0C20620E0D2062CF4C70164EED1
:102D700075E00E947539D7010D900020E9F78D01AB
:102D8000015010400E191F09C601B5012CE330E0B7
:102D900040E050E00E9430395B016C010E0D1F1DB8
:102DA000CA01B901A8012AE030E00E94C939C7016F
:102DB00062EE75E00E947539BAE0AB16B104C10449
:102DC000D1042CF4C70160EE75E00E947539D7017B
:102DD0000D900020E9F7AD01415050404E195F09B8
:102DE0004E0D5F1DC601B5012AE030E00E94C939D1
:102DF00051C16AED75E00E9480390E94D813673492
:102E0000710581059105ACF5693271058105910562
:102E10000CF032C16B307105810591050CF02EC1AB
:102E200016161706180619060CF42AC16115710545
:102E30008105910509F426C1663FBFEF7B07BFEF0F
:102E40008B07BFEF9B070CF01FC1683DEFEF7E07BC
:102E5000EFEF8E07EFEF9E070CF018C16A3BFFEF14
:102E60007F07FFEF8F07FFEF9F070CF011C1E8E02E
:102E700009C06F3F2FEF72072FEF82072FE79207EE
:102E800049F0E0E0F0E0EE0FFF1FEC5BFB4F259117
:102E9000349115C0ECE4F4E02591349110C060ED5C
:102EA00075E00E9480390E9425140E94AF1490E0C2
:102EB000880F991F8C5B9B4FFC0125913491C701B2
:102EC000B901B8CE66EC75E00E9480390E942514E5
:102ED0005B016C010E94AF14182F0E9468143B0123
:102EE0004C010E94AF14082F4FEFA4164FEFB40609
:102EF0004FEFC4064FE7D40649F08FEF68168FEF07
:102F000078068FEF88068FE7980621F4C7016AEBF1
:102F100075E090CE812F8750823030F4063060F417
:102F2000C7016DEA75E086CE153031F4053021F425
:102F3000C70163EA75E07ECE912F9550923040F440
:102F4000802F8550823060F4C70166E975E072CE4B
:102F5000173030F0063020F0C7016AE875E06ACE1D
:102F6000812F8250823040F4202F2250223090F462
:102F7000C7016DE775E05ECE123030F4023050F0DC
:102F8000C70164E775E056CE183021F4C70168E642
:102F900075E050CE173021F4C70161E675E04ACEE6
:102FA000923020F4C7016CE575E044CE143021F472
:102FB000C70162E575E03ECE823020F4C7016DE4C2
:102FC00075E038CE123020F4C70162E475E032CEED
:102FD000C7016DE375E00E947539D7010D9000209F
:102FE000E9F7BD01615070406E197F096E0D7F1DBC
:102FF000812F90E04AE050E00E94A839C7016BE3BE
:1030000075E00E947539D7010D900020E9F7BD01E8
:10301000615070406E197F096E0D7F1D802F90E00A
:103020004AE050E00E94A83935C06091AB0240915F
:10303000AC022091A5020E94EA092CC06091A40272
:103040004091A3020E944C09C70169E375E00E9408
:1030500075396091AB024091AC02CE0101960E949D
:103060008409BC01C7010E94963914C0C7016BE2F4
:1030700075E00E9480390EC0E1E004CFE2E002CFAB
:10308000E3E000CFE4E0FECEE5E0FCCEE6E0FACE01
:10309000E7E0F8CE28960FB6F894DEBF0FBECDBF9E
:1030A000CF91DF911F910F91FF90EF90DF90CF9024
:1030B000BF90AF909F908F907F906F900895AF9248
:1030C000BF92CF92DF92FF920F931F93DF93CF9324
:1030D0000F92CDB7DEB75C01CB01BA012CE330E033
:1030E00040E050E00E940E39F62ECA01B90128E1F5
:1030F00030E040E050E00E940E39162FCA01B901BD
:1031000005E096958795779567950A95D1F7022FF3
:103110000F712DE030E040E050E00E940E39462F64
:10312000C501602F29830E944C09C50169E275E041
:103130000E947539D5010D900020E9F7BD0161505D
:1031400070406A197B092981822F90E06A0D7B1DEE
:103150008053984F4AE050E00E94A839C50167E2C9
:1031600075E00E947539D5010D900020E9F7CD0179
:1031700001978A199B098A0D9B1D612F4F2D0E9473
:1031800084090F90CF91DF911F910F91FF90DF90F5
:10319000CF90BF90AF900895EF92FF920F931F933F
:1031A000CF93DF93EC018B01DB0112968C91129788
:1031B00086958695869513969C91292F2295220FA8
:1031C000207E422F482B592F569556955695445B95
:1031D0005240CE0162E00E945C31CE0163E275E0B4
:1031E0000E9475397E01EC2FFF2DDF010D9000202C
:1031F000E9F7CD0101978E1B9F0BF801408150E04C
:10320000445150408C0F9D1F60E00E945C31CE0104
:1032100060E275E00E947539EC2FFF2DDF010D9003
:103220000020E9F7CD0101978E1B9F0BF80141812A
:103230002281522F577040575E4F8C0F9D1F61E0C7
:103240000E945C31DF91CF911F910F91FF90EF9021
:1032500008952F923F924F925F926F927F928F923A
:103260009F92AF92BF92CF92DF92EF92FF920F9315
:103270001F93DF93CF93CDB7DEB768970FB6F8945F
:10328000DEBF0FBECDBF0E947C30482E55240E9469
:10329000AC30FC0180819181A281B3810097A105AE
:1032A000B10561F480E090E062E070E00E943A27AE
:1032B00086E591E060E00E947B2753C10E94E130E7
:1032C000AA24BB246E010894C11CD11C282F30E015
:1032D000388F2F8B85010894A11CB11C3A2C2B2C04
:1032E00080E090E0B5010E943A2780913D02720192
:1032F000E81AF108E01AF10AF7FE04C00E94DF3074
:10330000E80EF11C8E2D0E94AC30FC0160807180B3
:1033100082809380611471048104910409F4E3C0F4
:1033200090913D0280913A029801290F311D90E061
:103330002817390711F46FE701C060E081E00E94AF
:103340002527C7010196B6014AE050E00E94A8393E
:1033500090913D0280913A029801290F311D90E031
:1033600061E02817390709F060E0C6010E947B2759
:10337000F60101900020E9F73197EE2EEC189091BC
:103380003D0280913A029801290F311D90E02817E3
:10339000390711F46FE501C060E281E00E94252742
:1033A00090913D0280913A029801290F311D90E0E1
:1033B0002817390711F46FE701C060E081E00E942F
:1033C000252790913D0280913A029801290F311DE5
:1033D00090E02817390711F46FE701C060E081E041
:1033E0000E942527C601B401A3010E945F18909195
:1033F0003D0280913A029801290F311D90E061E071
:103400002817390709F060E0C6010E947B27F60102
:1034100001900020E9F73197EC19FD09FF24089489
:10342000E11CF11CEE0EFF1EEE0CFF1CEE0CFF1C4F
:1034300014C090913D0280913A029801290F311DEC
:1034400090E02817390711F46FE701C060E081E0D0
:103450000E9425270894E11CF11CF4E5EF16F10405
:1034600044F301151105A1F480913D028823B1F1C7
:1034700080E590E0632D722D0E943A2790913D02E5
:1034800080913A0261E0981360E080E091E024C00E
:103490000330110519F580913D0290E004962F89C3
:1034A000388D82179307D1F080913A028F3FB1F0A7
:1034B00080E590E0632D722D0E943A2780913D02B5
:1034C00020913A0290E0039630E061E08217930782
:1034D00009F060E082E091E00E947B2734E0A316CF
:1034E000B10409F0F7CE80913A02481A510857FE0C
:1034F00004C00E94DF30480E511C842D0E94AC3065
:103500008C0180E090E065E070E00E943A2781E065
:1035100061E00E942527B8016C5F7F4F8E010F5F2D
:103520001F4FC8010E94CC18C8010E94E427F8016F
:1035300001900020E9F77F010894E108F108E01A02
:10354000F10AEE0CFF1CEE0CFF1C04C081E061E0F0
:103550000E9425270894E11CF11CF4E5EF16F10404
:10356000ACF368960FB6F894DEBF0FBECDBFCF9117
:10357000DF911F910F91FF90EF90DF90CF90BF9060
:10358000AF909F908F907F906F905F904F903F9003
:103590002F9008951F93182F0E94E13090913A02C6
:1035A000910F90933A0290913A02981719F4109261
:1035B0003A0207C090913A029F3F19F481508093DC
:1035C0003A0290913A0280913D02981718F4809146
:1035D0003A020DC020913A0280913D0230E090E025
:1035E0000396821793072CF480913A0283508093BC
:1035F0003D021F91089581E00E9428321092390205
:1036000081E0809333020895AF92BF92CF92DF9210
:10361000EF92FF920F931F93DF93CF93CDB7DEB757
:103620006D970FB6F894DEBF0FBECDBF80914102FB
:103630008823F1F080E090E061E070E00E943A279A
:103640008E01085F1F4FC8016CE075E00E94803951
:10365000C80160E00E947B2780E090E062E070E0BB
:103660000E943A27C8016CEF74E00E948039F9C1CA
:1036700080913702882309F07DC080913902882328
:1036800009F075C000E010E068E0E62EF12CEC0EC9
:10369000FD1EF801E853FD4F6081C7010E94FA1436
:1036A0001E8A80E090E0B8010E943A27CC24DD24F5
:1036B00081E060E00E9425270894C11CD11C24E50C
:1036C000C216D104A9F7F70101900020E9F731975C
:1036D000EE19FF09CF01880F991F8E0F9F1F90953C
:1036E00081959F4F8A96B8010E943A27C7010E9490
:1036F00067270F5F1F4F0230110559F602E010E0F7
:1037000048E0E42EF12CEC0EFD1EF801E853FD4FCD
:103710006081C7010E94FA141D8E80E090E0B8011C
:103720000E943A27CC24DD2481E060E00E94252716
:103730000894C11CD11C84E5C816D104A9F7F7016F
:1037400001900020E9F73197C7018E1B9F0B880F6E
:10375000991F8A96B8010E943A27C70160E00E942B
:103760007B270F5F1F4F0630110579F6DDC684E613
:1037700091E0D5C6809137028A3009F044C020918B
:10378000B102243029F4CE01089667EF74E009C035
:10379000CE010896263019F46EEE74E002C065EE94
:1037A00074E00E9480398E01085F1F4FC8016EEDE2
:1037B00074E00E947539D8010D900020E9F7CD0121
:1037C000E0913802F0E0EE0FFF1FE55DFD4F408114
:1037D000518124E530E0429FB001439F700D529F1C
:1037E000700D112401970E94740A8091390261E0E2
:1037F000811160E0C8010E947929809139028130ED
:1038000009F092C68FC680913702883009F02EC128
:103810008091390261E0811160E086E791E00E94C9
:10382000792980913902882309F07CC680E090E0F4
:1038300061E070E00E943A278DE791E060E00E942D
:103840007B278E01085F1F4FC80161E771E00E946E
:103850008039C80160E00E947B2788E691E00E94E1
:103860000809082F8A3028F486E891E060E00E9479
:103870007B2798E0E92EF12CEC0EFD1E802F90E0C6
:10388000B7014AE050E00E94A839C70160E00E94F9
:103890007B27C7016CE671E042E050E00E94873967
:1038A000C70160E00E947B27C70164E771E042E046
:1038B00050E00E948739C70160E00E947B27C70162
:1038C00067E771E042E050E00E948739C70160E09D
:1038D0000E947B270E9445055B016C0185E090E01A
:1038E000A0E0B0E0A80EB91ECA1EDB1EC70165ED40
:1038F00074E00E948039D7010D900020E9F78D0116
:10390000015010400E191F09C601B5012AE030E030
:1039100040E050E00E943039CA01B9010E94683687
:1039200020E030E048EC52E40E94CD350E0D1F1D22
:1039300041E022E00E944B39C70163ED74E00E9430
:10394000753980E090E062E070E00E943A27C7019C
:1039500060E00E947B2780E090E063E070E00E94DE
:103960003A27C70169EC74E00E9480398091DA023D
:10397000F70101900020E9F7BF0190E08F77907088
:10398000615070404B974AE050E00E94A839C7014F
:1039900060E00E947B2780E090E064E070E00E949D
:1039A0003A27C70162EC74E00E94803980913102AD
:1039B000882321F0C7016FEB74E003C0C7016BEBF4
:1039C00074E00E9475398E01085F1F4FC80160E0E6
:1039D0000E947B276091A4024091A302C8010E942B
:1039E0004C0980E090E065E070E00E943A27C80151
:1039F00060E00E947B27C80169EB74E00E94803977
:103A00008091A602D8010D900020E9F7BD0190E059
:103A1000615070408053984F4AE050E00E94A839AE
:103A2000C80160E00E947B276091AB024091AC022C
:103A30002091A502C8010E94EA09F8010190002026
:103A4000E9F73197E01B2E2F30E0220F331F220FB2
:103A5000331F84E590E0821B930B65E070E00E94C9
:103A60003A27C80160E00E947B275EC5809137023B
:103A7000873009F070C08091390261E0811160E007
:103A800088E891E00E94792980913902882309F021
:103A900055C00E947C30C82E0E94AC307C01FC01D5
:103AA0002081318142815381211531054105510524
:103AB00049F480E090E062E070E00E943A2782E9F9
:103AC00091E0D0CF8E01085F1F4FC8016FEA74E00C
:103AD0000E948039D8010D900020E9F7BD018C2D9E
:103AE00090E06150704001964AE050E00E94A83991
:103AF00080E090E062E070E00E943A27C80160E058
:103B00000E947B27F70141915191619171917F0151
:103B1000C8010E945F1880E090E063E070E00E94BE
:103B20003A27C80160E00E947B27C801B7010E94C4
:103B3000CC1880E090E064E070E091CF8091390291
:103B4000813009F4EFC480913902823009F0ECC46D
:103B50000E942919E9C480913702843041F4809190
:103B6000380240913F0220913E0260E017C08091F0
:103B70003702863041F48091380240913F02209113
:103B80003E0261E00BC080913702823051F4809197
:103B9000380240913F0220913E0262E00E94122AC8
:103BA000C3C4809137028B3009F059C182EA91E099
:103BB00060E00E94792980E190E062E070E00E947C
:103BC0003A2708E0E02EF12CEC0EFD1EC7016DEA4D
:103BD00074E00E9480394091B5028E010F5F1F4F43
:103BE000C80161E00E944C091C82C701B8010E9413
:103BF0009639C7016BEA74E00E94753980913A02E8
:103C000061E0811160E0C7010E947B278E01085F9F
:103C10001F4FC80169EA74E00E9480398091C60292
:103C20008A3028F4C80167EA74E00E9475398091EF
:103C3000C6028E01085F1F4FD8010D900020E9F7E2
:103C4000BD016150704090E04AE050E00E94A83908
:103C5000C80165EA74E00E94753980913A0261E01A
:103C6000813009F060E0C8010E947B278E01085F67
:103C70001F4FC80163EA74E00E9480398091B4024A
:103C8000F80101900020E9F7BF0190E06150704019
:103C90008053984F4AE050E00E94A839C80161EA79
:103CA00074E00E94753980913A0261E0823009F037
:103CB00060E0C8010E947B2788E090E064E070E04B
:103CC0000E943A278091C702882359F08091C70249
:103CD0008C3039F08091C7026CE00E94DB38E92E0D
:103CE00002C01CE0E12E8E01085F1F4FC8016FE982
:103CF00074E00E948039FE2DFA3028F4C8016DE985
:103D000074E00E9475398E01085F1F4FD8010D9035
:103D10000020E9F7BD01615070408E2D90E04AE02F
:103D200050E00E94A839C8016BE974E00E9475391F
:103D300080913A0261E0833009F060E0C8010E949E
:103D40007B2780EB91E060E00E947B278E01085F7B
:103D50001F4FC80169E974E00E9480398091BD025B
:103D60008A3028F4C80167E974E00E9475398091AF
:103D7000BD028E01085F1F4FF80101900020E9F796
:103D8000BF016150704090E04AE050E00E94A839C5
:103D9000C80165E974E00E94753980913A0261E0DA
:103DA000843009F060E0C8010E947B2780EB91E03D
:103DB00060E00E947B278E01085F1F4FC80163E906
:103DC00074E00E9480398091B7028A3028F4C801DB
:103DD00061E974E00E9475398091B7028E01085F35
:103DE0001F4FD8010D900020E9F7BD0161507040D0
:103DF00090E04AE050E00E94A839C8016FE874E002
:103E00000E94753980913A0261E0853009F060E0E6
:103E1000C8010E947B278E01085F1F4FC8016DE813
:103E200074E00E9480398091C7028C3020F4C80170
:103E30006AE874E003C0C80167E874E00E9475395D
:103E40008E01085F1F4FC80165E874E00E94753954
:103E500080913A0261E0863009F078C178C18091A2
:103E600037028C3009F0CBC080913A02E091B10268
:103E7000F0E0EE0FFF1FE251FE4F90E0880F991F18
:103E80000190F081E02DE80FF91F259134918E010A
:103E9000085F1F4FC801B9010E948039C80160E066
:103EA0000E9479292091B2023091B3022115310587
:103EB000D9F0C901F90101900020E9F731978E1B73
:103EC0009F0B880F991F880F991F8C5A9F4F9695AB
:103ED000879562E070E00E943A278091B20290914B
:103EE000B30260E00E947B276091B9027091BA0230
:103EF000AA24A3942AE030E005C0A394CB01B90121
:103F00000E94FB386A307105C4F782E190E08A199B
:103F1000910962E070E00E94FB389B01220F331F81
:103F2000220F331F8091B2029091B302009719F0D3
:103F300064E070E002C063E070E0C9010E943A27CB
:103F40002091C0023091C102CE01089637FF03C014
:103F500063E874E002C061E874E00E948039E09098
:103F6000C002F090C102F7FE04C0F094E194F108A1
:103F7000F3940AE010E048E0C42ED12CCC0EDD1EF4
:103F800013C0E016F1062CF4C6016FE774E00E943E
:103F90007539C801880F991F23E0000F111F2A955A
:103FA000E1F7080F191FAA94BA2DB23050F78E010D
:103FB000085F1F4FF80101900020E9F7BF01615031
:103FC0007040C7014AE050E00E94A839C8016DE77F
:103FD00074E00E947539C80161E00E947B278091DE
:103FE000C4029091C502DC012C91222309F49CC2E9
:103FF00061E00E947B2782EB91E061E034CD80910B
:1040000037028D3009F0A5C080913A02E091B102EB
:10401000F0E0EE0FFF1FE251FE4F90E0880F991F76
:104020000190F081E02DE80FF91F259134918E0168
:10403000085F1F4FC801B9010E948039C80160E0C4
:104040000E947929E091AF02F091B002808188232B
:10405000D1F0CF0101900020E9F731978E1B9F0B23
:10406000880F991F880F991F8C5A9F4F9695879597
:1040700062E070E00E943A278091AF029091B00216
:1040800060E00E947B278091AD029091AE02FC011E
:1040900001900020E9F731978E1B9F0B880F991F25
:1040A000880F991F4C96E091AF02F091B0022081E9
:1040B000222319F064E070E002C063E070E00E9427
:1040C0003A278E01085F1F4FC8016BE774E00E941A
:1040D00080396091AD027091AE02C8010E9496399C
:1040E000C80169E774E00E94753980913C0261E083
:1040F000811160E0C8010E947B27E091AF02F0913E
:10410000B0028081882319F064E070E002C063E0AF
:1041100070E08CE290E00E943A278E01085F1F4F0A
:10412000C80167E774E00E9480396091BE02709117
:10413000BF02C8010E949639C80165E774E00E9479
:10414000753980913C0261E0813009F060E0C8017E
:104150008ACC80913702813009F06BC0809139029E
:1041600061E0811160E084EB91E00E947929809107
:104170003902882309F0D6C18E01085F1F4FC8019C
:1041800062E00E94FA1480E090E061E070E00E943A
:104190003A27C80160E00E947B27C80163E00E94C3
:1041A000FA1480E090E062E070E00E943A27C801D3
:1041B00060E00E947B278091C2029091C302BFE71A
:1041C0008F3F9B0719F180E090E064E070E00E946F
:1041D0003A27C80168E674E00E9480398091C202E3
:1041E0009091C302F80101900020E9F7BF016150EE
:1041F00070404AE050E00E94A839C80163E674E0CC
:104200000E947539C80160E00E947B278091C2023C
:104210009091C302FFE78F3F9F0709F485C18E018C
:10422000085F1F4FC80164E00E94FA1480E090E02C
:1042300014CC80913702833009F08AC08091390212
:1042400061E0811160E08DEB91E00E94792980911D
:104250003902882309F066C180E090E061E070E0F7
:104260000E943A278E01085F1F4FC80161E00E943B
:10427000FA14C80160E00E947B2780E090E062E0D1
:1042800070E00E943A2789EC91E060E00E947B2771
:104290000E94D8136B017C016F3F2FEF72072FEF45
:1042A00082072FE7920731F4C8016FE574E00E949E
:1042B000803927C097FD06C0C8016DE574E00E94F3
:1042C000803901C0188658E0A52EB12CAC0EBD1E59
:1042D000D5010D900020E9F78D01015010400A1919
:1042E0001B09C701B6010E94683620E030E040E2B9
:1042F00051E40E94CD350A0D1B1D41E021E00E94D2
:104300004B39CE01089660E00E947B2780ED91E05A
:1043100060E00E947B2780E090E063E070E00E9414
:104320003A2700E010E081E060E00E9425270F5F5F
:104330001F4F04351105B9F780E090E063E070E0AD
:104340000E943A278E01085F1F4FC80169E0C5C06F
:1043500080913702853009F0C3C08091390261E055
:10436000811160E087ED91E00E9479298091390206
:10437000882309F0D7C080E090E061E070E00E94FF
:104380003A278E01085F1F4FC80165E00E94FA14AA
:10439000C80160E00E947B2780E090E062E070E06E
:1043A0000E943A270E9425146F3FBFEF7B07BFEFA3
:1043B0008B07BFE79B0731F4C80168E574E00E94F2
:1043C000803935C029E83BE040E050E00E94BC382D
:1043D00020EA36E841E050E00E94303959016A0194
:1043E00057FD06C0C80166E574E00E94803901C02F
:1043F000188648E0E42EF12CEC0EFD1EF70101902A
:104400000020E9F78F01015010400E191F09C60165
:10441000B5010E94683620E030E048EC52E40E948A
:10442000CD350E0D1F1D41E022E00E944B39CE011B
:10443000089660E00E947B2780EE91E060E00E9499
:104440007B2780E090E063E070E00E943A2700E084
:1044500010E081E060E00E9425270F5F1F4F0435C8
:104460001105B9F780E090E063E070E00E943A2720
:104470008E01085F1F4FC8016AE00E94FA14C8014C
:1044800060E00E947B2780E090E064E070E00E94A2
:104490003A27C80166E00E94FA14C80160E00E9451
:1044A0007B2780E090E065E070E00E943A2700E022
:1044B00010E081E060E00E9425270F5F1F4F043568
:1044C0001105B9F780E090E065E070E00E943A27BE
:1044D0008E01085F1F4FC8016BE00E94FA14C1CA29
:1044E00080913702893001F580913B02E091B10261
:1044F000F0E0EE0FFF1FE251FE4F90E0880F991F92
:104500000190F081E02DE80FF91F259134918E0183
:10451000085F1F4FC801B9010E948039C80160E0DF
:104520000E9479290E94860C6D960FB6F894DEBF22
:104530000FBECDBFCF91DF911F910F91FF90EF90F4
:10454000DF90CF90BF90AF9008958F929F92AF92DF
:10455000BF92CF92DF92EF92FF920F931F93DF9360
:10456000CF93CDB7DEB765970FB6F894DEBF0FBE19
:10457000CDBF0E9450280E94432880E00E9433282B
:1045800087E893E10197F1F700C000000E94B30BA8
:1045900080E00E94F8300E94DF310E94FB1285B15A
:1045A000876085B97894CC248E010F5F1F4F0E94DD
:1045B0001B0680913202882309F441C080E090E01C
:1045C00061E070E00E943A27C80166E476E00E944C
:1045D000803980913202D8010D900020E9F7BD01A9
:1045E0006150704090E04AE050E00E94A839C80154
:1045F0000E94672780E090E062E070E00E943A2726
:10460000C8016FE376E00E948039F8010190002034
:10461000E9F7BF01615070408C2D90E04AE050E016
:104620000E94A839C8010E9467278FE79AE1A6E097
:1046300081509040A040E1F700C00000C3948091F9
:104640003202882309F0B3CF8091B6008062809354
:10465000B6008091B6008F7B8093B6001092B000B8
:1046600083E08093B1008091B60090E08F709070ED
:104670000097C9F7A3ECB9E01197F1F700C000006B
:1046800081E087BB8093700090916B00976090935E
:104690006B00909168009160909368009091640025
:1046A0009F6A909364008093EC01882483948091A6
:1046B0003602882359F0109236020E9450280E9438
:1046C000432880E00E9433288092ED0180913402DB
:1046D000882369F01092340280E090E060E070E09E
:1046E0000E943A270E94432881E00E94F83080917E
:1046F000EC01882329F480913502882309F467C0EE
:10470000809164008F77809364000E9482060E94EB
:1047100008075C010E94A3060E9464076B017C01EC
:10472000809164008068809364008091EC0188230C
:1047300029F0C501B701A6010E94852F809135029D
:10474000882309F440C09FB6F8946091A60270E0F7
:1047500080E090E02DE030E040E050E00E94BC3886
:104760002091A302620F711D811D911DE5E0660F6E
:10477000771F881F991FEA95D1F72091A402620F35
:10478000711D811D911D28E130E040E050E00E9444
:10479000BC382091AB02620F711D811D911D2CE36D
:1047A00030E040E050E00E94BC388B019C018091D9
:1047B000AC029FBE080F111D211D311DC501B7019F
:1047C000A6010E9412301092EC01109235028091E5
:1047D0003302882321F0109233020E9443288091F3
:1047E000ED018823A1F01092ED010E94041B0FC07F
:1047F00080914602882359F483B7817F866083BF06
:1048000083B7816083BF889583B78E7F83BF809194
:10481000EC01882309F04BCF8091ED01882309F04A
:1048200046CF80913502882319F341CF1F93182F6B
:1048300080913E028823D1F080913F02810F8093C6
:104840003F0280913F02813F20F080913F028C5ACD
:104850000AC080913F02843520F080913F02845548
:1048600002C080913F0280933F029BC0809137023B
:10487000893040F080913702893021F080913702F1
:104880008A3041F480913902813021F4812F0E94D5
:10489000B61287C080913702893008F063C08091DA
:1048A0003902882309F05EC00E94283280913702C5
:1048B000843041F080913702863021F080913702B8
:1048C0008230E1F480913802810F80933802809128
:1048D0003802833031F410923802809137028F5FB2
:1048E0000AC0809138028F3F11F582E08093380230
:1048F0008091370281508093370219C0809137022E
:10490000810F809337021F3F81F4809137028430FA
:1049100041F080913702863021F080913702823059
:1049200021F482E08093380202C010923802809114
:104930003702813F20F080913702875F0AC0809163
:104940003702893020F080913702895002C080916F
:1049500037028093370283E580933F0281E08093A2
:1049600033021FC0809137028B3021F4812F0E94C7
:10497000F00D17C0809137028C3021F4812F0E94F6
:10498000EE0F0FC0809137028D3021F4812F0E94ED
:104990007D1007C080913702873019F4812F0E9463
:1049A000CA1A1F9108951F9380913702863041F0F3
:1049B00080913702843021F0809137028230B1F447
:1049C00080913E02882361F481E00E942832809128
:1049D00037028093B1028AE08093370281E01FC0E2
:1049E00082E00E94283210923E021FC0809137025E
:1049F000893018F5809139028823F9F4E091370263
:104A0000F0E0EE0FFF1FE251FE4F80819181009791
:104A100081F081E00E942832809139028F5F80937B
:104A2000390210923D0210923A0281E080933302E3
:104A300058C083E00E94283254C0809137028930E8
:104A400040F080913702893021F0809137028A301E
:104A500069F510913902113049F580913A028823A5
:104A6000F9F482E00E9428328091390281508093CB
:104A7000390280913702893051F48091B1028093DC
:104A8000370280913B0280933A0210933902809161
:104A900037028A3051F68091B10280933702C5CF38
:104AA00081E00E9428320E948410BFCF809137029B
:104AB0008B3019F40E94C00D14C0809137028C30E5
:104AC00019F40E94130F0DC0809137028D3019F434
:104AD0000E94161306C080913702873011F40E949D
:104AE000FB1A1F9108951F920F920FB60F92112477
:104AF000EF92FF920F931F932F933F934F935F93E8
:104B00006F937F938F939F93AF93BF93EF93FF9395
:104B10000E94DE0B8091A7029091A802A091A902A9
:104B2000B091AA0283709070A070B0700097A10538
:104B3000B105E1F480914002882359F48091370255
:104B4000883039F480913902882319F481E0809308
:104B5000ED018091A502882349F481E08093EC0166
:104B600090914002992311F48093ED0180914002CD
:104B7000882309F076C08091A7029091A802A091A5
:104B8000A902B091AA02E090B200FF2400E010E078
:104B9000BA2FA92F982F8827E82AF92A0A2B1B2B2E
:104BA0008091420290914302A0914402B09145024B
:104BB000E81AF90A0A0B1B0B809141028823A9F518
:104BC000189B02C01A9931C081E7E81687E1F80600
:104BD00080E0080780E0180730F0189902C088E2EA
:104BE0001FC088ED1DC089EBE8168BE0F80680E059
:104BF000080780E0180730F0189902C08CE010C058
:104C000084EF0EC085EFE81681E0F80680E0080723
:104C100080E0180750F0189902C084E001C08CEFC2
:104C20000E94162481E08093ED018091B60290E00D
:104C3000A0E0B0E02AE0880F991FAA1FBB1F2A95A9
:104C4000D1F78E159F05A007B10758F4189B09C02E
:104C50001A9B07C0199B05C081E0809340020E9407
:104C60003328FF91EF91BF91AF919F918F917F91E9
:104C70006F915F914F913F912F911F910F91FF90F5
:104C8000EF900F900FBE0F901F9018951F920F92EC
:104C90000FB60F921124EF92FF920F931F932F9351
:104CA0003F934F935F936F937F938F939F93AF93B4
:104CB000BF93EF93FF9380914002882341F12091AD
:104CC000A7023091A8024091A9025091AA028091B6
:104CD000B20090E0A0E0B0E0542F432F322F222703
:104CE000822B932BA42BB52B8093420290934302EB
:104CF000A0934402B09345021092400280E00E94CB
:104D0000332881E0809333028093ED011DC0E09051
:104D1000A702F090A8020091A9021091AA02809126
:104D2000B2002091420230914302409144025091DE
:104D3000450290914102913051F4189971C01A992D
:104D40006FC0199B6DC082E08093410269C090E002
:104D5000A0E0B0E0102F0F2DFE2CEE248E299F290D
:104D6000A02BB12B821B930BA40BB50B20914102FE
:104D7000223091F4189B54C01A9B52C0199B50C00A
:104D80008B3F9105A105B10508F44AC0109241027C
:104D900081E08093330242C0189908C01A9906C076
:104DA000199904C081E0809336023AC0189B02C072
:104DB0001A990DC08B3F9105A105B10540F01899D6
:104DC00002C081E001C08FEF0E94162409C019992A
:104DD00027C08B3F9105A105B10510F10E94D32496
:104DE0002091A7023091A8024091A9025091AA02F5
:104DF0008091B20090E0A0E0B0E0542F432F322F1A
:104E00002227822B932BA42BB52B809342029093C5
:104E10004302A0934402B093450281E08093ED01E8
:104E2000FF91EF91BF91AF919F918F917F916F9182
:104E30005F914F913F912F911F910F91FF90EF90B4
:104E40000F900FBE0F901F901895882311F05F9A56
:104E500001C05F985C9888E090E067FF02C02B9AE1
:104E600001C02B982D9A2D98019711F0660FF5CF60
:104E70005C9A08951F93162F682F606880E00E9447
:104E80002527612F606480E00E9425271F910895E7
:104E90000F931F93CF93DF9305E0809F8001112430
:104EA000E801CE51D94F0951194FFE01649181E0BB
:104EB0000E9425272196C017D107B9F781E060E04D
:104EC0000E942527DF91CF911F910F910895EF92B6
:104ED000FF92CF93DF93E82EE7017E01F92EE701E1
:104EE00002C00E94482789918823D9F7DF91CF918A
:104EF000FF90EF900895CF92DF92EF92FF920F9381
:104F00001F93CF93DF93D62E082F192F3FE7C32E81
:104F10004CC08D3649F5DD2011F063E401C06CE32F
:104F200081E00E942527DD2011F06BE701C064E0DD
:104F300081E00E942527DD2011F067E601C068E1CD
:104F400081E00E942527DD2011F06BE701C064E0BD
:104F500081E00E942527DD2011F067E401C068E3AD
:104F600081E00E94252719C023E0829FC0011124FF
:104F7000EC01CD50DA4F26EFE22E25E0F22EE80EBE
:104F8000F91EFE016491660FD1106C2581E00E942C
:104F900025272196CE15DF05A1F7DD2011F06FE75B
:104FA00001C060E081E00E942527F80181918F0116
:104FB000882309F0AECFDF91CF911F910F91FF9021
:104FC000EF90DF90CF900895EF92FF920F931F9391
:104FD000CF93DF93082F192F34C08D36A9F481E0C9
:104FE00069E70E94252781E069E00E94252781E08A
:104FF00061E30E94252781E069E00E94252781E086
:1050000061E70E94252719C023E0829FC001112477
:10501000EC01CD50DA4F46EFE42E45E0F42EE80ED9
:10502000F91EFE016491660F660F616081E00E94C7
:1050300025272196CE15DF05A1F781E061E00E94CA
:105040002527F80181918F01882339F6DF91CF91CF
:105050001F910F91FF90EF900895882311F05B9AB4
:1050600008955B980895882331F080E064E20E94FF
:10507000252780E005C080E060E20E94252781E0CE
:105080000E942D280895CF93DF93C8EFD1E081E0EF
:1050900060E00E9425272197D1F7DF91CF910895F5
:1050A00081EB8093DA0285E18093CE0284E08093E5
:1050B000D9028FEF9FE79093DC028093DB029093FD
:1050C000D0028093CF021092E1029093DE0280938F
:1050D000DD029093D2028093D1021092E20290936B
:1050E000E0028093DF029093D4028093D302109267
:1050F000E302549A559A579A539A239A259A5D989F
:105100005D9A80E061E20E9425276091DA0280E0EA
:105110000E9425276091D90280E00E942527609196
:10512000CE0280E00E94252780E060E20E942527D1
:1051300080E06CE00E94252708952F923F924F92C5
:105140005F927F928F929F92AF92BF92CF92DF92A7
:10515000EF92FF920F931F93DF93CF93CDB7DEB7FC
:1051600027970FB6F894DEBF0FBECDBF782E2B0168
:1051700049015801D901F80180E01D9211928F5F19
:105180008431D9F7D6011C928E010F5F1F4FC801E1
:10519000672D0E945C31180143E01FC0849FC0014D
:1051A0001124FC01ED50FA4F9C012A503A4F6491B2
:1051B000D6015C91C501850F911DDC016C93852F93
:1051C0008F5FD6018C933196E217F30781F7F501D3
:1051D000E80FF11D10828F5F8C93F10181911F0107
:1051E0008823E1F6D7011C92CE010196672DA2011A
:1051F0000E945C3123E01FC0829FC0011124FC018A
:10520000ED50FA4F8A509A4F4491D7013C91D40106
:10521000A30FB11D440F440F440F4C933F5FD701C0
:105220003C933196E817F90779F7F401E30FF11D84
:1052300010823F5F3C93F80181918F018823E1F652
:1052400027960FB6F894DEBF0FBECDBFCF91DF918A
:105250001F910F91FF90EF90DF90CF90BF90AF9094
:105260009F908F907F905F904F903F902F900895E8
:10527000CF93DF93EC0180E090E060E070E00E946B
:105280003A2781E06FE70E942527CE0161E00E9466
:105290007B27DF91CF9108950F931F93182F092F2C
:1052A000C801E92FF82F20E003C08D3609F42F5FE5
:1052B0004E2F411B81918823C1F730E03095219515
:1052C0003F4F220F331F2C5A3F4F50E0440F551FC2
:1052D000440F551FC901841B950B60E070E00E94CC
:1052E0003A27812F902F61E00E947B271F910F9119
:1052F0000895CF92DF92EF92FF920F931F93DF9367
:10530000CF930F92CDB7DEB77C01162FDC010D9045
:105310000020E9F71197A81B23E130E02A1B31098F
:1053200035952795D22E0A2F01950D5E021B80E040
:1053300090E060E070E00E943A27112311F06FE7DF
:1053400001C060E081E00E942527112319F044E0AC
:1053500052E002C046E052E0CA01612F0E947B2762
:10536000112351F483E090E060E070E00E943A275E
:1053700081E060E20E942527CC24C39413C011234E
:1053800031F08CE092E061E00E947B270AC090E05F
:1053900081E060E299830E94252799819F5F943084
:1053A000B9F7C394CD1458F38CE092E0612F0E94BA
:1053B0007B27C701612F0E947B278CE092E0612F41
:1053C0000E947B27FF24F39411C0112331F08CE05D
:1053D00092E061E00E947B2708C0E4E0EE2E81E0CD
:1053E00060E20E942527EA94D1F7F394F01668F35F
:1053F00080E590E060E070E00E943A27112319F008
:1054000088E092E002C08AE092E0612F0E947B2750
:105410000F90CF91DF911F910F91FF90EF90DF9050
:10542000CF9008952F923F924F925F926F927F920A
:105430008F929F92AF92BF92CF92DF92EF92FF92A4
:105440000F931F93DF93CF93CDB7DEB7C256D040F3
:105450000FB6F894DEBF0FBECDBF65968FAF6597D0
:10546000762E6C964FAF6C976D962FAF6D970E940E
:10547000662E682E6C963FAD6C97232F30E06996B0
:105480003FAF2EAF6997C901860D911D64E570E0AD
:105490000E94FB384C0100E010E0CC24CA94DC2CC4
:1054A000AA24BB24EE24EA94FE2C65968FAD659762
:1054B000602F0E94782EFC0120812223B9F4818183
:1054C0003281932F9770009789F4432F4695469524
:1054D00046953381532F5295550F507E852F842B3F
:1054E000932F969596959695009739F1772011F41C
:1054F00030E017C08281472D413021F42181382FBF
:1055000037700FC0982F9695969596958381482F62
:105510004295440F407E242F292B382F36953695FF
:105520003695A216B30608F459012E153F0508F466
:1055300079010815190509F469010F5F1F4F04353A
:10554000110509F0B2CF772009F04FC0B6016451C0
:10555000704064967FAF6EAF64978091DB0290914C
:10556000DC027FE78F3F970739F4BCEE8B2EBFEF4D
:105570009B2E8E0C9F1C06C08090DB029090DC025C
:10558000880C991C8091CF029091D002AFE78F3F99
:105590009A0729F4ECEEFFEFAE0EBF1E06C0A090F6
:1055A000CF02B090D002AA0CBB1C22E030E0C401B4
:1055B000B9010E94FB387093D6026093D502C501F1
:1055C000B9010E94FB387093D8026093D702809192
:1055D000DB029091DC02FFE78F3F9F0709F0E1C0FB
:1055E0008091CF029091D002DCC0272D213009F0AC
:1055F00089C0A60140575E4F64965FAF4EAF649777
:105600008091DD029091DE025FE78F3F950751F4B4
:10561000B70180E090E060577E4F8F4F9F4F0E9410
:10562000683612C06091DD027091DE02660F771F4E
:10563000882777FD8095982F0E94683620EA34E706
:1056400047E052E40E94F4360E9435364B018091C7
:10565000D1029091D2026FE78F3F960751F4B501C6
:1056600080E090E060577E4F8F4F9F4F0E946836DA
:1056700012C06091D1027091D202660F771F882705
:1056800077FD8095982F0E94683620EA34E747E03E
:1056900052E40E94F4360E9435365B01B40188273B
:1056A00077FD8095982F0E94683620EA34E747E816
:1056B00052E40E94CD350E9435367093D602609335
:1056C000D502B501882777FD8095982F0E9468360E
:1056D00020EA34E747E852E40E94CD350E9435368F
:1056E0007093D8026093D7028091DD029091DE0220
:1056F0007FE78F3F970709F054C08091D1029091C6
:10570000D2024FC0C601845B924064969FAF8EAFB9
:1057100064978091DF029091E002AFE78F3F9A0794
:1057200039F44CE4842E4DEF942E8E0C9F1C09C04E
:105730008091DF029091E00262E070E00E94FB380D
:105740004B018091D3029091D402BFE78F3F9B071A
:1057500029F4ECE4FDEFAE0EBF1E09C08091D30228
:105760009091D40262E070E00E94FB385B01C401BA
:10577000880F991F9093D6028093D502C501880F98
:10578000991F9093D8028093D7028091DF02909165
:10579000E002FFE78F3F9F0721F48091D3029091B1
:1057A000D4022FEFC2162FEFD20631F44FEF5FE78E
:1057B00064965FAF4EAF64975FEFE5165FEFF50657
:1057C000A9F41092D8021092D7028091D70290913A
:1057D000D8029093D6028093D5028FEFA82E8FE740
:1057E000B82E0EEF802E0FE7902E20C0A814B9041B
:1057F00029F445010894A11CB11C18C0C5018819E1
:1058000099098431910594F4C501880D991D62E0D0
:1058100070E00E94FB3816EF812E1FEF912E860E4E
:10582000971EBAE0AB2EB12CA60EB71E80E062E246
:105830000E942527862D8D5A64E50E94DB38692E4B
:10584000A5E12A2E312C2C0E3D1EF9E24F2E512CB3
:105850004C0E5D1E872DB401A501910182017E01D0
:105860000894E11CF11CE2E0CE2ED12CCC0EDD1E02
:105870000E949D2803E51FEFBE01685F7F4FA3963E
:105880007FAF6EAFA397C501881999099C01442782
:1058900037FD4095542FA1962CAF3DAF4EAF5FAF73
:1058A000A1972DE0E22EF12CEC0EFD1E272C3324C7
:1058B00041EE52E0240E351EC02EDD24C60161E00B
:1058C00070E00E943A273A812981BE016D5F7F4FC7
:1058D00067967FAF6EAF6797CE0108966B969FAFC6
:1058E0008EAF6B97DC01FB0189E290E08C0F9D1F6E
:1058F0008C0D9D1D45E150E04C0F5D1FC40ED51E63
:105900002D016D965FAD6D97552329F06C966FADA7
:105910006C97061711F040E001C045E54193D201B4
:105920004FEF4D932D01031748F4552339F44B8164
:10593000DC016C91462B4B83B0ECB887021748F41E
:10594000552339F44F81D6016C91462B4F83B3E038
:10595000BC87A3966EAD7FADA397E617F707A1F6B8
:1059600065968FAD6597662D0E94782EFC016A942E
:10597000762D7F3F11F493E5692E772029F460811D
:1059800070E0645170401BC08281972D913031F4DA
:105990006181782F777060577E4F11C0982F969550
:1059A000969596958381282F2295220F207E622F2F
:1059B000692B782F769576957695645B72401D8677
:1059C0001E861F86188A198A681579050CF47DC011
:1059D000A616B7060CF479C080818823C1F48181B2
:1059E0002281922F9770009791F4322F3695369539
:1059F00036952381422F4295440F407E842F832B7E
:105A0000922F969596959695009709F45EC0681921
:105A10007909882777FD8095982F29ED3FEF4FEF83
:105A20005FEF0E94BC38A1962CAD3DAD4EAD5FAD91
:105A3000A1970E943039295D822F8695869586959B
:105A4000322F377091E002C0990F31503323E1F7C4
:105A5000F701E80FF11D90832117D1F11F3FB9F134
:105A6000D1019C91992399F5121710F0115021C082
:105A70001F5F09C0392F3695392B3083912F9F5FD7
:105A8000211729F1192FF701E80FF11D908190FFDF
:105A9000F1CF8150F701E80FF11DB0E8B083EECFF0
:105AA000392F330F392B3083912F9150211779F0F3
:105AB000192FF701E80FF11D908197FFF1CF8F5F4C
:105AC000F701E80FF11D31E0EECF1FEF01C0122FFB
:105AD000670182E1482E512C4C0E5D1ED6019D912E
