:10000000EDC5000008C6000006C600000C942922B9
:1000100002C6000000C60000FEC50000FCC50000CE
:10002000FAC500000C945721F6C500000C949129E4
:10003000F2C50000F0C50000EEC50000ECC50000F0
:10004000EAC50000E8C50000E6C50000E4C5000000
:10005000E2C50000E0C50000DEC50000DCC5000010
:10006000DAC50000D8C50000BA13C01342147114D9
:10007000D813FC13F315FC15D7142C153D15B71325
:1000800007634236B79BD8A71A39685618AEBAAB81
:10009000558C1D3CB7CC5763BD6DEDFD753EF61715
:1000A0007231BF000000803F08000000BE9224496A
:1000B000123EABAAAA2ABECDCCCC4C3E000000809A
:1000C000BEABAAAAAA3E00000000BF000000803F0D
:1000D0000000000000084178D3BB4387D1133D19CD
:1000E0000E3CC3BD4282AD2B3E68EC8276BED98FFA
:1000F000E1A93E4C80EFFFBE01C4FF7F3F0000003E
:1001000000004A616E00466562004D6172004170F8
:1001100072004D6179004A756E004A756C00417538
:100120006700536570004F6374004E6F760044653E
:100130006300020106010A010E01120116011A01F3
:100140001E01220126012A012E012000500041003B
:100150003A003A00500041003A0020000000000040
:1001600000000000000000007C7E7E7C0000007C1F
:100170007E7E7C0000007C7E7E7C0000007C7E7E9B
:100180007C000000000000000000000000000000F3
:10019000000000000000000000000000000000005F
:1001A0000000000080C0C0E07078381C1E0E0E1CDD
:1001B0001C1C38383870707060E0E0C0C0C08080AF
:1001C00080000000000000000000000000000000AF
:1001D0000000000000000000000000000000307877
:1001E0007878787800FCFEFF0F07070707070707F6
:1001F000078787878787878787870707070707070F
:100200000FFFFEFC000000008080C0C0E060703086
:1002100038381C1C0E0E07070707070E0E0E0C1CA5
:100220001C0E070703010100000000000000000091
:1002300000000000000000000000000001010103B8
:1002400003030707070E0E0E1C1C1C38383870708D
:1002500070E0E0E0C0C0C080808000000000183C7A
:100260003C3C3C3C00FFFFFF000000000000C0F8E9
:10027000FFFFFFE7E7E7E7FFFFBF1F06000080C0C3
:10028000E0E7E7E70000030383C1C1E06060E0E06E
:10029000C000C0E0E0E00080C0E0E060C0E0E0E07E
:1002A0000080E0E0E0E00080E0E0E000000080C0EE
:1002B000C0E06060E0E0E0C000000080C0C0E0603E
:1002C00060E0E0E0C00000C0E0E0E06060E0E0E0AE
:1002D000C0000080C1E1E1636363630000000C1EA5
:1002E0001E1E1E1E00FFFFFF00000000F0FEFFFFAD
:1002F000FFF1F1F1F1797F3F1FC7E0F87C3E1F1F4E
:1003000019FFFFFF00007CFFFFE7C1C0E060208015
:10031000F0FEFF7F1F3FFFFBF1C00000FFFFFF7CEF
:100320003E0FFFFFFFF93E1F070100007EFFFFE7C2
:10033000C1C0E0787F3F1F07007EFFFFE7C1C0E03C
:10034000787F3F1F87F0FEFFFFCFC1E0787F3F1F20
:1003500007E0E0E3C7C7FF7E7E3C00000000060F19
:100360000F0F0F0F001F3F7F7870707070707070EC
:10037000707070707070707070707070707070707D
:10038000787C3C1C00000000000000000000000021
:10039000000000000000000000000000000000005D
:1003A000000000000000000000000000000000004D
:1003B000000000000000000000000000000000003D
:1003C000000000000000000000000000000000002D
:1003D000000000000000000000000000000000001D
:1003E00000000000000000001F3F3F1F0000001F32
:1003F0003F3F1F0000001F3F3F1F0000001F3F3F07
:100400001F00000000001F1F181818181818181CCB
:100410001C1818181818181C1C1818181818181C4C
:100420001C1818181818181C1C1818181818181840
:100430001F1F181818181818181C1C181818181826
:10044000181C1C1818181818181C1C18181818181C
:10045000181C1C1818181818181F1F00312E302EC1
:10046000310045786974204D656E75004C696E6584
:1004700020312044617461004C696E652032204453
:10048000617461004C696E652033204461746100C1
:100490004C696E6520342044617461004C696E655E
:1004A00020352044617461004C696E65203620441B
:1004B0006174610062046C047804840490049C04F8
:1004C000A804000043616C69627261746500536541
:1004D000742044657374696E6174696F6E0052654F
:1004E0007365742044657374696E6174696F6E001E
:1004F0006204C404CE0400004461746520616E642B
:100500002054696D65004D6561737572656D656E2A
:100510007420556E69747300536C65657020446572
:100520006C617900536F756E64004C434420436FD7
:100530006E747261737400526573746F72652044D7
:10054000656661756C747300457261736520416CFA
:100550006C2044617461006204F8040605180524E7
:10056000052A0537054805000054656D7065726100
:100570007475726500416C746974756465005261CC
:100580007465206F6620417363656E740054696DF5
:100590006520746F2044657374696E6174696F6E51
:1005A0000053746174696F6E205072657373757255
:1005B0006500536561204C6576656C2050726573EB
:1005C000737572650054696D65206F6620446179AA
:1005D000004461746520616E642054696D65005447
:1005E000656D7065726174757265205472656E64B4
:1005F000005072657373757265205472656E640085
:100600005765617468657220466F726563617374C3
:1006100000456D707479006204690575057E058D6D
:1006200005A105B205C505D105DF05F105000611D7
:100630000600005669657720536E617073686F74A9
:10064000204C6F670054616B6520536E6170736856
:100650006F740062043306450600004578706C6FC5
:1006600072652047726170680044726177696E67D5
:10067000205374796C6500437573746F6D20592D28
:1006800041786973204D696E00437573746F6D20F6
:10069000592D41786973204D6178004175746F2040
:1006A000592D41786973204D696E004175746F2032
:1006B000592D41786973204D61780062045B0669A9
:1006C00006770689060000536F6172696E670052F3
:1006D0006973696E67204661737400526973696E4D
:1006E0006700526973696E6720536C6F77005374AB
:1006F000656164790046616C6C696E6720536C6F4C
:10070000770046616C6C696E670046616C6C696E5F
:1007100067204661737400506C756D6D6574696E09
:100720006700C706CF06DB06E206EE06F5060207FF
:100730000A0717072B002D2D2D2D002B002D2D2DF9
:100740000044657374696E6174696F6E20002000E7
:100750002000200020002000300020002D0020007C
:10076000504D00414D0020002000200020002000BE
:100770002000200020002000200020002000200079
:10078000536E617073686F74200020004F666600BE
:100790004F6E00536F756E642000436F6E7472610C
:1007A00073742000560042617474657279200020D1
:1007B0002020202020746F20756E6C6F636B0020EA
:1007C000686F6C64205052455620616E64204E451F
:1007D0005854002000200020002000556E696D70E4
:1007E0006C656D656E746564002000200045727252
:1007F0002000436C6561722C204472790046616967
:100800007200556E6368616E676564005261696E5F
:100810000053746F726D7900566572792053746F4E
:10082000726D7900436C656172696E6700476F6F26
:1008300064205765617468657200417070722E2083
:1008400053746F726D00506F6F72205765617468DA
:10085000657200556E6368616E6765640042726917
:1008600065662053686F77657200556E61766169C1
:100870006C61626C6500466F726563617374200021
:100880005072657373757265200054656D70200039
:100890003A002D2D2D2D2D0054696D6520746F208B
:1008A0004465737420002F6D696E00446573636541
:1008B0006E64696E672000417363656E64696E677C
:1008C0002000536561204C657620507273200053E0
:1008D000746174696F6E2050727320003268003149
:1008E000306800326400604300206D6200206D00BB
:1008F00060460020696E0020667400200000000041
:10090000000000005F00000007000700147F147F54
:1009100014242A7F2A122313086462364956205071
:100920000006050300001C2241000041221C002A91
:100930001C7F1C2A08083E08080080703000080848
:10094000080808000060600020100804023E5149B9
:10095000453E00427F400072494949462141494D88
:10096000331814127F1027454545393C4A4949310F
:1009700041211109073649494936464949291E008E
:1009800000140000103070301000081C3E7F14145A
:10099000141414007F3E1C0802015909063E415DF3
:1009A000594E7C1211127C7F494949363E414141E2
:1009B000227F4141413E7F494949417F090909015F
:1009C0003E414151737F0808087F00417F4100206C
:1009D00040413F017F081422417F404040407F0258
:1009E0001C027F7F0408107F3E4141413E7F090980
:1009F00009063E4151215E7F091929462649494988
:100A00003201017F01013F4040403F1F2040201F35
:100A10003F4038403F6314081463030478040361C3
:100A200059494D43007F41414102040810200041D3
:100A300041417F040607060440404040400006054F
:100A4000030020545478407F2844443838444444B8
:100A500028384444287F385454541800087E09022A
:100A600018A4A49C787F0804047800447D400020EA
:100A700040403D007F1028440000417F40007C043E
:100A80007804787C080404783844444438FC1824FA
:100A9000241818242418FC7C0804040848545454CE
:100AA0002404043F44243C4040207C1C2040201C63
:100AB0003C4030403C44281028444C9090907C446A
:100AC00064544C4420504153542000414C544954E8
:100AD0005544450050524553535552450054454DD9
:100AE000500000407A10F35A00A0724E180900100E
:100AF000A5D4E80000E87648170000E40B54020093
:100B000000CA9A3B000000E1F505000080969800BD
:100B1000000040420F000000A086010000001027E6
:100B200000000000E8030000000064000000000076
:100B30000A00000000000100000000002C76D888A8
:100B4000DC674F0823DFC1DFAE59E1B1B796E5E3BB
:100B5000E453C63AE651997696E8E6C28426EB89D4
:100B60008C9B62ED407C6FFCEFBC9C9F40F2BAA571
:100B70006FA5F490055A2AF75C936B6CF9676DC109
:100B80001BFCE0E40D47FEF520E6B500D0ED902E0D
:100B90000300943577050080841E080000204E0A6B
:100BA000000000C80C333333330F986E12831141A9
:100BB000EF8D2114893BE65516CFFEE6DB18D18474
:100BC0004B381BF77C1D901DA4BBE424203284729B
:100BD0005E228100C9F124ECA1E53D2711241FBE4E
:100BE000CFEFD8E0DEBFCDBF12E0A0E0B1E0E4EF90
:100BF000FDE602C005900D92AC36B107D9F716E0BC
:100C0000ACE6B2E001C01D92AC3FB107E1F70E9433
:100C1000DF1E0C94F836F4C90F931F938091640083
:100C20008E7F8093640080917A00806880937A0040
:100C300086E480937C008FE99FE00197F1F700C084
:100C4000000080917A00806480937A0080917A001D
:100C500086FDFCCF2091780030E040E050E08091AC
:100C60007900782F60E0882777FD8095982F622B98
:100C7000732B842B952B2CEB3CE040E050E00E9442
:100C8000483320917A002F7720937A0020916400D6
:100C90002160209364002FEF33E040E050E00E9499
:100CA000BC33B901CA011F910F91089580E896EEF7
:100CB000A5ECB7E480939A0290939B02A0939C02C8
:100CC000B0939D020895CF93DF933B9A43988FECA6
:100CD00097E00197F1F700C00000439A8FE19EE48E
:100CE0000197F1F700C0000080E896EEA5ECB7E4AC
:100CF00080939A0290939B02A0939C02B0939D02D2
:100D00000E9413238EEE0E941023C0E8D2E08AEAEC
:100D100090E066E170E0AE010E941923882359F04B
:100D20008881998198838983229692E0C639D90770
:100D3000B9F781E001C080E0DF91CF910895A2E092
:100D4000B0E0E5EAF6E00C94E73384EF90E06EE281
:100D50000E94AE238FE097E20197F1F700C00000F8
:100D600086EF90E062E070E0AE014F5F5F4F0E945F
:100D70001923882339F0998180E02A8130E0282BDB
:100D8000392B02C020E030E0C9012296E2E00C9449
:100D90000334A3E0B0E0EFECF6E00C94E73384EF2B
:100DA00090E064EF0E94AE238FE19BEC0197F1F796
:100DB00000C0000086EF90E063E070E0AE014F5F9E
:100DC0005F4F0E941923882319F1298130E040E008
:100DD00050E0A901332722278A8190E0A0E0B0E00B
:100DE000BA2FA92F982F8827282B392B4A2B5B2B1A
:100DF0008B8190E0A0E0B0E0282B392B4A2B5B2BB5
:100E000085E056954795379527958A95D1F703C084
:100E100020E030E0A901B901CA012396E2E00C9478
:100E20000334EF92FF920F931F93BC0180E090E098
:100E300020918A0230918B0240E050E0621B730BDC
:100E4000840B950B209188023091890240E050E09C
:100E50000E9448337B018C01AFE015950795F7940C
:100E6000E794AA95D1F76091920270919302882736
:100E700077FD8095982FFBE0660F771F881F991FDD
:100E8000FA95D1F72091940230919502442737FDCD
:100E90004095542F2E0D3F1D401F511F0E94BC3303
:100EA0002E0D3F1D401F511F209396023093970235
:100EB0004093980250939902285F3F4F4F4F5F4FE6
:100EC000E4E05595479537952795EA95D1F7C901FF
:100ED0001F910F91FF90EF900895A4E0B0E0E3E739
:100EE000F7E00C94D73369837A838B839C8360907B
:100EF000960270909702809098029090990280E6F6
:100F000090EFAFEFBFEF680E791E8A1E9B1EC401E3
:100F1000B301A40193010E9448331B012C0160918D
:100F2000840270918502882777FD8095982F0E9412
:100F300048337B018C014DE015950795F794E794B4
:100F40004A95D1F782E090E0A0E0B0E0E80EF91E0B
:100F50000A1F1B1FC201B1013CE09595879577954B
:100F600067953A95D1F720918C0230918D024427F4
:100F700037FD4095542F0E944833BC01992777FDD7
:100F80009095892FE60EF71E081F191FB2E01595E0
:100F90000795F794E794BA95D1F780E090E8A0E040
:100FA000B0E0E80EF91E0A1F1B1F20918602309147
:100FB000870240E050E0C801B7010E9448335B015E
:100FC0006C01AFE0D694C794B794A794AA95D1F7D3
:100FD00020918E0230918F02442737FD4095542F87
:100FE000C201B1010E9448337B018C01F7E11595E4
:100FF0000795F794E794FA95D1F760918202709182
:101000008302882777FD8095982FA40193010E9481
:101010004833EBE09595879577956795EA95D1F7F5
:10102000E60EF71E081F191F809180029091810221
:10103000AA2797FDA095BA2F72E0880F991FAA1FC3
:10104000BB1F7A95D1F7E80EF91E0A1F1B1FEE0C85
:10105000FF1C001F111F89819A81AB81BC818E19F1
:101060009F09A00BB10BBC01CD012AE638E140E09D
:1010700050E00E94483397FD0BC0660F771F881F12
:10108000991FA60195010E949A3379018A010AC02D
:10109000A60195010E949A3379018A01EE0CFF1C8A
:1010A000001F111F552717FD5A95412F302F2F2D47
:1010B000CA01B9010E9448332EED3BE040E050E008
:1010C0000E9448335B016C01C801B70123E433EE91
:1010D0004FEF5FEF0E9448339C01552737FD509535
:1010E000452F2153314F4F4F5F4F5601DD24B7FC41
:1010F000D094CD2C2A0D3B1D4C1D5D1DB4E05595A3
:10110000479537952795BA95D1F72E0D3F1D401F6E
:10111000511FB901CA012496E2E10C94F3332091E6
:101120009A0230919B0240919C0250919D020E9434
:10113000593021EB3CED42E45EE30E94E331562F4F
:10114000472F382F292F60E070E080E89FE3DA0115
:10115000F9012B2F3A2F4F2F5E2F0E94F42F20E002
:101160003AE24DE257E40C948031EF92FF920F93F4
:101170001F937B018C01CA01B90120E03AE24DE2E4
:1011800057E40E9459309B01AC0160E070E080E8B8
:101190009FE30E94F42F26EF38E248EA50E40E94D1
:1011A000E331562F472F382F292FC801B701DA0115
:1011B000F9012B2F3A2F4F2F5E2F0E9459301F918C
:1011C0000F91FF90EF9008959C01862FF9010190F7
:1011D0000020E9F73197E21BF30BE20FF31F6A30AF
:1011E00010F490E3919390E0BF014AE050E00C943A
:1011F0006134FF920F931F938C01F62EE42FF0E0E1
:10120000EE0FFF1FE05DFE4F25913491C801B9013B
:101210000E944034C8016AE571E00E943534C8017B
:101220006F2DD2DFC8011F910F91FF900895CF92CB
:10123000DF92EF92FF921F93DF93CF930F92CDB780
:10124000DEB76C01162FFC011082662341F06C3072
:1012500031F0862F6CE00E946733692F01C06CE08B
:10126000C6014983B1DFC60168E571E00E943534EB
:10127000C6014981642FA8DF1C3018F466E571E0CF
:1012800002C064E571E0C6010E943534C6010F90CA
:10129000CF91DF911F91FF90EF90DF90CF90089555
:1012A000CF92DF92EF92FF921F93DF93CF9300D004
:1012B000CDB7DEB76C01162FFC011082662341F01A
:1012C0006C3031F0862F6CE00E946733692F01C0CB
:1012D0006CE0C6012A83498377DFC60162E571E0CD
:1012E0000E943534C6014981642F6EDFC60160E576
:1012F00071E00E943534C6012A81622F65DF1C30FF
:1013000018F46EE471E002C06CE471E0C6010E9462
:101310003534C6010F900F90CF91DF911F91FF9050
:10132000EF90DF90CF900895EF92FF920F931F936D
:10133000CF93DF93EC019B018FB7F8941091A70234
:101340000091A602F0909F0240919E02E090A102BF
:101350008FBFCB016CE370E00E947333181B1C330A
:1013600010F00150145CC9016CE370E00E9473330B
:101370009B01CB0168E170E00E947333081B0831C8
:1013800010F0FA94085E8E2D837011F48DE101C087
:101390008CE180930201FF2041F4415009F44CE0BC
:1013A000E42FF0E0E050FF4FF080C90168E170E009
:1013B0000E9473339B010FC021503040FA948F2D4F
:1013C00081508F3140F0415009F44CE0E42FF0E0BF
:1013D000E050FF4FF0802115310571F7CE016F2DE0
:1013E00008DFCE016AE471E00E9435347E01EC2F03
:1013F000FF2DDF010D900020E9F7CD0101978E1B35
:101400009F0B8C0F9D1F602F412F11DFCE01CDB799
:10141000DEB7E6E00C94FF331092A10281E08093E6
:101420009E0280939F021092A6021092A702109231
:10143000A00208958091A2029091A302A091A4021B
:10144000B091A5020196A11DB11D8093A2029093B7
:10145000A302A093A402B093A5028091A20290914E
:10146000A302A091A402B091A50283709070A07015
:10147000B0700097A105B10509F051C08091A0029C
:101480008F5F8093A0028091A0028C3309F047C047
:101490001092A0028091A7028F5F8093A702809193
:1014A000A7028C33E1F51092A7028091A6028F5F0C
:1014B0008093A6028091A602883189F51092A60237
:1014C00080919F028F5F80939F028091A102837021
:1014D00011F48DE101C08CE18093020120919F0203
:1014E000E0919E0230E0F0E0E050FF4F808190E01C
:1014F00001962817390799F491E090939F02809103
:101500009E028F5F80939E0280919E028D3039F4FF
:1015100090939E028091A1028F5F8093A102089513
:10152000A7E1B0E0E6E9FAE00C94DB33E091700269
:10153000F0E0EE0FFF1FE85FFD4F8080918020E01C
:1015400001C02F5F622E7724F301EE0FFF1FE80D1D
:10155000F91D859194910097A1F700E010E06E01CC
:101560000894C11CD11CD5C080917602F801E80F07
:10157000F11DEE0FFF1FE80DF91D85919491E82EE6
:10158000F92E809170028130A1F480917602980149
:10159000280F311D2230310561F48091BD029091F8
:1015A000BE023FE78F3F930721F04EEDE42E44E06B
:1015B000F42E809170028A30D1F58091AC02823095
:1015C00029F0E1E0843019F4E0E001C0E2E080912C
:1015D00076029801280F311D2330310589F4AE2F92
:1015E000B0E0AA0FBB1FAD50B94F8D919C911197E0
:1015F0003FE78F3F930721F02BE9E22E26E0F22E02
:10160000809176029801280F311D2430310579F43C
:10161000F0E0EE0FFF1FE851F94F808191813FE725
:101620008F3F930721F08BEAE82E86E0F82EA02E5C
:10163000B02EB39480E06B2D0E94792A40E0909107
:101640007602809173029801290F311D90E02817CE
:10165000390711F46FE701C060E081E04F8B0E9411
:10166000B9294F894F5F403851F784E06B2D0E94B4
:10167000792AC601B70145E150E00E9447349091B4
:101680007602809173029801290F311D90E061E08C
:101690002817390709F060E0C6010E94622AAA20D3
:1016A00091F480917602882379F18AE76B2D0E946C
:1016B000792A909176028091730261E0981360E03C
:1016C0008DE091E01FC08A2D8630F1F48091760282
:1016D00090E00196800F911F86159705A9F08AE783
:1016E0006B2D0E94792A9091760280917302980165
:1016F000290F311D90E061E02817390709F060E0FB
:101700008FE091E00E94622A0F5F1F4F07301105A2
:1017100049F0809176029801280F311D2615370572
:101720000CF422CF6796EEE00C94F73381E00E9430
:101730008429809173028F5F80937302809173027A
:10174000873019F58FB7F8949091B2029093A00268
:101750009091B8029093A7029091C2029093A60232
:101760009091C10290939F029091B00290939E023B
:101770009091AF029093A1028FBF88E08093700296
:101780001092720281E080936C0208959091AF02F2
:10179000937011F49DE101C09CE12091B0022230D0
:1017A00099F09091B002943061F09091B00296302F
:1017B00041F09091B002993021F09091B0029B30AD
:1017C00011F49EE101C09FE13091C20220917302A9
:1017D000233009F450C0243030F4213051F122304C
:1017E00008F043C00AC0253009F484C0253008F44D
:1017F00067C0263009F0B7C097C09091B002980F2B
:101800009093B0028091B0028150813F20F080918E
:10181000B002845F0BC08091B00281508C3020F008
:101820008091B0028C5002C08091B0028093B002CF
:1018300008952091C102280F2093C1028091C10216
:101840008150813F20F08091C102890F0BC08091AF
:10185000C1028150891720F08091C102891B02C00A
:101860008091C1028093C10208959091AF02980FB8
:101870009093AF0208959091C202980F9093C20284
:101880003C3048F08091C2028C50813F40F48091FE
:10189000C2028C500AC08091C202813F20F0809128
:1018A000C202845F0AC08091C2028C3020F0809115
:1018B000C2028C5002C08091C2028093C20208957D
:1018C0009091B802980F9093B8028091B802813F2E
:1018D00020F08091B802845C0AC08091B8028C33F9
:1018E00020F08091B8028C5302C08091B80280939E
:1018F000B80208959091B202980F9093B20280912D
:10190000B202813F20F08091B202845C0AC08091D3
:10191000B2028C3320F08091B2028C5302C08091CD
:10192000B2028093B2020895813021F48091C20204
:10193000845F03C08091C2028C508093C202809168
:10194000C202813F20F08091C202885E0AC080916D
:10195000C202883120F08091C202885102C0809179
:10196000C2028093C2020895E0917002E093AC023B
:101970007093B5026093B4029093B7028093B6025D
:101980005093BC024093BB023093C0022093BF022D
:101990001092AE021092AD028CE080937002089516
:1019A000EF92FF920F931F9381E00E948429809110
:1019B000AC02883051F480917302833009F042C147
:1019C0008091BB028093B1023DC1813009F07CC09F
:1019D00080912D028823E1F46091BB027091BC02DA
:1019E000882777FD8095982F0E94F43020E030E022
:1019F00040E05FE30E94F52F25E83BEE41E550E42F
:101A00000E9480310E94C1307093BC026093BB027F
:101A100080917302813021F0823009F013C14BC0F4
:101A20006091CB027091CC028091CD029091CE0258
:101A30000E94F4307B018C016091BB027091BC026A
:101A4000882777FD8095982F0E94F4302FEB3EE099
:101A50004CE95EE30E9480319B01AC01C801B701F3
:101A600084DB60939A0270939B0280939C02909314
:101A70009D026091CB027091CC028091CD02909139
:101A8000CE020E94F4304BDB25E83BEE41E550E40A
:101A90000E9480316093D1027093D2028093D3026E
:101AA0009093D4028091BB029091BC029093D60295
:101AB0008093D502C7C08091BB029091BC029093E5
:101AC000BE028093BD02BEC08091B3028230D1F5C8
:101AD00080912D028823E1F46091BB027091BC02D9
:101AE000882777FD8095982F0E94F43020E030E021
:101AF00040E05FE30E94F52F25E83BEE41E550E42E
:101B00000E9480310E94C1307093BC026093BB027E
:101B100080917302833019F0843091F409C0809170
:101B2000BB029091BC029093F8068093F70608C020
:101B30008091BB029091BC029093ED068093EC06DD
:101B400082E07EC0843009F043C080912D0288235A
:101B500059F08091BB029091BC02880F991F90931D
:101B6000BC028093BB021AC08091BB029091BC0260
:101B70009C01220F331FC901F3E0880F991FFA95CA
:101B8000E1F7820F931F029665E070E00E948733B1
:101B9000605C7F4F7093BC026093BB0280917302C4
:101BA000833019F0843091F409C08091BB02909188
:101BB000BC029093F4068093F30608C08091BB02A8
:101BC0009091BC029093E9068093E80684E038C0C7
:101BD0008630C1F580912D026091BB027091BC02EC
:101BE000882379F0882777FD8095982F0E94F4301C
:101BF00020EA34E747E852E40E9480310E94C13075
:101C000002C0660F771F7093BC026093BB02809185
:101C10007302833019F0843091F409C08091BB02C3
:101C20009091BC029093F6068093F50608C08091CF
:101C3000BB029091BC029093EB068093EA0686E08B
:101C40008093AC028091AC02809370021092720279
:101C500081E080936C021F910F91FF90EF900895A7
:101C6000282F30E04091BB025091BC0287FD07C095
:101C7000240F351F3093BC022093BB0209C0CA0158
:101C800080509140820F931F9093BC028093BB02BF
:101C90008091B6029091B7022091BB023091BC02B4
:101CA0002817390724F49093BC028093BB028091DB
:101CB000B4029091B5022091BB023091BC02821710
:101CC000930724F49093BC028093BB028091AC02F2
:101CD000883089F480917302853069F48091BB0269
:101CE0008093F20680E061E80E94B9296091F206D3
:101CF00080E00C94B9290895209170022093AC02E1
:101D00009093AB028093AA027093A9026093A802F9
:101D10005093BA024093B902109275028DE08093FD
:101D2000700208959091750281E0891B809375027D
:101D30000895CF93DF9380917002883009F072C0CC
:101D400080917302843009F45FC0853040F48230A2
:101D500089F18330E8F5813009F0C4C20AC08630C9
:101D600009F44AC0863008F43DC0873009F0BAC291
:101D700043C08BE080937002109273028FB7F89487
:101D80009091A0029093B2029091A7029093B80212
:101D90009091A6029093C20290919F029093C102EB
:101DA00090919E029093B0029091A1029093AF0205
:101DB0008FBF98C281E191E062E171E04BE151E0B7
:101DC0009BDF90912D0281E0992349F180E027C0AB
:101DD0004091B10280E090E068E770E050E022E2DC
:101DE00031E07FC24091F20680E090E06FEF70E05A
:101DF00050E020E030E075C284E291E062E371E0FF
:101E000045E351E079DF6EC281E191E069E371E081
:101E10004CE351E071DF9091610281E0891B809376
:101E2000750260C220917002213009F097C0809144
:101E30007302813021F0823009F054C250C06091A9
:101E4000D1027091D2028091D3029091D40220E00D
:101E500030E040E05FE30E94F52F0E94C130AB010B
:101E6000BC0180912D028823A1F4BA01882777FD57
:101E70008095982F24E630E040E050E00E944833FF
:101E800028E431E040E050E00E94BC33832F422F31
:101E9000582FE0912D0280912D02A0912D02F0E0AB
:101EA000EE0FFF1FE65BFD4FC82FD0E0CC0FDD1F0C
:101EB000CA5ADD4F68817981B0E0AA0FBB1FA25CCE
:101EC000BD4F2D913C912F5F3F4F808191814CDD23
:101ED00080E491E09093AE028093AD0203C28091C2
:101EE000BD029091BE023FE78F3F930759F08FEFFD
:101EF0009FE79093BE028093BD02109272022093DE
:101F00006C02F0C16091D1027091D2028091D30233
:101F10009091D40220E030E040E05FE30E94F52F92
:101F20000E94C130AB01BC0180912D02882309F0D1
:101F30006FC1BA01882777FD8095982F24E630E09D
:101F400040E050E00E94483328E431E040E050E0B7
:101F50000E94BC33832F422F582F5AC180917002A8
:101F6000882349F5809173028150863008F0BAC108
:101F700081E00E948429809170028093AC0280915C
:101F800073028093740289E080937002E09173027F
:101F9000F0E0EE53FD4F80818093730280917302D5
:101FA000853030F0809173028450809376025EC158
:101FB000109276025BC180917002893001F5E09148
:101FC0007402F0E080917302EE53FD4F80838091A4
:101FD000AC028093700280917402809373028091AE
:101FE0007302853030F080917302845080937602C2
:101FF00002C01092760281E08093720238C1809113
:1020000070028730A9F480917302813039F08230F8
:1020100009F068C181E080936E0227C0809172024E
:102020008F5F8093720210927602109273025AC1EF
:10203000809170028A3009F055C12091AC02209342
:10204000B30280917302823099F0833020F48130A2
:1020500009F048C106C0833021F1843009F042C143
:1020600068C0809377022093700210927202FFC0C2
:1020700081E191E066E571E04CE551E03DDE809163
:10208000B302843019F48091F906C9CE823019F474
:102090008091FB06C4CE863009F024C18091FA06F7
:1020A000BECE2430C9F48091F3069091F4062FE758
:1020B0008F3F920761F08FEF9FE79093F406809334
:1020C000F3061092720284E080937002CFC04091B8
:1020D000EE065091EF0643C02230A1F48091F7063E
:1020E0009091F8063FE78F3F930739F08FEF9FE716
:1020F0009093F8068093F706B5C04091EE06509194
:10210000EF0671C0263009F0EDC08091F506909180
:10211000F6063FE78F3F930739F08FEF9FE79093E5
:10212000F6068093F5069EC04091EE065091EF06AC
:10213000A5C0243009F041C08091E8069091E906DD
:102140003FE78F3F930739F08FEF9FE79093E906C2
:102150008093E80687C04091F0065091F106809187
:102160002D02882371F4CA01880F991F880F991FC7
:10217000840F951F805A904069E070E00E94873379
:10218000AB01E0912D0280912D02A0912D02F0E093
:10219000EE0FFF1FEA5BFD4FC82FD0E0CC0FDD1F15
:1021A000CE5ADD4F68817981B0E0AA0FBB1FA65CD3
:1021B000BD4F2D913C91119792C0223009F041C042
:1021C0008091EC069091ED063FE78F3F930739F041
:1021D0008FEF9FE79093ED068093EC0643C040910C
:1021E000F0065091F10680912D02882389F4BA01FE
:1021F000882777FD8095982F0E94F4302FEB3EE0E2
:102200004CE95EE30E9480310E94C130AB01BC0109
:10221000E0912D0280912D02A0912D02F0E0EE0FB1
:10222000FF1FE65BFD4FC82FD0E0CC0FDD1FCA5A61
:10223000DD4F68817981B0E0AA0FBB1FA25CBD4F62
:102240004AC0263009F04EC08091EA069091EB0614
:102250003FE78F3F930771F08FEF9FE79093EB0677
:102260008093EA06109272022093700281E08093BC
:102270006C0238C04091F0065091F10680912D0219
:10228000882389F4BA01882777FD8095982F0E94CA
:10229000F43020EA34E747E052E40E9480310E94A3
:1022A000C130AB01BC01E0912D0280912D02A091C3
:1022B0002D02F0E0EE0FFF1FE85BFD4FC82FD0E0CE
:1022C000CC0FDD1FCC5ADD4F68817981B0E0AA0FB9
:1022D000BB1FA45CBD4F2D913C912F5F3F4F808170
:1022E000918142DBDF91CF910895E0917002F0E09F
:1022F000EE0FFF1FE85FFD4F2081318190E001C0AC
:102300009F5FE92FF0E0EE0FFF1FE20FF31F4591F3
:10231000549141155105A1F720917302280F209384
:10232000730280917302891719F41092730207C027
:10233000809173028F3F19F49150909373029091A2
:10234000730280917602981728F48091730280932B
:1023500076020895209173028091760230E090E039
:102360000696821793072CF480917302865080930F
:102370007602089584E18093B1028FEF9FE79093F6
:10238000BE028093BD0282E08093C30281E080930D
:10239000C4028CE08093C50293E09093C6028093C0
:1023A000C70288E08093C80208951F9381E00E94CD
:1023B00084298091AC028830D9F5809173028430F1
:1023C00031F1853020F4823009F04AC027C08630D0
:1023D00059F0873009F044C080917502813009F0CE
:1023E0003FC080936D023CC0109175021130C1F561
:1023F0000E949E2ABFDF1093610283E080932D022A
:102400000E9456061092D6021092D50229C09091D1
:10241000750281E0891B8093610222C09091750250
:10242000892F880F890F81958D5F80932D0218C0A9
:102430008091B302823029F4909175029093FB064B
:102440000DC0843029F4909175029093F90606C06E
:10245000863031F4909175029093FA068093AC0225
:102460008091AC02809370021092720281E080939E
:102470006C021F910895EF92FF920F931F93CF93D9
:10248000DF9380E00E941B24682F6B50613808F0B6
:10249000605880E00E942C24FC01828186958695FC
:1024A00086959381292F2295220F207EE22EE82AFD
:1024B000E7017E01969596959695F92EE70120976E
:1024C000E1F16091D1027091D2028091D30290919A
:1024D000D40220E030E048EC52E40E9480310E94B7
:1024E000C1307B018C0180EA9CE1A2E0B0E0E80E03
:1024F000F91E0A1F1B1FBE0180E090E028EC30E0AF
:1025000040E050E00E944833E61AF70A080B190B26
:10251000C801B7012AE030E040E050E00E94BC333F
:102520002E5C3F4F4F4F5F4FCA01B90124E630E0A8
:1025300040E050E00E94BC3304C02FEF3FEF4FEF6C
:102540005FE7B901CA01CDB7DEB7E6E00C94FF330F
:1025500080E00E941B24682F6D53613808F060589A
:1025600080E00E942C24FC018081882389F0209146
:10257000CF023091D002442737FD4095542F2C5E76
:102580003F4F4F4F5F4F281B31094109510904C08C
:102590002FEF3FEF4FEF5FE7B901CA010895EF92C8
:1025A000FF920F931F9380E00E941B24682F6D53AE
:1025B000613808F0605880E00E942C24FC016181A1
:1025C0008281782F777061157105E9F0E090CB0278
:1025D000F090CC020091CD021091CE0280EE91EBF2
:1025E000AFEFBFEFE80EF91E0A1F1B1F80E090E05F
:1025F00022E330E040E050E00E944833E61AF70A58
:10260000080B190B08C06FEFE62E6FEFF62E6FEF79
:10261000062F6FE7162FB701C8011F910F91FF908A
:10262000EF900895EF92FF920F931F9381E00E9425
:102630001B24682F6C54613808F0605881E00E94B8
:102640002C24FC0161818281782F777061157105DE
:1026500029F1E090CB02F090CC020091CD021091D4
:10266000CE0280EE91EBAFEFBFEFE80EF91E0A1F2E
:102670001B1F80E090E022E330E040E050E00E9449
:102680004833E61AF70A080B190BC801B70125E011
:1026900030E040E050E00E94BC3304C02FEF3FEF39
:1026A0004FEF5FE7B901CA011F910F91FF90EF90C3
:1026B00008956F3F2FEF72072FEF82072FE79207E2
:1026C000D9F1693C71058105910574F5693771058A
:1026D000810591055CF5663371058105910544F529
:1026E00016161706180619062CF1611571058105D5
:1026F000910511F16B3C2FEF72072FEF82072FEF3F
:102700009207E4F468382FEF72072FEF82072FEF5C
:102710009207B4F468332FEF72072FEF82072FEF81
:10272000920784F087E0089580E0089581E008959D
:1027300082E0089583E0089584E0089585E0089597
:1027400086E0089588E00895AAE0B0E0EAEAF3E1BF
:102750000C94DD338C0170E0615070406C30710579
:1027600008F062C26C5C7F4FFB010C940E34DC01FC
:102770001C926DC24091CF025091D00260E015C012
:102780006091D1027091D2028091D3029091D402D3
:1027900020E030E040E05FE30E94F52F0E94C1306E
:1027A0009B01AC01C80162E0A9010E94B6274FC29B
:1027B0006FEC78E00E944034D8010D900020E9F7DA
:1027C0007D010894E108F108E01AF10A6091CB025A
:1027D0007091CC028091CD029091CE02675E7F4FC6
:1027E0008F4F9F4F22E330E040E050E00E94BC3327
:1027F000C8018E0D9F1D44C062EC78E00E944034F9
:10280000E090D502F090D6026091CB027091CC029C
:102810008091CD029091CE020E94F4304B015C0178
:10282000B701882777FD8095982F0E94F4302FEB11
:102830003EE04CE95EE30E9480319B01AC01C501A2
:10284000B4010E94B508D8010D900020E9F77D0180
:102850000894E108F108E01AF10AE00EF11E20E008
:1028600030E048EC51E40E94F52F20E030E048E4ED
:1028700052E40E9459300E94C1309B01AC01C70153
:1028800061E092CFF8DD6B017C0197FD0FC0C801BC
:1028900067EB78E00E944034BFEFCB16BFEFDB065A
:1028A000BFEFEB06BFE7FB0639F009C0C8016BEAD2
:1028B00078E00E94403403C0CC24DD247601D801A6
:1028C0000D900020E9F7CD010197801B910B800F3F
:1028D000911F62E0A6010E94B627C80166EA78E06F
:1028E0004EC1C9DD4B015C01C80168E978E00E9476
:1028F0004034C090BD02D090BE026091D102709170
:10290000D2028091D3029091D402BFEF8B16BFEF19
:102910009B06BFEFAB06BFE7BB0671F12091BD027E
:102920003091BE02EFE72F3F3E0731F1EE24D7FC96
:10293000E094FE2C0E94C130C61AD70AE80AF90AB0
:10294000C501B40122E030E040E050E00E94BC3319
:10295000C20ED31EE41EF51EC701B601A5019401E7
:102960000E94BC3357FD08C02438F9E03F07F0E06F
:102970004F07F0E05F0724F0C80162E978E0FFC08C
:10298000CA01B9012CE330E040E050E00E94BC33C2
:10299000E62EC801622F0E94E408C80160E978E0D1
:1029A0000E943534C8016E2D0E94E40850C16AE8C7
:1029B00078E00E944034CCDD6F30710581059105CF
:1029C000ACF569307105810591050CF032C16330B9
:1029D0007105810591050CF02EC116161706180613
:1029E00019060CF42AC1611571058105910509F4D8
:1029F00026C16E3F2FEF72072FEF82072FEF92074E
:102A00000CF01FC1683F4FEF74074FEF84074FEF83
:102A100094070CF018C1623FAFEF7A07AFEF8A0757
:102A2000AFEF9A070CF011C1E8E009C06F3FBFEFAC
:102A30007B07BFEF8B07BFE79B0749F0E0E0F0E0C3
:102A4000EE0FFF1FEE5DF84F2591349113C0EAE2BF
:102A5000F7E0259134910EC060E878E00E944034A0
:102A60009EDD27DE90E0880F991F8E5D984FFC0158
:102A700025913491C801B90182C066E778E00E94CF
:102A800040348DDD6B017C0114DE8987CBDD4B0189
:102A90005C010FDE282F3985EFEFCE16EFEFDE0653
:102AA000EFEFEE06EFE7FE0649F0FFEF8F16FFEFC0
:102AB0009F06FFEFAF06FFE7BF0621F4C8016AE6F5
:102AC00078E05DC0832F8750823030F4263060F488
:102AD000C8016DE578E053C0353031F4253021F47C
:102AE000C80163E578E04BC0932F9550923040F4D5
:102AF000822F8550823060F4C80166E478E03FC0E0
:102B0000373030F0263020F0C8016AE378E037C073
:102B1000832F8250823040F4422F4250423090F452
:102B2000C8016DE278E02BC0323030F4223050F032
:102B3000C80164E278E023C0383021F4C80168E1BC
:102B400078E01DC0373021F4C80161E178E017C09A
:102B5000923020F4C8016CE078E011C0343021F4E8
:102B6000C80162E078E00BC0823020F4C8016DEF4C
:102B700077E005C0323030F4C80162EF77E00E94A0
:102B8000353465C0C8016DEE77E02A8739870E9429
:102B90003534D8010D900020E9F7BD016150704037
:102BA000601B710B600F711F3985832F90E04AE025
:102BB00050E00E946134C8016BEE77E00E9435342A
:102BC000D8010D900020E9F7BD0161507040601BF5
:102BD000710B600F711F2A85822F90E04AE050E050
:102BE0000E94613434C06091A6024091A7022091F6
:102BF000A0020E9450092BC060919F0240919E024A
:102C00000E94F908C80169EE77E00E9435346091AE
:102C1000A6024091A702CE0101960E941709BC01AD
:102C2000C8010E94563413C06BED77E00E94403417
:102C30000EC0E1E004CFE2E002CFE3E000CFE4E049
:102C4000FECEE5E0FCCEE6E0FACEE7E0F8CE2A964E
:102C5000ECE00C94F933AF92BF92CF92DF92FF92E7
:102C60000F931F93DF93CF930F92CDB7DEB75C0125
:102C7000CB01BA012CE330E040E050E00E949A33EF
:102C8000F62ECA01B90128E130E040E050E00E9490
:102C90009A33162FCA01B901B5E0969587957795B5
:102CA0006795BA95D1F7022F0F712DE030E040E023
:102CB00050E00E949A33462FC501602F29830E945D
:102CC000F908C50169ED77E00E943534D5010D9012
:102CD0000020E9F7BD01615070406A197B09298124
:102CE000822F90E06A0D7B1D8053984F4AE050E0A0
:102CF0000E946134C50167ED77E00E943534D5014B
:102D00000D900020E9F7CD0101978A199B098A0DE2
:102D10009B1D612F4F2D0E9417090F90CF91DF91BE
:102D20001F910F91FF90DF90CF90BF90AF900895CB
:102D3000EF92FF920F931F93CF93DF93EC018B01E0
:102D4000DB0112968C91129786958695869513963F
:102D50009C91292F2295220F207E422F482B592FFC
:102D6000569556955695445B5240CE0162E00E94BE
:102D7000CF27CE0165ED77E00E9435347E01EC2F40
:102D8000FF2DDF010D900020E9F7CD0101978E1B8B
:102D90009F0BF801408150E0445150408C0F9D1F23
:102DA00060E00E94CF27CE0163ED77E00E943534CA
:102DB000EC2FFF2DDF010D900020E9F7CD010197E9
:102DC0008E1B9F0BF80141812281522F5770405773
:102DD0005E4F8C0F9D1F61E00E948A27CDB7DEB742
:102DE000E6E00C94FF33A6E1B0E0E9EFF6E10C94E5
:102DF000D7330E940326482E55240E943826FC0112
:102E000080819181A281B3810097A105B10551F420
:102E100080E062E00E94792A83E691E060E00E940F
:102E2000622A39C10E94662600E010E06E01089413
:102E3000C11CD11C282E3324A02EB02EB39480E0C8
:102E40006B2D0E94792A809176027201E81AF108AE
:102E5000E01AF10AF7FE04C00E946426E80EF11C95
:102E60008E2D0E943826FC016080718082809380C4
:102E7000611471048104910409F4D9C0909176021F
:102E8000809173029801290F311D90E028173907AE
:102E900011F46FE701C060E081E00E94B929C70129
:102EA0000196B6014AE050E00E94613490917602AA
:102EB000809173029801290F311D90E061E028177D
:102EC000390709F060E0C6010E94622AF60101900C
:102ED0000020E9F73197EE2EEC1890917602809160
:102EE00073029801290F311D90E02817390711F45A
:102EF0006FE501C060E281E00E94B92990917602FD
:102F0000809173029801290F311D90E0281739072D
:102F100011F46FE701C060E081E00E94B92990914F
:102F20007602809173029801290F311D90E02817D5
:102F3000390711F46FE701C060E081E00E94B92910
:102F4000C601B401A30187DE9091760280917302DD
:102F50009801290F311D90E061E02817390709F029
:102F600060E0C6010E94622AF60101900020E9F7A4
:102F70003197EC19FD09FF240894E11CF11CEE0EB9
:102F8000FF1EEE0CEE0C12C090917602809173023F
:102F90009801290F311D90E02817390711F46FE7C8
:102FA00001C060E081E00E94B929E394E7FEECCF24
:102FB000AA2091F480917602882399F180E56B2D07
:102FC0000E94792A909176028091730261E09813B1
:102FD00060E08DE091E023C0FA2DF33011F580918F
:102FE000760290E00196800F911F82159305C9F03B
:102FF000809173028F3FA9F080E56B2D0E94792AA2
:1030000090917602809173029801290F311D90E012
:1030100061E02817390709F060E08FE091E00E9435
:10302000622A0F5F1F4F0430110509F005CF809110
:103030007302481A510857FE04C00E946426480EC5
:10304000511C842D0E9438268C0180E065E00E948E
:10305000792A81E061E00E94B929B8016C5F7F4F55
:103060008E010F5F1F4FC80163DEC80160E00E9440
:10307000622AF80101900020E9F73197E01BF10B7B
:103080000E2F000F000F04C081E061E00E94B929FB
:103090000F5F07FFF9CF6696E2E10C94F3331F93BD
:1030A000182F0E94662690917302910F90937302DD
:1030B00090917302981719F41092730207C09091BF
:1030C00073029F3F19F481508093730290917302B1
:1030D00080917602981718F4809173020DC02091A8
:1030E00073028091760230E090E003968217930796
:1030F0002CF4809173028350809376021F9108957F
:1031000081E00E9484291092720281E080936C0217
:103110000895AEE1B0E0EFE8F8E10C94DF33809180
:103120007A02882371F180E060E00E94792A00E051
:1031300010E009C0F801E45AFE4F649181E00E945A
:10314000B9290F5F1F4F23E00030120799F780E085
:1031500066E00E94792A8E01085F1F4FC8016FEB5D
:1031600077E00E944034C80160E00E94622A80E05B
:1031700067E00E94792AC8016FEA77E00E94403434
:1031800076C180917002882309F073C08091720229
:10319000882309F06BC000E010E038E0E32EF12C4A
:1031A000EC0EFD1EC02EF801ED53FD4F6081C701EE
:1031B000CBDA1D8E80E0602F0E94792A90E081E0BA
:1031C00060E09E8F0E94B9299E8D9F5F9038B9F76D
:1031D000F70101900020E9F73197EE198E2F880F43
:1031E0008E0F8195815C6C2D0E94792AC70160E069
:1031F0000E94622A0F5F1F4F0230110599F600E00E
:1032000010E028E0E22EF12CEC0EFD1E92E0C92E1B
:10321000C00EF801EB53FD4F6081C70195DA1D8E9A
:1032200080E06C2D0E94792A90E081E060E09E8F22
:103230000E94B9299E8D9F5F9038B9F7F7010190E0
:103240000020E9F73197EE198E2F880F8E0F8195A8
:10325000815C6C2D0E94792AC70160E00E94622A7D
:103260000F5F1F4F0430110589F6A5C581E791E076
:103270009DC5809170028A30D1F48091AC02843077
:1032800021F0863021F481E003C080E001C082E0BB
:10329000609171029091720241E0911140E00E94B0
:1032A000512B80917202813009F085C582C58091D1
:1032B0007002883009F0E0C08091720261E08111F3
:1032C00060E083E891E00E94CC2A8091720288231A
:1032D00009F06FC561E00E94792A8AE891E060E018
:1032E0000E94622A88E0E82EF12CEC0EFD1EC70138
:1032F0006CE574E00E944034C70160E00E94622ADD
:103300000E940C065B016C0185E090E0A0E0B0E05B
:10331000A80EB91ECA1EDB1EC70166EA77E00E942E
:103320004034D7010D900020E9F78D010150104085
:103330000E191F09C601B5012AE030E040E050E057
:103340000E94BC33CA01B9010E94F43020E030E091
:1033500048EC52E40E9459300E0D1F1D41E022E05E
:103360000E941434C70164EA77E00E94353480E09B
:1033700062E00E94792AC70160E00E94622A80E030
:1033800063E00E94792AC7016AE977E00E9440342D
:103390008091F206F70101900020E9F7BF0161502A
:1033A000704090E04AE050E00E946134C70160E064
:1033B0000E94622A80E064E00E94792AC70163E9E2
:1033C00077E00E94403480916102882321F0C70198
:1033D00060E977E003C0C7016CE877E00E9435340C
:1033E0008E01085F1F4FC80160E00E94622A609151
:1033F0009F0240919E02C8010E94F90880E065E0AA
:103400000E94792AC80160E00E94622AC8016AE825
:1034100077E00E9440348091A102D8010D900020F5
:10342000E9F7BD0190E0615070408053984F4AE049
:1034300050E00E946134C80160E00E94622A6091FD
:10344000A6024091A7022091A002C8010E94500943
:10345000F80101900020E9F73197E01BF10B8AEFAA
:10346000E89F802D1124805865E00E94792AC801C8
:1034700060E00E94622A9FC480917002873009F048
:1034800065C08091720261E0811160E083E991E0A2
:103490000E94CC2A80917202882309F04BC00E94BE
:1034A0000326C82E0E9438267C01FC012081318130
:1034B00042815381211531054105510539F480E0E0
:1034C00062E00E94792A8DE991E0D2CF8E01085FF7
:1034D0001F4FC80160E877E00E944034D8010D908A
:1034E0000020E9F7BD018C2D90E0615070400196FD
:1034F0004AE050E00E94613480E062E00E94792A54
:10350000C80160E00E94622AF701419151916191E6
:1035100071917F01C8019FDB80E063E00E94792AFE
:10352000C80160E00E94622AC801B70101DC80E0A6
:1035300064E09BCF80917202813009F43AC480919B
:103540007202823009F037C44EDC35C480917002BB
:10355000843041F480917102409178022091770289
:1035600060E017C080917002863041F48091710252
:10357000409178022091770261E00BC08091700247
:10358000823051F48091710240917802209177024B
:1035900062E00E94552C0FC4809170028B3009F0BC
:1035A00003C18DEA91E060E00E94CC2A80E162E0F4
:1035B0000E94792A08E0E02EF12CEC0EFD1EC701D6
:1035C0006EE777E00E9440344091B0028E010F5FB9
:1035D0001F4FC80161E00E94F9081C82C701B801B1
:1035E0000E945634C7016CE777E00E943534809121
:1035F000730261E0811160E0C7010E94622A8E01BE
:10360000085F1F4FC8016AE777E00E94403460916D
:10361000C102C8010E94E408C80168E777E00E947F
:1036200035348091730261E0813009F060E0C801B7
:103630000E94622A8E01085F1F4FC80166E777E08B
:103640000E9440348091AF02D8010D900020E9F72C
:10365000BD0190E0615070408053984F4AE050E0C7
:103660000E946134C80164E777E00E94353480919C
:10367000730261E0823009F060E0C8010E94622AB2
:1036800088E064E00E94792A8091C202882359F080
:103690008091C2028C3039F08091C2026CE00E94AD
:1036A0006733292F01C02CE08E01085F1F4FC8012E
:1036B00062E777E02E8F0E944034C8012E8D622F82
:1036C0000E94E408C80160E777E00E9435348091E9
:1036D000730261E0833009F060E0C8010E94622A51
:1036E0008BEB91E060E00E94622A8E01085F1F4F21
:1036F000C8016EE677E00E9440346091B802C801CC
:103700000E94E408C8016CE677E00E94353480919D
:10371000730261E0843009F060E0C8010E94622A0F
:103720008BEB91E060E00E94622A8E01085F1F4FE0
:10373000C8016AE677E00E9440346091B202C80195
:103740000E94E408C80168E677E00E943534809161
:10375000730261E0853009F060E0C8010E94622ACE
:103760008E01085F1F4FC80166E677E00E94403473
:103770008091C2028C3020F4C80163E677E003C078
:10378000C80160E677E00E9435348E01085F1F4F64
:10379000C8016EE577E00E9435348091730261E0E4
:1037A000863009F06EC16EC1809170028C3009F0D4
:1037B000C9C080917302E091AC02F0E0EE0FFF1FF0
:1037C000E85FFD4F90E0880F991F0190F081E02D98
:1037D000E80FF91F259134918E01085F1F4FC80132
:1037E000B9010E944034C80160E00E94CC2A2091B7
:1037F000AD023091AE0221153105D1F0C901F901B8
:1038000001900020E9F731978E1B9F0B880F991FBD
:10381000880F991F8C5A9F4F9695879562E00E945A
:10382000792A8091AD029091AE0260E00E94622AF6
:103830006091B4027091B502AA24A3942AE030E00A
:1038400005C0A394CB01B9010E9487336A3071058A
:10385000C4F782E190E08A19910962E070E00E9469
:103860008733862F880F880F2091AD023091AE02EA
:103870002115310511F064E001C063E00E94792A4E
:103880002091BB023091BC02CE01089637FF03C0E5
:103890006CE577E002C06AE577E00E944034E09092
:1038A000BB02F090BC02F7FE04C0F094E194F10872
:1038B000F3940AE010E0E8E0CE2ED12CCC0EDD1E11
:1038C00013C0E016F1062CF4C60168E577E00E940B
:1038D0003534C801880F991F63E0000F111F6A95E6
:1038E000E1F7080F191FAA94BA2DB23050F78E01D4
:1038F000085F1F4FF80101900020E9F7BF016150F8
:103900007040C7014AE050E00E946134C80166E59A
:1039100077E00E943534C80161E00E94622A60911C
:10392000BF027091C0026115710509F444C2C8015B
:103930000E944034C80161E00E94622A8DEB91E050
:1039400061E097CD809170028D3009F09DC080912B
:103950007302E091AC02F0E0EE0FFF1FE85FFD4F55
:1039600090E0880F991F0190F081E02DE80FF91F7A
:10397000259134918E01085F1F4FC801B9010E9443
:103980004034C80160E00E94CC2AE091AA02F09184
:10399000AB0280818823C9F0CF0101900020E9F7B4
:1039A00031978E1B9F0B880F991F880F991F8C5A78
:1039B0009F4F9695879562E00E94792A8091AA028E
:1039C0009091AB0260E00E94622AE091A802F0911F
:1039D000A902DF010D900020E9F711978E2F8A1BB5
:1039E000880F880F805EA091AA02B091AB029C91D3
:1039F000992311F064E001C063E00E94792A8E01EE
:103A0000085F1F4FC80164E577E00E944034609171
:103A1000A8027091A902C8010E945634C80162E54B
:103A200077E00E9435348091750261E0811160E099
:103A3000C8010E94622AE091AA02F091AB02808143
:103A4000882311F064E001C063E08CE20E94792ACF
:103A50008E01085F1F4FC80160E577E00E94403487
:103A60006091B9027091BA02C8010E945634C8012F
:103A70006EE477E00E9435348091750261E0813018
:103A800009F060E0C801F5CC80917002813009F046
:103A90005DC08091720261E0811160E08FEB91E086
:103AA0000E94CC2A80917202882309F082C18E0183
:103AB000085F1F4FC80162E00E94A41380E061E02C
:103AC0000E94792AC80160E00E94622AC80163E06E
:103AD0000E94A41380E062E00E94792AC80160E09D
:103AE0000E94622A8091BD029091BE02FFE78F3F43
:103AF0009F07D1F080E064E00E94792AC80161E468
:103B000077E00E944034D8010D900020E9F7CD0104
:103B10004091BD025091BE02019762E00E94B6271B
:103B2000C80160E00E94622A8091BD029091BE02AD
:103B3000BFE78F3F9B0709F43EC18E01085F1F4F0F
:103B4000C80164E00E94A41380E08ECC80917002D2
:103B5000833009F06BC08091720261E0811160E0F6
:103B600088EC91E00E94CC2A80917202882309F0AF
:103B700020C161E00E94792A8E01085F1F4FC801B1
:103B800061E00E94A413C80160E00E94622A80E004
:103B900062E00E94792A84ED91E060E00E94622A4E
:103BA0000E94A8126B017C016F3FEFEF7E07EFEFE1
:103BB0008E07EFE79E0731F4C8016DE377E00E94BE
:103BC000403414C097FD06C0C8016BE377E00E9443
:103BD000403401C01886CE010896DC010D9000200B
:103BE000E9F7CD010197B6010E940E27CE01089694
:103BF00060E00E94622A8BED91E060E00E94622A00
:103C000080E063E00E94792A00E081E060E00E94A9
:103C1000B9290F5F0038C9F780E063E00E94792A74
:103C20008E01085F1F4FC80169E09EC0809170023D
:103C3000853009F09CC08091720261E0811160E0E2
:103C400082EE91E00E94CC2A80917202882309F0D2
:103C5000B0C061E00E94792A8E01085F1F4FC80141
:103C600065E00E94A413C80160E00E94622A80E01F
:103C700062E00E94792A0E94CF126B017C016F3FA3
:103C8000BFEF7B07BFEF8B07BFE79B0731F4C8018E
:103C900066E377E00E94403421C097FD06C0C8016A
:103CA00064E377E00E94403401C01886FE01389634
:103CB000DF010D900020E9F78D01C701B601675EB5
:103CC0007F4F8F4F9F4F22E330E040E050E00E9453
:103CD000BC33C8010197B9010E943427CE01089670
:103CE00060E00E94622A8BEE91E060E00E94622A0E
:103CF00080E063E00E94792A00E081E060E00E94B9
:103D0000B9290F5F0038C9F780E063E00E94792A83
:103D10008E01085F1F4FC8016AE00E94A413C8010A
:103D200060E00E94622A80E064E00E94792AC80173
:103D300066E00E94A413C80160E00E94622A80E04D
:103D400065E00E94792A00E081E060E00E94B929E4
:103D50000F5F0038C9F780E065E00E94792A8E0184
:103D6000085F1F4FC8016BE00E94A41380CB8091B5
:103D70007002893001F580917402E091AC02F0E0AC
:103D8000EE0FFF1FE85FFD4F90E0880F991F019035
:103D9000F081E02DE80FF91F259134918E01085F25
:103DA0001F4FC801B9010E944034C80160E00E9461
:103DB000CC2A0E94900A6E96EAE00C94FB33A0E0B5
:103DC000B0E0E5EEFEE10C94DF3385B1876085B9A4
:103DD0000E949E2A0E94C22A80E00E94C42A8FE389
:103DE0009CE90197F1F700C000000E940C0A80E0F6
:103DF00084D70E944A290E94E3270E94BA1178942E
:103E000080E060E00E94792A87EF91E060E00E9404
:103E1000622A0E9463068823E1F38091B6008062E3
:103E20008093B6008091B6008F7B8093B60010928D
:103E3000B00083E08093B1008091B60090E08F7075
:103E400090700097C9F78FE19EE40197F1F700C0E9
:103E5000000081E087BB8093700090916B009760B9
:103E600090936B0090916B00906190936B00909198
:103E70006800916090936800909164009F6A9093AD
:103E8000640080930602AA24A39480916F02882381
:103E900059F010926F020E949E2A0E94C22A80E06E
:103EA0000E94C42AA092070280916D02882351F0DB
:103EB00010926D0280E060E00E94792A0E94C22A7E
:103EC00081E01BD780910602882329F480916E023D
:103ED000882309F465C0809164008F778093640023
:103EE0000E949F060E941107EC010E94C9060E94D1
:103EF0006D076B017C018091640080688093640091
:103F000080910602882321F0CE01B701A601ACD52D
:103F100080916E02882309F43FC0BFB6F894609187
:103F2000A10270E080E090E02DE030E040E050E061
:103F30000E94483320919E02620F711D811D911DC8
:103F400045E0660F771F881F991F4A95D1F720918A
:103F50009F02620F711D811D911D28E130E040E03C
:103F600050E00E9448332091A602620F711D811D0E
:103F7000911D2CE330E040E050E00E9448338B017B
:103F80009C018091A702BFBE080F111D211D311D8C
:103F9000CE01B701A601D7D51092060210926E028B
:103FA00080916C02882321F010926C020E94C22A38
:103FB00080910702882399F010920702AAD80FC0B7
:103FC00080917F02882359F483B7817F866083BF05
:103FD00083B7816083BF889583B78E7F83BF8091CD
:103FE0000602882309F051CF80910702882309F047
:103FF0004CCF80916E02882319F347CF1F93182F5F
:10400000809177028823B1F080917802810F8093AC
:10401000780280917802813F20F48091780287FFB6
:1040200004C080917802805802C080917802809309
:1040300078029BC080917002893040F080917002BC
:10404000893021F0809170028A3041F480917202AF
:10405000813021F4812F0E94751187C080917002F8
:10406000893008F063C080917202882309F05EC035
:104070000E94842980917002843041F08091700206
:10408000863021F0809170028230E1F480917102DB
:10409000810F8093710280917102833031F410920C
:1040A0007102809170028F5F0AC0809171028F3F10
:1040B00011F582E0809371028091700281508093AB
:1040C000700219C080917002810F809370021F3FAF
:1040D00081F480917002843041F0809170028630CA
:1040E00021F080917002823021F482E0809371028D
:1040F00002C01092710280917002813F20F0809185
:104100007002875F0AC080917002893020F0809130
:104110007002895002C080917002809370028FE714
:104120008093780281E080936C021FC080917002BE
:104130008B3021F4812F0E94C60B17C08091700232
:104140008C3021F4812F0E94300E0FC080917002BC
:104150008D3021F4812F0E94920E07C08091700251
:10416000873019F4812F0E944F181F9108951F93D3
:1041700080917002863041F080917002843021F08D
:10418000809170028230B1F480917702882361F4CB
:1041900081E00E948429809170028093AC028AE0C1
:1041A0008093700281E01FC082E00E9484291092F7
:1041B00077021FC080917002893018F580917202D9
:1041C0008823F9F4E0917002F0E0EE0FFF1FE85F42
:1041D000FD4F80819181009781F081E00E948429C8
:1041E000809172028F5F8093720210927602109219
:1041F000730281E080936C0258C083E00E9484299E
:1042000054C080917002893040F0809170028930F2
:1042100021F0809170028A3069F51091720211309C
:1042200049F5809173028823F9F482E00E94842981
:104230008091720281508093720280917002893065
:1042400051F48091AC02809370028091740280934B
:10425000730210937202809170028A3051F680913D
:10426000AC0280937002C5CF81E00E9484290E9435
:10427000990EBFCF809170028B3019F40E94960B7B
:1042800014C0809170028C3019F40E94D00C0DC0C3
:10429000809170028D3019F40E94D51106C0809172
:1042A0007002873011F40E9480181F9108951F92A8
:1042B0000F920FB60F921124EF92FF920F931F935C
:1042C0002F933F934F935F936F937F938F939F931E
:1042D000AF93BF93EF93FF930E941A0A8091A202BB
:1042E0009091A302A091A402B091A5028370907056
:1042F000A070B0700097A105B105E1F4809179023A
:10430000882359F480917002883039F480917202C8
:10431000882319F481E0809307028091A00288230A
:1043200049F481E08093060290917902992311F477
:104330008093070280917902882309F06FC08091F1
:10434000A2029091A302A091A402B091A502E090D4
:10435000B200FF2400E010E0BA2FA92F982F882781
:10436000E82AF92A0A2B1B2B80917B0290917C0270
:10437000A0917D02B0917E02E81AF90A0A0B1B0B8C
:1043800080917A028823A1F5189B02C01A9930C047
:1043900081E7E81687E1F80680E0080780E0180763
:1043A00030F0189902C088E21FC088ED1DC089EB6B
:1043B000E8168BE0F80680E0080780E0180730F088
:1043C000189902C08CE010C084EF0EC085EFE8168B
:1043D00081E0F80680E0080780E0180748F01899A7
:1043E00002C084E001C08CEF09DE81E08093070207
:1043F0008091B10290E0A0E0B0E06AE0880F991FE0
:10440000AA1FBB1F6A95D1F78E159F05A007B1079C
:1044100028F481E0809379020E94C42A1092B000AF
:104420008091B60081FDFCCFFF91EF91BF91AF91DC
:104430009F918F917F916F915F914F913F912F91BC
:104440001F910F91FF90EF900F900FBE0F901F9054
:1044500018951F920F920FB60F921124EF92FF92B0
:104460000F931F932F933F934F935F936F937F937C
:104470008F939F93AF93BF93EF93FF931C9902C0C9
:10448000C9D6B9C080917902882371F1189B04C004
:104490001A9B02C0199928C02091A2023091A30250
:1044A0004091A4025091A5028091B20090E0A0E05A
:1044B000B0E0542F432F322F2227822B932BA42B93
:1044C000B52B80937B0290937C02A0937D02B093E6
:1044D0007E021092790280E00E94C42A81E08093DB
:1044E0006C02809307021DC0E090A202F090A3022C
:1044F0000091A4021091A5028091B20020917B024C
:1045000030917C0240917D0250917E0290917A021E
:10451000913051F418996FC01A996DC0199B6BC0F6
:1045200082E080937A0267C090E0A0E0B0E0102FB4
:104530000F2DFE2CEE248E299F29A02BB12B821B40
:10454000930BA40BB50B20917A02223091F4189BA7
:1045500052C01A9B50C0199B4EC08B3F9105A105BC
:10456000B10508F448C010927A0281E080936C0291
:1045700040C0189908C01A9906C0199904C081E072
:1045800080936F0238C0189B02C01A990CC08B3FF1
:104590009105A105B10538F0189902C081E001C06C
:1045A0008FEF2CDD08C0199926C08B3F9105A1051E
:1045B000B10508F1DCDD2091A2023091A302409107
:1045C000A4025091A5028091B20090E0A0E0B0E07A
:1045D000542F432F322F2227822B932BA42BB52B22
:1045E00080937B0290937C02A0937D02B0937E0225
:1045F00081E080930702FF91EF91BF91AF919F916E
:104600008F917F916F915F914F913F912F911F916A
:104610000F91FF90EF900F900FBE0F901F90189585
:104620008093CA0208951092B90080E28093B80086
:104630000895E091CA0230E0F4EA24E8AE2FA160C8
:104640003F5F393C09F486C0F093BC009091BC00F8
:1046500097FFFCCF9091B900987F9093C902903159
:1046600029F0983389F3983009F076C0E093BB00C5
:104670002093BC009091BC0097FFFCCF9091B900B3
:10468000987F9093C9029032D9F29833E9F2983129
:1046900009F05BC08093BB002093BC009091BC00EC
:1046A00097FFFCCF9091B900987F9093C902983200
:1046B00021F0983309F049C0C7CFF093BC00909126
:1046C000BC0097FFFCCF9091B900987F9093C902EE
:1046D000903129F0983309F4B7CF9830B1F5A09311
:1046E000BB002093BC009091BC0097FFFCCF909141
:1046F000B900987F9093C902983309F4A5CF9034FC
:1047000021F5E42FF52F94EC1AC06130710509F4FE
:1047100094E89093BC008091BC0087FFFCCF80910F
:10472000B900887F8093C902803521F0883569F40B
:1047300060E070E08091BB008193615070408E2FEB
:10474000841B161617060CF301C080E094E99093C1
:10475000BC00089580E0089580E008955091CA0259
:1047600020E044EA34E82F5F293C09F44DC040932F
:10477000BC009091BC0097FFFCCF9091B900987F4E
:104780009093C902903121F0983389F39830F1F574
:104790005093BB003093BC009091BC0097FFFCCFBE
:1047A0009091B900987F9093C9029032E1F29833CA
:1047B000F1F2983121F58093BB003093BC009091C9
:1047C000BC0097FFFCCF9091B900987F9093C902ED
:1047D000983219F0983399F4CACF6093BB0084E8FB
:1047E0008093BC008091BC0087FFFCCF8091B90012
:1047F000887F8093C902883211F481E001C080E093
:1048000094E99093BC00089580E0089580E00895B5
:10481000282F30E0225030403695322F222737950E
:104820002795260F311D220F331F220F331F205FC4
:104830003F4FC9010895282F30E0823028F42D51D0
:10484000394FF90180810895C901880F991F880F98
:10485000991F05970C948034823080F4282F30E023
:104860003695322F222737952795260F311D220F97
:10487000331F220F331F21523D4F0DC0C9DF0E944D
:1048800088346093DF067093E0068093E10690938E
:10489000E2062FED36E0C9010895A0E0B0E0E3E5BF
:1048A000F4E20C94DB33EC0179018A012093CB0212
:1048B0003093CC024093CD025093CE02CB01E3E083
:1048C000880F991FEA95E1F7860F971F65E070E062
:1048D0000E948733605C7E4F5B01CC24B7FCC094A0
:1048E000DC2CC601B50125E030E040E050E00E943C
:1048F000BC333093D0022093CF02C601B5016C398E
:104900002FEF72072FEF82072FEF920724F46CE945
:104910007FEF8FEF9FEF6A597F4F8F4F9F4F25E0BB
:1049200030E040E050E00E94BC33A22EB32EC42EF3
:10493000D52E6FEFA616B104C104D10431F02CF0CE
:104940007FEFA72EB12CC12CD12C80E2E8168EE48B
:10495000F80680E0080780E018071CF0C801B701DE
:1049600004C060E27EE480E090E067507E448040D6
:10497000904022E330E040E050E00E94BC33622EE1
:10498000932E842E752EC801B7010E94F4300E9428
:104990008F0825E83BEE41E550E40E948031262F48
:1049A000372F482F592F2093D1023093D2024093B2
:1049B000D3025093D40220E030E040E05FE30E9455
:1049C000F52F0E94C130262F372F482F592F283915
:1049D0006AEF36076FEF46076FEF560724F428E9B2
:1049E0003AEF4FEF5FEF27593A4F4F4F5F4F5595D3
:1049F000479537952795A882862D992DA82DB72DF7
:104A0000803068E0960760E0A60760E0B60724F013
:104A10008FEF97E0A0E0B0E0898397708A81887F6C
:104A2000892B8A83203080E2380780E0480780E0C5
:104A3000580724F02FEF3FE140E050E0922F990F0C
:104A4000990F990F8A818770892B8A83832F880F0A
:104A5000880F880F229526952770282B2B83CDB79A
:104A6000DEB7EEE00C94F733A6E0B0E0EAE3F5E25F
:104A70000C94E033FC019A01AB01CE010196BF0119
:104A80000CDFBEE2EB2EB2E0FB2E03EE16E0CC24F0
:104A9000DD2420E03CE3222391F08091A6024091A6
:104AA000A702839FC0011124840F911DF70160812B
:104AB00071810E9473330097A1F52230C9F0F8018B
:104AC0004081F601E40FF11DEE0FFF1FEE0FFF1FF7
:104AD000E152FD4F89819A81AB81BC8180839183B2
:104AE000A283B383842F8F5F8F77F801808319C0EF
:104AF00083E090E02D833E830E948034B82E82E0D4
:104B00006B2D86DE49815A816B817C810E94A434A1
:104B10006B2D6F5F6F7783E090E00E9492343E814F
:104B20002D812F5F82E090E0E80EF91E0F5F1F4F8E
:104B3000E0E8F0E0CE0EDF1E233009F0ACCF269681
:104B4000E9E00C94FC336F927F928F929F92BF9218
:104B5000CF92DF92EF92FF920F931F93DF93CF9349
:104B600000D000D00F92CDB7DEB7FC016A017B0107
:104B700038014901CE010196BF01A70196018DDEE2
:104B800000E112E020E0CC24CA94DC2C7601BB24A6
:104B9000C8012D830E9488342D816C157D058E05FA
:104BA0009F0518F46B017C01B22E2F5F085F1F4F29
:104BB0002E3371F70B2D10E00E5B1F4F83E0000FBB
:104BC000111F8A95E1F7C801B401A3010E94A43422
:104BD00049815A816B817C81C80104960E94A4346A
:104BE0000F900F900F900F900F90CF91DF911F912A
:104BF0000F91FF90EF90DF90CF90BF909F908F909C
:104C00007F906F900895AF92BF92DF92EF92FF92E4
:104C10000F931F93DF93CF930F92CDB7DEB790E141
:104C2000A92E92E0B92E20E0EE24FF248701DD2496
:104C3000C50129830E94883429816E157F0580076C
:104C4000910718F07B018C01D22E2F5F88E090E055
:104C5000A80EB91E2E3361F78D2D0F90CF91DF91E5
:104C60001F910F91FF90EF90DF90BF90AF9008954C
:104C7000A4E0B0E0EEE3F6E20C94E533082F10E098
:104C80000E5B1F4F23E0000F111F2A95E1F7C801AB
:104C90000E9488346093D7027093D8028093D9021F
:104CA0009093DA02C80104960E9488346093DB0274
:104CB0007093DC028093DD029093DE0287ED92E038
:104CC0002496E4E00C9401348EE308951F93CF936F
:104CD000DF93C0E1D2E010E0CE010E94883461157C
:104CE00071058105910521F01F5F28961E33A1F7FC
:104CF000812FDF91CF911F9108951F93CF93DF9361
:104D0000182F1092D6021092D502A3EEB6E020E042
:104D100030E01D9280E0F901E80FF11DEE0FFF1F5A
:104D2000EE0FFF1FE152FD4F10821182128213829B
:104D30008F5F803881F720583F4F81E0203038075F
:104D400041F780E090E00E948D342EEB833B920788
:104D500011F4112399F18EE192E060E0B3D380E089
:104D600090E043EB5EEB60E070E00E94A43484E0EE
:104D700090E040E050E0BA010E94A43410E082E0EC
:104D8000612F46DD40E050E0BA010E94A4341F5F6D
:104D90001038A9F7C0E1D2E0CE0140E050E0BA01FE
:104DA0000E94A434CE01049640E050E0BA010E9473
:104DB000A434289684E0C030D80771F7DF91CF91F2
:104DC0001F9108950F931F938C01882777FD80957D
:104DD000982F0E94F43020912D02222391F420E09C
:104DE00030E040E852E40E94F42F20E030E040EA56
:104DF00050E40E94803120E030E040E151E40E9424
:104E0000593020E030E040E05FE30E94803141E033
:104E100021E00E9414341F910F9108950F931F9366
:104E20008C01882777FD8095982F0E94F43020917F
:104E30002D02222361F420E030E040EA50E40E9499
:104E4000803120E030E040E151E40E94593020E020
:104E500030E040E05FE30E94803141E021E00E94C9
:104E600014341F910F9108950F931F938C0180911B
:104E70002D02882391F0882777FD8095982F29E8C7
:104E80003BE040E050E00E94483320EA36E841E051
:104E900050E00E94BC33622F732F882777FD8095E6
:104EA000982F0E94F43020E030E040E05FE30E9461
:104EB000803120912D02222311F022E001C020E058
:104EC00041E00E9414341F910F910895CF93DF9316
:104ED000EC01CB0120912D022223A1F49B01B90109
:104EE000882777FD8095982F24E630E040E050E059
:104EF0000E94483328E431E040E050E00E94BC3397
:104F0000822F932FBE014AE050E00E946134DF916E
:104F1000CF910895262FBA01222309F453CF2130CF
:104F200009F4A2CFD3CF662351F4E0912D02F0E033
:104F3000EE0FFF1FE65CFD4F6081718115C061308F
:104F400041F4E0912D02F0E0EE0FFF1FE45CFD4F15
:104F500007C0E0912D02F0E0EE0FFF1FE25CFD4F75
:104F6000608171816F5F7F4F0C9435341F93CF93B5
:104F7000DF93EC01162F8FE74E3F580714F018828D
:104F80000AC0CE01C7DFCE016BEF78E00E94353456
:104F9000CE01612FC8DFDF91CF911F9108951F933C
:104FA000CF93DF93EC01162F8FE74E3F580714F095
:104FB000188205C0CE01AEDFCE01612FB4DFDF91D4
:104FC000CF911F9108952C9A089556D1E4E6F0E010
:104FD0008081877F80831092800089E080938100A8
:104FE000109289008FEC8093880082E086BB2B9A18
:104FF0000895E4E6F0E080818860808308959091D0
:10500000E50698279093E5062B9A92E096BBB19B14
:10501000FECF92E096BBB19BFECF2B9892E096BB61
:10502000B19BFECF98E022E080FF02C02B9A01C026
:105030002B9826BBB19BFECF915011F08695F4CFF3
:105040002B9A82E086BBB19BFECF0895A1E0B0E031
:10505000ECE2F8E20C94DF3381E0D1DF37DEC82EDA
:10506000CEDFD1DDA82EBB240894A11CB11CAC1846
:10507000B108B7FE03C028DEA80EB11CDD241EC097
:105080008A2DF6DD082F0894A11CB11C99831CDE23
:10509000282F30E09981A216B30611F4AA24BB246C
:1050A000192F88E0E82EF12CE00EF11EF801819115
:1050B0008F01A5DF0E151F05C9F7D394DC1400F38B
:1050C0002196EAE00C94FB33A0E0B0E0EAE6F8E2D7
:1050D0000C94E03381E093DF83E091DF80E88FDFA1
:1050E0008091A0028CDF8091A70289DF8091A602C7
:1050F00086DF80919F0283DF80919E0280DF809116
:10510000A1027DDFCEE2D2E0DD248E01898177DF4E
:105110002296F801808173DF8D2D8DDBC82EBB2494
:105120008D2D6C2D99DBC394FC2DF03809F4CC2423
:10513000082F192F94E0E92EF12CE00EF11EF80152
:1051400081918F015CDF0E151F05C9F7B394FB2D0C
:10515000F03831F7D3942D2D2330B9F6CDB7DEB723
:10516000E9E00C94FC331F93CF93DF93182F8CE46A
:1051700046DF8FE444DF87E442DF1092E506123316
:1051800069F0133369F0113361F4CCE5D4E089910F
:1051900036DF84E0C636D807D1F703C095DF01C0FB
:1051A00055DF8091E5062BDFDF91CF911F910895A8
:1051B00080E090E022E008C0B19B06C026BB0196CB
:1051C0003BE48030930711F11C9BF6CF09C0B19BE3
:1051D00008C026BB01963BE48030930711F418C049
:1051E00022E01C99F4CF80E28A95F1F710928500B5
:1051F0001092840098E080E022E026BBB19BFECFB5
:1052000086951C9980689150C1F7089580E00895B3
:1052100080E00895A4E0B0E0E0E1F9E20C94E4332A
:10522000D4DEDE011196EEE5F2E083E001900D920E
:105230008150E1F725E0F22E90E08E010F5F1F4FC5
:105240009C83B6DF9C81F801E90FF11D2081821754
:1052500041F49F5F933049F4ABDF882341F083DF53
:1052600006C091E02981821390E0FA9449F7C1DEEB
:105270002496E5E00C94003410927F025E985898D2
:1052800014BC10926F0016BAE4E6F0E080818862E8
:1052900080830895569A509AEFCF8091E70688232D
:1052A00029F48091E606823078F40CC08091E706FC
:1052B000813039F48091E606882319F0823021F498
:1052C00001C0DACF80E401C080E6909164009F7D48
:1052D0009093640092E494BD93E095BD87BD16BCA5
:1052E00080916400877F80936400109280008DE03D
:1052F000809381009093890080E28093880082E00F
:1053000086BB80936F00089590916102992341F0CC
:105310008093E6061092E70681E080937F02BDCF7E
:1053200008951F920F920FB60F9211242F933F935F
:105330004F935F936F937F938F939F93AF93BF939D
:10534000EF93FF938091E7068F5F8093E706A5DFD9
:10535000FF91EF91BF91AF919F918F917F916F914D
:105360005F914F913F912F910F900FBE0F901F9023
:105370001895882311F05F9A01C05F985C9888E0C7
:105380002D9867FF02C02B9A01C02B982D9A81504F
:1053900011F0660FF5CF5C9A2B9A08958AB1806B55
:1053A0008AB984B1886284B95C9A5D9A8FEC97E07F
:1053B0000197F1F700C000005D988FE19EE401972E
:1053C000F1F700C000005D9A80E06EEAD2DF80E075
:1053D00060E0CFDF80E060E1CCDF80E060E4C9DF47
:1053E00080E061E8C6DF6091F20680E0C2DF80E025
:1053F00061EABFDF80E066EABCDF80E064EAB9DF33
:1054000080E068EAB6DF80E06FE3B3DF80E063ED61
:10541000B0DF80E060E0ADDF80E065EDAADF80E036
:1054200060E8A7DF80E069EDA4DF80E061EFA1DF45
:1054300080E06AED9EDF80E062E19BDF80E06BED63
:1054400098DF80E060E495DF80E060E292DF80E05A
:1054500060E08FDF80E061EA8CDF80E068EC89DF6C
:1054600080E06DE886DF80E064E183DF80E06FEA62
:1054700080CFEF92FF920F931F93CF93DF93F62E7F
:1054800005E0809F80011124035A174FC0E0D0E04F
:105490008FE7E82EF801EC0FFD1F6491F1106E25E7
:1054A00081E067DF2196C530D105A1F7FF2011F01B
:1054B0006FE701C060E081E05CDFCDB7DEB7E6E01A
:1054C0000C94FF33EF92FF921F93CF93DF93162F2D
:1054D000E82EE7017E01F92EE70102C0612FC9DF46
:1054E00089918823D9F7DF91CF911F91FF90EF9099
:1054F00008950F931F93182F062F682F6F7080E069
:1055000038DF612F62956F70606180E032DF602F5D
:105510006770606B80E02DDF1F910F91089580E030
:1055200060E0E7DF5F9A5C982B9880E090E22D982E
:105530002D9A0197E1F75C9A2B9A08958FEF9FE7D8
:105540009093F4068093F3069093E9068093E8061F
:105550001092F9069093F6068093F5069093EB0669
:105560008093EA061092FA069093F8068093F70665
:105570009093ED068093EC061092FB068FEF8093DC
:10558000F2060CCFCCCF0895882319F080E06EEAA4
:1055900002C080E06FEAEDCEA1E0B0E0E2EDFAE219
:1055A0000C94E133D82EE92E162FE82FF92FDF01C6
:1055B0000D900020E9F71197A81B23E130E02A1B8A
:1055C000310935952795C22E0A2F01950D5E021BD4
:1055D00080E060E08EDF112311F06FE701C060E032
:1055E00081E0C7DE112319F042E652E002C044E632
:1055F00052E0CA01612F66DF112331F486E060E0DA
:1056000078DF81E060E4B5DEFF24F39411C011235C
:1056100029F08AE692E061E055DF09C090E081E080
:1056200060E49983A6DE99819F5F9630C1F7F39479
:10563000FC1468F38AE692E0612F44DF8D2D9E2DE5
:10564000612F40DF8AE692E0612F3CDFFF24F39474
:105650000FC0112329F08AE692E061E033DF07C032
:1056600096E0E92E81E060E484DEEA94D9F7F394D1
:10567000F01678F3112311F06FE701C060E481E0C8
:1056800078DE8AE760E035DF112319F086E692E0E4
:1056900002C088E692E0612F15DF2196E8E00C94C5
:1056A000FD33A5E1B0E0E7E5FBE20C94E333282FFE
:1056B000F62EE42E882329F4CE0101966DED7AE0D2
:1056C00009C0CE010196213019F464ED7AE002C0E0
:1056D0006BEC7AE00E9440348E010F5F1F4FC801CF
:1056E00064EC7AE00E943534F80101900020E9F77B
:1056F000CF01EF2DF0E0EE0FFF1FEC5CFD4F20819E
:1057000031810197B9010E943534C8016E2D44DF03
:105710006596E6E00C94FF334F925F927F928F92F2
:105720009F92AF92BF92CF92DF92EF92FF920F9330
:105730001F93DF93CF93CDB7DEB727970FB6F894BB
:10574000DEBF0FBECDBF782E2B014901580182303C
:1057500021F4440C551C440F551FD401F50180E081
:105760001D9211928F5F8431D9F7D6011C928E0160
:105770000F5F1F4FC801672DCDDBD80145E020C06A
:10578000249F90011124C901805A90402B59304028
:10579000FC01E350F74F6491F6015081F501E50FEC
:1057A000F11D60835F5FF6015083019682179307B6
:1057B00079F7F501E50FF11D10825F5FF601508367
:1057C0002D912223E9F6D7011C92CE010196672D77
:1057D000A201A0DB45E021C0249F90011124C90152
:1057E000805A90402B593040FC01E350F74FE49130
:1057F000D7015C91D401A50FB11DEE0FEC935F5F53
:10580000F701508301968217930771F7F401E50FB2
:10581000F11D10825F5FD7015C93F80121918F0128
:105820002223D1F627960FB6F894DEBF0FBECDBF68
:10583000CF91DF911F910F91FF90EF90DF90CF906C
:10584000BF90AF909F908F907F905F904F90089502
:10585000CF93DF93EC0180E060E04BDE81E06FE707
:1058600088DDCE0161E02EDEDF91CF910895A1E0C9
:10587000B0E0ECE3FCE2AAC7182FE82FF92FDF0114
:105880000D900020E9F71197A81B2A2F220F2A0F4D
:10589000220F80E8821B60E099832BDE812F9981A3
:1058A00061E010DE2196E3E0ADC7AAE7B0E0EAE5EB
:1058B000FCE27DC7AC968FAFAC97762EAD964FAF1E
:1058C000AD97E0962FAFE0970E941B24682E40E032
:1058D000CC24CA94DC2CAA24BB24EE24EA94FE2C0B
:1058E000AD962FADAD97022F10E0080F111D0F7769
:1058F0001070AC968FADAC97642FE5964FAFE597DF
:105900000E942C24FC012081E5964FADE5972223CF
:10591000B9F481813281932F9770009789F4532FC6
:105920005695569556953381632F6295660F607E26
:10593000862F852B932F969596959695009749F1EE
:10594000772011F430E017C08281372D313021F4F7
:105950002181382F37700FC0982F96959695969580
:105960008381582F5295550F507E252F292B382F84
:10597000369536953695A216B30608F459012E15BC
:105980003F0508F47901842F90E08017910709F40E
:1059900069014F5F403809F0ACCF772009F049C06A
:1059A000A60144515040AB965FAF4EAFAB9780918C
:1059B000F3069091F4065FE78F3F950739F46CEE9C
:1059C000862E6FEF962E8E0C9F1C04C08090F306DF
:1059D0009090F4068091E8069091E9066FE78F3F7A
:1059E000960729F48CEE9FEFA80EB91E04C0A09074
:1059F000E806B090E90622E030E0C401B90187D69C
:105A00007093EF066093EE06C501B90180D67093DE
:105A1000F1066093F0068091F3069091F406AFE7EB
:105A20008F3F9A0709F0AFC08091E8069091E90690
:105A3000AAC0B72DB13009F059C0F601E057FE4FAA
:105A4000AB96FFAFEEAFAB978091F5069091F6065F
:105A5000FFE78F3F9F0739F450E9852E51E0952EDF
:105A60008E0C9F1C04C08090F5069090F6068091E5
:105A7000EA069091EB062FE78F3F920729F440E961
:105A800051E0A40EB51E04C0A090EA06B090EB064B
:105A9000B401882777FD8095982FA6D320EA34E7B4
:105AA00047E852E406D36DD37093EF066093EE0699
:105AB000B501882777FD8095982F96D320EA34E7A3
:105AC00047E852E4F6D25DD37093F1066093F00696
:105AD0008091F5069091F6065FE78F3F950709F0F4
