:1000000011C600002CC600002AC600000C943A223B
:1000100026C6000024C6000022C6000020C600003C
:100020001EC600000C9454211AC600000C949D2991
:1000300016C6000014C6000012C6000010C600005C
:100040000EC600000CC600000AC6000008C600006C
:1000500006C6000004C6000002C6000000C600007C
:10006000FEC50000FCC50000D812DE1260138F131D
:10007000F6121A1311151A15F5134A145B143215DA
:1000800032153215D51207634236B79BD8A71A39F5
:10009000685618AEBAAB558C1D3CB7CC5763BD6DD6
:1000A000EDFD753EF6177231BF000000803F08007D
:1000B0000000BE922449123EABAAAA2ABECDCCCCE7
:1000C0004C3E00000080BEABAAAAAA3E0000000081
:1000D000BF000000803F0000000000084178D3BB53
:1000E0004387D1133D190E3CC3BD4282AD2B3E6800
:1000F000EC8276BED98FE1A93E4C80EFFFBE01C4F1
:10010000FF7F3F00000000004A616E00466562000C
:100110004D617200417072004D6179004A756E0048
:100120004A756C0041756700536570004F63740039
:100130004E6F76004465630008010C011001140144
:1001400018011C012001240128012C013001340177
:100150002000500041003A003A00500041003A00AF
:1001600020000000000000000000000000007C7E75
:100170007E7C0000007C7E7E7C0000007C7E7E7C9D
:100180000000007C7E7E7C0000000000000000007B
:10019000000000000000000000000000000000005F
:1001A0000000000000000000000080C0C0E0707887
:1001B000381C1E0E0E1C1C1C38383870707060E025
:1001C000E0C0C0C08080800000000000000000008F
:1001D000000000000000000000000000000000001F
:1001E0000000000030787878787800FCFEFF0F0778
:1001F000070707070707078787878787878787870F
:100200000707070707070FFFFEFC000000008080BC
:10021000C0C0E060703038381C1C0E0E070707079E
:10022000070E0E0E0C1C1C0E070703010100000038
:1002300000000000000000000000000000000000BE
:1002400000000101010303030707070E0E0E1C1C2B
:100250001C383838707070E0E0E0C0C0C08080802A
:1002600000000000183C3C3C3C3C00FFFFFF00004D
:1002700000000000C0F8FFFFFFE7E7E7E7FFFFBF70
:100280001F06000080C0E0E7E7E70000030383C12A
:10029000C1E06060E0E0C000C0E0E0E00080C0E0FD
:1002A000E060C0E0E0E00080E0E0E0E00080E0E06E
:1002B000E000000080C0C0E06060E0E0E0C000005E
:1002C0000080C0C0E06060E0E0E0C00000C0E0E0AE
:1002D000E06060E0E0E0C0000080C1E1E1636363F2
:1002E000630000000C1E1E1E1E1E00FFFFFF00000C
:1002F0000000F0FEFFFFFFF1F1F1F1797F3F1FC732
:10030000E0F87C3E1F1F19FFFFFF00007CFFFFE7A6
:10031000C1C0E0602080F0FEFF7F1F3FFFFBF1C007
:100320000000FFFFFF7C3E0FFFFFFFF93E1F0701AC
:1003300000007EFFFFE7C1C0E0787F3F1F07007E1F
:10034000FFFFE7C1C0E0787F3F1F87F0FEFFFFCFD0
:10035000C1E0787F3F1F07E0E0E3C7C7FF7E7E3C38
:1003600000000000060F0F0F0F0F001F3F7F787077
:10037000707070707070707070707070707070707D
:10038000707070707070787C3C1C00000000000081
:10039000000000000000000000000000000000005D
:1003A000000000000000000000000000000000004D
:1003B000000000000000000000000000000000003D
:1003C000000000000000000000000000000000002D
:1003D000000000000000000000000000000000001D
:1003E00000000000000000000000000000001F3FAF
:1003F0003F1F0000001F3F3F1F0000001F3F3F1F27
:100400000000001F3F3F1F00000000001F1F1818C2
:1004100018181818181C1C1818181818181C1C184C
:1004200018181818181C1C1818181818181C1C183C
:100430001818181818181F1F181818181818181C2A
:100440001C1818181818181C1C1818181818181C1C
:100450001C1818181818181C1C1818181818181F09
:100460001F00312E302E340045786974204D656EA2
:1004700075004C696E6520312044617461004C69DF
:100480006E6520322044617461004C696E652033D2
:100490002044617461004C696E65203420446174AD
:1004A00061004C696E6520352044617461004C69BF
:1004B0006E652036204461746100680472047E0415
:1004C0008A049604A204AE04000043616C6962725F
:1004D000617465005365742044657374696E61745A
:1004E000696F6E0052657365742044657374696E3C
:1004F0006174696F6E006804CA04D404000044612A
:10050000746520616E642054696D65004D6561738A
:100510007572656D656E7420556E69747300536CE9
:100520006565702044656C617900536F756E640079
:100530004C434420436F6E74726173740052657350
:10054000746F72652044656661756C7473004572E2
:1005500061736520416C6C2044617461006804FE25
:10056000040C051E052A0530053D054E0500005406
:10057000656D706572617475726500416C74697443
:100580007564650052617465206F66204173636510
:100590006E740054696D6520746F204465737469CE
:1005A0006E6174696F6E0053746174696F6E205070
:1005B0007265737375726500536561204C6576656D
:1005C0006C2050726573737572650054696D652097
:1005D0006F6620446179004461746520616E642017
:1005E00054696D650054656D7065726174757265EE
:1005F000205472656E640050726573737572652065
:100600005472656E64005765617468657220466F48
:1006100072656361737400456D7074790054656D23
:1006200070204461696C7920486967682F4C6F7746
:10063000005072657373204461696C792048696762
:10064000682F4C6F7700416C74204461696C79208D
:10065000486967682F4C6F770068046F057B0584D5
:10066000059305A705B805CB05D705E505F70506EC
:10067000061D0631064606170600005669657720F6
:10068000536E617073686F74204C6F670054616BB8
:100690006520536E617073686F740068047B068D0B
:1006A0000600004578706C6F726520477261706853
:1006B0000044726177696E67205374796C650043FA
:1006C0007573746F6D20592D41786973204D696E73
:1006D00000437573746F6D20592D41786973204DF7
:1006E0006178004175746F20592D41786973204DF0
:1006F000696E004175746F20592D41786973204DE2
:100700006178006804A306B106BF06D10600005355
:100710006F6172696E6700526973696E6720466126
:10072000737400526973696E6700526973696E670A
:1007300020536C6F77005374656164790046616C77
:100740006C696E6720536C6F770046616C6C696EE4
:10075000670046616C6C696E672046617374005077
:100760006C756D6D6574696E67000F071707230759
:100770002A0736073D074A0752075F072B002D2D32
:100780002D2D002B002D2D2D0044657374696E6195
:1007900074696F6E200020002000200020002000DF
:1007A000300020002D002000504D00414D00200061
:1007B0002000200020002000200020002000200039
:1007C0002000200020002000536E617073686F7459
:1007D000200020004F6666004F6E00536F756E64F8
:1007E0002000436F6E747261737420005600426182
:1007F00074746572792000202020202020746F20DE
:10080000756E6C6F636B0020686F6C64205052458E
:100810005620616E64204E45585400200020002070
:10082000002000556E696D706C656D656E74656451
:1008300000200020004572722000436C6561722C1C
:1008400020447279004661697200556E6368616E7A
:10085000676564005261696E0053746F726D790050
:10086000566572792053746F726D7900436C6561BF
:1008700072696E6700476F6F6420576561746865C1
:100880007200417070722E2053746F726D00506F41
:100890006F72205765617468657200556E63686198
:1008A0006E6765640042726965662053686F77659C
:1008B0007200556E617661696C61626C6500466FAD
:1008C000726563617374200050726573737572652D
:1008D000200054656D7020003A002D2D2D2D2D0027
:1008E00054696D6520746F204465737420002F6D0A
:1008F000696E0044657363656E64696E67200041CC
:100900007363656E64696E672000536561204C6592
:100910007620507273200053746174696F6E20509A
:100920007273200032680031306800326400604326
:1009300000206D6200206D0060460020696E00207E
:100940006674002000000000000000005F0000004E
:1009500007000700147F147F14242A7F2A12231310
:1009600008646236495620500006050300001C2228
:1009700041000041221C002A1C7F1C2A08083E0856
:100980000800807030000808080808000060600057
:1009900020100804023E5149453E00427F4000724B
:1009A000494949462141494D331814127F102745C2
:1009B0004545393C4A4949314121110907364949E0
:1009C0004936464949291E00001400001030703095
:1009D0001000081C3E7F1414141414007F3E1C08E1
:1009E00002015909063E415D594E7C1211127C7F6D
:1009F000494949363E414141227F4141413E7F497B
:100A00004949417F090909013E414151737F080865
:100A1000087F00417F41002040413F017F081422B0
:100A2000417F404040407F021C027F7F0408107FCE
:100A30003E4141413E7F090909063E4151215E7F09
:100A400009192946264949493201017F01013F40E0
:100A500040403F1F2040201F3F4038403F63140864
:100A6000146303047804036159494D43007F4141F5
:100A7000410204081020004141417F04060706049A
:100A80004040404040000605030020545478407F19
:100A9000284444383844444428384444287F38544F
:100AA00054541800087E090218A4A49C787F0804F6
:100AB000047800447D40002040403D007F102844E1
:100AC0000000417F40007C047804787C08040478AE
:100AD0003844444438FC1824241818242418FC7C76
:100AE00008040408485454542404043F44243C405B
:100AF00040207C1C2040201C3C4030403C442810BE
:100B000028444C9090907C4464544C442050415371
:100B1000542000414C5449545544450050524553CB
:100B2000535552450054454D500000407A10F35A39
:100B300000A0724E18090010A5D4E80000E876481D
:100B4000170000E40B54020000CA9A3B000000E1C9
:100B5000F505000080969800000040420F0000005C
:100B6000A08601000000102700000000E80300003C
:100B700000006400000000000A0000000000010006
:100B8000000000002C76D888DC674F0823DFC1DF27
:100B9000AE59E1B1B796E5E3E453C63AE65199762A
:100BA00096E8E6C28426EB898C9B62ED407C6FFC64
:100BB000EFBC9C9F40F2BAA56FA5F490055A2AF7A6
:100BC0005C936B6CF9676DC11BFCE0E40D47FEF5AF
:100BD00020E6B500D0ED902E030094357705008017
:100BE000841E080000204E0A000000C80C33333376
:100BF000330F986E12831141EF8D2114893BE65516
:100C000016CFFEE6DB18D1844B381BF77C1D901DF8
:100C1000A4BBE424203284725E228100C9F124EC5A
:100C2000A1E53D2711241FBECFEFD8E0DEBFCDBF29
:100C300012E0A0E0B1E0ECE0FEE602C005900D920B
:100C4000AC36B107D9F717E0ACE6B2E001C01D92AF
:100C5000A130B107E1F70E94DC1E0C940437D0C923
:100C60000F931F93809164008E7F80936400809126
:100C70007A00806880937A0086E480937C008FE914
:100C80009FE00197F1F700C0000080917A00806436
:100C900080937A0080917A0086FDFCCF20917800C5
:100CA00030E040E050E080917900782F60E08827C4
:100CB00077FD8095982F622B732B842B952B2CEB33
:100CC0003CE040E050E00E94543320917A002F77BE
:100CD00020937A00209164002160209364002FEF1C
:100CE00033E040E050E00E94C833B901CA011F91CF
:100CF0000F91089580E896EEA5ECB7E480939F02EB
:100D00009093A002A093A102B093A2020895CF9362
:100D1000DF933B9A43988FEC97E00197F1F700C07F
:100D20000000439A8FE19EE40197F1F700C00000B4
:100D300080E896EEA5ECB7E480939F029093A00222
:100D4000A093A102B093A2020E941D238EEE0E94E6
:100D50001A23C5E8D2E08AEA90E066E170E0AE01CD
:100D60000E942323882359F088819981988389835D
:100D7000229692E0CB39D907B9F781E001C080E033
:100D8000DF91CF910895A2E0B0E0E9ECF6E00C9499
:100D9000F33384EF90E06EE20E94B8238FE097E295
:100DA0000197F1F700C0000086EF90E062E070E08C
:100DB000AE014F5F5F4F0E942323882339F0998152
:100DC00080E02A8130E0282B392B02C020E030E07F
:100DD000C9012296E2E00C940F34A3E0B0E0E3EF07
:100DE000F6E00C94F33384EF90E064EF0E94B823B4
:100DF0008FE19BEC0197F1F700C0000086EF90E0D7
:100E000063E070E0AE014F5F5F4F0E9423238823B1
:100E100019F1298130E040E050E0A9013327222771
:100E20008A8190E0A0E0B0E0BA2FA92F982F882700
:100E3000282B392B4A2B5B2B8B8190E0A0E0B0E074
:100E4000282B392B4A2B5B2B85E0569547953795F8
:100E500027958A95D1F703C020E030E0A901B901B8
:100E6000CA012396E2E00C940F34EF92FF920F93A5
:100E70001F93BC0180E090E020918F02309190029E
:100E800040E050E0621B730B840B950B20918D02A8
:100E900030918E0240E050E00E9454337B018C017F
:100EA000AFE015950795F794E794AA95D1F760916F
:100EB000970270919802882777FD8095982FFBE024
:100EC000660F771F881F991FFA95D1F72091990215
:100ED00030919A02442737FD4095542F2E0D3F1D27
:100EE000401F511F0E94C8332E0D3F1D401F511F30
:100EF00020939B0230939C0240939D0250939E024C
:100F0000285F3F4F4F4F5F4FE4E05595479537952A
:100F10002795EA95D1F7C9011F910F91FF90EF90A6
:100F20000895A4E0B0E0E7E9F7E00C94E3336983C7
:100F30007A838B839C8360909B0270909C0280904C
:100F40009D0290909E0280E690EFAFEFBFEF680E9B
:100F5000791E8A1E9B1EC401B301A40193010E9445
:100F600054331B012C016091890270918A028827F9
:100F700077FD8095982F0E9454337B018C014DE0C2
:100F800015950795F794E7944A95D1F782E090E09C
:100F9000A0E0B0E0E80EF91E0A1F1B1FC201B1015C
:100FA0003CE095958795779567953A95D1F720918F
:100FB000910230919202442737FD4095542F0E94B0
:100FC0005433BC01992777FD9095892FE60EF71EC3
:100FD000081F191FB2E015950795F794E794BA9585
:100FE000D1F780E090E8A0E0B0E0E80EF91E0A1F1B
:100FF0001B1F20918B0230918C0240E050E0C80111
:10100000B7010E9454335B016C01AFE0D694C794E2
:10101000B794A794AA95D1F72091930230919402A6
:10102000442737FD4095542FC201B1010E9454332B
:101030007B018C01F7E115950795F794E794FA95F4
:10104000D1F76091870270918802882777FD80959B
:10105000982FA40193010E945433EBE09595879556
:1010600077956795EA95D1F7E60EF71E081F191FC9
:101070008091850290918602AA2797FDA095BA2FAC
:1010800072E0880F991FAA1FBB1F7A95D1F7E80E4F
:10109000F91E0A1F1B1FEE0CFF1C001F111F898168
:1010A0009A81AB81BC818E199F09A00BB10BBC0149
:1010B000CD012AE638E140E050E00E94543397FD2C
:1010C0000BC0660F771F881F991FA60195010E940C
:1010D000A63379018A010AC0A60195010E94A633B0
:1010E00079018A01EE0CFF1C001F111F552717FD07
:1010F0005A95412F302F2F2DCA01B9010E94543328
:101100002EED3BE040E050E00E9454335B016C0167
:10111000C801B70123E433EE4FEF5FEF0E94543371
:101120009C01552737FD5095452F2153314F4F4F87
:101130005F4F5601DD24B7FCD094CD2C2A0D3B1D0A
:101140004C1D5D1DB4E05595479537952795BA958B
:10115000D1F72E0D3F1D401F511FB901CA01249622
:10116000E2E10C94FF3320919F023091A002409164
:10117000A1025091A2020E94653021EB3CED42E4B5
:101180005EE30E94EF31562F472F382F292F60E062
:1011900070E080E89FE3DA01F9012B2F3A2F4F2FFF
:1011A0005E2F0E94003020E03AE24DE257E40C94BA
:1011B0008C31EF92FF920F931F937B018C01CA0138
:1011C000B90120E03AE24DE257E40E9465309B010C
:1011D000AC0160E070E080E89FE30E94003026EF01
:1011E00038E248EA50E40E94EF31562F472F382F5B
:1011F000292FC801B701DA01F9012B2F3A2F4F2F00
:101200005E2F0E9465301F910F91FF90EF9008951F
:101210009C01862FF90101900020E9F73197E21B2C
:10122000F30BE20FF31F6A3010F490E3919390E018
:10123000BF014AE050E00C946D34FF920F931F936E
:101240008C01F62EE42FF0E0EE0FFF1FEA5CFE4F5C
:1012500025913491C801B9010E944C34C80160E65F
:1012600071E00E944134C8016F2DD2DFC8011F9187
:101270000F91FF900895CF92DF92EF92FF921F930C
:10128000DF93CF930F92CDB7DEB76C01162FFC0121
:101290001082662341F06C3031F0862F6CE00E94A2
:1012A0007333692F01C06CE0C6014983B1DFC60109
:1012B0006EE571E00E944134C6014981642FA8DFC8
:1012C0001C3018F46CE571E002C06AE571E0C601FB
:1012D0000E944134C6010F90CF91DF911F91FF9082
:1012E000EF90DF90CF900895CF92DF92EF92FF9230
:1012F0001F93DF93CF9300D0CDB7DEB76C01162FCD
:10130000FC011082662341F06C3031F0862F6CE0D6
:101310000E947333692F01C06CE0C6012A834983A0
:1013200077DFC60168E571E00E944134C60149815A
:10133000642F6EDFC60166E571E00E944134C6018C
:101340002A81622F65DF1C3018F464E571E002C069
:1013500062E571E0C6010E944134C6010F900F9012
:10136000CF91DF911F91FF90EF90DF90CF90089584
:10137000EF92FF920F931F93CF93DF93EC019B01AA
:101380008FB7F8941091AC020091AB02F090A402D8
:101390004091A302E090A6028FBFCB016CE370E006
:1013A0000E947F33181B1C3310F00150145CC901DC
:1013B0006CE370E00E947F339B01CB0168E170E039
:1013C0000E947F33081B083110F0FA94085E8E2DBE
:1013D000837011F48DE101C08CE180930201FF2044
:1013E00041F4415009F44CE0E42FF0E0E050FF4FAD
:1013F000F080C90168E170E00E947F339B010FC05B
:1014000021503040FA948F2D81508F3140F041505F
:1014100009F44CE0E42FF0E0E050FF4FF08021159C
:10142000310571F7CE016F2D08DFCE0160E571E067
:101430000E9441347E01EC2FFF2DDF010D90002032
:10144000E9F7CD0101978E1B9F0B8C0F9D1F602F1D
:10145000412F11DFCE01CDB7DEB7E6E00C940B349F
:101460001092A60281E08093A3028093A4021092BE
:10147000AB021092AC021092A50208958091A702CF
:101480009091A802A091A902B091AA020196A11D73
:10149000B11D8093A7029093A802A093A902B093D4
:1014A000AA028091A7029091A802A091A902B091EE
:1014B000AA0283709070A070B0700097A105B1056A
:1014C00009F051C08091A5028F5F8093A5028091A1
:1014D000A5028C3309F047C01092A5028091AC029E
:1014E0008F5F8093AC028091AC028C33E1F5109257
:1014F000AC028091AB028F5F8093AB028091AB0214
:10150000883189F51092AB028091A4028F5F80939D
:10151000A4028091A602837011F48DE101C08CE1D8
:10152000809302012091A402E091A30230E0F0E058
:10153000E050FF4F808190E001962817390799F419
:1015400091E09093A4028091A3028F5F8093A30205
:101550008091A3028D3039F49093A3028091A6026A
:101560008F5F8093A602089581E00E949029809168
:101570007C028F5F80937C0280917C02873019F51A
:101580008FB7F8949091B7029093A5029091BD0205
:101590009093AC029091C7029093AB029091C602D7
:1015A0009093A4029091B5029093A3029091B402FB
:1015B0009093A6028FBF88E08093790210927B02FD
:1015C00081E08093750208959091B402937011F4B4
:1015D0009DE101C09CE12091B502223099F09091EB
:1015E000B502943061F09091B502963041F090913F
:1015F000B502993021F09091B5029B3011F49EE133
:1016000001C09FE13091C70220917C02233009F490
:1016100050C0243030F4213051F1223008F043C062
:101620000AC0253009F484C0253008F467C026308C
:1016300009F0B7C097C09091B502980F9093B5028A
:101640008091B5028150813F20F08091B502845F86
:101650000BC08091B50281508C3020F08091B50292
:101660008C5002C08091B5028093B50208952091FC
:10167000C602280F2093C6028091C6028150813F86
:1016800020F08091C602890F0BC08091C602815064
:10169000891720F08091C602891B02C08091C60282
:1016A0008093C60208959091B402980F9093B4026B
:1016B00008959091C702980F9093C7023C3048F06C
:1016C0008091C7028C50813F40F48091C7028C50BA
:1016D0000AC08091C702813F20F08091C702845FD9
:1016E0000AC08091C7028C3020F08091C7028C50D4
:1016F00002C08091C7028093C70208959091BD02F5
:10170000980F9093BD028091BD02813F20F080919F
:10171000BD02845C0AC08091BD028C3320F08091B0
:10172000BD028C5302C08091BD028093BD0208951A
:101730009091B702980F9093B7028091B702813FC2
:1017400020F08091B702845C0AC08091B7028C338C
:1017500020F08091B7028C5302C08091B702809331
:10176000B7020895813021F48091C702845F03C0DD
:101770008091C7028C508093C7028091C702813F3D
:1017800020F08091C702885E0AC08091C70288312C
:1017900020F08091C702885102C08091C7028093D7
:1017A000C7020895E0917902E093B1027093BA0202
:1017B0006093B9029093BC028093BB025093C10224
:1017C0004093C0023093C5022093C4021092B3022A
:1017D0001092B2028CE0809379020895EF92FF920A
:1017E0000F931F9381E00E9490298091B10288306D
:1017F00051F480917C02833009F042C18091C00293
:101800008093B6023DC1813009F07CC080912D02E9
:101810008823E1F46091C0027091C102882777FDAE
:101820008095982F0E94003120E030E040E05FE397
:101830000E94013025E83BEE41E550E40E948C31E6
:101840000E94CD307093C1026093C00280917C02EF
:10185000813021F0823009F013C14BC06091D00279
:101860007091D1028091D2029091D3020E940031F6
:101870007B018C016091C0027091C102882777FDC5
:101880008095982F0E9400312FEB3EE04CE95EE3FB
:101890000E948C319B01AC01C801B7018ADC6093C6
:1018A0009F027093A0028093A1029093A202609184
:1018B000D0027091D1028091D2029091D3020E9405
:1018C000003151DC25E83BEE41E550E40E948C31CB
:1018D0006093D6027093D7028093D8029093D90276
:1018E0008091C0029091C1029093DB028093DA0252
:1018F000C7C08091C0029091C1029093C3028093AF
:10190000C202BEC08091B8028230D1F580912D0212
:101910008823E1F46091C0027091C102882777FDAD
:101920008095982F0E94003120E030E040E05FE396
:101930000E94013025E83BEE41E550E40E948C31E5
:101940000E94CD307093C1026093C00280917C02EE
:10195000833019F0843091F409C08091C0029091D5
:10196000C1029093FD068093FC0608C08091C002DE
:101970009091C1029093F2068093F10682E07EC0BE
:10198000843009F043C080912D02882359F0809162
:10199000C0029091C102880F991F9093C102809359
:1019A000C0021AC08091C0029091C1029C01220F16
:1019B000331FC90143E0880F991F4A95E1F7820F51
:1019C000931F029665E070E00E949333605C7F4F46
:1019D0007093C1026093C00280917C02833019F041
:1019E000843091F409C08091C0029091C10290931B
:1019F000F9068093F80608C08091C0029091C10258
:101A00009093EE068093ED0684E038C08630C1F5F1
:101A100080912D026091C0027091C102882379F0FB
:101A2000882777FD8095982F0E94003120EA34E7BF
:101A300047E852E40E948C310E94CD3002C0660F0C
:101A4000771F7093C1026093C00280917C02833043
:101A500019F0843091F409C08091C0029091C102C4
:101A60009093FB068093FA0608C08091C002909183
:101A7000C1029093F0068093EF0686E08093B10256
:101A80008091B1028093790210927B0281E0809371
:101A900075021F910F91FF90EF900895282F30E06D
:101AA0004091C0025091C10287FD07C0240F351F2D
:101AB0003093C1022093C00209C0CA0180509140F6
:101AC000820F931F9093C1028093C0028091BB024A
:101AD0009091BC022091C0023091C10228173907B1
:101AE00024F49093C1028093C0028091B902909136
:101AF000BA022091C0023091C1028217930724F4E8
:101B00009093C1028093C0028091B102883089F421
:101B100080917C02853069F48091C0028093F70641
:101B200080E061E80E94C5296091F70680E00C948E
:101B3000C5290895209179022093B1029093B002B3
:101B40008093AF027093AE026093AD025093BF02D8
:101B50004093BE0210927E028DE080937902089538
:101B600090917E0281E0891B80937E020895CF933D
:101B7000DF9380917902883009F072C080917C02F5
:101B8000843009F45FC0853040F4823089F18330BD
:101B9000E8F5813009F0C4C20AC0863009F44AC0B1
:101BA000863008F43DC0873009F0BAC243C08BE0EC
:101BB0008093790210927C028FB7F8949091A502DD
:101BC0009093B7029091AC029093BD029091AB02BA
:101BD0009093C7029091A4029093C6029091A302A1
:101BE0009093B5029091A6029093B4028FBF98C2D1
:101BF0008DE091E06EE071E047E151E09BDF909174
:101C00002D0281E0992349F180E027C04091B6027E
:101C100080E090E068E770E050E02EE131E07FC2C4
:101C20004091F70680E090E06FEF70E050E020E038
:101C300030E075C280E291E06EE271E041E351E094
:101C400079DF6EC28DE091E065E371E048E351E039
:101C500071DF9091610281E0891B80937E0260C2F6
:101C600020917902213009F097C080917C02813067
:101C700021F0823009F054C250C06091D6027091B8
:101C8000D7028091D8029091D90220E030E040E064
:101C90005FE30E9401300E94CD30AB01BC01809116
:101CA0002D028823A1F4BA01882777FD8095982F0B
:101CB00024E630E040E050E00E94543328E431E074
:101CC00040E050E00E94C833832F422F582FE0910C
:101CD0002D0280912D02A0912D02F0E0EE0FFF1F4A
:101CE000E65BFD4FC82FD0E0CC0FDD1FCA5ADD4F99
:101CF00068817981B0E0AA0FBB1FA25CBD4F2D9116
:101D00003C912F5F3F4F808191814CDD8CE391E0CE
:101D10009093B3028093B20203C28091C202909169
:101D2000C3023FE78F3F930759F08FEF9FE79093F0
:101D3000C3028093C20210927B0220937502F0C10D
:101D40006091D6027091D7028091D8029091D90209
:101D500020E030E040E05FE30E9401300E94CD309F
:101D6000AB01BC0180912D02882309F06FC1BA013B
:101D7000882777FD8095982F24E630E040E050E0FA
:101D80000E94543328E431E040E050E00E94C83320
:101D9000832F422F582F5AC180917902882349F509
:101DA00080917C028150863008F0BAC181E00E94A7
:101DB0009029809179028093B10280917C02809376
:101DC0007D0289E080937902E0917C02F0E0E953A2
:101DD000FD4F808180937C0280917C02853030F0C1
:101DE00080917C02845080937F025EC110927F02BA
:101DF0005BC180917902893001F5E0917D02F0E0CC
:101E000080917C02E953FD4F80838091B1028093E1
:101E1000790280917D0280937C0280917C028530E2
:101E200030F080917C02845080937F0202C0109237
:101E30007F0281E080937B0238C1809179028730F4
:101E4000A9F480917C02813039F0823009F068C1B8
:101E500081E08093770227C080917B028F5F80931F
:101E60007B0210927F0210927C025AC1809179020B
:101E70008A3009F055C12091B1022093B8028091B7
:101E80007C02823099F0833020F4813009F048C11F
:101E900006C0833021F1843009F042C168C08093CC
:101EA00080022093790210927B02FFC08DE091E0C6
:101EB00062E571E048E551E03DDE8091B802843092
:101EC00019F48091FE06C9CE823019F48091000782
:101ED000C4CE863009F024C18091FF06BECE2430E6
:101EE000C9F48091F8069091F9062FE78F3F920789
:101EF00061F08FEF9FE79093F9068093F8061092B8
:101F00007B0284E080937902CFC04091F306509128
:101F1000F40643C02230A1F48091FC069091FD06A6
:101F20003FE78F3F930739F08FEF9FE79093FD06D0
:101F30008093FC06B5C04091F3065091F40671C041
:101F4000263009F0EDC08091FA069091FB063FE73C
:101F50008F3F930739F08FEF9FE79093FB068093B5
:101F6000FA069EC04091F3065091F406A5C02430B5
:101F700009F041C08091ED069091EE063FE78F3F5A
:101F8000930739F08FEF9FE79093EE068093ED066D
:101F900087C04091F5065091F60680912D02882366
:101FA00071F4CA01880F991F880F991F840F951F1C
:101FB000805A904069E070E00E949333AB01E09159
:101FC0002D0280912D02A0912D02F0E0EE0FFF1F57
:101FD000EA5BFD4FC82FD0E0CC0FDD1FCE5ADD4F9E
:101FE00068817981B0E0AA0FBB1FA65CBD4F2D911F
:101FF0003C91119792C0223009F041C08091F106C6
:102000009091F2063FE78F3F930739F08FEF9FE7FC
:102010009093F2068093F10643C04091F5065091EB
:10202000F60680912D02882389F4BA01882777FD6E
:102030008095982F0E9400312FEB3EE04CE95EE343
:102040000E948C310E94CD30AB01BC01E0912D0289
:1020500080912D02A0912D02F0E0EE0FFF1FE65BB4
:10206000FD4FC82FD0E0CC0FDD1FCA5ADD4F68816D
:102070007981B0E0AA0FBB1FA25CBD4F4AC02630D9
:1020800009F04EC08091EF069091F0063FE78F3F38
:10209000930771F08FEF9FE79093F0068093EF0620
:1020A00010927B022093790281E08093750238C000
:1020B0004091F5065091F60680912D02882389F40F
:1020C000BA01882777FD8095982F0E94003120EA79
:1020D00034E747E052E40E948C310E94CD30AB01DE
:1020E000BC01E0912D0280912D02A0912D02F0E023
:1020F000EE0FFF1FE85BFD4FC82FD0E0CC0FDD1FB8
:10210000CC5ADD4F68817981B0E0AA0FBB1FA45C77
:10211000BD4F2D913C912F5F3F4F8081918142DBDC
:10212000DF91CF910895E0917902F0E0EE0FFF1F6B
:10213000E85FFD4F2081318190E001C09F5FE92F72
:10214000F0E0EE0FFF1FE20FF31F45915491411590
:102150005105A1F720917C02280F20937C028091E9
:102160007C02891719F410927C0207C080917C02CE
:102170008F3F19F4915090937C0290917C02809152
:102180007F02981728F480917C0280937F02089543
:1021900020917C0280917F0230E090E006968217C9
:1021A00093072CF480917C02865080937F020895DF
:1021B00084E18093B6028FEF9FE79093C3028093F0
:1021C000C20282E08093C80281E08093C9028FE05E
:1021D0008093CA0293E09093CB028093CC0288E074
:1021E0008093CD0208951F9381E00E9490298091F1
:1021F000B1028830D9F580917C02843031F185308C
:1022000020F4823009F04AC027C0863059F0873068
:1022100009F044C080917E02813009F03FC0809374
:1022200076023CC010917E021130C1F50E94AA2AAC
:10223000BFDF1093610283E080932D020E947A0633
:102240001092DB021092DA0229C090917E0281E0A6
:10225000891B8093610222C090917E02892F880F92
:10226000890F81958D5F80932D0218C08091B802EF
:10227000823029F490917E02909300070DC0843043
:1022800029F490917E029093FE0606C0863031F4C8
:1022900090917E029093FF068093B1028091B102EB
:1022A0008093790210927B0281E0809375021F91E6
:1022B0000895EF92FF920F931F93CF93DF9380E0E7
:1022C0000E942524682F6B50613808F0605880E028
:1022D0000E943624FC01828186958695869593819D
:1022E000292F2295220F207EE22EE82AE7017E0187
:1022F000969596959695F92EE7012097E1F16091D4
:10230000D6027091D7028091D8029091D90220E034
:1023100030E048EC52E40E948C310E94CD307B01C9
:102320008C0180EA9CE1A2E0B0E0E80EF91E0A1FF1
:102330001B1FBE0180E090E028EC30E040E050E060
:102340000E945433E61AF70A080B190BC801B701AB
:102350002AE030E040E050E00E94C8332E5C3F4F5E
:102360004F4F5F4FCA01B90124E630E040E050E032
:102370000E94C83304C02FEF3FEF4FEF5FE7B90172
:10238000CA01CDB7DEB7E6E00C940B3480E00E94C2
:102390002524682F6D53613808F0605880E00E9452
:1023A0003624FC018081882389F02091D402309169
:1023B000D502442737FD4095542F2C5E3F4F4F4F99
:1023C0005F4F281B31094109510904C02FEF3FEF2E
:1023D0004FEF5FE7B901CA010895EF92FF920F93A3
:1023E0001F9380E00E942524682F6D53613808F008
:1023F000605880E00E943624FC0161818281782F40
:10240000777061157105E9F0E090D002F090D1028B
:102410000091D2021091D30280EE91EBAFEFBFEFAB
:10242000E80EF91E0A1F1B1F80E090E022E330E057
:1024300040E050E00E945433E61AF70A080B190BEB
:1024400008C06FEFE62E6FEFF62E6FEF062F6FE7E7
:10245000162FB701C8011F910F91FF90EF900895BB
:10246000EF92FF920F931F9381E00E942524682F23
:102470006C54613808F0605881E00E943624FC01F9
:1024800061818281782F77706115710529F1E09063
:10249000D002F090D1020091D2021091D30280EECE
:1024A00091EBAFEFBFEFE80EF91E0A1F1B1F80E094
:1024B00090E022E330E040E050E00E945433E61A1E
:1024C000F70A080B190BC801B70125E030E040E01E
:1024D00050E00E94C83304C02FEF3FEF4FEF5FE79B
:1024E000B901CA011F910F91FF90EF9008956F3FBE
:1024F0002FEF72072FEF82072FE79207D9F1693C80
:1025000071058105910574F569377105810591059E
:102510005CF5663371058105910544F516161706BD
:10252000180619062CF1611571058105910511F147
:102530006B3C2FEF72072FEF82072FEF9207E4F427
:1025400068382FEF72072FEF82072FEF9207B4F44E
:1025500068332FEF72072FEF82072FEF920784F077
:1025600087E0089580E0089581E0089582E008956D
:1025700083E0089584E0089585E0089586E0089555
:1025800088E00895AAE0B0E0E8ECF2E10C94E933C9
:102590008C0170E0615070406F30710508F062C2CC
:1025A0006C5C7F4FFB010C941A34DC011C926EC2F0
:1025B0004091D4025091D50260E015C06091D602DE
:1025C0007091D7028091D8029091D90220E030E03A
:1025D00040E05FE30E9401300E94CD309B01AC01DE
:1025E000C80162E0A9010E94C02750C267E179E0FA
:1025F0000E944C34D8010D900020E9F77D01089429
:10260000E108F108E01AF10A6091D0027091D1025C
:102610008091D2029091D302675E7F4F8F4F9F4F80
:1026200022E330E040E050E00E94C833C8018E0D44
:102630009F1D44C06AE079E00E944C34E090DA02C9
:10264000F090DB026091D0027091D1028091D202B1
:102650009091D3020E9400314B015C01B7018827A1
:1026600077FD8095982F0E9400312FEB3EE04CE9DA
:102670005EE30E948C319B01AC01C501B4010E9454
:10268000D908D8010D900020E9F77D010894E108F0
:10269000F108E01AF10AE00EF11E20E030E048EC0B
:1026A00051E40E94013020E030E048E452E40E940E
:1026B00065300E94CD309B01AC01C70161E092CF33
:1026C000F8DD6B017C0197FD0FC0C8016FEF78E06A
:1026D0000E944C34BFEFCB16BFEFDB06BFEFEB061B
:1026E000BFE7FB0639F009C0C80163EF78E00E943C
:1026F0004C3403C0CC24DD247601D8010D90002099
:10270000E9F7CD010197801B910B800F911F62E0CB
:10271000A6010E94C027C8016EEE78E04EC1C9DD57
:102720004B015C01C80160EE78E00E944C34C0901F
:10273000C202D090C3026091D6027091D7028091FC
:10274000D8029091D902BFEF8B16BFEF9B06BFEF67
:10275000AB06BFE7BB0671F12091C2023091C30204
:10276000EFE72F3F3E0731F1EE24D7FCE094FE2C3B
:102770000E94CD30C61AD70AE80AF90AC501B40189
:1027800022E030E040E050E00E94C833C20ED31E89
:10279000E41EF51EC701B601A50194010E94C833CD
:1027A00057FD08C02438F9E03F07F0E04F07F0E09C
:1027B0005F0724F0C8016AED78E0FFC0CA01B901E3
:1027C0002CE330E040E050E00E94C833E62EC80120
:1027D000622F0E940809C80168ED78E00E94413428
:1027E000C8016E2D0E94080951C162ED78E00E9477
:1027F0004C34CCDD6F30710581059105ACF5693045
:102800007105810591050CF033C1633071058105B7
:1028100091050CF02FC116161706180619060CF4B0
:102820002BC1611571058105910509F427C16E3F22
:102830002FEF72072FEF82072FEF92070CF020C1C6
:10284000683F4FEF74074FEF84074FEF94070CF08A
:1028500019C1623FAFEF7A07AFEF8A07AFEF9A0770
:102860000CF012C1E8E009C06F3FBFEF7B07BFEF7C
:102870008B07BFE79B0749F0E0E0F0E0EE0FFF1F9A
:10288000E659F84F2591349113C0E2E7F7E025911E
:1028900034910EC068EC78E00E944C349EDD27DE57
:1028A00090E0880F991F8659984FFC01259134912B
:1028B000C801B90182C06EEB78E00E944C348DDD16
:1028C0006B017C0114DE8987CBDD4B015C010FDEDF
:1028D000282F3985EFEFCE16EFEFDE06EFEFEE068D
:1028E000EFE7FE0649F0FFEF8F16FFEF9F06FFEFC1
:1028F000AF06FFE7BF0621F4C80162EB78E05DC0D8
:10290000832F8750823030F4263060F4C80165EAA6
:1029100078E053C0353031F4253021F4C8016BE93B
:1029200078E04BC0932F9550923040F4822F855021
:10293000823060F4C8016EE878E03FC0373030F094
:10294000263020F0C80162E878E037C0832F82503B
:10295000823040F4422F4250423090F4C80165E783
:1029600078E02BC0323030F4223050F0C8016CE6F1
:1029700078E023C0383021F4C80160E678E01DC05B
:10298000373021F4C80169E578E017C0923020F4AF
:10299000C80164E578E011C0343021F4C8016AE46C
:1029A00078E00BC0823020F4C80165E478E005C00F
:1029B000323030F4C8016AE378E00E94413466C0E6
:1029C000C80165E378E02A8739870E944134D8013D
:1029D0000D900020E9F7BD0161507040601B710B44
:1029E000600F711F3985832F90E04AE050E00E940C
:1029F0006D34C80163E378E00E944134D8010D9042
:102A00000020E9F7BD0161507040601B710B600F41
:102A1000711F2A85822F90E04AE050E00E946D34B9
:102A200035C06091AB024091AC022091A5020E949A
:102A300074092CC06091A4024091A3020E941D0958
:102A4000C80161E378E00E9441346091AB0240919B
:102A5000AC02CE0101960E943B09BC01C8010E9454
:102A6000623414C0C80163E278E00E944C340EC0A6
:102A7000E1E003CFE2E001CFE3E0FFCEE4E0FDCE12
:102A8000E5E0FBCEE6E0F9CEE7E0F7CE2A96ECE013
:102A90000C940534AF92BF92CF92DF92FF920F93C6
:102AA0001F93DF93CF930F92CDB7DEB75C01CB01BD
:102AB000BA012CE330E040E050E00E94A633F62E4D
:102AC000CA01B90128E130E040E050E00E94A6339D
:102AD000162FCA01B901B5E0969587957795679548
:102AE000BA95D1F7022F0F712DE030E040E050E0B1
:102AF0000E94A633462FC501602F29830E941D091D
:102B0000C50161E278E00E944134D5010D900020BA
:102B1000E9F7BD01615070406A197B092981822F54
:102B200090E06A0D7B1D8053984F4AE050E00E9470
:102B30006D34C5016FE178E00E944134D5010D90FC
:102B40000020E9F7CD0101978A199B098A0D9B1D89
:102B5000612F4F2D0E943B090F90CF91DF911F9164
:102B60000F91FF90DF90CF90BF90AF900895EF92BC
:102B7000FF920F931F93CF93DF93EC018B01DB0147
:102B800012968C91129786958695869513969C91B0
:102B9000292F2295220F207E422F482B592F569500
:102BA00056955695445B5240CE0162E00E94D9276B
:102BB000CE016DE178E00E9441347E01EC2FFF2DC3
:102BC000DF010D900020E9F7CD0101978E1B9F0BCF
:102BD000F801408150E0445150408C0F9D1F60E04F
:102BE0000E94D927CE016BE178E00E944134EC2F9E
:102BF000FF2DDF010D900020E9F7CD0101978E1B1D
:102C00009F0BF80141812281522F577040575E4F30
:102C10008C0F9D1F61E00E949427CDB7DEB7E6E0E0
:102C20000C940B34A6E1B0E0E8E1F6E10C94E33358
:102C30000E940D26482E55240E944226FC018081C8
:102C40009181A281B3810097A105B10551F480E083
:102C500062E00E94852A8FE591E060E00E946E2A82
:102C600039C10E94702600E010E06E010894C11C7A
:102C7000D11C282E3324A02EB02EB39480E06B2DCF
:102C80000E94852A80917F027201E81AF108E01AF9
:102C9000F10AF7FE04C00E946E26E80EF11C8E2D8C
:102CA0000E944226FC0160807180828093806114C2
:102CB00071048104910409F4D9C090917F0280913C
:102CC0007C029801290F311D90E02817390711F473
:102CD0006FE701C060E081E00E94C529C70101964D
:102CE000B6014AE050E00E946D3490917F028091DD
:102CF0007C029801290F311D90E061E02817390707
:102D000009F060E0C6010E946E2AF60101900020E1
:102D1000E9F73197EE2EEC1890917F0280917C02BA
:102D20009801290F311D90E02817390711F46FE53C
:102D300001C060E281E00E94C52990917F028091EC
:102D40007C029801290F311D90E02817390711F4F2
:102D50006FE701C060E081E00E94C52990917F0289
:102D600080917C029801290F311D90E028173907C6
:102D700011F46FE701C060E081E00E94C529C6013F
:102D8000B401A30187DE90917F0280917C029801BB
:102D9000290F311D90E061E02817390709F060E044
:102DA000C6010E946E2AF60101900020E9F73197D2
:102DB000EC19FD09FF240894E11CF11CEE0EFF1E26
:102DC000EE0CEE0C12C090917F0280917C02980173
:102DD000290F311D90E02817390711F46FE701C062
:102DE00060E081E00E94C529E394E7FEECCFAA20D1
:102DF00091F480917F02882399F180E56B2D0E94E8
:102E0000852A90917F0280917C0261E0981360E0B6
:102E10008DE691E023C0FA2DF33011F580917F0209
:102E200090E00196800F911F82159305C9F0809163
:102E30007C028F3FA9F080E56B2D0E94852A90913E
:102E40007F0280917C029801290F311D90E061E0A2
:102E50002817390709F060E08FE691E00E946E2A9A
:102E60000F5F1F4F0430110509F005CF80917C02E0
:102E7000481A510857FE04C00E946E26480E511C85
:102E8000842D0E9442268C0180E065E00E94852A04
:102E900081E061E00E94C529B8016C5F7F4F8E011F
:102EA0000F5F1F4FC80163DEC80160E00E946E2AF9
:102EB000F80101900020E9F73197E01BF10B0E2F8C
:102EC000000F000F04C081E061E00E94C5290F5F80
:102ED00007FFF9CF6696E2E10C94FF331F93182F9A
:102EE0000E94702690917C02910F90937C029091A9
:102EF0007C02981719F410927C0207C090917C0212
:102F00009F3F19F4815080937C0290917C028091C4
:102F10007F02981718F480917C020DC020917C02EA
:102F200080917F0230E090E00396821793072CF4A3
:102F300080917C02835080937F021F91089581E0ED
:102F40000E94902910927B0281E08093750208957F
:102F50000F931F93982F062F80E0692F0E94852AD8
:102F600010E081E0602F0E94C5291F5F1038C9F76B
:102F70001F910F910895A6E1B0E0E1ECF7E10C9408
:102F8000E733E0917902F0E0EE0FFF1FE85FFD4FBD
:102F90008080918020E001C02F5F622E7724F301B2
:102FA000EE0FFF1FE80DF91D859194910097A1F791
:102FB00000E010E06E010894C11CD11CCAC08091D1
:102FC0007F02F801E80FF11DEE0FFF1FE80DF91D5C
:102FD00085919491E82EF92E809179028130A1F4A7
:102FE00080917F029801280F311D2230310561F454
:102FF0008091C2029091C3023FE78F3F930721F077
:1030000044EEE42E44E0F42E809179028A30D1F52A
:103010008091B102823029F0E1E0843019F4E0E0DF
:1030200001C0E2E080917F029801280F311D23301A
:10303000310589F4AE2FB0E0AA0FBB1FA850B94FDD
:103040008D919C9111973FE78F3F930721F023EEDD
:10305000E22E26E0F22E80917F029801280F311D8A
:103060002430310579F4F0E0EE0FFF1FE351F94F02
:10307000808191813FE78F3F930721F083EFE82E16
:1030800086E0F82EA02EB02EB39490917F0280910E
:103090007C029801290F311D90E02817390711F49F
:1030A0006FE701C060E08B2D53DF84E06B2D0E9441
:1030B000852AC601B70145E150E00E945334909142
:1030C0007F0280917C029801290F311D90E061E020
:1030D0002817390709F060E0C6010E946E2AAA206D
:1030E00091F480917F02882379F18AE76B2D0E9409
:1030F000852A90917F0280917C0261E0981360E0C4
:103100008DE691E01FC08A2D8630F1F480917F0218
:1031100090E00196800F911F86159705A9F08AE728
:103120006B2D0E94852A90917F0280917C029801EC
:10313000290F311D90E061E02817390709F060E0A0
:103140008FE691E00E946E2A0F5F1F4F0730110536
:1031500049F080917F029801280F311D261537050F
:103160000CF42DCF6696EEE00C940334A2E2B0E0AE
:10317000ECEBF8E10C94EF33182F7E010894E11C7E
:10318000F11C80E2F70111928A95E9F7C7012AA3A1
:1031900049A3F8D9812F60E0DBDEF7010190002020
:1031A000E9F73197EE19FF0949A14E1B2AA1429F69
:1031B000802D1124612F0E94852AC70160E00E94A2
:1031C0006E2AA296E6E00C940B34A6E1B0E0EBEE9A
:1031D000F8E10C94F13380E060E00E94852A00E081
:1031E00010E009C0F801EE59FE4F649181E00E94A1
:1031F000C5290F5F1F4F83E00030180799F780E063
:1032000066E00E94852A8E010F5F1F4FC80167E0AC
:1032100078E00E944C34C80160E00E946E2A80E091
:1032200067E00E94852AC80167EF77E00E944C346E
:10323000C80160E00E946E2A6696E4E00C940D34AA
:10324000AEE1B0E0E6E2F9E10C94EB338091830269
:10325000882311F0BADFACC580917902882339F553
:1032600080917B02882301F56091C80245E123E04B
:1032700000E07CDF6091C90281E045E123E076DF78
:10328000EE24FF24F701E653FD4F60818E2D8E5F03
:1032900045E123E001E06ADF0894E11CF11C24E031
:1032A000E216F10479F784C581E791E07DC580914C
:1032B00079028A30D1F48091B102843021F08630D5
:1032C00021F481E003C080E001C082E060917A02D5
:1032D00090917B0241E0911140E00E945D2B809132
:1032E0007B02813009F064C562C580917902883023
:1032F00009F0DCC080917B0261E0811160E083E82D
:1033000091E00E94D82A80917B02882309F04FC562
:1033100061E00E94852A8AE891E060E00E946E2ABE
:1033200008E0E02EF12CEC0EFD1EC70162E674E011
:103330000E944C34C70160E00E946E2A0E94300651
:103340005B016C0185E090E0A0E0B0E0A80EB91E42
:10335000CA1EDB1EC7016EEE77E00E944C34D70117
:103360000D900020E9F78D01015010400E191F0942
:10337000C601B5012AE030E040E050E00E94C833C9
:10338000CA01B9010E94003120E030E048EC52E46B
:103390000E9465300E0D1F1D41E022E00E94203486
:1033A000C7016CEE77E00E94413480E062E00E9449
:1033B000852AC70160E00E946E2A80E063E00E94D7
:1033C000852AC70162EE77E00E944C348091F706AF
:1033D000F70101900020E9F7BF016150704090E0D3
:1033E0004AE050E00E946D34C70160E00E946E2AFE
:1033F00080E064E00E94852AC7016BED77E00E94BF
:103400004C3480916102882321F0C70168ED77E098
:1034100003C0C70164ED77E00E9441348E01085F6C
:103420001F4FC80160E00E946E2A6091A402409183
:10343000A302C8010E941D0980E065E00E94852A60
:10344000C80160E00E946E2AC80162ED77E00E9428
:103450004C348091A602D8010D900020E9F7BD01FF
:1034600090E0615070408053984F4AE050E00E94D5
:103470006D34C80160E00E946E2A6091AB024091F9
:10348000AC022091A502C8010E947409F8010190C4
:103490000020E9F73197E01BF10B8AEFE89F802DC0
:1034A0001124805865E00E94852A5AC480917902CF
:1034B000873009F065C080917B0261E0811160E096
:1034C00083E991E00E94D82A80917B02882309F049
:1034D0004BC00E940D26C82E0E9442267C01FC0192
:1034E00020813181428153812115310541055105EA
:1034F00039F480E062E00E94852A8DE991E031C4D0
:103500008E01085F1F4FC80168EC77E00E944C34C1
:10351000D8010D900020E9F7BD018C2D90E061509D
:10352000704001964AE050E00E946D3480E062E015
:103530000E94852AC80160E00E946E2AF70141912D
:103540005191619171917F01C801A4DA80E063E03B
:103550000E94852AC80160E00E946E2AC801B70156
:1035600006DB80E064E09FCF80917B02813009F42C
:103570001EC480917B02823009F01AC453DB18C448
:1035800080917902843041F480917A0240918102E5
:103590002091800260E017C080917902863041F46A
:1035A00080917A02409181022091800261E00BC0FB
:1035B00080917902823051F480917A0240918102A7
:1035C0002091800262E00E94612CF2C38091790216
:1035D0008B3009F003C18DEA91E060E00E94D82AA7
:1035E00080E162E00E94852A18E0E12EF12CEC0EC9
:1035F000FD1EC70166EC77E00E944C344091B50295
:103600008E010F5F1F4FC80161E00E941D091C82DF
:10361000C701B8010E946234C70164EC77E00E94E0
:10362000413480917C0261E0811160E0C7010E9419
:103630006E2A8E01085F1F4FC80162EC77E00E947E
:103640004C346091C602C8010E940809C80160ECB0
:1036500077E00E94413480917C0261E0813009F082
:1036600060E0C8010E946E2A8E01085F1F4FC801EA
:103670006EEB77E00E944C348091B402D8010D903B
:103680000020E9F7BD0190E0615070408053984FF1
:103690004AE050E00E946D34C8016CEB77E00E9474
:1036A000413480917C0261E0823009F060E0C80121
:1036B0000E946E2A88E064E00E94852A8091C702F9
:1036C000882359F08091C7028C3039F08091C7026D
:1036D0006CE00E947333292F01C02CE08E01085F3B
:1036E0001F4FC8016AEB77E02E8F0E944C34C8014F
:1036F0002E8D622F0E940809C80168EB77E00E94B6
:10370000413480917C0261E0833009F060E0C801BF
:103710000E946E2A8BEB91E060E00E946E2A8E017F
:10372000085F1F4FC80166EB77E00E944C34609140
:10373000BD02C8010E940809C80164EB77E00E943D
:10374000413480917C0261E0843009F060E0C8017E
:103750000E946E2A8BEB91E060E00E946E2A8E013F
:10376000085F1F4FC80162EB77E00E944C34609104
:10377000B702C8010E940809C80160EB77E00E9407
:10378000413480917C0261E0853009F060E0C8013D
:103790000E946E2A8E01085F1F4FC8016EEA77E013
:1037A0000E944C348091C7028C3020F4C8016BEA2F
:1037B00077E003C0C80168EA77E00E9441348E01D7
:1037C000085F1F4FC80166EA77E00E94413480918C
:1037D0007C0261E0863009F06EC16EC18091790291
:1037E0008C3009F0C9C080917C02E091B102F0E018
:1037F000EE0FFF1FE85FFD4F90E0880F991F0190CB
:10380000F081E02DE80FF91F259134918E01085FBA
:103810001F4FC801B9010E944C34C80160E00E94EA
:10382000D82A2091B2023091B30221153105D1F08E
:10383000C901F90101900020E9F731978E1B9F0B18
:10384000880F991F880F991F8C5A9F4F96958795BF
:1038500062E00E94852A8091B2029091B30260E0FA
:103860000E946E2A6091B9027091BA02AA24A394B0
:103870002AE030E005C0A394CB01B9010E94933344
:103880006A307105C4F782E190E08A19910962E01B
:1038900070E00E949333862F880F880F2091B20228
:1038A0003091B3022115310511F064E001C063E0ED
:1038B0000E94852A2091C0023091C102CE01089653
:1038C00037FF03C064EA77E002C062EA77E00E9453
:1038D0004C34E090C002F090C102F7FE04C0F094B6
:1038E000E194F108F3940AE010E068E0C62ED12CD0
:1038F000CC0EDD1E13C0E016F1062CF4C60160EA02
:1039000077E00E944134C801880F991F43E0000FFF
:10391000111F4A95E1F7080F191FAA94BA2DB2306A
:1039200050F78E01085F1F4FF80101900020E9F762
:10393000BF0161507040C7014AE050E00E946D3401
:10394000C8016EE977E00E944134C80161E00E943D
:103950006E2A6091C4027091C5026115710509F467
:1039600027C2C8010E944C34C80161E00E946E2A3F
:103970008DEB91E061E0F6C1809179028D3009F024
:103980009DC080917C02E091B102F0E0EE0FFF1F3C
:10399000E85FFD4F90E0880F991F0190F081E02DC6
:1039A000E80FF91F259134918E01085F1F4FC80160
:1039B000B9010E944C34C80160E00E94D82AE0910D
:1039C000AF02F091B00280818823C9F0CF0101904D
:1039D0000020E9F731978E1B9F0B880F991F880FE6
:1039E000991F8C5A9F4F9695879562E00E94852A71
:1039F0008091AF029091B00260E00E946E2AE09147
:103A0000AD02F091AE02DF010D900020E9F71197B1
:103A10008E2F8A1B880F880F805EA091AF02B09115
:103A2000B0029C91992311F064E001C063E00E9410
:103A3000852A8E01085F1F4FC8016CE977E00E945C
:103A40004C346091AD027091AE02C8010E946234A4
:103A5000C8016AE977E00E94413480917E0261E00A
:103A6000811160E0C8010E946E2AE091AF02F091DE
:103A7000B0028081882311F064E001C063E08CE231
:103A80000E94852A8E01085F1F4FC80168E977E010
:103A90000E944C346091BE027091BF02C8010E9426
:103AA0006234C80166E977E00E94413480917E0269
:103AB00061E0813009F060E0C80154C18091790271
:103AC000813009F05DC080917B0261E0811160E08E
:103AD0008FEB91E00E94D82A80917B02882309F025
:103AE00066C18E01085F1F4FC80162E00E94C212CA
:103AF00080E061E00E94852AC80160E00E946E2A91
:103B0000C80163E00E94C21280E062E00E94852A40
:103B1000C80160E00E946E2A8091C2029091C302A7
:103B2000FFE78F3F9F07D1F080E064E00E94852A85
:103B3000C80169E877E00E944C34D8010D9000205C
:103B4000E9F7CD014091C2025091C302019762E0B2
:103B50000E94C027C80160E00E946E2A8091C202C4
:103B60009091C302BFE78F3F9B0709F421C18E01EB
:103B7000085F1F4FC80164E00E94C21280E092CC2F
:103B800080917902833009F061C080917B0261E00D
:103B9000811160E088EC91E00E94D82A80917B023C
:103BA000882309F004C161E00E94852A8E01085F24
:103BB0001F4FC80161E00E94C212C80160E00E946C
:103BC0006E2A80E062E00E94852A84ED91E060E048
:103BD0000E946E2A0E94C6116B017C016F3FEFEFBD
:103BE0007E07EFEF8E07EFE79E0731F4C80165E827
:103BF00077E00E944C3414C097FD06C0C80163E80A
:103C000077E00E944C3401C01886CE010896DC0192
:103C10000D900020E9F7CD010197B6010E94182709
:103C20008E01085F1F4FC80160E00E946E2A8BED75
:103C300091E060E00E946E2A83E060E089D980E034
:103C400063E00E94852AC80169E088C080917902FA
:103C5000853009F08AC080917B0261E0811160E0CB
:103C600082EE91E00E94D82A80917B02882309F09D
:103C70009EC061E00E94852A8E01085F1F4FC80127
:103C800065E00E94C212C80160E00E946E2A80E0D6
:103C900062E00E94852A0E94ED116B017C016F3F5A
:103CA000BFEF7B07BFEF8B07BFE79B0731F4C8016E
:103CB0006EE777E00E944C3421C097FD06C0C80132
:103CC0006CE777E00E944C3401C01886FE013896FC
:103CD000DF010D900020E9F78D01C701B601675E95
:103CE0007F4F8F4F9F4F22E330E040E050E00E9433
:103CF000C833C8010197B9010E943E278E01085FB1
:103D00001F4FC80160E00E946E2A8BEE91E060E0D8
:103D10000E946E2A83E060E01BD980E063E00E948D
:103D2000852AC8016AE00E94C212C80160E00E94B0
:103D30006E2A80E064E00E94852AC80166E00E9445
:103D4000C212C80160E00E946E2A85E060E000D9DE
:103D500080E065E00E94852AC8016BE00E94C212E3
:103D6000C80160E00E946E2A23C0809179028930E8
:103D7000F9F480917D02E091B102F0E0EE0FFF1FB7
:103D8000E85FFD4F90E0880F991F0190F081E02DD2
:103D9000E80FF91F259134918E01085F1F4FC8016C
:103DA000B9010E944C34C80160E00E94D82AE3D8CF
:103DB0006E96EAE00C940734A0E0B0E0E2EEFEE19B
:103DC0000C94EB3385B1876085B90E94AA2A0E94C2
:103DD000CE2A80E00E94D02A8FE39CE90197F1F778
:103DE00000C000000E94300A80E091D70E9456294E
:103DF0000E94ED270E94D810789480E060E00E9435
:103E0000852A87EF91E060E00E946E2A0E94870673
:103E10008823E1F38091B60080628093B6008091A0
:103E2000B6008F7B8093B6001092B00083E0809341
:103E3000B1008091B60090E08F7090700097C9F744
:103E40008FE19EE40197F1F700C0000081E087BB9D
:103E50008093700090916B00976090936B009091AD
:103E60006B00906190936B009091680091609093CB
:103E70006800909164009F6A9093640080930602AA
:103E8000AA24A39480917802882359F01092780292
:103E90000E94AA2A0E94CE2A80E00E94D02AA092E4
:103EA000070280917602882351F01092760280E01A
:103EB00060E00E94852A0E94CE2A81E028D7809166
:103EC0000602882329F480917702882309F465C0CB
:103ED000809164008F77809364000E94C3060E94E3
:103EE0003507EC010E94ED060E9491076B017C01F1
:103EF000809164008068809364008091060288232A
:103F000021F0CE01B701A601B9D5809177028823AF
:103F100009F43FC0BFB6F8946091A60270E080E05B
:103F200090E02DE030E040E050E00E9454332091DA
:103F3000A302620F711D811D911D25E0660F771F81
:103F4000881F991F2A95D1F72091A402620F711D35
:103F5000811D911D28E130E040E050E00E94543383
:103F60002091AB02620F711D811D911D2CE330E089
:103F700040E050E00E9454338B019C018091AC02E0
:103F8000BFBE080F111D211D311DCE01B701A601B5
:103F9000E4D5109206021092770280917502882370
:103FA00021F0109275020E94CE2A80910702882388
:103FB00099F01092070244D90FC08091840288239F
:103FC00059F483B7817F866083BF83B7816083BFE5
:103FD000889583B78E7F83BF80910602882309F07E
:103FE00051CF80910702882309F04CCF809177024E
:103FF000882319F347CF1F93182F809180028823BD
:10400000B1F080918102810F8093810280918102C1
:10401000813F20F48091810287FF04C0809181025A
:10402000805802C080918102809381029BC0809160
:104030007902893040F080917902893021F08091B5
:1040400079028A3041F480917B02813021F4812F02
:104050000E94931087C080917902893008F063C074
:1040600080917B02882309F05EC00E949029809194
:104070007902843041F080917902863021F080917C
:1040800079028230E1F480917A02810F80937A0282
:1040900080917A02833031F410927A028091790211
:1040A0008F5F0AC080917A028F3F11F582E0809382
:1040B0007A028091790281508093790219C08091AF
:1040C0007902810F809379021F3F81F480917902F8
:1040D000843041F080917902863021F0809179021C
:1040E000823021F482E080937A0202C010927A0238
:1040F00080917902813F20F080917902875F0AC028
:1041000080917902893020F080917902895002C033
:1041100080917902809379028FE78093810281E018
:10412000809375021FC0809179028B3021F4812F1A
:104130000E94E40A17C0809179028C3021F4812F0B
:104140000E944E0D0FC0809179028D3021F4812F95
:104150000E94B00D07C080917902873019F4812F39
:104160000E946E171F9108951F93809179028630E7
:1041700041F080917902843021F08091790282307F
:10418000B1F480918002882361F481E00E9490293B
:10419000809179028093B1028AE08093790281E074
:1041A0001FC082E00E949029109280021FC080915F
:1041B0007902893018F580917B028823F9F4E09127
:1041C0007902F0E0EE0FFF1FE85FFD4F80819181E3
:1041D000009781F081E00E94902980917B028F5F9F
:1041E00080937B0210927F0210927C0281E0809388
:1041F000750258C083E00E94902954C080917902D2
:10420000893040F080917902893021F080917902E3
:104210008A3069F510917B02113049F580917C025A
:104220008823F9F482E00E94902980917B028150DA
:1042300080937B0280917902893051F48091B102A0
:104240008093790280917D0280937C0210937B029F
:10425000809179028A3051F68091B102809379027F
:10426000C5CF81E00E9490290E94B70DBFCF8091F9
:1042700079028B3019F40E94B40A14C0809179023B
:104280008C3019F40E94EE0B0DC0809179028D30B4
:1042900019F40E94F31006C080917902873011F45E
:1042A0000E949F171F9108951F920F920FB60F92B1
:1042B0001124EF92FF920F931F932F933F934F93ED
:1042C0005F936F937F938F939F93AF93BF93EF937E
:1042D000FF930E943E0A8091A7029091A802A091AC
:1042E000A902B091AA0283709070A070B07000977C
:1042F000A105B105E1F480918202882359F48091EF
:104300007902883039F480917B02882319F481E0A6
:10431000809307028091A502882349F481E080936D
:10432000060290918202992311F4809307028091F2
:104330008202882309F083C08091A7029091A8028D
:10434000A091A902B091AA02E090B200FF2400E07F
:1043500010E0BA2FA92F982F8827E82AF92A0A2BCC
:104360001B2B80916D0290916E02A0916F02B09113
:104370007002209183022223E1F5A8019701281BF6
:10438000390B4A0B5B0BDA01C901853F31E093071A
:1043900030E0A30730E0B30760F1189B02C01A9920
:1043A00028C0813747E1940740E0A40740E0B40704
:1043B00058F4893B5BE0950750E0A50750E0B5074E
:1043C00030F49CEF84E005C098ED88E202C094EFE1
:1043D0008CE020917902293030F420917B02222355
:1043E00011F49FEF81E01899892F05DE81E0809319
:1043F000070280916C02882311F5809171029091DF
:104400007202A0917302B0917402E81AF90A0A0BC1
:104410001B0B8091B60290E0A0E0B0E04AE0880F6C
:10442000991FAA1FBB1F4A95D1F78E159F05A0079C
:10443000B10728F481E0809382020E94D02A109272
:10444000B0008091B60081FDFCCFFF91EF91BF914C
:10445000AF919F918F917F916F915F914F913F911C
:104460002F911F910F91FF90EF900F900FBE0F9023
:104470001F9018951F920F920FB60F921124DF9282
:10448000EF92FF920F931F932F933F934F935F935E
:104490006F937F938F939F93AF93BF93EF93FF930C
:1044A0001C9902C0C3D6B0C08091A7029091A80207
:1044B000A091A902B091AA02E090B200FF2400E00E
:1044C00010E0BA2FA92F982F8827E82AF92A0A2B5B
:1044D0001B2B189B09C01A9B07C081E090E0199B19
:1044E00005C080E090E002C081E090E0D82E80918D
:1044F00082028823B9F0DD20A9F010928202E092B6
:104500007102F0927202009373021093740280E0C1
:104510000E94D02A81E080937502809307028093E5
:10452000830272C080918302813051F418995CC07B
:104530001A995AC0199B58C082E08093830254C0D4
:1045400080918302823059F4DD2009F05BC0109223
:10455000830281E0809375028093070247C0189917
:1045600008C01A9906C0199904C081E080937802A6
:104570003BC0DD20D9F180916C02882309F042C054
:104580008091710290917202A0917302B0917402B5
:10459000A8019701281B390B4A0B5B0BDA01C901F3
:1045A000189B02C01A990CC08A319105A105B1056A
:1045B00038F0189902C081E001C08FEF1CDD08C0FF
:1045C000199909C08A319105A105B10520F0CCDD0A
:1045D00081E080930702E0926D02F0926E020093F8
:1045E0006F02109370020EC0DD2061F480916C02A6
:1045F000882341F0E0927102F092720200937302FC
:1046000010937402D0926C02FF91EF91BF91AF9121
:104610009F918F917F916F915F914F913F912F91DA
:104620001F910F91FF90EF90DF900F900FBE0F90B2
:104630001F9018958093CF0208951092B90080E2E0
:104640008093B8000895E091CF0230E0F4EA24E8C6
:10465000AE2FA1603F5F393C09F486C0F093BC00E7
:104660009091BC0097FFFCCF9091B900987F9093F8
:10467000CE02903129F0983389F3983009F076C052
:10468000E093BB002093BC009091BC0097FFFCCF4F
:104690009091B900987F9093CE029032D9F29833DE
:1046A000E9F2983109F05BC08093BB002093BC0015
:1046B0009091BC0097FFFCCF9091B900987F9093A8
:1046C000CE02983221F0983309F049C0C7CFF09359
:1046D000BC009091BC0097FFFCCF9091B900987FEF
:1046E0009093CE02903129F0983309F4B7CF9830E7
:1046F000B1F5A093BB002093BC009091BC0097FF44
:10470000FCCF9091B900987F9093CE02983309F432
:10471000A5CF903421F5E42FF52F94EC1AC0613029
:10472000710509F494E89093BC008091BC0087FF68
:10473000FCCF8091B900887F8093CE02803521F034
:10474000883569F460E070E08091BB00819361502E
:1047500070408E2F841B161617060CF301C080E0E4
:1047600094E99093BC00089580E0089580E0089556
:104770005091CF0220E044EA34E82F5F293C09F44D
:104780004DC04093BC009091BC0097FFFCCF90912E
:10479000B900987F9093CE02903121F0983389F33D
:1047A0009830F1F55093BB003093BC009091BC0061
:1047B00097FFFCCF9091B900987F9093CE029032F2
:1047C000E1F29833F1F2983121F58093BB003093F8
:1047D000BC009091BC0097FFFCCF9091B900987FEE
:1047E0009093CE02983219F0983399F4CACF60931F
:1047F000BB0084E88093BC008091BC0087FFFCCFA5
:104800008091B900887F8093CE02883211F481E0D4
:1048100001C080E094E99093BC00089580E0089581
:1048200080E00895282F30E0225030403695322F16
:10483000222737952795260F311D220F331F220F70
:10484000331F205F3F4FC9010895282F30E0823089
:1048500028F42851394FF90180810895C901880F42
:10486000991F880F991F05970C948C34823080F41F
:10487000282F30E03695322F222737952795260F9F
:10488000311D220F331F220F331F2C513D4F0DC0FE
:10489000C9DF0E9494346093E4067093E506809328
:1048A000E6069093E70624EE36E0C9010895A0E0FD
:1048B000B0E0EDE5F4E20C94E733EC0179018A0114
:1048C0002093D0023093D1024093D2025093D3026E
:1048D000CB01E3E0880F991FEA95E1F7860F971F58
:1048E00065E070E00E949333605C7E4F5B01CC24F6
:1048F000B7FCC094DC2CC601B50125E030E040E0F7
:1049000050E00E94C8333093D5022093D402C601F0
:10491000B5016C392FEF72072FEF82072FEF920747
:1049200024F46CE97FEF8FEF9FEF6A597F4F8F4F31
:104930009F4F25E030E040E050E00E94C833A22EB7
:10494000B32EC42ED52E6FEFA616B104C104D10428
:1049500031F02CF07FEFA72EB12CC12CD12C80E2AE
:10496000E8168EE4F80680E0080780E018071CF0DF
:10497000C801B70104C060E27EE480E090E06750C7
:104980007E448040904022E330E040E050E00E94CE
:10499000C833622E932E842E752EC801B7010E9453
:1049A00000310E94B30825E83BEE41E550E40E9447
:1049B0008C31262F372F482F592F2093D602309332
:1049C000D7024093D8025093D90220E030E040E073
:1049D0005FE30E9401300E94CD30262F372F482FF1
:1049E000592F28396AEF36076FEF46076FEF5607E2
:1049F00024F428E93AEF4FEF5FEF27593A4F4F4F32
:104A00005F4F5595479537952795A882862D992D07
:104A1000A82DB72D803068E0960760E0A60760E01B
:104A2000B60724F08FEF97E0A0E0B0E0898397709D
:104A30008A81887F892B8A83203080E2380780E052
:104A4000480780E0580724F02FEF3FE140E050E0B6
:104A5000922F990F990F990F8A818770892B8A83DA
:104A6000832F880F880F880F229526952770282B73
:104A70002B83CDB7DEB7EEE00C940334A6E0B0E0B4
:104A8000E4E4F5E20C94EC33FC019A01AB01CE01B5
:104A90000196BF010CDFBEE2EB2EB2E0FB2E08EE6A
:104AA00016E0CC24DD2420E03CE3222391F0809129
:104AB000AB024091AC02839FC0011124840F911D71
:104AC000F701608171810E947F330097A1F5223048
:104AD000C9F0F8014081F601E40FF11DEE0FFF1F50
:104AE000EE0FFF1FEC51FD4F89819A81AB81BC8194
:104AF00080839183A283B383842F8F5F8F77F801A4
:104B0000808319C083E090E02D833E830E948C3423
:104B1000B82E82E06B2D86DE49815A816B817C81C3
:104B20000E94B0346B2D6F5F6F7783E090E00E943E
:104B30009E343E812D812F5F82E090E0E80EF91EC9
:104B40000F5F1F4FE0E8F0E0CE0EDF1E233009F0CC
:104B5000ACCF2696E9E00C9408346F927F928F9246
:104B60009F92BF92CF92DF92EF92FF920F931F938B
:104B7000DF93CF9300D000D00F92CDB7DEB7FC010A
:104B80006A017B0138014901CE010196BF01A701ED
:104B900096018DDE00E112E020E0CC24CA94DC2CEA
:104BA0007601BB24C8012D830E9494342D816C159D
:104BB0007D058E059F0518F46B017C01B22E2F5FD9
:104BC000085F1F4F2E3371F70B2D10E00E5B1F4F48
:104BD00083E0000F111F8A95E1F7C801B401A3011A
:104BE0000E94B03449815A816B817C81C80104964E
:104BF0000E94B0340F900F900F900F900F90CF91B4
:104C0000DF911F910F91FF90EF90DF90CF90BF90B9
:104C10009F908F907F906F900895AF92BF92DF9298
:104C2000EF92FF920F931F93DF93CF930F92CDB725
:104C3000DEB790E1A92E92E0B92E20E0EE24FF2409
:104C40008701DD24C50129830E94943429816E15D2
:104C50007F058007910718F07B018C01D22E2F5F12
:104C600088E090E0A80EB91E2E3361F78D2D0F90CD
:104C7000CF91DF911F910F91FF90EF90DF90BF9048
:104C8000AF900895A4E0B0E0E8E4F6E20C94F133CC
:104C9000082F10E00E5B1F4F23E0000F111F2A9515
:104CA000E1F7C8010E9494346093DC027093DD0246
:104CB0008093DE029093DF02C80104960E94943430
:104CC0006093E0027093E1028093E2029093E3022A
:104CD0008CED92E02496E4E00C940D348EE308957C
:104CE0001F93CF93DF93C0E1D2E010E0CE010E948A
:104CF0009434611571058105910521F01F5F289697
:104D00001E33A1F7812FDF91CF911F9108951F933B
:104D1000CF93DF93182F1092DB021092DA02A8EEE5
:104D2000B6E020E030E01D9280E0F901E80FF11DCF
:104D3000EE0FFF1FEE0FFF1FEC51FD4F108211828F
:104D4000128213828F5F803881F720583F4F81E0B5
:104D50002030380741F780E090E00E9499342EEB34
:104D6000833B920711F4112399F18EE192E060E008
:104D7000B5D380E090E043EB5EEB60E070E00E9432
:104D8000B03484E090E040E050E0BA010E94B034DA
:104D900010E082E0612F46DD40E050E0BA010E9461
:104DA000B0341F5F1038A9F7C0E1D2E0CE0140E077
:104DB00050E0BA010E94B034CE01049640E050E0C9
:104DC000BA010E94B034289684E0C030D80771F749
:104DD000DF91CF911F9108950F931F938C01882726
:104DE00077FD8095982F0E94003120912D0222237B
:104DF00091F420E030E040E852E40E94003020E0EE
:104E000030E040EA50E40E948C3120E030E040E1A4
:104E100051E40E94653020E030E040E05FE30E9412
:104E20008C3141E021E00E9420341F910F910895C0
:104E30000F931F938C01882777FD8095982F0E94F0
:104E4000003120912D02222361F420E030E040EA7D
:104E500050E40E948C3120E030E040E151E40E94B7
:104E6000653020E030E040E05FE30E948C3141E0BB
:104E700021E00E9420341F910F9108950F931F93FA
:104E80008C0180912D02882391F0882777FD8095F1
:104E9000982F29E83BE040E050E00E94543320EA9C
:104EA00036E841E050E00E94C833622F732F882714
:104EB00077FD8095982F0E94003120E030E040E09F
:104EC0005FE30E948C3120912D02222311F022E019
:104ED00001C020E041E00E9420341F910F9108950D
:104EE000CF93DF93EC01CB0120912D022223A1F47B
:104EF0009B01B901882777FD8095982F24E630E043
:104F000040E050E00E94543328E431E040E050E0BB
:104F10000E94C833822F932FBE014AE050E00E94C6
:104F20006D34DF91CF910895262FBA01222309F421
:104F300053CF213009F4A2CFD3CF662351F4E091AF
:104F40002D02F0E0EE0FFF1FE65CFD4F60817181E6
:104F500015C0613041F4E0912D02F0E0EE0FFF1F2B
:104F6000E45CFD4F07C0E0912D02F0E0EE0FFF1F63
:104F7000E25CFD4F608171816F5F7F4F0C94413423
:104F80001F93CF93DF93EC01162F8FE74E3F580707
:104F900014F018820AC0CE01C7DFCE0163E479E0C5
:104FA0000E944134CE01612FC8DFDF91CF911F9164
:104FB00008951F93CF93DF93EC01162F8FE74E3F99
:104FC000580714F0188205C0CE01AEDFCE01612F64
:104FD000B4DFDF91CF911F9108952C9A089558D195
:104FE000E4E6F0E08081877F80831092800089E092
:104FF00080938100109289008FEC8093880082E07A
:1050000086BB2B9A0895E4E6F0E080818860808377
:1050100008959091EA0698279093EA062B9A92E0D9
:1050200096BBB19BFECF92E096BBB19BFECF2B9877
:1050300092E096BBB19BFECF98E022E080FF02C0D9
:105040002B9A01C02B9826BBB19BFECF915011F03B
:105050008695F4CF2B9A82E086BBB19BFECF089554
:10506000A1E0B0E0E6E3F8E20C94EB3381E0D1DFBD
:1050700037DEC82ECEDFD1DDA82EBB240894A11CBC
:10508000B11CAC18B108B7FE03C028DEA80EB11CD5
:10509000DD241EC08A2DF6DD082F0894A11CB11C4A
:1050A00099831CDE282F30E09981A216B30611F4F3
:1050B000AA24BB24192F88E0E82EF12CE00EF11E63
:1050C000F80181918F01A5DF0E151F05C9F7D39453
:1050D000DC1400F32196EAE00C940734A0E0B0E081
:1050E000E4E7F8E20C94EC3381E093DF83E091DFB6
:1050F00080E88FDF8091A5028CDF8091AC0289DF90
:105100008091AB0286DF8091A40283DF8091A302AD
:1051100080DF8091A6027DDFCEE2D2E0DD248E0129
:10512000898177DF2296F801808173DF8D2D8DDBF9
:10513000C82EBB248D2D6C2D99DBC394FC2DF0382B
:1051400009F4CC24082F192F94E0E92EF12CE00E5D
:10515000F11EF80181918F015CDF0E151F05C9F763
:10516000B394FB2DF03831F7D3942D2D2330B9F6BD
:10517000CDB7DEB7E9E00C9408341F93CF93DF93EB
:10518000182F8CE446DF8FE444DF87E442DF10927F
:10519000EA06123379F0133379F0113371F4C2E671
:1051A000D4E002C036DF2196FE0184918823D1F736
:1051B00030DF03C093DF01C053DF8091EA0629DFAF
:1051C000DF91CF911F91089580E090E022E008C028
:1051D000B19B06C026BB01963BE48030930711F1DA
:1051E0001C9BF6CF09C0B19B08C026BB01963BE4CF
:1051F0008030930711F418C022E01C99F4CF80E2AC
:105200008A95F1F7109285001092840098E080E072
:1052100022E026BBB19BFECF86951C9980689150F9
:10522000C1F7089580E0089580E00895A4E0B0E01B
:10523000ECE1F9E20C94F033D2DEDE011196EEE5FA
:10524000F2E083E001900D928150E1F725E0F22E2B
:1052500090E08E010F5F1F4F9C83B6DF9C81F801A9
:10526000E90FF11D2081821741F49F5F933049F4CB
:10527000ABDF882341F081DF06C091E029818213F2
:1052800090E0FA9449F7BFDE2496E5E00C940C34E4
:10529000109284025E98589814BC10926F0016BA4F
:1052A000E4E6F0E08081886280830895569A509AFF
:1052B000EFCF8091EC06882329F48091EB068230B1
:1052C00078F40CC08091EC06813039F48091EB06C3
:1052D000882319F0823021F401C0DACF80E401C0C4
:1052E00080E6909164009F7D9093640092E494BD69
:1052F00093E095BD87BD16BC80916400877F809345
:105300006400109280008DE080938100909389006A
:1053100080E28093880082E086BB80936F000895CE
:1053200090916102992341F08093EB061092EC0674
:1053300081E080938402BDCF08951F920F920FB633
:105340000F9211242F933F934F935F936F937F930B
:105350008F939F93AF93BF93EF93FF938091EC064E
:105360008F5F8093EC06A5DFFF91EF91BF91AF9126
:105370009F918F917F916F915F914F913F912F916D
:105380000F900FBE0F901F901895882311F05F9A11
:1053900001C05F985C9888E02D9867FF02C02B9A47
:1053A00001C02B982D9A815011F0660FF5CF5C9AB1
:1053B0002B9A08958AB1806B8AB984B1886284B9C6
:1053C0005C9A5D9A8FEC97E00197F1F700C00000BE
:1053D0005D988FE19EE40197F1F700C000005D9AAF
:1053E00080E06EEAD2DF80E060E0CFDF80E060E165
:1053F000CCDF80E060E4C9DF80E061E8C6DF609177
:10540000F70680E0C2DF80E061EABFDF80E066EAA5
:10541000BCDF80E064EAB9DF80E068EAB6DF80E004
:105420006FE3B3DF80E063EDB0DF80E060E0ADDF2D
:1054300080E065EDAADF80E060E8A7DF80E069ED4D
:10544000A4DF80E061EFA1DF80E06AED9EDF80E015
:1054500062E19BDF80E06BED98DF80E060E495DF48
:1054600080E060E292DF80E060E08FDF80E061EA70
:105470008CDF80E068EC89DF80E06DE886DF80E02B
:1054800064E183DF80E06FEA80CFEF92FF920F93B9
:105490001F93CF93DF93F62E05E0809F80011124A8
:1054A0000B55174FC0E0D0E08FE7E82EF801EC0F66
:1054B000FD1F6491F1106E2581E067DF2196C530F4
:1054C000D105A1F7FF2011F06FE701C060E081E096
:1054D0005CDFCDB7DEB7E6E00C940B34EF92FF92C1
:1054E0001F93CF93DF93162FE82EE7017E01F92E4D
:1054F000E70102C0612FC9DF89918823D9F7DF91C5
:10550000CF911F91FF90EF9008950F931F93182F45
:10551000062F682F6F7080E038DF612F62956F7003
:10552000606180E032DF602F6770606B80E02DDFAC
:105530001F910F91089580E060E0E7DF5F9A5C982B
:105540002B9880E090E22D982D9A0197E1F75C9AD4
:105550002B9A08958FEF9FE79093F9068093F806B2
:105560009093EE068093ED061092FE069093FB0654
:105570008093FA069093F0068093EF061092FF0650
:105580009093FD068093FC069093F2068093F106BB
:10559000109200078FEF8093F7060CCFCCCF0895C1
:1055A000882319F080E06EEA02C080E06FEAEDCE59
:1055B000A1E0B0E0EEEDFAE20C94ED33D82EE92E46
:1055C000162FE82FF92FDF010D900020E9F7119732
:1055D000A81B23E130E02A1B310935952795C22EFF
:1055E0000A2F01950D5E021B80E060E08EDF112323
:1055F00011F06FE701C060E081E0C7DE112319F010
:1056000042E652E002C044E652E0CA01612F66DF82
:10561000112331F486E060E078DF81E060E4B5DEFC
:10562000FF24F39411C0112329F08AE692E061E08F
:1056300055DF09C090E081E060E49983A6DE99819E
:105640009F5F9630C1F7F394FC1468F38AE692E00A
:10565000612F44DF8D2D9E2D612F40DF8AE692E081
:10566000612F3CDFFF24F3940FC0112329F08AE659
:1056700092E061E033DF07C096E0E92E81E060E46C
:1056800084DEEA94D9F7F394F01678F3112311F03D
:105690006FE701C060E481E078DE8AE760E035DF33
:1056A000112319F086E692E002C088E692E0612FAD
:1056B00015DF2196E8E00C940934A5E1B0E0E3E6BB
:1056C000FBE20C94EF33282FF62EE42E882329F4E6
:1056D000CE01019665E27BE009C0CE010196213042
:1056E00019F46CE17BE002C063E17BE00E944C3482
:1056F0008E010F5F1F4FC8016CE07BE00E944134B8
:10570000F80101900020E9F7CF01EF2DF0E0EE0F56
:10571000FF1FEC5CFD4F208131810197B9010E9490
:105720004134C8016E2D44DF6596E6E00C940B34DD
:105730004F925F927F928F929F92AF92BF92CF9241
:10574000DF92EF92FF920F931F93DF93CF93CDB72A
:10575000DEB727970FB6F894DEBF0FBECDBF782E09
:105760002B0149015801823021F4440C551C440F8F
:10577000551FD401F50180E01D9211928F5F843195
:10578000D9F7D6011C928E010F5F1F4FC801672DFC
:10579000CBDBD80145E020C0249F90011124C90132
:1057A000805A90402B593040FC01EB5BF64F6491DE
:1057B000F6015081F501E50FF11D60835F5FF60191
:1057C000508301968217930779F7F501E50FF11DD4
:1057D00010825F5FF60150832D912223E9F6D701F5
:1057E0001C92CE010196672DA2019EDB45E021C0EF
:1057F000249F90011124C901805A90402B593040B8
:10580000FC01EB5BF64FE491D7015C91D401A50F4D
:10581000B11DEE0FEC935F5FF70150830196821785
:10582000930771F7F401E50FF11D10825F5FD70157
:105830005C93F80121918F012223D1F627960FB6B0
:10584000F894DEBF0FBECDBFCF91DF911F910F91B6
:10585000FF90EF90DF90CF90BF90AF909F908F9090
:105860007F905F904F900895CF93DF93EC0180E09D
:1058700060E04BDE81E06FE788DDCE0161E02EDE87
:10588000DF91CF910895A1E0B0E0E8E4FCE2AAC77F
:10589000182FE82FF92FDF010D900020E9F711975D
:1058A000A81B2A2F220F2A0F220F80E8821B60E0FC
:1058B00099832BDE812F998161E010DE2196E3E050
:1058C000ADC7AAE7B0E0E6E6FCE27DC7AC968FAFD5
:1058D000AC97762EAD964FAFAD97E0962FAFE09791
:1058E0000E942524682E40E0CC24CA94DC2CAA24F3
:1058F000BB24EE24EA94FE2CAD962FADAD97022F7B
:1059000010E0080F111D0F771070AC968FADAC979B
:10591000642FE5964FAFE5970E943624FC01208165
:10592000E5964FADE5972223B9F481813281932F1B
:105930009770009789F4532F569556955695338155
:10594000632F6295660F607E862F852B932F969529
:1059500096959695009749F1772011F430E017C09D
:105960008281372D313021F42181382F37700FC0DB
:10597000982F9695969596958381582F5295550F09
:10598000507E252F292B382F369536953695A21621
:10599000B30608F459012E153F0508F47901842F48
:1059A00090E08017910709F469014F5F403809F0D2
:1059B000ACCF772009F049C0A60144515040AB96C6
:1059C0005FAF4EAFAB978091F8069091F9065FE715
:1059D0008F3F950739F46CEE862E6FEF962E8E0C66
:1059E0009F1C04C08090F8069090F9068091ED0607
:1059F0009091EE066FE78F3F960729F48CEE9FEFAC
:105A0000A80EB91E04C0A090ED06B090EE0622E0EC
:105A100030E0C401B90187D67093F4066093F306B1
:105A2000C501B90180D67093F6066093F5068091A2
:105A3000F8069091F906AFE78F3F9A0709F0AFC0DB
:105A40008091ED069091EE06AAC0B72DB13009F015
:105A500059C0F601E057FE4FAB96FFAFEEAFAB97E4
:105A60008091FA069091FB06FFE78F3F9F0739F47C
:105A700050E9852E51E0952E8E0C9F1C04C080901D
:105A8000FA069090FB068091EF069091F0062FE7C2
:105A90008F3F920729F440E951E0A40EB51E04C0DF
:105AA000A090EF06B090F006B401882777FD8095AE
:105AB000982FA6D320EA34E747E852E406D36DD303
:105AC0007093F4066093F306B501882777FD8095FF
:105AD000982F96D320EA34E747E852E4F6D25DD314
