:100000000FC600002AC6000028C600000C94212458
:1000100024C6000022C6000020C600001EC6000044
:100020001CC600000C944F2318C600000C94962B9D
:1000300014C6000012C6000010C600000EC6000064
:100040000CC600000AC6000008C6000006C6000074
:1000500004C6000002C6000000C60000FEC5000085
:10006000FCC50000FAC500000B1511159315C2154B
:1000700029154D157C1785176016B516C616081577
:1000800007634236B79BD8A71A39685618AEBAAB81
:10009000558C1D3CB7CC5763BD6DEDFD753EF61715
:1000A0007231BF000000803F08000000BE9224496A
:1000B000123EABAAAA2ABECDCCCC4C3E000000809A
:1000C000BEABAAAAAA3E00000000BF000000803F0D
:1000D0000000000000084178D3BB4387D1133D19CD
:1000E0000E3CC3BD4282AD2B3E68EC8276BED98FFA
:1000F000E1A93E4C80EFFFBE01C4FF7F3F0000003E
:1001000000004A616E00466562004D6172004170F8
:1001100072004D6179004A756E004A756C00417538
:100120006700536570004F6374004E6F760044653E
:100130006300020106010A010E01120116011A01F3
:100140001E01220126012A012E0120006400680000
:100150003464003264003234680032680039306D33
:10016000006D005000410030003A0030003A00308D
:10017000005000410030003A0030002000203000E4
:10018000FFFFFFFFFFFFFFFFFFFF0F0F0F0F0F0F1F
:100190000F0FFFFFFFFEFCF8F0E0C0000000FFFFC4
:1001A000FFFFFFFFFFFFFEFCF8F0E0C08000000053
:1001B00080C0E0F0F8FCFEFFFFFFFFFFFFFF000044
:1001C0000080C0E0F0F8FCFEFFFFFF0F0F0F0F0FE5
:1001D0000F0F0FFFFFFFFEFCF8F0E0C080000000F3
:1001E000FFFFFFFFFFFFFFFFFFFF00000000000019
:1001F00000000000000000FFFFFFFFFFFFFFFFFF08
:10020000FFFFFFFFFFFFFFFFFFFF1E1E1E1E1E1E44
:100210001E1EFFFFFFFFFFF7E3C180000000FFFF8E
:10022000FFFFFFFFFFFFFFFF0F1F3F7FFFFFFEFFEF
:10023000FF7F3F1F0FFFFFFFFFFFFFFFFFFF0000DC
:1002400000FFFFFFFFFFFFFFFFFFFF0000000000B8
:10025000000000FFFFFFFFFFFFFFFFFFFF000000A8
:10026000FFFFFFFFFFFFFFFFFFFF80C0E0F0F8FC94
:10027000FEFCF8F0E0C080FFFFFFFFFFFFFFFFFF85
:10028000FFFFFFFFFFFFFFFFFFFF80808080808078
:100290008080FFFFFFFFFFFF7F3F1F000000FFFF89
:1002A000FFFFFFFFFFFFFFFF000000000001030151
:1002B0000000000000FFFFFFFFFFFFFFFFFF000047
:1002C000000F1F3F7FFFFFFFFFFFFF8080808080C8
:1002D000808080FFFFFFFFFFFF7F3F1F0F000000B8
:1002E000FFFFFFFFFFFFFFFFFFFFFF7F3F1F0F0726
:1002F00003070F1F3F7FFFFFFFFFFFFFFFFFFFFF12
:1003000087878787870707070707878707070707FD
:1003100007070707070301000000000000008787A8
:100320000707078787070707000000000000000095
:10033000000000000007070707070707070700007E
:100340000000000000000103070707070707878771
:1003500007070707070703010000808000000080EF
:1003600087070707878707070301000000000000D1
:100370000000000000000001030707070707070748
:10038000FFFF1919FFE70000000CFDFD0000000051
:10039000FCFE8686FEFE0000000000000000FFFF5D
:1003A0001E781EFFFF00FCFE66667E7C00003C7E21
:1003B0006666E6C600003C7E6666E6C60000000093
:1003C00000000000FCFE0606FEFC000000001F1FEF
:1003D00000000000000000000000FFFFE078E0FFE8
:1003E000FF00000CFDFD00000000FEFE06061E1CC6
:1003F0000000FCFE66667E7C00003C7E6666E6C60B
:1004000007070606070300000006070706000000AE
:10041000181919191F0F000000000000000007073D
:100420000000000707000307060606060000060690
:100430000606070300000606060607030000000084
:10044000000000000307060607030000000000008C
:100450000000000000000000000007070100010785
:10046000070000060707060000000707000000005D
:100470000000030706060606000006060606070338
:10048000312E302E300045786974204D656E750030
:100490004C696E6520312044617461004C696E6561
:1004A00020322044617461004C696E652033204421
:1004B000617461004C696E65203420446174610090
:1004C0004C696E6520352044617461004C696E652D
:1004D0002036204461746100860490049C04A804C2
:1004E000B404C004CC04000043616C69627261749E
:1004F00065005365742044657374696E6174696F37
:100500006E0052657365742044657374696E61741E
:10051000696F6E008604E804F204000044617465AB
:1005200020616E642054696D65004D65617375725C
:10053000656D656E7420556E69747300536C6565E6
:10054000702044656C617900536F756E64004C4394
:100550004420436F6E747261737400526573746FDC
:1005600072652044656661756C74730045726173D1
:100570006520416C6C20446174610086041C052A6E
:10058000053C0548054E055B056C05000054656D8E
:10059000706572617475726500416C74697475641C
:1005A000650052617465206F6620417363656E74E7
:1005B0000054696D6520746F2044657374696E61C1
:1005C00074696F6E0053746174696F6E2050726548
:1005D000737375726500536561204C6576656C2098
:1005E00050726573737572650054696D65206F662E
:1005F00020446179004461746520616E642054690F
:100600006D650054656D7065726174757265205416
:1006100072656E64005072657373757265205472F2
:10062000656E64005765617468657220466F726517
:100630006361737400456D7074790086048D05994B
:1006400005A205B105C505D605E905F5050306159D
:10065000062406350600005669657720536E6170E2
:1006600073686F74204C6F670054616B6520536E24
:10067000617073686F740086045706690600004550
:1006800078706C6F726520477261706800447261A7
:1006900077696E67205374796C6500437573746F66
:1006A0006D20592D41786973204D696E0043757333
:1006B000746F6D20592D41786973204D6178004128
:1006C00075746F20592D41786973204D696E004112
:1006D00075746F20592D41786973204D61780086BB
:1006E000047F068D069B06AD060000536F6172699C
:1006F0006E6700526973696E6720466173740052B9
:100700006973696E6700526973696E6720536C6F15
:1007100077005374656164790046616C6C696E673B
:1007200020536C6F770046616C6C696E67004661A0
:100730006C6C696E67204661737400506C756D6DEA
:100740006574696E6700EB06F306FF06060712077D
:10075000190726072E073B072B002D2D2D2D002BCB
:10076000002D2D2D0044657374696E6174696F6E80
:100770002000200020002000200020003000200069
:100780002D002000504D00414D0020002000300081
:100790002000200030002000200030002000200039
:1007A000200020003000200020002000536E6170E7
:1007B00073686F74200020004F6666004F6E005310
:1007C0006F756E642000436F6E74726173742000E5
:1007D0005600426174746572792000205041535470
:1007E0002000414C54495455444500505245535300
:1007F0005552450054454D500020202020202074A3
:100800006F20756E6C6F636B0020686F6C64205096
:1008100052455620616E64204E45585400200020F9
:100820000020002000556E696D706C656D656E74FA
:10083000656400200020004572722000436C6561F1
:10084000722C20447279004661697200556E6368AB
:10085000616E676564005261696E0053746F726DFA
:100860007900566572792053746F726D7900436C0C
:10087000656172696E6700476F6F642057656174C8
:1008800068657200417070722E2053746F726D0033
:10089000506F6F72205765617468657200556E63A2
:1008A00068616E6765640042726965662053686FAF
:1008B00077657200556E617661696C61626C650086
:1008C000466F72656361737420005072657373754F
:1008D0007265200054656D70200030003A003000D1
:1008E0002D2D2D2D2D0054696D6520746F204465CC
:1008F000737420002F6D696E0044657363656E64C8
:10090000696E672000417363656E64696E672000DD
:10091000536561204C6576205072732000537461DA
:1009200074696F6E205072732000604300206D6206
:1009300000206D0060460020696E00206674002073
:1009400000000000000000005F000000070007003A
:10095000147F147F14242A7F2A122313086462361A
:10096000495620500006050300001C2241000041AA
:10097000221C002A1C7F1C2A08083E0808008070E0
:100980003000080808080800006060002010080413
:10099000023E5149453E00427F4000724949494666
:1009A0002141494D331814127F1027454545393CE4
:1009B0004A494931412111090736494949364649D1
:1009C00049291E0000140000103070301000081C6F
:1009D0003E7F1414141414007F3E1C0802015909B0
:1009E000063E415D594E7C1211127C7F49494936C1
:1009F0003E414141227F4141413E7F494949417F3A
:100A0000090909013E414151737F0808087F0041EF
:100A10007F41002040413F017F081422417F404038
:100A200040407F021C027F7F0408107F3E4141410D
:100A30003E7F090909063E4151215E7F0919294679
:100A4000264949493203017F01033F4040403F1F8F
:100A50002040201F3F4038403F63140814630304C4
:100A60007804036159494D43007F41414102040824
:100A70001020004141417F040607060440404040E9
:100A800040000605030020545478407F2844443831
:100A90003844444428384444287F38545454180077
:100AA000087E090218A4A49C787F080404780044F6
:100AB0007D40002040403D007F1028440000417FE1
:100AC00040007C047804787C08040478384444446A
:100AD00038FC1824241818242418FC7C0804040862
:100AE000485454542404043F44243C4040207C1C7B
:100AF0002040201C3C4030403C44281028444C906E
:100B000090907C4464544C44205041535420004104
:100B10004C54495455444500505245535355524541
:100B20000054454D500000407A10F35A00A0724E18
:100B300018090010A5D4E80000E87648170000E482
:100B40000B54020000CA9A3B000000E1F5050000CA
:100B500080969800000040420F000000A08601002F
:100B60000000102700000000E803000000006400FF
:100B7000000000000A00000000000100000000006A
:100B80002C76D888DC674F0823DFC1DFAE59E1B18E
:100B9000B796E5E3E453C63AE651997696E8E6C29D
:100BA0008426EB898C9B62ED407C6FFCEFBC9C9FA4
:100BB00040F2BAA56FA5F490055A2AF75C936B6CC6
:100BC000F9676DC11BFCE0E40D47FEF520E6B500BA
:100BD000D0ED902E0300943577050080841E080028
:100BE00000204E0A000000C80C333333330F986ED8
:100BF00012831141EF8D2114893BE65516CFFEE695
:100C0000DB18D1844B381BF77C1D901DA4BBE4245A
:100C1000203284725E228100C9F124ECA1E53D27D7
:100C200011241FBECFEFD8E0DEBFCDBF12E0A0E0A1
:100C3000B1E0E2E1F3E702C005900D92A835B107FB
:100C4000D9F716E0A8E5B2E001C01D92A93EB107B0
:100C5000E1F70E94E0200C948739D2C90F931F93CB
:100C6000809164008E7F8093640080917A00806818
:100C700080937A0086E480937C008FE99FE001975F
:100C8000F1F700C0000080917A00806480937A00C0
:100C900080917A0086FDFCCF2091780030E040E022
:100CA00050E080917900782F60E0882777FD80956B
:100CB000982F622B732B842B952B2CEB3CE040E080
:100CC00050E00E949E3520917A002F7720937A0081
:100CD000209164002160209364002FEF33E040E016
:100CE00050E00E941236B901CA011F910F91089578
:100CF00080E896EEA5ECB7E4809385029093860297
:100D0000A0938702B09388020895A2E0B0E0EBE8D8
:100D1000F6E00C943D3690E062E070E0AE014F5F8B
:100D20005F4F0E94112580935802998180E02A81AB
:100D300030E0282B392BC9012296E2E00C94593679
:100D40003B9A43988FEC97E00197F1F700C00000C1
:100D5000439A8FE19EE40197F1F700C0000080E81C
:100D600096EEA5ECB7E48093850290938602A0935B
:100D70008702B09388020E940B258EEE0E94082500
:100D80008AEAC3DF90937202809371028CEABDDF1E
:100D900090937A02809379028EEAB7DF90938A0269
:100DA0008093890280EBB1DF90937E0280937D0275
:100DB00082EBABDF909378028093770284EBA5DF20
:100DC000909376028093750286EB9FDF9093740276
:100DD0008093730288EB99DF90936E0280936D028B
:100DE0008AEB93DF9093700280936F028CEB8DDF20
:100DF0009093800280937F028EEB87DF90937C023A
:100E000080937B0280915802089584EF90E06EE217
:100E10000E94AA258FE097E20197F1F700C0000039
:100E200086EF73DF20915802222319F0282F392FE3
:100E300002C020E030E0C9010895A3E0B0E0E3E2A1
:100E4000F7E00C943D3684EF90E064EF0E94AA2511
:100E50008FE19BEC0197F1F700C0000086EF90E076
:100E600063E070E0AE014F5F5F4F0E941125882361
:100E700019F1298130E040E050E0A9013327222711
:100E80008A8190E0A0E0B0E0BA2FA92F982F8827A0
:100E9000282B392B4A2B5B2B8B8190E0A0E0B0E014
:100EA000282B392B4A2B5B2B85E056954795379598
:100EB00027958A95D1F703C020E030E0A901B90158
:100EC000CA012396E2E00C945936EF92FF920F93F9
:100ED0001F93BC0180E090E0209175023091760272
:100EE00040E050E0621B730B840B950B209177025E
:100EF0003091780240E050E00E949E357B018C01E9
:100F0000AFE015950795F794E794AA95D1F760910E
:100F10007F0270918002882777FD8095982FFBE0F3
:100F2000660F771F881F991FFA95D1F720917B02D2
:100F300030917C02442737FD4095542F2E0D3F1DE4
:100F4000401F511F0E9412362E0D3F1D401F511F82
:100F50002093810230938202409383025093840253
:100F6000285F3F4F4F4F5F4FE4E0559547953795CA
:100F70002795EA95D1F7C9011F910F91FF90EF9046
:100F80000895A4E0B0E0E7ECF7E00C942D361B01E7
:100F90002C01A0908102B0908202C0908302D09078
:100FA000840280E690EFAFEFBFEFA80EB91ECA1E15
:100FB000DB1EC601B501A60195010E949E3569831D
:100FC0007A838B839C836091890270918A0288273F
:100FD00077FD8095982F0E949E357B018C014DE016
:100FE00015950795F794E7944A95D1F782E090E03C
:100FF000A0E0B0E0E80EF91E0A1F1B1F69817A818C
:101000008B819C813CE095958795779567953A957E
:10101000D1F72091730230917402442737FD409537
:10102000542F0E949E35BC01992777FD9095892FFA
:10103000E60EF71E081F191F82E015950795F79415
:10104000E7948A95D1F780E090E8A0E0B0E0E80E60
:10105000F91E0A1F1B1F20917D0230917E0240E085
:1010600050E0C801B7010E949E353B014C01BFE032
:101070009694879477946794BA95D1F760917902A2
:1010800070917A02882777FD8095982FA6019501A7
:101090000E949E357B018C01ABE015950795F79476
:1010A000E794AA95D1F78091710290917202AA27D4
:1010B00097FDA095BA2FF2E0880F991FAA1FBB1FBA
:1010C000FA95D1F7E80EF91E0A1F1B1F20916D0239
:1010D00030916E02442737FD4095542F69817A8103
:1010E0008B819C810E949E35E7E195958795779548
:1010F0006795EA95D1F7E60EF71E081F191FEE0C4B
:10110000FF1C001F111F2E183F08400A510AC20180
:10111000B1012AE638E140E050E00E949E3597FD9B
:101120000BC0660F771F881F991FA40193010E94AF
:10113000F03579018A010AC0A40193010E94F035BB
:1011400079018A01EE0CFF1C001F111F552717FDA6
:101150005A95412F302F2F2DCA01B9010E949E357B
:101160002EED3BE040E050E00E949E355B016C01BB
:10117000C801B70123E433EE4FEF5FEF0E949E35C5
:101180009C01552737FD5095452F2153314F4F4F27
:101190005F4F5601DD24B7FCD094CD2C2A0D3B1DAA
:1011A0004C1D5D1DB4E05595479537952795BA952B
:1011B000D1F72E0D3F1D401F511FB901CA012496C2
:1011C000E2E10C94493620918502309186024091EB
:1011D0008702509188020E94AF3221EB3CED42E43D
:1011E0005EE30E943934562F472F382F292F60E0B5
:1011F00070E080E89FE3DA01F9012B2F3A2F4F2F9F
:101200005E2F0E944A3220E03AE24DE257E40C940D
:10121000D633EF92FF920F931F937B018C01CA018B
:10122000B90120E03AE24DE257E40E94AF329B015F
:10123000AC0160E070E080E89FE30E944A3226EF54
:1012400038E248EA50E40E943934562F472F382FAD
:10125000292FC801B701DA01F9012B2F3A2F4F2F9F
:101260005E2F0E94AF321F910F91FF90EF90089573
:10127000EF92FF921F93CF93DF93EC01162FE42F91
:10128000F0E0EE0FFF1FE05DFE4F25913491CE019F
:10129000B9010E9496361A3020F4CE016DE771E054
:1012A00003C0CE016BE771E00E948B367E01AC2F4C
:1012B000BF2DFD0101900020E9F73197EA1BFB0BE0
:1012C000EC0FFD1F812F90E0BF014AE050E00E942B
:1012D000BE36CE01DF91CF911F91FF90EF90089520
:1012E000A1E0B0E0E6E7F9E00C9437366C01162F88
:1012F000042FFC011082662389F06C3079F0862F70
:101300006CE00E94BD35292F9A3048F4C60169E788
:1013100071E029830E948B36298101C02CE0F601FF
:1013200001900020E9F73197EC19FD09EC0DFD1D46
:10133000822F90E0BF014AE050E00E94BE36C60115
:1013400067E771E00E948B360A3028F4C60165E732
:1013500071E00E948B36F60101900020E9F7319789
:10136000EC19FD09EC0DFD1D802F90E0BF014AE056
:1013700050E00E94BE361C3018F463E771E002C0F2
:1013800061E771E0C6010E948B36C6012196E8E054
:101390000C945336A1E0B0E0E0EDF9E00C94353662
:1013A0005C01162F042FF22EDC011C92662389F0BB
:1013B0006C3079F0862F6CE00E94BD35292F9A3071
:1013C00048F4C5016FE671E029830E948B362981BC
:1013D00001C02CE0D5010D900020E9F7BD0161505E
:1013E00070406A197B096A0D7B1D822F90E04AE0EC
:1013F00050E00E94BE36C5016DE671E00E948B365A
:101400000A3028F4C5016BE671E00E948B36D501E5
:101410000D900020E9F7BD01615070406A197B0909
:101420006A0D7B1D802F90E04AE050E00E94BE369E
:10143000C50169E671E00E948B36BF2DBA3028F4F1
:10144000C50167E671E00E948B36F501019000202E
:10145000E9F73197EA19FB09EA0DFB1D8F2D90E0A2
:10146000BF014AE050E00E94BE361C3018F465E629
:1014700071E002C063E671E0C5010E948B36C501D0
:101480002196EAE00C9451360F931F938C016C3334
:10149000710550F4CB01B8014AE050E00E94BE361D
:1014A000C80161E671E047C06435710519F46DE566
:1014B00071E01DC06038710519F46AE571E017C06C
:1014C00085E0683E780721F4C80166E571E00FC049
:1014D00089E0683D780721F4C80163E571E007C041
:1014E00083E1603B780731F4C80160E571E00E9458
:1014F000963623C088E06137780778F4CB016CE337
:1015000070E00E94C935CB01B8014AE050E00E946A
:10151000BE36C8016EE471E00EC0CB0160EA75E032
:101520000E94C935CB01B8014AE050E00E94BE36A6
:10153000C8016CE471E00E948B36C8011F910F91C5
:101540000895A0E1B0E0E7EAFAE00C943536E82E21
:10155000D92E9B018FB7F894F0909402C09093021B
:10156000E0918C0240918B02F0918E028FBFCB01F3
:101570006CE370E00E94C935F81A8F2D8C3318F097
:10158000CA948CE3F80EC9016CE370E00E94C9357F
:101590009B01CB0168E170E00E94C935C81A8C2D0F
:1015A000883118F0E15088E1C80EF37011F4FDE1C4
:1015B00001C0FCE1EE23D9F4415049F0423091F0F2
:1015C000413091F0433081F0453071F002C04CE081
:1015D0000BC0473049F0483039F04A3029F04C30E0
:1015E00029F402C0EF2F03C0EFE101C0EEE1C90111
:1015F00068E170E00E94C9359B0122C02150304053
:10160000E1508E2F81508F31D8F0415049F0423057
:1016100091F0413091F0433081F0453071F002C0DB
:101620004CE00BC0473049F0483039F04A3029F0DF
:101630004C3029F402C0EF2F03C0EFE101C0EEE10E
:1016400021153105D9F65E010894A11CB11CC50114
:101650006E2F0EDE8E01085F1F4FC8016C2D4F2DBF
:101660003FDE8E2D9D2DB5010E94B7368E2D9D2D0E
:101670006AE471E00E948B368E2D9D2DB8010E9488
:10168000AC368E2D9D2D6096EAE00C94513610926A
:101690008E0281E080938B0280938C0210929302E1
:1016A0001092940210928D02089580918F02909171
:1016B0009002A0919102B09192020196A11DB11DDC
:1016C00080938F0290939002A0939102B093920224
:1016D00080918F0290919002A0919102B09192021C
:1016E00083709070A070B0700097A105B10509F0EB
:1016F00067C080918D028F5F80938D0280918D02F3
:101700008C3309F05DC010928D02809194028F5F3E
:1017100080939402809194028C3309F051C010920E
:101720009402809193028F5F809393028091930241
:10173000883109F045C01092930280918C028F5F2E
:1017400080938C0280918E02837011F48DE101C030
:101750008CE190918B02923041F420918C0230E028
:1017600090E0019628173907C1F080918B028430F0
:1017700061F080918B02863041F080918B0289303C
:1017800021F080918B028B3021F480918C028F317B
:1017900021F080918C02803299F491E090938C0238
:1017A00080918B028F5F80938B0280918B028D30B2
:1017B00039F490938B0280918E028F5F80938E021A
:1017C0000895A7E1B0E0E7EEFBE00C943136E0913C
:1017D0005D02F0E0EE0FFF1FE451FE4F808091802C
:1017E00020E001C02F5F622E7724F301EE0FFF1F70
:1017F000E80DF91D859194910097A1F700E010E0A4
:101800006E010894C11CD11CD5C080916302F801FF
:10181000E80FF11DEE0FFF1FE80DF91D8591949162
:10182000E82EF92E80915D028130A1F4809163024F
:101830009801280F311D2230310561F48091AA02F0
:101840009091AB023FE78F3F930721F042E0E42EF7
:1018500045E0F42E80915D028A30D1F580919902A5
:10186000823029F0E1E0843019F4E0E001C0E2E0E8
:10187000809163029801280F311D2330310589F4CE
:10188000AE2FB0E0AA0FBB1FA052B94F8D919C9113
:1018900011973FE78F3F930721F02FEBE22E26E0D1
:1018A000F22E809163029801280F311D24303105FA
:1018B00079F4F0E0EE0FFF1FEB52F94F8081918138
:1018C0003FE78F3F930721F08FECE82E86E0F82E5C
:1018D000A02EB02EB39480E06B2D0E94CA2C40E065
:1018E00090916302809160029801290F311D90E070
:1018F0002817390711F46FE701C060E081E04F8BD2
:101900000E94BE2B4F894F5F403851F784E06B2D0A
:101910000E94CA2CC601B70145E150E00E949D36E5
:1019200090916302809160029801290F311D90E02F
:1019300061E02817390709F060E0C6010E94B32C66
:10194000AA2091F480916302882379F18AE76B2DB4
:101950000E94CA2C909163028091600261E098130A
:1019600060E080E091E01FC08A2D8630F1F4809124
:10197000630290E00196800F911F86159705A9F0EC
:101980008AE76B2D0E94CA2C9091630280916002BD
:101990009801290F311D90E061E02817390709F0FF
:1019A00060E082E091E00E94B32C0F5F1F4F073090
:1019B000110549F0809163029801280F311D261509
:1019C00037050CF422CF6796EEE00C944D3681E09B
:1019D0000E94892B809160028F5F809360028091CA
:1019E0006002873019F58FB7F89490919F02909319
:1019F0008D029091A502909394029091AF029093E2
:101A000093029091AE0290938C0290919D029093DC
:101A10008B0290919C0290938E028FBF88E08093FE
:101A20005D0210925F0281E08093590208959091C7
:101A30009C02937011F49DE101C09CE120919D02F4
:101A4000223099F090919D02943061F090919D0226
:101A5000963041F090919D02993021F090919D0235
:101A60009B3011F49EE101C09FE13091AF022091C3
:101A70006002233009F450C0243030F4213051F199
:101A8000223008F043C00AC0253009F484C0253054
:101A900008F467C0263009F0B7C097C090919D0246
:101AA000980F90939D0280919D028150813F20F07C
:101AB00080919D02845F0BC080919D0281508C308B
:101AC00020F080919D028C5002C080919D028093F5
:101AD0009D0208952091AE02280F2093AE028091BE
:101AE000AE028150813F20F08091AE02890F0BC081
:101AF0008091AE028150891720F08091AE02891B3F
:101B000002C08091AE028093AE02089590919C0233
:101B1000980F90939C0208959091AF02980F909324
:101B2000AF023C3048F08091AF028C50813F40F4CE
:101B30008091AF028C500AC08091AF02813F20F0AB
:101B40008091AF02845F0AC08091AF028C3020F098
:101B50008091AF028C5002C08091AF028093AF029F
:101B600008959091A502980F9093A5028091A502E7
:101B7000813F20F08091A502845C0AC08091A5027B
:101B80008C3320F08091A5028C5302C08091A50275
:101B90008093A502089590919F02980F90939F02C1
:101BA00080919F02813F20F080919F02845C0AC057
:101BB00080919F028C3320F080919F028C5302C051
:101BC00080919F0280939F020895813021F480913B
:101BD000AF02845F03C08091AF028C508093AF024C
:101BE0008091AF02813F20F08091AF02885E0AC0F1
:101BF0008091AF02883120F08091AF02885102C0FD
:101C00008091AF028093AF020895E0915D02E0936E
:101C100099027093A2026093A1029093A402809310
:101C2000A3025093A9024093A8023093AD022093DF
:101C3000AC0210929B0210929A028CE080935D029B
:101C40000895EF92FF920F931F9381E00E94892BDA
:101C500080919902883051F480916002833009F0BC
:101C600042C18091A80280939E023DC1813009F05B
:101C70007CC080911F028823E1F46091A8027091DA
:101C8000A902882777FD8095982F0E944A3320E08B
:101C900030E040E05FE30E944B3225E83BEE41E557
:101CA00050E40E94D6330E9417337093A9026093C8
:101CB000A80280916002813021F0823009F013C1C6
:101CC0004BC06091B8027091B9028091BA029091B4
:101CD000BB020E944A337B018C016091A802709183
:101CE000A902882777FD8095982F0E944A332FEB11
:101CF0003EE04CE95EE30E94D6339B01AC01C80193
:101D0000B70187DA60938502709386028093870219
:101D1000909388026091B8027091B9028091BA02E2
:101D20009091BB020E944A334EDA25E83BEE41E532
:101D300050E40E94D6336093BE027093BF0280933A
:101D4000C0029093C1028091A8029091A902909341
:101D5000C3028093C202C7C08091A8029091A902D9
:101D60009093AB028093AA02BEC08091A002823001
:101D7000D1F580911F028823E1F46091A80270914F
:101D8000A902882777FD8095982F0E944A3320E08A
:101D900030E040E05FE30E944B3225E83BEE41E556
:101DA00050E40E94D6330E9417337093A9026093C7
:101DB000A80280916002833019F0843091F409C048
:101DC0008091A8029091A9029093E5068093E40681
:101DD00008C08091A8029091A9029093DA0680939E
:101DE000D90682E07EC0843009F043C080911F0292
:101DF000882359F08091A8029091A902880F991F19
:101E00009093A9028093A8021AC08091A802909191
:101E1000A9029C01220F331FC901F3E0880F991F0B
:101E2000FA95E1F7820F931F029665E070E00E9439
:101E3000DD35605C7F4F7093A9026093A8028091AA
:101E40006002833019F0843091F409C08091A802B7
:101E50009091A9029093E1068093E00608C08091DA
:101E6000A8029091A9029093D6068093D50684E0AB
:101E700038C08630C1F580911F026091A802709130
:101E8000A902882379F0882777FD8095982F0E94F2
:101E90004A3320EA34E747E852E40E94D6330E94EE
:101EA000173302C0660F771F7093A9026093A802D0
:101EB00080916002833019F0843091F409C08091E0
:101EC000A8029091A9029093E3068093E20608C0CD
:101ED0008091A8029091A9029093D8068093D7068A
:101EE00086E0809399028091990280935D0210921E
:101EF0005F0281E0809359021F910F91FF90EF9054
:101F00000895282F30E04091A8025091A90287FD42
:101F100007C0240F351F3093A9022093A80209C0DF
:101F2000CA0180509140820F931F9093A902809321
:101F3000A8028091A3029091A4022091A80230915E
:101F4000A9022817390724F49093A9028093A802C4
:101F50008091A1029091A2022091A8023091A90241
:101F60008217930724F49093A9028093A80280918A
:101F70009902883089F480916002853069F48091FB
:101F8000A8028093DF0680E061E80E94BE2B60918A
:101F9000DF0680E00C94BE2B089520915D02209313
:101FA000990290939802809397027093960260939F
:101FB00095025093A7024093A602109262028DE010
:101FC00080935D0208959091620281E0891B809365
:101FD00062020895CF93DF9380915D02883009F00B
:101FE00072C080916002843009F45FC0853040F493
:101FF000823089F18330E8F5813009F0C4C20AC02B
:10200000863009F44AC0863008F43DC0873009F0B4
:10201000BAC243C08BE080935D02109260028FB71A
:10202000F89490918D0290939F02909194029093D6
:10203000A502909193029093AF0290918C0290939D
:10204000AE0290918B0290939D0290918E0290939C
:102050009C028FBF98C284E091E065E071E04EE0A1
:1020600051E09BDF90911F0281E0992349F180E0CC
:1020700027C040919E0280E090E068E770E050E069
:1020800025E131E07FC24091DF0680E090E06FEF14
:1020900070E050E020E030E075C287E191E065E259
:1020A00071E048E251E079DF6EC284E091E06CE2D9
:1020B00071E04FE251E071DF90914D0281E0891BA8
:1020C0008093620260C220915D02213009F097C0C6
:1020D00080916002813021F0823009F054C250C0FA
:1020E0006091BE027091BF028091C0029091C102C6
:1020F00020E030E040E05FE30E944B320E94173363
:10210000AB01BC0180911F028823A1F4BA0188278A
:1021100077FD8095982F24E630E040E050E00E9463
:102120009E3528E431E040E050E00E941236832FD3
:10213000422F582FE0911F0280911F02A0911F0291
:10214000F0E0EE0FFF1FEA5CFD4FC82FD0E0CC0F90
:10215000DD1FCE5BDD4F68817981B0E0AA0FBB1F28
:10216000A65DBD4F2D913C912F5F3F4F80819181A6
:102170004CDD83E391E090939B0280939A0203C22B
:102180008091AA029091AB023FE78F3F930759F0ED
:102190008FEF9FE79093AB028093AA0210925F02A9
:1021A00020935902F0C16091BE027091BF028091EC
:1021B000C0029091C10220E030E040E05FE30E9465
:1021C0004B320E941733AB01BC0180911F02882360
:1021D00009F06FC1BA01882777FD8095982F24E612
:1021E00030E040E050E00E949E3528E431E040E0DD
:1021F00050E00E941236832F422F582F5AC18091EF
:102200005D02882349F5809160028150863008F094
:10221000BAC181E00E94892B80915D02809399026E
:10222000809160028093610289E080935D02E09179
:102230006002F0E0E155FD4F808180936002809163
:102240006002853030F08091600284508093630298
:102250005EC1109263025BC180915D02893001F51D
:10226000E0916102F0E080916002E155FD4F8083D2
:102270008091990280935D02809161028093600257
:1022800080916002853030F08091600284508093AC
:10229000630202C01092630281E080935F0238C142
:1022A00080915D028730A9F480916002813039F01D
:1022B000823009F068C181E080935B0227C0809181
:1022C0005F028F5F80935F02109263021092600240
:1022D0005AC180915D028A3009F055C1209199025E
:1022E0002093A00280916002823099F0833020F424
:1022F000813009F048C106C0833021F1843009F0F3
:1023000042C168C08093640220935D0210925F0214
:10231000FFC084E091E069E471E04FE451E03DDE0C
:102320008091A002843019F48091E606C9CE8230F3
:1023300019F48091E806C4CE863009F024C180915A
:10234000E706BECE2430C9F48091E0069091E10604
:102350002FE78F3F920761F08FEF9FE79093E106A1
:102360008093E00610925F0284E080935D02CFC00C
:102370004091DB065091DC0643C02230A1F48091ED
:10238000E4069091E5063FE78F3F930739F08FEF22
:102390009FE79093E5068093E406B5C04091DB0685
:1023A0005091DC0671C0263009F0EDC08091E20644
:1023B0009091E3063FE78F3F930739F08FEF9FE758
:1023C0009093E3068093E2069EC04091DB06509115
:1023D000DC06A5C0243009F041C08091D50690915B
:1023E000D6063FE78F3F930739F08FEF9FE7909333
:1023F000D6068093D50687C04091DD065091DE0653
:1024000080911F02882371F4CA01880F991F880FD9
:10241000991F840F951F805A904069E070E00E94D8
:10242000DD35AB01E0911F0280911F02A0911F02D8
:10243000F0E0EE0FFF1FEE5CFD4FC82FD0E0CC0F99
:10244000DD1FC25CDD4F68817981B0E0AA0FBB1F40
:10245000AA5DBD4F2D913C91119792C0223009F099
:1024600041C08091D9069091DA063FE78F3F9307EC
:1024700039F08FEF9FE79093DA068093D90643C037
:102480004091DD065091DE0680911F02882389F479
:10249000BA01882777FD8095982F0E944A332FEB49
:1024A0003EE04CE95EE30E94D6330E941733AB0155
:1024B000BC01E0911F0280911F02A0911F02F0E079
:1024C000EE0FFF1FEA5CFD4FC82FD0E0CC0FDD1FE1
:1024D000CE5BDD4F68817981B0E0AA0FBB1FA65D9E
:1024E000BD4F4AC0263009F04EC08091D70690916A
:1024F000D8063FE78F3F930771F08FEF9FE79093E8
:10250000D8068093D70610925F0220935D0281E087
:102510008093590238C04091DD065091DE068091CB
:102520001F02882389F4BA01882777FD8095982FA8
:102530000E944A3320EA34E747E052E40E94D6334F
:102540000E941733AB01BC01E0911F0280911F0272
:10255000A0911F02F0E0EE0FFF1FEC5CFD4FC82FB3
:10256000D0E0CC0FDD1FC05CDD4F68817981B0E029
:10257000AA0FBB1FA85DBD4F2D913C912F5F3F4F10
:102580008081918142DBDF91CF910895E0915D02DE
:10259000F0E0EE0FFF1FE451FE4F2081318190E00B
:1025A00001C09F5FE92FF0E0EE0FFF1FE20FF31F66
:1025B0004591549141155105A1F720916002280FD2
:1025C0002093600280916002891719F410926002D2
:1025D00007C0809160028F3F19F491509093600280
:1025E0009091600280916302981728F480916002B4
:1025F000809363020895209160028091630230E02D
:1026000090E00696821793072CF480916002865022
:1026100080936302089584E180939E028FEF9FE789
:102620009093AB028093AA0282E08093B00281E093
:102630008093B1028CE08093B20293E09093B30256
:102640008093B40288E08093B50208951F9381E0DF
:102650000E94892B809199028830D9F5809160027F
:10266000843031F1853020F4823009F04AC027C02F
:10267000863059F0873009F044C080916202813081
:1026800009F03FC080935A023CC0109162021130A1
:10269000C1F50E94022DBFDF10934D0283E08093AD
:1026A0001F020E9478061092C3021092C20229C033
:1026B0009091620281E0891B80934D0222C090912B
:1026C0006202892F880F890F81958D5F80931F0289
:1026D00018C08091A002823029F4909162029093F8
:1026E000E8060DC0843029F4909162029093E606CA
:1026F00006C0863031F4909162029093E706809391
:1027000099028091990280935D0210925F0281E0AC
:10271000809359021F910895EF92FF920F931F9398
:10272000CF93DF9380E00E941B26682F6B506138A7
:1027300008F0605880E00E942C26FC01828186957A
:10274000869586959381292F2295220F207EE22E51
:10275000E82AE7017E01969596959695F92EE70170
:102760002097E1F16091BE027091BF028091C0029A
:102770009091C10220E030E048EC52E40E94D63350
:102780000E9417337B018C0180EA9CE1A2E0B0E05B
:10279000E80EF91E0A1F1B1FBE0180E090E028EC26
:1027A00030E040E050E00E949E35E61AF70A080B40
:1027B000190BC801B7012AE030E040E050E00E9468
:1027C00012362E5C3F4F4F4F5F4FCA01B90124E6CE
:1027D00030E040E050E00E94123604C02FEF3FEF9F
:1027E0004FEF5FE7B901CA01CDB7DEB7E6E00C9461
:1027F000553680E00E941B26682F6D53613808F023
:10280000605880E00E942C26FC018081882389F09A
:102810002091BC023091BD02442737FD4095542FD2
:102820002C5E3F4F4F4F5F4F281B31094109510923
:1028300004C02FEF3FEF4FEF5FE7B901CA010895E2
:10284000EF92FF920F931F9380E00E941B26682F48
:102850006D53613808F0605880E00E942C26FC011E
:1028600061818281782F777061157105E9F0E090C0
:10287000B802F090B9020091BA021091BB0280EE4A
:1028800091EBAFEFBFEFE80EF91E0A1F1B1F80E0B0
:1028900090E022E330E040E050E00E949E35E61AEE
:1028A000F70A080B190B08C06FEFE62E6FEFF62E34
:1028B0006FEF062F6FE7162FB701C8011F910F9119
:1028C000FF90EF900895EF92FF920F931F9381E096
:1028D0000E941B26682F6C54613808F0605881E014
:1028E0000E942C26FC0161818281782F777061150E
:1028F000710529F1E090B802F090B9020091BA0296
:102900001091BB0280EE91EBAFEFBFEFE80EF91E26
:102910000A1F1B1F80E090E022E330E040E050E01F
:102920000E949E35E61AF70A080B190BC801B70179
:1029300025E030E040E050E00E94123604C02FEF66
:102940003FEF4FEF5FE7B901CA011F910F91FF9071
:10295000EF9008956F3F2FEF72072FEF82072FE759
:102960009207D9F1693C71058105910574F56937C4
:102970007105810591055CF5663371058105910549
:1029800044F516161706180619062CF1611571057F
:102990008105910511F16B3C2FEF72072FEF820734
:1029A0002FEF9207E4F468382FEF72072FEF8207BA
:1029B0002FEF9207B4F468332FEF72072FEF8207DF
:1029C0002FEF920784F087E0089580E0089581E07A
:1029D000089582E0089583E0089584E0089585E0F5
:1029E000089586E0089588E00895AAE0B0E0EBEF4E
:1029F000F4E10C9433368C0170E0615070406C301F
:102A0000710508F09AC26C5C7F4FFB010C94643630
:102A1000DC011C92A5C24091BC025091BD0260E055
:102A200015C06091BE027091BF028091C00290916A
:102A3000C10220E030E040E05FE30E944B320E94A0
:102A400017339B01AC01C80162E0A9010E94BB29B8
:102A500087C26DE179E00E949636D8010D90002082
:102A6000E9F77D010894E108F108E01AF10A6091A4
:102A7000B8027091B9028091BA029091BB02675E70
:102A80007F4F8F4F9F4F22E330E040E050E00E94A5
:102A90001236C8018E0D9F1D44C060E179E00E948E
:102AA0009636E090C202F090C3026091B802709135
:102AB000B9028091BA029091BB020E944A335B0135
:102AC0006C01B701882777FD8095982F0E944A33C3
:102AD0002FEB3EE04CE95EE30E94D6339B01AC0154
:102AE000C601B5010E940909D8010D900020E9F73F
:102AF0007D010894E108F108E01AF10AE00EF11EE8
:102B000020E030E048EC51E40E944B3220E030E01D
:102B100048E452E40E94AF320E9417339B01AC019B
:102B2000C70161E092CFF8DD6B017C0197FD0FC01A
:102B3000C80165E079E00E949636BFEFCB16BFEF83
:102B4000DB06BFEFEB06BFE7FB0639F009C0C801A3
:102B500069EF78E00E94963603C0CC24DD2476012C
:102B6000D8010D900020E9F7CD010197801B910B52
:102B7000800F911F62E0A6010E94BB29C80164EF8B
:102B800078E086C1C9DD4B015C01C80166EE78E0E2
:102B90000E949636C090AA02D090AB026091BE020D
:102BA0007091BF028091C0029091C102BFEF8B165D
:102BB000BFEF9B06BFEFAB06BFE7BB0681F12091DD
:102BC000AA023091AB02EFE72F3F3E0741F1EE241E
:102BD000D7FCE094FE2C0E941733C61AD70AE80AE5
:102BE000F90AC501B40122E030E040E050E00E9463
:102BF0001236C20ED31EE41EF51EC701B601A50192
:102C000094010E94123659016A0157FD08C0243808
:102C1000F9E03F07F0E04F07F0E05F0724F0C8015C
:102C200060EE78E035C128E5A21622E0B20620E089
:102C3000C20620E0D2062CF4C8016EED78E00E94B6
:102C40008B36D8010D900020E9F77D010894E1084A
:102C5000F108E01AF10AC601B5012CE330E040E0CA
:102C600050E00E9412365B016C01E00EF11ECA01B9
:102C7000B901A7012AE030E00E94DD36C8016CED01
:102C800078E00E948B36BAE0AB16B104C104D104DF
:102C90002CF4C8016AED78E00E948B36D8010D90C3
:102CA0000020E9F7AD0141505040401B510B400F4F
:102CB000511FC601B5012AE030E00E94DD3650C147
:102CC00064ED78E00E94963694DD6F3071058105E1
:102CD0009105ACF569307105810591050CF032C1A3
:102CE00063307105810591050CF02EC1161617068B
:102CF000180619060CF42AC16115710581059105A4
:102D000009F426C16E3FBFEF7B07BFEF8B07BFEF14
:102D10009B070CF01FC1683FEFEF7E07EFEF8E07B8
:102D2000EFEF9E070CF018C1623FFFEF7F07FFEF48
:102D30008F07FFEF9F070CF011C1E8E009C06F3F5C
:102D40002FEF72072FEF82072FE7920749F0E0E09D
:102D5000F0E0EE0FFF1FEA5BF84F2591349113C0AE
:102D6000EEE4F7E0259134910EC06AEC78E00E9421
:102D7000963666DDEFDD90E0880F991F8A5B984FED
:102D8000FC0125913491C801B90182C060EC78E062
:102D90000E94963655DD6B017C01DCDD898793DD71
:102DA0004B015C01D7DD282F39854FEFC4164FEF5B
:102DB000D4064FEFE4064FE7F40649F08FEF88168C
:102DC0008FEF98068FEFA8068FE7B80621F4C801A9
:102DD00064EB78E05DC0832F8750823030F426307A
:102DE00060F4C80167EA78E053C0353031F425302B
:102DF00021F4C8016DE978E04BC0932F95509230D3
:102E000040F4822F8550823060F4C80160E978E098
:102E10003FC0373030F0263020F0C80164E878E059
:102E200037C0832F8250823040F4422F42504230CC
:102E300090F4C80167E778E02BC0323030F42230DC
:102E400050F0C8016EE678E023C0383021F4C801A4
:102E500062E678E01DC0373021F4C8016BE578E008
:102E600017C0923020F4C80166E578E011C0343014
:102E700021F4C8016CE478E00BC0823020F4C80172
:102E800067E478E005C0323030F4C8016CE378E0E4
:102E90000E948B3665C0C80167E378E02A873987CE
:102EA0000E948B36D8010D900020E9F7BD016150DA
:102EB0007040601B710B600F711F3985832F90E08C
:102EC0004AE050E00E94BE36C80165E378E00E9407
:102ED0008B36D8010D900020E9F7BD01615070409C
:102EE000601B710B600F711F2A85822F90E04AE0F2
:102EF00050E00E94BE3634C060919302409194022B
:102F000020918D020E94CA092BC060918C024091D1
:102F10008B020E943809C80163E378E00E948B3677
:102F20006091930240919402CE0101960E94700933
:102F3000BC01C8010E94AC3613C065E278E00E9473
:102F400096360EC0E1E004CFE2E002CFE3E000CF2E
:102F5000E4E0FECEE5E0FCCEE6E0FACEE7E0F8CE37
:102F60002A96ECE00C944F36AF92BF92CF92DF924C
:102F7000FF920F931F93DF93CF930F92CDB7DEB7DE
:102F80005C01CB01BA012CE330E040E050E00E944C
:102F9000F035F62ECA01B90128E130E040E050E0FA
:102FA0000E94F035162FCA01B901B5E096958795B4
:102FB00077956795BA95D1F7022F0F712DE030E024
:102FC00040E050E00E94F035462FC501602F298374
:102FD0000E943809C50163E278E00E948B36D50172
:102FE0000D900020E9F7BD01615070406A197B091E
:102FF0002981822F90E06A0D7B1D8053984F4AE013
:1030000050E00E94BE36C50161E278E00E948B3636
:10301000D5010D900020E9F7CD0101978A199B0990
:103020008A0D9B1D612F4F2D0E9470090F90CF912B
:10303000DF911F910F91FF90DF90CF90BF90AF90E5
:103040000895EF92FF920F931F93CF93DF93EC01BC
:103050008B01DB0112968C91129786958695869549
:1030600013969C91292F2295220F207E422F482BC8
:10307000592F569556955695445B5240CE0162E0C5
:103080000E94D429CE016FE178E00E948B367E0148
:10309000EC2FFF2DDF010D900020E9F7CD01019706
:1030A0008E1B9F0BF801408150E0445150408C0F23
:1030B0009D1F60E00E94D429CE016DE178E00E945E
:1030C0008B36EC2FFF2DDF010D900020E9F7CD01AD
:1030D00001978E1B9F0BF80141812281522F57705F
:1030E00040575E4F8C0F9D1F61E00E948F29CDB726
:1030F000DEB7E6E00C945536A6E1B0E0E2E8F8E190
:103100000C942D360E940328482E55240E943828FE
:10311000FC0180819181A281B3810097A105B10555
:1031200051F480E062E00E94CA2C86E591E060E004
:103130000E94B32C39C10E94662800E010E06E01A5
:103140000894C11CD11C282E3324A02EB02EB39479
:1031500080E06B2D0E94CA2C809163027201E81AF4
:10316000F108E01AF10AF7FE04C00E946428E80E94
:10317000F11C8E2D0E943828FC01608071808280B5
:103180009380611471048104910409F4D9C0909171
:103190006302809160029801290F311D90E0281789
:1031A000390711F46FE701C060E081E00E94BE2B97
:1031B000C7010196B6014AE050E00E94BE369091E8
:1031C0006302809160029801290F311D90E061E057
:1031D0002817390709F060E0C6010E94B32CF601F8
:1031E00001900020E9F73197EE2EEC1890916302E0
:1031F000809160029801290F311D90E0281739074E
:1032000011F46FE501C060E281E00E94BE2B909155
:103210006302809160029801290F311D90E0281708
:10322000390711F46FE701C060E081E00E94BE2B16
:1032300090916302809160029801290F311D90E006
:103240002817390711F46FE701C060E081E00E94A0
:10325000BE2BC601B401A30187DE90916302809169
:1032600060029801290F311D90E061E028173907AD
:1032700009F060E0C6010E94B32CF6010190002025
:10328000E9F73197EC19FD09FF240894E11CF11CC2
:10329000EE0EFF1EEE0CEE0C12C0909163028091B8
:1032A00060029801290F311D90E02817390711F4A9
:1032B0006FE701C060E081E00E94BE2BE394E7FE6F
:1032C000ECCFAA2091F480916302882399F180E5E4
:1032D0006B2D0E94CA2C909163028091600261E084
:1032E000981360E080E091E023C0FA2DF33011F5EF
:1032F0008091630290E00196800F911F82159305E3
:10330000C9F0809160028F3FA9F080E56B2D0E948B
:10331000CA2C90916302809160029801290F311D9F
:1033200090E061E02817390709F060E082E091E061
:103330000E94B32C0F5F1F4F0430110509F005CF19
:1033400080916002481A510857FE04C00E94642808
:10335000480E511C842D0E9438288C0180E065E0C5
:103360000E94CA2C81E061E00E94BE2BB8016C5F14
:103370007F4F8E010F5F1F4FC80163DEC80160E001
:103380000E94B32CF80101900020E9F73197E01B6F
:10339000F10B0E2F000F000F04C081E061E00E94CE
:1033A000BE2B0F5F07FFF9CF6696E2E10C9449361A
:1033B0001F93182F0E94662890916002910F90939E
:1033C000600290916002981719F41092600207C091
:1033D000909160029F3F19F4815080936002909118
:1033E000600280916302981718F4809160020DC00A
:1033F000209160028091630230E090E00396821792
:1034000093072CF4809160028350809363021F9194
:10341000089581E00E94892B10925F0281E08093E1
:1034200059020895AEE1B0E0E8E1FAE10C943536D6
:1034300080916702882369F180E060E00E94CA2CD5
:1034400000E010E0F801E058FE4F649181E00E9436
:10345000BE2B0F5F1F4F23E00030120799F780E06B
:1034600066E00E94CA2C8E01085F1F4FC80169E008
:1034700078E00E949636C80160E00E94B32C80E09C
:1034800067E00E94CA2CC80169EF77E00E94963677
:103490009DC180915D02882309F073C080915F0215
:1034A000882309F06BC000E010E068E0E62EF12C04
:1034B000EC0EFD1EC02EF801E055FD4F6081C701E6
:1034C00094DA1D8E80E0602F0E94CA2C90E081E08B
:1034D00060E09E8F0E94BE2B9E8D9F5F9038B9F753
:1034E000F70101900020E9F73197EE198E2F880F30
:1034F0008E0F8195815C6C2D0E94CA2CC70160E003
:103500000E94B32C0F5F1F4F0230110599F600E0A7
:1035100010E058E0E52EF12CEC0EFD1E42E0C42E2A
:10352000C00EF801EE54FD4F6081C7015EDA1D8EBA
:1035300080E06C2D0E94CA2C90E081E060E09E8FBC
:103540000E94BE2B9E8D9F5F9038B9F7F7010190C6
:103550000020E9F73197EE198E2F880F8E0F819595
:10356000815C6C2D0E94CA2CC70160E00E94B32CC4
:103570000F5F1F4F0430110589F61EC684E691E0E7
:1035800016C680915D028A3009F040C020919902F0
:10359000243029F4CE01089664EF77E009C0CE010B
:1035A0000896263019F46BEE77E002C062EE77E001
:1035B0000E9496368E01085F1F4FC8016BED77E0C1
:1035C0000E948B36D8010D900020E9F7CD01E091E3
:1035D0005E02F0E0EE0FFF1FE05EFD4F6081718143
:1035E0007695762F66277795679501970E94440A0E
:1035F00080915F0261E0811160E0C8010E94302D7E
:1036000080915F02813009F0D7C5D4C580915D02F9
:10361000883009F0E0C080915F0261E0811160E0D4
:1036200086E791E00E94302D80915F02882309F0A7
:10363000C1C561E00E94CA2C8DE791E060E00E9464
:10364000B32C98E0E92EF12CEC0EFD1EC70160E8CA
:1036500074E00E949636C70160E00E94B32C0E947D
:103660002E065B016C0185E090E0A0E0B0E0A80EC2
:10367000B91ECA1EDB1EC70162ED77E00E949636B6
:10368000D7010D900020E9F78D01015010400E196F
:103690001F09C601B5012AE030E040E050E00E9479
:1036A0001236CA01B9010E944A3320E030E048ECEA
:1036B00052E40E94AF320E0D1F1D41E022E00E9435
:1036C0006A36C70160ED77E00E948B3680E062E0E9
:1036D0000E94CA2CC70160E00E94B32C80E063E026
:1036E0000E94CA2CC70166EC77E00E949636809152
:1036F000DF06F70101900020E9F7BF01615070403B
:1037000090E04AE050E00E94BE36C70160E00E94AF
:10371000B32C80E064E00E94CA2CC7016FEB77E015
:103720000E94963680914D02882321F0C7016CEBF0
:1037300077E003C0C70168EB77E00E948B368E010B
:10374000085F1F4FC80160E00E94B32C60918C029B
:1037500040918B02C8010E94380980E065E00E9418
:10376000CA2CC80160E00E94B32CC80166EB77E068
:103770000E94963680918E02D8010D900020E9F7C4
:10378000BD0190E0615070408053984F4AE050E096
:103790000E94BE36C80160E00E94B32C6091930283
:1037A0004091940220918D02C8010E94CA09F8013B
:1037B00001900020E9F73197E01BF10B8AEFE89FB9
:1037C000802D1124805865E00E94CA2CC80160E059
:1037D0000E94B32CF1C480915D02873009F065C06E
:1037E00080915F0261E0811160E086E891E00E94D3
:1037F000302D80915F02882309F04BC00E9403287E
:10380000C82E0E9438287C01FC0120813181428130
:103810005381211531054105510539F480E062E0FD
:103820000E94CA2C80E991E0D2CF8E01085F1F4F21
:10383000C8016CEA77E00E949636D8010D9000200E
:10384000E9F7BD018C2D90E06150704001964AE08F
:1038500050E00E94BE3680E062E00E94CA2CC8019F
:1038600060E00E94B32CF7014191519161917191F7
:103870007F01C80179DB80E063E00E94CA2CC801A7
:1038800060E00E94B32CC801B701DBDB80E064E09C
:103890009BCF80915F02813009F48CC480915F02DC
:1038A000823009F089C428DC87C480915D028430AD
:1038B00041F480915E02409165022091640260E0D3
:1038C00017C080915D02863041F480915E02409184
:1038D00065022091640261E00BC080915D0282303C
:1038E00051F480915E02409165022091640262E091
:1038F0000E947E2E61C480915D028B3009F055C11B
:1039000080EA91E060E00E94302D80E162E00E9458
:10391000CA2C88E0E82EF12CEC0EFD1EC7016AEAE5
:1039200077E00E94963640919D028E010F5F1F4FF7
:10393000C80161E00E9438091C82C701B8010E94D9
:10394000AC36C70168EA77E00E948B36809160024E
:1039500061E0811160E0C7010E94B32C8E01085F15
:103960001F4FC80166EA77E00E9496368091AE024A
:103970008A3028F4C80164EA77E00E948B3680918F
:10398000AE028E01085F1F4FD8010D900020E9F7AD
:10399000BD016150704090E04AE050E00E94BE36A8
:1039A000C80162EA77E00E948B368091600261E094
:1039B000813009F060E0C8010E94B32C8E01085FDD
:1039C0001F4FC80160EA77E00E94963680919C0202
:1039D000F80101900020E9F7BF0190E061507040CC
:1039E0008053984F4AE050E00E94BE36C8016EE90D
:1039F00077E00E948B368091600261E0823009F0AE
:103A000060E0C8010E94B32C88E064E00E94CA2CE8
:103A10008091AF02882359F08091AF028C3039F049
:103A20008091AF026CE00E94BD35E92E02C00CE02F
:103A3000E02E8E01085F1F4FC8016CE977E00E94FD
:103A40009636FE2DFA3028F4C8016AE977E00E9424
:103A50008B368E01085F1F4FD8010D900020E9F7CB
:103A6000BD01615070408E2D90E04AE050E00E9410
:103A7000BE36C80168E977E00E948B36809160020B
:103A800061E0833009F060E0C8010E94B32C8EEA47
:103A900091E060E00E94B32C8E01085F1F4FC801C7
:103AA00066E977E00E9496368091A5028A3028F474
:103AB000C80164E977E00E948B368091A5028E01EF
:103AC000085F1F4FF80101900020E9F7BF01615026
:103AD000704090E04AE050E00E94BE36C80162E9C2
:103AE00077E00E948B368091600261E0843009F0BB
:103AF00060E0C8010E94B32C8EEA91E060E00E9471
:103B0000B32C8E01085F1F4FC80160E977E00E9467
:103B1000963680919F028A3028F4C8016EE877E0DB
:103B20000E948B3680919F028E01085F1F4FD80143
:103B30000D900020E9F7BD016150704090E04AE02F
:103B400050E00E94BE36C8016CE877E00E948B36D8
:103B50008091600261E0853009F060E0C8010E9458
:103B6000B32C8E01085F1F4FC8016AE877E00E94FE
:103B700096368091AF028C3020F4C80167E877E078
:103B800003C0C80164E877E00E948B368E01085FAD
:103B90001F4FC80162E877E00E948B368091600277
:103BA00061E0863009F06EC16EC180915D028C309B
:103BB00009F0C9C080916002E0919902F0E0EE0F37
:103BC000FF1FE451FE4F90E0880F991F0190F08194
:103BD000E02DE80FF91F259134918E01085F1F4FEA
:103BE000C801B9010E949636C80160E00E94302DDC
:103BF00020919A0230919B0221153105D1F0C90123
:103C0000F90101900020E9F731978E1B9F0B880F77
:103C1000991F880F991F8C5A9F4F9695879562E040
:103C20000E94CA2C80919A0290919B0260E00E94AF
:103C3000B32C6091A1027091A202AA24A3942AE05D
:103C400030E005C0A394CB01B9010E94DD356A3094
:103C50007105C4F782E190E08A19910962E070E091
:103C60000E94DD35862F880F880F20919A023091AF
:103C70009B022115310511F064E001C063E00E9450
:103C8000CA2C2091A8023091A902CE01089637FFD4
:103C900003C060E877E002C06EE777E00E949636E6
:103CA000E090A802F090A902F7FE04C0F094E1941D
:103CB000F108F3940AE010E0E8E0CE2ED12CCC0E0F
:103CC000DD1E13C0E016F1062CF4C6016CE777E0A8
:103CD0000E948B36C801880F991F63E0000F111FE7
:103CE0006A95E1F7080F191FAA94BA2DB23050F760
:103CF0008E01085F1F4FF80101900020E9F7BF0116
:103D000061507040C7014AE050E00E94BE36C801D1
:103D10006AE777E00E948B36C80161E00E94B32C0D
:103D20006091AC027091AD026115710509F444C255
:103D3000C8010E949636C80161E00E94B32C80EB56
:103D400091E061E045CD80915D028D3009F09DC02C
:103D500080916002E0919902F0E0EE0FFF1FE451C4
:103D6000FE4F90E0880F991F0190F081E02DE80F41
:103D7000F91F259134918E01085F1F4FC801B901C9
:103D80000E949636C80160E00E94302DE0919702B3
:103D9000F091980280818823C9F0CF010190002022
:103DA000E9F731978E1B9F0B880F991F880F991F7A
:103DB0008C5A9F4F9695879562E00E94CA2C8091FD
:103DC00097029091980260E00E94B32CE0919502D6
:103DD000F0919602DF010D900020E9F711978E2FE8
:103DE0008A1B880F880F805EA0919702B09198027D
:103DF0009C91992311F064E001C063E00E94CA2CF9
:103E00008E01085F1F4FC80168E777E00E94963671
:103E10006091950270919602C8010E94AC36C8016B
:103E200066E777E00E948B368091620261E0811143
:103E300060E0C8010E94B32CE0919702F0919802D3
:103E40008081882311F064E001C063E08CE20E946D
:103E5000CA2C8E01085F1F4FC80164E777E00E94FB
:103E600096366091A6027091A702C8010E94AC36F6
:103E7000C80162E777E00E948B368091620261E0C0
:103E8000813009F060E0C801A3CC80915D028130EF
:103E900009F05DC080915F0261E0811160E082EB1A
:103EA00091E00E94302D80915F02882309F082C149
:103EB0008E01085F1F4FC80162E00E94F51480E088
:103EC00061E00E94CA2CC80160E00E94B32CC801C6
:103ED00063E00E94F51480E062E00E94CA2CC801F1
:103EE00060E00E94B32C8091AA029091AB02FFE7A0
:103EF0008F3F9F07D1F080E064E00E94CA2CC80188
:103F000065E677E00E949636D8010D900020E9F72B
:103F1000CD014091AA025091AB02019762E00E944C
:103F2000BB29C80160E00E94B32C8091AA02909145
:103F3000AB02BFE78F3F9B0709F43EC18E01085FCC
:103F40001F4FC80164E00E94F51480E03CCC8091D2
:103F50005D02833009F06BC080915F0261E08111E6
:103F600060E08BEB91E00E94302D80915F0288230E
:103F700009F020C161E00E94CA2C8E01085F1F4F2A
:103F8000C80161E00E94F514C80160E00E94B32CF2
:103F900080E062E00E94CA2C87EC91E060E00E9421
:103FA000B32C0E94F9136B017C016F3FEFEF7E078A
:103FB000EFEF8E07EFE79E0731F4C80161E677E087
:103FC0000E94963614C097FD06C0C8016FE577E0E1
:103FD0000E94963601C01886CE010896DC010D902D
:103FE0000020E9F7CD010197B6010E941329CE0107
:103FF000089660E00E94B32C8EEC91E060E00E9495
:10400000B32C80E063E00E94CA2C00E081E060E015
:104010000E94BE2B0F5F0038C9F780E063E00E946A
:10402000CA2C8E01085F1F4FC80169E09EC08091B5
:104030005D02853009F09CC080915F0261E08111D2
:1040400060E085ED91E00E94302D80915F02882331
:1040500009F0B0C061E00E94CA2C8E01085F1F4FBA
:10406000C80165E00E94F514C80160E00E94B32C0D
:1040700080E062E00E94CA2C0E9420146B017C0147
:104080006F3FBFEF7B07BFEF8B07BFE79B0731F4A5
:10409000C8016AE577E00E94963621C097FD06C008
:1040A000C80168E577E00E94963601C01886FE01D7
:1040B0003896DF010D900020E9F78D01C701B601A8
:1040C000675E7F4F8F4F9F4F22E330E040E050E02C
:1040D0000E941236C8010197B9010E943929CE0108
:1040E000089660E00E94B32C8EED91E060E00E94A3
:1040F000B32C80E063E00E94CA2C00E081E060E025
:104100000E94BE2B0F5F0038C9F780E063E00E9479
:10411000CA2C8E01085F1F4FC8016AE00E94F51487
:10412000C80160E00E94B32C80E064E00E94CA2CC9
:10413000C80166E00E94F514C80160E00E94B32C3B
:1041400080E065E00E94CA2C00E081E060E00E940F
:10415000BE2B0F5F0038C9F780E065E00E94CA2CD3
:104160008E01085F1F4FC8016BE00E94F5142ECB33
:1041700080915D02893001F580916102E0919902A0
:10418000F0E0EE0FFF1FE451FE4F90E0880F991F03
:104190000190F081E02DE80FF91F259134918E01F7
:1041A000085F1F4FC801B9010E949636C80160E040
:1041B0000E94302D0E94E10B6E96EAE00C9451367D
:1041C000A0E0B0E0E6EEF0E20C94353685B1876011
:1041D00085B90E94022D0E94262D80E00E94282D84
:1041E0008FE39CE90197F1F700C000000E94470BA4
:1041F00080E083D70E944F2B0E94E8290E940B1376
:1042000078940E94A0068823E1F38091B600806232
:104210008093B6008091B6008F7B8093B600109299
:10422000B00083E08093B1008091B60090E08F7081
:1042300090700097C9F78FE19EE40197F1F700C0F5
:10424000000081E087BB8093700090916B009760C5
:1042500090936B0090916B00906190936B009091A4
:104260006800916090936800909164009F6A9093B9
:1042700064008093EA01AA24A39480915C028823BD
:1042800059F010925C020E94022D0E94262D80E0BF
:104290000E94282DA092EB0180915A02882351F0B0
:1042A00010925A0280E060E00E94CA2C0E94262DE3
:1042B00081E023D78091EA01882329F480915B0271
:1042C000882309F465C0809164008F77809364002F
:1042D0000E9405070E946507EC010E941D070E94CD
:1042E000C1076B017C018091640080688093640049
:1042F0008091EA01882321F0CE01B701A601B4D54F
:1043000080915B02882309F43FC0BFB6F8946091A6
:104310008E0270E080E090E02DE030E040E050E080
:104320000E949E3520918B02620F711D811D911D8F
:10433000E5E0660F771F881F991FEA95D1F7209156
:104340008C02620F711D811D911D28E130E040E05B
:1043500050E00E949E3520919302620F711D811DD5
:10436000911D2CE330E040E050E00E949E358B012F
:104370009C0180919402BFBE080F111D211D311DAB
:10438000CE01B701A601DFD51092EA0110925B02BF
:1043900080915902882321F0109259020E94262D03
:1043A0008091EB01882399F01092EB013BD80FC06C
:1043B00080916C02882359F483B7817F866083BF24
:1043C00083B7816083BF889583B78E7F83BF8091D9
:1043D000EA01882309F051CF8091EB01882309F08D
:1043E0004CCF80915B02882319F347CF1F93182F7E
:1043F000809164028823B1F080916502810F8093DF
:10440000650280916502813F20F48091650287FFFB
:1044100004C080916502805802C08091650280933B
:1044200065029BC080915D02893040F080915D0201
:10443000893021F080915D028A3041F480915F02E1
:10444000813021F4812F0E94C61287C080915D02C5
:10445000893008F063C080915F02882309F05EC054
:104460000E94892B80915D02843041F080915D0231
:10447000863021F080915D028230E1F480915E020D
:10448000810F80935E0280915E02833031F410923E
:104490005E0280915D028F5F0AC080915E028F3F55
:1044A00011F582E080935E0280915D0281508093DD
:1044B0005D0219C080915D02810F80935D021F3FF4
:1044C00081F480915D02843041F080915D028630FC
:1044D00021F080915D02823021F482E080935E02BF
:1044E00002C010925E0280915D02813F20F08091B7
:1044F0005D02875F0AC080915D02893020F0809163
:104500005D02895002C080915D0280935D028FE759
:104510008093650281E0809359021FC080915D0203
:104520008B3021F4812F0E94170D17C080915D02FE
:104530008C3021F4812F0E94810F0FC080915D0289
:104540008D3021F4812F0E94E30F07C080915D021E
:10455000873019F4812F0E94D8191F9108951F9355
:1045600080915D02863041F080915D02843021F0BF
:1045700080915D028230B1F480916402882361F4FD
:1045800081E00E94892B80915D02809399028AE0EC
:1045900080935D0281E01FC082E00E94892B10920F
:1045A00064021FC080915D02893018F580915F021E
:1045B0008823F9F4E0915D02F0E0EE0FFF1FE45173
:1045C000FE4F80819181009781F081E00E94892BCC
:1045D00080915F028F5F80935F021092630210925E
:1045E000600281E08093590258C083E00E94892BC9
:1045F00054C080915D02893040F080915D02893025
:1046000021F080915D028A3069F510915F021130CE
:1046100049F5809160028823F9F482E00E94892B99
:1046200080915F02815080935F0280915D028930AA
:1046300051F48091990280935D0280916102809390
:10464000600210935F0280915D028A3051F6809182
:10465000990280935D02C5CF81E00E94892B0E9460
:10466000EA0FBFCF80915D028B3019F40E94E70CF6
:1046700014C080915D028C3019F40E94210E0DC08F
:1046800080915D028D3019F40E94261306C080913E
:104690005D02873011F40E94091A1F9108951F923C
:1046A0000F920FB60F921124EF92FF920F931F9368
:1046B0002F933F934F935F936F937F938F939F932A
:1046C000AF93BF93EF93FF930E94550B80918F029E
:1046D00090919002A0919102B0919202837090709B
:1046E000A070B0700097A105B105E1F48091660259
:1046F000882359F480915D02883039F480915F02FB
:10470000882319F481E08093EB0180918D02882346
:1047100049F481E08093EA0190916602992311F4B3
:104720008093EB0180916602882309F06FC080912D
:104730008F0290919002A0919102B0919202E0902C
:10474000B200FF2400E010E0BA2FA92F982F88278D
:10475000E82AF92A0A2B1B2B8091680290916902A2
:10476000A0916A02B0916B02E81AF90A0A0B1B0BBE
:10477000809167028823A1F5189B02C01A9930C066
:1047800081E7E81687E1F80680E0080780E018076F
:1047900030F0189902C088E21FC088ED1DC089EB77
:1047A000E8168BE0F80680E0080780E0180730F094
:1047B000189902C08CE010C084EF0EC085EFE81697
:1047C00081E0F80680E0080780E0180748F01899B3
:1047D00002C084E001C08CEF09DE81E08093EB0130
:1047E00080919E0290E0A0E0B0E02AE0880F991F3F
:1047F000AA1FBB1F2A95D1F78E159F05A007B107E9
:1048000028F481E0809366020E94282D1092B00067
:104810008091B60081FDFCCFFF91EF91BF91AF91E8
:104820009F918F917F916F915F914F913F912F91C8
:104830001F910F91FF90EF900F900FBE0F901F9060
:1048400018951F920F920FB60F921124EF92FF92BC
:104850000F931F932F933F934F935F936F937F9388
:104860008F939F93AF93BF93EF93FF931C9902C0D5
:10487000D6D6B9C080916602882371F1189B04C016
:104880001A9B02C0199928C020918F023091900282
:1048900040919102509192028091B20090E0A0E08C
:1048A000B0E0542F432F322F2227822B932BA42B9F
:1048B000B52B8093680290936902A0936A02B0932B
:1048C0006B021092660280E00E94282D81E08093A6
:1048D00059028093EB011DC0E0908F02F09090028E
:1048E00000919102109192028091B2002091680291
:1048F0003091690240916A0250916B029091670277
:10490000913051F418996FC01A996DC0199B6BC002
:1049100082E08093670267C090E0A0E0B0E0102FD3
:104920000F2DFE2CEE248E299F29A02BB12B821B4C
:10493000930BA40BB50B20916702223091F4189BC6
:1049400052C01A9B50C0199B4EC08B3F9105A105C8
:10495000B10508F448C01092670281E080935902C3
:1049600040C0189908C01A9906C0199904C081E07E
:1049700080935C0238C0189B02C01A990CC08B3F10
:104980009105A105B10538F0189902C081E001C078
:104990008FEF2CDD08C0199926C08B3F9105A1052A
:1049A000B10508F1DCDD20918F0230919002409139
:1049B0009102509192028091B20090E0A0E0B0E0AC
:1049C000542F432F322F2227822B932BA42BB52B2E
:1049D0008093680290936902A0936A02B0936B027D
:1049E00081E08093EB01FF91EF91BF91AF919F9197
:1049F0008F917F916F915F914F913F912F911F9177
:104A00000F91FF90EF900F900FBE0F901F90189591
:104A10008093B70208951092B90080E28093B800A5
:104A20000895F091B70220E030E0A4EAE4E8BF2F57
:104A3000B1602F5F3F4F96E02134390709F486C0FB
:104A4000A093BC009091BC0097FFFCCF9091B9005F
:104A5000987F9093B602903129F0983389F398307B
:104A600009F076C0F093BB00E093BC009091BC00CD
:104A700097FFFCCF9091B900987F9093B602903247
:104A8000C1F29833E9F2983109F05BC08093BB0022
:104A9000E093BC009091BC0097FFFCCF9091B900CF
:104AA000987F9093B602983221F0983309F049C06C
:104AB000C7CFA093BC009091BC0097FFFCCF909112
:104AC000B900987F9093B602903129F0983309F499
:104AD000B7CF9830B1F5B093BB00E093BC00909194
:104AE000BC0097FFFCCF9091B900987F9093B602DD
:104AF000983309F4A5CF903421F5E42FF52F94ECE9
:104B00001AC06130710509F494E89093BC0080915B
:104B1000BC0087FFFCCF8091B900887F8093B602EC
:104B2000803521F0883569F460E070E08091BB0049
:104B30008193615070408E2F841B161617060CF35C
:104B400001C080E094E99093BC00089580E008954E
:104B500080E008957091B70220E030E054EA44E824
:104B60002F5F3F4F96E02134390709F44DC0509331
:104B7000BC009091BC0097FFFCCF9091B900987F4A
:104B80009093B602903121F0983389F39830F1F583
:104B90007093BB004093BC009091BC0097FFFCCF8A
:104BA0009091B900987F9093B6029032C9F29833F1
:104BB000F1F2983121F58093BB004093BC009091B5
:104BC000BC0097FFFCCF9091B900987F9093B602FC
:104BD000983219F0983399F4CACF6093BB0084E8F7
:104BE0008093BC008091BC0087FFFCCF8091B9000E
:104BF000887F8093B602883211F481E001C080E0A2
:104C000094E99093BC00089580E0089580E00895B1
:104C1000282F30E0225030403695322F222737950A
:104C20002795260F311D220F331F220F331F205FC0
:104C30003F4FC9010895282F30E0823028F42053D7
:104C4000394FF90180810895C901880F991F880F94
:104C5000991F05970C940F37823080F4282F30E08D
:104C60003695322F222737952795260F311D220F93
:104C7000331F220F331F24533D4F0DC0C9DF0E9445
:104C800017376093CC067093CD068093CE06909331
:104C9000CF062CEC36E0C9010895A0E0B0E0E3E5D2
:104CA000F6E20C943136EC0179018A012093B802C6
:104CB0003093B9024093BA025093BB02CB01E3E0B8
:104CC000880F991FEA95E1F7860F971F65E070E05E
:104CD0000E94DD35605C7E4F5B01CC24B7FCC09444
:104CE000DC2CC601B50125E030E040E050E00E9438
:104CF00012363093BD022093BC02C601B5016C3957
:104D00002FEF72072FEF82072FEF920724F46CE941
:104D10007FEF8FEF9FEF6A597F4F8F4F9F4F25E0B7
:104D200030E040E050E00E941236A22EB32EC42E96
:104D3000D52E6FEFA616B104C104D10431F02CF0CA
:104D40007FEFA72EB12CC12CD12C80E2E8168EE487
:104D5000F80680E0080780E018071CF0C801B701DA
:104D600004C060E27EE480E090E067507E448040D2
:104D7000904022E330E040E050E00E941236622E84
:104D8000932E842E752EC801B7010E944A330E94CB
:104D9000E30825E83BEE41E550E40E94D633262F98
:104DA000372F482F592F2093BE023093BF024093D4
:104DB000C0025093C10220E030E040E05FE30E9477
:104DC0004B320E941733262F372F482F592F28395F
:104DD0006AEF36076FEF46076FEF560724F428E9AE
:104DE0003AEF4FEF5FEF27593A4F4F4F5F4F5595CF
:104DF000479537952795A882862D992DA82DB72DF3
:104E0000803068E0960760E0A60760E0B60724F00F
:104E10008FEF97E0A0E0B0E0898397708A81887F68
:104E2000892B8A83203080E2380780E0480780E0C1
:104E3000580724F02FEF3FE140E050E0922F990F08
:104E4000990F990F8A818770892B8A83832F880F06
:104E5000880F880F229526952770282B2B83CDB796
:104E6000DEB7EEE00C944D36A6E0B0E0EAE3F7E200
:104E70000C943636FC019A01AB01CE010196BF01BC
:104E80000CDFB0E2EB2EB2E0FB2E00ED16E0CC24FE
:104E9000DD2420E03CE3222391F0809193024091B5
:104EA0009402839FC0011124840F911DF70160813A
:104EB00071810E94C9350097A1F52230C9F0F8012F
:104EC0004081F601E40FF11DEE0FFF1FEE0FFF1FF3
:104ED000E453FD4F89819A81AB81BC8180839183AA
:104EE000A283B383842F8F5F8F77F801808319C0EB
:104EF00083E090E02D833E830E940F37B82E82E03E
:104F00006B2D86DE49815A816B817C810E9433370B
:104F10006B2D6F5F6F7783E090E00E9421373E81B9
:104F20002D812F5F82E090E0E80EF91E0F5F1F4F8A
:104F3000E0E8F0E0CE0EDF1E233009F0ACCF26967D
:104F4000E9E00C9452366F927F928F929F92BF92BB
:104F5000CF92DF92EF92FF920F931F93DF93CF9345
:104F600000D000D00F92CDB7DEB7FC016A017B0103
:104F700038014901CE010196BF01A70196018DDEDE
:104F800000E112E020E0CC24CA94DC2C7601BB24A2
:104F9000C8012D830E9417372D816C157D058E0564
:104FA0009F0518F46B017C01B22E2F5F085F1F4F25
:104FB0002E3371F70B2D10E00E5B1F4F83E0000FB7
:104FC000111F8A95E1F7C801B401A3010E9433378C
:104FD00049815A816B817C81C80104960E943337D4
:104FE0000F900F900F900F900F90CF91DF911F9126
:104FF0000F91FF90EF90DF90CF90BF909F908F9098
:105000007F906F900895AF92BF92DF92EF92FF92E0
:105010000F931F93DF93CF930F92CDB7DEB790E13D
:10502000A92E92E0B92E20E0EE24FF248701DD2492
:10503000C50129830E94173729816E157F058007D6
:10504000910718F07B018C01D22E2F5F88E090E051
:10505000A80EB91E2E3361F78D2D0F90CF91DF91E1
:105060001F910F91FF90EF90DF90BF90AF90089548
:10507000A4E0B0E0EEE3F8E20C943B36082F10E039
:105080000E5B1F4F23E0000F111F2A95E1F7C801A7
:105090000E9417376093C4027093C5028093C602C2
:1050A0009093C702C80104960E9417376093C80204
:1050B0007093C9028093CA029093CB0284EC92E071
:1050C0002496E4E00C9457368EE308951F93CF9313
:1050D000DF93C0E1D2E010E0CE010E9417376115E6
:1050E00071058105910521F01F5F28961E33A1F7F8
:1050F000812FDF91CF911F9108951F93CF93DF935D
:10510000182F1092C3021092C202A0EDB6E020E068
:1051100030E01D9280E0F901E80FF11DEE0FFF1F56
:10512000EE0FFF1FE453FD4F108211821282138293
:105130008F5F803881F720583F4F81E0203038075B
:1051400041F780E090E00E941C372EEB833B9207F2
:1051500039F4112329F482E092E060E004D433C0F2
:1051600080E192E060E0FFD380E090E043EB5EEB13
:1051700060E070E00E94333784E090E040E050E06F
:10518000BA010E94333710E082E0612F41DD40E038
:1051900050E0BA010E9433371F5F1038A9F7C0E111
:1051A000D2E0CE0140E050E0BA010E943337CE0198
:1051B000049640E050E0BA010E943337289684E01C
:1051C000C030D80771F7DF91CF911F9108950F93E9
:1051D0001F938C01882777FD8095982F0E944A3372
:1051E00020911F02222391F420E030E040E852E4B5
:1051F0000E944A3220E030E040EA50E40E94D63378
:1052000020E030E040E151E40E94AF3220E030E0A5
:1052100040E05FE30E94D63341E021E00E946A361D
:105220001F910F9108950F931F938C01882777FD8D
:105230008095982F0E944A3320911F02222361F407
:1052400020E030E040EA50E40E94D63320E030E035
:1052500040E151E40E94AF3220E030E040E05FE303
:105260000E94D63341E021E00E946A361F910F91DF
:1052700008950F931F938C0180911F02882391F052
:10528000882777FD8095982F29E83BE040E050E0A3
:105290000E949E3520EA36E841E050E00E94123636
:1052A000622F732F882777FD8095982F0E944A33AD
:1052B00020E030E040E05FE30E94D63320911F02FF
:1052C000222311F022E001C020E041E00E946A3672
:1052D0001F910F910895CF93DF93EC01CB012091A3
:1052E0001F022223A1F49B01B901882777FD809535
:1052F000982F24E630E040E050E00E949E3528E4FC
:1053000031E040E050E00E941236822F932FBE0120
:105310004AE050E00E94BE36DF91CF910895262FDB
:10532000BA01222309F453CF213009F4A2CFD3CFFD
:10533000662351F4E0911F02F0E0EE0FFF1FEA5DDB
:10534000FD4F6081718115C0613041F4E0911F0211
:10535000F0E0EE0FFF1FE85DFD4F07C0E0911F0278
:10536000F0E0EE0FFF1FE65DFD4F608171816F5F22
:105370007F4F0C948B361F93CF93DF93EC01162F46
:105380008FE74E3F580714F018820AC0CE01C7DFDE
:10539000CE016FE379E00E948B36CE01612FC8DF2A
:1053A000DF91CF911F9108951F93CF93DF93EC016D
:1053B000162F8FE74E3F580714F0188205C0CE0114
:1053C000AEDFCE01612FB4DFDF91CF911F91089541
:1053D0002C9A089556D1E4E6F0E08081877F80839F
:1053E0001092800089E080938100109289008FECF8
:1053F0008093880082E086BB2B9A0895E4E6F0E073
:1054000080818860808308959091D2069827909338
:10541000D2062B9A92E096BBB19BFECF92E096BB50
:10542000B19BFECF2B9892E096BBB19BFECF98E04C
:1054300022E080FF02C02B9A01C02B9826BBB19BB3
:10544000FECF915011F08695F4CF2B9A82E086BB67
:10545000B19BFECF0895A1E0B0E0E1E3FAE20C9445
:10546000353681E0D1DF32DEC82ECEDFCCDDA82E8E
:10547000BB240894A11CB11CAC18B108B7FE03C032
:1054800023DEA80EB11CDD241EC08A2DF1DD082FFD
:105490000894A11CB11C998317DE282F30E0998154
:1054A000A216B30611F4AA24BB24192F88E0E82E13
:1054B000F12CE00EF11EF80181918F01A5DF0E1590
:1054C0001F05C9F7D394DC1400F32196EAE00C948D
:1054D0005136A0E0B0E0EFE6FAE20C94363681E017
:1054E00093DF83E091DF80E88FDF80918D028CDF96
:1054F0008091940289DF8091930286DF80918C02F3
:1055000083DF80918B0280DF80918E027DDFC0E29D
:10551000D2E0DD248E01898177DF2296F801808137
:1055200073DF8D2D88DBC82EBB248D2D6C2D94DB75
:10553000C394FC2DF03809F4CC24082F192F94E0E3
:10554000E92EF12CE00EF11EF80181918F015CDF54
:105550000E151F05C9F7B394FB2DF03831F7D3941E
:105560002D2D2330B9F6CDB7DEB7E9E00C945236D5
:105570001F93CF93DF93182F8CE446DF8FE444DF33
:1055800087E442DF1092D206123369F0133369F0D8
:10559000113361F4C0E8D4E0899136DF84E0CA3881
:1055A000D807D1F703C095DF01C055DF8091D2063F
:1055B0002BDFDF91CF911F91089580E090E022E0F2
:1055C00008C0B19B06C026BB01963BE48030930720
:1055D00011F11C9BF6CF09C0B19B08C026BB0196F8
:1055E0003BE48030930711F418C022E01C99F4CFFB
:1055F00080E28A95F1F7109285001092840098E07D
:1056000080E022E026BBB19BFECF86951C99806886
:105610009150C1F7089580E0089580E00895A4E0D6
:10562000B0E0E5E1FBE20C943A36D4DEDE011196FF
:10563000EAE4F2E083E001900D928150E1F725E089
:10564000F22E90E08E010F5F1F4F9C83B6DF9C818E
:10565000F801E90FF11D2081821741F49F5F93301B
:1056600049F4ABDF882341F083DF06C091E0298154
:10567000821390E0FA9449F7C1DE2496E5E00C9499
:10568000563610926C025E98589814BC10926F00B7
:1056900016BAE4E6F0E08081886280830895569A25
:1056A000509AEFCF8091D406882329F48091D306B5
:1056B000823078F40CC08091D406813039F4809126
:1056C000D306882319F0823021F401C0DACF80E4B8
:1056D00001C080E6909164009F7D9093640092E405
:1056E00094BD93E095BD87BD16BC80916400877F13
:1056F00080936400109280008DE0809381009093ED
:10570000890080E28093880082E086BB80936F00EE
:10571000089590914D02992341F08093D306109201
:10572000D40681E080936C02BDCF08951F920F9242
:105730000FB60F9211242F933F934F935F936F9364
:105740007F938F939F93AF93BF93EF93FF9380913A
:10575000D4068F5F8093D406A5DFFF91EF91BF91B0
:10576000AF919F918F917F916F915F914F913F91F9
:105770002F910F900FBE0F901F901895882311F056
:105780005F9A01C05F985C98662309F444C02D9825
:1057900067FF02C02B9A01C02B982D9A2D98862F57
:1057A000880F66FF02C02B9A01C02B982D9A2D9866
:1057B000982F990F86FF02C02B9A01C02B982D9A23
:1057C0002D98892F880F96FF02C02B9A01C02B9825
:1057D0002D9A2D98982F990F86FF02C02B9A01C001
:1057E0002B982D9A2D98892F880F96FF02C02B9AFF
:1057F00001C02B982D9A2D98982F990F86FF02C0E3
:105800002B9A01C02B982D9A2D9896FF02C02B9AA7
:1058100012C02B9810C02B982D982D9A2D982D9A48
:105820002D982D9A2D982D9A2D982D9A2D982D9A48
:105830002D982D9A2D982D9A5C9A2B9A08958AB1BD
:10584000806B8AB984B1886284B95C9A5D9A8FEC66
:1058500097E00197F1F700C000005D988FE19EE4AA
:105860000197F1F700C000005D9A80E06EEA86DFE4
:1058700080E060E083DF80E060E180DF80E060E482
:105880007DDF80E061E87ADF6091DF0680E076DF2F
:1058900080E061EA73DF80E066EA70DF80E064EA5E
:1058A0006DDF80E068EA6ADF80E06FE367DF80E059
:1058B00063ED64DF80E060E061DF80E065ED5EDF86
:1058C00080E060E85BDF80E069ED58DF80E061EF59
:1058D00055DF80E06AED52DF80E062E14FDF80E07B
:1058E0006BED4CDF80E060E449DF80E060E246DFA2
:1058F00080E060E043DF80E061EA40DF80E068EC68
:105900003DDF80E06DE83ADF80E064E137DF80E092
:105910006FEA34CFEF92FF920F931F93CF93DF93F1
:10592000F62E05E0809F800111240F55174FC0E02F
:10593000D0E08FE7E82EF801EC0FFD1F6491F11025
:105940006E2581E01BDF2196C530D105A1F7FF2030
:1059500011F06FE701C060E081E010DFCDB7DEB786
:10596000E6E00C945536EF92FF921F93CF93DF93AE
:10597000162FE82EE7017E01F92EE70102C0612F04
:10598000C9DF89918823D9F7DF91CF911F91FF90CB
:10599000EF9008950F931F93182F062F682F6F70A5
:1059A00080E0ECDE612F62956F70606180E0E6DE82
:1059B000602F6770606B80E0E1DE1F910F910895AA
:1059C00080E060E0E7DF5F9A5C982B9888E015C084
:1059D0002D982D9A2D982D9A2D982D9A2D982D9A97
:1059E0002D982D9A2D982D9A2D982D9A2D982D9A87
:1059F0009F5F903869F7815011F090E0E9CF5C9A91
:105A00002B9A08958FEF9FE79093E1068093E0062D
:105A10009093D6068093D5061092E6069093E306FF
:105A20008093E2069093D8068093D7061092E706FB
:105A30009093E5068093E4069093DA068093D90666
:105A40001092E8068FEF8093DF06F9CEB9CF089564
:105A5000882319F080E06EEA02C080E06FEA8ECE03
:105A6000A1E0B0E0E6E3FDE20C943736D82EE92E53
:105A7000162FE82FF92FDF010D900020E9F711977D
:105A8000A81B23E130E02A1B310935952795C22E4A
:105A90000A2F01950D5E021B80E060E07BDF112381
:105AA00011F06FE701C060E081E068DE112319F0BA
:105AB0004EE452E002C040E552E0CA01612F53DFDC
:105AC000112331F486E060E065DF81E060E456DEBA
:105AD000FF24F39411C0112329F086E592E061E0E0
