:100000000C942C060C9449060C9449060C94ED268D
:100010000C94B42B0C9449060C9449060C94490694
:100020000C9449060C941A260C9449060C945C2CEA
:100030000C9449060C9449060C9449060C94490604
:100040000C9449060C9449060C9449060C944906F4
:100050000C9449060C9449060C9449060C944906E4
:100060000C949B340C94490607634236B79BD8A77F
:100070001A39685618AEBAAB558C1D3CB7CC5763CD
:10008000BD6DEDFD753EF6177231BF000000803F7B
:1000900008000000BE922449123EABAAAA2ABECD97
:1000A000CCCC4C3E00000080BEABAAAAAA3E000009
:1000B0000000BF000000803F000000000008417801
:1000C000D3BB4387D1133D190E3CC3BD4282AD2B38
:1000D0003E68EC8276BED98FE1A93E4C80EFFFBE30
:1000E00001C4FF7F3F00000000004A616E004665CA
:1000F00062004D617200417072004D6179004A7575
:100100006E004A756C0041756700536570004F635F
:1001100074004E6F760044656300EA00EE00F20062
:10012000F600FA00FE00020106010A010E011201AA
:100130001601200064006800346400326400323428
:10014000680032680039306D006D005000410030A9
:10015000003A0030003A0030005000410030003AD0
:100160000030002000203000FFFFFFFFFFFFFFFFF7
:10017000FFFF0F0F0F0F0F0F0F0FFFFFFFFEFCF81A
:10018000F0E0C0000000FFFFFFFFFFFFFFFFFEFCED
:10019000F8F0E0C08000000080C0E0F0F8FCFEFF56
:1001A000FFFFFFFFFFFF00000080C0E0F0F8FCFE53
:1001B000FFFFFF0F0F0F0F0F0F0F0FFFFFFFFEFCD3
:1001C000F8F0E0C080000000FFFFFFFFFFFFFFFF2F
:1001D000FFFF00000000000000000000000000FF22
:1001E000FFFFFFFFFFFFFFFFFFFFFFFFFFFFFFFF1F
:1001F000FFFF1E1E1E1E1E1E1E1EFFFFFFFFFFF71F
:10020000E3C180000000FFFFFFFFFFFFFFFFFFFFD4
:100210000F1F3F7FFFFFFEFFFF7F3F1F0FFFFFFF0F
:10022000FFFFFFFFFFFF000000FFFFFFFFFFFFFFDB
:10023000FFFFFF0000000000000000FFFFFFFFFFC6
:10024000FFFFFFFFFF000000FFFFFFFFFFFFFFFFBB
:10025000FFFF80C0E0F0F8FCFEFCF8F0E0C080FF9B
:10026000FFFFFFFFFFFFFFFFFFFFFFFFFFFFFFFF9E
:10027000FFFF8080808080808080FFFFFFFFFFFF86
:100280007F3F1F000000FFFFFFFFFFFFFFFFFFFF9B
:1002900000000000000103010000000000FFFFFF5C
:1002A000FFFFFFFFFFFF0000000F1F3F7FFFFFFF6B
:1002B000FFFFFF8080808080808080FFFFFFFFFF46
:1002C000FF7F3F1F0F000000FFFFFFFFFFFFFFFF4B
:1002D000FFFFFF7F3F1F0F0703070F1F3F7FFFFF3A
:1002E000FFFFFFFFFFFFFFFF87878787870707075E
:1002F000070787870707070707070707070301009F
:1003000000000000000087870707078787070707A7
:1003100000000000000000000000000000070707C8
:10032000070707070707000000000000000001039F
:100330000707070707078787070707070707030157
:100340000000808000000080870707078787070775
:100350000301000000000000000000000000000198
:100360000307070707070707FFFF1919FFE7000043
:10037000000CFDFD00000000FCFE8686FEFE000075
:10038000000000000000FFFF1E781EFFFF00FCFEC3
:1003900066667E7C00003C7E6666E6C600003C7EAB
:1003A0006666E6C60000000000000000FCFE0606CF
:1003B000FEFC000000001F1F000000000000000005
:1003C0000000FFFFE078E0FFFF00000CFDFD0000F3
:1003D0000000FEFE06061E1C0000FCFE66667E7C1B
:1003E00000003C7E6666E6C60707060607030000B7
:1003F0000006070706000000181919191F0F000052
:1004000000000000000007070000000707000307C6
:100410000606060600000606060607030000060696
:1004200006060703000000000000000003070606A0
:1004300007030000000000000000000000000000B2
:100440000000070701000107070000060707060074
:10045000000007070000000000000307060606066C
:1004600000000606060607034A756C203232203269
:100470003031310030393A32353A3135004578691A
:1004800074204D656E75004C696E652031204461A5
:100490007461004C696E6520322044617461004CC7
:1004A000696E6520332044617461004C696E65207B
:1004B000342044617461004C696E652035204461CC
:1004C0007461004C696E6520362044617461007D62
:1004D00004870493049F04AB04B704C304000043DF
:1004E000616C696272617465005365742044657360
:1004F00074696E6174696F6E00526573657420442F
:10050000657374696E6174696F6E007D04DF04E960
:100510000400004461746520616E642054696D6557
:1005200000536C6565702044656C617900536F758C
:100530006E64004C434420436F6E747261737400A8
:100540004C43442042696173004C43442054656D20
:100550007020436F656600526573746F7265204446
:10056000656661756C747300457261736520416CDA
:100570006C2044617461007D04130521052D053351
:10058000054005490557056805000054656D70650F
:1005900072617475726500416C746974756465008C
:1005A00052617465206F6620417363656E740054F8
:1005B000696D6520746F2044657374696E61746938
:1005C0006F6E0053746174696F6E2050726573733F
:1005D00075726500536561204C6576656C205072BC
:1005E0006573737572650054696D65206F6620448C
:1005F0006179004461746520616E642054696D65A1
:100600000054656D70657261747572652054726511
:100610006E64005072657373757265205472656EF6
:1006200064005765617468657220466F7265636126
:10063000737400456D707479005472697020546948
:100640006D65007D048B059705A005AF05C305D436
:1006500005E705F3050106130622063906330600F1
:10066000005669657720536E617073686F74204C13
:100670006F670054616B6520536E617073686F74AF
:10068000007D046106730600004578706C6F72652A
:100690002047726170680044726177696E67205309
:1006A00074796C6500437573746F6D20592D4178B2
:1006B0006973204D696E00437573746F6D20592DF9
:1006C00041786973204D6178004175746F20592D10
:1006D00041786973204D696E004175746F20592D02
:1006E00041786973204D6178007D0489069706A5DD
:1006F00006B7060000536F6172696E670052697336
:10070000696E67204661737400526973696E670091
:10071000526973696E6720536C6F7700537465611B
:1007200064790046616C6C696E6720536C6F77006A
:1007300046616C6C696E670046616C6C696E67201F
:100740004661737400506C756D6D6574696E6700F9
:10075000F506FD06090710071C07230730073807B1
:1007600045072B002D2D2D2D002B002D2D2D00208C
:100770006674200044657374696E6174696F6E20DD
:100780000020002000200020002000300020002D4C
:10079000002000504D00414D00200020003000207E
:1007A0000020003000200020003000200020002029
:1007B0000020003000200020002000536E61707384
:1007C000686F74200020004F6666004F6E00536F04
:1007D000756E642000436F6E7472617374200056EE
:1007E0000042617474657279200020504153542096
:1007F00000414C54495455444500505245535355BB
:1008000052450054454D5000202020202020746F78
:1008100020756E6C6F636B0020686F6C64205052A3
:10082000455620616E64204E4558540046200066AF
:1008300074200020002000556E696D706C656D6538
:100840006E746564002B0030003A005472697020A9
:1008500054696D652000200020004572722000431D
:100860006C6561722C204472790046616972005592
:100870006E6368616E676564005261696E005374EF
:100880006F726D7900566572792053746F726D794D
:1008900000436C656172696E6700476F6F64205733
:1008A00065617468657200417070722E2053746FB8
:1008B000726D00506F6F72205765617468657200C9
:1008C000556E6368616E6765640042726965662093
:1008D00053686F77657200556E617661696C61620D
:1008E0006C6500466F7265636173742000507265B9
:1008F0007373757265200054656D70200030003A86
:100900000030002D2D2D2D2D0054696D6520746F44
:10091000204465737420002066742F6D696E002D6D
:100920002D2D0044657363656E64696E6720004118
:100930007363656E64696E67200020696E0053659D
:1009400061204C657620507273200020696E005340
:10095000746174696F6E20507273200052657472F6
:1009600079200053656E736F72206572723A2000B1
:10097000667400696E002746000000000000000059
:100980005F00000007000700147F147F14242A7FF3
:100990002A122313086462364956205000060503C4
:1009A00000001C2241000041221C002A1C7F1C2A3E
:1009B00008083E0808008070300008080808080091
:1009C0000060600020100804023E5149453E00428C
:1009D0007F400072494949462141494D331814125C
:1009E0007F1027454545393C4A4949314121110984
:1009F000073649494936464949291E000014000076
:100A0000103070301000081C3E7F141414141400B1
:100A10007F3E1C0802015909063E415D594E7C1279
:100A200011127C7F494949363E414141227F414173
:100A3000413E7F494949417F090909013E414151F0
:100A4000737F0808087F00417F41002040413F013B
:100A50007F081422417F404040407F021C027F7F7C
:100A60000408107F3E4141413E7F090909063E418D
:100A700051215E7F09192946264949493203017FE0
:100A800001033F4040403F1F2040201F3F4038406F
:100A90003F631408146303047804036159494D4308
:100AA000007F4141410204081020004141417F0480
:100AB000060706044040404040000605030020545D
:100AC0005478407F284444383844444428384444C7
:100AD000287F385454541800087E090218A4A49C96
:100AE000787F0804047800447D40002040403D00A9
:100AF0007F1028440000417F40007C047804787C0B
:100B0000080404783844444438FC18242418182471
:100B10002418FC7C08040408485454542404043F5A
:100B200044243C4040207C1C2040201C3C40304061
:100B30003C44281028444C9090907C4464544C448D
:100B400020504153542000414C54495455444500D1
:100B500050524553535552450054454D50000040A6
:100B60007A10F35A00A0724E18090010A5D4E800BC
:100B700000E87648170000E40B54020000CA9A3BD4
:100B8000000000E1F505000080969800000040425A
:100B90000F000000A08601000000102700000000E8
:100BA000E803000000006400000000000A000000EC
:100BB00000000100000000002C76D888DC674F0898
:100BC00023DFC1DFAE59E1B1B796E5E3E453C63A9E
:100BD000E651997696E8E6C28426EB898C9B62ED15
:100BE000407C6FFCEFBC9C9F40F2BAA56FA5F490CF
:100BF000055A2AF75C936B6CF9676DC11BFCE0E446
:100C00000D47FEF520E6B500D0ED902E030094359B
:100C100077050080841E080000204E0A000000C8EE
:100C20000C333333330F986E12831141EF8D21143F
:100C3000893BE65516CFFEE6DB18D1844B381BF70F
:100C40007C1D901DA4BBE424203284725E228100AE
:100C5000C9F124ECA1E53D2711241FBECFEFD8E058
:100C6000DEBFCDBF12E0A0E0B1E0E8E5FCE702C0E6
:100C700005900D92A233B107D9F717E0A2E3B2E0D5
:100C800001C01D92A530B107E1F70E944C230C94DE
:100C90002A3E0C9400000F931F93809164008E7F76
:100CA0008093640080917A00806880937A0086E463
:100CB00080937C008FE99FE00197F1F700C000006E
:100CC00080917A00806480937A0080917A0086FD1A
:100CD000FCCF2091780030E040E050E08091790036
:100CE000782F60E0882777FD8095982F622B732BF3
:100CF000842B952B2CEB3CE040E050E00E94313AF5
:100D000020917A002F7720937A002091640021604F
:100D1000209364002FEF33E040E050E00E94A53ABA
:100D2000B901CA011F910F910895809164008E7FCF
:100D30008093640080917A00806880937A0088ECC8
:100D400080937C008FE99FE00197F1F700C00000DD
:100D500080917A00806480937A0080917A0086FD89
:100D6000FCCF2091780030E040E050E080917900A5
:100D7000782F60E0882777FD8095982F622B732B62
:100D8000842B952B23E334E040E050E00E94313A7D
:100D90009B01AC0180917A008F7780937A008091DB
:100DA0006400816080936400275E3C404240504074
:100DB000B901CA0108951F93182F87E70E944A3688
:100DC000812F0E9464360E94543687E761E00E94BA
:100DD0003D360E94BC368823E1F30E94C2361F9143
:100DE00008951F93182F87E70E944A36812F0E948B
:100DF00064360E94543680933202809132028823F6
:100E0000A1F487E762E00E943D360E94BC36823042
:100E1000E0F30E94C236182F0E94C236512F40E0E4
:100E2000282F30E0242B352B02C020E030E0C90110
:100E30001F91089580E896EEA5ECB7E48093A40294
:100E40009093A502A093A602B093A70208951092D2
:100E500032023B9A43988FEC97E00197F1F700C07C
:100E60000000439A80E896EEA5ECB7E48093A402D4
:100E70009093A502A093A602B093A7020E942536E4
:100E80008AEA0E94F10690939102809390028CEA84
:100E90000E94F10690939902809398028EEA0E9434
:100EA000F1069093A9028093A80280EB0E94F106BC
:100EB00090939D0280939C0282EB0E94F106909396
:100EC00097028093960284EB0E94F106909395021C
:100ED0008093940286EB0E94F10690939302809394
:100EE000920288EB0E94F10690938D0280938C020F
:100EF0008AEB0E94F10690938F0280938E028CEB16
:100F00000E94F10690939F0280939E028EEB0E94B6
:100F1000F10690939B0280939A02089587E70E94BE
:100F20004A3684EF0E9464368EE20E9464360E9444
:100F300054368093320280913202882361F48FE02C
:100F400097E20197F1F700C0000086EF0E94F106DA
:100F5000282F392F02C020E030E0C9010895EF9218
:100F6000FF920F931F9387E70E944A3684EF0E94F7
:100F7000643684EF0E9464360E94543680933202B5
:100F800080913202882309F045C08FE19BEC0197E4
:100F9000F1F700C0000087E70E944A3686EF0E9402
:100FA00064360E9454368093320280913202882344
:100FB00089F587E763E00E943D360E94BC368330A6
:100FC000E0F30E94C236182F0E94C236E82E0E941B
:100FD000C236212F30E040E050E0A901332722271C
:100FE000FF2400E010E0102F0F2DFE2CEE242E2900
:100FF0003F29402B512B90E0A0E0B0E0282B392B6B
:101000004A2B5B2B85E056954795379527958A9512
:10101000D1F703C020E030E0A901B901CA011F9156
:101020000F91FF90EF900895EF92FF920F931F930F
:10103000BC0180E090E0209194023091950240E064
:1010400050E0621B730B840B950B2091960230913C
:10105000970240E050E00E94313A7B018C01FFE0B2
:1010600015950795F794E794FA95D1F760919E024C
:1010700070919F02882777FD8095982FEBE0660F8F
:10108000771F881F991FEA95D1F720919A02309116
:101090009B02442737FD4095542F2E0D3F1D401FC6
:1010A000511F0E94A53A2E0D3F1D401F511F209336
:1010B000A0023093A1024093A2025093A302285FA2
:1010C0003F4F4F4F5F4F74E05595479537952795A4
:1010D0007A95D1F7C9011F910F91FF90EF90089574
:1010E0002F923F924F925F926F927F928F929F9238
:1010F000AF92BF92CF92DF92EF92FF920F931F9326
:10110000DF93CF9300D000D0CDB7DEB71B012C0109
:10111000A090A002B090A102C090A202D090A30221
:1011200080E690EFAFEFBFEFA80EB91ECA1EDB1E20
:10113000C601B501A60195010E94313A69837A83FF
:101140008B839C836091A8027091A902882777FD08
:101150008095982F0E94313A7B018C014DE01595C6
:101160000795F794E7944A95D1F782E090E0A0E0E4
:10117000B0E0E80EF91E0A1F1B1F69817A818B817E
:101180009C813CE095958795779567953A95D1F741
:101190002091920230919302442737FD4095542FBD
:1011A0000E94313ABC01992777FD9095892FE60E70
:1011B000F71E081F191F82E015950795F794E7940D
:1011C0008A95D1F780E090E8A0E0B0E0E80EF91E43
:1011D0000A1F1B1F20919C0230919D0240E050E0AD
:1011E000C801B7010E94313A3B014C01BFE096941F
:1011F000879477946794BA95D1F76091980270912B
:101200009902882777FD8095982FA60195010E9465
:10121000313A7B018C01ABE015950795F794E79483
:10122000AA95D1F78091900290919102AA2797FDFB
:10123000A095BA2FF2E0880F991FAA1FBB1FFA953D
:10124000D1F7E80EF91E0A1F1B1F20918C02309166
:101250008D02442737FD4095542F69817A818B8117
:101260009C810E94313AE7E195958795779567953E
:10127000EA95D1F7E60EF71E081F191FEE0CFF1CAA
:10128000001F111F2E183F08400A510AC201B10168
:101290002AE638E140E050E00E94313A97FD0BC069
:1012A000660F771F881F991FA40193010E94833A3C
:1012B00079018A010AC0A40193010E94833A79014D
:1012C0008A01EE0CFF1C001F111F552717FD5A95B0
:1012D000412F302F2F2DCA01B9010E94313A2EED36
:1012E0003BE040E050E00E94313A5B016C01C801F4
:1012F000B70123E433EE4FEF5FEF0E94313A9C01D8
:10130000552737FD5095452F2153314F4F4F5F4F94
:101310005601DD24B7FCD094CD2C2A0D3B1D4C1D6D
:101320005D1DA4E05595479537952795AA95D1F76A
:101330002E0D3F1D401F511FB901CA010F900F9084
:101340000F900F90CF91DF911F910F91FF90EF9031
:10135000DF90CF90BF90AF909F908F907F906F90D5
:101360005F904F903F902F9008952091A40230916C
:10137000A5024091A6025091A7020E94423721EB9C
:101380003CED42E45EE30E94CC38562F472F382FC5
:10139000292F60E070E080E89FE3DA01F9012B2F4C
:1013A0003A2F4F2F5E2F0E94DD3620E03AE24DE2C9
:1013B00057E40E9469380895EF92FF920F931F93AC
:1013C0007B018C01CA01B90120E03AE24DE257E409
:1013D0000E9442379B01AC0160E070E080E89FE32F
:1013E0000E94DD3626EF38E248EA50E40E94CC380D
:1013F000562F472F382F292FC801B701DA01F901DD
:101400002B2F3A2F4F2F5E2F0E9442371F910F91A3
:10141000FF90EF9008958091A4029091A502A09171
:10142000A602B091A70208959F92AF92BF92CF9269
:10143000DF92EF92FF920F931F93CF93DF936C0194
:10144000C0E0D0E0FE01EE0FFF1FE65EFE4FA5906C
:10145000B49000E010E0F601E00FF11F8491F80174
:10146000EA0DFB1D949090E00E94E23A7C01892DE8
:1014700090E00E94E23AE816F90639F40F5F1F4F38
:101480000330110541F7219606C02196CC30D105D5
:10149000C9F6C0E0D0E0CE01DF91CF911F910F914E
:1014A000FF90EF90DF90CF90BF90AF909F90089506
:1014B000EF92FF921F93CF93DF93EC01162FE42F4F
:1014C000F0E0EE0FFF1FE85EFE4F25913491CE0154
:1014D000B9010E94F53A1A3020F4CE0165E671E0B8
:1014E00003C0CE0163E671E00E94EA3A7E01AC2FB0
:1014F000BF2DFD0101900020E9F73197EA1BFB0B9E
:10150000EC0FFD1F812F90E0BF014AE050E00E94E8
:101510001D3BCE01DF91CF911F91FF90EF90089579
:10152000CF92DF92EF92FF920F931F93DF93CF93AF
:101530000F92CDB7DEB76C01162F042FFC0110827D
:10154000662389F06C3079F0862F6CE00E94503A67
:10155000292F9A3048F4C60161E671E029830E9480
:10156000EA3A298101C02CE0F60101900020E9F758
:101570003197EC19FD09EC0DFD1D822F90E0BF01A4
:101580004AE050E00E941D3BC6016FE571E00E94F9
:10159000EA3A0A3028F4C6016DE571E00E94EA3AA1
:1015A000F60101900020E9F73197EC19FD09EC0DE7
:1015B000FD1D802F90E0BF014AE050E00E941D3BDE
:1015C0001C3020F4C6016BE571E003C0C60169E57B
:1015D00071E00E94EA3AC6010F90CF91DF911F910E
:1015E0000F91FF90EF90DF90CF900895AF92BF9250
:1015F000CF92DF92EF92FF920F931F93DF93CF93DF
:101600000F92CDB7DEB75C01162F042FF22EDC014E
:101610001C92662389F06C3079F0862F6CE00E9472
:10162000503A292F9A3048F4C50167E571E02983C3
:101630000E94EA3A298101C02CE0D5010D900020DA
:10164000E9F7BD01615070406A197B096A0D7B1D85
:10165000822F90E04AE050E00E941D3BC50165E505
:1016600071E00E94EA3A0A3028F4C50163E571E0AE
:101670000E94EA3AD5010D900020E9F7BD016150C2
:1016800070406A197B096A0D7B1D802F90E04AE04B
:1016900050E00E941D3BC50161E571E00E94EA3AFD
:1016A000BF2DBA3028F4C5016FE471E00E94EA3A18
:1016B000F50101900020E9F73197EA19FB09EA0DDD
:1016C000FB1D8F2D90E0BF014AE050E00E941D3BC2
:1016D0001C3020F4C5016DE471E003C0C5016BE46A
:1016E00071E00E94EA3AC5010F90CF91DF911F91FE
:1016F0000F91FF90EF90DF90CF90BF90AF90089543
:101700000F931F938C016C33710550F4CB01B8011A
:101710004AE050E00E941D3BC80169E471E047C007
:101720006435710519F465E471E01DC06038710518
:1017300019F462E471E017C085E0683E780721F48F
:10174000C8016EE371E00FC089E0683D780721F4BD
:10175000C8016BE371E007C083E1603B780731F4B7
:10176000C80168E371E00E94F53A23C088E0613760
:10177000780778F4CB016CE370E00E945C3ACB010F
:10178000B8014AE050E00E941D3BC80166E371E0E9
:101790000EC0CB0160EA75E00E945C3ACB01B80153
:1017A0004AE050E00E941D3BC80164E371E00E94E2
:1017B000EA3AC8011F910F910895AF92BF92CF925C
:1017C000DF92EF92FF920F931F93DF93CF93CDB7EA
:1017D000DEB760970FB6F894DEBF0FBECDBFE82E20
:1017E000D92E9B018FB7F894F090B302C090B2024B
:1017F000E091AB024091AA02F091AD028FBFCB0104
:101800006CE370E00E945C3AF81A8F2D8C3318F06C
:10181000CA948CE3F80EC9016CE370E00E945C3A54
:101820009B01CB0168E170E00E945C3AC81A8C2DE4
:10183000883118F0E15088E1C80EF37011F4FDE131
:1018400001C0FCE1EE2319F5415049F04230D1F0DE
:101850004130D1F04330C1F04530B1F002C04CE02E
:1018600013C0473089F0483079F04A3069F04C3085
:1018700059F0443059F0463049F0493039F04B3096
:1018800031F404C0EF2F03C0EFE101C0EEE1C90164
:1018900068E170E00E945C3A9B012AC02150304010
:1018A000E1508E2F81508F3118F1415049F0423074
:1018B000D1F04130D1F04330C1F04530B1F002C039
:1018C0004CE013C0473089F0483079F04A3069F075
:1018D0004C3059F0443059F0463049F0493039F035
:1018E0004B3031F404C0EF2F03C0EFE101C0EEE153
:1018F0002115310599F65E010894A11CB11CC501A2
:101900006E2F0E94580A8E01085F1F4FC8016C2D70
:101910004F2D0E94900A8E2D9D2DB5010E94163BE1
:101920008E2D9D2D62E371E00E94EA3A8E2D9D2D51
:10193000B8010E940B3B8E2D9D2D60960FB6F8943A
:10194000DEBF0FBECDBFCF91DF911F910F91FF90F2
:10195000EF90DF90CF90BF90AF900895FC019491ED
:10196000903211F0905301C090E03196E491E05331
:10197000990F892F880F880F890F8E0F0895CF93A5
:10198000DF93C1E7D4E0CE010E94AE0C8093AD029C
:10199000CE0109970E94140A8093AA02CE010597EE
:1019A0000E94AE0C8093AB02C4E7D4E0CE010E944B
:1019B000AE0C8093B202CE0103960E94AE0C8093CF
:1019C000B302CE0106960E94AE0C8093AC02DF916A
:1019D000CF9108958091AE029091AF02A091B00294
:1019E000B091B1020196A11DB11D8093AE029093FA
:1019F000AF02A093B002B093B1028091AE02909179
:101A0000AF02A091B002B091B10283709070A0704B
:101A1000B0700097A105B10509F083C08091AC02B8
:101A20008F5F8093AC028091AC028C3309F079C057
:101A30001092AC028091B3028F5F8093B3028091C9
:101A4000B3028C3309F06DC01092B3028091B202E0
:101A50008F5F8093B2028091B202883109F061C039
:101A60001092B2028091AB028F5F8093AB028091A3
:101A7000AD02837011F48DE101C08CE19091AA0256
:101A8000923041F42091AB0230E090E001962817AB
:101A90003907A1F18091AA028130C1F08091AA0298
:101AA0008330A1F08091AA02853081F08091AA0252
:101AB000873061F08091AA02883041F08091AA02BB
:101AC0008A3021F08091AA028C3021F48091AB02FF
:101AD0008032A1F08091AA02843061F08091AA0244
:101AE000863041F08091AA02893021F08091AA02CB
:101AF0008B30B9F48091AB028F3199F491E09093DF
:101B0000AB028091AA028F5F8093AA028091AA0201
:101B10008D3039F49093AA028091AD028F5F80934B
:101B2000AD0208952F923F924F925F926F927F92F3
:101B30008F929F92AF92BF92CF92DF92EF92FF92DD
:101B40000F931F93DF93CF93CDB7DEB766970FB692
:101B5000F894DEBF0FBECDBFE0913702F0E0EE0F8C
:101B6000FF1FE251FE4F4080518020E001C02F5FF7
:101B7000222E3324F101EE0FFF1FE40DF51D859198
:101B800094910097A1F7882499243E010894611C40
:101B9000711CD4C080913D02F801E80FF11DEE0FD9
:101BA000FF1FE40DF51D85919491E82EF92E80918B
:101BB00037028130A1F480913D029801280F311D38
:101BC0002230310561F48091C9029091CA023FE749
:101BD0008F3F930721F059EFE52E54E0F52E8091C9
:101BE00037028A30D1F58091B802823029F0E1E0E5
:101BF000843019F4E0E001C0E2E080913D029801F8
:101C0000280F311D2330310589F4AE2FB0E0AA0F23
:101C1000BB1FA450B94F8D919C9111973FE78F3F07
:101C2000930721F039ECE32E36E0F32E80913D024C
:101C30009801280F311D2430310579F4F0E0EE0FC2
:101C4000FF1FEF50F94F808191813FE78F3F93074E
:101C500021F099EDE92E96E0F92EAB2CA39480E0CB
:101C60006A2D0E94B12D80E8C82ED12C90913D02A2
:101C700080913A029801290F311D90E02817390709
:101C800011F46FE701C060E081E00E94852C0894A8
:101C9000C108D108C114D10449F784E06A2D0E941B
:101CA000B12DC301B70145E150E00E94FC3A90918B
:101CB0003D0280913A029801290F311D90E061E0C8
:101CC0002817390709F060E0C3010E94992DBB2055
:101CD00091F480913D02882371F18AE76A2D0E9478
:101CE000B12D90913D0280913A0261E0981360E03D
:101CF00080E091E01EC08B2D8630E9F480913D029A
:101D000090E00196800F911F82159305A1F08AE75C
:101D10006A2D0E94B12D90913D0280913A02090FE7
:101D2000111D90E061E00817190709F060E082E0FA
:101D300091E00E94992D0894811C911CB82C082DCB
:101D400010E027E08216910449F080913D0298014D
:101D5000280F311D221533050CF41CCF66960FB6E3
:101D6000F894DEBF0FBECDBFCF91DF911F910F91D1
:101D7000FF90EF90DF90CF90BF90AF909F908F90AB
:101D80007F906F905F904F903F902F90089581E0EB
:101D90000E944E2C80913A028F5F80933A0280918C
:101DA0003A02873019F58FB7F8949091BE0290935C
:101DB000AC029091C4029093B3029091CE029093A2
:101DC000B2029091CD029093AB029091BC0290939D
:101DD000AA029091BB029093AD028FBF88E08093DE
:101DE00037021092390281E0809333020895909176
:101DF000BB02937011F49DE101C09CE12091BC02F3
:101E0000213049F12091BC02233029F12091BC02FC
:101E1000253009F12091BC022730E9F02091BC0265
:101E20002830C9F02091BC022A30A9F02091BC02D0
:101E30002C3089F02091BC02243079F02091BC0232
:101E4000263059F02091BC02293039F02091BC0293
:101E50002B3021F402C09FE101C09EE13091CE02FF
:101E600020913A02233009F450C0243030F421305C
:101E700051F1223008F043C00AC0253009F484C073
:101E8000253008F467C0263009F0B7C097C090919C
:101E9000BC02980F9093BC028091BC028150813F9C
:101EA00020F08091BC02845F0BC08091BC02815005
:101EB0008C3020F08091BC028C5002C08091BC021A
:101EC0008093BC0208952091CD02280F2093CD026B
:101ED0008091CD028150813F20F08091CD02890F09
:101EE0000BC08091CD028150891720F08091CD02E6
:101EF000891B02C08091CD028093CD0208959091FC
:101F0000BB02980F9093BB0208959091CE02980F58
:101F10009093CE023C3048F08091CE028C50813FAD
:101F200040F48091CE028C500AC08091CE02813F55
:101F300020F08091CE02845F0AC08091CE028C3066
:101F400020F08091CE028C5002C08091CE0280930E
:101F5000CE0208959091C402980F9093C40280918C
:101F6000C402813F20F08091C402845C0AC0809149
:101F7000C4028C3320F08091C4028C5302C0809143
:101F8000C4028093C40208959091BE02980F90936A
:101F9000BE028091BE02813F20F08091BE02845C2F
:101FA0000AC08091BE028C3320F08091BE028C5317
:101FB00002C08091BE028093BE020895813021F458
:101FC0008091CE02845F03C08091CE028C508093BA
:101FD000CE028091CE02813F20F08091CE02885EB9
:101FE0000AC08091CE02883120F08091CE028851C3
:101FF00002C08091CE028093CE020895E091370214
:10200000E093B8027093C1026093C0029093C30240
:102010008093C2025093C8024093C7023093CC020F
:102020002093CB021092BA021092B9028CE08093F6
:1020300037020895EF92FF920F931F9381E00E9461
:102040004E2C8091B802883051F480913A0282304F
:1020500009F0BDC08091C7028093BD02B8C0813035
:1020600009F05EC080913A02813021F0823009F09F
:10207000AEC04DC06091D5027091D6028091D7025A
:102080009091D8020E94DD377B018C016091C702DC
:102090007091C802882777FD8095982F0E94DD37C0
:1020A0002FEB3EE04CE95EE30E9469389B01AC01F6
:1020B000C801B7010E94DC096093A4027093A502D5
:1020C0008093A6029093A7026091D5027091D602E8
:1020D0008091D7029091D8020E94DD370E94B50905
:1020E00028E439EF41E550E40E9469386093DB024F
:1020F0007093DC028093DD029093DE028091C70230
:102100009091C8029093E0028093DF0260C08091BA
:10211000C7029091C8029093CA028093C90257C027
:102120008091BF028230D1F480913A02833019F05D
:10213000843091F409C08091C7029091C8029093B5
:1021400001078093000708C08091C7029091C802E0
:102150009093F6068093F50682E037C08430D1F480
:1021600080913A02833019F0843091F409C0809153
:10217000C7029091C8029093FD068093FC0608C0A8
:102180008091C7029091C8029093F2068093F10665
:1021900084E01BC08630D9F480913A02833019F074
:1021A000843091F409C08091C7029091C802909345
:1021B000FF068093FE0608C08091C7029091C80276
:1021C0009093F4068093F30686E08093B8028091A2
:1021D000B802809337021092390281E08093330273
:1021E0001F910F91FF90EF900895282F30E04091BC
:1021F000C7025091C80287FD07C0240F351F3093D6
:10220000C8022093C70209C0CA0180509140820FC2
:10221000931F9093C8028093C7028091C20290914D
:10222000C3022091C7023091C8022817390724F44D
:102230009093C8028093C7028091C0029091C1021E
:102240002091C7023091C8028217930724F490931B
:10225000C8028093C7028091B802883089F48091C7
:102260003A02843069F48091C7028093FB0680E0D3
:1022700061E80E94852C6091FB0680E00E94852C1D
:102280000895209137022093B8029093B70280936B
:10229000B6027093B5026093B4025093C6024093A5
:1022A000C50210923C028DE0809337020895909110
:1022B0003C0281E0891B80933C02089580913702A3
:1022C000883009F060C080913A02833009F44EC032
:1022D000843030F4813061F0823009F000C229C0CE
:1022E0008730D9F18830C9F1843009F0F8C12BC0AA
:1022F0008BE08093370210923A028FB7F894909156
:10230000AC029093BE029091B3029093C40290915C
:10231000B2029093CE029091AB029093CD02909135
:10232000AA029093BC029091AD029093BB028FBF22
:1023300008954091BD0280E090E068E770E050E0D1
:1023400024E031E0A5C14091FB0680E090E06FEF12
:1023500070E050E026E031E09BC187E091E065E16C
:1023600071E048E151E00E944111089586E091E05A
:102370006CE171E04FE151E00E9441119091270220
:1023800081E0891BFDC020913702213009F055C042
:1023900080913A02813021F0823009F0A0C122C040
:1023A0006091DB027091DC028091DD029091DE028F
:1023B00020E030E040E05FE30E94DE360E94AA3772
:1023C0009B01AC0188E19CEF68E97AE3A90123E273
:1023D00031E00E94FE0F86E291E09093BA02809372
:1023E000B90208958091C9029091CA023FE78F3FD8
:1023F000930759F08FEF9FE79093CA028093C90229
:10240000109239022093330208956091DB0270919B
:10241000DC028091DD029091DE0220E030E040E0BD
:102420005FE30E94DE360E94AA379B01AC0188E17F
:102430009CEF68E97AE3A90129C1809137028823DA
:1024400049F580913A028150863008F048C181E018
:102450000E944E2C809137028093B80280913A02FC
:1024600080933B0289E080933702E0913A02F0E0EA
:10247000E253FD4F808180933A0280913A02853089
:1024800030F080913A02845080933D0218C110923E
:102490003D0215C180913702893001F5E0913B0280
:1024A000F0E080913A02E253FD4F80838091B802C0
:1024B0008093370280913B0280933A0280913A02E6
:1024C000853030F080913A02845080933D0202C002
:1024D00010923D0281E080933902F2C08091370270
:1024E0008730A9F480913A02813039F0823009F0C6
:1024F000F6C081E08093350227C0809139028F5F5A
:102500008093390210923D0210923A020895809110
:1025100037028A3009F0E3C02091B8022093BF024D
:1025200080913A02823099F0833020F4813009F0B2
:10253000D6C006C0833039F1843009F0D0C071C0F4
:1025400080933E022093370210923902B9C086E090
:1025500091E06CE371E042E451E00E94411180910E
:10256000BF02843019F4809102070AC0823019F446
:102570008091040705C0863009F0B1C0809103073F
:1025800080933C0208952430C9F48091FC06909118
:10259000FD062FE78F3F920761F08FEF9FE7909343
:1025A000FD068093FC061092390284E08093370286
:1025B00086C04091F7065091F80648C02230A1F439
:1025C00080910007909101073FE78F3F930739F013
:1025D0008FEF9FE790930107809300076CC04091B5
:1025E000F7065091F8064EC0263009F078C0809169
:1025F000FE069091FF063FE78F3F930739F08FEF7C
:102600009FE79093FF068093FE0655C04091F70622
:102610005091F80685E090E065E270E02CE431E04E
:1026200037C02430D1F48091F1069091F2063FE753
:102630008F3F930739F08FEF9FE79093F2068093D7
:10264000F10639C04091F9065091FA0686EF9FEFE6
:1026500066E770E029E431E01BC02230E1F48091AC
:10266000F5069091F6063FE78F3F930739F08FEF1D
:102670009FE79093F6068093F5061DC04091F906FA
:102680005091FA0688E99AEF68E97AE323E231E0AB
:102690000E94FE0F0895263011F58091F306909167
:1026A000F4063FE78F3F930771F08FEF9FE790931A
:1026B000F4068093F306109239022093370281E0EA
:1026C0008093330208954091F9065091FA0685E00F
:1026D00090E065E270E02CE431E00E94FE0F089586
:1026E000E0913702F0E0EE0FFF1FE251FE4F208134
:1026F000318190E001C09F5FE92FF0E0EE0FFF1FF6
:10270000E20FF31F4591549141155105A1F7209116
:102710003A02280F20933A0280913A02891719F45D
:1027200010923A0207C080913A028F3F19F49150FB
:1027300090933A0290913A0280913D02981728F4C2
:1027400080913A0280933D02089520913A0280914F
:102750003D0230E090E00696821793072CF48091BA
:102760003A02865080933D02089584E18093BD0231
:102770008FEF9FE79093CA028093C90282E0809313
:10278000CF0281E08093D0028DE08093D1028CE073
:102790008093D20283E08093D30288E08093D402B6
:1027A00008951F9381E00E944E2C8091B8028830DA
:1027B00041F580913A02873061F0883019F083301A
:1027C000C1F518C080913C02813099F580933402A4
:1027D00030C010913C02113061F50E94EC2D0E9436
:1027E000B513109327020E941A071092E00210926C
:1027F000DF021FC090913C0281E0891B8093270279
:1028000018C08091BF02823029F490913C029093CD
:1028100004070DC0843029F490913C029093020784
:1028200006C0863031F490913C0290930307809368
:10283000B8028091B802809337021092390281E089
:10284000809333021F910895EF92FF920F931F938D
:10285000CF93DF9380E00E94DF27682F6B506138B1
:1028600008F0605880E00E94F127FC018281869583
:10287000869586959381292F2295220F207EE22E20
:10288000E82AE7017E01969596959695F92EE7013F
:102890002097E1F16091DB027091DC028091DD0212
:1028A0009091DE0220E030E048EC52E40E9469386A
:1028B0000E94AA377B018C0180EA9CE1A2E0B0E093
:1028C000E80EF91E0A1F1B1FBE0180E090E028ECF5
:1028D00030E040E050E00E94313AE61AF70A080B77
:1028E000190BC801B7012AE030E040E050E00E9437
:1028F000A53A2E5C3F4F4F4F5F4FCA01B90124E606
:1029000030E040E050E00E94A53A04C02FEF3FEFD6
:102910004FEF5FE7B901CA01DF91CF911F910F918E
:10292000FF90EF9008950F931F9380E00E94DF27A0
:10293000682F6D53613808F0605880E00E94F127DD
:10294000FC012081222399F130E040E050E0DA01DF
:10295000C90172E0880F991FAA1FBB1F7A95D1F792
:10296000820F931FA41FB51F04E610E020E030E0A3
:10297000081B190B2A0B3B0B4091D9025091DA022C
:10298000CA0163E0880F991F6A95E1F7840F951FCC
:1029900065E070E00E94703A605C7E4F882777FDAA
:1029A0008095982F060F171F281F391F04C00FEF9F
:1029B0001FEF2FEF3FE7B801C9011F910F91089555
:1029C000EF92FF920F931F9380E00E94DF27682F02
:1029D0006D53613808F0605880E00E94F127FC01D7
:1029E00061818281782F777061157105E9F0E0903F
:1029F000D502F090D6020091D7021091D80280EE55
:102A000091EBAFEFBFEFE80EF91E0A1F1B1F80E02E
:102A100090E022E330E040E050E00E94313AE61AD4
:102A2000F70A080B190B08C0EFEFEE2EEFEFFE2EA2
:102A3000EFEF0E2FEFE71E2FB701C8011F910F9187
:102A4000FF90EF900895EF92FF920F931F9381E014
:102A50000E94DF27682F6C54613808F0605881E0CD
:102A60000E94F127FC0161818281782F77706115C6
:102A7000710529F1E090D502F090D6020091D702BD
:102A80001091D80280EE91EBAFEFBFEFE80EF91E88
:102A90000A1F1B1F80E090E022E330E040E050E09E
:102AA0000E94313AE61AF70A080B190BC801B70160
:102AB00025E030E040E050E00E94A53A04C02FEF4E
:102AC0003FEF4FEF5FE7B901CA011F910F91FF90F0
:102AD000EF9008956F3F2FEF72072FEF82072FE7D8
:102AE0009207D9F1693C71058105910574F5693743
:102AF0007105810591055CF56633710581059105C8
:102B000044F516161706180619062CF161157105FD
:102B10008105910511F16B3C2FEF72072FEF8207B2
:102B20002FEF9207E4F468382FEF72072FEF820738
:102B30002FEF9207B4F468332FEF72072FEF82075D
:102B40002FEF920784F087E0089580E0089581E0F8
:102B5000089582E0089583E0089584E0089585E073
:102B6000089586E0089588E008956F927F928F928D
:102B70009F92AF92BF92CF92DF92EF92FF920F930C
:102B80001F93DF93CF93CDB7DEB728970FB6F89496
:102B9000DEBF0FBECDBF7C01673009F4FFC26830D5
:102BA00090F4633009F402C1643030F4613019F1FB
:102BB000623009F055C346C0653009F464C0663020
:102BC00008F09BC031C16A3009F422C26B3038F47E
:102BD000683009F4ECC2693009F042C3C3C16C30FB
:102BE00009F4FDC26C3008F426C26D3009F038C318
:102BF000DC011C9249C32091D9023091DA02C9014B
:102C0000B3E0880F991FBA95E1F7820F931F65E033
:102C100070E00E94703A605C7E4F882777FD809557
:102C2000982F0E94DD3720E030E040E251E40E941E
:102C3000423741E021E087010E94C03AC7016FE4BA
:102C400071E0CAC26091DB027091DC028091DD020A
:102C50009091DE0220E030E048EC52E40E946938B6
:102C60000E94AA370E94DD3720E030E048EC52E4B1
:102C70000E94423741E022E087010E94C03AC7012A
:102C800062E571E0A9C26091D5027091D60280918F
:102C9000D7029091D80229E83BE040E050E00E9442
:102CA000313A5B016C01C7016FE479E00E94F53AAB
:102CB000D7010D900020E9F78D01015010400E1949
:102CC0001F09C601B50120EA36E841E050E00E9444
:102CD000A53ACA01B9010E94DD3720E030E048EC96
:102CE00052E40E9442370E0D1F1D41E022E00E9477
:102CF000C03AC7016BE479E0B0C20091DF021091E5
:102D0000E0026091D5027091D6028091D702909135
:102D1000D8020E94DD375B016C01B801882777FD7E
:102D20008095982F0E94DD372FEB3EE04CE95EE363
:102D30000E9469389B01AC01C601B5010E94DC0903
:102D400020E030E948E355E40E9469380E94AA3740
:102D50006B01682EA92EC7016EE379E00E94F53A57
:102D6000D7010D900020E9F78D01015010400E1998
:102D70001F09B601862D9A2D20EA36E841E050E081
:102D80000E94A53ACA01B9010E94DD3720E030E077
:102D900048EC52E40E9442370E0D1F1D41E022E034
:102DA0000E94C03AC7016AE379E057C20E94241426
:102DB0005B016C0197FD0FC0C7016FE279E00E94D3
:102DC000F53ABFEFAB16BFEFBB06BFEFCB06BFE7D1
:102DD000DB0631F420C0C70163E279E00E94F53AD6
:102DE000D7010D900020E9F7AD01415050404E1938
:102DF0005F09C601B501D7FE07C090958095709513
:102E000061957F4F8F4F9F4F4E0D5F1D2AE030E041
:102E10000E943E3B05C0C7016FE179E00E94EA3A9B
:102E2000C70167E179E019C20E9424143B014C01FB
:102E3000C70169E079E00E94F53AA090C902B0901C
:102E4000CA026091DB027091DC028091DD029091F8
:102E5000DE02BFEF6B16BFEF7B06BFEF8B06BFE74F
:102E60009B0681F12091C9023091CA02EFE72F3F02
:102E70003E0741F1CC24B7FCC094DC2C0E94AA3759
:102E8000A61AB70AC80AD90AC401B30122E030E081
:102E900040E050E00E94A53AA20EB31EC41ED51E0B
:102EA000C601B501A40193010E94A53A59016A0126
:102EB00057FD08C02438F9E03F07F0E04F07F0E085
:102EC0005F0724F0C70163E079E0C7C128E5A216D7
:102ED00022E0B20620E0C20620E0D2062CF4C701B0
:102EE00061E079E00E94EA3AD7010D900020E9F70D
:102EF0008D01015010400E191F09C601B5012CE3C8
:102F000030E040E050E00E94A53A5B016C010E0DFC
:102F10001F1DCA01B901A8012AE030E00E943E3B12
:102F2000C7016FEF78E00E94EA3ABAE0AB16B1044D
:102F3000C104D1042CF4C7016DEF78E00E94EA3A95
:102F4000D7010D900020E9F7AD01415050404E19D6
:102F50005F094E0D5F1DC601B5012AE030E00E94F9
:102F60003E3B92C167EF78E00E94F53A0E949314CD
:102F70006734710581059105ACF5693271058105EC
:102F800091050CF073C16B307105810591050CF052
:102F90006FC116161706180619060CF46BC16115D9
:102FA00071058105910509F467C1663FBFEF7B0795
:102FB000BFEF8B07BFEF9B070CF060C1683DEFEFE1
:102FC0007E07EFEF8E07EFEF9E070CF059C16A3BCB
:102FD000FFEF7F07FFEF8F07FFEF9F070CF052C156
:102FE000E8E009C06F3F2FEF72072FEF82072FE74E
:102FF000920749F0E0E0F0E0EE0FFF1FE05BF84FD2
:103000002591349115C0E8E5F7E02591349110C081
:103010006DEE78E00E94F53A0E94E0140E946A1575
:1030200090E0880F991F805B984FFC0125913491A7
:10303000C701B90112C163EE78E00E94F53A0E941F
:10304000E0145B016C010E946A15182F0E94231581
:103050003B014C010E946A15082F4FEFA4164FEF59
:10306000B4064FEFC4064FE7D40649F08FEF681659
:103070008FEF78068FEF88068FE7980621F4C70157
:1030800067ED78E0EAC0812F8750823030F4063057
:1030900060F4C7016AEC78E0E0C0153031F4053027
:1030A00021F4C70160EC78E0D8C0912F95509230A0
:1030B00040F4802F8550823060F4C70163EB78E0E4
:1030C000CCC0173030F0063020F0C70167EA78E056
:1030D000C4C0812F8250823040F4202F22502230F1
:1030E00090F4C7016AE978E0B8C0123030F40230D9
:1030F00050F0C70161E978E0B0C0183021F4C70191
:1031000065E878E0AAC0173021F4C7016EE778E0DF
:10311000A4C0923020F4C70169E778E09EC0143063
:1031200021F4C7016FE678E098C0823020F4C7012F
:103130006AE678E092C0123020F4C7016FE578E0CB
:103140008CC0C7016AE578E00E94EA3AD7010D9089
:103150000020E9F7BD01615070406E197F096E0DC6
:103160007F1D812F90E04AE050E00E941D3BC70187
:1031700068E578E00E94EA3AD7010D900020E9F76F
:10318000BD01615070406E197F096E0D7F1D802F4B
:1031900090E04AE050E00E941D3B76C06091B20290
:1031A0004091B3022091AC020E94F60A6DC060917A
:1031B000AB024091AA020E94580AC70166E578E076
:1031C0000E94EA3A6091B2024091B302CE010196A8
:1031D0000E94900ABC01C7010E940B3B55C06BE4E2
:1031E00078E00E94F53A0E946C2BF70101900020D4
:1031F000E9F73197EE19FF096CE370E00E945C3A41
:103200008C01EE0DFF1DCB01BF014AE050E00E9492
:103210001D3BC70169E478E00E94EA3A0A301105D3
:1032200028F4C70167E478E00E94EA3AD7010D90DC
:103230000020E9F7BD01615070406E197F096E0DE5
:103240007F1DC8014AE050E00E941D3B0E94722B86
:103250008823D1F0C70165E478E00E94EA3A14C0FF
:10326000C70167E378E00E94F53A0EC0E1E0C3CE03
:10327000E2E0C1CEE3E0BFCEE4E0BDCEE5E0BBCE10
:10328000E6E0B9CEE7E0B7CE28960FB6F894DEBFF9
:103290000FBECDBFCF91DF911F910F91FF90EF90A7
:1032A000DF90CF90BF90AF909F908F907F906F9066
:1032B0000895AF92BF92CF92DF92FF920F931F9328
:1032C000DF93CF930F92CDB7DEB75C01CB01BA018C
:1032D0002CE330E040E050E00E94833AF62ECA0131
:1032E000B90128E130E040E050E00E94833A162F17
:1032F000CA01B90105E096958795779567950A9576
:10330000D1F7022F0F712DE030E040E050E00E9435
:10331000833A462FC501602F29830E94580AC501B0
:1033200065E378E00E94EA3AD5010D900020E9F7C4
:10333000BD01615070406A197B092981822F90E09C
:103340006A0D7B1D8053984F4AE050E00E941D3B60
:10335000C50163E378E00E94EA3AD5010D900020B0
:10336000E9F7CD0101978A199B098A0D9B1D612FF1
:103370004F2D0E94900A0F90CF91DF911F910F91D6
:10338000FF90DF90CF90BF90AF900895EF92FF92A3
:103390000F931F93CF93DF93EC018B01DB01129608
:1033A0008C91129786958695869513969C91292FD8
:1033B0002295220F207E422F482B592F5695569545
:1033C0005695445B5240CE0162E00E94D92ACE015C
:1033D0006FE278E00E94EA3A7E01EC2FFF2DDF01D8
:1033E0000D900020E9F7CD0101978E1B9F0BF8018E
:1033F000408150E0445150408C0F9D1F60E00E947E
:10340000D92ACE016CE278E00E94EA3AEC2FFF2D37
:10341000DF010D900020E9F7CD0101978E1B9F0B76
:10342000F80141812281522F577040575E4F8C0F17
:103430009D1F61E00E94D92ADF91CF911F910F91CA
:10344000FF90EF9008952F923F924F925F926F926C
:103450007F928F929F92BF92CF92DF92EF92FF92D4
:103460000F931F93DF93CF93CDB7DEB766970FB659
:10347000F894DEBF0FBECDBF0E94F029482E552420
:103480000E94202AFC0180819181A281B381009752
:10349000A105B10551F480E062E00E94B12D86E5FE
:1034A00091E060E00E94992D48C10E94552A00E0F9
:1034B00010E06E010894C11CD11C282E3324B02EBC
:1034C000B39480E06B2D0E94B12D80913D0272017A
:1034D000E81AF108E01AF10AF7FE04C00E94532A24
:1034E000E80EF11C8E2D0E94202AFC016080718064
:1034F00082809380611471048104910409F4E0C016
:1035000090913D0280913A029801290F311D90E07F
:103510002817390711F46FE701C060E081E00E94CD
:10352000852CC7010196B6014AE050E00E941D3B80
:1035300090913D0280913A029801290F311D90E04F
:1035400061E02817390709F060E0C6010E94992D53
:10355000F60101900020E9F77F010894E108F108E5
:10356000EC1890913D0280913A029801290F311D8B
:1035700090E02817390711F46FE501C060E281E09F
:103580000E94852C90913D0280913A029801290F6A
:10359000311D90E02817390711F46FE701C060E092
:1035A00081E00E94852C90913D0280913A02980121
:1035B000290F311D90E02817390711F46FE701C07A
:1035C00060E081E00E94852CC601B401A3010E9445
:1035D000591990913D0280913A029801290F311DAD
:1035E00090E061E02817390709F060E0C6010E9409
:1035F000992DF60101900020E9F73197EC19FD09AA
:10360000FF240894E11CF11CEE0EFF1EEE0CFF1CC3
:10361000EE0CFF1C14C090913D0280913A0298017B
:10362000290F311D90E02817390711F46FE701C009
:1036300060E081E00E94852C0894E11CF11CF0E818
:10364000EF16F10444F30115110591F480913D0248
:10365000882381F180E56B2D0E94B12D90913D0270
:1036600080913A0261E0981360E080E091E020C030
:1036700003301105F9F480913D0290E00496821523
:103680009305C1F080913A028F3FA1F080E56B2D48
:103690000E94B12D80913D0220913A0290E0039664
:1036A00030E061E08217930709F060E082E091E08A
:1036B0000E94992D0F5F1F4F0430110509F0FFCEB6
:1036C00080913A02481A510857FE04C00E94532ABA
:1036D000480E511C842D0E94202A8C0180E065E058
:1036E0000E94B12D81E061E00E94852CB8016C5FE1
:1036F0007F4F8E010F5F1F4FC8010E94C619C8017E
:1037000060E00E94992DF80101900020E9F77F0107
:103710000894E108F108E01AF10AEE0CFF1CEE0C27
:10372000FF1C04C081E061E00E94852C0894E11C2C
:10373000F11CF0E8EF16F104ACF366960FB6F894BE
:10374000DEBF0FBECDBFCF91DF911F910F91FF90D4
:10375000EF90DF90CF90BF909F908F907F906F9071
:103760005F904F903F902F9008951F93182F0E94C5
:10377000552A90913A02910F90933A0290913A0211
:10378000981719F410923A0207C090913A029F3F9D
:1037900019F4815080933A0290913A0280913D024F
:1037A000981718F480913A020DC020913A02809146
:1037B0003D0230E090E00396821793072CF480914D
:1037C0003A02835080933D021F91089581E00E9448
:1037D0004E2C1092390281E0809333020895AF920B
:1037E000BF92CF92DF92EF92FF920F931F93DF93DE
:1037F000CF93CDB7DEB76D970FB6F894DEBF0FBE8F
:10380000CDBF80914102882369F180E060E00E9491
:10381000B12D00E010E0F801E859FE4F649181E01D
:103820000E94852C0F5F1F4F23E00030120799F78D
:1038300080E066E00E94B12D8E01085F1F4FC80135
:1038400068E178E00E94F53AC80160E00E94992D95
:1038500080E067E00E94B12DC80168E078E00E9436
:10386000F53ADEC180913702882309F079C0809152
:103870003902882309F071C000E010E058E0E52E1D
:10388000F12CEC0EFD1EF801E153FD4F6081C701E4
:103890000E94B5151D8EA02E80E0602F0E94B12DD4
:1038A000CC24DD2481E060E00E94852C0894C11CBA
:1038B000D11C80E8C816D104A9F7F70101900020B7
:1038C000E9F73197EE198E2F880F8E0F8195815C65
:1038D0006A2D0E94B12DC70160E00E94992D0F5FF3
:1038E0001F4F0230110579F602E010E048E0E42EA7
:1038F000F12CEC0EFD1EF801E153FD4F6081C70174
:103900000E94B5151D8EA02E80E0602F0E94B12D63
:10391000CC24DD2481E060E00E94852C0894C11C49
:10392000D11C90E8C916D104A9F7F7010190002035
:10393000E9F73197EE198E2F880F8E0F8195815CF4
:103940006A2D0E94B12DC70160E00E94992D0F5F82
:103950001F4F0630110579F68EC684E691E086C6C3
:10396000809137028A3009F040C02091B80224309B
:1039700029F4CE01089663E078E009C0CE010896EC
:10398000263019F46AEF77E002C061EF77E00E9419
:10399000F53A8E01085F1F4FC8016AEE77E00E947A
:1039A000EA3AD8010D900020E9F7CD01E091380204
:1039B000F0E0EE0FFF1FEF5DFD4F608171817695A6
:1039C000762F66277795679501970E94800B8091E7
:1039D000390261E0811160E0C8010E94202E8091CF
:1039E0003902813009F047C644C6809137028830D9
:1039F00009F01BC18091390261E0811160E086E726
:103A000091E00E94202E80913902882309F031C66E
:103A100061E00E94B12D8DE791E060E00E94992D58
:103A20008E01085F1F4FC80161E774E00E94F53AFC
:103A3000C80160E00E94992D88E694E00E94140A73
:103A4000082F8A3028F486E891E060E00E94992DE2
:103A500088E0E82EF12CEC0EFD1E802F90E0B701DF
:103A60004AE050E00E941D3BC70160E00E94992D92
:103A7000C7016CE674E042E050E00E94FC3AC701E6
:103A800060E00E94992DC70164E774E042E050E0D5
:103A90000E94FC3AC70160E00E94992DC70167E7C8
:103AA00074E042E050E00E94FC3AC70160E00E94EE
:103AB000992D0E944B065B016C0185E090E0A0E02F
:103AC000B0E0A80EB91ECA1EDB1EC70161EE77E08A
:103AD0000E94F53AD7010D900020E9F78D010150C1
:103AE00010400E191F09C601B5012AE030E040E080
:103AF00050E00E94A53ACA01B9010E94DD3720E0DA
:103B000030E048EC52E40E9442370E0D1F1D41E0A8
:103B100022E00E94C03AC7016FED77E00E94EA3AC6
:103B200080E062E00E94B12DC70160E00E94992D03
:103B300080E063E00E94B12DC70165ED77E00E944F
:103B4000F53A8091FB06F70101900020E9F7BF01EB
:103B50006150704090E04AE050E00E941D3BC70178
:103B600060E00E94992D80E064E00E94B12DC701C1
:103B70006EEC77E00E94F53A80912702882321F0CD
:103B8000C7016BEC77E003C0C70167EC77E00E94E8
:103B9000EA3A8E01085F1F4FC80160E00E94992D2C
:103BA0006091AB024091AA02C8010E94580A80E0CD
:103BB00065E00E94B12DC80160E00E94992DC80106
:103BC00065EC77E00E94F53A8091AD02D8010D9046
:103BD0000020E9F7BD0190E0615070408053984F9C
:103BE0004AE050E00E941D3BC80160E00E94992D10
:103BF0006091B2024091B3022091AC02C8010E94D0
:103C0000F60AF80101900020E9F73197E01BF10B6B
:103C10008AEFE89F802D1124805865E00E94B12D25
:103C2000C80160E00E94992D26C580913702873037
:103C300009F068C08091390261E0811160E088E894
:103C400091E00E94202E80913902882309F04DC016
:103C50000E94F029C82E0E94202A7C01FC012081AC
:103C6000318142815381211531054105510539F4D6
:103C700080E062E00E94B12D82E991E0D2CF8E0116
:103C8000085F1F4FC8016BEB77E00E94F53AD8013F
:103C90000D900020E9F7BD018C2D90E0615070403F
:103CA00001964AE050E00E941D3B80E062E00E94E5
:103CB000B12DC80160E00E94992DF7014191519109
:103CC000619171917F01C8010E94591980E063E000
:103CD0000E94B12DC80160E00E94992DC801B70172
:103CE0000E94C61980E064E099CF8091390281304A
:103CF00009F4BFC480913902823009F0BCC40E942B
:103D0000231AB9C480913702843041F4809138027B
:103D100040913F0220913E0260E017C0809137023F
:103D2000863041F48091380240913F0220913E025A
:103D300061E00BC080913702823051F480913802EB
:103D400040913F0220913E0262E00E948C2F93C47A
:103D5000809137028B3009F055C182EA91E060E032
:103D60000E94202E80E162E00E94B12D18E0E12E39
:103D7000F12CEC0EFD1EC70169EB77E00E94F53ACD
:103D80004091BC028E010F5F1F4FC80161E00E948D
:103D9000580A1C82C701B8010E940B3BC70167EBA0
:103DA00077E00E94EA3A80913A0261E0811160E096
:103DB000C7010E94992D8E01085F1F4FC80165EB56
:103DC00077E00E94F53A8091CD028A3028F4C8014C
:103DD00063EB77E00E94EA3A8091CD028E01085FA2
:103DE0001F4FD8010D900020E9F7BD0161507040D0
:103DF00090E04AE050E00E941D3BC80161EB77E093
:103E00000E94EA3A80913A0261E0813009F060E074
:103E1000C8010E94992D8E01085F1F4FC8016FEAEB
:103E200077E00E94F53A8091BB02F80101900020F2
:103E3000E9F7BF0190E0615070408053984F4AE02D
:103E400050E00E941D3BC8016DEA77E00E94EA3A0B
:103E500080913A0261E0823009F060E0C8010E947E
:103E6000992D88E064E00E94B12D8091CE028823D4
:103E700059F08091CE028C3039F08091CE026CE006
:103E80000E94503AE92E02C0BCE0EB2E8E01085F82
:103E90001F4FC8016BEA77E00E94F53AFE2DFA3019
:103EA00028F4C80169EA77E00E94EA3A8E01085FC7
:103EB0001F4FD8010D900020E9F7BD0161507040FF
:103EC0008E2D90E04AE050E00E941D3BC80167EA59
:103ED00077E00E94EA3A80913A0261E0833009F08B
:103EE00060E0C8010E94992D80EB91E060E00E94A3
:103EF000992D8E01085F1F4FC80165EA77E00E9487
:103F0000F53A8091C4028A3028F4C80163EA77E068
:103F10000E94EA3A8091C4028E01085F1F4FF801A7
:103F200001900020E9F7BF016150704090E04AE045
:103F300050E00E941D3BC80161EA77E00E94EA3A26
:103F400080913A0261E0843009F060E0C8010E948B
:103F5000992D80EB91E060E00E94992D8E01085F21
:103F60001F4FC8016FE977E00E94F53A8091BE02C9
:103F70008A3028F4C8016DE977E00E94EA3A80911E
:103F8000BE028E01085F1F4FD8010D900020E9F797
:103F9000BD016150704090E04AE050E00E941D3B3E
:103FA000C8016BE977E00E94EA3A80913A0261E049
:103FB000853009F060E0C8010E94992D8E01085FEC
:103FC0001F4FC80169E977E00E94F53A8091CE025F
:103FD0008C3020F4C80166E977E003C0C80163E9CA
:103FE00077E00E94EA3A8E01085F1F4FC80161E93D
:103FF00077E00E94EA3A80913A0261E0863009F067
:104000006BC16BC1809137028C3009F0C6C08091C2
:104010003A02E091B802F0E0EE0FFF1FE251FE4FCE
:1040200090E0880F991F0190F081E02DE80FF91FB3
:10403000259134918E01085F1F4FC801B9010E947C
:10404000F53AC80160E00E94202E2091B90230911B
:10405000BA0221153105D1F0C901F9010190002002
:10406000E9F731978E1B9F0B880F991F880F991FB7
:104070008C5A9F4F9695879562E00E94B12D809152
:10408000B9029091BA0260E00E94992D6091C0023D
:104090007091C102AA24A3942AE030E005C0A39441
:1040A000CB01B9010E94703A6A307105C4F782E110
:1040B00090E08A19910962E070E00E94703A862FC0
:1040C000880F880F2091B9023091BA02211531056D
:1040D00011F064E001C063E00E94B12D2091C7029D
:1040E0003091C802CE01089637FF03C06FE877E031
:1040F00002C06DE877E00E94F53AE090C702F090C8
:10410000C802F7FE04C0F094E194F108F3940AE0C9
:1041100010E048E0C42ED12CCC0EDD1E13C0E016FA
:10412000F1062CF4C6016BE877E00E94EA3AC80178
:10413000880F991F23E0000F111F2A95E1F7080F40
:10414000191FAA94BA2DB23050F78E01085F1F4F85
:10415000F80101900020E9F7BF0161507040C701EC
:104160004AE050E00E941D3BC80169E877E00E94E8
:10417000EA3AC80161E00E94992D8091CB029091AA
:10418000CC02DC012C91222309F475C261E00E946B
:10419000992D82EB91E061E045CD809137028D3021
:1041A00009F09DC080913A02E091B802F0E0EE0F74
:1041B000FF1FE251FE4F90E0880F991F0190F081A0
:1041C000E02DE80FF91F259134918E01085F1F4FF4
:1041D000C801B9010E94F53AC80160E00E94202E92
:1041E000E091B602F091B70280818823C9F0CF0137
:1041F00001900020E9F731978E1B9F0B880F991FC4
:10420000880F991F8C5A9F4F9695879562E00E9460
:10421000B12D8091B6029091B70260E00E94992D75
:10422000E091B402F091B502DF010D900020E9F7B2
:1042300011978E2F8A1B880F880F845EA091B6027B
:10424000B091B7029C91992311F064E001C063E042
:104250000E94B12D8E01085F1F4FC80167E877E00B
:104260000E94F53A6091B4027091B502C8010E94B3
:104270000B3BC80165E877E00E94EA3A80913C0276
:1042800061E0811160E0C8010E94992DE091B602C1
:10429000F091B7028081882311F064E001C063E0EF
:1042A0008CE20E94B12D8E01085F1F4FC80163E8A8
:1042B00077E00E94F53A6091C5027091C602C8018C
:1042C0000E940B3BC80161E877E00E94EA3A8091C6
:1042D0003C0261E0813009F060E0C801A3CC80912C
:1042E0003702813009F064C08091390261E08111A8
:1042F00060E084EB91E00E94202E809139028823B7
:1043000009F0B7C18E01085F1F4FC80162E00E942B
:10431000B51580E061E00E94B12DC80160E00E9407
:10432000992DC80163E00E94B51580E062E00E940B
:10433000B12DC80160E00E94992D8091C902909131
:10434000CA02BFE78F3F9B0709F180E064E00E944B
:10435000B12DC80164E777E00E94F53A8091C90267
:104360009091CA02F80101900020E9F7BF01615065
:1043700070404AE050E00E941D3BC8016FE677E0C4
:104380000E94EA3AC80160E00E94992D8091C9021A
:104390009091CA02FFE78F3F9F0709F46CC18E011D
:1043A000085F1F4FC80164E00E94B51580E035CC5E
:1043B00080913702833009F081C08091390261E039
:1043C000811160E08DEB91E00E94202E80913902F6
:1043D000882309F04EC161E00E94B12D8E01085F73
:1043E0001F4FC80161E00E94B515C80160E00E943E
:1043F000992D80E062E00E94B12D89EC91E060E0AF
:104400000E94992D0E9493146B017C016F3F2FEF46
:1044100072072FEF82072FE7920731F4C8016BE68E
:1044200077E00E94F53A27C097FD06C0C80169E60B
:1044300077E00E94F53A01C0188658E0A52EB12C0D
:10444000AC0EBD1ED5010D900020E9F78D01015085
:1044500010400A191B09C701B6010E94DD3720E090
:1044600030E040E251E40E9442370A0D1B1D41E05A
:1044700021E00E94C03ACE01089660E00E94992D8A
:1044800080ED91E060E00E94992D80E063E00E9461
:10449000B12D00E010E081E060E00E94852C0F5F0C
:1044A0001F4F00381105B9F780E063E00E94B12D7D
:1044B0008E01085F1F4FC80169E0B6C080913702C6
:1044C000853009F0B4C08091390261E0811160E06B
:1044D00087ED91E00E94202E80913902882309F017
:1044E000C8C061E00E94B12D8E01085F1F4FC80156
:1044F00065E00E94B515C80160E00E94992D80E03A
:1045000062E00E94B12D0E94E0146F3FBFEF7B0775
:10451000BFEF8B07BFE79B0731F4C80164E677E084
:104520000E94F53A35C029E83BE040E050E00E94A7
:10453000313A20EA36E841E050E00E94A53A5901BC
:104540006A0157FD06C0C80162E677E00E94F53AAD
:1045500001C0188648E0E42EF12CEC0EFD1EF70198
:1045600001900020E9F78F01015010400E191F093A
:10457000C601B5010E94DD3720E030E048EC52E48E
:104580000E9442370E0D1F1D41E022E00E94C03AFA
:10459000CE01089660E00E94992D80EE91E060E0E7
:1045A0000E94992D80E063E00E94B12D00E010E0B0
:1045B00081E060E00E94852C0F5F1F4F00381105DD
:1045C000B9F780E063E00E94B12D8E01085F1F4FB4
:1045D000C8016AE00E94B515C80160E00E94992DEB
:1045E00080E064E00E94B12DC80166E00E94B5152C
:1045F000C80160E00E94992D80E065E00E94B12D25
:1046000000E010E081E060E00E94852C0F5F1F4F0A
:1046100000381105B9F780E065E00E94B12D8E01E8
:10462000085F1F4FC8016BE00E94B515F9CA809161
:104630003702893001F580913B02E091B802F0E049
:10464000EE0FFF1FE251FE4F90E0880F991F01907F
:10465000F081E02DE80FF91F259134918E01085F5C
:104660001F4FC801B9010E94F53AC80160E00E94DD
:10467000202E0E94920D6D960FB6F894DEBF0FBEED
:10468000CDBFCF91DF911F910F91FF90EF90DF9001
:10469000CF90BF90AF9008958F929F92AF92BF92AC
:1046A000CF92DF92EF92FF920F931F93DF93CF93FE
:1046B000CDB7DEB765970FB6F894DEBF0FBECDBF9E
:1046C00085B1876085B90E94EC2D0E94122E80E092
:1046D0000E94152E8FE39CE90197F1F700C00000BE
:1046E0000E94BF0C80E00E946C2A0E94F22B0E9464
:1046F000B5130E94612B7894CC248E010F5F1F4F5D
:104700000E94270780913202882309F43FC080E08D
:1047100061E00E94B12DC80163E679E00E94F53A9C
:1047200080913202D8010D900020E9F7BD0161505F
:10473000704090E04AE050E00E941D3BC80160E0FC
:104740000E94992D80E062E00E94B12DC8016CE5C5
:1047500079E00E94F53AF80101900020E9F7BF01E5
:10476000615070408C2D90E04AE050E00E941D3B6B
:10477000C80160E00E94992D8FEF93EDA0E3815076
:104780009040A040E1F700C00000C3948091320245
:10479000882309F0B5CF8091B60080628093B6007F
:1047A0008091B6008F7B8093B6001092B00083E0BA
:1047B0008093B1008091B60090E08F709070009768
:1047C000C9F7AFE1BEE41197F1F700C0000081E046
:1047D00087BB8093700090916B00976090936B0003
:1047E00090916800916090936800909164009F6A36
:1047F000909364008093EC01882483948091360226
:10480000882359F0109236020E94EC2D0E94122E3D
:1048100080E00E94152E8092ED0180913402882361
:1048200059F01092340280E060E00E94B12D0E94A5
:10483000122E81E00E946C2A8091EC01882311F0F5
:104840000E94752B8091EC01882329F48091350218
:10485000882309F467C0809164008F778093640097
:104860000E948E070E9414085C010E94AF070E94FC
:1048700070086B017C018091640080688093640003
:104880008091EC01882329F0C501B701A6010E949F
:10489000012980913502882309F440C09FB6F8941D
:1048A0006091AD0270E080E090E02DE030E040E00B
:1048B00050E00E94313A2091AA02620F711D811DC1
:1048C000911DE5E0660F771F881F991FEA95D1F7C4
:1048D0002091AB02620F711D811D911D28E130E016
:1048E00040E050E00E94313A2091B202620F711D07
:1048F000811D911D2CE330E040E050E00E94313AF0
:104900008B019C018091B3029FBE080F111D211DD8
:10491000311DC501B701A6010E9486291092EC0144
:104920001092350280913302882321F010923302D5
:104930000E94122E8091ED018823A1F01092ED01CA
:104940000E94EF1B0FC080914D02882359F483B75A
:10495000817F866083BF83B7816083BF889583B77B
:104960008E7F83BF8091EC01882309F047CF80912F
:10497000ED01882309F042CF80913502882319F395
:104980003DCF1F93182F80913E028823B1F0809174
:104990003F02810F80933F0280913F02813F20F4CC
:1049A00080913F0287FF04C080913F02805802C07F
:1049B00080913F0280933F029BC0809137028930F3
:1049C00040F080913702893021F0809137028A309F
:1049D00041F480913902813021F4812F0E947013BB
:1049E00087C080913702893008F063C08091390216
:1049F000882309F05EC00E944E2C809137028430DB
:104A000041F080913702863021F080913702823068
:104A1000E1F480913802810F80933802809138024E
:104A2000833031F410923802809137028F5F0AC0D0
:104A3000809138028F3F11F582E080933802809197
:104A4000370281508093370219C080913702810F5D
:104A5000809337021F3F81F480913702843041F008
:104A600080913702863021F080913702823021F424
:104A700082E08093380202C010923802809137029F
:104A8000813F20F080913702875F0AC08091370212
:104A9000893020F080913702895002C0809137021E
:104AA000809337028FE780933F0281E08093330247
:104AB0001FC0809137028B3021F4812F0E94F70EA6
:104AC00017C0809137028C3021F4812F0E94F5109D
:104AD0000FC0809137028D3021F4812F0E94571131
:104AE00007C080913702873019F4812F0E94B51BCF
:104AF0001F9108951F9380913702863041F0809175
:104B00003702843021F0809137028230B1F48091F5
:104B10003E02882361F481E00E944E2C809137028E
:104B20008093B8028AE08093370281E01FC082E060
:104B30000E944E2C10923E021FC080913702893095
:104B400018F5809139028823F9F4E0913702F0E0FA
:104B5000EE0FFF1FE251FE4F80819181009781F09F
:104B600081E00E944E2C809139028F5F8093390240
:104B700010923D0210923A0281E08093330258C0B5
:104B800083E00E944E2C54C080913702893040F05F
:104B900080913702893021F0809137028A3069F59F
:104BA00010913902113049F580913A028823F9F4C5
:104BB00082E00E944E2C809139028150809339020C
:104BC00080913702893051F48091B8028093370286
:104BD00080913B0280933A02109339028091370210
:104BE0008A3051F68091B80280933702C5CF81E0B8
:104BF0000E944E2C0E945E11BFCF809137028B30F5
:104C000019F40E94C70E14C0809137028C3019F439
:104C10000E941A100DC0809137028D3019F40E9445
:104C2000D11306C080913702873011F40E94E61B31
:104C30001F9108951F920F920FB60F921124EF92B9
:104C4000FF920F931F932F933F934F935F936F9315
:104C50007F938F939F93AF93BF93EF93FF930E94A4
:104C6000EA0C8091AE029091AF02A091B002B09197
:104C7000B10283709070A070B0700097A105B1056B
:104C8000E1F480914002882359F480913702883002
:104C900039F480913902882319F481E08093ED0181
:104CA0008091AC02882349F481E08093EC019091DB
:104CB0004002992311F48093ED01809140028823F2
:104CC00009F070C08091AE029091AF02A091B00245
:104CD000B091B102E090B200FF2400E010E0BA2FE2
:104CE000A92F982F8827E82AF92A0A2B1B2B8091B5
:104CF000420290914302A0914402B0914502E81A09
:104D0000F90A0A0B1B0B809141028823A9F5189B15
:104D100002C01A9931C081E7E81687E1F80680E001
:104D2000080780E0180730F0189902C088E21FC019
:104D300088ED1DC089EBE8168BE0F80680E00807D7
:104D400080E0180730F0189902C08CE010C084EFA2
:104D50000EC085EFE81681E0F80680E0080780E0E5
:104D6000180750F0189902C084E001C08CEF0E942F
:104D7000C12481E08093ED018091BD0290E0A0E02C
:104D8000B0E02AE0880F991FAA1FBB1F2A95D1F710
:104D90008E159F05A007B10728F481E0809340029B
:104DA0000E94152E1092B0008091B60081FDFCCFBC
:104DB000FF91EF91BF91AF919F918F917F916F91F3
:104DC0005F914F913F912F911F910F91FF90EF9025
:104DD0000F900FBE0F901F9018951F920F920FB655
:104DE0000F921124EF92FF920F931F932F933F93F3
:104DF0004F935F936F937F938F939F93AF93BF93E3
:104E0000EF93FF9380914002882341F12091AE02FD
:104E10003091AF024091B0025091B1028091B20046
:104E200090E0A0E0B0E0542F432F322F2227822BB6
:104E3000932BA42BB52B8093420290934302A09313
:104E40004402B09345021092400280E00E94152E69
:104E500081E0809333028093ED011DC0E090AE02AB
:104E6000F090AF020091B0021091B1028091B200B7
:104E700020914202309143024091440250914502F8
:104E800090914102913051F4189971C01A996FC0F4
:104E9000199B6DC082E08093410269C090E0A0E060
:104EA000B0E0102F0F2DFE2CEE248E299F29A02B71
:104EB000B12B821B930BA40BB50B20914102223026
:104EC00091F4189B54C01A9B52C0199B50C08B3F41
:104ED0009105A105B10508F44AC01092410281E094
:104EE0008093330242C0189908C01A9906C01999D4
:104EF00004C081E0809336023AC0189B02C01A9920
:104F00000DC08B3F9105A105B10540F0189902C075
:104F100081E001C08FEF0E94C12409C0199927C008
:104F20008B3F9105A105B10510F10E947A252091D2
:104F3000AE023091AF024091B0025091B102809127
:104F4000B20090E0A0E0B0E0542F432F322F222790
:104F5000822B932BA42BB52B809342029093430278
:104F6000A0934402B093450281E08093ED01FF914C
:104F7000EF91BF91AF919F918F917F916F915F91D1
:104F80004F913F912F911F910F91FF90EF900F90B4
:104F90000FBE0F901F901895282F30E02250304000
:104FA0003695322F222737952795260F311D220F50
:104FB000331F220F331F205F3F4FC9010895282F51
:104FC00030E0823028F42351394FF901808108956F
:104FD000C901880F991F880F991F05970E94723B7E
:104FE0000895823080F4282F30E03695322F222722
:104FF00037952795260F311D220F331F220F331FA0
:1050000027513D4F0EC00E94CC270E947A3B6093EF
:10501000E9067093EA068093EB069093EC0629EE7E
:1050200036E0C90108956F927F928F929F92AF925E
:10503000BF92CF92DF92EF92FF920F931F93CF9385
:10504000DF93EC0179018A017093DA026093D9024F
:105050002093D5023093D6024093D7025093D802C2
:10506000CB01E3E0880F991FEA95E1F7860F971FC0
:1050700065E070E00E94703A605C7E4F882777FDA3
:105080008095982F6C392FEF72072FEF82072FEF43
:10509000920724F46CE97FEF8FEF9FEF6A597F4FFF
:1050A0008F4F9F4F25E030E040E050E00E94A53A4E
:1050B000A22EB32EC42ED52E6FEFA616B104C104B6
:1050C000D10431F02CF07FEFA72EB12CC12CD12CC4
:1050D00080E2E8168EE4F80680E0080780E0180712
:1050E0001CF0C801B70104C060E27EE480E090E0FB
:1050F00067507E448040904022E330E040E050E042
:105100000E94A53A622E932E842E752EC801B701F7
:105110000E94DD370E94B50928E439EF41E550E4EB
:105120000E946938262F372F482F592F2093DB02F2
:105130003093DC024093DD025093DE0220E030E049
:1051400040E05FE30E94DE360E94AA37262F372F09
:10515000482F592F28396AEF36076FEF46076FEF50
:10516000560724F428E93AEF4FEF5FEF27593A4FFB
:105170004F4F5F4F5595479537952795A882862DB8
:10518000992DA82DB72D803068E0960760E0A6071E
:1051900060E0B60724F08FEF97E0A0E0B0E08983ED
:1051A00097708A81887F892B8A83203080E2380734
:1051B00080E0480780E0580724F02FEF3FE140E00F
:1051C00050E0922F990F990F990F8A818770892B40
:1051D0008A83832F880F880F880F22952695277042
:1051E000282B2B83DF91CF911F910F91FF90EF9090
:1051F000DF90CF90BF90AF909F908F907F906F90F7
:105200000895BF92CF92DF92EF92FF920F931F9378
:10521000DF93CF9300D000D000D0CDB7DEB7FC0134
:105220009A01AB01CE010196BF010E941328B1E2A1
:10523000EB2EB2E0FB2E0DEE16E0CC24DD2420E0B8
:105240003CE3222391F08091B2024091B302839F0C
:10525000C0011124840F911DF701608171810E94AA
:105260005C3A0097A9F52230C9F0F8014081F601B7
:10527000E40FF11DEE0FFF1FEE0FFF1FE751FD4F73
:1052800089819A81AB81BC8180839183A283B3831E
:10529000842F8F5F8F77F80180831AC083E090E0BE
:1052A0002D833E830E94723BB82E82E06B2D0E94BC
:1052B000CC2749815A816B817C810E94983B6B2D60
:1052C0006F5F6F7783E090E00E94863B3E812D8187
:1052D0002F5F82E090E0E80EF91E0F5F1F4FE0E8BD
:1052E000F0E0CE0EDF1E233009F0ABCF26960FB6CE
:1052F000F894DEBF0FBECDBFCF91DF911F910F910C
:10530000FF90EF90DF90CF90BF9008954F925F9203
:105310006F927F928F929F92AF92BF92CF92DF92C5
:10532000EF92FF920F931F93DF93CF9300D000D0A3
:10533000CDB7DEB7FC016A017B0128013901CE013E
:105340000196BF01A70196010E94132890E1E92E62
:1053500092E0F92E00E010E0AA24AA94BA2C65018C
:1053600088249924C7010E947A3B6A157B058C0525
:105370009D0518F45B016C0148010F5F1F4F88E029
:1053800090E0E80EF91E0E33110561F784010E5B03
:105390001F4F83E0000F111F8A95E1F7C801B30189
:1053A000A2010E94983B49815A816B817C81C8018E
:1053B00004960E94983B0F900F900F900F90CF9102
:1053C000DF911F910F91FF90EF90DF90CF90BF90F2
:1053D000AF909F908F907F906F905F904F900895C7
:1053E000AF92BF92CF92DF92EF92FF920F931F93F3
:1053F000CF93DF9300E112E0C0E0D0E0CC24DD24C5
:105400007601AA24BB24C8010E947A3B6C157D0555
:105410008E059F0518F06B017C015E012196085FE7
:105420001F4FCE33D10579F78A2DDF91CF911F9190
:105430000F91FF90EF90DF90CF90BF90AF900895C5
:105440000F931F93DF93CF9300D000D0CDB7DEB77B
:10545000082F10E00E5B1F4F23E0000F111F2A954D
:10546000E1F7C8010E947A3B6093E1027093E20287
:105470008093E3029093E402C80104960E947A3B71
:105480006093E5027093E6028093E7029093E8024E
:1054900081EE92E00F900F900F900F90CF91DF91DF
:1054A0001F910F9108958EE308951F93CF93DF937B
:1054B000C0E1D2E010E0CE010E947A3B289661154F
:1054C00071058105910519F01F5F1E33A1F7812F2A
:1054D000DF91CF911F9108951F93CF93DF93182FE2
:1054E0001092E0021092DF02ADEEB6E020E030E074
:1054F0001D9280E0F901E80FF11DEE0FFF1FEE0F86
:10550000FF1FE751FD4F10821182128213828F5FBD
:10551000803881F720583F4F81E02030380741F72D
:1055200080E090E00E94803B2EEB833B920741F4A9
:10553000112331F484E092E060E00E94992D35C09F
:1055400082E192E060E00E94992D80E090E043EBE0
:105550005EEB60E070E00E94983B84E090E040E009
:1055600050E0BA010E94983B10E082E0612F0E9457
:10557000CC2740E050E0BA010E94983B1F5F1038F2
:10558000A1F7C0E1D2E0CE0140E050E0BA010E94B4
:10559000983BCE01049640E050E0BA010E94983B4F
:1055A000289684E0C030D80771F7DF91CF911F9122
:1055B0000895EF92FF920F931F93CF93DF93EC0127
:1055C0002FE74E3F520714F0188240C0662381F443
:1055D000BA01882777FD8095982F0E94DD3720E05B
:1055E00030E040E05FE30E94693841E021E022C002
:1055F000613021F5BA01882777FD8095982F29E839
:105600003BE040E050E00E94313A20ED37E040E0DE
:1056100050E00E94A53AB901882777FD8095982F20
:105620000E94DD3720E030E048EC52E40E9442372F
:1056300041E022E08E010E94C03A08C0CA01880FF2
:10564000991FBE014AE050E00E941D3BCE01DF9150
:10565000CF911F910F91FF90EF900895EF92FF92DD
:10566000CF93DF93EC012FE74E3F520714F01882DF
:105670000EC0662319F466E779E007C0613019F4BB
:1056800063E779E002C060E779E00E94F53ACE0175
:10569000DF91CF91FF90EF900895882359F081E03A
:1056A000809346024198D9988091680082608093E7
:1056B00068000895809168008D7F80936800419A0A
:1056C0000895409A399AECE6F0E080818160808309
:1056D00081E00E944D2B089520914B0230914C02A5
:1056E000C901089580914A02089580914702882354
:1056F00041F0809148028F5F8093480210924902E6
:1057000007C010924802809149028F5F809349023E
:1057100080914A02882381F4809148028530F1F417
:1057200081E080934A028091480290E090934C027D
:1057300080934B0284E006C080914902853029F4B1
:1057400010924A020E944E2C09C080914B02909107
:105750004C02019690934C0280934B0281E00E9490
:105760004D2B1092470208951F920F920FB60F9281
:1057700011242F933F934F935F936F937F938F9356
:105780009F93AF93BF93EF93FF938091460288233B
:1057900019F01092460206C081E08093470280E033
:1057A0000E944D2BFF91EF91BF91AF919F918F91EF
:1057B0007F916F915F914F913F912F910F900FBE0D
:1057C0000F901F90189510924D028BB18E7B8BB964
:1057D00014BC10926F0016BAE4E6F0E08081886293
:1057E00080830895569A509A0E94E32B08958091E1
:1057F000F006882339F48091EF06823018F1853065
:1058000019F520C08091F006813049F48091EF06AF
:105810008823A9F08230B1F08430B1F413C08091B4
:10582000F006823021F48091EF06843059F08091A7
:10583000F006823021F48091EF06853029F00E9435
:10584000E32B089580E401C080E6909164009F7D81
:105850009093640092E494BD93E095BD87BD16BC1F
:1058600080916400877F80936400109280008DE0B7
:10587000809381008091EF068450823028F489E083
:105880008093890080E603C09093890080E2809332
:10589000880082E086BB80936F0008959091270274
:1058A000992349F08093EF061092F00681E08093EF
:1058B0004D020E94F72B08951F920F920FB60F9280
:1058C00011242F933F934F935F936F937F938F9305
:1058D0009F93AF93BF93EF93FF938091F0068F5FF9
:1058E0008093F0060E94F72BFF91EF91BF91AF914B
:1058F0009F918F917F916F915F914F913F912F91E8
:105900000F900FBE0F901F901895882311F05F9A8B
:1059100001C05F985C98662309F443C067FF02C02A
:105920002B9A01C02B982D9A2D98862F880F66FFF1
:1059300002C02B9A01C02B982D9A2D98982F990F61
:1059400086FF02C02B9A01C02B982D9A2D98892F83
:10595000880F96FF02C02B9A01C02B982D9A2D9884
:10596000982F990F86FF02C02B9A01C02B982D9A71
:105970002D98892F880F96FF02C02B9A01C02B9873
:105980002D9A2D98982F990F86FF02C02B9A01C04F
:105990002B982D9A2D9896FF02C02B9A11C02B9808
:1059A0000FC02B982D9A2D982D9A2D982D9A2D98C1
:1059B0002D9A2D982D9A2D982D9A2D982D9A2D98B7
:1059C0002D9A2D985C9A08958AB1806B8AB984B11A
:1059D000886284B95C9A5D9A8FEC97E00197F1F741
:1059E00000C000005D988FE19EE40197F1F700C0D0
:1059F00000005D9A80E06EEA0E94852C80E060E005
:105A00000E94852C80E060E10E94852C80E060E4AB
:105A10000E94852C80E061E80E94852C6091FB0645
:105A200080E00E94852C80E061EA0E94852C80E065
:105A300066EA0E94852C80E064EA0E94852C80E062
:105A400068EA0E94852C80E06FE30E94852C80E04C
:105A500063ED0E94852C80E060E00E94852C80E050
:105A600065ED0E94852C80E060E80E94852C80E036
:105A700069ED0E94852C80E061EF0E94852C80E01A
:105A80006AED0E94852C80E062E10E94852C80E016
:105A90006BED0E94852C80E060E40E94852C80E004
:105AA00060E20E94852C80E060E00E94852C80E00E
:105AB00061EA0E94852C80E068EC0E94852C80E0E1
:105AC0006DE80E94852C80E064E10E94852C80E0D6
:105AD0006FEA0E94852C0895EF92FF920F931F9317
